{
  "abi": [
    {
      "type": "constructor",
      "inputs": [
        {
          "name": "coordinator",
          "type": "address",
          "internalType": "address"
        }
      ],
      "stateMutability": "nonpayable"
    },
    {
      "type": "function",
      "name": "CALLBACK_GAS_LIMIT",
      "inputs": [],
      "outputs": [
        {
          "name": "",
          "type": "uint32",
          "internalType": "uint32"
        }
      ],
      "stateMutability": "view"
    },
    {
      "type": "function",
      "name": "CommonGemsCooldownPeriod",
      "inputs": [],
      "outputs": [
        {
          "name": "",
          "type": "uint256",
          "internalType": "uint256"
        }
      ],
      "stateMutability": "view"
    },
    {
      "type": "function",
      "name": "CommonGemsMiningPeriod",
      "inputs": [],
      "outputs": [
        {
          "name": "",
          "type": "uint256",
          "internalType": "uint256"
        }
      ],
      "stateMutability": "view"
    },
    {
      "type": "function",
      "name": "CommonGemsValue",
      "inputs": [],
      "outputs": [
        {
          "name": "",
          "type": "uint256",
          "internalType": "uint256"
        }
      ],
      "stateMutability": "view"
    },
    {
      "type": "function",
      "name": "CommonMiningFees",
      "inputs": [],
      "outputs": [
        {
          "name": "",
          "type": "uint256",
          "internalType": "uint256"
        }
      ],
      "stateMutability": "view"
    },
    {
      "type": "function",
      "name": "DEFAULT_ADMIN_ROLE",
      "inputs": [],
      "outputs": [
        {
          "name": "",
          "type": "bytes32",
          "internalType": "bytes32"
        }
      ],
      "stateMutability": "view"
    },
    {
      "type": "function",
      "name": "EpicGemsCooldownPeriod",
      "inputs": [],
      "outputs": [
        {
          "name": "",
          "type": "uint256",
          "internalType": "uint256"
        }
      ],
      "stateMutability": "view"
    },
    {
      "type": "function",
      "name": "EpicGemsMiningPeriod",
      "inputs": [],
      "outputs": [
        {
          "name": "",
          "type": "uint256",
          "internalType": "uint256"
        }
      ],
      "stateMutability": "view"
    },
    {
      "type": "function",
      "name": "EpicGemsValue",
      "inputs": [],
      "outputs": [
        {
          "name": "",
          "type": "uint256",
          "internalType": "uint256"
        }
      ],
      "stateMutability": "view"
    },
    {
      "type": "function",
      "name": "EpicMiningFees",
      "inputs": [],
      "outputs": [
        {
          "name": "",
          "type": "uint256",
          "internalType": "uint256"
        }
      ],
      "stateMutability": "view"
    },
    {
      "type": "function",
      "name": "GEMIndexToApproved",
      "inputs": [
        {
          "name": "",
          "type": "uint256",
          "internalType": "uint256"
        }
      ],
      "outputs": [
        {
          "name": "",
          "type": "address",
          "internalType": "address"
        }
      ],
      "stateMutability": "view"
    },
    {
      "type": "function",
      "name": "GEMIndexToOwner",
      "inputs": [
        {
          "name": "",
          "type": "uint256",
          "internalType": "uint256"
        }
      ],
      "outputs": [
        {
          "name": "",
          "type": "address",
          "internalType": "address"
        }
      ],
      "stateMutability": "view"
    },
    {
      "type": "function",
      "name": "Gems",
      "inputs": [
        {
          "name": "",
          "type": "uint256",
          "internalType": "uint256"
        }
      ],
      "outputs": [
        {
          "name": "tokenId",
          "type": "uint256",
          "internalType": "uint256"
        },
        {
          "name": "rarity",
          "type": "uint8",
          "internalType": "enum GemFactoryStorage.Rarity"
        },
        {
          "name": "gemCooldownPeriod",
          "type": "uint256",
          "internalType": "uint256"
        },
        {
          "name": "miningPeriod",
          "type": "uint256",
          "internalType": "uint256"
        },
        {
          "name": "isLocked",
          "type": "bool",
          "internalType": "bool"
        },
        {
          "name": "value",
          "type": "uint256",
          "internalType": "uint256"
        },
        {
          "name": "stakingIndex",
          "type": "uint256",
          "internalType": "uint256"
        },
        {
          "name": "tokenURI",
          "type": "string",
          "internalType": "string"
        },
        {
          "name": "randomRequestId",
          "type": "uint256",
          "internalType": "uint256"
        }
      ],
      "stateMutability": "view"
    },
    {
      "type": "function",
      "name": "L1StakingIndex",
      "inputs": [],
      "outputs": [
        {
          "name": "",
          "type": "uint256",
          "internalType": "uint256"
        }
      ],
      "stateMutability": "view"
    },
    {
      "type": "function",
      "name": "LegendaryGemsCooldownPeriod",
      "inputs": [],
      "outputs": [
        {
          "name": "",
          "type": "uint256",
          "internalType": "uint256"
        }
      ],
      "stateMutability": "view"
    },
    {
      "type": "function",
      "name": "LegendaryGemsMiningPeriod",
      "inputs": [],
      "outputs": [
        {
          "name": "",
          "type": "uint256",
          "internalType": "uint256"
        }
      ],
      "stateMutability": "view"
    },
    {
      "type": "function",
      "name": "LegendaryGemsValue",
      "inputs": [],
      "outputs": [
        {
          "name": "",
          "type": "uint256",
          "internalType": "uint256"
        }
      ],
      "stateMutability": "view"
    },
    {
      "type": "function",
      "name": "LegendaryMiningFees",
      "inputs": [],
      "outputs": [
        {
          "name": "",
          "type": "uint256",
          "internalType": "uint256"
        }
      ],
      "stateMutability": "view"
    },
    {
      "type": "function",
      "name": "MythicGemsCooldownPeriod",
      "inputs": [],
      "outputs": [
        {
          "name": "",
          "type": "uint256",
          "internalType": "uint256"
        }
      ],
      "stateMutability": "view"
    },
    {
      "type": "function",
      "name": "MythicGemsMiningPeriod",
      "inputs": [],
      "outputs": [
        {
          "name": "",
          "type": "uint256",
          "internalType": "uint256"
        }
      ],
      "stateMutability": "view"
    },
    {
      "type": "function",
      "name": "MythicGemsValue",
      "inputs": [],
      "outputs": [
        {
          "name": "",
          "type": "uint256",
          "internalType": "uint256"
        }
      ],
      "stateMutability": "view"
    },
    {
      "type": "function",
      "name": "MythicMiningFees",
      "inputs": [],
      "outputs": [
        {
          "name": "",
          "type": "uint256",
          "internalType": "uint256"
        }
      ],
      "stateMutability": "view"
    },
    {
      "type": "function",
      "name": "PAUSE_ROLE",
      "inputs": [],
      "outputs": [
        {
          "name": "",
          "type": "bytes32",
          "internalType": "bytes32"
        }
      ],
      "stateMutability": "view"
    },
    {
      "type": "function",
      "name": "RareGemsCooldownPeriod",
      "inputs": [],
      "outputs": [
        {
          "name": "",
          "type": "uint256",
          "internalType": "uint256"
        }
      ],
      "stateMutability": "view"
    },
    {
      "type": "function",
      "name": "RareGemsMiningPeriod",
      "inputs": [],
      "outputs": [
        {
          "name": "",
          "type": "uint256",
          "internalType": "uint256"
        }
      ],
      "stateMutability": "view"
    },
    {
      "type": "function",
      "name": "RareGemsValue",
      "inputs": [],
      "outputs": [
        {
          "name": "",
          "type": "uint256",
          "internalType": "uint256"
        }
      ],
      "stateMutability": "view"
    },
    {
      "type": "function",
      "name": "RareMiningFees",
      "inputs": [],
      "outputs": [
        {
          "name": "",
          "type": "uint256",
          "internalType": "uint256"
        }
      ],
      "stateMutability": "view"
    },
    {
      "type": "function",
      "name": "TREASURY_ROLE",
      "inputs": [],
      "outputs": [
        {
          "name": "",
          "type": "bytes32",
          "internalType": "bytes32"
        }
      ],
      "stateMutability": "view"
    },
    {
      "type": "function",
      "name": "UniqueGemsCooldownPeriod",
      "inputs": [],
      "outputs": [
        {
          "name": "",
          "type": "uint256",
          "internalType": "uint256"
        }
      ],
      "stateMutability": "view"
    },
    {
      "type": "function",
      "name": "UniqueGemsMiningPeriod",
      "inputs": [],
      "outputs": [
        {
          "name": "",
          "type": "uint256",
          "internalType": "uint256"
        }
      ],
      "stateMutability": "view"
    },
    {
      "type": "function",
      "name": "UniqueGemsValue",
      "inputs": [],
      "outputs": [
        {
          "name": "",
          "type": "uint256",
          "internalType": "uint256"
        }
      ],
      "stateMutability": "view"
    },
    {
      "type": "function",
      "name": "UniqueMiningFees",
      "inputs": [],
      "outputs": [
        {
          "name": "",
          "type": "uint256",
          "internalType": "uint256"
        }
      ],
      "stateMutability": "view"
    },
    {
      "type": "function",
      "name": "addAdmin",
      "inputs": [
        {
          "name": "account",
          "type": "address",
          "internalType": "address"
        }
      ],
      "outputs": [],
      "stateMutability": "nonpayable"
    },
    {
      "type": "function",
      "name": "addBackgroundColor",
      "inputs": [
        {
          "name": "_backgroundColor",
          "type": "string",
          "internalType": "string"
        }
      ],
      "outputs": [],
      "stateMutability": "nonpayable"
    },
    {
      "type": "function",
      "name": "addColor",
      "inputs": [
        {
          "name": "_color",
          "type": "string",
          "internalType": "string"
        }
      ],
      "outputs": [],
      "stateMutability": "nonpayable"
    },
    {
      "type": "function",
      "name": "addMinter",
      "inputs": [
        {
          "name": "account",
          "type": "address",
          "internalType": "address"
        }
      ],
      "outputs": [],
      "stateMutability": "nonpayable"
    },
    {
      "type": "function",
      "name": "adminTransferGEM",
      "inputs": [
        {
          "name": "_to",
          "type": "address",
          "internalType": "address"
        },
        {
          "name": "_tokenId",
          "type": "uint256",
          "internalType": "uint256"
        }
      ],
      "outputs": [
        {
          "name": "",
          "type": "bool",
          "internalType": "bool"
        }
      ],
      "stateMutability": "nonpayable"
    },
    {
      "type": "function",
      "name": "aliveImplementation",
      "inputs": [
        {
          "name": "",
          "type": "address",
          "internalType": "address"
        }
      ],
      "outputs": [
        {
          "name": "",
          "type": "bool",
          "internalType": "bool"
        }
      ],
      "stateMutability": "view"
    },
    {
      "type": "function",
      "name": "approve",
      "inputs": [
        {
          "name": "to",
          "type": "address",
          "internalType": "address"
        },
        {
          "name": "tokenId",
          "type": "uint256",
          "internalType": "uint256"
        }
      ],
      "outputs": [],
      "stateMutability": "nonpayable"
    },
    {
      "type": "function",
      "name": "backgroundColors",
      "inputs": [
        {
          "name": "",
          "type": "uint256",
          "internalType": "uint256"
        }
      ],
      "outputs": [
        {
          "name": "",
          "type": "string",
          "internalType": "string"
        }
      ],
      "stateMutability": "view"
    },
    {
      "type": "function",
      "name": "balanceOf",
      "inputs": [
        {
          "name": "_owner",
          "type": "address",
          "internalType": "address"
        }
      ],
      "outputs": [
        {
          "name": "count",
          "type": "uint256",
          "internalType": "uint256"
        }
      ],
      "stateMutability": "view"
    },
    {
      "type": "function",
      "name": "claimMinedGEM",
      "inputs": [
        {
          "name": "_tokenId",
          "type": "uint256",
          "internalType": "uint256"
        }
      ],
      "outputs": [
        {
          "name": "",
          "type": "bool",
          "internalType": "bool"
        }
      ],
      "stateMutability": "nonpayable"
    },
    {
      "type": "function",
      "name": "colors",
      "inputs": [
        {
          "name": "",
          "type": "uint256",
          "internalType": "uint256"
        }
      ],
      "outputs": [
        {
          "name": "",
          "type": "string",
          "internalType": "string"
        }
      ],
      "stateMutability": "view"
    },
    {
      "type": "function",
      "name": "createGEM",
      "inputs": [
        {
          "name": "_rarity",
          "type": "uint8",
          "internalType": "enum GemFactoryStorage.Rarity"
        },
        {
          "name": "_color",
          "type": "uint8[2]",
          "internalType": "uint8[2]"
        },
        {
          "name": "_stakingIndex",
          "type": "uint256",
          "internalType": "uint256"
        },
        {
          "name": "_quadrants",
          "type": "uint8[4]",
          "internalType": "uint8[4]"
        },
        {
          "name": "_tokenURI",
          "type": "string",
          "internalType": "string"
        }
      ],
      "outputs": [
        {
          "name": "",
          "type": "uint256",
          "internalType": "uint256"
        }
      ],
      "stateMutability": "nonpayable"
    },
    {
      "type": "function",
      "name": "createGEMPool",
      "inputs": [
        {
          "name": "_rarities",
          "type": "uint8[]",
          "internalType": "enum GemFactoryStorage.Rarity[]"
        },
        {
          "name": "_colors",
          "type": "uint8[2][]",
          "internalType": "uint8[2][]"
        },
        {
          "name": "_stakingIndexes",
          "type": "uint256[]",
          "internalType": "uint256[]"
        },
        {
          "name": "_quadrants",
          "type": "uint8[4][]",
          "internalType": "uint8[4][]"
        },
        {
          "name": "_tokenURIs",
          "type": "string[]",
          "internalType": "string[]"
        }
      ],
      "outputs": [
        {
          "name": "",
          "type": "uint256[]",
          "internalType": "uint256[]"
        }
      ],
      "stateMutability": "nonpayable"
    },
    {
      "type": "function",
      "name": "customBackgroundColors",
      "inputs": [
        {
          "name": "",
          "type": "uint8",
          "internalType": "uint8"
        }
      ],
      "outputs": [
        {
          "name": "",
          "type": "string",
          "internalType": "string"
        }
      ],
      "stateMutability": "view"
    },
    {
      "type": "function",
      "name": "customBackgroundColorsCount",
      "inputs": [],
      "outputs": [
        {
          "name": "",
          "type": "uint8",
          "internalType": "uint8"
        }
      ],
      "stateMutability": "view"
    },
    {
      "type": "function",
      "name": "customColors",
      "inputs": [
        {
          "name": "",
          "type": "uint8",
          "internalType": "uint8"
        }
      ],
      "outputs": [
        {
          "name": "",
          "type": "string",
          "internalType": "string"
        }
      ],
      "stateMutability": "view"
    },
    {
      "type": "function",
      "name": "customColorsCount",
      "inputs": [],
      "outputs": [
        {
          "name": "",
          "type": "uint8",
          "internalType": "uint8"
        }
      ],
      "stateMutability": "view"
    },
    {
      "type": "function",
      "name": "estimatedStakingIndexIncreaseRate",
      "inputs": [],
      "outputs": [
        {
          "name": "",
          "type": "uint256",
          "internalType": "uint256"
        }
      ],
      "stateMutability": "view"
    },
    {
      "type": "function",
      "name": "forgeTokens",
      "inputs": [
        {
          "name": "_tokenIds",
          "type": "uint256[]",
          "internalType": "uint256[]"
        },
        {
          "name": "_stakingIndex",
          "type": "uint256",
          "internalType": "uint256"
        },
        {
          "name": "_rarity",
          "type": "uint8",
          "internalType": "enum GemFactoryStorage.Rarity"
        },
        {
          "name": "_color",
          "type": "uint8[2]",
          "internalType": "uint8[2]"
        }
      ],
      "outputs": [
        {
          "name": "newGemId",
          "type": "uint256",
          "internalType": "uint256"
        }
      ],
      "stateMutability": "nonpayable"
    },
    {
      "type": "function",
      "name": "gemAllowedToAddress",
      "inputs": [
        {
          "name": "",
          "type": "uint256",
          "internalType": "uint256"
        }
      ],
      "outputs": [
        {
          "name": "",
          "type": "address",
          "internalType": "address"
        }
      ],
      "stateMutability": "view"
    },
    {
      "type": "function",
      "name": "getApproved",
      "inputs": [
        {
          "name": "tokenId",
          "type": "uint256",
          "internalType": "uint256"
        }
      ],
      "outputs": [
        {
          "name": "",
          "type": "address",
          "internalType": "address"
        }
      ],
      "stateMutability": "view"
    },
    {
      "type": "function",
      "name": "getCalculatedDirectFundingPrice",
      "inputs": [
        {
          "name": "_callbackGasLimit",
          "type": "uint32",
          "internalType": "uint32"
        }
      ],
      "outputs": [
        {
          "name": "",
          "type": "uint256",
          "internalType": "uint256"
        }
      ],
      "stateMutability": "view"
    },
    {
      "type": "function",
      "name": "getCommonMiningFees",
      "inputs": [],
      "outputs": [
        {
          "name": "",
          "type": "uint256",
          "internalType": "uint256"
        }
      ],
      "stateMutability": "view"
    },
    {
      "type": "function",
      "name": "getCustomColor",
      "inputs": [
        {
          "name": "_index",
          "type": "uint8",
          "internalType": "uint8"
        }
      ],
      "outputs": [
        {
          "name": "",
          "type": "string",
          "internalType": "string"
        }
      ],
      "stateMutability": "view"
    },
    {
      "type": "function",
      "name": "getGem",
      "inputs": [
        {
          "name": "_tokenId",
          "type": "uint256",
          "internalType": "uint256"
        }
      ],
      "outputs": [
        {
          "name": "",
          "type": "tuple",
          "internalType": "struct GemFactoryStorage.Gem",
          "components": [
            {
              "name": "tokenId",
              "type": "uint256",
              "internalType": "uint256"
            },
            {
              "name": "rarity",
              "type": "uint8",
              "internalType": "enum GemFactoryStorage.Rarity"
            },
            {
              "name": "quadrants",
              "type": "uint8[4]",
              "internalType": "uint8[4]"
            },
            {
              "name": "color",
              "type": "uint8[2]",
              "internalType": "uint8[2]"
            },
            {
              "name": "gemCooldownPeriod",
              "type": "uint256",
              "internalType": "uint256"
            },
            {
              "name": "miningPeriod",
              "type": "uint256",
              "internalType": "uint256"
            },
            {
              "name": "isLocked",
              "type": "bool",
              "internalType": "bool"
            },
            {
              "name": "value",
              "type": "uint256",
              "internalType": "uint256"
            },
            {
              "name": "stakingIndex",
              "type": "uint256",
              "internalType": "uint256"
            },
            {
              "name": "tokenURI",
              "type": "string",
              "internalType": "string"
            },
            {
              "name": "randomRequestId",
              "type": "uint256",
              "internalType": "uint256"
            }
          ]
        }
      ],
      "stateMutability": "view"
    },
    {
      "type": "function",
      "name": "getRareMiningFees",
      "inputs": [],
      "outputs": [
        {
          "name": "",
          "type": "uint256",
          "internalType": "uint256"
        }
      ],
      "stateMutability": "view"
    },
    {
      "type": "function",
      "name": "getRoleAdmin",
      "inputs": [
        {
          "name": "role",
          "type": "bytes32",
          "internalType": "bytes32"
        }
      ],
      "outputs": [
        {
          "name": "",
          "type": "bytes32",
          "internalType": "bytes32"
        }
      ],
      "stateMutability": "view"
    },
    {
      "type": "function",
      "name": "getTon",
      "inputs": [],
      "outputs": [
        {
          "name": "",
          "type": "address",
          "internalType": "address"
        }
      ],
      "stateMutability": "view"
    },
    {
      "type": "function",
      "name": "getTreasury",
      "inputs": [],
      "outputs": [
        {
          "name": "",
          "type": "address",
          "internalType": "address"
        }
      ],
      "stateMutability": "view"
    },
    {
      "type": "function",
      "name": "getUniqueMiningFees",
      "inputs": [],
      "outputs": [
        {
          "name": "",
          "type": "uint256",
          "internalType": "uint256"
        }
      ],
      "stateMutability": "view"
    },
    {
      "type": "function",
      "name": "getWston",
      "inputs": [],
      "outputs": [
        {
          "name": "",
          "type": "address",
          "internalType": "address"
        }
      ],
      "stateMutability": "view"
    },
    {
      "type": "function",
      "name": "grantRole",
      "inputs": [
        {
          "name": "role",
          "type": "bytes32",
          "internalType": "bytes32"
        },
        {
          "name": "account",
          "type": "address",
          "internalType": "address"
        }
      ],
      "outputs": [],
      "stateMutability": "nonpayable"
    },
    {
      "type": "function",
      "name": "hasRole",
      "inputs": [
        {
          "name": "role",
          "type": "bytes32",
          "internalType": "bytes32"
        },
        {
          "name": "account",
          "type": "address",
          "internalType": "address"
        }
      ],
      "outputs": [
        {
          "name": "",
          "type": "bool",
          "internalType": "bool"
        }
      ],
      "stateMutability": "view"
    },
    {
      "type": "function",
      "name": "initialize",
      "inputs": [
        {
          "name": "_wston",
          "type": "address",
          "internalType": "address"
        },
        {
          "name": "_ton",
          "type": "address",
          "internalType": "address"
        },
        {
          "name": "_treasury",
          "type": "address",
          "internalType": "address"
        },
        {
          "name": "_CommonMiningFees",
          "type": "uint256",
          "internalType": "uint256"
        },
        {
          "name": "_RareMiningFees",
          "type": "uint256",
          "internalType": "uint256"
        },
        {
          "name": "_UniqueMiningFees",
          "type": "uint256",
          "internalType": "uint256"
        },
        {
          "name": "_EpicMiningFees",
          "type": "uint256",
          "internalType": "uint256"
        },
        {
          "name": "_LegendaryMiningFees",
          "type": "uint256",
          "internalType": "uint256"
        },
        {
          "name": "_MythicMiningFees",
          "type": "uint256",
          "internalType": "uint256"
        },
        {
          "name": "_CommonGemsValue",
          "type": "uint256",
          "internalType": "uint256"
        },
        {
          "name": "_RareGemsValue",
          "type": "uint256",
          "internalType": "uint256"
        },
        {
          "name": "_UniqueGemsValue",
          "type": "uint256",
          "internalType": "uint256"
        },
        {
          "name": "_EpicGemsValue",
          "type": "uint256",
          "internalType": "uint256"
        },
        {
          "name": "_LegendaryGemsValue",
          "type": "uint256",
          "internalType": "uint256"
        },
        {
          "name": "_MythicGemsValue",
          "type": "uint256",
          "internalType": "uint256"
        }
      ],
      "outputs": [],
      "stateMutability": "nonpayable"
    },
    {
      "type": "function",
      "name": "isAdmin",
      "inputs": [
        {
          "name": "account",
          "type": "address",
          "internalType": "address"
        }
      ],
      "outputs": [
        {
          "name": "",
          "type": "bool",
          "internalType": "bool"
        }
      ],
      "stateMutability": "view"
    },
    {
      "type": "function",
      "name": "isApprovedForAll",
      "inputs": [
        {
          "name": "owner",
          "type": "address",
          "internalType": "address"
        },
        {
          "name": "operator",
          "type": "address",
          "internalType": "address"
        }
      ],
      "outputs": [
        {
          "name": "",
          "type": "bool",
          "internalType": "bool"
        }
      ],
      "stateMutability": "view"
    },
    {
      "type": "function",
      "name": "isMinter",
      "inputs": [
        {
          "name": "account",
          "type": "address",
          "internalType": "address"
        }
      ],
      "outputs": [
        {
          "name": "",
          "type": "bool",
          "internalType": "bool"
        }
      ],
      "stateMutability": "view"
    },
    {
      "type": "function",
      "name": "isOwner",
      "inputs": [],
      "outputs": [
        {
          "name": "",
          "type": "bool",
          "internalType": "bool"
        }
      ],
      "stateMutability": "view"
    },
    {
      "type": "function",
      "name": "isTokenLocked",
      "inputs": [
        {
          "name": "_tokenId",
          "type": "uint256",
          "internalType": "uint256"
        }
      ],
      "outputs": [
        {
          "name": "",
          "type": "bool",
          "internalType": "bool"
        }
      ],
      "stateMutability": "view"
    },
    {
      "type": "function",
      "name": "isUserMining",
      "inputs": [
        {
          "name": "",
          "type": "address",
          "internalType": "address"
        }
      ],
      "outputs": [
        {
          "name": "",
          "type": "bool",
          "internalType": "bool"
        }
      ],
      "stateMutability": "view"
    },
    {
      "type": "function",
      "name": "lastRequestId",
      "inputs": [],
      "outputs": [
        {
          "name": "",
          "type": "uint256",
          "internalType": "uint256"
        }
      ],
      "stateMutability": "view"
    },
    {
      "type": "function",
      "name": "marketplace",
      "inputs": [],
      "outputs": [
        {
          "name": "",
          "type": "address",
          "internalType": "address"
        }
      ],
      "stateMutability": "view"
    },
    {
      "type": "function",
      "name": "meltGEM",
      "inputs": [
        {
          "name": "_tokenId",
          "type": "uint256",
          "internalType": "uint256"
        }
      ],
      "outputs": [],
      "stateMutability": "nonpayable"
    },
    {
      "type": "function",
      "name": "name",
      "inputs": [],
      "outputs": [
        {
          "name": "",
          "type": "string",
          "internalType": "string"
        }
      ],
      "stateMutability": "view"
    },
    {
      "type": "function",
      "name": "numberOfSolidColors",
      "inputs": [],
      "outputs": [
        {
          "name": "",
          "type": "uint8",
          "internalType": "uint8"
        }
      ],
      "stateMutability": "view"
    },
    {
      "type": "function",
      "name": "ownerOf",
      "inputs": [
        {
          "name": "tokenId",
          "type": "uint256",
          "internalType": "uint256"
        }
      ],
      "outputs": [
        {
          "name": "",
          "type": "address",
          "internalType": "address"
        }
      ],
      "stateMutability": "view"
    },
    {
      "type": "function",
      "name": "ownerOfGEM",
      "inputs": [
        {
          "name": "_tokenId",
          "type": "uint256",
          "internalType": "uint256"
        }
      ],
      "outputs": [
        {
          "name": "owner",
          "type": "address",
          "internalType": "address"
        }
      ],
      "stateMutability": "view"
    },
    {
      "type": "function",
      "name": "ownershipTokenCount",
      "inputs": [
        {
          "name": "",
          "type": "address",
          "internalType": "address"
        }
      ],
      "outputs": [
        {
          "name": "",
          "type": "uint256",
          "internalType": "uint256"
        }
      ],
      "stateMutability": "view"
    },
    {
      "type": "function",
      "name": "pause",
      "inputs": [],
      "outputs": [],
      "stateMutability": "nonpayable"
    },
    {
      "type": "function",
      "name": "pauseProxy",
      "inputs": [],
      "outputs": [
        {
          "name": "",
          "type": "bool",
          "internalType": "bool"
        }
      ],
      "stateMutability": "view"
    },
    {
      "type": "function",
      "name": "paused",
      "inputs": [],
      "outputs": [
        {
          "name": "",
          "type": "bool",
          "internalType": "bool"
        }
      ],
      "stateMutability": "view"
    },
    {
      "type": "function",
      "name": "preMintedGemsAvailable",
      "inputs": [],
      "outputs": [
        {
          "name": "GemsAvailable",
          "type": "uint256[]",
          "internalType": "uint256[]"
        }
      ],
      "stateMutability": "view"
    },
    {
      "type": "function",
      "name": "proxyImplementation",
      "inputs": [
        {
          "name": "",
          "type": "uint256",
          "internalType": "uint256"
        }
      ],
      "outputs": [
        {
          "name": "",
          "type": "address",
          "internalType": "address"
        }
      ],
      "stateMutability": "view"
    },
    {
      "type": "function",
      "name": "rawFulfillRandomWords",
      "inputs": [
        {
          "name": "round",
          "type": "uint256",
          "internalType": "uint256"
        },
        {
          "name": "hashedOmegaVal",
          "type": "uint256",
          "internalType": "uint256"
        }
      ],
      "outputs": [],
      "stateMutability": "nonpayable"
    },
    {
      "type": "function",
      "name": "removeAdmin",
      "inputs": [
        {
          "name": "account",
          "type": "address",
          "internalType": "address"
        }
      ],
      "outputs": [],
      "stateMutability": "nonpayable"
    },
    {
      "type": "function",
      "name": "removeMinter",
      "inputs": [
        {
          "name": "account",
          "type": "address",
          "internalType": "address"
        }
      ],
      "outputs": [],
      "stateMutability": "nonpayable"
    },
    {
      "type": "function",
      "name": "renounceMinter",
      "inputs": [],
      "outputs": [],
      "stateMutability": "nonpayable"
    },
    {
      "type": "function",
      "name": "renounceOwnership",
      "inputs": [],
      "outputs": [],
      "stateMutability": "nonpayable"
    },
    {
      "type": "function",
      "name": "renounceRole",
      "inputs": [
        {
          "name": "role",
          "type": "bytes32",
          "internalType": "bytes32"
        },
        {
          "name": "callerConfirmation",
          "type": "address",
          "internalType": "address"
        }
      ],
      "outputs": [],
      "stateMutability": "nonpayable"
    },
    {
      "type": "function",
      "name": "requestCount",
      "inputs": [],
      "outputs": [
        {
          "name": "",
          "type": "uint256",
          "internalType": "uint256"
        }
      ],
      "stateMutability": "view"
    },
    {
      "type": "function",
      "name": "requestIds",
      "inputs": [
        {
          "name": "",
          "type": "uint256",
          "internalType": "uint256"
        }
      ],
      "outputs": [
        {
          "name": "",
          "type": "uint256",
          "internalType": "uint256"
        }
      ],
      "stateMutability": "view"
    },
    {
      "type": "function",
      "name": "revokeMinter",
      "inputs": [
        {
          "name": "account",
          "type": "address",
          "internalType": "address"
        }
      ],
      "outputs": [],
      "stateMutability": "nonpayable"
    },
    {
      "type": "function",
      "name": "revokeRole",
      "inputs": [
        {
          "name": "role",
          "type": "bytes32",
          "internalType": "bytes32"
        },
        {
          "name": "account",
          "type": "address",
          "internalType": "address"
        }
      ],
      "outputs": [],
      "stateMutability": "nonpayable"
    },
    {
      "type": "function",
      "name": "s_requests",
      "inputs": [
        {
          "name": "",
          "type": "uint256",
          "internalType": "uint256"
        }
      ],
      "outputs": [
        {
          "name": "requested",
          "type": "bool",
          "internalType": "bool"
        },
        {
          "name": "fulfilled",
          "type": "bool",
          "internalType": "bool"
        },
        {
          "name": "randomWord",
          "type": "uint256",
          "internalType": "uint256"
        },
        {
          "name": "chosenTokenId",
          "type": "uint256",
          "internalType": "uint256"
        },
        {
          "name": "requester",
          "type": "address",
          "internalType": "address"
        }
      ],
      "stateMutability": "view"
    },
    {
      "type": "function",
      "name": "safeTransferFrom",
      "inputs": [
        {
          "name": "from",
          "type": "address",
          "internalType": "address"
        },
        {
          "name": "to",
          "type": "address",
          "internalType": "address"
        },
        {
          "name": "tokenId",
          "type": "uint256",
          "internalType": "uint256"
        }
      ],
      "outputs": [],
      "stateMutability": "nonpayable"
    },
    {
      "type": "function",
      "name": "safeTransferFrom",
      "inputs": [
        {
          "name": "from",
          "type": "address",
          "internalType": "address"
        },
        {
          "name": "to",
          "type": "address",
          "internalType": "address"
        },
        {
          "name": "tokenId",
          "type": "uint256",
          "internalType": "uint256"
        },
        {
          "name": "data",
          "type": "bytes",
          "internalType": "bytes"
        }
      ],
      "outputs": [],
      "stateMutability": "nonpayable"
    },
    {
      "type": "function",
      "name": "selectorImplementation",
      "inputs": [
        {
          "name": "",
          "type": "bytes4",
          "internalType": "bytes4"
        }
      ],
      "outputs": [
        {
          "name": "",
          "type": "address",
          "internalType": "address"
        }
      ],
      "stateMutability": "view"
    },
    {
      "type": "function",
      "name": "setApprovalForAll",
      "inputs": [
        {
          "name": "operator",
          "type": "address",
          "internalType": "address"
        },
        {
          "name": "approved",
          "type": "bool",
          "internalType": "bool"
        }
      ],
      "outputs": [],
      "stateMutability": "nonpayable"
    },
    {
      "type": "function",
      "name": "setApprovalForMarketplace",
      "inputs": [],
      "outputs": [],
      "stateMutability": "nonpayable"
    },
    {
      "type": "function",
      "name": "setGemsCooldownPeriods",
      "inputs": [
        {
          "name": "_CommonGemsCooldownPeriod",
          "type": "uint256",
          "internalType": "uint256"
        },
        {
          "name": "_RareGemsCooldownPeriod",
          "type": "uint256",
          "internalType": "uint256"
        },
        {
          "name": "_UniqueGemsCooldownPeriod",
          "type": "uint256",
          "internalType": "uint256"
        },
        {
          "name": "_EpicGemsCooldownPeriod",
          "type": "uint256",
          "internalType": "uint256"
        },
        {
          "name": "_LegendaryGemsCooldownPeriod",
          "type": "uint256",
          "internalType": "uint256"
        },
        {
          "name": "_MythicGemsCooldownPeriod",
          "type": "uint256",
          "internalType": "uint256"
        }
      ],
      "outputs": [],
      "stateMutability": "nonpayable"
    },
    {
      "type": "function",
      "name": "setGemsMiningPeriods",
      "inputs": [
        {
          "name": "_CommonGemsMiningPeriod",
          "type": "uint256",
          "internalType": "uint256"
        },
        {
          "name": "_RareGemsMiningPeriod",
          "type": "uint256",
          "internalType": "uint256"
        },
        {
          "name": "_UniqueGemsMiningPeriod",
          "type": "uint256",
          "internalType": "uint256"
        },
        {
          "name": "_EpicGemsMiningPeriod",
          "type": "uint256",
          "internalType": "uint256"
        },
        {
          "name": "_LegendaryGemsMiningPeriod",
          "type": "uint256",
          "internalType": "uint256"
        },
        {
          "name": "_MythicGemsMiningPeriod",
          "type": "uint256",
          "internalType": "uint256"
        }
      ],
      "outputs": [],
      "stateMutability": "nonpayable"
    },
    {
      "type": "function",
      "name": "setIsLocked",
      "inputs": [
        {
          "name": "_tokenId",
          "type": "uint256",
          "internalType": "uint256"
        },
        {
          "name": "_isLocked",
          "type": "bool",
          "internalType": "bool"
        }
      ],
      "outputs": [],
      "stateMutability": "nonpayable"
    },
    {
      "type": "function",
      "name": "setMarketPlaceAddress",
      "inputs": [
        {
          "name": "_marketplace",
          "type": "address",
          "internalType": "address"
        }
      ],
      "outputs": [],
      "stateMutability": "nonpayable"
    },
    {
      "type": "function",
      "name": "setNumberOfSolidColors",
      "inputs": [
        {
          "name": "_numberOfSolidColors",
          "type": "uint8",
          "internalType": "uint8"
        }
      ],
      "outputs": [],
      "stateMutability": "nonpayable"
    },
    {
      "type": "function",
      "name": "startMiningGEM",
      "inputs": [
        {
          "name": "_tokenId",
          "type": "uint256",
          "internalType": "uint256"
        }
      ],
      "outputs": [
        {
          "name": "",
          "type": "bool",
          "internalType": "bool"
        }
      ],
      "stateMutability": "payable"
    },
    {
      "type": "function",
      "name": "supportsInterface",
      "inputs": [
        {
          "name": "interfaceId",
          "type": "bytes4",
          "internalType": "bytes4"
        }
      ],
      "outputs": [
        {
          "name": "",
          "type": "bool",
          "internalType": "bool"
        }
      ],
      "stateMutability": "view"
    },
    {
      "type": "function",
      "name": "symbol",
      "inputs": [],
      "outputs": [
        {
          "name": "",
          "type": "string",
          "internalType": "string"
        }
      ],
      "stateMutability": "view"
    },
    {
      "type": "function",
      "name": "tokenMiningByUser",
      "inputs": [
        {
          "name": "",
          "type": "address",
          "internalType": "address"
        }
      ],
      "outputs": [
        {
          "name": "",
          "type": "uint256",
          "internalType": "uint256"
        }
      ],
      "stateMutability": "view"
    },
    {
      "type": "function",
      "name": "tokenReadyToMine",
      "inputs": [
        {
          "name": "",
          "type": "uint256",
          "internalType": "uint256"
        }
      ],
      "outputs": [
        {
          "name": "",
          "type": "bool",
          "internalType": "bool"
        }
      ],
      "stateMutability": "view"
    },
    {
      "type": "function",
      "name": "tokenURI",
      "inputs": [
        {
          "name": "tokenId",
          "type": "uint256",
          "internalType": "uint256"
        }
      ],
      "outputs": [
        {
          "name": "",
          "type": "string",
          "internalType": "string"
        }
      ],
      "stateMutability": "view"
    },
    {
      "type": "function",
      "name": "tokensOfOwner",
      "inputs": [
        {
          "name": "_owner",
          "type": "address",
          "internalType": "address"
        }
      ],
      "outputs": [
        {
          "name": "ownerTokens",
          "type": "uint256[]",
          "internalType": "uint256[]"
        }
      ],
      "stateMutability": "view"
    },
    {
      "type": "function",
      "name": "ton",
      "inputs": [],
      "outputs": [
        {
          "name": "",
          "type": "address",
          "internalType": "address"
        }
      ],
      "stateMutability": "view"
    },
    {
      "type": "function",
      "name": "totalSupply",
      "inputs": [],
      "outputs": [
        {
          "name": "",
          "type": "uint256",
          "internalType": "uint256"
        }
      ],
      "stateMutability": "view"
    },
    {
      "type": "function",
      "name": "transferAdmin",
      "inputs": [
        {
          "name": "newAdmin",
          "type": "address",
          "internalType": "address"
        }
      ],
      "outputs": [],
      "stateMutability": "nonpayable"
    },
    {
      "type": "function",
      "name": "transferFrom",
      "inputs": [
        {
          "name": "from",
          "type": "address",
          "internalType": "address"
        },
        {
          "name": "to",
          "type": "address",
          "internalType": "address"
        },
        {
          "name": "tokenId",
          "type": "uint256",
          "internalType": "uint256"
        }
      ],
      "outputs": [],
      "stateMutability": "nonpayable"
    },
    {
      "type": "function",
      "name": "transferGEM",
      "inputs": [
        {
          "name": "_to",
          "type": "address",
          "internalType": "address"
        },
        {
          "name": "_tokenId",
          "type": "uint256",
          "internalType": "uint256"
        }
      ],
      "outputs": [],
      "stateMutability": "nonpayable"
    },
    {
      "type": "function",
      "name": "transferGEMFrom",
      "inputs": [
        {
          "name": "_from",
          "type": "address",
          "internalType": "address"
        },
        {
          "name": "_to",
          "type": "address",
          "internalType": "address"
        },
        {
          "name": "_tokenId",
          "type": "uint256",
          "internalType": "uint256"
        }
      ],
      "outputs": [],
      "stateMutability": "nonpayable"
    },
    {
      "type": "function",
      "name": "transferOwnership",
      "inputs": [
        {
          "name": "newAdmin",
          "type": "address",
          "internalType": "address"
        }
      ],
      "outputs": [],
      "stateMutability": "nonpayable"
    },
    {
      "type": "function",
      "name": "treasury",
      "inputs": [],
      "outputs": [
        {
          "name": "",
          "type": "address",
          "internalType": "address"
        }
      ],
      "stateMutability": "view"
    },
    {
      "type": "function",
      "name": "unpause",
      "inputs": [],
      "outputs": [],
      "stateMutability": "nonpayable"
    },
    {
      "type": "function",
      "name": "userMiningStartTime",
      "inputs": [
        {
          "name": "",
          "type": "address",
          "internalType": "address"
        },
        {
          "name": "",
          "type": "uint256",
          "internalType": "uint256"
        }
      ],
      "outputs": [
        {
          "name": "",
          "type": "uint256",
          "internalType": "uint256"
        }
      ],
      "stateMutability": "view"
    },
    {
      "type": "function",
      "name": "userMiningToken",
      "inputs": [
        {
          "name": "",
          "type": "address",
          "internalType": "address"
        },
        {
          "name": "",
          "type": "uint256",
          "internalType": "uint256"
        }
      ],
      "outputs": [
        {
          "name": "",
          "type": "bool",
          "internalType": "bool"
        }
      ],
      "stateMutability": "view"
    },
    {
      "type": "function",
      "name": "wston",
      "inputs": [],
      "outputs": [
        {
          "name": "",
          "type": "address",
          "internalType": "address"
        }
      ],
      "stateMutability": "view"
    },
    {
      "type": "event",
      "name": "Approval",
      "inputs": [
        {
          "name": "owner",
          "type": "address",
          "indexed": true,
          "internalType": "address"
        },
        {
          "name": "approved",
          "type": "address",
          "indexed": true,
          "internalType": "address"
        },
        {
          "name": "tokenId",
          "type": "uint256",
          "indexed": true,
          "internalType": "uint256"
        }
      ],
      "anonymous": false
    },
    {
      "type": "event",
      "name": "ApprovalForAll",
      "inputs": [
        {
          "name": "owner",
          "type": "address",
          "indexed": true,
          "internalType": "address"
        },
        {
          "name": "operator",
          "type": "address",
          "indexed": true,
          "internalType": "address"
        },
        {
          "name": "approved",
          "type": "bool",
          "indexed": false,
          "internalType": "bool"
        }
      ],
      "anonymous": false
    },
    {
      "type": "event",
      "name": "BackgroundColorAdded",
      "inputs": [
        {
          "name": "id",
          "type": "uint8",
          "indexed": true,
          "internalType": "uint8"
        },
        {
          "name": "backgroundColor",
          "type": "string",
          "indexed": false,
          "internalType": "string"
        }
      ],
      "anonymous": false
    },
    {
      "type": "event",
      "name": "BatchMetadataUpdate",
      "inputs": [
        {
          "name": "_fromTokenId",
          "type": "uint256",
          "indexed": false,
          "internalType": "uint256"
        },
        {
          "name": "_toTokenId",
          "type": "uint256",
          "indexed": false,
          "internalType": "uint256"
        }
      ],
      "anonymous": false
    },
    {
      "type": "event",
      "name": "ColorAdded",
      "inputs": [
        {
          "name": "id",
          "type": "uint8",
          "indexed": true,
          "internalType": "uint8"
        },
        {
          "name": "color",
          "type": "string",
          "indexed": false,
          "internalType": "string"
        }
      ],
      "anonymous": false
    },
    {
      "type": "event",
      "name": "Created",
      "inputs": [
        {
          "name": "tokenId",
          "type": "uint256",
          "indexed": true,
          "internalType": "uint256"
        },
        {
          "name": "rarity",
          "type": "uint8",
          "indexed": false,
          "internalType": "enum GemFactoryStorage.Rarity"
        },
        {
          "name": "color",
          "type": "uint8[2]",
          "indexed": false,
          "internalType": "uint8[2]"
        },
        {
          "name": "value",
          "type": "uint256",
          "indexed": false,
          "internalType": "uint256"
        },
        {
          "name": "stakingIndex",
          "type": "uint256",
          "indexed": false,
          "internalType": "uint256"
        },
        {
          "name": "quadrants",
          "type": "uint8[4]",
          "indexed": false,
          "internalType": "uint8[4]"
        },
        {
          "name": "miningPeriod",
          "type": "uint256",
          "indexed": false,
          "internalType": "uint256"
        },
        {
          "name": "cooldownPeriod",
          "type": "uint256",
          "indexed": false,
          "internalType": "uint256"
        },
        {
          "name": "tokenURI",
          "type": "string",
          "indexed": false,
          "internalType": "string"
        },
        {
          "name": "owner",
          "type": "address",
          "indexed": false,
          "internalType": "address"
        }
      ],
      "anonymous": false
    },
    {
      "type": "event",
      "name": "GemForged",
      "inputs": [
        {
          "name": "GemsTokenIds",
          "type": "uint256[]",
          "indexed": false,
          "internalType": "uint256[]"
        },
        {
          "name": "newGemCreatedId",
          "type": "uint256",
          "indexed": false,
          "internalType": "uint256"
        }
      ],
      "anonymous": false
    },
    {
      "type": "event",
      "name": "GemMelted",
      "inputs": [
        {
          "name": "_tokenId",
          "type": "uint256",
          "indexed": false,
          "internalType": "uint256"
        },
        {
          "name": "_from",
          "type": "address",
          "indexed": false,
          "internalType": "address"
        }
      ],
      "anonymous": false
    },
    {
      "type": "event",
      "name": "GemMiningClaimed",
      "inputs": [
        {
          "name": "tokenId",
          "type": "uint256",
          "indexed": false,
          "internalType": "uint256"
        },
        {
          "name": "miner",
          "type": "address",
          "indexed": false,
          "internalType": "address"
        }
      ],
      "anonymous": false
    },
    {
      "type": "event",
      "name": "GemMiningStarted",
      "inputs": [
        {
          "name": "tokenId",
          "type": "uint256",
          "indexed": false,
          "internalType": "uint256"
        },
        {
          "name": "miner",
          "type": "address",
          "indexed": false,
          "internalType": "address"
        },
        {
          "name": "startMiningTime",
          "type": "uint256",
          "indexed": false,
          "internalType": "uint256"
        }
      ],
      "anonymous": false
    },
    {
      "type": "event",
      "name": "MetadataUpdate",
      "inputs": [
        {
          "name": "_tokenId",
          "type": "uint256",
          "indexed": false,
          "internalType": "uint256"
        }
      ],
      "anonymous": false
    },
    {
      "type": "event",
      "name": "Paused",
      "inputs": [
        {
          "name": "account",
          "type": "address",
          "indexed": false,
          "internalType": "address"
        }
      ],
      "anonymous": false
    },
    {
      "type": "event",
      "name": "RoleAdminChanged",
      "inputs": [
        {
          "name": "role",
          "type": "bytes32",
          "indexed": true,
          "internalType": "bytes32"
        },
        {
          "name": "previousAdminRole",
          "type": "bytes32",
          "indexed": true,
          "internalType": "bytes32"
        },
        {
          "name": "newAdminRole",
          "type": "bytes32",
          "indexed": true,
          "internalType": "bytes32"
        }
      ],
      "anonymous": false
    },
    {
      "type": "event",
      "name": "RoleGranted",
      "inputs": [
        {
          "name": "role",
          "type": "bytes32",
          "indexed": true,
          "internalType": "bytes32"
        },
        {
          "name": "account",
          "type": "address",
          "indexed": true,
          "internalType": "address"
        },
        {
          "name": "sender",
          "type": "address",
          "indexed": true,
          "internalType": "address"
        }
      ],
      "anonymous": false
    },
    {
      "type": "event",
      "name": "RoleRevoked",
      "inputs": [
        {
          "name": "role",
          "type": "bytes32",
          "indexed": true,
          "internalType": "bytes32"
        },
        {
          "name": "account",
          "type": "address",
          "indexed": true,
          "internalType": "address"
        },
        {
          "name": "sender",
          "type": "address",
          "indexed": true,
          "internalType": "address"
        }
      ],
      "anonymous": false
    },
    {
      "type": "event",
      "name": "Transfer",
      "inputs": [
        {
          "name": "from",
          "type": "address",
          "indexed": true,
          "internalType": "address"
        },
        {
          "name": "to",
          "type": "address",
          "indexed": true,
          "internalType": "address"
        },
        {
          "name": "tokenId",
          "type": "uint256",
          "indexed": true,
          "internalType": "uint256"
        }
      ],
      "anonymous": false
    },
    {
      "type": "event",
      "name": "TransferGEM",
      "inputs": [
        {
          "name": "from",
          "type": "address",
          "indexed": false,
          "internalType": "address"
        },
        {
          "name": "to",
          "type": "address",
          "indexed": false,
          "internalType": "address"
        },
        {
          "name": "tokenId",
          "type": "uint256",
          "indexed": false,
          "internalType": "uint256"
        }
      ],
      "anonymous": false
    },
    {
      "type": "event",
      "name": "Unpaused",
      "inputs": [
        {
          "name": "account",
          "type": "address",
          "indexed": false,
          "internalType": "address"
        }
      ],
      "anonymous": false
    },
    {
      "type": "error",
      "name": "AccessControlBadConfirmation",
      "inputs": []
    },
    {
      "type": "error",
      "name": "AccessControlUnauthorizedAccount",
      "inputs": [
        {
          "name": "account",
          "type": "address",
          "internalType": "address"
        },
        {
          "name": "neededRole",
          "type": "bytes32",
          "internalType": "bytes32"
        }
      ]
    },
    {
      "type": "error",
      "name": "ERC721IncorrectOwner",
      "inputs": [
        {
          "name": "sender",
          "type": "address",
          "internalType": "address"
        },
        {
          "name": "tokenId",
          "type": "uint256",
          "internalType": "uint256"
        },
        {
          "name": "owner",
          "type": "address",
          "internalType": "address"
        }
      ]
    },
    {
      "type": "error",
      "name": "ERC721InsufficientApproval",
      "inputs": [
        {
          "name": "operator",
          "type": "address",
          "internalType": "address"
        },
        {
          "name": "tokenId",
          "type": "uint256",
          "internalType": "uint256"
        }
      ]
    },
    {
      "type": "error",
      "name": "ERC721InvalidApprover",
      "inputs": [
        {
          "name": "approver",
          "type": "address",
          "internalType": "address"
        }
      ]
    },
    {
      "type": "error",
      "name": "ERC721InvalidOperator",
      "inputs": [
        {
          "name": "operator",
          "type": "address",
          "internalType": "address"
        }
      ]
    },
    {
      "type": "error",
      "name": "ERC721InvalidOwner",
      "inputs": [
        {
          "name": "owner",
          "type": "address",
          "internalType": "address"
        }
      ]
    },
    {
      "type": "error",
      "name": "ERC721InvalidReceiver",
      "inputs": [
        {
          "name": "receiver",
          "type": "address",
          "internalType": "address"
        }
      ]
    },
    {
      "type": "error",
      "name": "ERC721InvalidSender",
      "inputs": [
        {
          "name": "sender",
          "type": "address",
          "internalType": "address"
        }
      ]
    },
    {
      "type": "error",
      "name": "ERC721NonexistentToken",
      "inputs": [
        {
          "name": "tokenId",
          "type": "uint256",
          "internalType": "uint256"
        }
      ]
    },
    {
      "type": "error",
      "name": "OnlyCoordinatorCanFulfill",
      "inputs": [
        {
          "name": "have",
          "type": "address",
          "internalType": "address"
        },
        {
          "name": "want",
          "type": "address",
          "internalType": "address"
        }
      ]
    }
  ],
  "bytecode": {
    "object": "0x60a06040523462000047576200001e62000018620000ea565b620001b2565b604051619217620005598239608051818181613ba801528181617ade0152617d27015261921790f35b600080fd5b634e487b7160e01b600052604160045260246000fd5b90601f01601f191681019081106001600160401b038211176200008457604052565b6200004c565b90620000a16200009960405190565b928362000062565b565b6001600160a01b031690565b90565b6001600160a01b038116036200004757565b90505190620000a182620000b2565b906020828203126200004757620000af91620000c4565b620000af620097708038038062000101816200008a565b928339810190620000d3565b6001600160401b0381116200008457602090601f01601f19160190565b90620001406200013a836200010d565b6200008a565b918252565b62000151600a6200012a565b69546f6b616d616b47454d60b01b602082015290565b620000af62000145565b6200017d60036200012a565b6247454d60e81b602082015290565b620000af62000171565b620000af620000af620000af9290565b620000af600062000196565b620001d290620001c162000167565b620001cb6200018c565b9162000217565b620001e8620001e0620001a6565b339062000493565b50565b620000af90620000a3906001600160a01b031682565b620000af90620001eb565b620000af9062000201565b906200022e92620002289162000233565b6200020c565b608052565b620000a19182918291829182919062000438565b634e487b7160e01b600052602260045260246000fd5b906001600283049216801562000280575b60208310146200027a57565b62000247565b91607f16916200026e565b9160001960089290920291821b911b5b9181191691161790565b9190620002ba620000af620002c39362000196565b9083546200028b565b9055565b620000a191600091620002a5565b818110620002e1575050565b80620002f16000600193620002c7565b01620002d5565b9190601f81116200030857505050565b6200031c620000a193600052602060002090565b906020601f84018190048301931062000340575b6020601f909101040190620002d5565b909150819062000330565b9062000355815190565b906001600160401b03821162000084576200037d826200037685546200025d565b85620002f8565b602090601f8311600114620003bc57620002c3929160009183620003b0575b5050600019600883021c1916906002021790565b0151905038806200039c565b601f19831691620003d285600052602060002090565b9260005b8181106200041357509160029391856001969410620003f9575b50505002019055565b01516000196008601f8516021c19169055388080620003f0565b91936020600181928787015181550195019201620003d6565b90620000a1916200034b565b906200044a620000a19260006200042c565b60016200042c565b905b600052602052604060002090565b9062000454906200020c565b9060ff906200029b565b906200048b620000af620002c392151590565b82546200046e565b620004a7620004a383836200052f565b1590565b156200052857620004d46001620004ce846000620004c786603e62000452565b0162000462565b62000478565b620004f3620004ec620004e5339390565b936200020c565b916200020c565b917f2f8788117e7eff1d82e926ec794901d17c78024a50270940304540a733656f0d6200051f60405190565b600090a4600190565b5050600090565b620000af916000620004c7620005519362000548600090565b50603e62000452565b5460ff169056fe60a0604052600436101561001257600080fd5b60003560e01c806301ffc9a7146107e2578063034294f8146107dd578063038a7e05146107d85780630491fd3e146107d357806304e41a0b146107ce57806306fdde03146107c9578063081812fc146107c45780630922f513146107bf578063095ea7b3146107ba5780630c7254a0146107b55780630de32a97146107b0578063119868bb146107ab578063139b63f3146107a657806315341f2b146107a15780631785f53c1461079c57806318160ddd146107975780631885cbbe1461079257806318898f361461078d5780631d0e0aac146107885780631d3392e2146107835780631da0fc9c1461077e578063205fb1f81461077957806323b872dd14610774578063248a9ca31461076f57806324d7806c1461076a578063276a28a3146107655780632bbbe94d146107605780632f2ff15d1461075b5780633092afd5146107565780633189983f14610751578063331580581461074c578063337d54a11461074757806333d608f11461074257806336568abe1461073d57806336b17e131461073857806337ed11db14610733578063384c252f1461072e578063389ed267146107295780633b19e84a146107245780633f4ba83a1461071f5780633fb310a51461071a57806342842e0e146107155780634d723a75146107105780634f557d271461070b57806350d2a27614610706578063550d01a31461070157806358bf3e65146106fc5780635b310aee146106f75780635badbe4c146106f25780635bbffab6146106ed5780635c975abb146106e857806361d027b3146106e357806361f7f6d7146106de578063629296c5146106d95780636352211e146106d457806363a8fd89146106cf578063676f79f1146106ca5780636b1a96fa146106c557806370480275146106c057806370a08231146106bb578063715018a6146106b6578063724188bc146106b157806375829def146106ac57806377f7e499146106a75780637866369b146106a25780637d7a54771461069d5780637fe6fde5146106985780638456cb59146106935780638462151c1461068e5780638796ba8c146106895780638ba24af0146106845780638f32d59b1461067f5780638fddb0651461067a57806391490c4b1461067557806391d148541461067057806395d89b411461066b57806397125c4014610666578063983b2d5614610661578063986502751461065c5780639a66af6214610657578063a0b2d41b14610652578063a168fa891461064d578063a1770a7d14610648578063a217fddf14610643578063a22cb4651461063e578063a8ce886e14610639578063aa271e1a14610634578063aa723bb71461062f578063abc8c7af1461062a578063ad0d3d3f14610625578063adf8627e14610620578063aff2a4631461061b578063b211d95814610616578063b78417b014610611578063b88d4fde1461060c578063b911135f14610607578063bd11f69d14610602578063bd81009f146105fd578063c1389072146105f8578063c28fb6b7146105f3578063c4d2fcae146105ee578063c87b56dd146105e9578063cc48b947146105e4578063cc98ef96146105df578063ce8ab5df146105da578063cec21acb146105d5578063cfbd4885146105d0578063d11a57ec146105cb578063d547741f146105c6578063d6492bb1146105c1578063d6bb7ba0146105bc578063d7a46495146105b7578063d8f573cd146105b2578063dffdae02146105ad578063e4b7fddf146105a8578063e7a523c0146105a3578063e985e9c51461059e578063ecc5e06f14610599578063efa2cc2914610594578063f2fde38b1461058f578063f5494bb91461058a578063f66f9e3414610585578063f99a6bb514610580578063fc2a88c31461057b5763fed7b27a036107e75761284e565b612833565b61280f565b6127f4565b6127cd565b612788565b61276d565b612746565b61271a565b6126e3565b6126c8565b6126a1565b61267a565b612653565b61262e565b61260f565b612595565b61256e565b612556565b61253b565b612510565b6124ec565b6124d1565b6124aa565b61248f565b612468565b61244d565b612422565b612407565b6123d4565b6123a8565b61233e565b612317565b6122f0565b6122d5565b6122aa565b61228f565b61225c565b6120ff565b6120e4565b6120ad565b612076565b612048565b612003565b611f34565b611f10565b611ef8565b611ee0565b611ec5565b611e9a565b611e7e565b611e63565b611e3c565b611e15565b611dfa565b611ddf565b611d8c565b611d74565b611d59565b611d3a565b611cd1565b611ca6565b611c82565b611c67565b611c43565b611c28565b611c10565b611bf5565b611b6a565b611b31565b611b0a565b611aef565b611ab8565b611828565b611801565b6117da565b6117b3565b61177c565b61131e565b6112f7565b6112cc565b611284565b61125f565b61120e565b6111f3565b6111cf565b6111b4565b61117b565b611160565b611137565b611100565b6110db565b6110a9565b611066565b61104a565b61101f565b610f2e565b610f15565b610ed7565b610ebc565b610ea1565b610e86565b610e6d565b610e29565b610dce565b610db3565b610d8f565b610d74565b610d4d565b610d26565b610d0e565b610ce2565b610be0565b610bb9565b610b45565b610b1a565b610aae565b610a54565b610a13565b6109b8565b610931565b610908565b6108dd565b61088c565b610829565b600080fd5b6001600160e01b031981165b036107e757565b9050359061080c826107ec565b565b906020828203126107e757610822916107ff565b90565b9052565b346107e75761085761084461083f36600461080e565b612869565b6040515b91829182901515815260200190565b0390f35b60009103126107e757565b610822916008021c5b60ff1690565b906108229154610866565b61082260006009610875565b346107e75761089c36600461085b565b6108576108a7610880565b6040519182918260ff909116815260200190565b610822916008021c81565b9061082291546108bb565b610822600060256108c6565b346107e7576108ed36600461085b565b6108576108f86108d1565b6040519182918290815260200190565b346107e75761091836600461085b565b6109206128e5565b604051005b6108226000602a6108c6565b346107e75761094136600461085b565b6108576108f8610925565b60005b83811061095f5750506000910152565b818101518382015260200161094f565b6109906109996020936109a393610984815190565b80835293849260200190565b9586910161094c565b601f01601f191690565b0190565b60208082526108229291019061096f565b346107e7576109c836600461085b565b6108576109d36128f6565b6040515b918291826109a7565b806107f8565b9050359061080c826109e0565b906020828203126107e757610822916109e6565b6001600160a01b031690565b346107e757610857610a2e610a293660046109f3565b612900565b604051918291826001600160a01b03909116815260200190565b6108226000600c610875565b346107e757610a6436600461085b565b6108576108a7610a48565b6001600160a01b0381166107f8565b9050359061080c82610a6f565b91906040838203126107e757610822906020610aa78286610a7e565b94016109e6565b346107e757610920610ac1366004610a8b565b90612913565b909160c0828403126107e757610add83836109e6565b92610aeb81602085016109e6565b92610af982604083016109e6565b92610822610b0a84606085016109e6565b9360a0610aa782608087016109e6565b346107e757610920610b2d366004610ac7565b94939093929192612a02565b610822600060296108c6565b346107e757610b5536600461085b565b6108576108f8610b39565b6108226108226108229290565b90610b7790610b60565b600052602052604060002090565b610822916008021c6001600160a01b031690565b906108229154610b85565b6000610bb4610822926012610b6d565b610b99565b346107e757610857610a2e610bcf3660046109f3565b610ba4565b6108226000602d6108c6565b346107e757610bf036600461085b565b6108576108f8610bd4565b634e487b7160e01b600052604160045260246000fd5b90601f01601f191681019081106001600160401b03821117610c3257604052565b610bfb565b9061080c610c4460405190565b9283610c11565b6001600160401b038111610c3257602090601f01601f19160190565b90826000939282370152565b90929192610c88610c8382610c4b565b610c37565b93818552818301116107e75761080c916020850190610c67565b9080601f830112156107e75781602061082293359101610c73565b906020828203126107e75781356001600160401b0381116107e7576108229201610ca2565b346107e757610920610cf5366004610cbd565b612cbe565b906020828203126107e75761082291610a7e565b346107e757610920610d21366004610cfa565b612ce8565b346107e757610d3636600461085b565b6108576108f8612d07565b610822600060306108c6565b346107e757610d5d36600461085b565b6108576108f8610d41565b610822600060246108c6565b346107e757610d8436600461085b565b6108576108f8610d68565b346107e757610920610da2366004610cbd565b612d9e565b6108226000601b6108c6565b346107e757610dc336600461085b565b6108576108f8610da7565b610857610844610ddf3660046109f3565b6134ae565b61082290610a07906001600160a01b031682565b61082290610de4565b61082290610df8565b90610b7790610e01565b6000610e24610822926013610e0a565b610875565b346107e757610857610844610e3f366004610cfa565b610e14565b90916060828403126107e757610822610e5d8484610a7e565b936040610aa78260208701610a7e565b346107e757610920610e80366004610e44565b916134e0565b346107e7576108576108f8610e9c3660046109f3565b613589565b346107e757610857610844610eb7366004610cfa565b6135a8565b346107e757610857610844610ed23660046109f3565b6135b9565b346107e757610ee736600461085b565b610857610a2e6135d2565b91906040838203126107e757610822906020610f0e82866109e6565b9401610a7e565b346107e757610920610f28366004610ef2565b906135ff565b346107e757610920610f41366004610cfa565b613631565b90916101e0828403126107e757610f5d8383610a7e565b92610f6b8160208501610a7e565b92610f798260408301610a7e565b92610f8783606084016109e6565b92610f9581608085016109e6565b92610fa38260a083016109e6565b92610fb18360c084016109e6565b92610fbf8160e085016109e6565b92610fce8261010083016109e6565b92610fdd8361012084016109e6565b92610fec8161014085016109e6565b92610ffb8261016083016109e6565b9261082261100d8461018085016109e6565b936101c0610aa7826101a087016109e6565b346107e757610920611032366004610f46565b9d9c909c9b919b9a929a999399989498979597613832565b346107e757610857610844611060366004610a8b565b9061398c565b346107e757610920611079366004610a8b565b90613b44565b61108c6108226108229290565b63ffffffff1690565b6108226203345061107f565b610822611095565b346107e7576110b936600461085b565b6108576110c46110a1565b6040519182918263ffffffff909116815260200190565b346107e7576109206110ee366004610ef2565b90613b4e565b61082260016037610b99565b346107e75761111036600461085b565b610857610a2e6110f4565b91906040838203126107e757610822906020610aa782866109e6565b346107e75761092061114a36600461111b565b90613ba1565b6000610bb4610822926011610b6d565b346107e757610857610a2e6111763660046109f3565b611150565b346107e75761118b36600461085b565b6108577ffcb9fcbfa83b897fb2d5cf4b58962164105c1e71489a37ef3ae0db3fdce576f66108f8565b346107e7576111c436600461085b565b610857610a2e613c0c565b346107e7576111df36600461085b565b610920613cfb565b610822600060276108c6565b346107e75761120336600461085b565b6108576108f86111e7565b346107e757610920611221366004610e44565b91613d15565b8015156107f8565b9050359061080c82611227565b91906040838203126107e75761082290602061125882866109e6565b940161122f565b346107e75761092061127236600461123c565b90613d4f565b6108226000601c6108c6565b346107e75761129436600461085b565b6108576108f8611278565b6001600160e01b03191690565b906001600160e01b031916610b77565b6000610bb461082292603d6112ac565b346107e757610857610a2e6112e236600461080e565b6112bc565b6000610e2461082292603c610e0a565b346107e75761085761084461130d366004610cfa565b6112e7565b610822600060226108c6565b346107e75761132e36600461085b565b6108576108f8611312565b6001600160401b038111610c325760208091020190565b600611156107e757565b9050359061080c82611350565b90929192611377610c8382611339565b93818552602080860192028301928184116107e757915b83831061139b5750505050565b602080916113a9848661135a565b81520192019161138e565b9080601f830112156107e75781602061082293359101611367565b6001600160401b038111610c325760200290565b60ff81166107f8565b9050359061080c826113e3565b90929192611409610c83826113cf565b9360208592028301928184116107e757915b8383106114285750505050565b6020809161143684866113ec565b81520192019161141b565b9080601f830112156107e7576002610822926113f9565b90929192611468610c8382611339565b9381855260406020860192028301928184116107e757915b83831061148d5750505050565b602060409161149c8486611441565b815201920191611480565b9080601f830112156107e75781602061082293359101611458565b909291926114d2610c8382611339565b93818552602080860192028301928184116107e757915b8383106114f65750505050565b6020809161150484866109e6565b8152019201916114e9565b9080601f830112156107e757816020610822933591016114c2565b9092919261153a610c83826113cf565b9360208592028301928184116107e757915b8383106115595750505050565b6020809161156784866113ec565b81520192019161154c565b9080601f830112156107e75760046108229261152a565b90929192611599610c8382611339565b9381855260806020860192028301928184116107e757915b8383106115be5750505050565b60206080916115cd8486611572565b8152019201916115b1565b9080601f830112156107e75781602061082293359101611589565b929190611602610c8382611339565b93818552602080860192028101918383116107e75781905b838210611628575050505050565b81356001600160401b0381116107e7576020916116488784938701610ca2565b81520191019061161a565b9080601f830112156107e757816020610822933591016115f3565b91909160a0818403126107e75780356001600160401b0381116107e757836116979183016113b4565b9260208201356001600160401b0381116107e757816116b79184016114a7565b9260408301356001600160401b0381116107e757826116d791850161150f565b9260608101356001600160401b0381116107e757836116f79183016115d8565b9260808201356001600160401b0381116107e7576108229201611653565b9061173561172e611724845190565b8084529260200190565b9260200190565b9060005b8181106117465750505090565b90919261176361175c6001928651815260200190565b9460200190565b929101611739565b602080825261082292910190611715565b346107e75761085761179b61179236600461166e565b93929092615403565b6040519182918261176b565b610822600060356108c6565b346107e7576117c336600461085b565b6108576108f86117a7565b6108226000602b6108c6565b346107e7576117ea36600461085b565b6108576108f86117ce565b61082260006019610875565b346107e75761181136600461085b565b6108576108446117f5565b61082260006039610b99565b346107e75761183836600461085b565b610857610a2e61181c565b634e487b7160e01b600052603260045260246000fd5b805482101561187c57611873600b91600052602060002090565b91020190600090565b611843565b6108229081565b6108229054611881565b6108229061086f565b6108229054611892565b634e487b7160e01b600052602260045260246000fd5b90600160028304921680156118db575b60208310146118d657565b6118a5565b91607f16916118cb565b805460009392916119026118f8836118bb565b8085529360200190565b9160018116908115611954575060011461191b57505050565b61192e9192939450600052602060002090565b916000925b8184106119405750500190565b805484840152602090930192600101611933565b92949550505060ff1916825215156020020190565b90610822916118e5565b9061080c61198d9261198460405190565b93848092611969565b0383610c11565b60079061199f825490565b8110156107e7576119af91611859565b506119b981611888565b916119c66001830161189b565b916119d360048201611888565b916119e060058301611888565b916119ed6006820161189b565b916119fa60078301611888565b91611a0760088201611888565b91610822600a611a1960098501611973565b9301611888565b634e487b7160e01b600052602160045260246000fd5b60061115611a4057565b611a20565b9061080c82611a36565b61082290611a45565b61082590611a4f565b908152989796956101208a0195909490939092909160208b01611a8391611a58565b60408a015260608901521515608088015260a087015260c086015284810360e0860152611aaf9161096f565b61010090930152565b346107e757610857611ad3611ace3660046109f3565b611994565b95611ae699979995919594929460405190565b998a998a611a61565b346107e757611aff36600461085b565b6108576108f8615412565b346107e757610857610a2e611b203660046109f3565b61541c565b6108226014603a610875565b346107e757611b4136600461085b565b610857610844611b25565b611b6561082292611b606000936016610e0a565b610b6d565b6108c6565b346107e7576108576108f8611b80366004610a8b565b90611b4c565b906020828203126107e757610822916113ec565b61086f6108226108229260ff1690565b90610b7790611b9a565b634e487b7160e01b600052600060045260246000fd5b90600010611bdb5761082290611973565b611bb4565b6000611bf0610822926008611baa565b611bca565b346107e7576108576109d3611c0b366004611b86565b611be0565b346107e757610920611c23366004610cfa565b615446565b346107e7576108576108f8611c3e366004610cfa565b61544f565b346107e757611c5336600461085b565b61092061548c565b61082260006037610875565b346107e757611c7736600461085b565b6108576108a7611c5b565b346107e757610920611c95366004610cfa565b615586565b6108226000602e6108c6565b346107e757611cb636600461085b565b6108576108f8611c9a565b6000610e24610822926017610b6d565b346107e757610857610844611ce73660046109f3565b611cc1565b60a0818303126107e75780356001600160401b0381116107e75782611d1291830161150f565b92610822611d2384602085016109e6565b936060611d33826040870161135a565b9401611441565b346107e7576108576108f8611d50366004611cec565b929190916162d3565b346107e757610857610844611d6f3660046109f3565b6166ab565b346107e757611d8436600461085b565b61092061672e565b346107e75761085761179b611da2366004610cfa565b616736565b805482101561187c57611873600191600052602060002090565b6034548110156107e757611dd9610822916034611da7565b906108c6565b346107e7576108576108f8611df53660046109f3565b611dc1565b346107e757611e0a36600461085b565b6108576108f8616802565b346107e757611e2536600461085b565b61085761084461680c565b610822600060326108c6565b346107e757611e4c36600461085b565b6108576108f8611e30565b6108226000601d6108c6565b346107e757611e7336600461085b565b6108576108f8611e57565b346107e757610857610844611e94366004610ef2565b90616817565b346107e757611eaa36600461085b565b6108576109d3616832565b6000610bb461082292600f610b6d565b346107e757610857610a2e611edb3660046109f3565b611eb5565b346107e757610920611ef3366004610cfa565b616864565b346107e757611f0836600461085b565b61092061686d565b346107e757610920611f23366004611b86565b61689f565b610822600060266108c6565b346107e757611f4436600461085b565b6108576108f8611f28565b6108229060081c61086f565b6108229054611f4f565b61082290610a07565b6108229054611f65565b611f83906018610b6d565b611f8c8161189b565b91611f9682611f5b565b91611fa360018201611888565b916108226003611fb560028501611888565b9301611f6e565b901515815260a08101959461080c949093608093611ff49291611fed91611fe69015156020870152565b6040850152565b6060830152565b01906001600160a01b03169052565b346107e75761085761201e6120193660046109f3565b611f78565b9161202b95939560405190565b95869586611fbc565b610e2461082292611b606000936015610e0a565b346107e75761085761084461205e366004610a8b565b90612034565b6108226000610b60565b610822612064565b346107e75761208636600461085b565b6108576108f861206e565b91906040838203126107e7576108229060206112588286610a7e565b346107e7576109206120c0366004612091565b906168a8565b600d548110156107e7576120de61082291600d611da7565b90611bca565b346107e7576108576109d36120fa3660046109f3565b6120c6565b346107e757610857610844612115366004610cfa565b6168b3565b61212a61212660049390565b9190565b6000915b83831061213b5750505050565b61215161172e600192845160ff16815260200190565b9201919061212e565b61216661212660029390565b6000915b8383106121775750505050565b61218d61172e600192845160ff16815260200190565b9201919061216a565b8051825290610822906101c06101406122436101e084016121bf60208801516020870190611a58565b6121d16040880151604087019061211a565b6121e3606088015160c087019061215a565b6121f36080880151610100870152565b61220360a0880151610120870152565b60c087015115158584015261221e60e0880151610160870152565b61222f610100880151610180870152565b6101208701518582036101a087015261096f565b940151910152565b602080825261082292910190612196565b346107e7576108576122776122723660046109f3565b616b03565b6040519182918261224b565b6108226000603a610b99565b346107e75761229f36600461085b565b610857610a2e612283565b346107e7576109206122bd366004610ac7565b94939093929192616b86565b6108226000601e6108c6565b346107e7576122e536600461085b565b6108576108f86122c9565b346107e7576108576109d3612306366004611b86565b616bd6565b610822600060216108c6565b346107e75761232736600461085b565b6108576108f861230b565b6108226000602f6108c6565b346107e75761234e36600461085b565b6108576108f8612332565b906080828203126107e75761236e8183610a7e565b9261237c8260208501610a7e565b9261238a83604083016109e6565b9260608201356001600160401b0381116107e7576108229201610ca2565b346107e7576109206123bb366004612359565b92919091616c05565b6000610bb461082292603b610b6d565b346107e757610857610a2e6123ea3660046109f3565b6123c4565b600a548110156107e7576120de61082291600a611da7565b346107e7576108576109d361241d3660046109f3565b6123ef565b346107e757610857610a2e6124383660046109f3565b616c1c565b6000611b65610822926014610e0a565b346107e7576108576108f8612463366004610cfa565b61243d565b346107e75761247836600461085b565b61085761179b616c48565b610822600060286108c6565b346107e75761249f36600461085b565b6108576108f8612483565b346107e7576108576109d36124c03660046109f3565b616cb9565b61082260006038610b99565b346107e7576124e136600461085b565b610857610a2e6124c5565b346107e7576109206124ff366004610cfa565b616cee565b6108226000601f6108c6565b346107e75761252036600461085b565b6108576108f8612504565b6000611b65610822926010610e0a565b346107e7576108576108f8612551366004610cfa565b61252b565b346107e757610920612569366004610cfa565b616d1f565b346107e75761257e36600461085b565b6108576000805160206191c28339815191526108f8565b346107e7576109206125a8366004610ef2565b90616d43565b919091610120818403126107e7576125c6838261135a565b926125d48160208401611441565b926125e282606085016109e6565b926125f08360808301611572565b926101008201356001600160401b0381116107e7576108229201610ca2565b346107e7576108576108f86126253660046125ae565b93929092617899565b346107e757610920612641366004610e44565b91617a52565b6108226000602c6108c6565b346107e75761266336600461085b565b6108576108f8612647565b6108226000601a6108c6565b346107e75761268a36600461085b565b6108576108f861266e565b610822600060206108c6565b346107e7576126b136600461085b565b6108576108f8612695565b610822600060336108c6565b346107e7576126d836600461085b565b6108576108f86126bc565b346107e7576126f336600461085b565b610857610a2e617a5d565b91906040838203126107e757610822906020610f0e8286610a7e565b346107e7576108576108446127303660046126fe565b90617a67565b6000611bf061082292600b611baa565b346107e7576108576109d361275c366004611b86565b612736565b610822600060316108c6565b346107e75761277d36600461085b565b6108576108f8612761565b346107e75761092061279b366004610cfa565b617aa0565b63ffffffff81166107f8565b9050359061080c826127a0565b906020828203126107e757610822916127ac565b346107e7576108576108f86127e33660046127b9565b617aca565b610822600060236108c6565b346107e75761280436600461085b565b6108576108f86127e8565b346107e7576109206128223660046109f3565b617c90565b610822600060366108c6565b346107e75761284336600461085b565b6108576108f8612827565b346107e75761285e36600461085b565b6108576108f8617c99565b61082290617ca3565b1561287957565b60405162461bcd60e51b815260206004820152601060248201526f14185d5cd8589b194e881c185d5cd95960821b6044820152606490fd5b0390fd5b6128ce6128c96128c5601961189b565b1590565b612872565b61080c61080c60016128e0603a611f6e565b6168a8565b61080c6128b5565b61082290611973565b61082260006128ed565b6108229061290d81617cac565b50617cfd565b61080c913391617d14565b1561292557565b60405162461bcd60e51b815260206004820152602360248201527f41757468436f6e74726f6c3a2043616c6c6572206973206e6f7420616e20616460448201526236b4b760e91b6064820152608490fd5b9061080c959493929161299061298b336135a8565b61291e565b6129c0565b90600019905b9181191691161790565b906129b56108226129bc92610b60565b8254612995565b9055565b926129ed61080c9695936129e66129f4946129df6129fb9860286129a5565b60296129a5565b602a6129a5565b602b6129a5565b602c6129a5565b602d6129a5565b9061080c9594939291612976565b61080c90612a2061298b336135a8565b612c35565b9160001960089290920291821b911b61299b565b921b90565b9190612a4f6108226129bc93610b60565b908354612a25565b61080c91600091612a3e565b818110612a6e575050565b80612a7c6000600193612a57565b01612a63565b9190601f8111612a9157505050565b612aa361080c93600052602060002090565b906020601f840181900483019310612ac6575b6020601f909101045b0190612a63565b9091508190612ab6565b600019600883021c1916906002021790565b90612aeb815190565b906001600160401b038211610c3257612b0e82612b0885546118bb565b85612a82565b602090601f8311600114612b3c576129bc929160009183612b31575b5050612ad0565b015190503880612b2a565b601f19831691612b5185600052602060002090565b9260005b818110612b8f57509160029391856001969410612b76575b50505002019055565b01516000196008601f8516021c19169055388080612b6d565b91936020600181928787015181550195019201612b55565b9061080c91612ae2565b9190611bdb5761080c91612ae2565b90815491600160401b831015610c325782612be391600161080c95018155611da7565b90612bb1565b634e487b7160e01b600052601160045260246000fd5b60ff1660ff8114612c105760010190565b612be9565b9060ff9061299b565b90612c2e6108226129bc92611b9a565b8254612c15565b612c5281612c4d612c46600961189b565b6008611baa565b612ba7565b612c5d81600a612bc0565b612c79612c72612c6d600961189b565b612bff565b6009612c1e565b7fe4d2864ec291f6f11cb3363fa1bd2a4d5ff49a2cfdf4bf7dfe3b90a26b8c776f612cb9612caf612caa600961189b565b611b9a565b926109d760405190565b0390a2565b61080c90612a10565b61080c90612cd761298b336135a8565b61080c90612ce3612064565b613b4e565b61080c90612cc7565b9190612cfc565b9290565b8203918211612c1057565b610822612d1360075490565b612d1d6001610b60565b90612cf1565b61080c90612d3361298b336135a8565b612d4b81612c4d612d44600c61189b565b600b611baa565b612d5681600d612bc0565b612d6d612d66612c6d600c61189b565b600c612c1e565b7fd961fa20561746b8576d7b504b0bc57067c67db2ce13bd9866d451bec5985f4b612cb9612caf612caa600c61189b565b61080c90612d23565b9061082291612dbc6128c96128c5601961189b565b6130a1565b610a076108226108229290565b61082290612dc1565b15612dde57565b60405162461bcd60e51b815260206004820152600c60248201526b7a65726f206164647265737360a01b6044820152606490fd5b15612e1957565b60405162461bcd60e51b815260206004820152602360248201527f47656d20636f6f6c646f776e20706572696f6420686173206e6f7420656c61706044820152621cd95960ea1b6064820152608490fd5b15612e7157565b60405162461bcd60e51b815260206004820152602860248201527f47656d206973206c697374656420666f722073616c65206f7220616c7265616460448201526779206d696e696e6760c01b6064820152608490fd5b15612ece57565b60405162461bcd60e51b81526020600482015260166024820152757573657220697320616c7265616479206d696e696e6760501b6044820152606490fd5b15612f1357565b60405162461bcd60e51b815260206004820152600d60248201526c3737ba1033b2b69037bbb732b960991b6044820152606490fd5b909190600483101561187c576020612f5f60019290565b8185040193060290565b612f789060ff165b9160ff1690565b019060ff8211612c1057565b61086f6108226108229290565b90612c2e6108226129bc92151590565b15612fa857565b60405162461bcd60e51b815260206004820152601060248201526f4e6f7420656e6f7567682066756e647360801b6044820152606490fd5b906001600160a01b039061299b565b90612fff6108226129bc92610e01565b8254612fe0565b90613013610c8383610c4b565b918252565b3d15613032576130273d613006565b903d6000602084013e565b606090565b1561303e57565b60405162461bcd60e51b815260206004820152601060248201526f6e6f7420656e6f7567682066756e647360801b6044820152606490fd5b90815260608101939261080c92909160409161309d905b6001600160a01b03166020830152565b0152565b506000906130bc6130b4610a0784612dce565b331415612dd7565b6007916130df6130d860046130d18587611859565b5001611888565b4211612e12565b6131006130fb6128c560066130f48688611859565b500161189b565b612e6a565b61311e6131196128c5613114336013610e0a565b61189b565b612ec7565b61314c61313461312f84600f610b6d565b611f6e565b613146335b916001600160a01b031690565b14612f0c565b61316c61316682600261315f8688611859565b5001612f48565b90610875565b926131c16131ad61319a60026131828786611859565b5001966131946131666001809a612f48565b90612f69565b61319461316660028061315f8a89611859565b6131946131666003600261315f8988611859565b6131cb6008612f84565b60ff8216116133515750918061330c926132f26132996132a06000805160206191a2833981519152976131fe601c611888565b505b6132148a61320f336013610e0a565b612f91565b6132278a61320f88611b60336015610e0a565b61324061323987611b60336016610e0a565b42906129a5565b6132548661324f336014610e0a565b6129a5565b61326b8a60066132648985611859565b5001612f91565b600a61327d613278611095565b617d21565b978195919361329461328c8b90565b341015612fa1565b611859565b50016129a5565b6132b688846132b0846018610b6d565b01612f91565b6132ce6132c4826018610b6d565b6003339101612fef565b6132eb6132e46132de6035611888565b60010190565b60356129a5565b60366129a5565b813411613312575b50506040519182914290339084613076565b0390a190565b8061334a9261333261332b61332633610e01565b610e01565b9134612cf1565b60405190818003925af1613344613018565b50613037565b38806132fa565b61335b6008612f84565b60ff82161180613498575b1561339b5750918061330c926132f26132996132a06000805160206191a283398151915297613395601d611888565b50613200565b6133a5600c612f84565b60ff82161180613482575b156133df5750918061330c926132f26132996132a06000805160206191a283398151915297613395601e611888565b6133ec6010949294612f84565b60ff821611908161346b575b5015613426578061330c926132f26132996132a06000805160206191a283398151915297613395601f611888565b60405162461bcd60e51b815260206004820152601760248201527f47656d206e6f7420616c6c6f77656420746f204d696e650000000000000000006044820152606490fd5b905061347a612f716014612f84565b1115386133f8565b5061348d6010612f84565b60ff821611156133b0565b506134a3600c612f84565b60ff82161115613366565b610822906000612da7565b6001600160a01b03909116815260608101939261080c929091604091611ff4906020830152565b906134eb6000612dce565b6001600160a01b0381166001600160a01b03831614613552575061351190833391617e03565b6001600160a01b0382166001600160a01b0382160361352f57505050565b6128b19061353c60405190565b6364283d7b60e01b8152938493600485016134b9565b6128b19061355f60405190565b633250574960e11b8152918291600483016001600160a01b03909116815260200190565b90610b77565b60016135a26108229261359a600090565b50603e613583565b01611888565b610822906135b4612064565b616817565b60066130f4610822926135ca600090565b506007611859565b6108226038611f6e565b9061080c916135f26135ed82613589565b617f4e565b906135fc91617f59565b50565b9061080c916135dc565b61080c9061361961298b336135a8565b61080c906000805160206191c2833981519152613b4e565b61080c90613609565b9061080c9e9d9c9b9a99989796959493929161365861298b336135a8565b613735565b6108229060081c610a07565b610822905461365d565b1561367a57565b60405162461bcd60e51b815260206004820152601e60248201527f746974616e7773746f6e20616c726561647920696e697469616c697a656400006044820152606490fd5b156136c657565b60405162461bcd60e51b815260206004820152601760248201527f746f6e20616c726561647920696e697469616c697a65640000000000000000006044820152606490fd5b90610100600160a81b039060081b61299b565b9061372e6108226129bc92610e01565b825461370b565b61080c9e9d9b976137fa6138169861382b9f9c966138249e996137ec61380f9a61381d9f986137f3946137de6138089c6137d76137e5946137d06138019e6137c96137806037613669565b6137a661378d6000612dce565b916137a06001600160a01b038416613139565b14613673565b6137c36131396137b66038611f6e565b926001600160a01b031690565b146136bf565b603761371e565b6038612fef565b6039612fef565b601c6129a5565b601d6129a5565b601e6129a5565b601f6129a5565b60206129a5565b60216129a5565b60226129a5565b60236129a5565b60246129a5565b60256129a5565b60266129a5565b60276129a5565b9061080c9e9d9c9b9a99989796959493929161363a565b90610822929161385b61298b336135a8565b6138f6565b9050519061080c82611227565b906020828203126107e75761082291613860565b6001600160a01b03909116815260408101929161080c9160200152565b6040513d6000823e3d90fd5b156138b157565b60405162461bcd60e51b815260206004820152601860248201527f6661696c656420746f207472616e7366657220746f6b656e00000000000000006044820152606490fd5b506139379160209161390c613326806039611f6e565b90600061391860405190565b80968195829461392c6348dbcef060e01b90565b845260048401613881565b03925af180156139875761395391600091613958575b506138aa565b600190565b61397a915060203d602011613980575b6139728183610c11565b81019061386d565b3861394d565b503d613968565b61389e565b61082291906000613849565b1561399f57565b60405162461bcd60e51b815260206004820152602d60248201527f66756e6374696f6e2063616c6c61626c652066726f6d2074726561737572792060448201526c636f6e7472616374206f6e6c7960981b6064820152608490fd5b9061080c91613a16613a0f610a076039611f6e565b3314613998565b9061080c91613a2b6128c96128c5601961189b565b613a98565b156107e757565b15613a3e57565b60405162461bcd60e51b815260206004820152600d60248201526c11d95b481a5cc81b1bd8dad959609a1b6044820152606490fd5b6001600160a01b03909116815260608101939261080c92909160409161309d9061308d565b907f85d07a7616aea29f5d972fd9100b991c224490bd49b737377d908f66f34d9afd91613add613acb610a076000612dce565b6001600160a01b0383165b1415613a30565b613ae633613acb565b613b01613afc6128c560066130f4866007611859565b613a37565b613b13613b0e8333617fd0565b613a30565b613b1e828233618035565b613b29828233613d15565b613b3f613b3560405190565b9283923384613a73565b0390a1565b9061080c916139fa565b90613b5833610a07565b6001600160a01b03821603613b70576135fc916180c7565b60405163334bd91960e11b8152600490fd5b6001600160a01b03909116815260408101929161080c91602090611ff4565b9190613bcc7f0000000000000000000000000000000000000000000000000000000000000000610e01565b926001600160a01b0384163303613be85761080c929350618196565b6128b184613bf560405190565b63073e64fd60e21b81529182913360048401613b82565b6108226039611f6e565b15613c1d57565b60405162461bcd60e51b815260206004820152602360248201527f41757468436f6e74726f6c3a2043616c6c6572206973206e6f7420612070617560448201526239b2b960e91b6064820152608490fd5b613ca2613c9d7ffcb9fcbfa83b897fb2d5cf4b58962164105c1e71489a37ef3ae0db3fdce576f65b3390616817565b613c16565b61080c613cb56128c96128c5601961189b565b61080c613cc460006019612f91565b7f5db9ee0a495bf2e6ff9c91a7834c1ba4fdd244a5e8aa4e537bd38aeae4b073aa613cee60405190565b3381528060208101613b3f565b61080c613c6e565b6108226000613006565b610822613d03565b909161080c92613d23613d0d565b92616c05565b9061080c91613d3e613a0f610a07603a611f6e565b90600661326461080c936007611859565b9061080c91613d29565b906108229594939291613d72613a0f610a076039611f6e565b906108229594939291613d8b6128c96128c5601961189b565b6146de565b15613d9757565b60405162461bcd60e51b815260206004820152602660248201527f496e70757420617272617973206d7573742068617665207468652073616d65206044820152650d8cadccee8d60d31b6064820152608490fd5b90613013610c8383611339565b369037565b9061080c613e13613e0d84613deb565b93611339565b601f190160208401613df8565b90613e29825190565b81101561187c576020809102010190565b9060045b81101561187c576020020190565b6108229051611a45565b15613e5d57565b60405162461bcd60e51b815260206004820152602e60248201527f416c6c207175616472616e7473206d7573742062652031206f72203220666f7260448201526d20434f4d4d4f4e2072617269747960901b6064820152608490fd5b15613ec057565b60405162461bcd60e51b815260206004820152601760248201527f323232322069732052415245206e6f7420434f4d4d4f4e0000000000000000006044820152606490fd5b15613f0c57565b60405162461bcd60e51b815260206004820152602c60248201527f416c6c207175616472616e7473206d7573742062652032206f72203320666f7260448201526b20524152452072617269747960a01b6064820152608490fd5b15613f6d57565b60405162461bcd60e51b815260206004820152601760248201527f3333333320697320554e49515545206e6f7420524152450000000000000000006044820152606490fd5b15613fb957565b60405162461bcd60e51b815260206004820152602e60248201527f416c6c207175616472616e7473206d7573742062652033206f72203420666f7260448201526d20554e495155452072617269747960901b6064820152608490fd5b1561401c57565b60405162461bcd60e51b815260206004820152601760248201527f343434342069732045504943206e6f7420554e495155450000000000000000006044820152606490fd5b1561406857565b60405162461bcd60e51b815260206004820152602c60248201527f416c6c207175616472616e7473206d7573742062652034206f72203520666f7260448201526b20455049432072617269747960a01b6064820152608490fd5b156140c957565b60405162461bcd60e51b815260206004820152601a60248201527f35353535206973204c4547454e44415259206e6f7420455049430000000000006044820152606490fd5b1561411557565b60405162461bcd60e51b815260206004820152603160248201527f416c6c207175616472616e7473206d7573742062652035206f72203620666f72604482015270204c4547454e444152592072617269747960781b6064820152608490fd5b1561417b57565b60405162461bcd60e51b815260206004820152601c60248201527f36363636206973204d5954484943206e6f74204c4547454e44415259000000006044820152606490fd5b156141c757565b60405162461bcd60e51b815260206004820152602960248201527f416c6c207175616472616e7473206d757374206265203620666f72204d59544860448201526849432072617269747960b81b6064820152608490fd5b91908201809211612c1057565b610822610160610c37565b9061082590611a45565b90612c2e6108226129bc92611a4f565b9061426390600019906020036008021c90565b8154169055565b91909182821061427957505050565b61080c926020601f90910104906001602061429c601f86018290049390565b9390565b928301940602600081116142b3575b500190612a63565b6142c09060018503614250565b386142ab565b90600160401b8111610c325761080c9160045b9061426a565b9190600861299b910291612a3960ff841b90565b90600490612cf86143089161082284866142c6565b602082049160005b83811061437657506020830290036000811161432d575b50505050565b9260009360005b81811061434957505050015538808080614327565b909194602061436c6001926143626108228a5160ff1690565b90858502906142df565b9601929101614334565b6000805b6020811061438f575083820155600101614310565b959060206143b16001926143a7610822865160ff1690565b908a8502906142df565b9201960161437a565b9061080c916142f3565b90600160401b8111610c325761080c9160026142d9565b90600290612cf86143f09161082284866143c4565b602082049160005b8381106144535750602083029003600081116144145750505050565b9260009360005b81811061443057505050015538808080614327565b90919460206144496001926143626108228a5160ff1690565b960192910161441b565b6000805b6020811061446c5750838201556001016143f8565b959060206144846001926143a7610822865160ff1690565b92019601614457565b9061080c916143db565b600a61459061014061080c946144b76144b1600083015190565b866129a5565b6144cf6144c660208301613e4c565b60018701614240565b6144e66144dd604083015190565b600287016143ba565b6144fd6144f4606083015190565b6003870161448d565b61451461450b608083015190565b600487016129a5565b61452b61452260a083015190565b600587016129a5565b61454461453b60c0830151151590565b60068701612f91565b61455b61455260e083015190565b600787016129a5565b61457361456a61010083015190565b600887016129a5565b61458b61458261012083015190565b60098701612ba7565b015190565b91016129a5565b9190611bdb5761080c91614497565b90815491600160401b831015610c3257826145c991600161080c95018155611859565b90614597565b6108226108226108229263ffffffff1690565b6000198114612c105760010190565b6145fd61212660029390565b6000915b83831061460e5750505050565b61462461172e600192845160ff16815260200190565b92019190614601565b61463961212660049390565b6000915b83831061464a5750505050565b61466061172e600192845160ff16815260200190565b9201919061463d565b999897969492909593916101a08b019660008c0161468691611a58565b60208b01614693916145f1565b60608a0152608089015260a088016146aa9161462d565b6101208701526101408601528481036101608601526146c89161096f565b926101800161080c916001600160a01b03169052565b50805190939192906146f4612126610822865190565b14806153ec575b806153d5575b806153b3575b61471090613d90565b61472061471b855190565b613dfd565b946000928392849560009761473489610b60565b61473f610822835190565b8110156153a65761476d6147666147568388613e20565b516147608d610b60565b90613e3a565b5160ff1690565b61478e61477a8388613e20565b519161319461476660019461476086610b60565b6147af61479b8489613e20565b519161319461476660029461476086610b60565b6147d06147bc858a613e20565b519161319461476660039461476086610b60565b8d6147f56147ef6147e96147e4898b613e20565b613e4c565b92611a45565b91611a45565b14615221575b6148086147e48688613e20565b6148146147ef86611a45565b1461509c575b6148276147e48688613e20565b6148336147ef85611a45565b14614eff575b6148466147e48688613e20565b6148526147ef84611a45565b14614d4b575b6148656147e48688613e20565b6148726147ef6004611a45565b14614b9a575b506148866147e48587613e20565b6148936147ef6005611a45565b14614a96575b50506148a58284613e20565b6148ae90613e4c565b906148b98388613e20565b51918c8a6148c78689613e20565b5191868c6148d5828d613e20565b51936148e1904261421e565b916148eb91613e20565b51936148f561422b565b976148ff84610b60565b9661490a888b870152565b6149179060208b01614236565b6040890152606088015260808701526149318e60a0880152565b151560c08601526149438e60e0870152565b610100850152610120840152610140830152600761496183826145a6565b549061496c90610b60565b61497591612cf1565b908b6149808361107f565b614989906145cf565b91614995848414613a30565b01526149a281600f610b6d565b336149ac91612fef565b6149b7336010610e0a565b6149c081611888565b6149c9906145e2565b6149d2916129a5565b6149dc81336182d1565b81808b81808d8d8d8d8d8d8d878d6149f48288613e20565b516149fe916182e3565b614a0791613e20565b614a1090613e4c565b97614a1a91613e20565b5195614a2591613e20565b5197614a3091613e20565b5197614a3b91613e20565b5191614a4689610b60565b97614a5060405190565b9788973396614a5f988a614669565b037fe4d551115b58edfb8dc82767e463462b3b2a8bb444cb0ee27de703c24332282591a2614a8d828d613e20565b52600101614734565b919a50919850614aef929750614abd6147668c614760614ab68d8b613e20565b5191610b60565b90600691614acd612f7184612f84565b14928b8b85614b6e575b505083614b43575b508983614b17575b5050506141c0565b614af96033611888565b94614b04602d611888565b96614b0f6027611888565b983880614899565b614b3a929350614766612f7192614760614ab6614b34948c613e20565b92612f84565b14388089614ae7565b614b5a91935061476690614760614ab68d8b613e20565b614b66612f7183612f84565b149138614adf565b614b8592955090614760614ab6614766938c613e20565b614b91612f7184612f84565b14928b8b614ad7565b919a509a50614c07919850614bb96147668d614760614ab6878c613e20565b600590614bc8612f7183612f84565b148d8115614d21575b5080614cda575b80614c8b575b8c858a83614c2e575b505050614bf4915061410e565b614c01612f716018612f84565b10614174565b614c116032611888565b96614c1c602c611888565b98614c276026611888565b9a38614878565b614c4a9350612f7192614760614ab6614b349461476694613e20565b148015614c5e575b614bf4908c858a614be7565b50614bf4614c766147668d614760614ab6888d613e20565b614c83612f716006612f84565b149050614c52565b50614ca06147668c614760614ab6888d613e20565b614cac612f7183612f84565b1480614bde5750614cc76147668c614760614ab6888d613e20565b614cd4612f716006612f84565b14614bde565b50614ceb614766614756868b613e20565b614cf7612f7183612f84565b1480614bd85750614d0e614766614756868b613e20565b614d1b612f716006612f84565b14614bd8565b614d37915061476690614760614ab6888d613e20565b614d44612f716006612f84565b148d614bd1565b9b5099509750614d656147668c614760614ab6868b613e20565b600490614d74612f7183612f84565b148015614ed7575b80614e86575b80614e35575b8a848983614ddc575b505050614d9e9150614061565b614db6614dab6014612f84565b60ff8c165b106140c2565b614dc06031611888565b97614dcb602b611888565b99614dd66025611888565b9b614858565b614df89350612f7192614760614ab6614b349461476694613e20565b148015614e0c575b614d9e908a8489614d91565b50614d9e614e20614766614756858a613e20565b614e2d612f716005612f84565b149050614e00565b50614e50614766614e46858a613e20565b516147608c610b60565b614e5c612f7183612f84565b1480614d885750614e73614766614e46858a613e20565b614e80612f716005612f84565b14614d88565b50614ea1614766614e97858a613e20565b5161476085610b60565b614ead612f7183612f84565b1480614d825750614ec4614766614e97858a613e20565b614ed1612f716005612f84565b14614d82565b50614eec6147668d614760614ab6878c613e20565b614ef9612f716005612f84565b14614d7c565b9b5099509750614f196147668c614760614ab6868b613e20565b614f25612f718b612f84565b148015615074575b80615023575b80614fd2575b80614f86575b614f4890613fb2565b614f60614f556010612f84565b60ff8c165b10614015565b614f6a6030611888565b97614f75602a611888565b99614f806024611888565b9b614839565b50614f97614766614e468489613e20565b614fa3612f718b612f84565b1480614f3f5750614f48614fbd614766614756858a613e20565b614fca612f716004612f84565b149050614f3f565b50614fed614766614fe38489613e20565b516147608b610b60565b614ff9612f718b612f84565b1480614f395750615010614766614fe38489613e20565b61501d612f716004612f84565b14614f39565b5061503e6147666150348489613e20565b5161476084610b60565b61504a612f718b612f84565b1480614f3357506150616147666150348489613e20565b61506e612f716004612f84565b14614f33565b506150896147668c614760614ab6868b613e20565b615096612f716004612f84565b14614f2d565b9b50995097506150b66147668c614760614ab6868b613e20565b6150c2612f718a612f84565b1480156151fa575b806151b4575b8061516e575b80615123575b6150e590613f05565b6150fd6150f2600c612f84565b60ff8c165b10613f66565b615107602f611888565b976151126029611888565b9961511d6023611888565b9b61481a565b50615134614766614e468489613e20565b615140612f718a612f84565b14806150dc57506150e561515a614766614756858a613e20565b615166612f718c612f84565b1490506150dc565b5061517f614766614fe38489613e20565b61518b612f718a612f84565b14806150d657506151a2614766614fe38489613e20565b6151ae612f718b612f84565b146150d6565b506151c56147666150348489613e20565b6151d1612f718a612f84565b14806150d057506151e86147666150348489613e20565b6151f4612f718b612f84565b146150d0565b5061520f6147668c614760614ab6868b613e20565b61521b612f718b612f84565b146150ca565b9b509950975061523b6147668c614760614ab6868b613e20565b615247612f7183612f84565b14801561537f575b80615339575b806152f3575b806152a8575b61526a90613e56565b6152826152776008612f84565b60ff8c165b10613eb9565b61528c602e611888565b976152976028611888565b996152a26022611888565b9b6147fb565b506152b9614766614e468489613e20565b6152c5612f7183612f84565b1480615261575061526a6152df614766614756858a613e20565b6152eb612f718b612f84565b149050615261565b50615304614766614fe38489613e20565b615310612f7183612f84565b148061525b5750615327614766614fe38489613e20565b615333612f718a612f84565b1461525b565b5061534a6147666150348489613e20565b615356612f7183612f84565b1480615255575061536d6147666150348489613e20565b615379612f718a612f84565b14615255565b506153946147668c614760614ab6868b613e20565b6153a0612f718a612f84565b1461524f565b5050505050505050505090565b506147106153bf835190565b6153cd612126610822895190565b149050614707565b5080516153e6612126610822855190565b14614701565b5082516153fd612126610822845190565b146146fb565b61082294939291906060613d59565b610822601c611888565b61082290617cac565b61080c9061543561298b336135a8565b61080c90615441612064565b6135ff565b61080c90615425565b6154666108229161545e600090565b506010610e0a565b611888565b61547761298b336135a8565b61080c61080c615485612064565b3390613b4e565b61080c61546b565b61080c906154a461298b336135a8565b61553a565b156154b057565b60405162461bcd60e51b815260206004820152601860248201527f41636365737369626c653a207a65726f206164647265737300000000000000006044820152606490fd5b156154fc57565b60405162461bcd60e51b815260206004820152601660248201527520b1b1b2b9b9b4b136329d1039b0b6b29030b236b4b760511b6044820152606490fd5b61080c9061555f61554e610a076000612dce565b6001600160a01b03831614156154a9565b6155746001600160a01b0382163314156154f5565b61548561557f612064565b91826135ff565b61080c90615494565b90610822949392916155a76128c96128c5601961189b565b615842565b906002613e3e565b156155bb57565b60405162461bcd60e51b815260206004820152602160248201527f77726f6e67206e756d626572206f662047656d7320746f20626520666f7267656044820152601960fa1b6064820152608490fd5b610c83610822916113cf565b9061080c61562c6156268461560a565b936113cf565b83613df8565b6108226004615616565b1561564357565b60405162461bcd60e51b815260206004820152601c60248201527f47656d20697320666f722073616c65206f72206973206d696e696e67000000006044820152606490fd5b1561568f57565b60405162461bcd60e51b815260206004820152601160248201527077726f6e67207261726974792047656d7360781b6044820152606490fd5b156156cf57565b60405162461bcd60e51b81526020600482015260136024820152720eee4dedcce40e6e8c2d6d2dcce40d2dcc8caf606b1b6044820152606490fd5b6108229060101c61086f565b6108229060181c61086f565b60208061573a614298600195615736600290565b5090565b54926157508161574986611892565b60ff169052565b01614327816157498660000195611f4f565b906109a381604093615722565b9061080c61198d9261578060405190565b93848092615762565b6108229061576f565b1561579957565b60405162461bcd60e51b815260206004820152601c60248201527f7468697320636f6c6f722063616e2774206265206f627461696e6564000000006044820152606490fd5b634e487b7160e01b600052601260045260246000fd5b6158009060ff16612f71565b90811561580b570690565b6157de565b6001610822910160ff1690565b6108226108226108229260ff1690565b61583d6108226108229260ff1690565b611a45565b93929391909150600060805261585f6130b4610a07608051612dce565b6080516000949061587d906147669061587790610b60565b866155ac565b9260019461589661476661589088610b60565b836155ac565b926158a2608051611a45565b6158ab82611a45565b0361614d576158ce6158bb845190565b6158c86121266002610b60565b146155b4565b6158d86023611888565b936158e36029611888565b93886158ef602f611888565b9890505b6158fb615632565b928a615908608051610b60565b905b615d81575b505050508761594c61598a61597861476661594c61476661597260029761596d6159518b61593c8c612f84565b9a8b988992614760608051610b60565b6157f4565b61596561595f608051610b60565b8d613e3a565b9060ff169052565b610b60565b88613e3a565b6159656159848d610b60565b86613e3a565b6159ac6159a08261594c61476661597287610b60565b61596561598485610b60565b896003916159d86159cc8261594c6147666159c688610b60565b8a613e3a565b61596561597286610b60565b6159e0615632565b9c608051506159f0608051611a45565b6159f988611a45565b03615cdb575091928c938296955b615a12608051612f84565b975b615c70575b50615a709650615a36614766615a30608051610b60565b87613e3a565b615a4e612f7161086f615a4887612f84565b88612f69565b1480615c48575b80615c20575b80615bf8575b615bb0575b5050505050611a4f565b615a7987612f84565b615a8291612f69565b615a8b9061582d565b94615a96904261421e565b90615a9f61422b565b97608051615aac90610b60565b6080518a0181905296615ac29060208b01614236565b60408901526060880152608087015260a0860152608051151560c086015260e0850152610100840152615af3613d0d565b610120840152610140830152600791615b0c90836145a6565b815490615b1890610b60565b615b2191612cf1565b809181615b2d91611859565b506080510190615b3c916129a5565b615b458161107f565b615b4e906145cf565b8114615b5990613a30565b615b6481600f610b6d565b33615b6e91612fef565b615b79336010610e0a565b615b8281611888565b615b8b906145e2565b615b94916129a5565b615b9e81336182d1565b615ba6613d0d565b61082290826182e3565b61596d84615965615bee97614760615be89661596d856159656159846159659c61596d84615965615be2608051610b60565b8b613e3a565b8c613e3a565b8838898180615a66565b50615c08614766615a3083610b60565b615c1a612f7161086f615a4887612f84565b14615a61565b50615c30614766615a3084610b60565b615c42612f7161086f615a4887612f84565b14615a5b565b50615c58614766615a3085610b60565b615c6a612f7161086f615a4887612f84565b14615a55565b9194615c8160049892959798612f84565b60ff83161015615ccf5790615cbe615cc392615965615cb4615cae614766615ca88761581d565b89613e3a565b8b612f69565b916147608561581d565b615810565b9594928d949183615a14565b94918796949150615a19565b91615ce69150611a45565b615cef86611a45565b03615d0d575089615cff82612f84565b935b92819594928d94615a07565b615d1683611a45565b615d1f86611a45565b03615d37575089615d306004612f84565b935b615d01565b8a615d4183611a45565b615d4a87611a45565b03615d5b579050615d306005612f84565b9093615d676004611a45565b615d7087611a45565b03615d32579350615d306006612f84565b898c8688615d90610822895190565b851015616144576131666003615f439361315f615e3a615def8a8e615eed8b9f9e9d9c9b615e68615f509d615e47615f339d615e416147ef6147e9876130f4615e3a615def8e8e615e08615df961312f600f615df3615def8787613e20565b5190565b90610b6d565b615e0233613139565b14613a30565b615e35615e1b610ed2615def8585613e20565b615e2f615e29608051151590565b91151590565b1461563c565b613e20565b6007611859565b14615688565b615e62612126612cf860086130d1615e3a615def8c8c613e20565b146156c8565b615eb5615ea7615e916131666002615e86615e3a615def8b8b613e20565b500160805190612f48565b615ea261476661595f608051610b60565b612f69565b615965615be2608051610b60565b615965615ca8615ee7615ed761316685600261315f615e3a615def8d8d613e20565b615ea26147668d61476088610b60565b92610b60565b615e356002615f02615e3a615def8686613e20565b500196615965615f29615f1a6131666002809c612f48565b615ea26147666159848d610b60565b916147608a610b60565b615ea2614766615be26003610b60565b615965615ca86003610b60565b83615f5c608051610b60565b905b615f86575b50806132de615f78615def615f7e9489613e20565b33618567565b90919261590a565b615f966108228796939495965190565b81101561613a57615fb79086838583808203615fc1575b5050505060010190565b8194939291615f5e565b615fea615e3a615def600393616017614766615ff187615fea615e3a615def61601d9c8f613e20565b5001615789565b61601161600b614766616005608051610b60565b846155ac565b9a610b60565b906155ac565b97613e20565b9161604561476661603b614766616035608051610b60565b876155ac565b9461601189610b60565b6080519360ff8b1660ff851614938415616129575b8415616118575b8415616107575b84616090575b50505050616089575b61608090615792565b86838583615fad565b5082616077565b92935090916160a160ff8b16612f71565b149283156160f0575b5082156160d9575b5081156160c4575b503880808061606e565b90506160d260ff8816612f71565b14386160ba565b9091506160e860ff8916612f71565b1490386160b2565b9092506160ff60ff8a16612f71565b1491386160aa565b935060ff8b1660ff83161493616068565b935060ff8b1660ff82161493616061565b935060ff8b1660ff8416149361605a565b9392919093615f63565b5050505061590f565b61615687611a45565b61615f82611a45565b036161a65761617c61616f845190565b6158c86121266003610b60565b6161866024611888565b93616191602a611888565b938861619d6030611888565b985b90506158f3565b6161b06002611a45565b6161b982611a45565b036161fd576161d66161c9845190565b6158c86121266004610b60565b6161e06025611888565b936161eb602b611888565b93886161f76031611888565b9861619f565b6162076003611a45565b61621082611a45565b0361624e5761622d616220845190565b6158c86121266005610b60565b6162376026611888565b93616242602c611888565b93886161f76032611888565b6162586004611a45565b61626182611a45565b0361629f5761627e616271845190565b6158c86121266006610b60565b6162886027611888565b93616293602d611888565b93886161f76033611888565b60405162461bcd60e51b815260206004820152600c60248201526b77726f6e672072617269747960a01b6044820152606490fd5b61082293929190600061558f565b90610822916162f66128c96128c5601961189b565b61649a565b1561630257565b60405162461bcd60e51b815260206004820152600d60248201526c3737ba1023a2a69037bbb732b960991b6044820152606490fd5b1561633e57565b60405162461bcd60e51b8152806128b1600482016020808252818101527f6e6f2072616e646f6d207265717565737420666f72207468697320746f6b656e604082015260600190565b1561638e57565b60405162461bcd60e51b815260206004820152601b60248201527f75736572206973206e6f74206d696e696e6720746869732047656d00000000006044820152606490fd5b156163da57565b60405162461bcd60e51b815260206004820152601d60248201527f6d696e696e6720706572696f6420686173206e6f7420656c61707365640000006044820152606490fd5b1561642657565b60405162461bcd60e51b815260206004820152601260248201527147656d73206973206e6f74206d696e696e6760701b6044820152606490fd5b91906164716108226129bc93151590565b9083546142df565b61080c91600091616460565b90815260408101929161080c91602090611ff4565b506164bb6164ac61312f83600f610b6d565b6164b533613139565b146162fb565b60076164cc600a6130d18484611859565b906164e66000926164df61212685610b60565b1415616337565b6164f861311484611b60336015610e0a565b6001939061650f9061650986615e29565b14616387565b61654661653f61082261652a61546685611b60336016610e0a565b61653960056130d18789611859565b9061421e565b42116163d3565b61656961655860066130f48486611859565b616563861515615e29565b1461641f565b6165788361320f336013610e0a565b6165908361658b83611b60336015610e0a565b616479565b6165a8836165a383611b60336016610e0a565b612a57565b6165b7836165a3336014610e0a565b6165c78360066132648486611859565b82602061661c6165dc600a6130d18688611859565b6165fc60026135a26165f46133266133266039611f6e565b936018610b6d565b604051978893849283919063048dbcef60e41b5b83523360048401613881565b03925af1928315613987576166726166668361596d61330c977f97b363697f59781efcf0539a3eeabceea1e3b444e248009d3730fa6a26db9c249961669d979161395857506138aa565b600a6132998685611859565b60046132998461669761669161668c8b6130f48589611859565b6185bb565b4261421e565b93611859565b604051918291339083616485565b6108229060006162e1565b6166e2613c9d7ffcb9fcbfa83b897fb2d5cf4b58962164105c1e71489a37ef3ae0db3fdce576f6613c96565b61080c6166f56128c96128c5601961189b565b61080c61670460016019612f91565b7f62e78cea01bee320cd4e420270b5ea74000d11b0c9f74754ebdbfc544b05a258613cee60405190565b61080c6166b6565b61673f8161544f565b60009061674b82610b60565b81036167605750610822915061471b90610b60565b61676990613dfd565b91616772612d07565b9061677c83610b60565b92506001918261678c6001610b60565b905b61679b575b505050505090565b8181116167fd576167b061312f82600f610b6d565b6167c26001600160a01b038516613139565b146167d7575b6167d1906145e2565b8361678e565b936167f5816167f0876167ed6167d1958b613e20565b52565b6145e2565b9490506167c8565b616793565b610822601e611888565b610822613c96612064565b61082291600061682c6131149361359a600090565b01610e0a565b61082260016128ed565b61080c9061684c61298b336135a8565b61080c906000805160206191c28339815191526135ff565b61080c9061683c565b61080c6000805160206191c2833981519152615485565b61080c9061689461298b336135a8565b61080c906037612c1e565b61080c90616884565b61080c9190336186bc565b610822906000805160206191c2833981519152616817565b6108226002615616565b6168dd61422b565b90600082526020808080808080808080808c0160008152016168fd615632565b8152016169086168cb565b8152016000815201600081520160008152016000815201600081520160608152016000905250565b6108226168d5565b1561693f57565b60405162461bcd60e51b815260206004820152601260248201527111d95b48191bd95cc81b9bdd08195e1a5cdd60721b6044820152606490fd5b602060016143276157499361574984848181816169a061699c839d615736600490565b9790565b966169b081600099549d8e611892565b019501946169c1816157498c611f4f565b019301926169d2816157498a61570a565b019384920195615716565b906109a381608093616979565b9061080c61198d926169fb60405190565b938480926169dd565b9061080c616af2600a616a1561422b565b94616a26616a2282611888565b8752565b616a3e616a356001830161189b565b60208801614236565b616a54616a4d600283016169ea565b6040880152565b616a6a616a636003830161576f565b6060880152565b616a80616a7960048301611888565b6080880152565b616a96616a8f60058301611888565b60a0880152565b616aae616aa56006830161189b565b151560c0880152565b616ac4616abd60078301611888565b60e0880152565b616adb616ad360088301611888565b610100880152565b6135a2616aea60098301611973565b610120880152565b610140840152565b61082290616a04565b616b2961082291616b12616930565b50615e3a616b2261082260075490565b8210616938565b50616afa565b9061080c9594939291616b4461298b336135a8565b92616b7161080c969593616b6a616b7894616b63616b7f98602e6129a5565b602f6129a5565b60306129a5565b60316129a5565b60326129a5565b60336129a5565b9061080c9594939291616b2f565b15616b9b57565b60405162461bcd60e51b8152602060048201526013602482015272496e646578206f7574206f6620626f756e647360681b6044820152606490fd5b616c0061082291616be5606090565b50612c46616bf661086f600961189b565b60ff831610616b94565b6128ed565b9061080c939291616c178383836134e0565b6187a8565b61312f616c3391616c2b600090565b50600f610b6d565b9061080c82613ad6613139610a076000612dce565b610822611da26039611f6e565b15616c5c57565b60405162461bcd60e51b815260206004820152602f60248201527f4552433732314d657461646174613a2055524920717565727920666f72206e6f60448201526e3732bc34b9ba32b73a103a37b5b2b760891b6064820152608490fd5b61082290616cce616cc9826188a4565b616c55565b618929565b61080c90616ce361298b336135a8565b61080c90603a612fef565b61080c90616cd3565b61080c90616d0761298b336135a8565b61080c906000805160206191c2833981519152616d43565b61080c90616cf7565b9061080c91616d396135ed82613589565b906135fc916180c7565b9061080c91616d28565b906108229594939291616d66613a0f610a076039611f6e565b906108229594939291616d7f6128c96128c5601961189b565b5060009491616d93614766615a3088610b60565b92616da96001946131946147666159c688610b60565b616dbe600291613194614766615be285610b60565b90616dd4600392613194614766615be886610b60565b9089616ddf81611a45565b616de888611a45565b036170ea5790616e4193616e0461476661595f616e3495610b60565b616e10612f718b612f84565b14918c83156170c4575b5082617077575b8261702a575b82616fd0575b5050613e56565b61527c612f716008612f84565b616e4b602e611888565b616e556028611888565b616e5f6022611888565b955b616e6b834261421e565b90616e7461422b565b91616e7e8c610b60565b90616e8982858f0152565b616e968960208601614236565b604084018c9052606084018890526080840152616eb48460a0850152565b8b151560c0840152616ec78960e0850152565b616ed38a610100850152565b6101208301869052610140830152600791616eee90836145a6565b815490616efa90610b60565b616f0391612cf1565b99616f0f8b8093611859565b500190616f1b916129a5565b616f248961107f565b616f2d906145cf565b8914616f3890613a30565b616f4389600f610b6d565b33616f4d91612fef565b616f58336010610e0a565b616f6181611888565b616f6a906145e2565b616f73916129a5565b616f7d89336182d1565b616f87838a6182e3565b616f9089610b60565b97616f9a60405190565b9788973396616fa9988a614669565b037fe4d551115b58edfb8dc82767e463462b3b2a8bb444cb0ee27de703c24332282591a290565b9091508a616fe9614766616fe385610b60565b83613e3a565b616ff5612f718c612f84565b14928315617008575b5050503880616e2d565b617021929350614766612f7192614760614b3493610b60565b14388a81616ffe565b915061703b61476661595f84610b60565b617047612f718b612f84565b148015617055575b91616e27565b5061706561476661595f84610b60565b617071612f7184612f84565b1461704f565b915061708861476661595f8b610b60565b617094612f718b612f84565b1480156170a2575b91616e21565b506170b261476661595f8b610b60565b6170be612f7184612f84565b1461709c565b6170d691935061595f61476691610b60565b6170e2612f7184612f84565b14918c616e1a565b6170f388611a45565b6170fc88611a45565b0361728657906171579361711861476661595f61714a95610b60565b617124612f7184612f84565b14918c8315617260575b5082617213575b826171c6575b8b8361717b575b505050613f05565b6150f7612f71600c612f84565b617161602f611888565b61716b6029611888565b6171756023611888565b95616e61565b829350614b34614766612f71926147606171959596610b60565b149081156171a7575b5038808b617142565b90506171bf612f71614b346147668d61476086610b60565b143861719e565b91506171d761476661595f84610b60565b6171e3612f7184612f84565b1480156171f1575b9161713b565b5061720161476661595f84610b60565b61720d612f7183612f84565b146171eb565b915061722461476661595f8b610b60565b617230612f7184612f84565b14801561723e575b91617135565b5061724e61476661595f8b610b60565b61725a612f7183612f84565b14617238565b61727291935061595f61476691610b60565b61727e612f7183612f84565b14918c61712e565b61728f82611a45565b61729888611a45565b0361742a57906172f1936172b461476661595f6172e495610b60565b6172c0612f7183612f84565b14918c8315617403575b50826173b5575b82617361575b508161730f575b50613fb2565b614f5a612f716010612f84565b6172fb6030611888565b617305602a611888565b6171756024611888565b9050617320614766615be883610b60565b61732c612f7183612f84565b1490811561733c575b50386172de565b61734d9150615be261476691610b60565b61735a612f716004612f84565b1438617335565b90915061737361476661595f83610b60565b61737f612f7184612f84565b14908115617390575b5090386172d7565b6173a19150615be861476691610b60565b6173ae612f716004612f84565b1438617388565b91506173c661476661595f8b610b60565b6173d2612f7183612f84565b1480156173e0575b916172d1565b506173f061476661595f8b610b60565b6173fd612f716004612f84565b146173da565b61741591935061595f61476691610b60565b617422612f716004612f84565b14918c6172ca565b9061743484611a45565b61743d88611a45565b036175dd57906174a0936174939261745b6147668d61476086610b60565b908c60049261746c612f7185612f84565b149485156175b4575b505083617564575b8361750f575b508b836174be575b505050614061565b614db0612f716014612f84565b6174aa6031611888565b6174b4602b611888565b6171756025611888565b829350614b34614766612f71926147606174d89596610b60565b149081156174ea575b5038808b61748b565b6174fb9150615be261476691610b60565b617508612f716005612f84565b14386174e1565b9092506175226147668d61476084610b60565b61752e612f7185612f84565b1490811561753f575b509138617483565b617550915061595f61476691610b60565b61755d612f716005612f84565b1438617537565b92506175766147668d6147608d610b60565b617582612f7183612f84565b148015617590575b9261747d565b506175a16147668d6147608d610b60565b6175ae612f716005612f84565b1461758a565b6175c79295509061476061476692610b60565b6175d4612f716005612f84565b14928c8e617475565b6175e76004611a45565b6175f088611a45565b03617783579061764693614bf49261760e6147668d61476086610b60565b908c60059261761f612f7185612f84565b1494851561775a575b50508361770a575b836176b5575b508b83617664575b50505061410e565b6176506032611888565b61765a602c611888565b6171756026611888565b829350614b34614766612f719261476061767e9596610b60565b14908115617690575b5038808b61763e565b6176a19150615be261476691610b60565b6176ae612f716006612f84565b1438617687565b9092506176c86147668d61476084610b60565b6176d4612f7185612f84565b149081156176e5575b509138617636565b6176f6915061595f61476691610b60565b617703612f716006612f84565b14386176dd565b925061771c6147668d6147608d610b60565b617728612f7183612f84565b148015617736575b92617630565b506177476147668d6147608d610b60565b617754612f716006612f84565b14617730565b61776d9295509061476061476692610b60565b61777a612f716006612f84565b14928c8e617628565b9150506177906005611a45565b61779986611a45565b03617865576177dd916177b1614766615be28c610b60565b906006916177c1612f7184612f84565b149283617841575b8361781b575b50826177fb575b50506141c0565b6177e76033611888565b6177f1602d611888565b6171756027611888565b617813919250614b34614766615be8612f7193610b60565b1438806177d6565b61782d919350615be261476691610b60565b617839612f7183612f84565b1491386177cf565b9250617852614766615be88a610b60565b61785e612f7184612f84565b14926177c9565b60405162461bcd60e51b815260206004820152600c60248201526b77726f6e672052617269747960a01b6044820152606490fd5b61082294939291906000616d4d565b9061080c92916178be613a0f610a07603a611f6e565b9061080c92916178d46128c96128c5601961189b565b61799a565b156178e057565b60405162461bcd60e51b815260206004820152601660248201527522a9219b9918a737b732bc34b9ba32b73a2a37b5b2b760511b6044820152606490fd5b1561792557565b60405162461bcd60e51b815260206004820152600f60248201526e2737ba103a37b5b2b71037bbb732b960891b6044820152606490fd5b1561796357565b60405162461bcd60e51b815260206004820152600f60248201526e496e76616c6964206164647265737360881b6044820152606490fd5b613b3f7f85d07a7616aea29f5d972fd9100b991c224490bd49b737377d908f66f34d9afd936179d06179cb826188a4565b6178d9565b6179e6613afc6128c560066130f4856007611859565b617a0f6179f761312f83600f610b6d565b617a096001600160a01b038616613139565b1461791e565b617a30617a1f610a076000612dce565b6001600160a01b038616141561795c565b617a3b818585618035565b617a46818585613d15565b60405193849384613a73565b9061080c92916178a8565b6108226037613669565b61082291617a8261311492617a7a600090565b506005610e0a565b610e0a565b61080c90617a9761298b336135a8565b61080c90615586565b61080c90617a87565b9050519061080c826109e0565b906020828203126107e75761082291617aa9565b6020617b2991617ad8600090565b50617b027f0000000000000000000000000000000000000000000000000000000000000000610e01565b604051938492839182916315ae5acd60e11b5b835263ffffffff1660048301526024820190565b03915afa90811561398757600091617b3f575090565b610822915060203d602011617b61575b617b598183610c11565b810190617ab6565b503d617b4f565b61080c90617b7c6128c96128c5601961189b565b617bbf565b15617b8857565b60405162461bcd60e51b815260206004820152600f60248201526e1d1c985b9cd9995c8819985a5b1959608a1b6044820152606490fd5b600090617bd16130b4610a0784612dce565b617be2615df961312f83600f610b6d565b6020617c2f617bf660076130d18582611859565b617c008433618567565b617c106133266133266039611f6e565b90617c1a60405190565b9586938492839190630169dc3160e01b616610565b03925af19081156139875761669d613b3f927f65aff8e0552d208dfaf55b1280e55553b7dba628290897ff43c8f086d5dbfd2a94600091617c71575b50617b81565b617c8a915060203d602011613980576139728183610c11565b38617c6b565b61080c90617b68565b610822601d611888565b6108229061898c565b617cb5816189b5565b90617cc3610a076000612dce565b6001600160a01b03831614617cd6575090565b6128b190617ce360405190565b637e27328960e01b81529182916004830190815260200190565b61312f61082291617d0c600090565b506004610b6d565b9160019161080c936189cc565b90617d4b7f0000000000000000000000000000000000000000000000000000000000000000610e01565b91617d5560405190565b6315ae5acd60e11b815263ffffffff8216600482015292602084602481845afa93841561398757600094617ddb575b50617dab91602091617b1586637072b977617d9e60405190565b9687958694859360e01b90565b03925af190811561398757600091617dc257509190565b612126915060203d602011617b6157617b598183610c11565b602091945091617dfa617dab93833d8511617b6157617b598183610c11565b94915091617d84565b90617e61617e10826189b5565b936000617e1c81612dce565b91846001600160a01b0384166001600160a01b03831603617f3d575b50506001600160a01b0382166001600160a01b03871603617f02575b506001600160a01b031690565b6001600160a01b03831603617ed2575b617e8582617e80836002610b6d565b612fef565b617ea0617e9a617e9485610e01565b93610e01565b91610b60565b917fddf252ad1be2c89b69c2b068fc378daa952ba7f163c4a11628f55a4df523b3ef617ecb60405190565b600090a490565b617efd617edf6001610b60565b617ef7617eed856003610e0a565b916109a383611888565b906129a5565b617e71565b617f0e908285816189cc565b617f37617f1b6001610b60565b617ef7617f29886003610e0a565b91617f3383611888565b0390565b38617e54565b617f479188618b08565b3884617e38565b61080c903390618b63565b617f666128c58383616817565b15617fc957617f81600161320f84600061682c86603e613583565b617f95617f8f617e94339390565b91610e01565b917f2f8788117e7eff1d82e926ec794901d17c78024a50270940304540a733656f0d617fc060405190565b600090a4600190565b5050600090565b906131396137b661312f617fe693616c2b600090565b1490565b8015612c10576000190190565b916001600160a01b0360089290920291821b911b61299b565b91906180216108226129bc93610e01565b908354617ff7565b61080c91600091618010565b61080c926180ac61809b6180bb9361809460009661806f61806261669161668c60016130f48b6007611859565b6004613299896007611859565b61808961807d826010610e0a565b617ef76167f082611888565b617e8086600f610b6d565b6010610e0a565b617ef76180a782611888565b617fea565b6180c0836180bb836012610b6d565b618029565b6011610b6d565b6180d18282616817565b15617fc9576180eb600061320f848261682c86603e613583565b6180f9617f8f617e94339390565b917ff6391f5c32d9c69d2a47ea670b442974b53935d1edc7fd64eb21e047a839171b617fc060405190565b1561812b57565b60405162461bcd60e51b815260206004820152601060248201526f52657175657374206e6f74206d61646560801b6044820152606490fd5b9061ff009060081b61299b565b906181806108226129bc92151590565b8254618163565b610822906169ea565b90615800565b906018906181a48383610b6d565b6181ad9061189b565b6181b690618124565b6181c08383610b6d565b6003016181cc90611f6e565b600190816181da8686610b6d565b6181e49190618170565b82826181f08787610b6d565b01906181fb916129a5565b618206906014610e0a565b61820f90611888565b61821a906007611859565b5060020161822790618187565b6182316000610b60565b61823b9082613e3a565b5160ff169061824983610b60565b6182539082613e3a565b5160ff16906182626002610b60565b61826c9082613e3a565b5160ff169061827b6003610b60565b61828491613e3a565b5160ff169161829293618b9b565b929061829d91618190565b906182a790610b60565b6182b09161421e565b6182b991613e20565b51916182c491610b6d565b6002019061080c916129a5565b61080c916182dd613d0d565b91618d0e565b613b3f906108f87ff8e1a15aba9398e019f0b49df1a4fde98ee17ae345cb5f6b5e2c27f5033e8ce793612c4d836006610b6d565b61080c9060015b810190612a63565b90600003611bdb5761080c90618317565b61080c90600161831e565b90600003611bdb5761080c90618337565b9060009161837161836982600052602060002090565b928354612ad0565b905555565b91929060208210156183ce57601f8411600114618398576129bc929350612ad0565b50906183c961080c9360016183c06183b585600052602060002090565b92601f602091010490565b82019101612a63565b618353565b5061840782936183e5600194600052602060002090565b612abf6020601f860104820192601f86168061840f575b50601f602091010490565b600202179055565b61841b90888603614250565b386183fc565b929091600160401b8211610c325760201115618468576020811015618449576129bc91612ad0565b60019160ff191661845f84600052602060002090565b55600202019055565b60019150600202019055565b908154618480816118bb565b908183116184a8575b8183106184965750505050565b61849f93618376565b38808080614327565b6184b483838387618421565b618489565b600061080c91618474565b90600003611bdb5761080c906184b9565b6000600a61080c926184e983808301612a57565b8260018201556184fc8360028301618326565b6185098360038301618342565b6185168360048301612a57565b6185238360058301612a57565b8260068201556185368360078301612a57565b6185438360088301612a57565b61855083600983016184c4565b01612a57565b90600003611bdb5761080c906184d5565b9061858661809b61080c93618094618580856007611859565b90618556565b61859660006180bb83600f610b6d565b6185a660006180bb836012610b6d565b6185b660006180bb836011610b6d565b618d28565b6185c56000611a45565b6185ce82611a45565b146186b1576185dd6001611a45565b6185e682611a45565b146186a6576185f56002611a45565b6185fe82611a45565b1461869b5761860d6003611a45565b61861682611a45565b14618690576186256004611a45565b61862e82611a45565b14618685576186406147ef6005611a45565b1461867b5760405162461bcd60e51b815260206004820152600e60248201526d496e76616c69642072617269747960901b6044820152606490fd5b6108226033611888565b506108226032611888565b506108226031611888565b506108226030611888565b50610822602f611888565b50610822602e611888565b6186c9610a076000612dce565b6001600160a01b0383161461872557618720618716617e94836133268761320f88617a827f17307eab39ab6107e8899845ad3d59bd9653f200f220920489ca2b5937696c31996005610e0a565b9361084860405190565b0390a3565b6128b18261873260405190565b630b61174360e31b8152918291600483016001600160a01b03909116815260200190565b9050519061080c826107ec565b906020828203126107e75761082291618756565b6001600160a01b0391821681529116602082015260408101919091526080606082018190526108229291019061096f565b909291833b6187ba6121266000610b60565b116187c55750505050565b6020916187d461332686610e01565b906000336187fe6187e460405190565b97889687958694630a85bd0160e11b865260048601618777565b03925af160009181618873575b5061884a5750618819613018565b90618822825190565b61882f6121266000610b60565b03618841576128b19061355f60405190565b50805190602001fd5b618864630a85bd0160e11b5b916001600160e01b03191690565b03613552575038808080614327565b61889691925060203d60201161889d575b61888e8183610c11565b810190618763565b903861880b565b503d618884565b61312f6188b391616c2b600090565b6188c3613139610a076000612dce565b141590565b6109a36188e0926020926188da815190565b94859290565b9384910161094c565b6188f79061082293926188c8565b906188c8565b61891d929161080c9161890f60405190565b9485926020840192836188e9565b90810382520383610c11565b61893281617cac565b50618941616c00826006610b6d565b618949618d4b565b80516189586121266000610b60565b1461898657815161896c6121266000610b60565b1161897c57505061082290618d53565b61082292506188fd565b50905090565b637965db0b60e01b6001600160e01b03198216149081156189ab575090565b6108229150618db6565b61312f610822916189c4600090565b506002610b6d565b92919091808115618ae9575b6189ee575b505090617e8061080c926004610b6d565b6189f783617cac565b91618a05610a076000612dce565b6001600160a01b038216141580618acd575b80618aba575b618a89575091617e809161080c9493618a39575b5091926189dd565b618a4290610e01565b618a4b84610e01565b618a5483610b60565b917f8c5be1e5ebec7d5bd14f71427d1e84f3dd0314c0f7b2291e5b200ac8c7c3b925618a7f60405190565b600090a438618a31565b6128b190618a9660405190565b63a9fbf51f60e01b8152918291600483016001600160a01b03909116815260200190565b50618ac86128c58285617a67565b618a1d565b506001600160a01b0381166001600160a01b0384161415618a17565b50618af7610a076000612dce565b6001600160a01b03831614156189d8565b618b166128c5848484618de2565b618b1f57505050565b618b2f613139610a076000612dce565b03618b41576128b182617ce360405190565b6128b1618b4d60405190565b63177e802f60e01b815292839260048401613881565b90618b716128c58284616817565b618b79575050565b6128b1618b8560405190565b63e2517d3f60e01b815292839260048401613881565b9093929091600092618bcc618baf85610b60565b93615ea2600794615ea2618bc461471b885490565b9a8896612f69565b95835b618bda610822855490565b811015618cc257618c42618c0e618bfa61316689600261315f878b611859565b6131946131666001600261315f888c611859565b6131946131666003618c376002618c25888c611859565b50019461319461316660028098612f48565b9361315f878b611859565b618c4e60ff8a16612f71565b1080618c9d575b618c67575b600101618bcf565b618bcf565b9391618c95618c8e618c62926132de618c848a6130d18b8b611859565b6167ed8388613e20565b9360010190565b949050618c5a565b50618cac61312f82600f610b6d565b618cbc613139610a076039611f6e565b14618c55565b50939550505091618cdb618cd584613dfd565b94610b60565b83811015618d0657806132de618cf7615def618d019487613e20565b6167ed8389613e20565b618cdb565b509190509190565b9061080c9291618d1e8282618e6a565b616c176000612dce565b618d326000612dce565b618d436131396137b6838581617e03565b14617cd65750565b610822613d0d565b618d5c81617cac565b50618d65618d4b565b8051618d746121266000610b60565b1115618d8c57618d8661082292618f12565b906188fd565b5050610822613d0d565b61129f618da36108229290565b60e01b90565b6108226349064906618d96565b618dc161129f618da9565b6001600160e01b0319821614908115618dd8575090565b6108229150618fa4565b90618df0610a076000612dce565b6001600160a01b03821614159283618e09575b50505090565b919250906001600160a01b0382166001600160a01b03841614928315618e56575b508215618e3c575b5050388080618e03565b618e4e9192506137b661313991617cfd565b143880618e32565b618e639193508290617a67565b9138618e2a565b90618e756000612dce565b916001600160a01b0383166001600160a01b03821614618ee557618e9a918391617e03565b618eac6001600160a01b038316613139565b03618eb45750565b6128b190618ec160405190565b6339e3563760e11b8152918291600483016001600160a01b03909116815260200190565b6128b18361355f60405190565b9061080c613e13618f0284613006565b93610c4b565b811561580b570490565b618f1b81618fef565b90618f2c6001926109a36001610b60565b9180618f3784618ef2565b936020018401905b618f495750505090565b8115618f9f57618f839060001901926f181899199a1a9b1b9c1cb0b131b232b360811b600a82061a8453618f7d600a610b60565b90618f08565b9081618f926121266000610b60565b14618f9f57909181618f3f565b618e03565b6380ac58cd60e01b6001600160e01b0319821614908115618fd4575b8115618fca575090565b6108229150619191565b6001600160e01b03198116635b5e139f60e01b149150618fc0565b618ff96000610b60565b907a184f03e93ff9f4daa797ed6e38ed64bf6a1f01000000000000000061901f81610b60565b82101561916f575b506d04ee2d6d415b85acef810000000061904081610b60565b82101561914d575b50662386f26fc1000061905a81610b60565b82101561912b575b506305f5e10061907181610b60565b821015619109575b5061271061908681610b60565b8210156190e7575b506190996064610b60565b8110156190c5575b6190ae612126600a610b60565b10156190b75790565b610822906109a36001610b60565b6190d66190e191618f7d6064610b60565b916109a36002610b60565b906190a1565b61910291618f7d6190f792610b60565b916109a36004610b60565b903861908e565b61912491618f7d61911992610b60565b916109a36008610b60565b9038619079565b61914691618f7d61913b92610b60565b916109a36010610b60565b9038619062565b61916891618f7d61915d92610b60565b916109a36020610b60565b9038619048565b61918a91618f7d61917f92610b60565b916109a36040610b60565b9038619027565b617fe66301ffc9a760e01b61885656fe47538340716ce4ea460b03ab331ade0bc77d177abe31d6e8e6cdbc159b7e035906aa03964db1f7257357ef09714a5f0ca3633723df419e97015e0c7a3e83edb7a26469706673582212205a09460c2274cbabaa8fb203d04f6cc49c0ec260ca127cf9ddab825179d811ea64736f6c63430008170033",
    "linkReferences": {}
  },
  "methodIdentifiers": {
    "CALLBACK_GAS_LIMIT()": "33d608f1",
    "CommonGemsCooldownPeriod()": "77f7e499",
    "CommonGemsMiningPeriod()": "c4d2fcae",
    "CommonGemsValue()": "58bf3e65",
    "CommonMiningFees()": "4f557d27",
    "DEFAULT_ADMIN_ROLE()": "a217fddf",
    "EpicGemsCooldownPeriod()": "efa2cc29",
    "EpicGemsMiningPeriod()": "5bbffab6",
    "EpicGemsValue()": "038a7e05",
    "EpicMiningFees()": "ce8ab5df",
    "GEMIndexToApproved(uint256)": "384c252f",
    "GEMIndexToOwner(uint256)": "97125c40",
    "Gems(uint256)": "61f7f6d7",
    "L1StakingIndex()": "d8f573cd",
    "LegendaryGemsCooldownPeriod()": "8fddb065",
    "LegendaryGemsMiningPeriod()": "d7a46495",
    "LegendaryGemsValue()": "a0b2d41b",
    "LegendaryMiningFees()": "dffdae02",
    "MythicGemsCooldownPeriod()": "e4b7fddf",
    "MythicGemsMiningPeriod()": "139b63f3",
    "MythicGemsValue()": "3fb310a5",
    "MythicMiningFees()": "b211d958",
    "PAUSE_ROLE()": "389ed267",
    "RareGemsCooldownPeriod()": "b78417b0",
    "RareGemsMiningPeriod()": "0de32a97",
    "RareGemsValue()": "f66f9e34",
    "RareMiningFees()": "91490c4b",
    "TREASURY_ROLE()": "d11a57ec",
    "UniqueGemsCooldownPeriod()": "1885cbbe",
    "UniqueGemsMiningPeriod()": "04e41a0b",
    "UniqueGemsValue()": "18898f36",
    "UniqueMiningFees()": "adf8627e",
    "addAdmin(address)": "70480275",
    "addBackgroundColor(string)": "1d0e0aac",
    "addColor(string)": "15341f2b",
    "addMinter(address)": "983b2d56",
    "adminTransferGEM(address,uint256)": "33158058",
    "aliveImplementation(address)": "550d01a3",
    "approve(address,uint256)": "095ea7b3",
    "backgroundColors(uint256)": "a8ce886e",
    "balanceOf(address)": "70a08231",
    "claimMinedGEM(uint256)": "7fe6fde5",
    "colors(uint256)": "bd11f69d",
    "createGEM(uint8,uint8[2],uint256,uint8[4],string)": "d6492bb1",
    "createGEMPool(uint8[],uint8[2][],uint256[],uint8[4][],string[])": "5b310aee",
    "customBackgroundColors(uint8)": "ecc5e06f",
    "customBackgroundColorsCount()": "0922f513",
    "customColors(uint8)": "6b1a96fa",
    "customColorsCount()": "034294f8",
    "estimatedStakingIndexIncreaseRate()": "1d3392e2",
    "forgeTokens(uint256[],uint256,uint8,uint8[2])": "7d7a5477",
    "gemAllowedToAddress(uint256)": "119868bb",
    "getApproved(uint256)": "081812fc",
    "getCalculatedDirectFundingPrice(uint32)": "f5494bb9",
    "getCommonMiningFees()": "629296c5",
    "getCustomColor(uint8)": "aff2a463",
    "getGem(uint256)": "aa723bb7",
    "getRareMiningFees()": "fed7b27a",
    "getRoleAdmin(bytes32)": "248a9ca3",
    "getTon()": "2bbbe94d",
    "getTreasury()": "3b19e84a",
    "getUniqueMiningFees()": "8ba24af0",
    "getWston()": "e7a523c0",
    "grantRole(bytes32,address)": "2f2ff15d",
    "hasRole(bytes32,address)": "91d14854",
    "initialize(address,address,address,uint256,uint256,uint256,uint256,uint256,uint256,uint256,uint256,uint256,uint256,uint256,uint256)": "3189983f",
    "isAdmin(address)": "24d7806c",
    "isApprovedForAll(address,address)": "e985e9c5",
    "isMinter(address)": "aa271e1a",
    "isOwner()": "8f32d59b",
    "isTokenLocked(uint256)": "276a28a3",
    "isUserMining(address)": "205fb1f8",
    "lastRequestId()": "fc2a88c3",
    "marketplace()": "abc8c7af",
    "meltGEM(uint256)": "f99a6bb5",
    "name()": "06fdde03",
    "numberOfSolidColors()": "724188bc",
    "ownerOf(uint256)": "6352211e",
    "ownerOfGEM(uint256)": "bd81009f",
    "ownershipTokenCount(address)": "cec21acb",
    "pause()": "8456cb59",
    "pauseProxy()": "63a8fd89",
    "paused()": "5c975abb",
    "preMintedGemsAvailable()": "c28fb6b7",
    "proxyImplementation(uint256)": "b911135f",
    "rawFulfillRandomWords(uint256,uint256)": "37ed11db",
    "removeAdmin(address)": "1785f53c",
    "removeMinter(address)": "3092afd5",
    "renounceMinter()": "98650275",
    "renounceOwnership()": "715018a6",
    "renounceRole(bytes32,address)": "36568abe",
    "requestCount()": "5badbe4c",
    "requestIds(uint256)": "8796ba8c",
    "revokeMinter(address)": "cfbd4885",
    "revokeRole(bytes32,address)": "d547741f",
    "s_requests(uint256)": "a168fa89",
    "safeTransferFrom(address,address,uint256)": "42842e0e",
    "safeTransferFrom(address,address,uint256,bytes)": "b88d4fde",
    "selectorImplementation(bytes4)": "50d2a276",
    "setApprovalForAll(address,bool)": "a22cb465",
    "setApprovalForMarketplace()": "0491fd3e",
    "setGemsCooldownPeriods(uint256,uint256,uint256,uint256,uint256,uint256)": "ad0d3d3f",
    "setGemsMiningPeriods(uint256,uint256,uint256,uint256,uint256,uint256)": "0c7254a0",
    "setIsLocked(uint256,bool)": "4d723a75",
    "setMarketPlaceAddress(address)": "cc98ef96",
    "setNumberOfSolidColors(uint8)": "9a66af62",
    "startMiningGEM(uint256)": "1da0fc9c",
    "supportsInterface(bytes4)": "01ffc9a7",
    "symbol()": "95d89b41",
    "tokenMiningByUser(address)": "c1389072",
    "tokenReadyToMine(uint256)": "7866369b",
    "tokenURI(uint256)": "c87b56dd",
    "tokensOfOwner(address)": "8462151c",
    "ton()": "cc48b947",
    "totalSupply()": "18160ddd",
    "transferAdmin(address)": "75829def",
    "transferFrom(address,address,uint256)": "23b872dd",
    "transferGEM(address,uint256)": "337d54a1",
    "transferGEMFrom(address,address,uint256)": "d6bb7ba0",
    "transferOwnership(address)": "f2fde38b",
    "treasury()": "61d027b3",
    "unpause()": "3f4ba83a",
    "userMiningStartTime(address,uint256)": "676f79f1",
    "userMiningToken(address,uint256)": "a1770a7d",
    "wston()": "36b17e13"
  },
  "id": 54
}