{
  "abi": [
    {
      "type": "constructor",
      "inputs": [
        {
          "name": "coordinator",
          "type": "address",
          "internalType": "address"
        }
      ],
      "stateMutability": "nonpayable"
    },
    {
      "type": "function",
      "name": "CALLBACK_GAS_LIMIT",
      "inputs": [],
      "outputs": [
        {
          "name": "",
          "type": "uint32",
          "internalType": "uint32"
        }
      ],
      "stateMutability": "view"
    },
    {
      "type": "function",
      "name": "CommonGemsCooldownPeriod",
      "inputs": [],
      "outputs": [
        {
          "name": "",
          "type": "uint256",
          "internalType": "uint256"
        }
      ],
      "stateMutability": "view"
    },
    {
      "type": "function",
      "name": "CommonGemsMiningPeriod",
      "inputs": [],
      "outputs": [
        {
          "name": "",
          "type": "uint256",
          "internalType": "uint256"
        }
      ],
      "stateMutability": "view"
    },
    {
      "type": "function",
      "name": "CommonGemsValue",
      "inputs": [],
      "outputs": [
        {
          "name": "",
          "type": "uint256",
          "internalType": "uint256"
        }
      ],
      "stateMutability": "view"
    },
    {
      "type": "function",
      "name": "CommonminingTry",
      "inputs": [],
      "outputs": [
        {
          "name": "",
          "type": "uint256",
          "internalType": "uint256"
        }
      ],
      "stateMutability": "view"
    },
    {
      "type": "function",
      "name": "DEFAULT_ADMIN_ROLE",
      "inputs": [],
      "outputs": [
        {
          "name": "",
          "type": "bytes32",
          "internalType": "bytes32"
        }
      ],
      "stateMutability": "view"
    },
    {
      "type": "function",
      "name": "EpicGemsCooldownPeriod",
      "inputs": [],
      "outputs": [
        {
          "name": "",
          "type": "uint256",
          "internalType": "uint256"
        }
      ],
      "stateMutability": "view"
    },
    {
      "type": "function",
      "name": "EpicGemsMiningPeriod",
      "inputs": [],
      "outputs": [
        {
          "name": "",
          "type": "uint256",
          "internalType": "uint256"
        }
      ],
      "stateMutability": "view"
    },
    {
      "type": "function",
      "name": "EpicGemsValue",
      "inputs": [],
      "outputs": [
        {
          "name": "",
          "type": "uint256",
          "internalType": "uint256"
        }
      ],
      "stateMutability": "view"
    },
    {
      "type": "function",
      "name": "EpicminingTry",
      "inputs": [],
      "outputs": [
        {
          "name": "",
          "type": "uint256",
          "internalType": "uint256"
        }
      ],
      "stateMutability": "view"
    },
    {
      "type": "function",
      "name": "GEMIndexToOwner",
      "inputs": [
        {
          "name": "",
          "type": "uint256",
          "internalType": "uint256"
        }
      ],
      "outputs": [
        {
          "name": "",
          "type": "address",
          "internalType": "address"
        }
      ],
      "stateMutability": "view"
    },
    {
      "type": "function",
      "name": "Gems",
      "inputs": [
        {
          "name": "",
          "type": "uint256",
          "internalType": "uint256"
        }
      ],
      "outputs": [
        {
          "name": "tokenId",
          "type": "uint256",
          "internalType": "uint256"
        },
        {
          "name": "rarity",
          "type": "uint8",
          "internalType": "enum GemFactoryStorage.Rarity"
        },
        {
          "name": "gemCooldownPeriod",
          "type": "uint256",
          "internalType": "uint256"
        },
        {
          "name": "miningPeriod",
          "type": "uint256",
          "internalType": "uint256"
        },
        {
          "name": "miningTry",
          "type": "uint256",
          "internalType": "uint256"
        },
        {
          "name": "isLocked",
          "type": "bool",
          "internalType": "bool"
        },
        {
          "name": "value",
          "type": "uint256",
          "internalType": "uint256"
        },
        {
          "name": "tokenURI",
          "type": "string",
          "internalType": "string"
        },
        {
          "name": "randomRequestId",
          "type": "uint256",
          "internalType": "uint256"
        }
      ],
      "stateMutability": "view"
    },
    {
      "type": "function",
      "name": "LegendaryGemsCooldownPeriod",
      "inputs": [],
      "outputs": [
        {
          "name": "",
          "type": "uint256",
          "internalType": "uint256"
        }
      ],
      "stateMutability": "view"
    },
    {
      "type": "function",
      "name": "LegendaryGemsMiningPeriod",
      "inputs": [],
      "outputs": [
        {
          "name": "",
          "type": "uint256",
          "internalType": "uint256"
        }
      ],
      "stateMutability": "view"
    },
    {
      "type": "function",
      "name": "LegendaryGemsValue",
      "inputs": [],
      "outputs": [
        {
          "name": "",
          "type": "uint256",
          "internalType": "uint256"
        }
      ],
      "stateMutability": "view"
    },
    {
      "type": "function",
      "name": "LegendaryminingTry",
      "inputs": [],
      "outputs": [
        {
          "name": "",
          "type": "uint256",
          "internalType": "uint256"
        }
      ],
      "stateMutability": "view"
    },
    {
      "type": "function",
      "name": "MythicGemsCooldownPeriod",
      "inputs": [],
      "outputs": [
        {
          "name": "",
          "type": "uint256",
          "internalType": "uint256"
        }
      ],
      "stateMutability": "view"
    },
    {
      "type": "function",
      "name": "MythicGemsMiningPeriod",
      "inputs": [],
      "outputs": [
        {
          "name": "",
          "type": "uint256",
          "internalType": "uint256"
        }
      ],
      "stateMutability": "view"
    },
    {
      "type": "function",
      "name": "MythicGemsValue",
      "inputs": [],
      "outputs": [
        {
          "name": "",
          "type": "uint256",
          "internalType": "uint256"
        }
      ],
      "stateMutability": "view"
    },
    {
      "type": "function",
      "name": "MythicminingTry",
      "inputs": [],
      "outputs": [
        {
          "name": "",
          "type": "uint256",
          "internalType": "uint256"
        }
      ],
      "stateMutability": "view"
    },
    {
      "type": "function",
      "name": "PAUSE_ROLE",
      "inputs": [],
      "outputs": [
        {
          "name": "",
          "type": "bytes32",
          "internalType": "bytes32"
        }
      ],
      "stateMutability": "view"
    },
    {
      "type": "function",
      "name": "RareGemsCooldownPeriod",
      "inputs": [],
      "outputs": [
        {
          "name": "",
          "type": "uint256",
          "internalType": "uint256"
        }
      ],
      "stateMutability": "view"
    },
    {
      "type": "function",
      "name": "RareGemsMiningPeriod",
      "inputs": [],
      "outputs": [
        {
          "name": "",
          "type": "uint256",
          "internalType": "uint256"
        }
      ],
      "stateMutability": "view"
    },
    {
      "type": "function",
      "name": "RareGemsValue",
      "inputs": [],
      "outputs": [
        {
          "name": "",
          "type": "uint256",
          "internalType": "uint256"
        }
      ],
      "stateMutability": "view"
    },
    {
      "type": "function",
      "name": "RareminingTry",
      "inputs": [],
      "outputs": [
        {
          "name": "",
          "type": "uint256",
          "internalType": "uint256"
        }
      ],
      "stateMutability": "view"
    },
    {
      "type": "function",
      "name": "TREASURY_ROLE",
      "inputs": [],
      "outputs": [
        {
          "name": "",
          "type": "bytes32",
          "internalType": "bytes32"
        }
      ],
      "stateMutability": "view"
    },
    {
      "type": "function",
      "name": "UniqueGemsCooldownPeriod",
      "inputs": [],
      "outputs": [
        {
          "name": "",
          "type": "uint256",
          "internalType": "uint256"
        }
      ],
      "stateMutability": "view"
    },
    {
      "type": "function",
      "name": "UniqueGemsMiningPeriod",
      "inputs": [],
      "outputs": [
        {
          "name": "",
          "type": "uint256",
          "internalType": "uint256"
        }
      ],
      "stateMutability": "view"
    },
    {
      "type": "function",
      "name": "UniqueGemsValue",
      "inputs": [],
      "outputs": [
        {
          "name": "",
          "type": "uint256",
          "internalType": "uint256"
        }
      ],
      "stateMutability": "view"
    },
    {
      "type": "function",
      "name": "UniqueminingTry",
      "inputs": [],
      "outputs": [
        {
          "name": "",
          "type": "uint256",
          "internalType": "uint256"
        }
      ],
      "stateMutability": "view"
    },
    {
      "type": "function",
      "name": "addAdmin",
      "inputs": [
        {
          "name": "account",
          "type": "address",
          "internalType": "address"
        }
      ],
      "outputs": [],
      "stateMutability": "nonpayable"
    },
    {
      "type": "function",
      "name": "addBackgroundColor",
      "inputs": [
        {
          "name": "_backgroundColor",
          "type": "string",
          "internalType": "string"
        }
      ],
      "outputs": [],
      "stateMutability": "nonpayable"
    },
    {
      "type": "function",
      "name": "addColor",
      "inputs": [
        {
          "name": "_color",
          "type": "string",
          "internalType": "string"
        }
      ],
      "outputs": [],
      "stateMutability": "nonpayable"
    },
    {
      "type": "function",
      "name": "addMinter",
      "inputs": [
        {
          "name": "account",
          "type": "address",
          "internalType": "address"
        }
      ],
      "outputs": [],
      "stateMutability": "nonpayable"
    },
    {
      "type": "function",
      "name": "adminTransferGEM",
      "inputs": [
        {
          "name": "_to",
          "type": "address",
          "internalType": "address"
        },
        {
          "name": "_tokenId",
          "type": "uint256",
          "internalType": "uint256"
        }
      ],
      "outputs": [
        {
          "name": "",
          "type": "bool",
          "internalType": "bool"
        }
      ],
      "stateMutability": "nonpayable"
    },
    {
      "type": "function",
      "name": "aliveImplementation",
      "inputs": [
        {
          "name": "",
          "type": "address",
          "internalType": "address"
        }
      ],
      "outputs": [
        {
          "name": "",
          "type": "bool",
          "internalType": "bool"
        }
      ],
      "stateMutability": "view"
    },
    {
      "type": "function",
      "name": "approve",
      "inputs": [
        {
          "name": "to",
          "type": "address",
          "internalType": "address"
        },
        {
          "name": "tokenId",
          "type": "uint256",
          "internalType": "uint256"
        }
      ],
      "outputs": [],
      "stateMutability": "nonpayable"
    },
    {
      "type": "function",
      "name": "backgroundColors",
      "inputs": [
        {
          "name": "",
          "type": "uint256",
          "internalType": "uint256"
        }
      ],
      "outputs": [
        {
          "name": "",
          "type": "string",
          "internalType": "string"
        }
      ],
      "stateMutability": "view"
    },
    {
      "type": "function",
      "name": "balanceOf",
      "inputs": [
        {
          "name": "_owner",
          "type": "address",
          "internalType": "address"
        }
      ],
      "outputs": [
        {
          "name": "count",
          "type": "uint256",
          "internalType": "uint256"
        }
      ],
      "stateMutability": "view"
    },
    {
      "type": "function",
      "name": "cancelMining",
      "inputs": [
        {
          "name": "_tokenId",
          "type": "uint256",
          "internalType": "uint256"
        }
      ],
      "outputs": [
        {
          "name": "",
          "type": "bool",
          "internalType": "bool"
        }
      ],
      "stateMutability": "nonpayable"
    },
    {
      "type": "function",
      "name": "claimMinedGEM",
      "inputs": [
        {
          "name": "_tokenId",
          "type": "uint256",
          "internalType": "uint256"
        }
      ],
      "outputs": [
        {
          "name": "",
          "type": "bool",
          "internalType": "bool"
        }
      ],
      "stateMutability": "nonpayable"
    },
    {
      "type": "function",
      "name": "colors",
      "inputs": [
        {
          "name": "",
          "type": "uint256",
          "internalType": "uint256"
        }
      ],
      "outputs": [
        {
          "name": "",
          "type": "string",
          "internalType": "string"
        }
      ],
      "stateMutability": "view"
    },
    {
      "type": "function",
      "name": "createGEM",
      "inputs": [
        {
          "name": "_rarity",
          "type": "uint8",
          "internalType": "enum GemFactoryStorage.Rarity"
        },
        {
          "name": "_color",
          "type": "uint8[2]",
          "internalType": "uint8[2]"
        },
        {
          "name": "_quadrants",
          "type": "uint8[4]",
          "internalType": "uint8[4]"
        },
        {
          "name": "_tokenURI",
          "type": "string",
          "internalType": "string"
        }
      ],
      "outputs": [
        {
          "name": "",
          "type": "uint256",
          "internalType": "uint256"
        }
      ],
      "stateMutability": "nonpayable"
    },
    {
      "type": "function",
      "name": "createGEMPool",
      "inputs": [
        {
          "name": "_rarities",
          "type": "uint8[]",
          "internalType": "enum GemFactoryStorage.Rarity[]"
        },
        {
          "name": "_colors",
          "type": "uint8[2][]",
          "internalType": "uint8[2][]"
        },
        {
          "name": "_quadrants",
          "type": "uint8[4][]",
          "internalType": "uint8[4][]"
        },
        {
          "name": "_tokenURIs",
          "type": "string[]",
          "internalType": "string[]"
        }
      ],
      "outputs": [
        {
          "name": "",
          "type": "uint256[]",
          "internalType": "uint256[]"
        }
      ],
      "stateMutability": "nonpayable"
    },
    {
      "type": "function",
      "name": "customBackgroundColors",
      "inputs": [
        {
          "name": "",
          "type": "uint8",
          "internalType": "uint8"
        }
      ],
      "outputs": [
        {
          "name": "",
          "type": "string",
          "internalType": "string"
        }
      ],
      "stateMutability": "view"
    },
    {
      "type": "function",
      "name": "customBackgroundColorsCount",
      "inputs": [],
      "outputs": [
        {
          "name": "",
          "type": "uint8",
          "internalType": "uint8"
        }
      ],
      "stateMutability": "view"
    },
    {
      "type": "function",
      "name": "customColors",
      "inputs": [
        {
          "name": "",
          "type": "uint8",
          "internalType": "uint8"
        }
      ],
      "outputs": [
        {
          "name": "",
          "type": "string",
          "internalType": "string"
        }
      ],
      "stateMutability": "view"
    },
    {
      "type": "function",
      "name": "customColorsCount",
      "inputs": [],
      "outputs": [
        {
          "name": "",
          "type": "uint8",
          "internalType": "uint8"
        }
      ],
      "stateMutability": "view"
    },
    {
      "type": "function",
      "name": "drbcoordinator",
      "inputs": [],
      "outputs": [
        {
          "name": "",
          "type": "address",
          "internalType": "address"
        }
      ],
      "stateMutability": "view"
    },
    {
      "type": "function",
      "name": "forgeTokens",
      "inputs": [
        {
          "name": "_tokenIds",
          "type": "uint256[]",
          "internalType": "uint256[]"
        },
        {
          "name": "_rarity",
          "type": "uint8",
          "internalType": "enum GemFactoryStorage.Rarity"
        },
        {
          "name": "_color",
          "type": "uint8[2]",
          "internalType": "uint8[2]"
        }
      ],
      "outputs": [
        {
          "name": "newGemId",
          "type": "uint256",
          "internalType": "uint256"
        }
      ],
      "stateMutability": "nonpayable"
    },
    {
      "type": "function",
      "name": "getApproved",
      "inputs": [
        {
          "name": "tokenId",
          "type": "uint256",
          "internalType": "uint256"
        }
      ],
      "outputs": [
        {
          "name": "",
          "type": "address",
          "internalType": "address"
        }
      ],
      "stateMutability": "view"
    },
    {
      "type": "function",
      "name": "getCommonValue",
      "inputs": [],
      "outputs": [
        {
          "name": "",
          "type": "uint256",
          "internalType": "uint256"
        }
      ],
      "stateMutability": "view"
    },
    {
      "type": "function",
      "name": "getCommonminingTry",
      "inputs": [],
      "outputs": [
        {
          "name": "",
          "type": "uint256",
          "internalType": "uint256"
        }
      ],
      "stateMutability": "view"
    },
    {
      "type": "function",
      "name": "getCustomColor",
      "inputs": [
        {
          "name": "_index",
          "type": "uint8",
          "internalType": "uint8"
        }
      ],
      "outputs": [
        {
          "name": "",
          "type": "string",
          "internalType": "string"
        }
      ],
      "stateMutability": "view"
    },
    {
      "type": "function",
      "name": "getEpicValue",
      "inputs": [],
      "outputs": [
        {
          "name": "",
          "type": "uint256",
          "internalType": "uint256"
        }
      ],
      "stateMutability": "view"
    },
    {
      "type": "function",
      "name": "getEpicminingTry",
      "inputs": [],
      "outputs": [
        {
          "name": "",
          "type": "uint256",
          "internalType": "uint256"
        }
      ],
      "stateMutability": "view"
    },
    {
      "type": "function",
      "name": "getGem",
      "inputs": [
        {
          "name": "_tokenId",
          "type": "uint256",
          "internalType": "uint256"
        }
      ],
      "outputs": [
        {
          "name": "",
          "type": "tuple",
          "internalType": "struct GemFactoryStorage.Gem",
          "components": [
            {
              "name": "tokenId",
              "type": "uint256",
              "internalType": "uint256"
            },
            {
              "name": "rarity",
              "type": "uint8",
              "internalType": "enum GemFactoryStorage.Rarity"
            },
            {
              "name": "quadrants",
              "type": "uint8[4]",
              "internalType": "uint8[4]"
            },
            {
              "name": "color",
              "type": "uint8[2]",
              "internalType": "uint8[2]"
            },
            {
              "name": "gemCooldownPeriod",
              "type": "uint256",
              "internalType": "uint256"
            },
            {
              "name": "miningPeriod",
              "type": "uint256",
              "internalType": "uint256"
            },
            {
              "name": "miningTry",
              "type": "uint256",
              "internalType": "uint256"
            },
            {
              "name": "isLocked",
              "type": "bool",
              "internalType": "bool"
            },
            {
              "name": "value",
              "type": "uint256",
              "internalType": "uint256"
            },
            {
              "name": "tokenURI",
              "type": "string",
              "internalType": "string"
            },
            {
              "name": "randomRequestId",
              "type": "uint256",
              "internalType": "uint256"
            }
          ]
        }
      ],
      "stateMutability": "view"
    },
    {
      "type": "function",
      "name": "getIsUserMining",
      "inputs": [
        {
          "name": "_user",
          "type": "address",
          "internalType": "address"
        }
      ],
      "outputs": [
        {
          "name": "",
          "type": "bool",
          "internalType": "bool"
        }
      ],
      "stateMutability": "view"
    },
    {
      "type": "function",
      "name": "getLegendaryValue",
      "inputs": [],
      "outputs": [
        {
          "name": "",
          "type": "uint256",
          "internalType": "uint256"
        }
      ],
      "stateMutability": "view"
    },
    {
      "type": "function",
      "name": "getLegendaryminingTry",
      "inputs": [],
      "outputs": [
        {
          "name": "",
          "type": "uint256",
          "internalType": "uint256"
        }
      ],
      "stateMutability": "view"
    },
    {
      "type": "function",
      "name": "getMythicValue",
      "inputs": [],
      "outputs": [
        {
          "name": "",
          "type": "uint256",
          "internalType": "uint256"
        }
      ],
      "stateMutability": "view"
    },
    {
      "type": "function",
      "name": "getMythicminingTry",
      "inputs": [],
      "outputs": [
        {
          "name": "",
          "type": "uint256",
          "internalType": "uint256"
        }
      ],
      "stateMutability": "view"
    },
    {
      "type": "function",
      "name": "getRandomRequest",
      "inputs": [
        {
          "name": "_requestId",
          "type": "uint256",
          "internalType": "uint256"
        }
      ],
      "outputs": [
        {
          "name": "",
          "type": "tuple",
          "internalType": "struct GemFactoryStorage.RequestStatus",
          "components": [
            {
              "name": "tokenId",
              "type": "uint256",
              "internalType": "uint256"
            },
            {
              "name": "requested",
              "type": "bool",
              "internalType": "bool"
            },
            {
              "name": "fulfilled",
              "type": "bool",
              "internalType": "bool"
            },
            {
              "name": "randomWord",
              "type": "uint256",
              "internalType": "uint256"
            },
            {
              "name": "chosenTokenId",
              "type": "uint256",
              "internalType": "uint256"
            },
            {
              "name": "requester",
              "type": "address",
              "internalType": "address"
            }
          ]
        }
      ],
      "stateMutability": "view"
    },
    {
      "type": "function",
      "name": "getRareValue",
      "inputs": [],
      "outputs": [
        {
          "name": "",
          "type": "uint256",
          "internalType": "uint256"
        }
      ],
      "stateMutability": "view"
    },
    {
      "type": "function",
      "name": "getRareminingTry",
      "inputs": [],
      "outputs": [
        {
          "name": "",
          "type": "uint256",
          "internalType": "uint256"
        }
      ],
      "stateMutability": "view"
    },
    {
      "type": "function",
      "name": "getRoleAdmin",
      "inputs": [
        {
          "name": "role",
          "type": "bytes32",
          "internalType": "bytes32"
        }
      ],
      "outputs": [
        {
          "name": "",
          "type": "bytes32",
          "internalType": "bytes32"
        }
      ],
      "stateMutability": "view"
    },
    {
      "type": "function",
      "name": "getTon",
      "inputs": [],
      "outputs": [
        {
          "name": "",
          "type": "address",
          "internalType": "address"
        }
      ],
      "stateMutability": "view"
    },
    {
      "type": "function",
      "name": "getTreasury",
      "inputs": [],
      "outputs": [
        {
          "name": "",
          "type": "address",
          "internalType": "address"
        }
      ],
      "stateMutability": "view"
    },
    {
      "type": "function",
      "name": "getUniqueValue",
      "inputs": [],
      "outputs": [
        {
          "name": "",
          "type": "uint256",
          "internalType": "uint256"
        }
      ],
      "stateMutability": "view"
    },
    {
      "type": "function",
      "name": "getUniqueminingTry",
      "inputs": [],
      "outputs": [
        {
          "name": "",
          "type": "uint256",
          "internalType": "uint256"
        }
      ],
      "stateMutability": "view"
    },
    {
      "type": "function",
      "name": "getWston",
      "inputs": [],
      "outputs": [
        {
          "name": "",
          "type": "address",
          "internalType": "address"
        }
      ],
      "stateMutability": "view"
    },
    {
      "type": "function",
      "name": "grantRole",
      "inputs": [
        {
          "name": "role",
          "type": "bytes32",
          "internalType": "bytes32"
        },
        {
          "name": "account",
          "type": "address",
          "internalType": "address"
        }
      ],
      "outputs": [],
      "stateMutability": "nonpayable"
    },
    {
      "type": "function",
      "name": "hasRole",
      "inputs": [
        {
          "name": "role",
          "type": "bytes32",
          "internalType": "bytes32"
        },
        {
          "name": "account",
          "type": "address",
          "internalType": "address"
        }
      ],
      "outputs": [
        {
          "name": "",
          "type": "bool",
          "internalType": "bool"
        }
      ],
      "stateMutability": "view"
    },
    {
      "type": "function",
      "name": "initialize",
      "inputs": [
        {
          "name": "_wston",
          "type": "address",
          "internalType": "address"
        },
        {
          "name": "_ton",
          "type": "address",
          "internalType": "address"
        },
        {
          "name": "_treasury",
          "type": "address",
          "internalType": "address"
        },
        {
          "name": "_CommonGemsValue",
          "type": "uint256",
          "internalType": "uint256"
        },
        {
          "name": "_RareGemsValue",
          "type": "uint256",
          "internalType": "uint256"
        },
        {
          "name": "_UniqueGemsValue",
          "type": "uint256",
          "internalType": "uint256"
        },
        {
          "name": "_EpicGemsValue",
          "type": "uint256",
          "internalType": "uint256"
        },
        {
          "name": "_LegendaryGemsValue",
          "type": "uint256",
          "internalType": "uint256"
        },
        {
          "name": "_MythicGemsValue",
          "type": "uint256",
          "internalType": "uint256"
        }
      ],
      "outputs": [],
      "stateMutability": "nonpayable"
    },
    {
      "type": "function",
      "name": "isAdmin",
      "inputs": [
        {
          "name": "account",
          "type": "address",
          "internalType": "address"
        }
      ],
      "outputs": [
        {
          "name": "",
          "type": "bool",
          "internalType": "bool"
        }
      ],
      "stateMutability": "view"
    },
    {
      "type": "function",
      "name": "isApprovedForAll",
      "inputs": [
        {
          "name": "owner",
          "type": "address",
          "internalType": "address"
        },
        {
          "name": "operator",
          "type": "address",
          "internalType": "address"
        }
      ],
      "outputs": [
        {
          "name": "",
          "type": "bool",
          "internalType": "bool"
        }
      ],
      "stateMutability": "view"
    },
    {
      "type": "function",
      "name": "isMinter",
      "inputs": [
        {
          "name": "account",
          "type": "address",
          "internalType": "address"
        }
      ],
      "outputs": [
        {
          "name": "",
          "type": "bool",
          "internalType": "bool"
        }
      ],
      "stateMutability": "view"
    },
    {
      "type": "function",
      "name": "isOwner",
      "inputs": [],
      "outputs": [
        {
          "name": "",
          "type": "bool",
          "internalType": "bool"
        }
      ],
      "stateMutability": "view"
    },
    {
      "type": "function",
      "name": "isTokenLocked",
      "inputs": [
        {
          "name": "_tokenId",
          "type": "uint256",
          "internalType": "uint256"
        }
      ],
      "outputs": [
        {
          "name": "",
          "type": "bool",
          "internalType": "bool"
        }
      ],
      "stateMutability": "view"
    },
    {
      "type": "function",
      "name": "isUserMining",
      "inputs": [
        {
          "name": "",
          "type": "address",
          "internalType": "address"
        }
      ],
      "outputs": [
        {
          "name": "",
          "type": "bool",
          "internalType": "bool"
        }
      ],
      "stateMutability": "view"
    },
    {
      "type": "function",
      "name": "marketplace",
      "inputs": [],
      "outputs": [
        {
          "name": "",
          "type": "address",
          "internalType": "address"
        }
      ],
      "stateMutability": "view"
    },
    {
      "type": "function",
      "name": "meltGEM",
      "inputs": [
        {
          "name": "_tokenId",
          "type": "uint256",
          "internalType": "uint256"
        }
      ],
      "outputs": [],
      "stateMutability": "nonpayable"
    },
    {
      "type": "function",
      "name": "name",
      "inputs": [],
      "outputs": [
        {
          "name": "",
          "type": "string",
          "internalType": "string"
        }
      ],
      "stateMutability": "view"
    },
    {
      "type": "function",
      "name": "numberOfSolidColors",
      "inputs": [],
      "outputs": [
        {
          "name": "",
          "type": "uint8",
          "internalType": "uint8"
        }
      ],
      "stateMutability": "view"
    },
    {
      "type": "function",
      "name": "ownerOf",
      "inputs": [
        {
          "name": "tokenId",
          "type": "uint256",
          "internalType": "uint256"
        }
      ],
      "outputs": [
        {
          "name": "",
          "type": "address",
          "internalType": "address"
        }
      ],
      "stateMutability": "view"
    },
    {
      "type": "function",
      "name": "ownershipTokenCount",
      "inputs": [
        {
          "name": "",
          "type": "address",
          "internalType": "address"
        }
      ],
      "outputs": [
        {
          "name": "",
          "type": "uint256",
          "internalType": "uint256"
        }
      ],
      "stateMutability": "view"
    },
    {
      "type": "function",
      "name": "pause",
      "inputs": [],
      "outputs": [],
      "stateMutability": "nonpayable"
    },
    {
      "type": "function",
      "name": "pauseProxy",
      "inputs": [],
      "outputs": [
        {
          "name": "",
          "type": "bool",
          "internalType": "bool"
        }
      ],
      "stateMutability": "view"
    },
    {
      "type": "function",
      "name": "paused",
      "inputs": [],
      "outputs": [
        {
          "name": "",
          "type": "bool",
          "internalType": "bool"
        }
      ],
      "stateMutability": "view"
    },
    {
      "type": "function",
      "name": "pickMinedGEM",
      "inputs": [
        {
          "name": "_tokenId",
          "type": "uint256",
          "internalType": "uint256"
        }
      ],
      "outputs": [
        {
          "name": "",
          "type": "bool",
          "internalType": "bool"
        }
      ],
      "stateMutability": "payable"
    },
    {
      "type": "function",
      "name": "preMintedGemsAvailable",
      "inputs": [],
      "outputs": [
        {
          "name": "GemsAvailable",
          "type": "uint256[]",
          "internalType": "uint256[]"
        }
      ],
      "stateMutability": "view"
    },
    {
      "type": "function",
      "name": "proxyImplementation",
      "inputs": [
        {
          "name": "",
          "type": "uint256",
          "internalType": "uint256"
        }
      ],
      "outputs": [
        {
          "name": "",
          "type": "address",
          "internalType": "address"
        }
      ],
      "stateMutability": "view"
    },
    {
      "type": "function",
      "name": "rawFulfillRandomWords",
      "inputs": [
        {
          "name": "requestId",
          "type": "uint256",
          "internalType": "uint256"
        },
        {
          "name": "randomWord",
          "type": "uint256",
          "internalType": "uint256"
        }
      ],
      "outputs": [],
      "stateMutability": "nonpayable"
    },
    {
      "type": "function",
      "name": "removeAdmin",
      "inputs": [
        {
          "name": "account",
          "type": "address",
          "internalType": "address"
        }
      ],
      "outputs": [],
      "stateMutability": "nonpayable"
    },
    {
      "type": "function",
      "name": "removeMinter",
      "inputs": [
        {
          "name": "account",
          "type": "address",
          "internalType": "address"
        }
      ],
      "outputs": [],
      "stateMutability": "nonpayable"
    },
    {
      "type": "function",
      "name": "renounceMinter",
      "inputs": [],
      "outputs": [],
      "stateMutability": "nonpayable"
    },
    {
      "type": "function",
      "name": "renounceOwnership",
      "inputs": [],
      "outputs": [],
      "stateMutability": "nonpayable"
    },
    {
      "type": "function",
      "name": "renounceRole",
      "inputs": [
        {
          "name": "role",
          "type": "bytes32",
          "internalType": "bytes32"
        },
        {
          "name": "callerConfirmation",
          "type": "address",
          "internalType": "address"
        }
      ],
      "outputs": [],
      "stateMutability": "nonpayable"
    },
    {
      "type": "function",
      "name": "requestCount",
      "inputs": [],
      "outputs": [
        {
          "name": "",
          "type": "uint256",
          "internalType": "uint256"
        }
      ],
      "stateMutability": "view"
    },
    {
      "type": "function",
      "name": "requestIds",
      "inputs": [
        {
          "name": "",
          "type": "uint256",
          "internalType": "uint256"
        }
      ],
      "outputs": [
        {
          "name": "",
          "type": "uint256",
          "internalType": "uint256"
        }
      ],
      "stateMutability": "view"
    },
    {
      "type": "function",
      "name": "revokeMinter",
      "inputs": [
        {
          "name": "account",
          "type": "address",
          "internalType": "address"
        }
      ],
      "outputs": [],
      "stateMutability": "nonpayable"
    },
    {
      "type": "function",
      "name": "revokeRole",
      "inputs": [
        {
          "name": "role",
          "type": "bytes32",
          "internalType": "bytes32"
        },
        {
          "name": "account",
          "type": "address",
          "internalType": "address"
        }
      ],
      "outputs": [],
      "stateMutability": "nonpayable"
    },
    {
      "type": "function",
      "name": "s_requests",
      "inputs": [
        {
          "name": "",
          "type": "uint256",
          "internalType": "uint256"
        }
      ],
      "outputs": [
        {
          "name": "tokenId",
          "type": "uint256",
          "internalType": "uint256"
        },
        {
          "name": "requested",
          "type": "bool",
          "internalType": "bool"
        },
        {
          "name": "fulfilled",
          "type": "bool",
          "internalType": "bool"
        },
        {
          "name": "randomWord",
          "type": "uint256",
          "internalType": "uint256"
        },
        {
          "name": "chosenTokenId",
          "type": "uint256",
          "internalType": "uint256"
        },
        {
          "name": "requester",
          "type": "address",
          "internalType": "address"
        }
      ],
      "stateMutability": "view"
    },
    {
      "type": "function",
      "name": "safeTransferFrom",
      "inputs": [
        {
          "name": "from",
          "type": "address",
          "internalType": "address"
        },
        {
          "name": "to",
          "type": "address",
          "internalType": "address"
        },
        {
          "name": "tokenId",
          "type": "uint256",
          "internalType": "uint256"
        }
      ],
      "outputs": [],
      "stateMutability": "nonpayable"
    },
    {
      "type": "function",
      "name": "safeTransferFrom",
      "inputs": [
        {
          "name": "from",
          "type": "address",
          "internalType": "address"
        },
        {
          "name": "to",
          "type": "address",
          "internalType": "address"
        },
        {
          "name": "tokenId",
          "type": "uint256",
          "internalType": "uint256"
        },
        {
          "name": "data",
          "type": "bytes",
          "internalType": "bytes"
        }
      ],
      "outputs": [],
      "stateMutability": "nonpayable"
    },
    {
      "type": "function",
      "name": "selectorImplementation",
      "inputs": [
        {
          "name": "",
          "type": "bytes4",
          "internalType": "bytes4"
        }
      ],
      "outputs": [
        {
          "name": "",
          "type": "address",
          "internalType": "address"
        }
      ],
      "stateMutability": "view"
    },
    {
      "type": "function",
      "name": "setApprovalForAll",
      "inputs": [
        {
          "name": "operator",
          "type": "address",
          "internalType": "address"
        },
        {
          "name": "approved",
          "type": "bool",
          "internalType": "bool"
        }
      ],
      "outputs": [],
      "stateMutability": "nonpayable"
    },
    {
      "type": "function",
      "name": "setApprovalForMarketplace",
      "inputs": [],
      "outputs": [],
      "stateMutability": "nonpayable"
    },
    {
      "type": "function",
      "name": "setGemsCooldownPeriods",
      "inputs": [
        {
          "name": "_CommonGemsCooldownPeriod",
          "type": "uint256",
          "internalType": "uint256"
        },
        {
          "name": "_RareGemsCooldownPeriod",
          "type": "uint256",
          "internalType": "uint256"
        },
        {
          "name": "_UniqueGemsCooldownPeriod",
          "type": "uint256",
          "internalType": "uint256"
        },
        {
          "name": "_EpicGemsCooldownPeriod",
          "type": "uint256",
          "internalType": "uint256"
        },
        {
          "name": "_LegendaryGemsCooldownPeriod",
          "type": "uint256",
          "internalType": "uint256"
        },
        {
          "name": "_MythicGemsCooldownPeriod",
          "type": "uint256",
          "internalType": "uint256"
        }
      ],
      "outputs": [],
      "stateMutability": "nonpayable"
    },
    {
      "type": "function",
      "name": "setGemsMiningPeriods",
      "inputs": [
        {
          "name": "_CommonGemsMiningPeriod",
          "type": "uint256",
          "internalType": "uint256"
        },
        {
          "name": "_RareGemsMiningPeriod",
          "type": "uint256",
          "internalType": "uint256"
        },
        {
          "name": "_UniqueGemsMiningPeriod",
          "type": "uint256",
          "internalType": "uint256"
        },
        {
          "name": "_EpicGemsMiningPeriod",
          "type": "uint256",
          "internalType": "uint256"
        },
        {
          "name": "_LegendaryGemsMiningPeriod",
          "type": "uint256",
          "internalType": "uint256"
        },
        {
          "name": "_MythicGemsMiningPeriod",
          "type": "uint256",
          "internalType": "uint256"
        }
      ],
      "outputs": [],
      "stateMutability": "nonpayable"
    },
    {
      "type": "function",
      "name": "setIsLocked",
      "inputs": [
        {
          "name": "_tokenId",
          "type": "uint256",
          "internalType": "uint256"
        },
        {
          "name": "_isLocked",
          "type": "bool",
          "internalType": "bool"
        }
      ],
      "outputs": [],
      "stateMutability": "nonpayable"
    },
    {
      "type": "function",
      "name": "setMarketPlaceAddress",
      "inputs": [
        {
          "name": "_marketplace",
          "type": "address",
          "internalType": "address"
        }
      ],
      "outputs": [],
      "stateMutability": "nonpayable"
    },
    {
      "type": "function",
      "name": "setNumberOfSolidColors",
      "inputs": [
        {
          "name": "_numberOfSolidColors",
          "type": "uint8",
          "internalType": "uint8"
        }
      ],
      "outputs": [],
      "stateMutability": "nonpayable"
    },
    {
      "type": "function",
      "name": "setTokenURI",
      "inputs": [
        {
          "name": "tokenId",
          "type": "uint256",
          "internalType": "uint256"
        },
        {
          "name": "_tokenURI",
          "type": "string",
          "internalType": "string"
        }
      ],
      "outputs": [],
      "stateMutability": "nonpayable"
    },
    {
      "type": "function",
      "name": "setminingTrys",
      "inputs": [
        {
          "name": "_CommonminingTry",
          "type": "uint256",
          "internalType": "uint256"
        },
        {
          "name": "_RareminingTry",
          "type": "uint256",
          "internalType": "uint256"
        },
        {
          "name": "_UniqueminingTry",
          "type": "uint256",
          "internalType": "uint256"
        },
        {
          "name": "_EpicminingTry",
          "type": "uint256",
          "internalType": "uint256"
        },
        {
          "name": "_LegendaryminingTry",
          "type": "uint256",
          "internalType": "uint256"
        },
        {
          "name": "_MythicminingTry",
          "type": "uint256",
          "internalType": "uint256"
        }
      ],
      "outputs": [],
      "stateMutability": "nonpayable"
    },
    {
      "type": "function",
      "name": "startMiningGEM",
      "inputs": [
        {
          "name": "_tokenId",
          "type": "uint256",
          "internalType": "uint256"
        }
      ],
      "outputs": [
        {
          "name": "",
          "type": "bool",
          "internalType": "bool"
        }
      ],
      "stateMutability": "nonpayable"
    },
    {
      "type": "function",
      "name": "supportsInterface",
      "inputs": [
        {
          "name": "interfaceId",
          "type": "bytes4",
          "internalType": "bytes4"
        }
      ],
      "outputs": [
        {
          "name": "",
          "type": "bool",
          "internalType": "bool"
        }
      ],
      "stateMutability": "view"
    },
    {
      "type": "function",
      "name": "symbol",
      "inputs": [],
      "outputs": [
        {
          "name": "",
          "type": "string",
          "internalType": "string"
        }
      ],
      "stateMutability": "view"
    },
    {
      "type": "function",
      "name": "tokenMiningByUser",
      "inputs": [
        {
          "name": "",
          "type": "address",
          "internalType": "address"
        }
      ],
      "outputs": [
        {
          "name": "",
          "type": "uint256",
          "internalType": "uint256"
        }
      ],
      "stateMutability": "view"
    },
    {
      "type": "function",
      "name": "tokenReadyToMine",
      "inputs": [
        {
          "name": "",
          "type": "uint256",
          "internalType": "uint256"
        }
      ],
      "outputs": [
        {
          "name": "",
          "type": "bool",
          "internalType": "bool"
        }
      ],
      "stateMutability": "view"
    },
    {
      "type": "function",
      "name": "tokenURI",
      "inputs": [
        {
          "name": "tokenId",
          "type": "uint256",
          "internalType": "uint256"
        }
      ],
      "outputs": [
        {
          "name": "",
          "type": "string",
          "internalType": "string"
        }
      ],
      "stateMutability": "view"
    },
    {
      "type": "function",
      "name": "tokensOfOwner",
      "inputs": [
        {
          "name": "_owner",
          "type": "address",
          "internalType": "address"
        }
      ],
      "outputs": [
        {
          "name": "ownerTokens",
          "type": "uint256[]",
          "internalType": "uint256[]"
        }
      ],
      "stateMutability": "view"
    },
    {
      "type": "function",
      "name": "ton",
      "inputs": [],
      "outputs": [
        {
          "name": "",
          "type": "address",
          "internalType": "address"
        }
      ],
      "stateMutability": "view"
    },
    {
      "type": "function",
      "name": "totalSupply",
      "inputs": [],
      "outputs": [
        {
          "name": "",
          "type": "uint256",
          "internalType": "uint256"
        }
      ],
      "stateMutability": "view"
    },
    {
      "type": "function",
      "name": "transferAdmin",
      "inputs": [
        {
          "name": "newAdmin",
          "type": "address",
          "internalType": "address"
        }
      ],
      "outputs": [],
      "stateMutability": "nonpayable"
    },
    {
      "type": "function",
      "name": "transferFrom",
      "inputs": [
        {
          "name": "from",
          "type": "address",
          "internalType": "address"
        },
        {
          "name": "to",
          "type": "address",
          "internalType": "address"
        },
        {
          "name": "tokenId",
          "type": "uint256",
          "internalType": "uint256"
        }
      ],
      "outputs": [],
      "stateMutability": "nonpayable"
    },
    {
      "type": "function",
      "name": "transferOwnership",
      "inputs": [
        {
          "name": "newAdmin",
          "type": "address",
          "internalType": "address"
        }
      ],
      "outputs": [],
      "stateMutability": "nonpayable"
    },
    {
      "type": "function",
      "name": "treasury",
      "inputs": [],
      "outputs": [
        {
          "name": "",
          "type": "address",
          "internalType": "address"
        }
      ],
      "stateMutability": "view"
    },
    {
      "type": "function",
      "name": "unpause",
      "inputs": [],
      "outputs": [],
      "stateMutability": "nonpayable"
    },
    {
      "type": "function",
      "name": "userMiningStartTime",
      "inputs": [
        {
          "name": "",
          "type": "address",
          "internalType": "address"
        },
        {
          "name": "",
          "type": "uint256",
          "internalType": "uint256"
        }
      ],
      "outputs": [
        {
          "name": "",
          "type": "uint256",
          "internalType": "uint256"
        }
      ],
      "stateMutability": "view"
    },
    {
      "type": "function",
      "name": "userMiningToken",
      "inputs": [
        {
          "name": "",
          "type": "address",
          "internalType": "address"
        },
        {
          "name": "",
          "type": "uint256",
          "internalType": "uint256"
        }
      ],
      "outputs": [
        {
          "name": "",
          "type": "bool",
          "internalType": "bool"
        }
      ],
      "stateMutability": "view"
    },
    {
      "type": "function",
      "name": "wston",
      "inputs": [],
      "outputs": [
        {
          "name": "",
          "type": "address",
          "internalType": "address"
        }
      ],
      "stateMutability": "view"
    },
    {
      "type": "event",
      "name": "Approval",
      "inputs": [
        {
          "name": "owner",
          "type": "address",
          "indexed": true,
          "internalType": "address"
        },
        {
          "name": "approved",
          "type": "address",
          "indexed": true,
          "internalType": "address"
        },
        {
          "name": "tokenId",
          "type": "uint256",
          "indexed": true,
          "internalType": "uint256"
        }
      ],
      "anonymous": false
    },
    {
      "type": "event",
      "name": "ApprovalForAll",
      "inputs": [
        {
          "name": "owner",
          "type": "address",
          "indexed": true,
          "internalType": "address"
        },
        {
          "name": "operator",
          "type": "address",
          "indexed": true,
          "internalType": "address"
        },
        {
          "name": "approved",
          "type": "bool",
          "indexed": false,
          "internalType": "bool"
        }
      ],
      "anonymous": false
    },
    {
      "type": "event",
      "name": "BackgroundColorAdded",
      "inputs": [
        {
          "name": "id",
          "type": "uint8",
          "indexed": true,
          "internalType": "uint8"
        },
        {
          "name": "backgroundColor",
          "type": "string",
          "indexed": false,
          "internalType": "string"
        }
      ],
      "anonymous": false
    },
    {
      "type": "event",
      "name": "BatchMetadataUpdate",
      "inputs": [
        {
          "name": "_fromTokenId",
          "type": "uint256",
          "indexed": false,
          "internalType": "uint256"
        },
        {
          "name": "_toTokenId",
          "type": "uint256",
          "indexed": false,
          "internalType": "uint256"
        }
      ],
      "anonymous": false
    },
    {
      "type": "event",
      "name": "ColorAdded",
      "inputs": [
        {
          "name": "id",
          "type": "uint8",
          "indexed": true,
          "internalType": "uint8"
        },
        {
          "name": "color",
          "type": "string",
          "indexed": false,
          "internalType": "string"
        }
      ],
      "anonymous": false
    },
    {
      "type": "event",
      "name": "ColorValidated",
      "inputs": [
        {
          "name": "color_0",
          "type": "uint8",
          "indexed": false,
          "internalType": "uint8"
        },
        {
          "name": "color_1",
          "type": "uint8",
          "indexed": false,
          "internalType": "uint8"
        }
      ],
      "anonymous": false
    },
    {
      "type": "event",
      "name": "CountGemsByQuadrant",
      "inputs": [
        {
          "name": "gemCount",
          "type": "uint256",
          "indexed": false,
          "internalType": "uint256"
        },
        {
          "name": "tokenIds",
          "type": "uint256[]",
          "indexed": false,
          "internalType": "uint256[]"
        }
      ],
      "anonymous": false
    },
    {
      "type": "event",
      "name": "Created",
      "inputs": [
        {
          "name": "tokenId",
          "type": "uint256",
          "indexed": true,
          "internalType": "uint256"
        },
        {
          "name": "rarity",
          "type": "uint8",
          "indexed": false,
          "internalType": "enum GemFactoryStorage.Rarity"
        },
        {
          "name": "color",
          "type": "uint8[2]",
          "indexed": false,
          "internalType": "uint8[2]"
        },
        {
          "name": "value",
          "type": "uint256",
          "indexed": false,
          "internalType": "uint256"
        },
        {
          "name": "quadrants",
          "type": "uint8[4]",
          "indexed": false,
          "internalType": "uint8[4]"
        },
        {
          "name": "miningPeriod",
          "type": "uint256",
          "indexed": false,
          "internalType": "uint256"
        },
        {
          "name": "cooldownPeriod",
          "type": "uint256",
          "indexed": false,
          "internalType": "uint256"
        },
        {
          "name": "tokenURI",
          "type": "string",
          "indexed": false,
          "internalType": "string"
        },
        {
          "name": "owner",
          "type": "address",
          "indexed": false,
          "internalType": "address"
        }
      ],
      "anonymous": false
    },
    {
      "type": "event",
      "name": "GemForged",
      "inputs": [
        {
          "name": "gemOwner",
          "type": "address",
          "indexed": false,
          "internalType": "address"
        },
        {
          "name": "gemsTokenIds",
          "type": "uint256[]",
          "indexed": false,
          "internalType": "uint256[]"
        },
        {
          "name": "newGemCreatedId",
          "type": "uint256",
          "indexed": false,
          "internalType": "uint256"
        },
        {
          "name": "newRarity",
          "type": "uint8",
          "indexed": false,
          "internalType": "enum GemFactoryStorage.Rarity"
        },
        {
          "name": "forgedQuadrants",
          "type": "uint8[4]",
          "indexed": false,
          "internalType": "uint8[4]"
        },
        {
          "name": "color",
          "type": "uint8[2]",
          "indexed": false,
          "internalType": "uint8[2]"
        },
        {
          "name": "newValue",
          "type": "uint256",
          "indexed": false,
          "internalType": "uint256"
        }
      ],
      "anonymous": false
    },
    {
      "type": "event",
      "name": "GemMelted",
      "inputs": [
        {
          "name": "_tokenId",
          "type": "uint256",
          "indexed": false,
          "internalType": "uint256"
        },
        {
          "name": "_from",
          "type": "address",
          "indexed": false,
          "internalType": "address"
        }
      ],
      "anonymous": false
    },
    {
      "type": "event",
      "name": "GemMiningClaimed",
      "inputs": [
        {
          "name": "tokenId",
          "type": "uint256",
          "indexed": false,
          "internalType": "uint256"
        },
        {
          "name": "miner",
          "type": "address",
          "indexed": false,
          "internalType": "address"
        }
      ],
      "anonymous": false
    },
    {
      "type": "event",
      "name": "GemMiningStarted",
      "inputs": [
        {
          "name": "tokenId",
          "type": "uint256",
          "indexed": false,
          "internalType": "uint256"
        },
        {
          "name": "miner",
          "type": "address",
          "indexed": false,
          "internalType": "address"
        },
        {
          "name": "startMiningTime",
          "type": "uint256",
          "indexed": false,
          "internalType": "uint256"
        },
        {
          "name": "newminingTry",
          "type": "uint256",
          "indexed": false,
          "internalType": "uint256"
        }
      ],
      "anonymous": false
    },
    {
      "type": "event",
      "name": "MetadataUpdate",
      "inputs": [
        {
          "name": "_tokenId",
          "type": "uint256",
          "indexed": false,
          "internalType": "uint256"
        }
      ],
      "anonymous": false
    },
    {
      "type": "event",
      "name": "NoGemAvailable",
      "inputs": [
        {
          "name": "tokenId",
          "type": "uint256",
          "indexed": false,
          "internalType": "uint256"
        }
      ],
      "anonymous": false
    },
    {
      "type": "event",
      "name": "Paused",
      "inputs": [
        {
          "name": "account",
          "type": "address",
          "indexed": false,
          "internalType": "address"
        }
      ],
      "anonymous": false
    },
    {
      "type": "event",
      "name": "RandomGemSelected",
      "inputs": [
        {
          "name": "chosenTokenId",
          "type": "uint256",
          "indexed": false,
          "internalType": "uint256"
        },
        {
          "name": "requestNumber",
          "type": "uint256",
          "indexed": false,
          "internalType": "uint256"
        }
      ],
      "anonymous": false
    },
    {
      "type": "event",
      "name": "RoleAdminChanged",
      "inputs": [
        {
          "name": "role",
          "type": "bytes32",
          "indexed": true,
          "internalType": "bytes32"
        },
        {
          "name": "previousAdminRole",
          "type": "bytes32",
          "indexed": true,
          "internalType": "bytes32"
        },
        {
          "name": "newAdminRole",
          "type": "bytes32",
          "indexed": true,
          "internalType": "bytes32"
        }
      ],
      "anonymous": false
    },
    {
      "type": "event",
      "name": "RoleGranted",
      "inputs": [
        {
          "name": "role",
          "type": "bytes32",
          "indexed": true,
          "internalType": "bytes32"
        },
        {
          "name": "account",
          "type": "address",
          "indexed": true,
          "internalType": "address"
        },
        {
          "name": "sender",
          "type": "address",
          "indexed": true,
          "internalType": "address"
        }
      ],
      "anonymous": false
    },
    {
      "type": "event",
      "name": "RoleRevoked",
      "inputs": [
        {
          "name": "role",
          "type": "bytes32",
          "indexed": true,
          "internalType": "bytes32"
        },
        {
          "name": "account",
          "type": "address",
          "indexed": true,
          "internalType": "address"
        },
        {
          "name": "sender",
          "type": "address",
          "indexed": true,
          "internalType": "address"
        }
      ],
      "anonymous": false
    },
    {
      "type": "event",
      "name": "Transfer",
      "inputs": [
        {
          "name": "from",
          "type": "address",
          "indexed": true,
          "internalType": "address"
        },
        {
          "name": "to",
          "type": "address",
          "indexed": true,
          "internalType": "address"
        },
        {
          "name": "tokenId",
          "type": "uint256",
          "indexed": true,
          "internalType": "uint256"
        }
      ],
      "anonymous": false
    },
    {
      "type": "event",
      "name": "TransferGEM",
      "inputs": [
        {
          "name": "from",
          "type": "address",
          "indexed": false,
          "internalType": "address"
        },
        {
          "name": "to",
          "type": "address",
          "indexed": false,
          "internalType": "address"
        },
        {
          "name": "tokenId",
          "type": "uint256",
          "indexed": false,
          "internalType": "uint256"
        }
      ],
      "anonymous": false
    },
    {
      "type": "event",
      "name": "Unpaused",
      "inputs": [
        {
          "name": "account",
          "type": "address",
          "indexed": false,
          "internalType": "address"
        }
      ],
      "anonymous": false
    },
    {
      "type": "error",
      "name": "AccessControlBadConfirmation",
      "inputs": []
    },
    {
      "type": "error",
      "name": "AccessControlUnauthorizedAccount",
      "inputs": [
        {
          "name": "account",
          "type": "address",
          "internalType": "address"
        },
        {
          "name": "neededRole",
          "type": "bytes32",
          "internalType": "bytes32"
        }
      ]
    },
    {
      "type": "error",
      "name": "ERC721IncorrectOwner",
      "inputs": [
        {
          "name": "sender",
          "type": "address",
          "internalType": "address"
        },
        {
          "name": "tokenId",
          "type": "uint256",
          "internalType": "uint256"
        },
        {
          "name": "owner",
          "type": "address",
          "internalType": "address"
        }
      ]
    },
    {
      "type": "error",
      "name": "ERC721InsufficientApproval",
      "inputs": [
        {
          "name": "operator",
          "type": "address",
          "internalType": "address"
        },
        {
          "name": "tokenId",
          "type": "uint256",
          "internalType": "uint256"
        }
      ]
    },
    {
      "type": "error",
      "name": "ERC721InvalidApprover",
      "inputs": [
        {
          "name": "approver",
          "type": "address",
          "internalType": "address"
        }
      ]
    },
    {
      "type": "error",
      "name": "ERC721InvalidOperator",
      "inputs": [
        {
          "name": "operator",
          "type": "address",
          "internalType": "address"
        }
      ]
    },
    {
      "type": "error",
      "name": "ERC721InvalidOwner",
      "inputs": [
        {
          "name": "owner",
          "type": "address",
          "internalType": "address"
        }
      ]
    },
    {
      "type": "error",
      "name": "ERC721InvalidReceiver",
      "inputs": [
        {
          "name": "receiver",
          "type": "address",
          "internalType": "address"
        }
      ]
    },
    {
      "type": "error",
      "name": "ERC721InvalidSender",
      "inputs": [
        {
          "name": "sender",
          "type": "address",
          "internalType": "address"
        }
      ]
    },
    {
      "type": "error",
      "name": "ERC721NonexistentToken",
      "inputs": [
        {
          "name": "tokenId",
          "type": "uint256",
          "internalType": "uint256"
        }
      ]
    },
    {
      "type": "error",
      "name": "OnlyCoordinatorCanFulfill",
      "inputs": [
        {
          "name": "have",
          "type": "address",
          "internalType": "address"
        },
        {
          "name": "want",
          "type": "address",
          "internalType": "address"
        }
      ]
    }
  ],
  "bytecode": {
    "object": "0x60a06040523461003a576100196100146100d2565b6101d9565b604051619d266104fd8239608051818181615f4a01526181070152619d2690f35b600080fd5b634e487b7160e01b600052604160045260246000fd5b90601f01601f191681019081106001600160401b0382111761007657604052565b61003f565b9061008f61008860405190565b9283610055565b565b6001600160a01b031690565b90565b6001600160a01b0381160361003a57565b9050519061008f826100a0565b9060208282031261003a5761009d916100b1565b61009d61a223803803806100e58161007b565b9283398101906100be565b6001600160401b03811161007657602090601f01601f19160190565b9061011e610119836100f0565b61007b565b918252565b61012d600a61010c565b69546f6b616d616b47454d60b01b602082015290565b61009d610123565b610155600361010c565b6247454d60e81b602082015290565b61009d61014b565b61009d61009d61009d9290565b61009d600061016c565b906001600160a01b03905b9181191691161790565b61009d90610091906001600160a01b031682565b61009d90610198565b61009d906101ac565b906101ce61009d6101d5926101b5565b8254610183565b9055565b61008f906101f76101e8610143565b6101f0610164565b9083610211565b610209610202610179565b339061044c565b5060366101be565b906102249261021f91610229565b6101b5565b608052565b61008f918291829182918291906103fc565b634e487b7160e01b600052602260045260246000fd5b9060016002830492168015610271575b602083101461026c57565b61023b565b91607f1691610261565b9160001960089290920291821b911b61018e565b91906102a061009d6101d59361016c565b90835461027b565b61008f9160009161028f565b8181106102bf575050565b806102cd60006001936102a8565b016102b4565b9190601f81116102e257505050565b6102f461008f93600052602060002090565b906020601f840181900483019310610316575b6020601f9091010401906102b4565b9091508190610307565b90610329815190565b906001600160401b0382116100765761034c826103468554610251565b856102d3565b602090601f8311600114610387576101d592916000918361037c575b5050600019600883021c1916906002021790565b015190503880610368565b601f1983169161039c85600052602060002090565b9260005b8181106103da575091600293918560019694106103c1575b50505002019055565b01516000196008601f8516021c191690553880806103b8565b919360206001819287870151815501950192016103a0565b9061008f91610320565b9061040b61008f9260006103f2565b60016103f2565b905b600052602052604060002090565b90610414906101b5565b9060ff9061018e565b9061044561009d6101d592151590565b825461042c565b61045d61045983836104d8565b1590565b156104d157610483600161047e84600061047886603a610412565b01610422565b610435565b61049d610497610491339390565b936101b5565b916101b5565b917f2f8788117e7eff1d82e926ec794901d17c78024a50270940304540a733656f0d6104c860405190565b600090a4600190565b5050600090565b61009d9160006104786104f5936104ed600090565b50603a610412565b5460ff169056fe6080604052600436101561001257600080fd5b60003560e01c806301ffc9a714610852578063034294f81461084d578063038a7e05146108485780630491fd3e1461084357806304e41a0b1461083e57806306fdde0314610839578063081812fc146108345780630922f5131461082f578063095ea7b31461082a5780630c7254a0146108255780630de32a97146108205780630ff1ac671461081b5780631008ef7814610816578063139b63f31461081157806315341f2b1461080c578063162094c414610807578063166b35c9146108025780631785f53c146107fd57806318160ddd146107f85780631885cbbe146107f357806318898f36146107ee5780631d0e0aac146107e95780631d198bba146107e45780631da0fc9c146107df578063201832c0146107da578063205fb1f8146107d557806323b872dd146107d0578063248a9ca3146107cb57806324d7806c146107c6578063274f2455146107c1578063276a28a3146107bc5780632bbbe94d146107b75780632f2ff15d146107b25780633092afd5146107ad57806333158058146107a857806333d608f1146107a357806333fcb6481461079e57806336568abe1461079957806336b17e131461079457806337ed11db1461078f578063389ed2671461078a5780633b19e84a146107855780633ec7af4a146107805780633f4ba83a1461077b5780633fb310a51461077657806342842e0e146107715780634d723a751461076c57806350d2a27614610767578063550d01a31461076257806358bf3e651461075d5780635badbe4c146107585780635bbffab6146107535780635c975abb1461074e5780635fcf94d11461074957806361d027b31461074457806361f7f6d71461073f578063627517381461073a5780636352211e1461073557806363a8fd8914610730578063676f79f11461072b5780636b1a96fa146107265780636c106fea14610721578063704802751461071c57806370a0823114610717578063715018a61461071257806371b57c471461070d578063724188bc1461070857806375829def1461070357806377f7e499146106fe5780637866369b146106f95780637fe6fde5146106f45780638456cb59146106ef5780638462151c146106ea5780638796ba8c146106e55780638964f0c1146106e05780638d41fe30146106db5780638f32d59b146106d65780638fddb065146106d157806391d14854146106cc57806395d89b41146106c757806397125c40146106c2578063975781b7146106bd578063983b2d56146106b857806398650275146106b357806398a2c65d146106ae5780639a66af62146106a9578063a0b2d41b146106a4578063a168fa891461069f578063a1770a7d1461069a578063a1c5272614610695578063a217fddf14610690578063a22cb4651461068b578063a8ce886e14610686578063aa271e1a14610681578063aa723bb71461067c578063aae31df314610677578063abc8c7af14610672578063ad0d3d3f1461066d578063ad6caa4714610668578063aff2a46314610663578063b78417b01461065e578063b88d4fde14610659578063b911135f14610654578063bb4a25091461064f578063bc36b2ee1461064a578063bd11f69d14610645578063c138907214610640578063c28fb6b71461063b578063c4d2fcae14610636578063c61a46c514610631578063c87b56dd1461062c578063cc48b94714610627578063cc98ef9614610622578063cec21acb1461061d578063cfbd488514610618578063d11a57ec14610613578063d1bd7e061461060e578063d547741f14610609578063d55486d314610604578063d62c990f146105ff578063d7a46495146105fa578063dc0515d6146105f5578063e4b7fddf146105f0578063e7a523c0146105eb578063e985e9c5146105e6578063ecc5e06f146105e1578063efa2cc29146105dc578063f2fde38b146105d7578063f66f9e34146105d2578063f7c0794d146105cd578063f99a6bb5146105c85763ffbccde4036108575761293a565b612916565b6128fb565b6128d4565b6128b0565b612895565b61286e565b612842565b61280b565b6127f0565b6127c9565b6127ae565b612787565b61276c565b612753565b612738565b612705565b6126ed565b6126d2565b6126aa565b61268f565b612668565b61264d565b612632565b61260b565b6125f0565b6125c5565b612592565b612570565b6124d6565b6124aa565b612440565b612419565b6123fe565b6123df565b6123c4565b612391565b612306565b6121a9565b61218e565b612157565b612120565b6120ef565b6120d3565b61208b565b611f9b565b611f77565b611f5c565b611f38565b611f20565b611f01565b611e96565b611e6b565b611e4f565b611e34565b611e0d565b611df2565b611dd7565b611dbc565b611d69565b611d51565b611d36565b611d1b565b611cf0565b611ccc565b611cb1565b611c8a565b611c66565b611c4b565b611c33565b611c18565b611bfd565b611b72565b611b22565b611afb565b611ae0565b611a9d565b61180d565b6117e6565b6117cb565b6117a4565b61177d565b611756565b61172f565b611704565b6116b9565b611668565b61164d565b611629565b61160e565b6115f3565b6115ba565b6115a1565b61156a565b61152d565b611511565b611435565b6113ef565b6113d7565b6113be565b611380565b611365565b61134f565b611334565b611319565b611300565b6112bc565b61124e565b611227565b61120c565b6111f4565b6111d9565b6111b2565b61118b565b611173565b611144565b61112b565b6110de565b61109e565b611077565b61104c565b610bb6565b610b8b565b610b1f565b610ac5565b610a84565b610a29565b6109a2565b610979565b61094d565b6108fc565b610899565b600080fd5b6001600160e01b031981165b0361085757565b9050359061087c8261085c565b565b90602082820312610857576108929161086f565b90565b9052565b34610857576108c76108b46108af36600461087e565b612955565b6040515b91829182901515815260200190565b0390f35b600091031261085757565b610892916008021c5b60ff1690565b9061089291546108d6565b610892600060096108e5565b346108575761090c3660046108cb565b6108c76109176108f0565b6040519182918260ff909116815260200190565b610892916008021c81565b90610892915461092b565b61089260006021610936565b346108575761095d3660046108cb565b6108c7610968610941565b6040515b9182918290815260200190565b34610857576109893660046108cb565b6109916129d1565b604051005b61089260006026610936565b34610857576109b23660046108cb565b6108c7610968610996565b60005b8381106109d05750506000910152565b81810151838201526020016109c0565b610a01610a0a602093610a14936109f5815190565b80835293849260200190565b958691016109bd565b601f01601f191690565b0190565b6020808252610892929101906109e0565b3461085757610a393660046108cb565b6108c7610a446129e2565b6040515b91829182610a18565b80610868565b9050359061087c82610a51565b906020828203126108575761089291610a57565b6001600160a01b031690565b34610857576108c7610a9f610a9a366004610a64565b6129ec565b604051918291826001600160a01b03909116815260200190565b6108926000600c6108e5565b3461085757610ad53660046108cb565b6108c7610917610ab9565b6001600160a01b038116610868565b9050359061087c82610ae0565b919060408382031261085757610892906020610b188286610aef565b9401610a57565b3461085757610991610b32366004610afc565b906129ff565b909160c08284031261085757610b4e8383610a57565b92610b5c8160208501610a57565b92610b6a8260408301610a57565b92610892610b7b8460608501610a57565b9360a0610b188260808701610a57565b3461085757610991610b9e366004610b38565b94939093929192612aee565b61089260006025610936565b3461085757610bc63660046108cb565b6108c7610968610baa565b634e487b7160e01b600052604160045260246000fd5b90601f01601f191681019081106001600160401b03821117610c0857604052565b610bd1565b9061087c610c1a60405190565b9283610be7565b6001600160401b038111610c085760208091020190565b6006111561085757565b9050359061087c82610c38565b90929192610c64610c5f82610c21565b610c0d565b938185526020808601920283019281841161085757915b838310610c885750505050565b60208091610c968486610c42565b815201920191610c7b565b9080601f830112156108575781602061089293359101610c4f565b6001600160401b038111610c085760200290565b60ff8116610868565b9050359061087c82610cd0565b90929192610cf6610c5f82610cbc565b93602085920283019281841161085757915b838310610d155750505050565b60208091610d238486610cd9565b815201920191610d08565b9080601f8301121561085757600261089292610ce6565b90929192610d55610c5f82610c21565b93818552604060208601920283019281841161085757915b838310610d7a5750505050565b6020604091610d898486610d2e565b815201920191610d6d565b9080601f830112156108575781602061089293359101610d45565b90929192610dbf610c5f82610cbc565b93602085920283019281841161085757915b838310610dde5750505050565b60208091610dec8486610cd9565b815201920191610dd1565b9080601f8301121561085757600461089292610daf565b90929192610e1e610c5f82610c21565b93818552608060208601920283019281841161085757915b838310610e435750505050565b6020608091610e528486610df7565b815201920191610e36565b9080601f830112156108575781602061089293359101610e0e565b6001600160401b038111610c0857602090601f01601f19160190565b90826000939282370152565b90929192610eb0610c5f82610e78565b93818552818301116108575761087c916020850190610e94565b9080601f830112156108575781602061089293359101610ea0565b929190610ef4610c5f82610c21565b93818552602080860192028101918383116108575781905b838210610f1a575050505050565b81356001600160401b03811161085757602091610f3a8784938701610eca565b815201910190610f0c565b9080601f830112156108575781602061089293359101610ee5565b906080828203126108575781356001600160401b0381116108575781610f87918401610ca1565b9260208301356001600160401b0381116108575782610fa7918501610d94565b9260408101356001600160401b0381116108575783610fc7918301610e5d565b9260608201356001600160401b038111610857576108929201610f45565b90611005610ffe610ff4845190565b8084529260200190565b9260200190565b9060005b8181106110165750505090565b90919261103361102c6001928651815260200190565b9460200190565b929101611009565b602080825261089292910190610fe5565b34610857576108c761106b611062366004610f60565b92919091614463565b6040519182918261103b565b34610857576110873660046108cb565b6108c7610968614471565b61089260006029610936565b34610857576110ae3660046108cb565b6108c7610968611092565b906020828203126108575781356001600160401b038111610857576108929201610eca565b34610857576109916110f13660046110b9565b614572565b9190916040818403126108575761110d8382610a57565b9260208201356001600160401b038111610857576108929201610eca565b346108575761099161113e3660046110f6565b9061457b565b34610857576111543660046108cb565b6108c7610968614585565b906020828203126108575761089291610aef565b346108575761099161118636600461115f565b6145b0565b346108575761119b3660046108cb565b6108c76109686145b9565b6108926000602c610936565b34610857576111c23660046108cb565b6108c76109686111a6565b61089260006020610936565b34610857576111e93660046108cb565b6108c76109686111cd565b34610857576109916112073660046110b9565b614650565b34610857576108c76108b461122236600461115f565b614659565b34610857576108c76108b461123d366004610a64565b614a47565b6108926000601c610936565b346108575761125e3660046108cb565b6108c7610968611242565b61089290610a78906001600160a01b031682565b61089290611269565b6108929061127d565b9061129990611286565b600052602052604060002090565b60006112b761089292601161128f565b6108e5565b34610857576108c76108b46112d236600461115f565b6112a7565b9091606082840312610857576108926112f08484610aef565b936040610b188260208701610aef565b34610857576109916113133660046112d7565b91614bd6565b34610857576108c761096861132f366004610a64565b614be7565b34610857576108c76108b461134a36600461115f565b614c06565b6108c76108b4611360366004610a64565b614fd3565b34610857576108c76108b461137b366004610a64565b614fde565b34610857576113903660046108cb565b6108c7610a9f614ff6565b9190604083820312610857576108929060206113b78286610a57565b9401610aef565b34610857576109916113d136600461139b565b90615023565b34610857576109916113ea36600461115f565b615055565b34610857576108c76108b4611405366004610afc565b90615190565b6114186108926108929290565b63ffffffff1690565b6108926203345061140b565b610892611421565b34610857576114453660046108cb565b6108c761145061142d565b6040519182918263ffffffff909116815260200190565b90929192611477610c5f82610c21565b938185526020808601920283019281841161085757915b83831061149b5750505050565b602080916114a98486610a57565b81520192019161148e565b9080601f830112156108575781602061089293359101611467565b90916080828403126108575781356001600160401b038111610857576114fa846108929285016114b4565b93604061150a8260208701610c42565b9401610d2e565b34610857576108c76109686115273660046114cf565b91615ee3565b346108575761099161154036600461139b565b90615ef0565b610892916008021c610a78565b906108929154611546565b61089260016032611553565b346108575761157a3660046108cb565b6108c7610a9f61155e565b919060408382031261085757610892906020610b188286610a57565b34610857576109916115b4366004611585565b90615f43565b34610857576115ca3660046108cb565b6108c77ffcb9fcbfa83b897fb2d5cf4b58962164105c1e71489a37ef3ae0db3fdce576f6610968565b34610857576116033660046108cb565b6108c7610a9f615fae565b346108575761161e3660046108cb565b6108c7610968615fb8565b34610857576116393660046108cb565b6109916160a7565b61089260006023610936565b346108575761165d3660046108cb565b6108c7610968611641565b346108575761099161167b3660046112d7565b916160af565b801515610868565b9050359061087c82611681565b9190604083820312610857576108929060206116b28286610a57565b9401611689565b34610857576109916116cc366004611696565b906160e8565b6001600160e01b03191690565b906001600160e01b031916611299565b60006116ff6108929260396116df565b611553565b34610857576108c7610a9f61171a36600461087e565b6116ef565b60006112b761089292603861128f565b34610857576108c76108b461174536600461115f565b61171f565b6108926000601e610936565b34610857576117663660046108cb565b6108c761096861174a565b61089260006031610936565b346108575761178d3660046108cb565b6108c7610968611771565b61089260006027610936565b34610857576117b43660046108cb565b6108c7610968611798565b610892600060176108e5565b34610857576117db3660046108cb565b6108c76108b46117bf565b34610857576117f63660046108cb565b6108c76109686160f2565b61089260006034611553565b346108575761181d3660046108cb565b6108c7610a9f611801565b634e487b7160e01b600052603260045260246000fd5b805482101561186157611858600b91600052602060002090565b91020190600090565b611828565b6108929081565b6108929054611866565b610892906108df565b6108929054611877565b634e487b7160e01b600052602260045260246000fd5b90600160028304921680156118c0575b60208310146118bb57565b61188a565b91607f16916118b0565b805460009392916118e76118dd836118a0565b8085529360200190565b9160018116908115611939575060011461190057505050565b6119139192939450600052602060002090565b916000925b8184106119255750500190565b805484840152602090930192600101611918565b92949550505060ff1916825215156020020190565b90610892916118ca565b9061087c6119729261196960405190565b9384809261194e565b0383610be7565b600790611984825490565b811015610857576119949161183e565b5061199e8161186d565b916119ab60018301611880565b916119b86004820161186d565b916119c56005830161186d565b916119d26006820161186d565b916119df60078301611880565b916119ec6008820161186d565b91610892600a6119fe60098501611958565b930161186d565b634e487b7160e01b600052602160045260246000fd5b60061115611a2557565b611a05565b9061087c82611a1b565b61089290611a2a565b61089590611a34565b908152989796956101208a0195909490939092909160208b01611a6891611a3d565b60408a015260608901526080880152151560a087015260c086015284810360e0860152611a94916109e0565b61010090930152565b34610857576108c7611ab8611ab3366004610a64565b611979565b95611acb99979995919594929460405190565b998a998a611a46565b6108926000601d610936565b3461085757611af03660046108cb565b6108c7610968611ad4565b34610857576108c7610a9f611b11366004610a64565b6160fc565b610892601460366108e5565b3461085757611b323660046108cb565b6108c76108b4611b16565b6108926108926108929290565b9061129990611b3d565b611b6d61089292611b68600093601461128f565b611b4a565b610936565b34610857576108c7610968611b88366004610afc565b90611b54565b906020828203126108575761089291610cd9565b6108df6108926108929260ff1690565b9061129990611ba2565b634e487b7160e01b600052600060045260246000fd5b90600010611be35761089290611958565b611bbc565b6000611bf8610892926008611bb2565b611bd2565b34610857576108c7610a44611c13366004611b8e565b611be8565b3461085757611c283660046108cb565b6108c7610968616105565b3461085757610991611c4636600461115f565b616130565b34610857576108c7610968611c6136600461115f565b616139565b3461085757611c763660046108cb565b610991616171565b61089260006036611553565b3461085757611c9a3660046108cb565b6108c7610a9f611c7e565b610892600060326108e5565b3461085757611cc13660046108cb565b6108c7610917611ca5565b3461085757610991611cdf36600461115f565b61626b565b6108926000602a610936565b3461085757611d003660046108cb565b6108c7610968611ce4565b60006112b7610892926015611b4a565b34610857576108c76108b4611d31366004610a64565b611d0b565b34610857576108c76108b4611d4c366004610a64565b6165c8565b3461085757611d613660046108cb565b61099161664b565b34610857576108c761106b611d7f36600461115f565b616653565b805482101561186157611858600191600052602060002090565b60305481101561085757611db6610892916030611d84565b90610936565b34610857576108c7610968611dd2366004610a64565b611d9e565b3461085757611de73660046108cb565b6108c7610968616724565b3461085757611e023660046108cb565b6108c761096861672e565b3461085757611e1d3660046108cb565b6108c76108b4616738565b6108926000602e610936565b3461085757611e443660046108cb565b6108c7610968611e28565b34610857576108c76108b4611e6536600461139b565b90616743565b3461085757611e7b3660046108cb565b6108c7610a4461675e565b60006116ff61089292600f611b4a565b34610857576108c7610a9f611eac366004610a64565b611e86565b906101008282031261085757611ec78183610c42565b92611ed58260208501610d2e565b92611ee38360608301610df7565b9260e08201356001600160401b038111610857576108929201610eca565b34610857576108c7610968611f17366004611eb1565b929190916172c9565b3461085757610991611f3336600461115f565b6172ff565b3461085757611f483660046108cb565b610991617308565b6108926000601a610936565b3461085757611f6c3660046108cb565b6108c7610968611f50565b3461085757610991611f8a366004611b8e565b61733a565b61089260006022610936565b3461085757611fab3660046108cb565b6108c7610968611f8f565b6108929060081c6108df565b6108929054611fb6565b61089290610a78565b6108929054611fcc565b611fea906016611b4a565b90611ff48261186d565b9161200160018201611880565b9161200e60018301611fc2565b9161201b6002820161186d565b91610892600461202d6003850161186d565b9301611fd5565b919461207561207c9298979561206e60a09661206561087c9a61205c60c08a019e60008b0152565b15156020890152565b15156040870152565b6060850152565b6080830152565b01906001600160a01b03169052565b34610857576108c76120a66120a1366004610a64565b611fdf565b926120b696949692919260405190565b96879687612034565b6112b761089292611b68600093601361128f565b34610857576108c76108b46120e9366004610afc565b906120bf565b3461085757610991612102366004610b38565b9493909392919261739a565b6108926000611b3d565b61089261210e565b34610857576121303660046108cb565b6108c7610968612118565b9190604083820312610857576108929060206116b28286610aef565b346108575761099161216a36600461213b565b906173a8565b600d548110156108575761218861089291600d611d84565b90611bd2565b34610857576108c7610a446121a4366004610a64565b612170565b34610857576108c76108b46121bf36600461115f565b6173b3565b6121d46121d060049390565b9190565b6000915b8383106121e55750505050565b6121fb610ffe600192845160ff16815260200190565b920191906121d8565b6122106121d060029390565b6000915b8383106122215750505050565b612237610ffe600192845160ff16815260200190565b92019190612214565b8051825290610892906101c06101406122ed6101e0840161226960208801516020870190611a3d565b61227b604088015160408701906121c4565b61228d606088015160c0870190612204565b61229d6080880151610100870152565b6122ad60a0880151610120870152565b6122bb60c088015184870152565b60e087015115156101608601526122d9610100880151610180870152565b6101208701518582036101a08701526109e0565b940151910152565b602080825261089292910190612240565b34610857576108c761232161231c366004610a64565b617683565b604051918291826122f5565b8051825261087c919060a090819060208181015115159085015260408181015115159085015261236260608201516060860152565b61237160808201516080860152565b01516001600160a01b0316910152565b60c08101929161087c919061232d565b34610857576108c76123ac6123a7366004610a64565b61777f565b60405191829182612381565b61089260006035611553565b34610857576123d43660046108cb565b6108c7610a9f6123b8565b34610857576109916123f2366004610b38565b949390939291926177f2565b34610857576108c76108b4612414366004610a64565b61789a565b34610857576108c7610a4461242f366004611b8e565b6178e7565b6108926000602b610936565b34610857576124503660046108cb565b6108c7610968612434565b90608082820312610857576124708183610aef565b9261247e8260208501610aef565b9261248c8360408301610a57565b9260608201356001600160401b038111610857576108929201610eca565b34610857576109916124bd36600461245b565b9291909161799b565b60006116ff610892926037611b4a565b34610857576108c7610a9f6124ec366004610a64565b6124c6565b909161012082840312610857576125088383610aef565b926125168160208501610aef565b926125248260408301610aef565b926125328360608401610a57565b926125408160808501610a57565b9261254e8260a08301610a57565b9261089261255f8460c08501610a57565b93610100610b188260e08701610a57565b34610857576109916125833660046124f1565b97969096959195949294617b55565b34610857576125a23660046108cb565b6108c7610968617b66565b600a548110156108575761218861089291600a611d84565b34610857576108c7610a446125db366004610a64565b6125ad565b6000611b6d61089292601261128f565b34610857576108c761096861260636600461115f565b6125e0565b346108575761261b3660046108cb565b6108c761106b617b70565b61089260006024610936565b34610857576126423660046108cb565b6108c7610968612626565b346108575761265d3660046108cb565b6108c7610968617b7d565b34610857576108c7610a4461267e366004610a64565b617beb565b61089260006033611553565b346108575761269f3660046108cb565b6108c7610a9f612683565b34610857576109916126bd36600461115f565b617c20565b6000611b6d61089292601061128f565b34610857576108c76109686126e836600461115f565b6126c2565b346108575761099161270036600461115f565b617c51565b34610857576127153660046108cb565b6108c7600080516020619cd1833981519152610968565b61089260006019610936565b34610857576127483660046108cb565b6108c761096861272c565b346108575761099161276636600461139b565b90617c75565b346108575761277c3660046108cb565b6108c7610968617c7f565b34610857576127973660046108cb565b6108c7610968617c89565b61089260006028610936565b34610857576127be3660046108cb565b6108c76109686127a2565b34610857576127d93660046108cb565b6108c7610968617c93565b6108926000602f610936565b34610857576128003660046108cb565b6108c76109686127e4565b346108575761281b3660046108cb565b6108c7610a9f617c9d565b9190604083820312610857576108929060206113b78286610aef565b34610857576108c76108b4612858366004612826565b90617ca7565b6000611bf861089292600b611bb2565b34610857576108c7610a44612884366004611b8e565b61285e565b6108926000602d610936565b34610857576128a53660046108cb565b6108c7610968612889565b34610857576109916128c336600461115f565b617ce0565b6108926000601f610936565b34610857576128e43660046108cb565b6108c76109686128c8565b6108926000601b610936565b346108575761290b3660046108cb565b6108c76109686128ef565b3461085757610991612929366004610a64565b617e21565b61089260006018610936565b346108575761294a3660046108cb565b6108c761096861292e565b61089290617e2a565b1561296557565b60405162461bcd60e51b815260206004820152601060248201526f14185d5cd8589b194e881c185d5cd95960821b6044820152606490fd5b0390fd5b6129ba6129b56129b16017611880565b1590565b61295e565b61087c61087c60016129cc6035611fd5565b6173a8565b61087c6129a1565b61089290611958565b61089260006129d9565b610892906129f981617e33565b50617e84565b61087c913391617e9b565b15612a1157565b60405162461bcd60e51b815260206004820152602360248201527f41757468436f6e74726f6c3a2043616c6c6572206973206e6f7420616e20616460448201526236b4b760e91b6064820152608490fd5b9061087c9594939291612a7c612a7733614c06565b612a0a565b612aac565b90600019905b9181191691161790565b90612aa1610892612aa892611b3d565b8254612a81565b9055565b92612ad961087c969593612ad2612ae094612acb612ae7986024612a91565b6025612a91565b6026612a91565b6027612a91565b6028612a91565b6029612a91565b9061087c9594939291612a62565b15612b0357565b60405162461bcd60e51b815260206004820152602d60248201527f66756e6374696f6e2063616c6c61626c652066726f6d2074726561737572792060448201526c636f6e7472616374206f6e6c7960981b6064820152608490fd5b9061089294939291612b7d612b76610a786034611fd5565b3314612afc565b9061089294939291612b956129b56129b16017611880565b613728565b15612ba157565b60405162461bcd60e51b815260206004820152602660248201527f496e70757420617272617973206d7573742068617665207468652073616d65206044820152650d8cadccee8d60d31b6064820152608490fd5b90612c02610c5f83610c21565b918252565b369037565b9061087c612c22612c1c84612bf5565b93610c21565b601f190160208401612c07565b90612c38825190565b811015611861576020809102010190565b9060045b811015611861576020020190565b634e487b7160e01b600052601160045260246000fd5b612c809060ff165b9160ff1690565b019060ff8211612c8c57565b612c5b565b6108929051611a2a565b6108df6108926108929290565b15612caf57565b60405162461bcd60e51b815260206004820152602e60248201527f416c6c207175616472616e7473206d7573742062652031206f72203220666f7260448201526d20434f4d4d4f4e2072617269747960901b6064820152608490fd5b15612d1257565b60405162461bcd60e51b815260206004820152601760248201527f323232322069732052415245206e6f7420434f4d4d4f4e0000000000000000006044820152606490fd5b15612d5e57565b60405162461bcd60e51b815260206004820152602c60248201527f416c6c207175616472616e7473206d7573742062652032206f72203320666f7260448201526b20524152452072617269747960a01b6064820152608490fd5b15612dbf57565b60405162461bcd60e51b815260206004820152601760248201527f3333333320697320554e49515545206e6f7420524152450000000000000000006044820152606490fd5b15612e0b57565b60405162461bcd60e51b815260206004820152602e60248201527f416c6c207175616472616e7473206d7573742062652033206f72203420666f7260448201526d20554e495155452072617269747960901b6064820152608490fd5b15612e6e57565b60405162461bcd60e51b815260206004820152601760248201527f343434342069732045504943206e6f7420554e495155450000000000000000006044820152606490fd5b15612eba57565b60405162461bcd60e51b815260206004820152602c60248201527f416c6c207175616472616e7473206d7573742062652034206f72203520666f7260448201526b20455049432072617269747960a01b6064820152608490fd5b15612f1b57565b60405162461bcd60e51b815260206004820152601a60248201527f35353535206973204c4547454e44415259206e6f7420455049430000000000006044820152606490fd5b15612f6757565b60405162461bcd60e51b815260206004820152603160248201527f416c6c207175616472616e7473206d7573742062652035206f72203620666f72604482015270204c4547454e444152592072617269747960781b6064820152608490fd5b15612fcd57565b60405162461bcd60e51b815260206004820152601c60248201527f36363636206973204d5954484943206e6f74204c4547454e44415259000000006044820152606490fd5b1561301957565b60405162461bcd60e51b815260206004820152602960248201527f416c6c207175616472616e7473206d757374206265203620666f72204d59544860448201526849432072617269747960b81b6064820152608490fd5b919061307b565b9290565b8201809211612c8c57565b610892610160610c0d565b9061089590611a2a565b9060ff90612a87565b906130b4610892612aa892611a34565b825461309b565b9160001960089290920291821b911b612a87565b921b90565b91906130e5610892612aa893611b3d565b9083546130bb565b61087c916000916130d4565b818110613104575050565b8061311260006001936130ed565b016130f9565b9061312b90600019906020036008021c90565b8154169055565b91909182821061314157505050565b61087c926020601f909101049060016020613164601f86018290049390565b9390565b9283019406026000811161317b575b5001906130f9565b6131889060018503613118565b38613173565b90600160401b8111610c085761087c9160045b90613132565b91906008612a879102916130cf60ff841b90565b906004906130776131d091610892848661318e565b602082049160005b83811061323e5750602083029003600081116131f5575b50505050565b9260009360005b818110613211575050500155388080806131ef565b909194602061323460019261322a6108928a5160ff1690565b90858502906131a7565b96019291016131fc565b6000805b602081106132575750838201556001016131d8565b9590602061327960019261326f610892865160ff1690565b908a8502906131a7565b92019601613242565b9061087c916131bb565b90600160401b8111610c085761087c9160026131a1565b906002906130776132b891610892848661328c565b602082049160005b83811061331b5750602083029003600081116132dc5750505050565b9260009360005b8181106132f8575050500155388080806131ef565b909194602061331160019261322a6108928a5160ff1690565b96019291016132e3565b6000805b602081106133345750838201556001016132c0565b9590602061334c60019261326f610892865160ff1690565b9201960161331f565b9061087c916132a3565b906130b4610892612aa892151590565b9190601f811161337e57505050565b61339061087c93600052602060002090565b906020601f8401819004830193106133b3575b6020601f909101045b01906130f9565b90915081906133a3565b600019600883021c1916906002021790565b906133d8815190565b906001600160401b038211610c08576133fb826133f585546118a0565b8561336f565b602090601f831160011461342957612aa892916000918361341e575b50506133bd565b015190503880613417565b601f1983169161343e85600052602060002090565b9260005b81811061347c57509160029391856001969410613463575b50505002019055565b01516000196008601f8516021c1916905538808061345a565b91936020600181928787015181550195019201613442565b9061087c916133cf565b600a61359761014061087c946134be6134b8600083015190565b86612a91565b6134d66134cd60208301612c91565b600187016130a4565b6134ed6134e4604083015190565b60028701613282565b6135046134fb606083015190565b60038701613355565b61351b613512608083015190565b60048701612a91565b61353261352960a083015190565b60058701612a91565b61354961354060c083015190565b60068701612a91565b61356261355960e0830151151590565b6007870161335f565b61357a61357161010083015190565b60088701612a91565b61359261358961012083015190565b60098701613494565b015190565b9101612a91565b9190611be35761087c9161349e565b90815491600160401b831015610c0857826135d091600161087c9501815561183e565b9061359e565b91908203918211612c8c57565b6108926108926108929263ffffffff1690565b1561085757565b906001600160a01b0390612a87565b9061361c610892612aa892611286565b82546135fd565b6000198114612c8c5760010190565b61363e6121d060029390565b6000915b83831061364f5750505050565b613665610ffe600192845160ff16815260200190565b92019190613642565b61367a6121d060049390565b6000915b83831061368b5750505050565b6136a1610ffe600192845160ff16815260200190565b9201919061367e565b989795613702610160966136fa6137189760808e6136f361370a989a61087c9f9a6136ec906136e261018086019e6000870190611a3d565b6020850190613632565b6060830152565b019061366e565b6101008c0152565b6101208a0152565b8782036101408901526109e0565b9401906001600160a01b03169052565b50805190939061373c6121d0610892855190565b148061444c575b8061442a575b61375290612b9a565b61376261375d855190565b612c0c565b926000918291839484976000986137788a611b3d565b613783610892845190565b81101561441c576137b26137ab8c6137a561379e858a612c2f565b5191611b3d565b90612c49565b5160ff1690565b6137d96137bf8388612c2f565b51916137d36137ab6001946137a586611b3d565b90612c71565b6137fa6137e68489612c2f565b51916137d36137ab6002946137a586611b3d565b8d61381c613808868b612c2f565b51926137d36137ab6003956137a587611b3d565b9061384161383b613835613830898c612c2f565b612c91565b92611a2a565b91611a2a565b1461428a575b6138546138308689612c2f565b61386061383b86611a2a565b146140f8575b6138736138308689612c2f565b61387f61383b85611a2a565b14613f58575b6138926138308689612c2f565b61389e61383b84611a2a565b14613da1575b6138b16138308689612c2f565b6138be61383b6004611a2a565b14613be1575b506138d26138308588612c2f565b6138df61383b6005611a2a565b14613adc575b50506138f18285612c2f565b6138fa90612c91565b906139058388612c2f565b51918d6139128589612c2f565b519061391e8c42613070565b613928878d612c2f565b5192613932613086565b9661393c84611b3d565b95613947878a870152565b6139549060208a01613091565b60408801526060870152608086015261396e8e60a0870152565b6139798760c0870152565b151560e085015261398c8c610100860152565b6101208401526101408301526007916139a590836135ad565b8154906139b190611b3d565b6139ba916135d6565b908c6139c58361140b565b6139ce906135e3565b91836139db8185146135f6565b6139e49161183e565b5001906139f091612a91565b6139fb81600f611b4a565b33613a059161360c565b613a1033601061128f565b613a198161186d565b613a2290613623565b613a2b91612a91565b613a358133617ea8565b613a3f8288612c2f565b51613a4a9082617f06565b89613a558386612c2f565b613a5e90612c91565b8a613a698589612c2f565b5191613a75868b612c2f565b5192613a81878d612c2f565b518d613a8c88611b3d565b96613a9660405190565b9687963395613aa597896136aa565b037f5ea0402f9a8785c25ad31fd3e0e81f8c2b4ca231668cc82cd03fa34ea1f0ce3c91a2613ad3828c612c2f565b52600101613778565b92995092509850613b29929650613afd6137ab8c6137a561379e8c8a612c2f565b90600691613b0d612c7984612c9b565b149283613bb2575b83613b87575b5082613b5c575b5050613012565b613b33602f61186d565b93613b3e602961186d565b96613b49602361186d565b96613b54601d61186d565b9138806138e5565b613b7f919250613b796137ab612c79926137a561379e8d8b612c2f565b92612c9b565b143880613b22565b613b9e9193506137ab906137a561379e8c8a612c2f565b613baa612c7983612c9b565b149138613b1b565b9250613bce6137ab613bc48b89612c2f565b516137a58d611b3d565b613bda612c7984612c9b565b1492613b15565b929b5093509850819750613c026137ab8d6137a561379e613c4a968b612c2f565b600590613c11612c7983612c9b565b148d8115613d77575b5080613d28575b80613ce1575b80613c7c575b613c379150612f60565b613c44612c796018612c9b565b10612fc6565b613c54602e61186d565b95613c5f602861186d565b98613c6a602261186d565b98613c75601c61186d565b93386138c4565b50613c9d612c79613b796137ab613c938d8c612c2f565b516137a589611b3d565b148015613cae575b613c3790613c2d565b50613c37613ccc6137ab613cc28b8a612c2f565b516137a587611b3d565b613cd9612c796006612c9b565b149050613ca5565b50613cf26137ab613bc48b8a612c2f565b613cfe612c7983612c9b565b1480613c275750613d156137ab613bc48b8a612c2f565b613d22612c796006612c9b565b14613c27565b50613d3d6137ab8c6137a561379e8d8c612c2f565b613d49612c7983612c9b565b1480613c215750613d646137ab8c6137a561379e8d8c612c2f565b613d71612c796006612c9b565b14613c21565b613d8d91506137ab906137a561379e8d8c612c2f565b613d9a612c796006612c9b565b148d613c1a565b9450995099509650613dbd6137ab8c6137a561379e858a612c2f565b600490613dcc612c7983612c9b565b148015613f30575b80613edf575b80613e98575b80613e39575b613df09150612eb3565b613e08613dfd6014612c9b565b60ff84165b10612f14565b613e12602d61186d565b96613e1d602761186d565b99613e28602161186d565b99613e33601b61186d565b946138a4565b50613e54612c79613b796137ab8c6137a561379e888d612c2f565b148015613e65575b613df090613de6565b50613df0613e836137ab613e798489612c2f565b516137a58c611b3d565b613e90612c796005612c9b565b149050613e5c565b50613ea96137ab613bc48489612c2f565b613eb5612c7983612c9b565b1480613de05750613ecc6137ab613bc48489612c2f565b613ed9612c796005612c9b565b14613de0565b50613efa6137ab613ef08489612c2f565b516137a58b611b3d565b613f06612c7983612c9b565b1480613dda5750613f1d6137ab613ef08489612c2f565b613f2a612c796005612c9b565b14613dda565b50613f456137ab8d6137a561379e868b612c2f565b613f52612c796005612c9b565b14613dd4565b9450995099509650613f746137ab8c6137a561379e858a612c2f565b613f80612c798a612c9b565b1480156140d0575b8061407f575b80614038575b80613fec575b613fa390612e04565b613fbb613fb06010612c9b565b60ff84165b10612e67565b613fc5602c61186d565b96613fd0602661186d565b99613fdb602061186d565b99613fe6601a61186d565b94613885565b50613ffd6137ab613ef08388612c2f565b614009612c798a612c9b565b1480613f9a5750613fa36140236137ab613e798489612c2f565b614030612c796004612c9b565b149050613f9a565b506140496137ab613e798388612c2f565b614055612c798a612c9b565b1480613f94575061406c6137ab613e798388612c2f565b614079612c796004612c9b565b14613f94565b5061409a6137ab6140908388612c2f565b516137a58a611b3d565b6140a6612c798a612c9b565b1480613f8e57506140bd6137ab6140908388612c2f565b6140ca612c796004612c9b565b14613f8e565b506140e56137ab8c6137a561379e858a612c2f565b6140f2612c796004612c9b565b14613f88565b94509950995096506141146137ab8c6137a561379e858a612c2f565b614120612c798b612c9b565b148015614263575b8061421d575b806141d7575b8061418c575b61414390612d57565b61415b614150600c612c9b565b60ff84165b10612db8565b614165602b61186d565b96614170602561186d565b9961417b601f61186d565b99614186601961186d565b94613866565b5061419d6137ab613ef08388612c2f565b6141a9612c798b612c9b565b148061413a57506141436141c36137ab613e798489612c2f565b6141cf612c798b612c9b565b14905061413a565b506141e86137ab613e798388612c2f565b6141f4612c798b612c9b565b1480614134575061420b6137ab613e798388612c2f565b614217612c798a612c9b565b14614134565b5061422e6137ab6140908388612c2f565b61423a612c798b612c9b565b148061412e57506142516137ab6140908388612c2f565b61425d612c798a612c9b565b1461412e565b506142786137ab8c6137a561379e858a612c2f565b614284612c798a612c9b565b14614128565b94509950995096506142a66137ab8c6137a561379e858a612c2f565b6142b2612c7989612c9b565b1480156143f5575b806143af575b80614369575b8061431e575b6142d590612ca8565b6142ed6142e26008612c9b565b60ff84165b10612d0b565b6142f7602a61186d565b96614302602461186d565b9961430d601e61186d565b99614318601861186d565b94613847565b5061432f6137ab613ef08388612c2f565b61433b612c7989612c9b565b14806142cc57506142d56143556137ab613e798489612c2f565b614361612c798c612c9b565b1490506142cc565b5061437a6137ab613e798388612c2f565b614386612c7989612c9b565b14806142c6575061439d6137ab613e798388612c2f565b6143a9612c798b612c9b565b146142c6565b506143c06137ab6140908388612c2f565b6143cc612c7989612c9b565b14806142c057506143e36137ab6140908388612c2f565b6143ef612c798b612c9b565b146142c0565b5061440a6137ab8c6137a561379e858a612c2f565b614416612c798b612c9b565b146142ba565b505050505050505050905090565b50613752614436845190565b6144446121d0610892855190565b149050613749565b50815161445d6121d0610892865190565b14613743565b610892939291906060612b5e565b610892601861186d565b61087c9061448b612a7733614c06565b6144e9565b9190611be35761087c916133cf565b90815491600160401b831015610c0857826144c291600161087c95018155611d84565b90614490565b60ff1660ff8114612c8c5760010190565b906130b4610892612aa892611ba2565b614506816145016144fa6009611880565b6008611bb2565b613494565b61451181600a61449f565b61452d6145266145216009611880565b6144c8565b60096144d9565b7fe4d2864ec291f6f11cb3363fa1bd2a4d5ff49a2cfdf4bf7dfe3b90a26b8c776f61456d61456361455e6009611880565b611ba2565b92610a4860405190565b0390a2565b61087c9061447b565b9061087c91617f06565b610892601c61186d565b61087c9061459f612a7733614c06565b61087c906145ab61210e565b615ef0565b61087c9061458f565b6108926145c560075490565b6145cf6001611b3d565b906135d6565b61087c906145e5612a7733614c06565b6145fd816145016145f6600c611880565b600b611bb2565b61460881600d61449f565b61461f614618614521600c611880565b600c6144d9565b7fd961fa20561746b8576d7b504b0bc57067c67db2ce13bd9866d451bec5985f4b61456d61456361455e600c611880565b61087c906145d5565b61467061089291614668600090565b50601161128f565b611880565b906108929161468a6129b56129b16017611880565b6148ba565b610a786108926108929290565b6108929061468f565b156146ac57565b60405162461bcd60e51b815260206004820152600c60248201526b7a65726f206164647265737360a01b6044820152606490fd5b156146e757565b60405162461bcd60e51b815260206004820152600d60248201526c3737ba1033b2b69037bbb732b960991b6044820152606490fd5b1561472357565b60405162461bcd60e51b815260206004820152602360248201527f47656d20636f6f6c646f776e20706572696f6420686173206e6f7420656c61706044820152621cd95960ea1b6064820152608490fd5b1561477b57565b60405162461bcd60e51b815260206004820152602860248201527f47656d206973206c697374656420666f722073616c65206f7220616c7265616460448201526779206d696e696e6760c01b6064820152608490fd5b156147d857565b60405162461bcd60e51b815260206004820152601c60248201527f726172697479206d757374206265206174206c656173742052415245000000006044820152606490fd5b1561482457565b60405162461bcd60e51b815260206004820152602160248201527f6e6f206d696e696e6720706f776572206c65667420666f7220746861742047456044820152604d60f81b6064820152608490fd5b8015612c8c576000190190565b6148b661087c946148af60609498979561489f608086019a6000870152565b6001600160a01b03166020850152565b6040830152565b0152565b507fcfdb0da0eda7e72692cc304e4e58d2543a70ce5269931e91e02337cbff2a1ef1906148f56148ed610a78600061469c565b3314156146a5565b614919614901826160fc565b614913335b916001600160a01b031690565b146146e0565b614a25600661493683600761494561493d6004614936858561183e565b500161186d565b42101561471c565b6149656149606129b183614959868261183e565b5001611880565b614774565b61498b6149776001614959858561183e565b61498461383b6000611a2a565b14156147d1565b6149b061499c85614936858561183e565b6149a96121d06000611b3d565b141561481d565b6149c960016149c484611b6833601361128f565b61335f565b6149e26149db83611b6833601461128f565b4290612a91565b6149f96001826149f2858261183e565b500161335f565b614a2084614a07848461183e565b5001614a1a614a158261186d565b614873565b90612a91565b61183e565b90614a3f614a3260405190565b9283924290339085614880565b0390a1600190565b610892906000614675565b9061087c9291614a686129b56129b16017611880565b614b19565b15614a7457565b60405162461bcd60e51b815260206004820152600d60248201526c11d95b481a5cc81b1bd8dad959609a1b6044820152606490fd5b15614ab057565b60405162461bcd60e51b815260206004820152601d60248201527f73656e646572206973206e6f742074686520746f6b656e206f776e65720000006044820152606490fd5b6001600160a01b0391821681529116602082015260608101929161087c9160400152565b614bd17f85d07a7616aea29f5d972fd9100b991c224490bd49b737377d908f66f34d9afd93614b5f614b4e610a78600061469c565b6001600160a01b03861614156135f6565b614b716001600160a01b038416614b4e565b614b8b614b866129b16007614959858261183e565b614a6d565b614baf614b97826160fc565b614ba96001600160a01b038616614906565b14614aa9565b614bba818585617f4d565b614bc5818585617fe1565b60405193849384614af5565b0390a1565b9061087c9291614a52565b90611299565b6001614c0061089292614bf8600090565b50603a614be1565b0161186d565b61089290614c1261210e565b616743565b9061089291614c2c6129b56129b16017611880565b614d7a565b15614c3857565b60405162461bcd60e51b815260206004820152601a60248201527f6e6f742047454d206f776e6572206f72206e6f742061646d696e0000000000006044820152606490fd5b15614c8457565b60405162461bcd60e51b815260206004820152601d60248201527f6d696e696e6720706572696f6420686173206e6f7420656c61707365640000006044820152606490fd5b15614cd057565b60405162461bcd60e51b815260206004820152601260248201527147656d73206973206e6f74206d696e696e6760701b6044820152606490fd5b15614d1157565b60405162461bcd60e51b815260206004820152600e60248201526d67656d206e6f74206d696e696e6760901b6044820152606490fd5b614d546108926108929290565b61ffff1690565b6040513d6000823e3d90fd5b90815260408101929161087c9160200152565b50614d84816160fc565b614d8d33614906565b148015614fb4575b614d9e90614c31565b614db5614db082611b6833601461128f565b61186d565b90614dde614dd7610892600794614dd16005614936878961183e565b90613070565b4211614c7d565b614dec82614959838261183e565b60019290614e0590614dff855b91151590565b14614cc9565b614e33614e2261467084611b68614e1b826160fc565b601361128f565b614e2d851515614df9565b14614d0a565b600091614e50614e41611421565b614e4a85614d47565b806180ec565b614e6781600a614e60858761183e565b5001612a91565b6016614e7e8386614e788585611b4a565b01612a91565b614e938680614e8d8585611b4a565b0161335f565b614eaa614ea08383611b4a565b600433910161360c565b614ec7614ec0614eba603161186d565b60010190565b6031612a91565b614edc614ed7614ed76036611fd5565b611286565b92833b156108575785614eee60405190565b6324adeca760e11b815260048101859052948590602490829084905af1958615614faf576003614c008561493695611b68600a9889614e60897fd8d282938b8a25adfd1ff3df570c529f147b9700ff1a12712d2a2f737cfff5149f8f909a614f669f614f609c614f82575b505061183e565b9461183e565b90614f7c614f7360405190565b92839283614d67565b0390a190565b81614fa192903d10614fa8575b614f998183610be7565b8101906108cb565b3880614f59565b503d614f8f565b614d5b565b50614d9e614fc133614c06565b614fcb6001614df9565b149050614d95565b610892906000614c17565b600761495961089292614fef600090565b508261183e565b6108926033611fd5565b9061087c9161501661501182614be7565b6181bd565b90615020916181c8565b50565b9061087c91615000565b61087c9061503d612a7733614c06565b61087c90600080516020619cd1833981519152615ef0565b61087c9061502d565b906108929291615070612a7733614c06565b6150ff565b9050519061087c82611681565b906020828203126108575761089291615075565b6001600160a01b03909116815260408101929161087c9160200152565b156150ba57565b60405162461bcd60e51b815260206004820152601860248201527f6661696c656420746f207472616e7366657220746f6b656e00000000000000006044820152606490fd5b5061514091602091615115614ed7806034611fd5565b90600061512160405190565b8096819582946151356348dbcef060e01b90565b845260048401615096565b03925af18015614faf5761515c91600091615161575b506150b3565b600190565b615183915060203d602011615189575b61517b8183610be7565b810190615082565b38615156565b503d615171565b6108929190600061505e565b906108929392916151b36129b56129b16017611880565b615469565b906002612c4d565b156151c757565b60405162461bcd60e51b815260206004820152602160248201527f77726f6e67206e756d626572206f662047656d7320746f20626520666f7267656044820152601960fa1b6064820152608490fd5b610c5f61089291610cbc565b9061087c61523861523284615216565b93610cbc565b83612c07565b6108926004615222565b1561524f57565b60405162461bcd60e51b81526020600482015260096024820152683737ba1037bbb732b960b91b6044820152606490fd5b1561528757565b60405162461bcd60e51b815260206004820152601c60248201527f47656d20697320666f722073616c65206f72206973206d696e696e67000000006044820152606490fd5b156152d357565b60405162461bcd60e51b815260206004820152601160248201527077726f6e67207261726974792047656d7360781b6044820152606490fd5b909190600483101561186157602061532360019290565b8185040193060290565b1561533457565b60405162461bcd60e51b815260206004820152601c60248201527f7468697320636f6c6f722063616e2774206265206f627461696e6564000000006044820152606490fd5b634e487b7160e01b600052601260045260246000fd5b61539b9060ff16612c79565b9081156153a6570690565b615379565b6001610892910160ff1690565b6108926108926108929260ff1690565b6153d86108926108929260ff1690565b611a2a565b90612c02610c5f83610e78565b61089260006153dd565b6108926153ea565b9297969461545e906154546101409661544a61544261087c9b966148b6986154356101608c019260008d01906001600160a01b03169052565b8a820360208c0152610fe5565b9c6040890152565b6060870190611a3d565b608085019061366e565b610100830190613632565b506000929061547d6148ed610a788661469c565b6000926154956137ab61548f87611b3d565b856151b8565b926001916154ae6137ab6154a885611b3d565b846151b8565b926154b888611a2a565b6154c183611a2a565b03615d2d576154e46154d1865190565b6154de6121d06002611b3d565b146151c0565b6154ee601f61186d565b936154f9602561186d565b92615504601961186d565b918a84615511602b61186d565b9a90505b61551d61523e565b928680848d61552b82611b3d565b935b615a0a575b5050505050506155419061532d565b61554b88336189d1565b8a6002918561555984612c9b565b9161559561557b846155766137ab61557089611b3d565b86612c49565b61538f565b61558d61558787611b3d565b84612c49565b9060ff169052565b6155b76155ab846155766137ab61557087611b3d565b61558d61558785611b3d565b6155d96155cd846155766137ab6155708a611b3d565b61558d61558788611b3d565b60039261560a6155f8826155766137ab6155f289611b3d565b87612c49565b61558d61560487611b3d565b85612c49565b61561261523e565b9e9061561d86611a2a565b61562689611a2a565b0361594c5761564391509390508e919695945b8361564382612c9b565b905b6158dd575b5061569a975061565f6137ab61560483611b3d565b615677612c796108df61567188612c9b565b89612c71565b14806158b5575b8061588d575b80615865575b615819575b505050505050611a34565b6156a383612c9b565b6156ac91612c71565b6156b5906153c8565b966156c09042613070565b906156c9613086565b936156d38b611b3d565b926156de84878e0152565b6156eb8a60208801613091565b604086018b905260608601879052608086015260a085015260c084015288151560e084015261571c85610100850152565b6157246153f4565b61012084015261014083015260079161573d90836135ad565b81549061574990611b3d565b615752916135d6565b9687918261575f9161183e565b50019061576b91612a91565b6157748661140b565b61577d906135e3565b8614615788906135f6565b61579386600f611b4a565b3361579d9161360c565b6157a833601061128f565b6157b18161186d565b6157ba90613623565b6157c391612a91565b6157cd8633617ea8565b6157d56153f4565b6157df9087617f06565b6040519485948733956157f296886153fc565b037fb008433c5118253ef92bed2a1bd3b95470d4c373e1c4b9586459e65204efa8c491a190565b8461558d615854946137a561585a9961584f8561558d61557061558d9c61584f8461558d61584961584f9e611b3d565b8b612c49565b611b3d565b8d612c49565b3880858c828f61568f565b506158756137ab61560484611b3d565b615887612c796108df61567188612c9b565b1461568a565b5061589d6137ab61560488611b3d565b6158af612c796108df61567188612c9b565b14615684565b506158c56137ab61560486611b3d565b6158d7612c796108df61567188612c9b565b1461567e565b919495969792906158ee6004612c9b565b60ff8416101561593f57509061592c6159319261558d61592261591c6137ab615916876153b8565b89612c49565b8a612c71565b916137a5856153b8565b6153ab565b928f8f929796959484615645565b909288979695925061564a565b5061595683611a2a565b61595f88611a2a565b03615980575061564361597184612c9b565b945b8f92979695949150615639565b61598986611a2a565b61599288611a2a565b036159ab57506156436159a56004612c9b565b94615973565b6159b484611a2a565b6159bd88611a2a565b036159d057506156436159a56005612c9b565b936159db6004611a2a565b6159e488611a2a565b146159f3575b61564390615973565b9350615643615a026006612c9b565b9490506159ea565b51831015615d2757908d8195949392600f615a258584612c2f565b51615a2f91611b4a565b615a3890611fd5565b615a4c906001600160a01b03163314615248565b615a568483612c2f565b51615a6090614fde565b15615a6a90615280565b600783615a778685612c2f565b51615a82908361183e565b5001615a8d90611880565b615a968c611a2a565b90615aa090611a2a565b14615aaa906152cc565b81615ab58685612c2f565b51615ac0908361183e565b5060020190615ace9161530c565b615ad7916108e5565b615ae083611b3d565b615aea908c612c49565b5160ff1690615af891612c71565b615b0183611b3d565b615b0b908c612c49565b60ff909116905283615b1d8685612c2f565b51615b28908361183e565b5060020190615b369161530c565b615b3f916108e5565b615b4885611b3d565b615b52908c612c49565b5160ff1690615b6091612c71565b615b6985611b3d565b615b73908c612c49565b60ff9091169052615b848584612c2f565b51615b8f908261183e565b506002019060029182615ba19161530c565b615baa916108e5565b615bb383611b3d565b615bbd908d612c49565b5160ff1690615bcb91612c71565b615bd483611b3d565b615bde908d612c49565b60ff9091169052615bef8685612c2f565b51615bf99161183e565b500160039081615c089161530c565b615c11916108e5565b615c1a82611b3d565b615c24908c612c49565b5160ff1690615c3291612c71565b90615c3c90611b3d565b615c46908b612c49565b60ff9091169052615c5690611b3d565b915b615c6d575b50506001019091928f8d8261552d565b610892615c7d9196939495965190565b811015615d1c578d8615615c9c575b506001015b8d8295949392615c58565b819650848682615cc6615cbc615c9196615cc0615cbc8b615ccc99612c2f565b5190565b93612c2f565b9061824e565b9586615cdb575b90508d615c8c565b7fca7a2fe4405fb5bae2732ff63f6d1976dec8ed09ba2fae7003a209e26154b08f615d0560405190565b60ff888116825287166020820152604090a1615cd3565b8d9493929194615c5d565b8d615532565b615d3681611a2a565b615d3f83611a2a565b03615d9257615d5c615d4f865190565b6154de6121d06003611b3d565b615d66602061186d565b93615d71602661186d565b92615d7c601a61186d565b918a84615d89602c61186d565b9a5b9050615515565b615d9c6002611a2a565b615da583611a2a565b03615df557615dc2615db5865190565b6154de6121d06004611b3d565b615dcc602161186d565b93615dd7602761186d565b92615de2601b61186d565b918a84615def602d61186d565b9a615d8b565b615dff6003611a2a565b615e0883611a2a565b03615e5257615e25615e18865190565b6154de6121d06005611b3d565b615e2f602261186d565b93615e3a602861186d565b92615e45601c61186d565b918a84615def602e61186d565b615e5c6004611a2a565b615e6583611a2a565b03615eaf57615e82615e75865190565b6154de6121d06006611b3d565b615e8c602361186d565b93615e97602961186d565b92615ea2601d61186d565b918a84615def602f61186d565b60405162461bcd60e51b815260206004820152600c60248201526b77726f6e672072617269747960a01b6044820152606490fd5b610892929190600061519c565b90615efa33610a78565b6001600160a01b03821603615f125761502091618a14565b60405163334bd91960e11b8152600490fd5b6001600160a01b03909116815260408101929161087c9160209061207c565b9190615f6e7f0000000000000000000000000000000000000000000000000000000000000000611286565b926001600160a01b0384163303615f8a5761087c929350618afb565b61299d84615f9760405190565b63073e64fd60e21b81529182913360048401615f24565b6108926034611fd5565b610892601d61186d565b15615fc957565b60405162461bcd60e51b815260206004820152602360248201527f41757468436f6e74726f6c3a2043616c6c6572206973206e6f7420612070617560448201526239b2b960e91b6064820152608490fd5b61604e6160497ffcb9fcbfa83b897fb2d5cf4b58962164105c1e71489a37ef3ae0db3fdce576f65b3390616743565b615fc2565b61087c6160616129b56129b16017611880565b61087c6160706000601761335f565b7f5db9ee0a495bf2e6ff9c91a7834c1ba4fdd244a5e8aa4e537bd38aeae4b073aa61609a60405190565b3381528060208101614bd1565b61087c61601a565b909161087c926160bd6153f4565b9261799b565b9061087c916160d8612b76610a786035611fd5565b9060076149f261087c938261183e565b9061087c916160c3565b610892602261186d565b61089290617e33565b610892601961186d565b61087c9061611f612a7733614c06565b61087c9061612b61210e565b615023565b61087c9061610f565b614db061089291616148600090565b50601061128f565b61615c612a7733614c06565b61087c61087c61616a61210e565b3390615ef0565b61087c616150565b61087c90616189612a7733614c06565b61621f565b1561619557565b60405162461bcd60e51b815260206004820152601860248201527f41636365737369626c653a207a65726f206164647265737300000000000000006044820152606490fd5b156161e157565b60405162461bcd60e51b815260206004820152601660248201527520b1b1b2b9b9b4b136329d1039b0b6b29030b236b4b760511b6044820152606490fd5b61087c90616244616233610a78600061469c565b6001600160a01b038316141561618e565b6162596001600160a01b0382163314156161da565b61616a61626461210e565b9182615023565b61087c90616179565b90610892916162896129b56129b16017611880565b6163b1565b1561629557565b60405162461bcd60e51b815260206004820152600d60248201526c3737ba1023a2a69037bbb732b960991b6044820152606490fd5b156162d157565b60405162461bcd60e51b815260206004820152601b60248201527f75736572206973206e6f74206d696e696e6720746869732047656d00000000006044820152606490fd5b1561631d57565b60405162461bcd60e51b815260206004820152602c60248201527f796f75206e65656420746f2063616c6c207069636b4d696e656447454d20667560448201526b1b98dd1a5bdb88199a5c9cdd60a21b6064820152608490fd5b9190616388610892612aa893151590565b9083546131a7565b61087c91600091616377565b90815260408101929161087c9160209061207c565b506163cd6163be826160fc565b6163c733614906565b1461628e565b6163df61467082611b6833601361128f565b600191906163f6906163f084614df9565b146162ca565b600761641461640982614959858261183e565b614dff851515614df9565b616423600a614936848461183e565b91601661644e61643d866164378785611b4a565b01611fc2565b616448871515614df9565b14616316565b616467600061646284611b6833601361128f565b616390565b616480600061647b84611b6833601461128f565b6130ed565b60009361649285856149f2868261183e565b6164a16003614c008385611b4a565b6164aa86611b3d565b81146165945785926164e56003614c006020956164cf888b6149f2616505998261183e565b6164df614ed7614ed76034611fd5565b94611b4a565b604051978893849283919063048dbcef60e41b5b83523360048401615096565b03925af1928315614faf5761655b61654f8361584f614f7c977f97b363697f59781efcf0539a3eeabceea1e3b444e248009d3730fa6a26db9c2499616586979161516157506150b3565b600a614e60868561183e565b6004614e608461658061657a6165758b614959858961183e565b618c58565b42613070565b9361183e565b60405191829133908361639c565b5050507f87c3badc36a4b7c7f2331493a7998c2f9c414769a1bc588ef4b4c7ef302aeb519250614f7c915061096c60405190565b610892906000616274565b6165ff6160497ffcb9fcbfa83b897fb2d5cf4b58962164105c1e71489a37ef3ae0db3fdce576f6616042565b61087c6166126129b56129b16017611880565b61087c6166216001601761335f565b7f62e78cea01bee320cd4e420270b5ea74000d11b0c9f74754ebdbfc544b05a25861609a60405190565b61087c6165d3565b61665c81616139565b60009061666882611b3d565b810361667d5750610892915061375d90611b3d565b61668690612c0c565b9161668f6145b9565b9061669983611b3d565b9250600191826166a96001611b3d565b905b6166b8575b505050505090565b81811161671f576166d26166cd82600f611b4a565b611fd5565b6166e46001600160a01b038516614906565b146166f9575b6166f390613623565b836166ab565b93616717816167128761670f6166f3958b612c2f565b52565b613623565b9490506166ea565b6166b0565b610892601f61186d565b610892601b61186d565b61089261604261210e565b61089291600061675861467093614bf8600090565b0161128f565b61089260016129d9565b9061089294939291616780612b76610a786034611fd5565b90610892949392916167986129b56129b16017611880565b509291906000936167ae6137ab61560487611b3d565b916167ca6001936137d36137ab6167c487611b3d565b88612c49565b6167df6002916137d36137ab61591685611b3d565b906167fb6003926137d36137ab6167f586611b3d565b8a612c49565b9061680589611a2a565b61680e86611a2a565b03616b0e57616858906168659361682a6137ab6158498d611b3d565b616836612c798a612c9b565b14918215616aea575b82616a9d575b82616a50575b826169fa575b5050612ca8565b6142e7612c796008612c9b565b61686f602a61186d565b9461687a602461186d565b95616885601e61186d565b94616890601861186d565b905b61689c8342613070565b6168a4613086565b926168ae8c611b3d565b916168b983868f0152565b6168c68960208701613091565b604085018b90526060850188905260808501526168e48b60a0860152565b60c08401528a151560e08401526168fd88610100850152565b610120830185905261014083015260079161691890836135ad565b81549061692490611b3d565b61692d916135d6565b986169398a809361183e565b50019061694591612a91565b61694e8861140b565b616957906135e3565b8814616962906135f6565b61696d88600f611b4a565b336169779161360c565b61698233601061128f565b61698b8161186d565b61699490613623565b61699d91612a91565b6169a78833617ea8565b6169b18289617f06565b6169ba88611b3d565b966169c460405190565b96879633956169d397896136aa565b037f5ea0402f9a8785c25ad31fd3e0e81f8c2b4ca231668cc82cd03fa34ea1f0ce3c91a290565b909150616a0c6137ab61584984611b3d565b616a18612c798a612c9b565b14918215616a2a575b50503880616851565b616a48919250613b796137ab616a42612c7993611b3d565b8c612c49565b143880616a21565b9150616a616137ab61584984611b3d565b616a6d612c798a612c9b565b148015616a7b575b9161684b565b50616a8b6137ab61584984611b3d565b616a97612c7984612c9b565b14616a75565b9150616aae6137ab6158498a611b3d565b616aba612c798a612c9b565b148015616ac8575b91616845565b50616ad86137ab6158498a611b3d565b616ae4612c7984612c9b565b14616ac2565b9150616afb6137ab6158498d611b3d565b616b07612c7984612c9b565b149161683f565b616b1786611a2a565b616b2086611a2a565b03616cad57616b6a90616b7793616b3c6137ab6158498d611b3d565b616b48612c7984612c9b565b14918215616c89575b82616c3c575b82616bef575b82616ba8575b5050612d57565b614155612c79600c612c9b565b616b81602b61186d565b94616b8c602561186d565b95616b97601f61186d565b94616ba2601961186d565b90616892565b909150616bc0612c79613b796137ab61585486611b3d565b14908115616bd1575b503880616b63565b9050616be8612c79613b796137ab616a4285611b3d565b1438616bc9565b9150616c006137ab61584984611b3d565b616c0c612c7984612c9b565b148015616c1a575b91616b5d565b50616c2a6137ab61584984611b3d565b616c36612c7983612c9b565b14616c14565b9150616c4d6137ab6158498a611b3d565b616c59612c7984612c9b565b148015616c67575b91616b57565b50616c776137ab6158498a611b3d565b616c83612c7983612c9b565b14616c61565b9150616c9a6137ab6158498d611b3d565b616ca6612c7983612c9b565b1491616b51565b616cb681611a2a565b616cbf86611a2a565b03616e5a57616d0990616d1693616cdb6137ab6158498d611b3d565b616ce7612c7983612c9b565b14918215616e35575b82616de7575b82616d93575b5081616d41575b50612e04565b613fb5612c796010612c9b565b616d20602c61186d565b94616d2b602661186d565b95616d36602061186d565b94616ba2601a61186d565b9050616d526137ab6167f583611b3d565b616d5e612c7983612c9b565b14908115616d6e575b5038616d03565b616d7f91506159166137ab91611b3d565b616d8c612c796004612c9b565b1438616d67565b909150616da56137ab61584983611b3d565b616db1612c7984612c9b565b14908115616dc2575b509038616cfc565b616dd391506167f56137ab91611b3d565b616de0612c796004612c9b565b1438616dba565b9150616df86137ab6158498a611b3d565b616e04612c7983612c9b565b148015616e12575b91616cf6565b50616e226137ab6158498a611b3d565b616e2f612c796004612c9b565b14616e0c565b9150616e466137ab6158498d611b3d565b616e53612c796004612c9b565b1491616cf0565b616e6383611a2a565b616e6c86611a2a565b0361700b57616ebc90616ec993616e886137ab6158498d611b3d565b600490616e97612c7983612c9b565b14928c8415616fe4575b5083616f96575b83616f42575b5082616ef4575b5050612eb3565b613e02612c796014612c9b565b616ed3602d61186d565b94616ede602761186d565b95616ee9602161186d565b94616ba2601b61186d565b909150616f0c612c79613b796137ab61585486611b3d565b14908115616f1d575b503880616eb5565b616f2e91506159166137ab91611b3d565b616f3b612c796005612c9b565b1438616f15565b909250616f546137ab616a4283611b3d565b616f60612c7985612c9b565b14908115616f71575b509138616eae565b616f8291506158496137ab91611b3d565b616f8f612c796005612c9b565b1438616f69565b9250616fa76137ab616a428b611b3d565b616fb3612c7983612c9b565b148015616fc1575b92616ea8565b50616fd16137ab616a428b611b3d565b616fde612c796005612c9b565b14616fbb565b616ff6919450616a426137ab91611b3d565b617003612c796005612c9b565b14928c616ea1565b6170156004611a2a565b61701e86611a2a565b036171b057613c379061706e9361703a6137ab6158498d611b3d565b600590617049612c7983612c9b565b14928c8415617189575b508361713b575b836170e7575b5082617099575b5050612f60565b617078602e61186d565b94617083602861186d565b9561708e602261186d565b94616ba2601c61186d565b9091506170b1612c79613b796137ab61585486611b3d565b149081156170c2575b503880617067565b6170d391506159166137ab91611b3d565b6170e0612c796006612c9b565b14386170ba565b9092506170f96137ab616a4283611b3d565b617105612c7985612c9b565b14908115617116575b509138617060565b61712791506158496137ab91611b3d565b617134612c796006612c9b565b143861710e565b925061714c6137ab616a428b611b3d565b617158612c7983612c9b565b148015617166575b9261705a565b506171766137ab616a428b611b3d565b617183612c796006612c9b565b14617160565b61719b919450616a426137ab91611b3d565b6171a8612c796006612c9b565b14928c617053565b90506171bc6005611a2a565b6171c585611a2a565b0361729557617208916171dd6137ab6159168b611b3d565b906006916171ed612c7984612c9b565b149283617271575b8361724b575b5082617233575050613012565b617212602f61186d565b9461721d602961186d565b95617228602361186d565b94616ba2601d61186d565b613b7f919250613b796137ab6167f5612c7993611b3d565b61725d9193506159166137ab91611b3d565b617269612c7983612c9b565b1491386171fb565b92506172826137ab6167f589611b3d565b61728e612c7984612c9b565b14926171f5565b60405162461bcd60e51b815260206004820152600c60248201526b77726f6e672052617269747960a01b6044820152606490fd5b610892939291906000616768565b61087c906172e7612a7733614c06565b61087c90600080516020619cd1833981519152615023565b61087c906172d7565b61087c600080516020619cd183398151915261616a565b61087c9061732f612a7733614c06565b61087c9060326144d9565b61087c9061731f565b9061087c9594939291617358612a7733614c06565b9261738561087c96959361737e61738c94617377617393986018612a91565b6019612a91565b601a612a91565b601b612a91565b601c612a91565b601d612a91565b9061087c9594939291617343565b61087c919033618d59565b61089290600080516020619cd1833981519152616743565b6108926002615222565b6173dd613086565b90600082526020808080808080808080808c0160008152016173fd61523e565b8152016174086173cb565b8152016000815201600081520160008152016000815201600081520160605b8152016000905250565b6108926173d5565b1561744057565b60405162461bcd60e51b815260206004820152601260248201527111d95b48191bd95cc81b9bdd08195e1a5cdd60721b6044820152606490fd5b6108929060101c6108df565b6108929060181c6108df565b602060016131ef6174cd936174cd84848181816174bd6174b9839d6174b5600490565b5090565b9790565b966174d481600099549d8e611877565b60ff169052565b019501946174e5816174cd8c611fb6565b019301926174f6816174cd8a61747a565b019384920195617486565b90610a1481608093617492565b9061087c6119729261751f60405190565b93848092617501565b60208061753c6131606001956174b5600290565b549261754b816174cd86611877565b016131ef816174cd8660000195611fb6565b90610a1481604093617528565b9061087c6119729261757b60405190565b9384809261755d565b9061087c617672600a617595613086565b946175a66175a28261186d565b8752565b6175be6175b560018301611880565b60208801613091565b6175d46175cd6002830161750e565b6040880152565b6175ea6175e36003830161756a565b6060880152565b6176006175f96004830161186d565b6080880152565b61761661760f6005830161186d565b60a0880152565b61762c6176256006830161186d565b60c0880152565b61764461763b60078301611880565b151560e0880152565b61765b6176536008830161186d565b610100880152565b614c0061766a60098301611958565b610120880152565b610140840152565b61089290617584565b6176b061089291617692617431565b506176a96176a261089260075490565b8210617439565b600761183e565b5061767a565b61089260c0610c0d565b6176c86176b6565b90600082526020808080808087016000815201600081520160008152016000617427565b6108926176c0565b9061087c61776660046177056176b6565b946177126175a28261186d565b61772a61772160018301611880565b15156020880152565b61774261773960018301611fc2565b15156040880152565b6177516175e36002830161186d565b6177606175f96003830161186d565b01611fd5565b6001600160a01b031660a0840152565b610892906176f4565b6177966108929161778e6176ec565b506016611b4a565b617776565b9061087c95949392916177b0612a7733614c06565b926177dd61087c9695936177d66177e4946177cf6177eb98602a612a91565b602b612a91565b602c612a91565b602d612a91565b602e612a91565b602f612a91565b9061087c959493929161779b565b90610892916178156129b56129b16017611880565b61515c916000915061782e6163be6166cd83600f611b4a565b6149f260079161784f61784584614959848261183e565b614dff6001614df9565b61786e61786461467083611b6833601361128f565b6163f06001614df9565b6178818461646283611b6833601361128f565b6178948461647b83611b6833601461128f565b8261183e565b610892906000617800565b156178ac57565b60405162461bcd60e51b8152602060048201526013602482015272496e646578206f7574206f6620626f756e647360681b6044820152606490fd5b617911610892916178f6606090565b506144fa6179076108df6009611880565b60ff8316106178a5565b6129d9565b9061087c93929161792d6129b56129b16017611880565b92919061793930611286565b93843b1561085757600061794c60405190565b9586906323b872dd60e01b825281838161796b89898960048501614af5565b03925af1948515614faf5761087c95617985575b50618e66565b617995906000614f998183610be7565b3861797f565b9061087c939291617916565b9061087c98979695949392916179bf612a7733614c06565b617a9c565b6108929060081c610a78565b61089290546179c4565b156179e157565b60405162461bcd60e51b815260206004820152601e60248201527f746974616e7773746f6e20616c726561647920696e697469616c697a656400006044820152606490fd5b15617a2d57565b60405162461bcd60e51b815260206004820152601760248201527f746f6e20616c726561647920696e697469616c697a65640000000000000000006044820152606490fd5b90610100600160a81b039060081b612a87565b90617a95610892612aa892611286565b8254617a72565b617b4794617b32617b4e9895617b2b617b4096617b2461087c9e9d9b97617b1d617b3998617b16617acd60326179d0565b617af3617ada600061469c565b91617aed6001600160a01b038416614906565b146179da565b617b10614906617b036033611fd5565b926001600160a01b031690565b14617a26565b6032617a85565b603361360c565b603461360c565b601e612a91565b601f612a91565b6020612a91565b6021612a91565b6022612a91565b6023612a91565b9061087c98979695949392916179a7565b610892602361186d565b610892611d7f6034611fd5565b610892601a61186d565b15617b8e57565b60405162461bcd60e51b815260206004820152602f60248201527f4552433732314d657461646174613a2055524920717565727920666f72206e6f60448201526e3732bc34b9ba32b73a103a37b5b2b760891b6064820152608490fd5b61089290617c00617bfb82618f62565b617b87565b618fef565b61087c90617c15612a7733614c06565b61087c90603561360c565b61087c90617c05565b61087c90617c39612a7733614c06565b61087c90600080516020619cd1833981519152617c75565b61087c90617c29565b9061087c91617c6b61501182614be7565b9061502091618a14565b9061087c91617c5a565b610892601e61186d565b610892602061186d565b610892602161186d565b61089260326179d0565b61089291617cc261467092617cba600090565b50600561128f565b61128f565b61087c90617cd7612a7733614c06565b61087c9061626b565b61087c90617cc7565b61087c90617cfd6129b56129b16017611880565b617d40565b15617d0957565b60405162461bcd60e51b815260206004820152600f60248201526e1d1c985b9cd9995c8819985a5b1959608a1b6044820152606490fd5b600090617d526148ed610a788461469c565b617d72617d636166cd83600f611b4a565b617d6c33614906565b146135f6565b6020617dc0617d87600861493685600761183e565b617d9184336192e0565b617da1614ed7614ed76034611fd5565b90617dab60405190565b9586938492839190630169dc3160e01b6164f9565b03925af1908115614faf57616586614bd1927f65aff8e0552d208dfaf55b1280e55553b7dba628290897ff43c8f086d5dbfd2a94600091617e02575b50617d02565b617e1b915060203d6020116151895761517b8183610be7565b38617dfc565b61087c90617ce9565b61089290619319565b617e3c81619342565b90617e4a610a78600061469c565b6001600160a01b03831614617e5d575090565b61299d90617e6a60405190565b637e27328960e01b81529182916004830190815260200190565b6166cd61089291617e93600090565b506004611b4a565b9160019161087c93619359565b61087c91617eb46153f4565b91619495565b15617ec157565b60405162461bcd60e51b815260206004820152601c60248201527f6e6f7420616c6c6f77656420746f2073657420746f6b656e20555249000000006044820152606490fd5b9061087c91617f17610a78826160fc565b33148015617f2e575b617f2990617eba565b6194b4565b50617f29617f3b33614c06565b617f456001614df9565b149050617f20565b617fa7617fae92617fa261087c95617f81617f7461657a616575600161495986600761183e565b6004614e6084600761183e565b617f9b617f8f84601061128f565b614a1a6167128261186d565b600f611b4a565b61360c565b601061128f565b614a1a614a158261186d565b6001600160a01b03909116815260608101939261087c92909160409161207c906020830152565b90617fec600061469c565b6001600160a01b0381166001600160a01b038316146180535750618012908333916194e8565b6001600160a01b0382166001600160a01b0382160361803057505050565b61299d9061803d60405190565b6364283d7b60e01b815293849360048501617fba565b61299d9061806060405190565b633250574960e11b8152918291600483016001600160a01b03909116815260200190565b6108926060610c0d565b9050519061087c82610a51565b90602082820312610857576108929161808e565b805161ffff16825261087c9190604090819060208181015161ffff1690850152015163ffffffff16910152565b60608101929161087c91906180af565b61817c926181716020936180fe600090565b5061816161812b7f0000000000000000000000000000000000000000000000000000000000000000611286565b9361815463122c162a9361814a618140618084565b61ffff9099168952565b61ffff1687890152565b63ffffffff166040860152565b6040519586948593849360e01b90565b8352600483016180dc565b039134905af1908115614faf57600091618194575090565b610892915060203d6020116181b6575b6181ae8183610be7565b81019061809b565b503d6181a4565b61087c903390619622565b6181d56129b18383616743565b1561823e576181f060016149c484600061675886603a614be1565b61820a6182046181fe339390565b93611286565b91611286565b917f2f8788117e7eff1d82e926ec794901d17c78024a50270940304540a733656f0d61823560405190565b600090a4600190565b5050600090565b6108929061756a565b9392600092839561825c8490565b81146189c8576182dc6137ab6182d16137ab6182cb6182c560036182996182bd6137ab6182ac8f9b6182a66182a0876182996137ab94600761183e565b5001618245565b9d611b3d565b8d6151b8565b9a6182b76001611b3d565b906151b8565b9b600761183e565b99611b3d565b896151b8565b966182b76001611b3d565b9060ff851660ff82161480806189b9575b806189aa575b618974578080618965575b61866d578015908180618956575b80618938575b80156188fc575b6188b2578190816188a1575b81618879575b8115618834575b50618740578080618730575b806186ed575b6186da5780806186ca575b80618680575b61855e575b8061854e575b8061853e575b8061852e575b8061851e575b8061850e575b61838457505050505050565b90919293949596506183968160ff1690565b60ff8416149586806184fd575b87156184de575b5086156184b8575b8615618492575b861561846c575b8615618444575b508515618419575b5084156183de575b5050505090565b92935090916183ef9060ff16612c79565b149182618402575b5050388080806183d7565b9091506184119060ff16612c79565b1438806183f7565b90945060ff851660ff8316149081618434575b5093386183cf565b60ff16905060ff8316143861842c565b90955060ff1660ff8316148061845c575b94386183c7565b5060ff841660ff84165b14618455565b955060ff861660ff84161480618483575b956183c0565b5060ff811660ff85161461847d565b955060ff851660ff841614806184a9575b956183b9565b5060ff821660ff8516146184a3565b955060ff851660ff841614806184cf575b956183b2565b5060ff861660ff8516146184c9565b909650806184ee575b95386183aa565b5060ff821660ff8516146184e7565b965060ff811660ff861614966183a3565b5060ff821660ff86161415618378565b5060ff821660ff82161415618372565b5060ff861660ff8616141561836c565b5060ff861660ff82161415618366565b5060ff821660ff87161415618360565b6185718794959697999293989960ff1690565b60ff8416036185b357505050506185888360ff1690565b60ff82161493846185a1575b84156183de575050505090565b935060ff841660ff83165b1493618594565b6185bf88949860ff1690565b60ff84160361862b57505050506185d68360ff1690565b60ff82161493848061861c575b80156185fd575b50846185a15784156183de575050505090565b5060ff811660ff83161480156185ea575060ff841660ff8416146185ea565b5060ff811660ff8416146185e3565b61863a88939792949860ff1690565b60ff83160361865157505050506185888360ff1690565b61866388939792969594999860ff1690565b60ff87160361835a575b5094959650509091506185888360ff1690565b5060ff871660ff83161480156186bb575b80156186ac575b80618355575060ff831660ff871614618355565b5060ff871660ff871614618698565b5060ff831660ff831614618691565b5060ff831660ff8816141561834f565b5094505090919394506185888360ff1690565b5060ff871660ff83161480618721575b80618344575060ff831660ff8316148015618344575060ff871660ff871614618344565b5060ff831660ff8716146186fd565b5060ff831660ff8816141561833e565b96975095919391156187d6575060ff851660ff84161494856187c5575b851561879f575b8515618778575084156183de575050505090565b90945060ff1660ff82161480618790575b93386183cf565b5060ff831660ff831614618789565b945060ff811660ff841614806187b6575b94618764565b5060ff841660ff8316146187b0565b945060ff841660ff8316149461875d565b9394905060ff811660ff841614948580618823575b861561880657508515618419575084156183de575050505090565b909550806188155794386183c7565b5060ff841660ff8316618466565b955060ff811660ff841614956187eb565b905080618869575b80618848575b38618332565b5060ff871660ff831614158015618842575060ff831660ff83161415618842565b5060ff831660ff8816141561883c565b905060ff881660ff8416141580618891575b9061832b565b5060ff881660ff8816141561888b565b905060ff841660ff89161490618325565b509697509593949193156188ee57505060ff84165b60ff83161493846188df5784156183de575050505090565b935060ff831660ff82166185ac565b935093506188c78460ff1690565b508080618928575b8015618319575060ff831660ff89161480618319575060ff831660ff851614618319565b5060ff841660ff89161415618904565b5060ff881660ff84161480618312575060ff881660ff881614618312565b5060ff841660ff89161461830c565b5060ff831660ff8816146182fe565b509050612c79919395965061898b92945060ff1690565b14918261899757505090565b9091506189a69060ff16612c79565b1490565b5060ff871660ff8316146182f3565b5060ff831660ff8816146182ed565b50929450505050565b91906189dd6000611b3d565b6189e8610892835190565b811015618a0e5780614eba618a03615cbc618a099486612c2f565b866192e0565b6189dd565b50509050565b618a1e8282616743565b1561823e57618a3860006149c4848261675886603a614be1565b618a466182046181fe339390565b917ff6391f5c32d9c69d2a47ea670b442974b53935d1edc7fd64eb21e047a839171b61823560405190565b15618a7857565b60405162461bcd60e51b815260206004820152601060248201526f52657175657374206e6f74206d61646560801b6044820152606490fd5b9061ff009060081b612a87565b90618acd610892612aa892151590565b8254618ab0565b6108929061750e565b90815260406020820181905261089292910190610fe5565b9061539b565b906016618b1b618b166001618b108685611b4a565b01611880565b618a71565b600191618b338380618b2d8786611b4a565b01618abd565b618b43816002614e788786611b4a565b600791618bba618b6d6002618b66618b606000614c008b88611b4a565b8761183e565b5001618ad4565b618b836137ab618b7d6000611b3d565b83612c49565b90618b936137ab618b7d89611b3d565b618bb46137ab618ba96137ab6155706002611b3d565b936137a56003611b3d565b9261965a565b927fdd6ebb40766c50572c78f680f70ff043535bc04e71ac56a352f7c3df1e11ec51618be560405190565b80618bf1878683618add565b0390a1618bfe6000611b3d565b821115618c3f57956149f293618c3a617894946003614e78618c26615cbc9761087c9d618af5565b95618c34615cbc8888612c2f565b93611b4a565b612c2f565b5050925050506003614e7861087c93618c346000611b3d565b618c626000611a2a565b618c6b82611a2a565b14618d4e57618c7a6001611a2a565b618c8382611a2a565b14618d4357618c926002611a2a565b618c9b82611a2a565b14618d3857618caa6003611a2a565b618cb382611a2a565b14618d2d57618cc26004611a2a565b618ccb82611a2a565b14618d2257618cdd61383b6005611a2a565b14618d185760405162461bcd60e51b815260206004820152600e60248201526d496e76616c69642072617269747960901b6044820152606490fd5b610892602f61186d565b50610892602e61186d565b50610892602d61186d565b50610892602c61186d565b50610892602b61186d565b50610892602a61186d565b618d66610a78600061469c565b6001600160a01b03831614618dc257618dbd618db36181fe83614ed7876149c488617cc27f17307eab39ab6107e8899845ad3d59bd9653f200f220920489ca2b5937696c3199600561128f565b936108b860405190565b0390a3565b61299d82618dcf60405190565b630b61174360e31b8152918291600483016001600160a01b03909116815260200190565b9050519061087c8261085c565b906020828203126108575761089291618df3565b6001600160a01b0390911681526108929360808201939092618e3a91906148af9061489f565b60608184039101526109e0565b3d15618e6157618e563d6153dd565b903d6000602084013e565b606090565b909291833b618e786121d06000611b3d565b11618e835750505050565b602091618e92614ed786611286565b90600033618ebc618ea260405190565b97889687958694630a85bd0160e11b865260048601618e14565b03925af160009181618f31575b50618f085750618ed7618e47565b90618ee0825190565b618eed6121d06000611b3d565b03618eff5761299d9061806060405190565b50805190602001fd5b618f22630a85bd0160e11b5b916001600160e01b03191690565b036180535750388080806131ef565b618f5491925060203d602011618f5b575b618f4c8183610be7565b810190618e00565b9038618ec9565b503d618f42565b6166cd618f7991618f71600090565b50600f611b4a565b618f89614906610a78600061469c565b141590565b610a14618fa692602092618fa0815190565b94859290565b938491016109bd565b618fbd906108929392618f8e565b90618f8e565b618fe3929161087c91618fd560405190565b948592602084019283618faf565b90810382520383610be7565b618ff881617e33565b50619007617911826006611b4a565b61900f6197fc565b805161901e6121d06000611b3d565b1461904c5781516190326121d06000611b3d565b1161904257505061089290619804565b6108929250618fc3565b50905090565b61087c9060015b8101906130f9565b90600003611be35761087c90619052565b61087c906001619059565b90600003611be35761087c90619072565b906000916190ac6190a482600052602060002090565b9283546133bd565b905555565b919290602082101561910957601f84116001146190d357612aa89293506133bd565b509061910461087c9360016190fb6190f085600052602060002090565b92601f602091010490565b820191016130f9565b61908e565b506191428293619120600194600052602060002090565b6133ac6020601f860104820192601f86168061914a575b50601f602091010490565b600202179055565b61915690888603613118565b38619137565b929091600160401b8211610c0857602011156191a357602081101561918457612aa8916133bd565b60019160ff191661919a84600052602060002090565b55600202019055565b60019150600202019055565b9081546191bb816118a0565b908183116191e3575b8183106191d15750505050565b6191da936190b1565b388080806131ef565b6191ef8383838761915c565b6191c4565b600061087c916191af565b90600003611be35761087c906191f4565b6000600a61087c92619224838083016130ed565b8260018201556192378360028301619061565b619244836003830161907d565b61925183600483016130ed565b61925e83600583016130ed565b61926b83600683016130ed565b82600782015561927e83600883016130ed565b61928b83600983016191ff565b016130ed565b90600003611be35761087c90619210565b916001600160a01b0360089290920291821b911b612a87565b91906192cc610892612aa893611286565b9083546192a2565b61087c916000916192bb565b906192ff617fae61087c93617fa76192f985600761183e565b90619291565b619314600061930f83600f611b4a565b6192d4565b619847565b637965db0b60e01b6001600160e01b0319821614908115619338575090565b610892915061988a565b6166cd61089291619351600090565b506002611b4a565b92919091808115619476575b61937b575b505090617fa261087c926004611b4a565b61938483617e33565b91619392610a78600061469c565b6001600160a01b03821614158061945a575b80619447575b619416575091617fa29161087c94936193c6575b50919261936a565b6193cf90611286565b6193d884611286565b6193e183611b3d565b917f8c5be1e5ebec7d5bd14f71427d1e84f3dd0314c0f7b2291e5b200ac8c7c3b92561940c60405190565b600090a4386193be565b61299d9061942360405190565b63a9fbf51f60e01b8152918291600483016001600160a01b03909116815260200190565b506194556129b18285617ca7565b6193aa565b506001600160a01b0381166001600160a01b03841614156193a4565b50619484610a78600061469c565b6001600160a01b0383161415619365565b9061087c92916194a582826198b6565b6194af600061469c565b618e66565b614bd1906109687ff8e1a15aba9398e019f0b49df1a4fde98ee17ae345cb5f6b5e2c27f5033e8ce793614501836006611b4a565b906195466194f582619342565b9360006195018161469c565b91846001600160a01b0384166001600160a01b03831603619611575b50506001600160a01b0382166001600160a01b038716036195d6575b506001600160a01b031690565b6001600160a01b038316036195ac575b61956582617fa2836002611b4a565b61957a6195746181fe85611286565b91611b3d565b917fddf252ad1be2c89b69c2b068fc378daa952ba7f163c4a11628f55a4df523b3ef6195a560405190565b600090a490565b6195d16195b96001611b3d565b614a1a6195c785600361128f565b91610a148361186d565b619556565b6195e290828581619359565b61960b6195ef6001611b3d565b614a1a6195fd88600361128f565b916196078361186d565b0390565b38619539565b61961b918861993e565b388461951d565b906196306129b18284616743565b619638575050565b61299d61964460405190565b63e2517d3f60e01b815292839260048401615096565b909392909160009261969061966e85611b3d565b9361968b60079461968b61968361375d885490565b9a8896612c71565b612c71565b95835b61969e610892855490565b8110156197b0576197136196df6196cb6196c58960026196be878b61183e565b500161530c565b906108e5565b6137d36196c5600160026196be888c61183e565b6137d36196c5600361970860026196f6888c61183e565b5001946137d36196c56002809861530c565b936196be878b61183e565b61971f60ff8a16612c79565b108061978b575b80619774575b61973e575b600101619693565b619693565b939161976c61976561973992614eba61975b8a6149368b8b61183e565b61670f8388612c2f565b9360010190565b949050619731565b506197866129b185614959848261183e565b61972c565b5061979a6166cd82600f611b4a565b6197aa614906610a786034611fd5565b14619726565b509395505050916197c96197c384612c0c565b94611b3d565b838110156197f45780614eba6197e5615cbc6197ef9487612c2f565b61670f8389612c2f565b6197c9565b509190509190565b6108926153f4565b61980d81617e33565b506198166197fc565b80516198256121d06000611b3d565b111561983d57619837610892926199b9565b90618fc3565b50506108926153f4565b619851600061469c565b619862614906617b038385816194e8565b14617e5d5750565b6116d26198776108929290565b60e01b90565b610892634906490661986a565b6198956116d261987d565b6001600160e01b03198216149081156198ac575090565b6108929150619a4c565b906198c1600061469c565b916001600160a01b0383166001600160a01b03821614619931576198e69183916194e8565b6198f86001600160a01b038316614906565b036199005750565b61299d9061990d60405190565b6339e3563760e11b8152918291600483016001600160a01b03909116815260200190565b61299d8361806060405190565b61994c6129b1848484619a97565b61995557505050565b619965614906610a78600061469c565b036199775761299d82617e6a60405190565b61299d61998360405190565b63177e802f60e01b815292839260048401615096565b9061087c612c226199a9846153dd565b93610e78565b81156153a6570490565b6199c281619b1e565b906199d3600192610a146001611b3d565b91806199de84619999565b936020018401905b6199f1575b50505090565b8115619a4757619a2b9060001901926f181899199a1a9b1b9c1cb0b131b232b360811b600a82061a8453619a25600a611b3d565b906199af565b9081619a3a6121d06000611b3d565b14619a47579091816199e6565b6199eb565b6380ac58cd60e01b6001600160e01b0319821614908115619a7c575b8115619a72575090565b6108929150619cc0565b6001600160e01b03198116635b5e139f60e01b149150619a68565b90619aa5610a78600061469c565b6001600160a01b03821614159283619abd5750505090565b919250906001600160a01b0382166001600160a01b03841614928315619b0a575b508215619af0575b50503880806199eb565b619b02919250617b0361490691617e84565b143880619ae6565b619b179193508290617ca7565b9138619ade565b619b286000611b3d565b907a184f03e93ff9f4daa797ed6e38ed64bf6a1f010000000000000000619b4e81611b3d565b821015619c9e575b506d04ee2d6d415b85acef8100000000619b6f81611b3d565b821015619c7c575b50662386f26fc10000619b8981611b3d565b821015619c5a575b506305f5e100619ba081611b3d565b821015619c38575b50612710619bb581611b3d565b821015619c16575b50619bc86064611b3d565b811015619bf4575b619bdd6121d0600a611b3d565b1015619be65790565b61089290610a146001611b3d565b619c05619c1091619a256064611b3d565b91610a146002611b3d565b90619bd0565b619c3191619a25619c2692611b3d565b91610a146004611b3d565b9038619bbd565b619c5391619a25619c4892611b3d565b91610a146008611b3d565b9038619ba8565b619c7591619a25619c6a92611b3d565b91610a146010611b3d565b9038619b91565b619c9791619a25619c8c92611b3d565b91610a146020611b3d565b9038619b77565b619cb991619a25619cae92611b3d565b91610a146040611b3d565b9038619b56565b6189a66301ffc9a760e01b618f1456fe06aa03964db1f7257357ef09714a5f0ca3633723df419e97015e0c7a3e83edb7a2646970667358221220e122c54cb0a174ea111bb127d49bc28bb2ed2a9478e687cb289ee12c8e74ff2864736f6c63430008190033",
    "linkReferences": {}
  },
  "methodIdentifiers": {
    "CALLBACK_GAS_LIMIT()": "33d608f1",
    "CommonGemsCooldownPeriod()": "77f7e499",
    "CommonGemsMiningPeriod()": "c4d2fcae",
    "CommonGemsValue()": "58bf3e65",
    "CommonminingTry()": "ffbccde4",
    "DEFAULT_ADMIN_ROLE()": "a217fddf",
    "EpicGemsCooldownPeriod()": "efa2cc29",
    "EpicGemsMiningPeriod()": "5bbffab6",
    "EpicGemsValue()": "038a7e05",
    "EpicminingTry()": "f7c0794d",
    "GEMIndexToOwner(uint256)": "97125c40",
    "Gems(uint256)": "61f7f6d7",
    "LegendaryGemsCooldownPeriod()": "8fddb065",
    "LegendaryGemsMiningPeriod()": "d7a46495",
    "LegendaryGemsValue()": "a0b2d41b",
    "LegendaryminingTry()": "201832c0",
    "MythicGemsCooldownPeriod()": "e4b7fddf",
    "MythicGemsMiningPeriod()": "139b63f3",
    "MythicGemsValue()": "3fb310a5",
    "MythicminingTry()": "62751738",
    "PAUSE_ROLE()": "389ed267",
    "RareGemsCooldownPeriod()": "b78417b0",
    "RareGemsMiningPeriod()": "0de32a97",
    "RareGemsValue()": "f66f9e34",
    "RareminingTry()": "d1bd7e06",
    "TREASURY_ROLE()": "d11a57ec",
    "UniqueGemsCooldownPeriod()": "1885cbbe",
    "UniqueGemsMiningPeriod()": "04e41a0b",
    "UniqueGemsValue()": "18898f36",
    "UniqueminingTry()": "98a2c65d",
    "addAdmin(address)": "70480275",
    "addBackgroundColor(string)": "1d0e0aac",
    "addColor(string)": "15341f2b",
    "addMinter(address)": "983b2d56",
    "adminTransferGEM(address,uint256)": "33158058",
    "aliveImplementation(address)": "550d01a3",
    "approve(address,uint256)": "095ea7b3",
    "backgroundColors(uint256)": "a8ce886e",
    "balanceOf(address)": "70a08231",
    "cancelMining(uint256)": "ad6caa47",
    "claimMinedGEM(uint256)": "7fe6fde5",
    "colors(uint256)": "bd11f69d",
    "createGEM(uint8,uint8[2],uint8[4],string)": "975781b7",
    "createGEMPool(uint8[],uint8[2][],uint8[4][],string[])": "0ff1ac67",
    "customBackgroundColors(uint8)": "ecc5e06f",
    "customBackgroundColorsCount()": "0922f513",
    "customColors(uint8)": "6b1a96fa",
    "customColorsCount()": "034294f8",
    "drbcoordinator()": "71b57c47",
    "forgeTokens(uint256[],uint8,uint8[2])": "33fcb648",
    "getApproved(uint256)": "081812fc",
    "getCommonValue()": "d55486d3",
    "getCommonminingTry()": "1008ef78",
    "getCustomColor(uint8)": "aff2a463",
    "getEpicValue()": "dc0515d6",
    "getEpicminingTry()": "8d41fe30",
    "getGem(uint256)": "aa723bb7",
    "getIsUserMining(address)": "1d198bba",
    "getLegendaryValue()": "5fcf94d1",
    "getLegendaryminingTry()": "166b35c9",
    "getMythicValue()": "bc36b2ee",
    "getMythicminingTry()": "3ec7af4a",
    "getRandomRequest(uint256)": "aae31df3",
    "getRareValue()": "8964f0c1",
    "getRareminingTry()": "6c106fea",
    "getRoleAdmin(bytes32)": "248a9ca3",
    "getTon()": "2bbbe94d",
    "getTreasury()": "3b19e84a",
    "getUniqueValue()": "d62c990f",
    "getUniqueminingTry()": "c61a46c5",
    "getWston()": "e7a523c0",
    "grantRole(bytes32,address)": "2f2ff15d",
    "hasRole(bytes32,address)": "91d14854",
    "initialize(address,address,address,uint256,uint256,uint256,uint256,uint256,uint256)": "bb4a2509",
    "isAdmin(address)": "24d7806c",
    "isApprovedForAll(address,address)": "e985e9c5",
    "isMinter(address)": "aa271e1a",
    "isOwner()": "8f32d59b",
    "isTokenLocked(uint256)": "276a28a3",
    "isUserMining(address)": "205fb1f8",
    "marketplace()": "abc8c7af",
    "meltGEM(uint256)": "f99a6bb5",
    "name()": "06fdde03",
    "numberOfSolidColors()": "724188bc",
    "ownerOf(uint256)": "6352211e",
    "ownershipTokenCount(address)": "cec21acb",
    "pause()": "8456cb59",
    "pauseProxy()": "63a8fd89",
    "paused()": "5c975abb",
    "pickMinedGEM(uint256)": "274f2455",
    "preMintedGemsAvailable()": "c28fb6b7",
    "proxyImplementation(uint256)": "b911135f",
    "rawFulfillRandomWords(uint256,uint256)": "37ed11db",
    "removeAdmin(address)": "1785f53c",
    "removeMinter(address)": "3092afd5",
    "renounceMinter()": "98650275",
    "renounceOwnership()": "715018a6",
    "renounceRole(bytes32,address)": "36568abe",
    "requestCount()": "5badbe4c",
    "requestIds(uint256)": "8796ba8c",
    "revokeMinter(address)": "cfbd4885",
    "revokeRole(bytes32,address)": "d547741f",
    "s_requests(uint256)": "a168fa89",
    "safeTransferFrom(address,address,uint256)": "42842e0e",
    "safeTransferFrom(address,address,uint256,bytes)": "b88d4fde",
    "selectorImplementation(bytes4)": "50d2a276",
    "setApprovalForAll(address,bool)": "a22cb465",
    "setApprovalForMarketplace()": "0491fd3e",
    "setGemsCooldownPeriods(uint256,uint256,uint256,uint256,uint256,uint256)": "ad0d3d3f",
    "setGemsMiningPeriods(uint256,uint256,uint256,uint256,uint256,uint256)": "0c7254a0",
    "setIsLocked(uint256,bool)": "4d723a75",
    "setMarketPlaceAddress(address)": "cc98ef96",
    "setNumberOfSolidColors(uint8)": "9a66af62",
    "setTokenURI(uint256,string)": "162094c4",
    "setminingTrys(uint256,uint256,uint256,uint256,uint256,uint256)": "a1c52726",
    "startMiningGEM(uint256)": "1da0fc9c",
    "supportsInterface(bytes4)": "01ffc9a7",
    "symbol()": "95d89b41",
    "tokenMiningByUser(address)": "c1389072",
    "tokenReadyToMine(uint256)": "7866369b",
    "tokenURI(uint256)": "c87b56dd",
    "tokensOfOwner(address)": "8462151c",
    "ton()": "cc48b947",
    "totalSupply()": "18160ddd",
    "transferAdmin(address)": "75829def",
    "transferFrom(address,address,uint256)": "23b872dd",
    "transferOwnership(address)": "f2fde38b",
    "treasury()": "61d027b3",
    "unpause()": "3f4ba83a",
    "userMiningStartTime(address,uint256)": "676f79f1",
    "userMiningToken(address,uint256)": "a1770a7d",
    "wston()": "36b17e13"
  },
  "id": 94
}