{
  "abi": [
    {
      "type": "constructor",
      "inputs": [
        {
          "name": "coordinator",
          "type": "address",
          "internalType": "address"
        }
      ],
      "stateMutability": "nonpayable"
    },
    {
      "type": "function",
      "name": "CALLBACK_GAS_LIMIT",
      "inputs": [],
      "outputs": [
        {
          "name": "",
          "type": "uint32",
          "internalType": "uint32"
        }
      ],
      "stateMutability": "view"
    },
    {
      "type": "function",
      "name": "CommonGemsCooldownPeriod",
      "inputs": [],
      "outputs": [
        {
          "name": "",
          "type": "uint256",
          "internalType": "uint256"
        }
      ],
      "stateMutability": "view"
    },
    {
      "type": "function",
      "name": "CommonGemsMiningPeriod",
      "inputs": [],
      "outputs": [
        {
          "name": "",
          "type": "uint256",
          "internalType": "uint256"
        }
      ],
      "stateMutability": "view"
    },
    {
      "type": "function",
      "name": "CommonGemsValue",
      "inputs": [],
      "outputs": [
        {
          "name": "",
          "type": "uint256",
          "internalType": "uint256"
        }
      ],
      "stateMutability": "view"
    },
    {
      "type": "function",
      "name": "CommonMiningFees",
      "inputs": [],
      "outputs": [
        {
          "name": "",
          "type": "uint256",
          "internalType": "uint256"
        }
      ],
      "stateMutability": "view"
    },
    {
      "type": "function",
      "name": "DEFAULT_ADMIN_ROLE",
      "inputs": [],
      "outputs": [
        {
          "name": "",
          "type": "bytes32",
          "internalType": "bytes32"
        }
      ],
      "stateMutability": "view"
    },
    {
      "type": "function",
      "name": "EpicGemsCooldownPeriod",
      "inputs": [],
      "outputs": [
        {
          "name": "",
          "type": "uint256",
          "internalType": "uint256"
        }
      ],
      "stateMutability": "view"
    },
    {
      "type": "function",
      "name": "EpicGemsMiningPeriod",
      "inputs": [],
      "outputs": [
        {
          "name": "",
          "type": "uint256",
          "internalType": "uint256"
        }
      ],
      "stateMutability": "view"
    },
    {
      "type": "function",
      "name": "EpicGemsValue",
      "inputs": [],
      "outputs": [
        {
          "name": "",
          "type": "uint256",
          "internalType": "uint256"
        }
      ],
      "stateMutability": "view"
    },
    {
      "type": "function",
      "name": "EpicMiningFees",
      "inputs": [],
      "outputs": [
        {
          "name": "",
          "type": "uint256",
          "internalType": "uint256"
        }
      ],
      "stateMutability": "view"
    },
    {
      "type": "function",
      "name": "GEMIndexToApproved",
      "inputs": [
        {
          "name": "",
          "type": "uint256",
          "internalType": "uint256"
        }
      ],
      "outputs": [
        {
          "name": "",
          "type": "address",
          "internalType": "address"
        }
      ],
      "stateMutability": "view"
    },
    {
      "type": "function",
      "name": "GEMIndexToOwner",
      "inputs": [
        {
          "name": "",
          "type": "uint256",
          "internalType": "uint256"
        }
      ],
      "outputs": [
        {
          "name": "",
          "type": "address",
          "internalType": "address"
        }
      ],
      "stateMutability": "view"
    },
    {
      "type": "function",
      "name": "Gems",
      "inputs": [
        {
          "name": "",
          "type": "uint256",
          "internalType": "uint256"
        }
      ],
      "outputs": [
        {
          "name": "tokenId",
          "type": "uint256",
          "internalType": "uint256"
        },
        {
          "name": "rarity",
          "type": "uint8",
          "internalType": "enum GemFactoryStorage.Rarity"
        },
        {
          "name": "gemCooldownPeriod",
          "type": "uint256",
          "internalType": "uint256"
        },
        {
          "name": "miningPeriod",
          "type": "uint256",
          "internalType": "uint256"
        },
        {
          "name": "isLocked",
          "type": "bool",
          "internalType": "bool"
        },
        {
          "name": "value",
          "type": "uint256",
          "internalType": "uint256"
        },
        {
          "name": "stakingIndex",
          "type": "uint256",
          "internalType": "uint256"
        },
        {
          "name": "tokenURI",
          "type": "string",
          "internalType": "string"
        },
        {
          "name": "randomRequestId",
          "type": "uint256",
          "internalType": "uint256"
        }
      ],
      "stateMutability": "view"
    },
    {
      "type": "function",
      "name": "L1StakingIndex",
      "inputs": [],
      "outputs": [
        {
          "name": "",
          "type": "uint256",
          "internalType": "uint256"
        }
      ],
      "stateMutability": "view"
    },
    {
      "type": "function",
      "name": "LegendaryGemsCooldownPeriod",
      "inputs": [],
      "outputs": [
        {
          "name": "",
          "type": "uint256",
          "internalType": "uint256"
        }
      ],
      "stateMutability": "view"
    },
    {
      "type": "function",
      "name": "LegendaryGemsMiningPeriod",
      "inputs": [],
      "outputs": [
        {
          "name": "",
          "type": "uint256",
          "internalType": "uint256"
        }
      ],
      "stateMutability": "view"
    },
    {
      "type": "function",
      "name": "LegendaryGemsValue",
      "inputs": [],
      "outputs": [
        {
          "name": "",
          "type": "uint256",
          "internalType": "uint256"
        }
      ],
      "stateMutability": "view"
    },
    {
      "type": "function",
      "name": "LegendaryMiningFees",
      "inputs": [],
      "outputs": [
        {
          "name": "",
          "type": "uint256",
          "internalType": "uint256"
        }
      ],
      "stateMutability": "view"
    },
    {
      "type": "function",
      "name": "MythicGemsCooldownPeriod",
      "inputs": [],
      "outputs": [
        {
          "name": "",
          "type": "uint256",
          "internalType": "uint256"
        }
      ],
      "stateMutability": "view"
    },
    {
      "type": "function",
      "name": "MythicGemsMiningPeriod",
      "inputs": [],
      "outputs": [
        {
          "name": "",
          "type": "uint256",
          "internalType": "uint256"
        }
      ],
      "stateMutability": "view"
    },
    {
      "type": "function",
      "name": "MythicGemsValue",
      "inputs": [],
      "outputs": [
        {
          "name": "",
          "type": "uint256",
          "internalType": "uint256"
        }
      ],
      "stateMutability": "view"
    },
    {
      "type": "function",
      "name": "MythicMiningFees",
      "inputs": [],
      "outputs": [
        {
          "name": "",
          "type": "uint256",
          "internalType": "uint256"
        }
      ],
      "stateMutability": "view"
    },
    {
      "type": "function",
      "name": "PAUSE_ROLE",
      "inputs": [],
      "outputs": [
        {
          "name": "",
          "type": "bytes32",
          "internalType": "bytes32"
        }
      ],
      "stateMutability": "view"
    },
    {
      "type": "function",
      "name": "RareGemsCooldownPeriod",
      "inputs": [],
      "outputs": [
        {
          "name": "",
          "type": "uint256",
          "internalType": "uint256"
        }
      ],
      "stateMutability": "view"
    },
    {
      "type": "function",
      "name": "RareGemsMiningPeriod",
      "inputs": [],
      "outputs": [
        {
          "name": "",
          "type": "uint256",
          "internalType": "uint256"
        }
      ],
      "stateMutability": "view"
    },
    {
      "type": "function",
      "name": "RareGemsValue",
      "inputs": [],
      "outputs": [
        {
          "name": "",
          "type": "uint256",
          "internalType": "uint256"
        }
      ],
      "stateMutability": "view"
    },
    {
      "type": "function",
      "name": "RareMiningFees",
      "inputs": [],
      "outputs": [
        {
          "name": "",
          "type": "uint256",
          "internalType": "uint256"
        }
      ],
      "stateMutability": "view"
    },
    {
      "type": "function",
      "name": "TREASURY_ROLE",
      "inputs": [],
      "outputs": [
        {
          "name": "",
          "type": "bytes32",
          "internalType": "bytes32"
        }
      ],
      "stateMutability": "view"
    },
    {
      "type": "function",
      "name": "UniqueGemsCooldownPeriod",
      "inputs": [],
      "outputs": [
        {
          "name": "",
          "type": "uint256",
          "internalType": "uint256"
        }
      ],
      "stateMutability": "view"
    },
    {
      "type": "function",
      "name": "UniqueGemsMiningPeriod",
      "inputs": [],
      "outputs": [
        {
          "name": "",
          "type": "uint256",
          "internalType": "uint256"
        }
      ],
      "stateMutability": "view"
    },
    {
      "type": "function",
      "name": "UniqueGemsValue",
      "inputs": [],
      "outputs": [
        {
          "name": "",
          "type": "uint256",
          "internalType": "uint256"
        }
      ],
      "stateMutability": "view"
    },
    {
      "type": "function",
      "name": "UniqueMiningFees",
      "inputs": [],
      "outputs": [
        {
          "name": "",
          "type": "uint256",
          "internalType": "uint256"
        }
      ],
      "stateMutability": "view"
    },
    {
      "type": "function",
      "name": "addAdmin",
      "inputs": [
        {
          "name": "account",
          "type": "address",
          "internalType": "address"
        }
      ],
      "outputs": [],
      "stateMutability": "nonpayable"
    },
    {
      "type": "function",
      "name": "addBackgroundColor",
      "inputs": [
        {
          "name": "_backgroundColor",
          "type": "string",
          "internalType": "string"
        }
      ],
      "outputs": [],
      "stateMutability": "nonpayable"
    },
    {
      "type": "function",
      "name": "addColor",
      "inputs": [
        {
          "name": "_color",
          "type": "string",
          "internalType": "string"
        }
      ],
      "outputs": [],
      "stateMutability": "nonpayable"
    },
    {
      "type": "function",
      "name": "addMinter",
      "inputs": [
        {
          "name": "account",
          "type": "address",
          "internalType": "address"
        }
      ],
      "outputs": [],
      "stateMutability": "nonpayable"
    },
    {
      "type": "function",
      "name": "adminTransferGEM",
      "inputs": [
        {
          "name": "_to",
          "type": "address",
          "internalType": "address"
        },
        {
          "name": "_tokenId",
          "type": "uint256",
          "internalType": "uint256"
        }
      ],
      "outputs": [
        {
          "name": "",
          "type": "bool",
          "internalType": "bool"
        }
      ],
      "stateMutability": "nonpayable"
    },
    {
      "type": "function",
      "name": "aliveImplementation",
      "inputs": [
        {
          "name": "",
          "type": "address",
          "internalType": "address"
        }
      ],
      "outputs": [
        {
          "name": "",
          "type": "bool",
          "internalType": "bool"
        }
      ],
      "stateMutability": "view"
    },
    {
      "type": "function",
      "name": "approve",
      "inputs": [
        {
          "name": "to",
          "type": "address",
          "internalType": "address"
        },
        {
          "name": "tokenId",
          "type": "uint256",
          "internalType": "uint256"
        }
      ],
      "outputs": [],
      "stateMutability": "nonpayable"
    },
    {
      "type": "function",
      "name": "backgroundColors",
      "inputs": [
        {
          "name": "",
          "type": "uint256",
          "internalType": "uint256"
        }
      ],
      "outputs": [
        {
          "name": "",
          "type": "string",
          "internalType": "string"
        }
      ],
      "stateMutability": "view"
    },
    {
      "type": "function",
      "name": "balanceOf",
      "inputs": [
        {
          "name": "_owner",
          "type": "address",
          "internalType": "address"
        }
      ],
      "outputs": [
        {
          "name": "count",
          "type": "uint256",
          "internalType": "uint256"
        }
      ],
      "stateMutability": "view"
    },
    {
      "type": "function",
      "name": "claimMinedGEM",
      "inputs": [
        {
          "name": "_tokenId",
          "type": "uint256",
          "internalType": "uint256"
        }
      ],
      "outputs": [
        {
          "name": "",
          "type": "bool",
          "internalType": "bool"
        }
      ],
      "stateMutability": "nonpayable"
    },
    {
      "type": "function",
      "name": "colors",
      "inputs": [
        {
          "name": "",
          "type": "uint256",
          "internalType": "uint256"
        }
      ],
      "outputs": [
        {
          "name": "",
          "type": "string",
          "internalType": "string"
        }
      ],
      "stateMutability": "view"
    },
    {
      "type": "function",
      "name": "createGEM",
      "inputs": [
        {
          "name": "_rarity",
          "type": "uint8",
          "internalType": "enum GemFactoryStorage.Rarity"
        },
        {
          "name": "_color",
          "type": "uint8[2]",
          "internalType": "uint8[2]"
        },
        {
          "name": "_stakingIndex",
          "type": "uint256",
          "internalType": "uint256"
        },
        {
          "name": "_quadrants",
          "type": "uint8[4]",
          "internalType": "uint8[4]"
        },
        {
          "name": "_tokenURI",
          "type": "string",
          "internalType": "string"
        }
      ],
      "outputs": [
        {
          "name": "",
          "type": "uint256",
          "internalType": "uint256"
        }
      ],
      "stateMutability": "nonpayable"
    },
    {
      "type": "function",
      "name": "createGEMPool",
      "inputs": [
        {
          "name": "_rarities",
          "type": "uint8[]",
          "internalType": "enum GemFactoryStorage.Rarity[]"
        },
        {
          "name": "_colors",
          "type": "uint8[2][]",
          "internalType": "uint8[2][]"
        },
        {
          "name": "_stakingIndexes",
          "type": "uint256[]",
          "internalType": "uint256[]"
        },
        {
          "name": "_quadrants",
          "type": "uint8[4][]",
          "internalType": "uint8[4][]"
        },
        {
          "name": "_tokenURIs",
          "type": "string[]",
          "internalType": "string[]"
        }
      ],
      "outputs": [
        {
          "name": "",
          "type": "uint256[]",
          "internalType": "uint256[]"
        }
      ],
      "stateMutability": "nonpayable"
    },
    {
      "type": "function",
      "name": "customBackgroundColors",
      "inputs": [
        {
          "name": "",
          "type": "uint8",
          "internalType": "uint8"
        }
      ],
      "outputs": [
        {
          "name": "",
          "type": "string",
          "internalType": "string"
        }
      ],
      "stateMutability": "view"
    },
    {
      "type": "function",
      "name": "customBackgroundColorsCount",
      "inputs": [],
      "outputs": [
        {
          "name": "",
          "type": "uint8",
          "internalType": "uint8"
        }
      ],
      "stateMutability": "view"
    },
    {
      "type": "function",
      "name": "customColors",
      "inputs": [
        {
          "name": "",
          "type": "uint8",
          "internalType": "uint8"
        }
      ],
      "outputs": [
        {
          "name": "",
          "type": "string",
          "internalType": "string"
        }
      ],
      "stateMutability": "view"
    },
    {
      "type": "function",
      "name": "customColorsCount",
      "inputs": [],
      "outputs": [
        {
          "name": "",
          "type": "uint8",
          "internalType": "uint8"
        }
      ],
      "stateMutability": "view"
    },
    {
      "type": "function",
      "name": "estimatedStakingIndexIncreaseRate",
      "inputs": [],
      "outputs": [
        {
          "name": "",
          "type": "uint256",
          "internalType": "uint256"
        }
      ],
      "stateMutability": "view"
    },
    {
      "type": "function",
      "name": "forgeTokens",
      "inputs": [
        {
          "name": "_tokenIds",
          "type": "uint256[]",
          "internalType": "uint256[]"
        },
        {
          "name": "_stakingIndex",
          "type": "uint256",
          "internalType": "uint256"
        },
        {
          "name": "_rarity",
          "type": "uint8",
          "internalType": "enum GemFactoryStorage.Rarity"
        },
        {
          "name": "_color",
          "type": "uint8[2]",
          "internalType": "uint8[2]"
        }
      ],
      "outputs": [
        {
          "name": "newGemId",
          "type": "uint256",
          "internalType": "uint256"
        }
      ],
      "stateMutability": "nonpayable"
    },
    {
      "type": "function",
      "name": "gemAllowedToAddress",
      "inputs": [
        {
          "name": "",
          "type": "uint256",
          "internalType": "uint256"
        }
      ],
      "outputs": [
        {
          "name": "",
          "type": "address",
          "internalType": "address"
        }
      ],
      "stateMutability": "view"
    },
    {
      "type": "function",
      "name": "getApproved",
      "inputs": [
        {
          "name": "tokenId",
          "type": "uint256",
          "internalType": "uint256"
        }
      ],
      "outputs": [
        {
          "name": "",
          "type": "address",
          "internalType": "address"
        }
      ],
      "stateMutability": "view"
    },
    {
      "type": "function",
      "name": "getCalculatedDirectFundingPrice",
      "inputs": [
        {
          "name": "_callbackGasLimit",
          "type": "uint32",
          "internalType": "uint32"
        }
      ],
      "outputs": [
        {
          "name": "",
          "type": "uint256",
          "internalType": "uint256"
        }
      ],
      "stateMutability": "view"
    },
    {
      "type": "function",
      "name": "getCommonMiningFees",
      "inputs": [],
      "outputs": [
        {
          "name": "",
          "type": "uint256",
          "internalType": "uint256"
        }
      ],
      "stateMutability": "view"
    },
    {
      "type": "function",
      "name": "getCustomColor",
      "inputs": [
        {
          "name": "_index",
          "type": "uint8",
          "internalType": "uint8"
        }
      ],
      "outputs": [
        {
          "name": "",
          "type": "string",
          "internalType": "string"
        }
      ],
      "stateMutability": "view"
    },
    {
      "type": "function",
      "name": "getRareMiningFees",
      "inputs": [],
      "outputs": [
        {
          "name": "",
          "type": "uint256",
          "internalType": "uint256"
        }
      ],
      "stateMutability": "view"
    },
    {
      "type": "function",
      "name": "getRoleAdmin",
      "inputs": [
        {
          "name": "role",
          "type": "bytes32",
          "internalType": "bytes32"
        }
      ],
      "outputs": [
        {
          "name": "",
          "type": "bytes32",
          "internalType": "bytes32"
        }
      ],
      "stateMutability": "view"
    },
    {
      "type": "function",
      "name": "getTon",
      "inputs": [],
      "outputs": [
        {
          "name": "",
          "type": "address",
          "internalType": "address"
        }
      ],
      "stateMutability": "view"
    },
    {
      "type": "function",
      "name": "getTreasury",
      "inputs": [],
      "outputs": [
        {
          "name": "",
          "type": "address",
          "internalType": "address"
        }
      ],
      "stateMutability": "view"
    },
    {
      "type": "function",
      "name": "getUniqueMiningFees",
      "inputs": [],
      "outputs": [
        {
          "name": "",
          "type": "uint256",
          "internalType": "uint256"
        }
      ],
      "stateMutability": "view"
    },
    {
      "type": "function",
      "name": "getWston",
      "inputs": [],
      "outputs": [
        {
          "name": "",
          "type": "address",
          "internalType": "address"
        }
      ],
      "stateMutability": "view"
    },
    {
      "type": "function",
      "name": "grantRole",
      "inputs": [
        {
          "name": "role",
          "type": "bytes32",
          "internalType": "bytes32"
        },
        {
          "name": "account",
          "type": "address",
          "internalType": "address"
        }
      ],
      "outputs": [],
      "stateMutability": "nonpayable"
    },
    {
      "type": "function",
      "name": "hasRole",
      "inputs": [
        {
          "name": "role",
          "type": "bytes32",
          "internalType": "bytes32"
        },
        {
          "name": "account",
          "type": "address",
          "internalType": "address"
        }
      ],
      "outputs": [
        {
          "name": "",
          "type": "bool",
          "internalType": "bool"
        }
      ],
      "stateMutability": "view"
    },
    {
      "type": "function",
      "name": "initialize",
      "inputs": [
        {
          "name": "_wston",
          "type": "address",
          "internalType": "address"
        },
        {
          "name": "_ton",
          "type": "address",
          "internalType": "address"
        },
        {
          "name": "_treasury",
          "type": "address",
          "internalType": "address"
        },
        {
          "name": "_CommonMiningFees",
          "type": "uint256",
          "internalType": "uint256"
        },
        {
          "name": "_RareMiningFees",
          "type": "uint256",
          "internalType": "uint256"
        },
        {
          "name": "_UniqueMiningFees",
          "type": "uint256",
          "internalType": "uint256"
        },
        {
          "name": "_EpicMiningFees",
          "type": "uint256",
          "internalType": "uint256"
        },
        {
          "name": "_LegendaryMiningFees",
          "type": "uint256",
          "internalType": "uint256"
        },
        {
          "name": "_MythicMiningFees",
          "type": "uint256",
          "internalType": "uint256"
        },
        {
          "name": "_CommonGemsValue",
          "type": "uint256",
          "internalType": "uint256"
        },
        {
          "name": "_RareGemsValue",
          "type": "uint256",
          "internalType": "uint256"
        },
        {
          "name": "_UniqueGemsValue",
          "type": "uint256",
          "internalType": "uint256"
        },
        {
          "name": "_EpicGemsValue",
          "type": "uint256",
          "internalType": "uint256"
        },
        {
          "name": "_LegendaryGemsValue",
          "type": "uint256",
          "internalType": "uint256"
        },
        {
          "name": "_MythicGemsValue",
          "type": "uint256",
          "internalType": "uint256"
        }
      ],
      "outputs": [],
      "stateMutability": "nonpayable"
    },
    {
      "type": "function",
      "name": "isAdmin",
      "inputs": [
        {
          "name": "account",
          "type": "address",
          "internalType": "address"
        }
      ],
      "outputs": [
        {
          "name": "",
          "type": "bool",
          "internalType": "bool"
        }
      ],
      "stateMutability": "view"
    },
    {
      "type": "function",
      "name": "isApprovedForAll",
      "inputs": [
        {
          "name": "owner",
          "type": "address",
          "internalType": "address"
        },
        {
          "name": "operator",
          "type": "address",
          "internalType": "address"
        }
      ],
      "outputs": [
        {
          "name": "",
          "type": "bool",
          "internalType": "bool"
        }
      ],
      "stateMutability": "view"
    },
    {
      "type": "function",
      "name": "isMinter",
      "inputs": [
        {
          "name": "account",
          "type": "address",
          "internalType": "address"
        }
      ],
      "outputs": [
        {
          "name": "",
          "type": "bool",
          "internalType": "bool"
        }
      ],
      "stateMutability": "view"
    },
    {
      "type": "function",
      "name": "isOwner",
      "inputs": [],
      "outputs": [
        {
          "name": "",
          "type": "bool",
          "internalType": "bool"
        }
      ],
      "stateMutability": "view"
    },
    {
      "type": "function",
      "name": "isTokenLocked",
      "inputs": [
        {
          "name": "_tokenId",
          "type": "uint256",
          "internalType": "uint256"
        }
      ],
      "outputs": [
        {
          "name": "",
          "type": "bool",
          "internalType": "bool"
        }
      ],
      "stateMutability": "view"
    },
    {
      "type": "function",
      "name": "isUserMining",
      "inputs": [
        {
          "name": "",
          "type": "address",
          "internalType": "address"
        }
      ],
      "outputs": [
        {
          "name": "",
          "type": "bool",
          "internalType": "bool"
        }
      ],
      "stateMutability": "view"
    },
    {
      "type": "function",
      "name": "lastRequestId",
      "inputs": [],
      "outputs": [
        {
          "name": "",
          "type": "uint256",
          "internalType": "uint256"
        }
      ],
      "stateMutability": "view"
    },
    {
      "type": "function",
      "name": "marketplace",
      "inputs": [],
      "outputs": [
        {
          "name": "",
          "type": "address",
          "internalType": "address"
        }
      ],
      "stateMutability": "view"
    },
    {
      "type": "function",
      "name": "meltGEM",
      "inputs": [
        {
          "name": "_tokenId",
          "type": "uint256",
          "internalType": "uint256"
        }
      ],
      "outputs": [],
      "stateMutability": "nonpayable"
    },
    {
      "type": "function",
      "name": "name",
      "inputs": [],
      "outputs": [
        {
          "name": "",
          "type": "string",
          "internalType": "string"
        }
      ],
      "stateMutability": "view"
    },
    {
      "type": "function",
      "name": "numberOfSolidColors",
      "inputs": [],
      "outputs": [
        {
          "name": "",
          "type": "uint8",
          "internalType": "uint8"
        }
      ],
      "stateMutability": "view"
    },
    {
      "type": "function",
      "name": "ownerOf",
      "inputs": [
        {
          "name": "tokenId",
          "type": "uint256",
          "internalType": "uint256"
        }
      ],
      "outputs": [
        {
          "name": "",
          "type": "address",
          "internalType": "address"
        }
      ],
      "stateMutability": "view"
    },
    {
      "type": "function",
      "name": "ownerOfGEM",
      "inputs": [
        {
          "name": "_tokenId",
          "type": "uint256",
          "internalType": "uint256"
        }
      ],
      "outputs": [
        {
          "name": "owner",
          "type": "address",
          "internalType": "address"
        }
      ],
      "stateMutability": "view"
    },
    {
      "type": "function",
      "name": "ownershipTokenCount",
      "inputs": [
        {
          "name": "",
          "type": "address",
          "internalType": "address"
        }
      ],
      "outputs": [
        {
          "name": "",
          "type": "uint256",
          "internalType": "uint256"
        }
      ],
      "stateMutability": "view"
    },
    {
      "type": "function",
      "name": "pause",
      "inputs": [],
      "outputs": [],
      "stateMutability": "nonpayable"
    },
    {
      "type": "function",
      "name": "pauseProxy",
      "inputs": [],
      "outputs": [
        {
          "name": "",
          "type": "bool",
          "internalType": "bool"
        }
      ],
      "stateMutability": "view"
    },
    {
      "type": "function",
      "name": "paused",
      "inputs": [],
      "outputs": [
        {
          "name": "",
          "type": "bool",
          "internalType": "bool"
        }
      ],
      "stateMutability": "view"
    },
    {
      "type": "function",
      "name": "preMintedGemsAvailable",
      "inputs": [],
      "outputs": [
        {
          "name": "GemsAvailable",
          "type": "uint256[]",
          "internalType": "uint256[]"
        }
      ],
      "stateMutability": "view"
    },
    {
      "type": "function",
      "name": "proxyImplementation",
      "inputs": [
        {
          "name": "",
          "type": "uint256",
          "internalType": "uint256"
        }
      ],
      "outputs": [
        {
          "name": "",
          "type": "address",
          "internalType": "address"
        }
      ],
      "stateMutability": "view"
    },
    {
      "type": "function",
      "name": "rawFulfillRandomWords",
      "inputs": [
        {
          "name": "round",
          "type": "uint256",
          "internalType": "uint256"
        },
        {
          "name": "hashedOmegaVal",
          "type": "uint256",
          "internalType": "uint256"
        }
      ],
      "outputs": [],
      "stateMutability": "nonpayable"
    },
    {
      "type": "function",
      "name": "removeAdmin",
      "inputs": [
        {
          "name": "account",
          "type": "address",
          "internalType": "address"
        }
      ],
      "outputs": [],
      "stateMutability": "nonpayable"
    },
    {
      "type": "function",
      "name": "removeMinter",
      "inputs": [
        {
          "name": "account",
          "type": "address",
          "internalType": "address"
        }
      ],
      "outputs": [],
      "stateMutability": "nonpayable"
    },
    {
      "type": "function",
      "name": "renounceMinter",
      "inputs": [],
      "outputs": [],
      "stateMutability": "nonpayable"
    },
    {
      "type": "function",
      "name": "renounceOwnership",
      "inputs": [],
      "outputs": [],
      "stateMutability": "nonpayable"
    },
    {
      "type": "function",
      "name": "renounceRole",
      "inputs": [
        {
          "name": "role",
          "type": "bytes32",
          "internalType": "bytes32"
        },
        {
          "name": "callerConfirmation",
          "type": "address",
          "internalType": "address"
        }
      ],
      "outputs": [],
      "stateMutability": "nonpayable"
    },
    {
      "type": "function",
      "name": "requestCount",
      "inputs": [],
      "outputs": [
        {
          "name": "",
          "type": "uint256",
          "internalType": "uint256"
        }
      ],
      "stateMutability": "view"
    },
    {
      "type": "function",
      "name": "requestIds",
      "inputs": [
        {
          "name": "",
          "type": "uint256",
          "internalType": "uint256"
        }
      ],
      "outputs": [
        {
          "name": "",
          "type": "uint256",
          "internalType": "uint256"
        }
      ],
      "stateMutability": "view"
    },
    {
      "type": "function",
      "name": "revokeMinter",
      "inputs": [
        {
          "name": "account",
          "type": "address",
          "internalType": "address"
        }
      ],
      "outputs": [],
      "stateMutability": "nonpayable"
    },
    {
      "type": "function",
      "name": "revokeRole",
      "inputs": [
        {
          "name": "role",
          "type": "bytes32",
          "internalType": "bytes32"
        },
        {
          "name": "account",
          "type": "address",
          "internalType": "address"
        }
      ],
      "outputs": [],
      "stateMutability": "nonpayable"
    },
    {
      "type": "function",
      "name": "s_requests",
      "inputs": [
        {
          "name": "",
          "type": "uint256",
          "internalType": "uint256"
        }
      ],
      "outputs": [
        {
          "name": "requested",
          "type": "bool",
          "internalType": "bool"
        },
        {
          "name": "fulfilled",
          "type": "bool",
          "internalType": "bool"
        },
        {
          "name": "randomWord",
          "type": "uint256",
          "internalType": "uint256"
        },
        {
          "name": "chosenTokenId",
          "type": "uint256",
          "internalType": "uint256"
        },
        {
          "name": "requester",
          "type": "address",
          "internalType": "address"
        }
      ],
      "stateMutability": "view"
    },
    {
      "type": "function",
      "name": "safeTransferFrom",
      "inputs": [
        {
          "name": "from",
          "type": "address",
          "internalType": "address"
        },
        {
          "name": "to",
          "type": "address",
          "internalType": "address"
        },
        {
          "name": "tokenId",
          "type": "uint256",
          "internalType": "uint256"
        }
      ],
      "outputs": [],
      "stateMutability": "nonpayable"
    },
    {
      "type": "function",
      "name": "safeTransferFrom",
      "inputs": [
        {
          "name": "from",
          "type": "address",
          "internalType": "address"
        },
        {
          "name": "to",
          "type": "address",
          "internalType": "address"
        },
        {
          "name": "tokenId",
          "type": "uint256",
          "internalType": "uint256"
        },
        {
          "name": "data",
          "type": "bytes",
          "internalType": "bytes"
        }
      ],
      "outputs": [],
      "stateMutability": "nonpayable"
    },
    {
      "type": "function",
      "name": "selectorImplementation",
      "inputs": [
        {
          "name": "",
          "type": "bytes4",
          "internalType": "bytes4"
        }
      ],
      "outputs": [
        {
          "name": "",
          "type": "address",
          "internalType": "address"
        }
      ],
      "stateMutability": "view"
    },
    {
      "type": "function",
      "name": "setApprovalForAll",
      "inputs": [
        {
          "name": "operator",
          "type": "address",
          "internalType": "address"
        },
        {
          "name": "approved",
          "type": "bool",
          "internalType": "bool"
        }
      ],
      "outputs": [],
      "stateMutability": "nonpayable"
    },
    {
      "type": "function",
      "name": "setApprovalForMarketplace",
      "inputs": [],
      "outputs": [],
      "stateMutability": "nonpayable"
    },
    {
      "type": "function",
      "name": "setGemsCooldownPeriods",
      "inputs": [
        {
          "name": "_CommonGemsCooldownPeriod",
          "type": "uint256",
          "internalType": "uint256"
        },
        {
          "name": "_RareGemsCooldownPeriod",
          "type": "uint256",
          "internalType": "uint256"
        },
        {
          "name": "_UniqueGemsCooldownPeriod",
          "type": "uint256",
          "internalType": "uint256"
        },
        {
          "name": "_EpicGemsCooldownPeriod",
          "type": "uint256",
          "internalType": "uint256"
        },
        {
          "name": "_LegendaryGemsCooldownPeriod",
          "type": "uint256",
          "internalType": "uint256"
        },
        {
          "name": "_MythicGemsCooldownPeriod",
          "type": "uint256",
          "internalType": "uint256"
        }
      ],
      "outputs": [],
      "stateMutability": "nonpayable"
    },
    {
      "type": "function",
      "name": "setGemsMiningPeriods",
      "inputs": [
        {
          "name": "_CommonGemsMiningPeriod",
          "type": "uint256",
          "internalType": "uint256"
        },
        {
          "name": "_RareGemsMiningPeriod",
          "type": "uint256",
          "internalType": "uint256"
        },
        {
          "name": "_UniqueGemsMiningPeriod",
          "type": "uint256",
          "internalType": "uint256"
        },
        {
          "name": "_EpicGemsMiningPeriod",
          "type": "uint256",
          "internalType": "uint256"
        },
        {
          "name": "_LegendaryGemsMiningPeriod",
          "type": "uint256",
          "internalType": "uint256"
        },
        {
          "name": "_MythicGemsMiningPeriod",
          "type": "uint256",
          "internalType": "uint256"
        }
      ],
      "outputs": [],
      "stateMutability": "nonpayable"
    },
    {
      "type": "function",
      "name": "setIsLocked",
      "inputs": [
        {
          "name": "_tokenId",
          "type": "uint256",
          "internalType": "uint256"
        },
        {
          "name": "_isLocked",
          "type": "bool",
          "internalType": "bool"
        }
      ],
      "outputs": [],
      "stateMutability": "nonpayable"
    },
    {
      "type": "function",
      "name": "setMarketPlaceAddress",
      "inputs": [
        {
          "name": "_marketplace",
          "type": "address",
          "internalType": "address"
        }
      ],
      "outputs": [],
      "stateMutability": "nonpayable"
    },
    {
      "type": "function",
      "name": "setNumberOfSolidColors",
      "inputs": [
        {
          "name": "_numberOfSolidColors",
          "type": "uint8",
          "internalType": "uint8"
        }
      ],
      "outputs": [],
      "stateMutability": "nonpayable"
    },
    {
      "type": "function",
      "name": "startMiningGEM",
      "inputs": [
        {
          "name": "_tokenId",
          "type": "uint256",
          "internalType": "uint256"
        }
      ],
      "outputs": [
        {
          "name": "",
          "type": "bool",
          "internalType": "bool"
        }
      ],
      "stateMutability": "payable"
    },
    {
      "type": "function",
      "name": "supportsInterface",
      "inputs": [
        {
          "name": "interfaceId",
          "type": "bytes4",
          "internalType": "bytes4"
        }
      ],
      "outputs": [
        {
          "name": "",
          "type": "bool",
          "internalType": "bool"
        }
      ],
      "stateMutability": "view"
    },
    {
      "type": "function",
      "name": "symbol",
      "inputs": [],
      "outputs": [
        {
          "name": "",
          "type": "string",
          "internalType": "string"
        }
      ],
      "stateMutability": "view"
    },
    {
      "type": "function",
      "name": "tokenMiningByUser",
      "inputs": [
        {
          "name": "",
          "type": "address",
          "internalType": "address"
        }
      ],
      "outputs": [
        {
          "name": "",
          "type": "uint256",
          "internalType": "uint256"
        }
      ],
      "stateMutability": "view"
    },
    {
      "type": "function",
      "name": "tokenReadyToMine",
      "inputs": [
        {
          "name": "",
          "type": "uint256",
          "internalType": "uint256"
        }
      ],
      "outputs": [
        {
          "name": "",
          "type": "bool",
          "internalType": "bool"
        }
      ],
      "stateMutability": "view"
    },
    {
      "type": "function",
      "name": "tokenURI",
      "inputs": [
        {
          "name": "tokenId",
          "type": "uint256",
          "internalType": "uint256"
        }
      ],
      "outputs": [
        {
          "name": "",
          "type": "string",
          "internalType": "string"
        }
      ],
      "stateMutability": "view"
    },
    {
      "type": "function",
      "name": "tokensOfOwner",
      "inputs": [
        {
          "name": "_owner",
          "type": "address",
          "internalType": "address"
        }
      ],
      "outputs": [
        {
          "name": "ownerTokens",
          "type": "uint256[]",
          "internalType": "uint256[]"
        }
      ],
      "stateMutability": "view"
    },
    {
      "type": "function",
      "name": "ton",
      "inputs": [],
      "outputs": [
        {
          "name": "",
          "type": "address",
          "internalType": "address"
        }
      ],
      "stateMutability": "view"
    },
    {
      "type": "function",
      "name": "totalSupply",
      "inputs": [],
      "outputs": [
        {
          "name": "",
          "type": "uint256",
          "internalType": "uint256"
        }
      ],
      "stateMutability": "view"
    },
    {
      "type": "function",
      "name": "transferAdmin",
      "inputs": [
        {
          "name": "newAdmin",
          "type": "address",
          "internalType": "address"
        }
      ],
      "outputs": [],
      "stateMutability": "nonpayable"
    },
    {
      "type": "function",
      "name": "transferFrom",
      "inputs": [
        {
          "name": "from",
          "type": "address",
          "internalType": "address"
        },
        {
          "name": "to",
          "type": "address",
          "internalType": "address"
        },
        {
          "name": "tokenId",
          "type": "uint256",
          "internalType": "uint256"
        }
      ],
      "outputs": [],
      "stateMutability": "nonpayable"
    },
    {
      "type": "function",
      "name": "transferGEM",
      "inputs": [
        {
          "name": "_to",
          "type": "address",
          "internalType": "address"
        },
        {
          "name": "_tokenId",
          "type": "uint256",
          "internalType": "uint256"
        }
      ],
      "outputs": [],
      "stateMutability": "nonpayable"
    },
    {
      "type": "function",
      "name": "transferGEMFrom",
      "inputs": [
        {
          "name": "_from",
          "type": "address",
          "internalType": "address"
        },
        {
          "name": "_to",
          "type": "address",
          "internalType": "address"
        },
        {
          "name": "_tokenId",
          "type": "uint256",
          "internalType": "uint256"
        }
      ],
      "outputs": [],
      "stateMutability": "nonpayable"
    },
    {
      "type": "function",
      "name": "transferOwnership",
      "inputs": [
        {
          "name": "newAdmin",
          "type": "address",
          "internalType": "address"
        }
      ],
      "outputs": [],
      "stateMutability": "nonpayable"
    },
    {
      "type": "function",
      "name": "treasury",
      "inputs": [],
      "outputs": [
        {
          "name": "",
          "type": "address",
          "internalType": "address"
        }
      ],
      "stateMutability": "view"
    },
    {
      "type": "function",
      "name": "unpause",
      "inputs": [],
      "outputs": [],
      "stateMutability": "nonpayable"
    },
    {
      "type": "function",
      "name": "userMiningStartTime",
      "inputs": [
        {
          "name": "",
          "type": "address",
          "internalType": "address"
        },
        {
          "name": "",
          "type": "uint256",
          "internalType": "uint256"
        }
      ],
      "outputs": [
        {
          "name": "",
          "type": "uint256",
          "internalType": "uint256"
        }
      ],
      "stateMutability": "view"
    },
    {
      "type": "function",
      "name": "userMiningToken",
      "inputs": [
        {
          "name": "",
          "type": "address",
          "internalType": "address"
        },
        {
          "name": "",
          "type": "uint256",
          "internalType": "uint256"
        }
      ],
      "outputs": [
        {
          "name": "",
          "type": "bool",
          "internalType": "bool"
        }
      ],
      "stateMutability": "view"
    },
    {
      "type": "function",
      "name": "wston",
      "inputs": [],
      "outputs": [
        {
          "name": "",
          "type": "address",
          "internalType": "address"
        }
      ],
      "stateMutability": "view"
    },
    {
      "type": "event",
      "name": "Approval",
      "inputs": [
        {
          "name": "owner",
          "type": "address",
          "indexed": true,
          "internalType": "address"
        },
        {
          "name": "approved",
          "type": "address",
          "indexed": true,
          "internalType": "address"
        },
        {
          "name": "tokenId",
          "type": "uint256",
          "indexed": true,
          "internalType": "uint256"
        }
      ],
      "anonymous": false
    },
    {
      "type": "event",
      "name": "ApprovalForAll",
      "inputs": [
        {
          "name": "owner",
          "type": "address",
          "indexed": true,
          "internalType": "address"
        },
        {
          "name": "operator",
          "type": "address",
          "indexed": true,
          "internalType": "address"
        },
        {
          "name": "approved",
          "type": "bool",
          "indexed": false,
          "internalType": "bool"
        }
      ],
      "anonymous": false
    },
    {
      "type": "event",
      "name": "BackgroundColorAdded",
      "inputs": [
        {
          "name": "id",
          "type": "uint8",
          "indexed": true,
          "internalType": "uint8"
        },
        {
          "name": "backgroundColor",
          "type": "string",
          "indexed": false,
          "internalType": "string"
        }
      ],
      "anonymous": false
    },
    {
      "type": "event",
      "name": "BatchMetadataUpdate",
      "inputs": [
        {
          "name": "_fromTokenId",
          "type": "uint256",
          "indexed": false,
          "internalType": "uint256"
        },
        {
          "name": "_toTokenId",
          "type": "uint256",
          "indexed": false,
          "internalType": "uint256"
        }
      ],
      "anonymous": false
    },
    {
      "type": "event",
      "name": "ColorAdded",
      "inputs": [
        {
          "name": "id",
          "type": "uint8",
          "indexed": true,
          "internalType": "uint8"
        },
        {
          "name": "color",
          "type": "string",
          "indexed": false,
          "internalType": "string"
        }
      ],
      "anonymous": false
    },
    {
      "type": "event",
      "name": "Created",
      "inputs": [
        {
          "name": "tokenId",
          "type": "uint256",
          "indexed": true,
          "internalType": "uint256"
        },
        {
          "name": "rarity",
          "type": "uint8",
          "indexed": false,
          "internalType": "enum GemFactoryStorage.Rarity"
        },
        {
          "name": "color",
          "type": "uint8[2]",
          "indexed": false,
          "internalType": "uint8[2]"
        },
        {
          "name": "value",
          "type": "uint256",
          "indexed": false,
          "internalType": "uint256"
        },
        {
          "name": "stakingIndex",
          "type": "uint256",
          "indexed": false,
          "internalType": "uint256"
        },
        {
          "name": "quadrants",
          "type": "uint8[4]",
          "indexed": false,
          "internalType": "uint8[4]"
        },
        {
          "name": "miningPeriod",
          "type": "uint256",
          "indexed": false,
          "internalType": "uint256"
        },
        {
          "name": "cooldownPeriod",
          "type": "uint256",
          "indexed": false,
          "internalType": "uint256"
        },
        {
          "name": "tokenURI",
          "type": "string",
          "indexed": false,
          "internalType": "string"
        },
        {
          "name": "owner",
          "type": "address",
          "indexed": false,
          "internalType": "address"
        }
      ],
      "anonymous": false
    },
    {
      "type": "event",
      "name": "GemForged",
      "inputs": [
        {
          "name": "GemsTokenIds",
          "type": "uint256[]",
          "indexed": false,
          "internalType": "uint256[]"
        },
        {
          "name": "newGemCreatedId",
          "type": "uint256",
          "indexed": false,
          "internalType": "uint256"
        }
      ],
      "anonymous": false
    },
    {
      "type": "event",
      "name": "GemMelted",
      "inputs": [
        {
          "name": "_tokenId",
          "type": "uint256",
          "indexed": false,
          "internalType": "uint256"
        },
        {
          "name": "_from",
          "type": "address",
          "indexed": false,
          "internalType": "address"
        }
      ],
      "anonymous": false
    },
    {
      "type": "event",
      "name": "GemMiningClaimed",
      "inputs": [
        {
          "name": "tokenId",
          "type": "uint256",
          "indexed": false,
          "internalType": "uint256"
        },
        {
          "name": "miner",
          "type": "address",
          "indexed": false,
          "internalType": "address"
        }
      ],
      "anonymous": false
    },
    {
      "type": "event",
      "name": "GemMiningStarted",
      "inputs": [
        {
          "name": "tokenId",
          "type": "uint256",
          "indexed": false,
          "internalType": "uint256"
        },
        {
          "name": "miner",
          "type": "address",
          "indexed": false,
          "internalType": "address"
        },
        {
          "name": "startMiningTime",
          "type": "uint256",
          "indexed": false,
          "internalType": "uint256"
        }
      ],
      "anonymous": false
    },
    {
      "type": "event",
      "name": "MetadataUpdate",
      "inputs": [
        {
          "name": "_tokenId",
          "type": "uint256",
          "indexed": false,
          "internalType": "uint256"
        }
      ],
      "anonymous": false
    },
    {
      "type": "event",
      "name": "Paused",
      "inputs": [
        {
          "name": "account",
          "type": "address",
          "indexed": false,
          "internalType": "address"
        }
      ],
      "anonymous": false
    },
    {
      "type": "event",
      "name": "RoleAdminChanged",
      "inputs": [
        {
          "name": "role",
          "type": "bytes32",
          "indexed": true,
          "internalType": "bytes32"
        },
        {
          "name": "previousAdminRole",
          "type": "bytes32",
          "indexed": true,
          "internalType": "bytes32"
        },
        {
          "name": "newAdminRole",
          "type": "bytes32",
          "indexed": true,
          "internalType": "bytes32"
        }
      ],
      "anonymous": false
    },
    {
      "type": "event",
      "name": "RoleGranted",
      "inputs": [
        {
          "name": "role",
          "type": "bytes32",
          "indexed": true,
          "internalType": "bytes32"
        },
        {
          "name": "account",
          "type": "address",
          "indexed": true,
          "internalType": "address"
        },
        {
          "name": "sender",
          "type": "address",
          "indexed": true,
          "internalType": "address"
        }
      ],
      "anonymous": false
    },
    {
      "type": "event",
      "name": "RoleRevoked",
      "inputs": [
        {
          "name": "role",
          "type": "bytes32",
          "indexed": true,
          "internalType": "bytes32"
        },
        {
          "name": "account",
          "type": "address",
          "indexed": true,
          "internalType": "address"
        },
        {
          "name": "sender",
          "type": "address",
          "indexed": true,
          "internalType": "address"
        }
      ],
      "anonymous": false
    },
    {
      "type": "event",
      "name": "Transfer",
      "inputs": [
        {
          "name": "from",
          "type": "address",
          "indexed": true,
          "internalType": "address"
        },
        {
          "name": "to",
          "type": "address",
          "indexed": true,
          "internalType": "address"
        },
        {
          "name": "tokenId",
          "type": "uint256",
          "indexed": true,
          "internalType": "uint256"
        }
      ],
      "anonymous": false
    },
    {
      "type": "event",
      "name": "TransferGEM",
      "inputs": [
        {
          "name": "from",
          "type": "address",
          "indexed": false,
          "internalType": "address"
        },
        {
          "name": "to",
          "type": "address",
          "indexed": false,
          "internalType": "address"
        },
        {
          "name": "tokenId",
          "type": "uint256",
          "indexed": false,
          "internalType": "uint256"
        }
      ],
      "anonymous": false
    },
    {
      "type": "event",
      "name": "Unpaused",
      "inputs": [
        {
          "name": "account",
          "type": "address",
          "indexed": false,
          "internalType": "address"
        }
      ],
      "anonymous": false
    },
    {
      "type": "error",
      "name": "AccessControlBadConfirmation",
      "inputs": []
    },
    {
      "type": "error",
      "name": "AccessControlUnauthorizedAccount",
      "inputs": [
        {
          "name": "account",
          "type": "address",
          "internalType": "address"
        },
        {
          "name": "neededRole",
          "type": "bytes32",
          "internalType": "bytes32"
        }
      ]
    },
    {
      "type": "error",
      "name": "AddressEmptyCode",
      "inputs": [
        {
          "name": "target",
          "type": "address",
          "internalType": "address"
        }
      ]
    },
    {
      "type": "error",
      "name": "AddressInsufficientBalance",
      "inputs": [
        {
          "name": "account",
          "type": "address",
          "internalType": "address"
        }
      ]
    },
    {
      "type": "error",
      "name": "ERC721IncorrectOwner",
      "inputs": [
        {
          "name": "sender",
          "type": "address",
          "internalType": "address"
        },
        {
          "name": "tokenId",
          "type": "uint256",
          "internalType": "uint256"
        },
        {
          "name": "owner",
          "type": "address",
          "internalType": "address"
        }
      ]
    },
    {
      "type": "error",
      "name": "ERC721InsufficientApproval",
      "inputs": [
        {
          "name": "operator",
          "type": "address",
          "internalType": "address"
        },
        {
          "name": "tokenId",
          "type": "uint256",
          "internalType": "uint256"
        }
      ]
    },
    {
      "type": "error",
      "name": "ERC721InvalidApprover",
      "inputs": [
        {
          "name": "approver",
          "type": "address",
          "internalType": "address"
        }
      ]
    },
    {
      "type": "error",
      "name": "ERC721InvalidOperator",
      "inputs": [
        {
          "name": "operator",
          "type": "address",
          "internalType": "address"
        }
      ]
    },
    {
      "type": "error",
      "name": "ERC721InvalidOwner",
      "inputs": [
        {
          "name": "owner",
          "type": "address",
          "internalType": "address"
        }
      ]
    },
    {
      "type": "error",
      "name": "ERC721InvalidReceiver",
      "inputs": [
        {
          "name": "receiver",
          "type": "address",
          "internalType": "address"
        }
      ]
    },
    {
      "type": "error",
      "name": "ERC721InvalidSender",
      "inputs": [
        {
          "name": "sender",
          "type": "address",
          "internalType": "address"
        }
      ]
    },
    {
      "type": "error",
      "name": "ERC721NonexistentToken",
      "inputs": [
        {
          "name": "tokenId",
          "type": "uint256",
          "internalType": "uint256"
        }
      ]
    },
    {
      "type": "error",
      "name": "FailedInnerCall",
      "inputs": []
    },
    {
      "type": "error",
      "name": "OnlyCoordinatorCanFulfill",
      "inputs": [
        {
          "name": "have",
          "type": "address",
          "internalType": "address"
        },
        {
          "name": "want",
          "type": "address",
          "internalType": "address"
        }
      ]
    },
    {
      "type": "error",
      "name": "SafeERC20FailedOperation",
      "inputs": [
        {
          "name": "token",
          "type": "address",
          "internalType": "address"
        }
      ]
    }
  ],
  "bytecode": {
    "object": "0x60a06040523461035f576173756020813803918261001c81610364565b93849283398101031261035f57516001600160a01b0381169081900361035f576100466040610364565b90600a825269546f6b616d616b47454d60b01b60208301526100686040610364565b600381526247454d60e81b602082015282519091906001600160401b03811161026a57600054600181811c91168015610355575b602082101461024a57601f81116102f1575b506020601f821160011461028b5781929394600092610280575b50508160011b916000199060031b1c1916176000555b81516001600160401b03811161026a57600154600181811c91168015610260575b602082101461024a57601f81116101e5575b50602092601f82116001146101805792819293600092610175575b50508160011b916000199060031b1c1916176001555b60805261014e33610389565b50604051616f3d9081610418823960805181818161077a01528181613da201526147d80152f35b01519050388061012c565b601f198216936001600052806000209160005b8681106101cd57508360019596106101b4575b505050811b01600155610142565b015160001960f88460031b161c191690553880806101a6565b91926020600181928685015181550194019201610193565b60016000527fb10e2d527612073b26eecdfd717e6a320cf44b4afac2b0732d9fcbe2b7fa0cf6601f830160051c81019160208410610240575b601f0160051c01905b8181106102345750610111565b60008155600101610227565b909150819061021e565b634e487b7160e01b600052602260045260246000fd5b90607f16906100ff565b634e487b7160e01b600052604160045260246000fd5b0151905038806100c8565b601f1982169060008052806000209160005b8181106102d9575095836001959697106102c0575b505050811b016000556100de565b015160001960f88460031b161c191690553880806102b2565b9192602060018192868b01518155019401920161029d565b600080527f290decd9548b62a8d60345a988386fc84ba6bc95484008f6362f93160ef3e563601f830160051c8101916020841061034b575b601f0160051c01905b81811061033f57506100ae565b60008155600101610332565b9091508190610329565b90607f169061009c565b600080fd5b6040519190601f01601f191682016001600160401b0381118382101761026a57604052565b6001600160a01b0381166000908152600080516020617355833981519152602052604090205460ff16610411576001600160a01b0316600081815260008051602061735583398151915260205260408120805460ff191660011790553391907f2f8788117e7eff1d82e926ec794901d17c78024a50270940304540a733656f0d8180a4600190565b5060009056fe60a080604052600436101561001357600080fd5b60003560e01c90816301ffc9a71461526357508063034294f814615242578063038a7e05146152245780630491fd3e1461518257806304e41a0b1461516457806306fdde03146150bf578063081812fc146150815780630922f51314615060578063095ea7b314614f715780630c7254a014614f1d5780630de32a9714614eff578063119868bb14614ecb578063139b63f314614ead57806315341f2b14614db55780631785f53c14614d5857806318160ddd14614d3d5780631885cbbe14614d1f57806318898f3614614d015780631d0e0aac14614c045780631d3392e214614be65780631da0fc9c146145d3578063205fb1f81461459457806323b872dd1461457d578063248a9ca31461455057806324d7806c14614500578063276a28a3146144d05780632bbbe94d146115225780632f2ff15d146144905780633092afd5146144355780633189983f1461428957806333158058146141c9578063337d54a1146140ca57806333d608f1146140ac57806336568abe1461406657806336b17e1314610a0857806337ed11db14613d89578063384c252f14613d55578063389ed26714613d1a5780633b19e84a14612d185780633f4ba83a14613c8b5780633fb310a514613c6d57806342842e0e14613c3d5780634d723a7514613bec5780634f557d2714612c4557806350d2a27614613ba7578063550d01a314613b6857806358bf3e6514613b4a5780635b310aee14612da05780635badbe4c14612d825780635bbffab614612d645780635c975abb14612d4157806361d027b314612d1857806361f7f6d714612c63578063629296c514612c455780636352211e14612c1557806363a8fd8914612bef578063676f79f114612ba75780636b1a96fa14612b735780637048027514612afa57806370a0823114611466578063715018a614612ab7578063724188bc14612a9657806375829def14612a7d57806377f7e49914612a5f5780637866369b14612a2e5780637d7a5477146122a15780637fe6fde514611f065780638456cb5914611e745780638462151c14611e505780638796ba8c14611dfe5780638ba24af0146118795780638f32d59b14611dbe5780638fddb06514611da057806391490c4b1461057357806391d1485414611d5357806395d89b4114611c8657806397125c4014611c52578063983b2d5614611bc65780639865027514611bac5780639a66af6214611b58578063a0b2d41b14611b3a578063a168fa8914611ad2578063a1770a7d14611a85578063a217fddf14611a69578063a22cb465146119c2578063a8ce886e14611964578063aa271e1a14611914578063abc8c7af146118eb578063ad0d3d3f14611897578063adf8627e14611879578063aff2a463146117fc578063b211d958146117de578063b78417b0146117c0578063b88d4fde14611756578063b911135f14611722578063bd11f69d146116b0578063bd81009f14611673578063c138907214611639578063c28fb6b714611603578063c4d2fcae146115e5578063c87b56dd1461154b578063cc48b94714611522578063cc98ef96146114be578063ce8ab5df146114a0578063cec21acb14611466578063cfbd4885146113da578063d11a57ec146113b1578063d547741f14611371578063d6492bb114610c75578063d6bb7ba014610aac578063d7a4649514610a8e578063d8f573cd14610a70578063dffdae0214610a53578063e4b7fddf14610a35578063e7a523c014610a08578063e985e9c5146109ad578063ecc5e06f14610961578063efa2cc2914610943578063f2fde38b146107f0578063f5494bb91461073b578063f66f9e341461071d578063f99a6bb5146105b4578063fc2a88c3146105965763fed7b27a1461057357600080fd5b34610591576000366003190112610591576020601d54604051908152f35b600080fd5b34610591576000366003190112610591576020603654604051908152f35b34610591576020366003190112610591576004356105d760ff6019541615615732565b6105e2331515615903565b80600052600f6020523360018060a01b03604060002054160361059157600060206106586007610611856155de565b50015461061e8533616acd565b603954604051630169dc3160e01b81523360048201526024810192909252909384926001600160a01b039092169183919082906044820190565b03925af1908115610711576000916106e2575b50156106ab57604080519182523360208301527f65aff8e0552d208dfaf55b1280e55553b7dba628290897ff43c8f086d5dbfd2a9190819081015b0390a1005b60405162461bcd60e51b815260206004820152600f60248201526e1d1c985b9cd9995c8819985a5b1959608a1b6044820152606490fd5b610704915060203d60201161070a575b6106fc81836153af565b810190615b3b565b8261066b565b503d6106f2565b6040513d6000823e3d90fd5b34610591576000366003190112610591576020602354604051908152f35b346105915760203660031901126105915760043563ffffffff8116809103610591576040516315ae5acd60e11b815260048101919091526020816024817f00000000000000000000000000000000000000000000000000000000000000006001600160a01b03165afa8015610711576000906107bd575b602090604051908152f35b506020813d6020116107e8575b816107d7602093836153af565b8101031261059157602090516107b2565b3d91506107ca565b3461059157602036600319011261059157610809615341565b336000908152600080516020616ea883398151915260205260409020546108329060ff16615771565b336000908152600080516020616ea8833981519152602052604090205461085b9060ff16615771565b6001600160a01b03811680156108fe5733146108c05760008052603e6020527f5f97c64b3c4bdfff50b5c8f505e633128432c6b07fc6c8abc77dce786c7317d5546108b491906108af90616433565b616433565b616470565b506108be33616790565b005b60405162461bcd60e51b815260206004820152601660248201527520b1b1b2b9b9b4b136329d1039b0b6b29030b236b4b760511b6044820152606490fd5b60405162461bcd60e51b815260206004820152601860248201527f41636365737369626c653a207a65726f206164647265737300000000000000006044820152606490fd5b34610591576000366003190112610591576020603154604051908152f35b346105915760203660031901126105915760ff61097c6154a0565b16600052600b6020526109a96109956040600020615669565b604051918291602083526020830190615302565b0390f35b34610591576040366003190112610591576109c6615341565b6109ce615357565b9060018060a01b0316600052600560205260406000209060018060a01b0316600052602052602060ff604060002054166040519015158152f35b346105915760003660031901126105915760375460405160089190911c6001600160a01b03168152602090f35b34610591576000366003190112610591576020603354604051908152f35b346105915760003660031901126105915760208054604051908152f35b34610591576000366003190112610591576020601a54604051908152f35b34610591576000366003190112610591576020602c54604051908152f35b3461059157610aba36615440565b91610ad060018060a01b03603a54163314615b9f565b610adf60ff6019541615615732565b6000838152600f60205260409020546001600160a01b031615610c3757610b1660ff6006610b0c866155de565b5001541615615c01565b6000838152600f60205260409020546001600160a01b0390811690821603610c00576001600160a01b03821615610bc9576106a683610b777f85d07a7616aea29f5d972fd9100b991c224490bd49b737377d908f66f34d9afd958585616632565b610b9f604051610b886020826153af565b60008152610b97838787615994565b828686616d14565b604080516001600160a01b0394851681529490931660208501529183019190915281906060820190565b60405162461bcd60e51b815260206004820152600f60248201526e496e76616c6964206164647265737360881b6044820152606490fd5b60405162461bcd60e51b815260206004820152600f60248201526e2737ba103a37b5b2b71037bbb732b960891b6044820152606490fd5b60405162461bcd60e51b815260206004820152601660248201527522a9219b9918a737b732bc34b9ba32b73a2a37b5b2b760511b6044820152606490fd5b346105915761012036600319011261059157600435600681101561059157366043121561059157610ca73660246154be565b9060643560003660a3121561136e5750610cc2366084615503565b610104356001600160401b03811161059157610ce2903690600401615422565b92610cf860018060a01b03603954163314615b9f565b610d0760ff6019541615615732565b600060ff835116610d21602085019160ff83511690615950565b610d34604086019160ff83511690615950565b90610d48606087019260ff84511690615950565b9385610f5e575092610d8660089360ff93610d8d966001868b511614928315610f50575b83610f28575b5082610f00575b5081610edb575b50615cf9565b1610615d5c565b602e549460285493602254925b610e04610da789426160c1565b60405190610db482615393565b60008252610dc584602084016160ce565b87604083015285606083015260808201528760a0820152600060c08201528560e0820152836101008201528861012082015260006101408201526160da565b600754600019810197908811610ec55787610e1e816155de565b505563ffffffff881688036105915760209888977fe4d551115b58edfb8dc82767e463462b3b2a8bb444cb0ee27de703c24332282597610eba958a600052600f8d52604060002060018060a01b0333166001600160601b0360a01b8254161790553360005260108d526040600020610e968154616219565b9055610ea28b3361689c565b610eac858c616a8a565b60405198899833978a616228565b0390a2604051908152f35b634e487b7160e01b600052601160045260246000fd5b8051851660011491508115610ef2575b508b610d80565b51841660021490508b610eeb565b90915060018582511614908115610f1a575b50908c610d79565b51851660021490508c610f12565b90925060018682511614908115610f42575b50918d610d72565b51861660021490508d610f3a565b8a5187166002149350610d6c565b60018603611039575092610f9e600c9360ff93610fa5966002868b51161492831561102b575b83611003575b5082610fdb575b5081610fb6575b50615da8565b1610615e09565b602f54946029549360235492610d9a565b8051851660021491508115610fcd575b508b610f98565b51841660031490508b610fc6565b90915060028582511614908115610ff5575b50908c610f91565b51851660031490508c610fed565b9092506002868251161490811561101d575b50918d610f8a565b51861660031490508d611015565b8a5187166003149350610f84565b6002860361111457509261107960109360ff93611080966003868b511614928315611106575b836110de575b50826110b6575b5081611091575b50615e55565b1610615eb8565b60305494602a549360245492610d9a565b80518516600314915081156110a8575b508b611073565b51841660041490508b6110a1565b909150600385825116149081156110d0575b50908c61106c565b51851660041490508c6110c8565b909250600386825116149081156110f8575b50918d611065565b51861660041490508d6110f0565b8a518716600414935061105f565b600386036111ef57509261115460149360ff9361115b966004868b5116149283156111e1575b836111b9575b5082611191575b508161116c575b50615f04565b1610615f65565b60315494602b549360255492610d9a565b8051851660041491508115611183575b508b61114e565b51841660051490508b61117c565b909150600485825116149081156111ab575b50908c611147565b51851660051490508c6111a3565b909250600486825116149081156111d3575b50918d611140565b51861660051490508d6111cb565b8a518716600514935061113a565b600486036112ca57509261122f60189360ff93611236966005868b5116149283156112bc575b83611294575b508261126c575b5081611247575b50615fb1565b1610616017565b60325494602c549360265492610d9a565b805185166005149150811561125e575b508b611229565b51841660061490508b611257565b90915060058582511614908115611286575b50908c611222565b51851660061490508c61127e565b909250600586825116149081156112ae575b50918d61121b565b51861660061490508d6112a6565b8a5187166006149350611215565b5092506005840361133a576112fc92600660ff87511614928361132b575b508261131c575b508161130d575b50616063565b60335494602d549360275492610d9a565b5160ff166006149050876112f6565b5160ff166006149150886112ef565b5160ff166006149250896112e8565b60405162461bcd60e51b815260206004820152600c60248201526b77726f6e672052617269747960a01b6044820152606490fd5b80fd5b34610591576040366003190112610591576108be600435611390615357565b906113ac6108aa82600052603e60205260016040600020015490565b616816565b34610591576000366003190112610591576020604051600080516020616ee88339815191528152f35b34610591576020366003190112610591576108be6113f6615341565b336000908152600080516020616ea8833981519152602052604090205461141f9060ff16615771565b600080516020616ee8833981519152600052603e6020527f1994726d0f42d2dc6b82bdf52c658516ff6c9f2a1554454f36692460fd32b4545461146190616433565b6166fa565b34610591576020366003190112610591576001600160a01b03611487615341565b1660005260106020526020604060002054604051908152f35b34610591576000366003190112610591576020601f54604051908152f35b34610591576020366003190112610591576114d7615341565b336000908152600080516020616ea883398151915260205260409020546115009060ff16615771565b603a80546001600160a01b0319166001600160a01b0392909216919091179055005b34610591576000366003190112610591576038546040516001600160a01b039091168152602090f35b34610591576020366003190112610591576004356000818152600f60205260409020546001600160a01b031615611588576109956109a991616e13565b60405162461bcd60e51b815260206004820152602f60248201527f4552433732314d657461646174613a2055524920717565727920666f72206e6f60448201526e3732bc34b9ba32b73a103a37b5b2b760891b6064820152608490fd5b34610591576000366003190112610591576020602854604051908152f35b34610591576000366003190112610591576039546109a99061162d906001600160a01b031661634d565b604051918291826155a4565b34610591576020366003190112610591576001600160a01b0361165a615341565b1660005260146020526020604060002054604051908152f35b34610591576020366003190112610591576004356000908152600f60205260409020546001600160a01b0316801561059157602090604051908152f35b3461059157602036600319011261059157600435600a54811015610591576000600a5482101561170e57600a90527fc65a7bb8d6351c1cf70c95a316cc6a92839c986682d98bc35f958f4883f9d2a80160006109a961099583615669565b634e487b7160e01b81526032600452602490fd5b3461059157602036600319011261059157600435600052603b602052602060018060a01b0360406000205416604051908152f35b346105915760803660031901126105915761176f615341565b611777615357565b90604435606435926001600160401b0384116105915736602385011215610591576117af6108be9436906024816004013591016153eb565b926117bb838383615994565b616d14565b34610591576000366003190112610591576020602f54604051908152f35b34610591576000366003190112610591576020602154604051908152f35b34610591576020366003190112610591576118156154a0565b60ff806009541691169081101561183e5760005260086020526109a96109956040600020615669565b60405162461bcd60e51b8152602060048201526013602482015272496e646578206f7574206f6620626f756e647360681b6044820152606490fd5b34610591576000366003190112610591576020601e54604051908152f35b34610591576118a53661536d565b336000908152600080516020616ea883398151915260205260409020549095919492939291906118d79060ff16615771565b602e55602f55603055603155603255603355005b3461059157600036600319011261059157603a546040516001600160a01b039091168152602090f35b346105915760203660031901126105915761192d615341565b6001600160a01b03166000908152600080516020616ec8833981519152602090815260409182902054915160ff9092161515825290f35b3461059157602036600319011261059157600435600d54811015610591576000600d5482101561170e57600d90527fd7b6990105719101dabeb77144f2a3385c8033acd3af97e9423a695e81ad1eb50160006109a961099583615669565b34610591576040366003190112610591576119db615341565b6119e361547a565b6001600160a01b03909116908115611a5457336000526005602052604060002082600052602052611a248160406000209060ff801983541691151516179055565b60405190151581527f17307eab39ab6107e8899845ad3d59bd9653f200f220920489ca2b5937696c3160203392a3005b50630b61174360e31b60005260045260246000fd5b3461059157600036600319011261059157602060405160008152f35b34610591576040366003190112610591576001600160a01b03611aa6615341565b1660005260156020526040600020602435600052602052602060ff604060002054166040519015158152f35b3461059157602036600319011261059157600435600052601860205260a060406000208054906001810154906002810154906003600180871b03910154169160ff604051948181161515865260081c1615156020850152604084015260608301526080820152f35b34610591576000366003190112610591576020602654604051908152f35b346105915760203660031901126105915760ff611b736154a0565b336000908152600080516020616ea88339815191526020526040902054611b9b908316615771565b1660ff196037541617603755600080f35b34610591576000366003190112610591576108be336166fa565b34610591576020366003190112610591576108be611be2615341565b336000908152600080516020616ea88339815191526020526040902054611c0b9060ff16615771565b600080516020616ee8833981519152600052603e6020527f1994726d0f42d2dc6b82bdf52c658516ff6c9f2a1554454f36692460fd32b45454611c4d90616433565b6164fe565b3461059157602036600319011261059157600435600052600f602052602060018060a01b0360406000205416604051908152f35b34610591576000366003190112610591576040516000600154611ca88161562f565b8084529060018116908115611d2f5750600114611cd0575b6109a983610995818503826153af565b600160009081527fb10e2d527612073b26eecdfd717e6a320cf44b4afac2b0732d9fcbe2b7fa0cf6939250905b808210611d1557509091508101602001610995611cc0565b919260018160209254838588010152019101909291611cfd565b60ff191660208086019190915291151560051b840190910191506109959050611cc0565b3461059157604036600319011261059157611d6c615357565b600435600052603e60205260406000209060018060a01b0316600052602052602060ff604060002054166040519015158152f35b34610591576000366003190112610591576020603254604051908152f35b3461059157600036600319011261059157336000908152600080516020616ea8833981519152602090815260409182902054915160ff9092161515825290f35b346105915760203660031901126105915760043560345481101561059157600090603454811015611e3c576020826034829452200154604051908152f35b634e487b7160e01b82526032600452602482fd5b34610591576020366003190112610591576109a961162d611e6f615341565b61634d565b34610591576000366003190112610591573360009081527ff85cb896c52f56310015971b9d6f05508bd1e88b1d6dbc428bc579f0bdf22cab6020526040902054611ec09060ff16615c3d565b6001601954611ed260ff821615615732565b60ff1916176019557f62e78cea01bee320cd4e420270b5ea74000d11b0c9f74754ebdbfc544b05a2586020604051338152a1005b3461059157602036600319011261059157600435611f2960ff6019541615615732565b6000818152600f60205260409020546001600160a01b0316330361226c57600a611f52826155de565b5001541561222857336000526015602052604060002081600052602052600160ff604060002054161515036121e357336000526016602052604060002081600052602052611fb36040600020546005611faa846155de565b500154906160c1565b42111561219e57600160ff6006611fc9846155de565b500154161515036121645760009033825260136020526040822060ff19815416905533825260156020526040822081835260205260408220805460ff191690553382526016602052604082208183526020528160408120553382526014602052816040812055600661203a826155de565b5001805460ff19169055602061209f600a612054846155de565b50015460395490855260188352604080862060020154905163048dbcef60e41b815233600482015260248101919091529485926001600160a01b039092169183919082906044820190565b03925af1908115610711576120e1612137927f97b363697f59781efcf0539a3eeabceea1e3b444e248009d3730fa6a26db9c2494600091612145575b50615b53565b6000600a6120ee836155de565b50015561211361210d60ff6001612104856155de565b50015416616c77565b426160c1565b600461211e836155de565b5001556040805191825233602083015290918291820190565b0390a1602060405160018152f35b61215e915060203d60201161070a576106fc81836153af565b856120db565b60405162461bcd60e51b815260206004820152601260248201527147656d73206973206e6f74206d696e696e6760701b6044820152606490fd5b60405162461bcd60e51b815260206004820152601d60248201527f6d696e696e6720706572696f6420686173206e6f7420656c61707365640000006044820152606490fd5b60405162461bcd60e51b815260206004820152601b60248201527f75736572206973206e6f74206d696e696e6720746869732047656d00000000006044820152606490fd5b606460405162461bcd60e51b815260206004820152602060248201527f6e6f2072616e646f6d207265717565737420666f72207468697320746f6b656e6044820152fd5b60405162461bcd60e51b815260206004820152600d60248201526c3737ba1023a2a69037bbb732b960991b6044820152606490fd5b346105915760a0366003190112610591576004356001600160401b038111610591576122d1903690600401615547565b60066044351015610591576000366083121561136e57506122f33660646154be565b9061230360ff6019541615615732565b815160ff908116608052602083015116600080604435612950575061232b60028451146162d6565b6023549060295494602f545b6080916040519461234884876153af565b8336873760005b885160ff821610156126bb578560ff600161237561236f8584168e615cc7565b516155de565b50015416906126a55760068110156126a5576044350361266c5761239f61236f60ff83168b615cc7565b506008602435910154036126315760026123bf61236f60ff84168c615cc7565b500160ff6123d5816000935416828b5116615950565b16885260026123ea61236f60ff85168d615cc7565b50019060ff61240981600194548560031b1c168260208d015116615950565b1660208a0152600261242161236f60ff86168e615cc7565b500160ff6124408b82604081600296548760031b1c1692015116615950565b1660408b015261245661236f60ff86168e615cc7565b50018260ff6124758c826060816003975488801b1c1692015116615950565b1660608c01525b6124a9575b5050508061249f61249860ff6124a494168c615cc7565b5133616acd565b6158e0565b61234f565b8b511561262c578360ff8495168d816124ce575b50506124c8906158e0565b9361247c565b6124e992955061236f84926124e292615cc7565b500161632c565b60ff60208183511692015116908d51156126185761250f838f60206124e29101516155de565b918d60ff602081865116950151168694608051851494851561260c575b8515612600575b85156125f4575b856125aa575b505050505061259c57156125575783928e8d6124bd565b60405162461bcd60e51b815260206004820152601c60248201527f7468697320636f6c6f722063616e2774206265206f627461696e6564000000006044820152606490fd5b5050506124a4918192612481565b83149450919290919084156125ea575b5083156125e0575b5082156125d6575b50508f8d818080612540565b1490508c386125ca565b82149250386125c2565b83149350386125ba565b6080518314955061253a565b60805182149550612533565b6080518514955061252c565b634e487b7160e01b84526032600452602484fd5b612481565b60405162461bcd60e51b81526020600482015260136024820152720eee4dedcce40e6e8c2d6d2dcce40d2dcc8caf606b1b6044820152606490fd5b60405162461bcd60e51b815260206004820152601160248201527077726f6e67207261726974792047656d7360781b6044820152606490fd5b634e487b7160e01b600052602160045260246000fd5b5085908960018351168352600160208401511660208401526001604084015116604084015260016060840151166060840152604051966126fb87896153af565b863689376000906126a5576044356128f957506002935b60005b8860ff82166004811015612755579160019160ff61274a856127448361273c81998e615cdb565b51168d615950565b93615cdb565b911690520116612715565b509450508661278f878760ff88511660ff61276f8361593e565b1614806128de575b806128c3575b806128a8575b61288b575b50426160c1565b916040519561279d87615393565b600087526127b0604435602089016160ce565b6040870152606086015284015260a0830152600060c083015260e08201526024356101008201526128016020916040516127ea84826153af565b6000815261012082015260006101408201526160da565b6007546000198101908111610ec5578061281a816155de565b505563ffffffff81168103610591576000818152600f8352604080822080546001600160a01b031916339081179091558252601084529020805461285d90616219565b9055612869813361689c565b61288360405161287984826153af565b6000815282616a8a565b604051908152f35b60ff16808852806020890152806040890152606088015287612788565b5060ff60608901511660ff6128bc8361593e565b1614612783565b5060ff60408901511660ff6128d78361593e565b161461277d565b5060ff60208901511660ff6128f28361593e565b1614612777565b60006044356001036129105750506003935b612712565b506044356002036129245750600493612712565b600060443560030361293a575050600593612712565b50936003196044350161290b5760069450612712565b90508060443560010361297b575061296b60038451146162d6565b60245490602a5494603054612337565b9050806044356002036129a6575061299660048451146162d6565b60255490602b5494603154612337565b9050806044356003036129d157506129c160058451146162d6565b60265490602c5494603254612337565b90506044356004036129fa576129ea60068451146162d6565b60275490602d5494603354612337565b60405162461bcd60e51b815260206004820152600c60248201526b77726f6e672072617269747960a01b6044820152606490fd5b34610591576020366003190112610591576004356000526017602052602060ff604060002054166040519015158152f35b34610591576000366003190112610591576020602e54604051908152f35b3461059157602036600319011261059157610832615341565b3461059157600036600319011261059157602060ff60375416604051908152f35b3461059157600036600319011261059157336000908152600080516020616ea88339815191526020526040902054612af19060ff16615771565b6108be33616790565b34610591576020366003190112610591576108be612b16615341565b336000908152600080516020616ea88339815191526020526040902054612b3f9060ff16615771565b60008052603e6020527f5f97c64b3c4bdfff50b5c8f505e633128432c6b07fc6c8abc77dce786c7317d5546108af90616433565b346105915760203660031901126105915760ff612b8e6154a0565b1660005260086020526109a96109956040600020615669565b34610591576040366003190112610591576001600160a01b03612bc8615341565b16600052601660205260406000206024356000526020526020604060002054604051908152f35b3461059157600036600319011261059157602060ff603a5460a01c166040519015158152f35b34610591576020366003190112610591576020612c336004356163fc565b6040516001600160a01b039091168152f35b34610591576000366003190112610591576020601c54604051908152f35b346105915760203660031901126105915760043560075481101561059157612c8a906155de565b50805460ff60018301541691612d0d600482015491600581015460ff600683015416600783015490600884015492600a612cc660098701615669565b95015496612cdf6040519a8b9a8b5260208b019061570d565b604089015260608801521515608087015260a086015260c085015261012060e0850152610120840190615302565b906101008301520390f35b34610591576000366003190112610591576039546040516001600160a01b039091168152602090f35b3461059157600036600319011261059157602060ff601954166040519015158152f35b34610591576000366003190112610591576020602b54604051908152f35b34610591576000366003190112610591576020603554604051908152f35b346105915760a0366003190112610591576004356001600160401b0381116105915736602382011215610591578060040135612ddb81615489565b91612de960405193846153af565b8183526024602084019260051b8201019036821161059157602401915b818310613b3157602435846001600160401b0382116105915736602383011215610591578160040135612e3881615489565b92612e4660405194856153af565b8184526024602085019260061b8201019036821161059157602401915b818310613b09575050506044356001600160401b03811161059157612e8c903690600401615547565b90606435916001600160401b0383116105915736602384011215610591578260040135612eb881615489565b93612ec660405195866153af565b8185526024602086019260071b8201019036821161059157602401915b818310613ae157505050608435936001600160401b0385116105915736602386011215610591578460040135612f1881615489565b95612f2660405197886153af565b8187526024602088019260051b820101903682116105915760248101925b828410613ab25750505050612f6460018060a01b03603954163314615b9f565b612f7360ff6019541615615732565b825181518091149081613aa7575b5080613a9c575b80613a91575b15613a3d57612f9d8351615c95565b9160009160009560009360005b8751811015613a2f57612fff612ff1612fe360ff612fc88588615cc7565b51511660ff6020612fd9878a615cc7565b5101511690615950565b60ff6040612fd98689615cc7565b60ff6060612fd98588615cc7565b61301161300c838b615cc7565b615cec565b60068110156126a55715613918575b61302d61300c838b615cc7565b60068110156126a557600114613801575b61304b61300c838b615cc7565b60068110156126a5576002146136ea575b61306961300c838b615cc7565b60068110156126a5576003146135d3575b61308761300c838b615cc7565b60068110156126a557600414613493575b506130a661300c828a615cc7565b60068110156126a5576005146133fa575b6130c461300c828a615cc7565b6130ce8285615cc7565b51906130da8387615cc7565b51918c6130e7858a615cc7565b516130fc866130f689426160c1565b93615cc7565b51916040519561310b87615393565b6000875261311d6020880196876160ce565b60408701948552606087015260808601528d60a0860152600060c08601528a60e08601526101008501526101208401526000610140840152600754600160401b8110156133e45780600161317692016007556007615613565b9190916133ce57835182556001820192519260068410156126a55760009360ff80198354169116179055518290835b60048110613394575050600282015560608301518290835b6002811061335a57505060038201556080830151600482015560a083015160058201556131ff60c08401511515600683019060ff801983541691151516179055565b60e083015160078201556101008301516008820155613226610120840151600983016157e0565b600a6101408401519101556007549160001983019283116133465763ffffffff8316908184036133425789898f8f8f8a8d928461331e8f949d61331760019f829f9e8f9e8f7fe4d551115b58edfb8dc82767e463462b3b2a8bb444cb0ee27de703c2433228259f61330361300c61332e9f89976132f7613309966132fc8b809a9560406133109d839b98849952858152600f60205281812060018060a01b0333166001600160601b0360a01b8254161790553381526010602052206132eb8154616219565b90556132f7843361689c565b615cc7565b5190616a8a565b9c615cc7565b519c615cc7565b5197615cc7565b5192615cc7565b519360405198899833978a616228565b0390a261333b828a615cc7565b5201612faa565b8280fd5b634e487b7160e01b82526011600452602482fd5b90916020969e96613385969e966001928460ff875116919060ff809160031b9316831b921b19161790565b930191019d959d9c949c6131bd565b90916020969e966133bf969e966001928460ff875116919060ff809160031b9316831b921b19161790565b930191019d959d9c949c6131a5565b634e487b7160e01b600052600060045260246000fd5b634e487b7160e01b600052604160045260246000fd5b9450509550600660ff61340d8589615cc7565b5151161480613478575b8061345d575b8061343d575b61342c90616063565b60335495602d5496602754946130b7565b5061342c600660ff6060613451878b615cc7565b51015116149050613423565b50600660ff604061346e868a615cc7565b510151161461341d565b50600660ff6020613489868a615cc7565b5101511614613417565b8399508196506018925061122f600560ff6134b281956134d898615cc7565b51511614888c82156135b9575b82613574575b8261352f575b826134ea575b5050615fb1565b60325495602c5496602654948a613098565b600592506134fb8692606092615cc7565b5101511614888c8215613512575b5050888c6134d1565b600692506135238692606092615cc7565b5101511614888c613509565b600592506135408692604092615cc7565b5101511614888c8215613557575b5050888c6134cb565b600692506135688692604092615cc7565b5101511614888c61354e565b600592506135858692602092615cc7565b5101511614888c821561359c575b5050888c6134c5565b600692506135ad8692602092615cc7565b5101511614888c613593565b6006925085916135c891615cc7565b51511614888c6134bf565b9550975050600460ff6135e68984615cc7565b5151161480156136d2575b8061369c575b80613666575b8061362b575b61360c90615f04565b61361b601460ff861610615f65565b603154602b54976025549561307a565b50600460ff606061363c8a85615cc7565b510151161480613603575061360c600560ff606061365a8b86615cc7565b51015116149050613603565b50600460ff60406136778a85615cc7565b5101511614806135fd5750600560ff60406136928a85615cc7565b51015116146135fd565b50600460ff60206136ad8a85615cc7565b5101511614806135f75750600560ff60206136c88a85615cc7565b51015116146135f7565b50600560ff6136e18984615cc7565b515116146135f1565b9550975050600360ff6136fd8984615cc7565b5151161480156137e9575b806137b3575b8061377d575b80613742575b61372390615e55565b613732601060ff861610615eb8565b603054602a54976024549561305c565b50600360ff60606137538a85615cc7565b51015116148061371a5750613723600460ff60606137718b86615cc7565b5101511614905061371a565b50600360ff604061378e8a85615cc7565b5101511614806137145750600460ff60406137a98a85615cc7565b5101511614613714565b50600360ff60206137c48a85615cc7565b51015116148061370e5750600460ff60206137df8a85615cc7565b510151161461370e565b50600460ff6137f88984615cc7565b51511614613708565b9550975050600260ff6138148984615cc7565b515116148015613900575b806138ca575b80613894575b80613859575b61383a90615da8565b613849600c60ff861610615e09565b602f54602954976023549561303e565b50600260ff606061386a8a85615cc7565b510151161480613831575061383a600360ff60606138888b86615cc7565b51015116149050613831565b50600260ff60406138a58a85615cc7565b51015116148061382b5750600360ff60406138c08a85615cc7565b510151161461382b565b50600260ff60206138db8a85615cc7565b5101511614806138255750600360ff60206138f68a85615cc7565b5101511614613825565b50600360ff61390f8984615cc7565b5151161461381f565b9550975050600160ff61392b8984615cc7565b515116148015613a17575b806139e1575b806139ab575b80613970575b61395190615cf9565b613960600860ff861610615d5c565b602e546028549760225495613020565b50600160ff60606139818a85615cc7565b5101511614806139485750613951600260ff606061399f8b86615cc7565b51015116149050613948565b50600160ff60406139bc8a85615cc7565b5101511614806139425750600260ff60406139d78a85615cc7565b5101511614613942565b50600160ff60206139f28a85615cc7565b51015116148061393c5750600260ff6020613a0d8a85615cc7565b510151161461393c565b50600260ff613a268984615cc7565b51511614613936565b604051806109a989826155a4565b60405162461bcd60e51b815260206004820152602660248201527f496e70757420617272617973206d7573742068617665207468652073616d65206044820152650d8cadccee8d60d31b6064820152608490fd5b508351855114612f8e565b508151845114612f88565b905082511486612f81565b83356001600160401b03811161059157602091613ad6839260243691870101615422565b815201930192612f44565b600036601f8501121561136e57506020608091613afe3686615503565b815201920191612ee3565b600036601f8501121561136e57506020604091613b2636866154be565b815201920191612e63565b8235600681101561059157815260209283019201612e06565b34610591576000366003190112610591576020602254604051908152f35b34610591576020366003190112610591576001600160a01b03613b89615341565b16600052603c602052602060ff604060002054166040519015158152f35b346105915760203660031901126105915760043563ffffffff60e01b811680910361059157600052603d602052602060018060a01b0360406000205416604051908152f35b34610591576040366003190112610591576108be613c0861547a565b613c1d60018060a01b03603a54163314615b9f565b6006613c2a6004356155de565b50019060ff801983541691151516179055565b34610591576108be613c4e36615440565b9060405192613c5e6020856153af565b600084526117bb838383615994565b34610591576000366003190112610591576020602754604051908152f35b34610591576000366003190112610591573360009081527ff85cb896c52f56310015971b9d6f05508bd1e88b1d6dbc428bc579f0bdf22cab6020526040902054613cd79060ff16615c3d565b601954613ce760ff821615615732565b60ff19166019557f5db9ee0a495bf2e6ff9c91a7834c1ba4fdd244a5e8aa4e537bd38aeae4b073aa6020604051338152a1005b346105915760003660031901126105915760206040517ffcb9fcbfa83b897fb2d5cf4b58962164105c1e71489a37ef3ae0db3fdce576f68152f35b34610591576020366003190112610591576004356000526011602052602060018060a01b0360406000205416604051908152f35b34610591576040366003190112610591576004356024357f00000000000000000000000000000000000000000000000000000000000000006001600160a01b03163381900361404e575081600052601860205260ff60406000205416156140165760008281526018602090815260408083206003810154815461ff0019166101001782556001919091018590556001600160a01b031683526014909152902054613e32906155de565b509060026040519201549060ff82168352602083019160ff8160081c16835260ff8080806040880197818660101c16895281606082019660181c168652613e7a6080826153af565b511695511695511691511692613eac600094613ea760075494613ea7613e9f87615c95565b998996615950565b615950565b60ff1690845b838110613f3b5750505050613ec682615c95565b9260005b838110613f1c5750508115613f06570660018101809111610ec557613eee91615cc7565b51906000526018602052600260406000200155600080f35b634e487b7160e01b600052601260045260246000fd5b80613f2960019284615cc7565b51613f348288615cc7565b5201613eca565b6002613f46826155de565b500160ff6000915416908460ff613fb2613f786002613f64886155de565b50019583600197548860031b1c1690615950565b82613f9b6002613f878a6155de565b50019282600294548560031b1c1690615950565b91613fa5896155de565b50015460181c1690615950565b16109081613ff0575b50613fca575b50600101613eb2565b80829793613fd96001946155de565b5054613fe5828c615cc7565b520192019590613fc1565b838152600f60205260409020546039546001600160a01b0390811691161490508a613fbb565b60405162461bcd60e51b815260206004820152601060248201526f52657175657374206e6f74206d61646560801b6044820152606490fd5b63073e64fd60e21b6000523360045260245260446000fd5b346105915760403660031901126105915761407f615357565b336001600160a01b0382160361409b576108be90600435616816565b63334bd91960e11b60005260046000fd5b34610591576000366003190112610591576020604051620334508152f35b34610591576040366003190112610591576140e3615341565b6024356140fb60018060a01b03603954163314615b9f565b61410a60ff6019541615615732565b6001600160a01b03821680156105915733146105915761413060ff6006610b0c846155de565b80600052600f6020523360018060a01b036040600020541603610591578161417a827f85d07a7616aea29f5d972fd9100b991c224490bd49b737377d908f66f34d9afd9433616632565b6141a260405161418b6020826153af565b6000815261419a848433615994565b838333616d14565b604080513381526001600160a01b03909216602083015281019190915280606081016106a6565b3461059157604036600319011261059157600060206142446141e9615341565b838052603e8352604080852033865284528420546142099060ff16615771565b60395460405163048dbcef60e41b81526001600160a01b03928316600482015260248035908201529485939190921691839182906044820190565b03925af180156107115761425f9160009161426a5750615b53565b602060405160018152f35b614283915060203d60201161070a576106fc81836153af565b826120db565b34610591576101e0366003190112610591576142a3615341565b6142ab615357565b6044356001600160a01b03811692919083900361059157336000908152600080516020616ea883398151915260205260409020546142eb9060ff16615771565b603754600881901c6001600160a01b03166143f057603854926001600160a01b0384166143ab57610100600160a81b0360089190911b16610100600160a81b031991909116176037556001600160a01b03166001600160a01b03199182161760385560398054909116919091179055606435601c55608435601d5560a435601e5560c435601f5560e43560205561010435602155610124356022556101443560235561016435602455610184356025556101a4356026556101c435602755005b60405162461bcd60e51b815260206004820152601760248201527f746f6e20616c726561647920696e697469616c697a65640000000000000000006044820152606490fd5b60405162461bcd60e51b815260206004820152601e60248201527f746974616e7773746f6e20616c726561647920696e697469616c697a656400006044820152606490fd5b346105915760203660031901126105915761444e615341565b336000908152600080516020616ea883398151915260205260409020546144779060ff16615771565b336001600160a01b0382160361409b576108be906166fa565b34610591576040366003190112610591576108be6004356144af615357565b906144cb6108aa82600052603e60205260016040600020015490565b616596565b3461059157602036600319011261059157602060ff60066144f26004356155de565b500154166040519015158152f35b3461059157602036600319011261059157614519615341565b6001600160a01b03166000908152600080516020616ea8833981519152602090815260409182902054915160ff9092161515825290f35b34610591576020366003190112610591576020612883600435600052603e60205260016040600020015490565b34610591576108be61458e36615440565b91615994565b34610591576020366003190112610591576001600160a01b036145b5615341565b166000526013602052602060ff604060002054166040519015158152f35b6020366003190112610591576004356145f160ff6019541615615732565b6145fc331515615903565b6004614607826155de565b500154421115614b955760ff600661461e836155de565b50015416614b3f5733600052601360205260ff60406000205416614b015780600052600f6020523360018060a01b036040600020541603610591576002614664826155de565b500160ff60009154169060ff6146bd6146b16146986002614684886155de565b50019584600197548860031b1c1690615950565b8360026146a4896155de565b50015460101c1690615950565b826002613fa5886155de565b166008811180614a55575050601c545b6038546039546040516323b872dd60e01b602082019081523360248301526001600160a01b039283166044830152606480830195909552938152911691614732918491829161471d6084826153af565b519082865af161472b615964565b9083616e46565b8051908115159182614a3a575b5050614a2757503381526013602052604081208260ff19825416179055338152601560205260408120838252602052604081208260ff19825416179055338152601660205260408120838252602052426040822055338152601460205282604082205560066147ad846155de565b5001805460ff1916831790553332036149ed576040516315ae5acd60e11b81526203345060048201527f00000000000000000000000000000000000000000000000000000000000000006001600160a01b031690602081602481855afa9081156149af5783916149ba575b5060208192602460405180948193637072b97760e01b83526203345060048401525af19081156149af57839161497d575b508134106149455780600a61485d876155de565b500155808352601860208181526040808620805460ff191688179055838652919052832060030180546001600160a01b0319163317905560358054850190556036553481106148e8575b6020837f47538340716ce4ea460b03ab331ade0bc77d177abe31d6e8e6cdbc159b7e03596060876040519081523385820152426040820152a1604051908152f35b34033481116133465781808092335af1614900615964565b501561490d5782806148a7565b60405162461bcd60e51b815260206004820152601060248201526f6e6f7420656e6f7567682066756e647360801b6044820152606490fd5b60405162461bcd60e51b815260206004820152601060248201526f4e6f7420656e6f7567682066756e647360801b6044820152606490fd5b90506020813d6020116149a7575b81614998602093836153af565b81010312613342575185614849565b3d915061498b565b6040513d85823e3d90fd5b90506020813d6020116149e5575b816149d5602093836153af565b8101031261334257516020614818565b3d91506149c8565b60405162461bcd60e51b815260206004820152601260248201527163616c6c6572206d75737420626520454f4160701b6044820152606490fd5b635274afe760e01b825260045260249150fd5b614a4d9250602080918301019101615b3b565b15858061473f565b80614af6575b15614a695750601d546146cd565b600c811180614aeb575b15614a815750601e546146cd565b601081119081614adf575b5015614a9a57601f546146cd565b60405162461bcd60e51b815260206004820152601760248201527f47656d206e6f7420616c6c6f77656420746f204d696e650000000000000000006044820152606490fd5b60149150111584614a8c565b506010811115614a73565b50600c811115614a5b565b60405162461bcd60e51b81526020600482015260166024820152757573657220697320616c7265616479206d696e696e6760501b6044820152606490fd5b60405162461bcd60e51b815260206004820152602860248201527f47656d206973206c697374656420666f722073616c65206f7220616c7265616460448201526779206d696e696e6760c01b6064820152608490fd5b60405162461bcd60e51b815260206004820152602360248201527f47656d20636f6f6c646f776e20706572696f6420686173206e6f7420656c61706044820152621cd95960ea1b6064820152608490fd5b34610591576000366003190112610591576020601b54604051908152f35b34610591576020366003190112610591576004356001600160401b03811161059157614c34903690600401615422565b336000908152600080516020616ea88339815191526020526040902054614c5d9060ff16615771565b60ff600c5416600052600b602052614c798160406000206157e0565b600d54600160401b8110156133e457806001614c9a9201600d55600d61571a565b6133ce5781614ca8916157e0565b7fd961fa20561746b8576d7b504b0bc57067c67db2ce13bd9866d451bec5985f4b614cfc600c549260ff614cdd8186166158e0565b16809460ff191617600c55604051918291602083526020830190615302565b0390a2005b34610591576000366003190112610591576020602454604051908152f35b34610591576000366003190112610591576020603054604051908152f35b346105915760003660031901126105915760206128836158f1565b3461059157602036600319011261059157614d71615341565b336000908152600080516020616ea88339815191526020526040902054614d9a9060ff16615771565b336001600160a01b0382160361409b576108be906000616816565b34610591576020366003190112610591576004356001600160401b03811161059157614de5903690600401615422565b336000908152600080516020616ea88339815191526020526040902054614e0e9060ff16615771565b60ff600954166000526008602052614e2a8160406000206157e0565b600a54600160401b8110156133e457806001614e4b9201600a55600a61571a565b6133ce5781614e59916157e0565b7fe4d2864ec291f6f11cb3363fa1bd2a4d5ff49a2cfdf4bf7dfe3b90a26b8c776f614cfc6009549260ff614e8e8186166158e0565b16809460ff191617600955604051918291602083526020830190615302565b34610591576000366003190112610591576020602d54604051908152f35b34610591576020366003190112610591576004356000526012602052602060018060a01b0360406000205416604051908152f35b34610591576000366003190112610591576020602954604051908152f35b3461059157614f2b3661536d565b336000908152600080516020616ea88339815191526020526040902054909591949293929190614f5d9060ff16615771565b602855602955602a55602b55602c55602d55005b3461059157604036600319011261059157614f8a615341565b602435614f96816163fc565b3315158061504d575b8061501f575b61500a5781906001600160a01b0384811691167f8c5be1e5ebec7d5bd14f71427d1e84f3dd0314c0f7b2291e5b200ac8c7c3b925600080a4600090815260046020526040902080546001600160a01b0319166001600160a01b03909216919091179055005b63a9fbf51f60e01b6000523360045260246000fd5b506001600160a01b038116600090815260056020908152604080832033845290915290205460ff1615614fa5565b506001600160a01b038116331415614f9f565b3461059157600036600319011261059157602060ff600c5416604051908152f35b346105915760203660031901126105915760043561509e816163fc565b506000526004602052602060018060a01b0360406000205416604051908152f35b3461059157600036600319011261059157604051600080546150e08161562f565b8084529060018116908115611d2f5750600114615107576109a983610995818503826153af565b60008080527f290decd9548b62a8d60345a988386fc84ba6bc95484008f6362f93160ef3e563939250905b80821061514a57509091508101602001610995611cc0565b919260018160209254838588010152019101909291615132565b34610591576000366003190112610591576020602a54604051908152f35b34610591576000366003190112610591576151a260ff6019541615615732565b603a546001600160a01b0316801561521057336000526005602052604060002060018060a01b0382166000526020526040600020600160ff19825416179055604051600181527f17307eab39ab6107e8899845ad3d59bd9653f200f220920489ca2b5937696c3160203392a3005b630b61174360e31b60005260045260246000fd5b34610591576000366003190112610591576020602554604051908152f35b3461059157600036600319011261059157602060ff60095416604051908152f35b34610591576020366003190112610591576004359063ffffffff60e01b821680920361059157602091637965db0b60e01b81149081156152a5575b5015158152f35b632483248360e11b8114915081156152bf575b508361529e565b6380ac58cd60e01b8114915081156152f1575b81156152e0575b50836152b8565b6301ffc9a760e01b149050836152d9565b635b5e139f60e01b811491506152d2565b919082518082526020808301940160005b828110615331575050600081602094950152601f8019910116010190565b8181015186820152602001615313565b600435906001600160a01b038216820361059157565b602435906001600160a01b038216820361059157565b60c090600319011261059157600435906024359060443590606435906084359060a43590565b61016081019081106001600160401b038211176133e457604052565b90601f801991011681019081106001600160401b038211176133e457604052565b6001600160401b0381116133e457601f01601f191660200190565b9291926153f7826153d0565b9161540560405193846153af565b829481845281830111610591578281602093846000960137010152565b9080601f830112156105915781602061543d933591016153eb565b90565b6060906003190112610591576004356001600160a01b038116810361059157906024356001600160a01b0381168103610591579060443590565b60243590811515820361059157565b6001600160401b0381116133e45760051b60200190565b6004359060ff8216820361059157565b359060ff8216820361059157565b91906040805193906154d090856153af565b83906040810192831161059157905b8282106154eb57505050565b602080916154f8846154b0565b8152019101906154df565b9190604051926155146080856153af565b83906080810192831161059157905b82821061552f57505050565b6020809161553c846154b0565b815201910190615523565b9080601f8301121561059157813561555e81615489565b9261556c60405194856153af565b81845260208085019260051b82010192831161059157602001905b8282106155945750505090565b8135815260209182019101615587565b602060408183019282815284518094520192019060005b8181106155c85750505090565b82518452602093840193909201916001016155bb565b6007548110156155fd576007600052600b602060002091020190600090565b634e487b7160e01b600052603260045260246000fd5b80548210156155fd57600052600b602060002091020190600090565b90600182811c9216801561565f575b602083101461564957565b634e487b7160e01b600052602260045260246000fd5b91607f169161563e565b906040519182600082549261567d8461562f565b80845293600181169081156156eb57506001146156a4575b506156a2925003836153af565b565b90506000929192526020600020906000915b8183106156cf5750509060206156a29282010138615695565b60209193508060019154838589010152019101909184926156b6565b9050602092506156a294915060ff191682840152151560051b82010138615695565b9060068210156126a55752565b80548210156155fd5760005260206000200190600090565b1561573957565b60405162461bcd60e51b815260206004820152601060248201526f14185d5cd8589b194e881c185d5cd95960821b6044820152606490fd5b1561577857565b60405162461bcd60e51b815260206004820152602360248201527f41757468436f6e74726f6c3a2043616c6c6572206973206e6f7420616e20616460448201526236b4b760e91b6064820152608490fd5b8181106157d4575050565b600081556001016157c9565b91909182516001600160401b0381116133e4576157fd825461562f565b601f81116158a3575b506020601f82116001146158415781929394600092615836575b50508160011b916000199060031b1c1916179055565b015190503880615820565b601f1982169083600052806000209160005b81811061588b57509583600195969710615872575b505050811b019055565b015160001960f88460031b161c19169055388080615868565b9192602060018192868b015181550194019201615853565b6158d090836000526020600020601f840160051c810191602085106158d6575b601f0160051c01906157c9565b38615806565b90915081906158c3565b60ff1660ff8114610ec55760010190565b6007546000198101908111610ec55790565b1561590a57565b60405162461bcd60e51b815260206004820152600c60248201526b7a65726f206164647265737360a01b6044820152606490fd5b60ff60019116019060ff8211610ec557565b9060ff8091169116019060ff8211610ec557565b3d1561598f573d90615975826153d0565b9161598360405193846153af565b82523d6000602084013e565b606090565b6001600160a01b0390911691908215615b25576000828152600260205260408120546001600160a01b0316938391859033151580615a8d575b507fddf252ad1be2c89b69c2b068fc378daa952ba7f163c4a11628f55a4df523b3ef9082615a58575b83815260036020526040812060018154019055848152600260205260408120846001600160601b0360a01b82541617905580a46001600160a01b0316808303615a3e57505050565b6364283d7b60e01b60005260045260245260445260646000fd5b600085815260046020526040902080546001600160a01b031916905582815260036020526040812080546000190190556159f6565b915091925080615ad6575b15615aa75790848492386159cd565b839085615ac057602491637e27328960e01b8252600452fd5b60449163177e802f60e01b825233600452602452fd5b503385148015615b04575b80615a985750838152600460205260408120546001600160a01b03163314615a98565b5084815260056020908152604080832033845290915281205460ff16615ae1565b633250574960e11b600052600060045260246000fd5b90816020910312610591575180151581036105915790565b15615b5a57565b60405162461bcd60e51b815260206004820152601860248201527f6661696c656420746f207472616e7366657220746f6b656e00000000000000006044820152606490fd5b15615ba657565b60405162461bcd60e51b815260206004820152602d60248201527f66756e6374696f6e2063616c6c61626c652066726f6d2074726561737572792060448201526c636f6e7472616374206f6e6c7960981b6064820152608490fd5b15615c0857565b60405162461bcd60e51b815260206004820152600d60248201526c11d95b481a5cc81b1bd8dad959609a1b6044820152606490fd5b15615c4457565b60405162461bcd60e51b815260206004820152602360248201527f41757468436f6e74726f6c3a2043616c6c6572206973206e6f7420612070617560448201526239b2b960e91b6064820152608490fd5b90615c9f82615489565b615cac60405191826153af565b8281528092615cbd601f1991615489565b0190602036910137565b80518210156155fd5760209160051b010190565b9060048110156155fd5760051b0190565b5160068110156126a55790565b15615d0057565b60405162461bcd60e51b815260206004820152602e60248201527f416c6c207175616472616e7473206d7573742062652031206f72203220666f7260448201526d20434f4d4d4f4e2072617269747960901b6064820152608490fd5b15615d6357565b60405162461bcd60e51b815260206004820152601760248201527f323232322069732052415245206e6f7420434f4d4d4f4e0000000000000000006044820152606490fd5b15615daf57565b60405162461bcd60e51b815260206004820152602c60248201527f416c6c207175616472616e7473206d7573742062652032206f72203320666f7260448201526b20524152452072617269747960a01b6064820152608490fd5b15615e1057565b60405162461bcd60e51b815260206004820152601760248201527f3333333320697320554e49515545206e6f7420524152450000000000000000006044820152606490fd5b15615e5c57565b60405162461bcd60e51b815260206004820152602e60248201527f416c6c207175616472616e7473206d7573742062652033206f72203420666f7260448201526d20554e495155452072617269747960901b6064820152608490fd5b15615ebf57565b60405162461bcd60e51b815260206004820152601760248201527f343434342069732045504943206e6f7420554e495155450000000000000000006044820152606490fd5b15615f0b57565b60405162461bcd60e51b815260206004820152602c60248201527f416c6c207175616472616e7473206d7573742062652034206f72203520666f7260448201526b20455049432072617269747960a01b6064820152608490fd5b15615f6c57565b60405162461bcd60e51b815260206004820152601a60248201527f35353535206973204c4547454e44415259206e6f7420455049430000000000006044820152606490fd5b15615fb857565b60405162461bcd60e51b815260206004820152603160248201527f416c6c207175616472616e7473206d7573742062652035206f72203620666f72604482015270204c4547454e444152592072617269747960781b6064820152608490fd5b1561601e57565b60405162461bcd60e51b815260206004820152601c60248201527f36363636206973204d5954484943206e6f74204c4547454e44415259000000006044820152606490fd5b1561606a57565b60405162461bcd60e51b815260206004820152602960248201527f416c6c207175616472616e7473206d757374206265203620666f72204d59544860448201526849432072617269747960b81b6064820152608490fd5b91908201809211610ec557565b60068210156126a55752565b600754600160401b8110156133e4578060016160fb92016007556007615613565b9190916133ce578051825560208101516001830160068210156126a55760009160ff8019835416911617905560408201518190825b600481106161eb57505060028401556060820151815b600281106161bd575050600a916101409160038501556080810151600485015560a0810151600585015561618f60c08201511515600686019060ff801983541691151516179055565b60e0810151600785015561010081015160088501556161b6610120820151600986016157e0565b0151910155565b909160206161e26001928460ff875116919060ff809160031b9316831b921b19161790565b93019101616146565b909160206162106001928460ff875116919060ff809160031b9316831b921b19161790565b93019101616130565b6000198114610ec55760010190565b97969594939291908861623d919b9a9b61570d565b6000602089015b600282106162bd5750505060608701526080860152600060a086015b600482106162a4575050509161629491610180936101208601526101408501526101a06101608501526101a0840190615302565b6001600160a01b03909416910152565b60208060019260ff865116815201930191019091616260565b60208060019260ff865116815201930191019091616244565b156162dd57565b60405162461bcd60e51b815260206004820152602160248201527f77726f6e67206e756d626572206f662047656d7320746f20626520666f7267656044820152601960fa1b6064820152608490fd5b9060ff6040519254818116845260081c1660208301526156a26040836153af565b6001600160a01b03166000818152601060205260409020548061638657505060405161637a6020826153af565b60008152600036813790565b61638f90615c95565b906163986158f1565b9060009060015b838111156163ae575050505090565b6000818152600f60205260409020546001600160a01b031682146163db575b6163d690616219565b61639f565b916163f481846163ee6163d69489615cc7565b52616219565b9290506163cd565b6000818152600260205260409020546001600160a01b031690811561641f575090565b637e27328960e01b60005260045260246000fd5b6000818152603e6020908152604080832033845290915290205460ff16156164585750565b63e2517d3f60e01b6000523360045260245260446000fd5b6001600160a01b0381166000908152600080516020616ea8833981519152602052604090205460ff166164f8576001600160a01b03166000818152600080516020616ea883398151915260205260408120805460ff191660011790553391907f2f8788117e7eff1d82e926ec794901d17c78024a50270940304540a733656f0d8180a4600190565b50600090565b6001600160a01b0381166000908152600080516020616ec8833981519152602052604090205460ff166164f8576001600160a01b03166000818152600080516020616ec883398151915260205260408120805460ff19166001179055339190600080516020616ee8833981519152907f2f8788117e7eff1d82e926ec794901d17c78024a50270940304540a733656f0d9080a4600190565b6000818152603e602090815260408083206001600160a01b038616845290915290205460ff1661661e576000818152603e602090815260408083206001600160a01b0395909516808452949091528120805460ff19166001179055339291907f2f8788117e7eff1d82e926ec794901d17c78024a50270940304540a733656f0d9080a4600190565b5050600090565b8015610ec5576000190190565b9061664661210d60ff6001612104876155de565b6004616651856155de565b5001556001600160a01b0381166000908152601060205260409020805461667790616219565b90556000838152600f6020908152604080832080546001600160a01b0319166001600160a01b0395861617905593909216815260109091522080546166bb90616625565b905580600052601260205260406000206001600160601b0360a01b8154169055600052601160205260406000206001600160601b0360a01b8154169055565b6001600160a01b0381166000908152600080516020616ec8833981519152602052604090205460ff16156164f8576001600160a01b03166000818152600080516020616ec883398151915260205260408120805460ff19169055339190600080516020616ee8833981519152907ff6391f5c32d9c69d2a47ea670b442974b53935d1edc7fd64eb21e047a839171b9080a4600190565b6001600160a01b0381166000908152600080516020616ea8833981519152602052604090205460ff16156164f8576001600160a01b03166000818152600080516020616ea883398151915260205260408120805460ff191690553391907ff6391f5c32d9c69d2a47ea670b442974b53935d1edc7fd64eb21e047a839171b8180a4600190565b6000818152603e602090815260408083206001600160a01b038616845290915290205460ff161561661e576000818152603e602090815260408083206001600160a01b0395909516808452949091528120805460ff19169055339291907ff6391f5c32d9c69d2a47ea670b442974b53935d1edc7fd64eb21e047a839171b9080a4600190565b90602090604051906168ae83836153af565b600082526001600160a01b038416938415615b255760008281526002855260018060a01b036040822054168387827fddf252ad1be2c89b69c2b068fc378daa952ba7f163c4a11628f55a4df523b3ef8115159586616a56575b83815260038b5260408082208054600101905585825260028c52812080546001600160a01b0319168517905580a450616a40573b616946575b50505050565b9161698491819495936040519384928392630a85bd0160e11b8452336004850152600060248501526044840152608060648401526084830190615302565b03816000885af180916000916169fe575b50906169c55750506169a5615964565b805191826169c25783633250574960e11b60005260045260246000fd5b01fd5b909291506001600160e01b03191663757a42ff60e11b016169ea575038808080616940565b633250574960e11b60005260045260246000fd5b8481813d8311616a39575b616a1381836153af565b81010312616a355751906001600160e01b03198216820361136e575038616995565b5080fd5b503d616a09565b6339e3563760e11b600052600060045260246000fd5b600085815260046020526040902080546001600160a01b031916905582815260038b52604081208054600019019055616907565b602090616ac47ff8e1a15aba9398e019f0b49df1a4fde98ee17ae345cb5f6b5e2c27f5033e8ce793826000526006845260406000206157e0565b604051908152a1565b616ad6826155de565b6133ce57600a8160008093558260018201558260038201616afa81600285016157c9565b616b086004840180926157c9565b5582600582015582600682015582600782015582600882015560098101616b2f815461562f565b9081616c34575b505001556001600160a01b031660009081526010602052604090208054616b5c90616625565b90556000818152600f6020908152604080832080546001600160a01b031990811690915560128352818420805482169055601183528184208054909116905560029091528120546001600160a01b031680159183908315616bff575b81815260026020526040812080546001600160a01b0319169055827fddf252ad1be2c89b69c2b068fc378daa952ba7f163c4a11628f55a4df523b3ef8280a45061641f5750565b600082815260046020526040902080546001600160a01b03191690558281526003602052604081208054600019019055616bb8565b81601f869311600114616c4b5750555b3880616b36565b81835260208320616c6791601f0160051c8101906001016157c9565b8082528160208120915555616c44565b60068110156126a5578015616d0d57600060018214616d05575060028114616cfe57600060038214616cf6575060048114616cef57600514616ce95760405162461bcd60e51b815260206004820152600e60248201526d496e76616c69642072617269747960901b6044820152606490fd5b60335490565b5060325490565b505060315490565b5060305490565b5050602f5490565b50602e5490565b9291813b616d225750505050565b604051630a85bd0160e11b81523360048201526001600160a01b0394851660248201526044810191909152608060648201529216919060209082908190616d6d906084830190615302565b03816000865af18091600091616dd0575b5090616daf5750616d8d615964565b80519081616daa5782633250574960e11b60005260045260246000fd5b602001fd5b6001600160e01b03191663757a42ff60e11b016169ea575038808080616940565b6020813d602011616e0b575b81616de9602093836153af565b81010312616a355751906001600160e01b03198216820361136e575038616d7e565b3d9150616ddc565b616e1c816163fc565b506000526006602052616e326040600020615669565b6000604051616e426020826153af565b5290565b90616e6c5750805115616e5b57805190602001fd5b630a12f52160e11b60005260046000fd5b81511580616e9e575b616e7d575090565b639996b31560e01b60009081526001600160a01b0391909116600452602490fd5b50803b15616e7556fe5f97c64b3c4bdfff50b5c8f505e633128432c6b07fc6c8abc77dce786c7317d41994726d0f42d2dc6b82bdf52c658516ff6c9f2a1554454f36692460fd32b45306aa03964db1f7257357ef09714a5f0ca3633723df419e97015e0c7a3e83edb7a26469706673582212204a2a15597214c64677b9169c801481ee878debbd6aa09522bbd8c0da5379e58f64736f6c634300081a00335f97c64b3c4bdfff50b5c8f505e633128432c6b07fc6c8abc77dce786c7317d4",
    "linkReferences": {}
  },
  "methodIdentifiers": {
    "CALLBACK_GAS_LIMIT()": "33d608f1",
    "CommonGemsCooldownPeriod()": "77f7e499",
    "CommonGemsMiningPeriod()": "c4d2fcae",
    "CommonGemsValue()": "58bf3e65",
    "CommonMiningFees()": "4f557d27",
    "DEFAULT_ADMIN_ROLE()": "a217fddf",
    "EpicGemsCooldownPeriod()": "efa2cc29",
    "EpicGemsMiningPeriod()": "5bbffab6",
    "EpicGemsValue()": "038a7e05",
    "EpicMiningFees()": "ce8ab5df",
    "GEMIndexToApproved(uint256)": "384c252f",
    "GEMIndexToOwner(uint256)": "97125c40",
    "Gems(uint256)": "61f7f6d7",
    "L1StakingIndex()": "d8f573cd",
    "LegendaryGemsCooldownPeriod()": "8fddb065",
    "LegendaryGemsMiningPeriod()": "d7a46495",
    "LegendaryGemsValue()": "a0b2d41b",
    "LegendaryMiningFees()": "dffdae02",
    "MythicGemsCooldownPeriod()": "e4b7fddf",
    "MythicGemsMiningPeriod()": "139b63f3",
    "MythicGemsValue()": "3fb310a5",
    "MythicMiningFees()": "b211d958",
    "PAUSE_ROLE()": "389ed267",
    "RareGemsCooldownPeriod()": "b78417b0",
    "RareGemsMiningPeriod()": "0de32a97",
    "RareGemsValue()": "f66f9e34",
    "RareMiningFees()": "91490c4b",
    "TREASURY_ROLE()": "d11a57ec",
    "UniqueGemsCooldownPeriod()": "1885cbbe",
    "UniqueGemsMiningPeriod()": "04e41a0b",
    "UniqueGemsValue()": "18898f36",
    "UniqueMiningFees()": "adf8627e",
    "addAdmin(address)": "70480275",
    "addBackgroundColor(string)": "1d0e0aac",
    "addColor(string)": "15341f2b",
    "addMinter(address)": "983b2d56",
    "adminTransferGEM(address,uint256)": "33158058",
    "aliveImplementation(address)": "550d01a3",
    "approve(address,uint256)": "095ea7b3",
    "backgroundColors(uint256)": "a8ce886e",
    "balanceOf(address)": "70a08231",
    "claimMinedGEM(uint256)": "7fe6fde5",
    "colors(uint256)": "bd11f69d",
    "createGEM(uint8,uint8[2],uint256,uint8[4],string)": "d6492bb1",
    "createGEMPool(uint8[],uint8[2][],uint256[],uint8[4][],string[])": "5b310aee",
    "customBackgroundColors(uint8)": "ecc5e06f",
    "customBackgroundColorsCount()": "0922f513",
    "customColors(uint8)": "6b1a96fa",
    "customColorsCount()": "034294f8",
    "estimatedStakingIndexIncreaseRate()": "1d3392e2",
    "forgeTokens(uint256[],uint256,uint8,uint8[2])": "7d7a5477",
    "gemAllowedToAddress(uint256)": "119868bb",
    "getApproved(uint256)": "081812fc",
    "getCalculatedDirectFundingPrice(uint32)": "f5494bb9",
    "getCommonMiningFees()": "629296c5",
    "getCustomColor(uint8)": "aff2a463",
    "getRareMiningFees()": "fed7b27a",
    "getRoleAdmin(bytes32)": "248a9ca3",
    "getTon()": "2bbbe94d",
    "getTreasury()": "3b19e84a",
    "getUniqueMiningFees()": "8ba24af0",
    "getWston()": "e7a523c0",
    "grantRole(bytes32,address)": "2f2ff15d",
    "hasRole(bytes32,address)": "91d14854",
    "initialize(address,address,address,uint256,uint256,uint256,uint256,uint256,uint256,uint256,uint256,uint256,uint256,uint256,uint256)": "3189983f",
    "isAdmin(address)": "24d7806c",
    "isApprovedForAll(address,address)": "e985e9c5",
    "isMinter(address)": "aa271e1a",
    "isOwner()": "8f32d59b",
    "isTokenLocked(uint256)": "276a28a3",
    "isUserMining(address)": "205fb1f8",
    "lastRequestId()": "fc2a88c3",
    "marketplace()": "abc8c7af",
    "meltGEM(uint256)": "f99a6bb5",
    "name()": "06fdde03",
    "numberOfSolidColors()": "724188bc",
    "ownerOf(uint256)": "6352211e",
    "ownerOfGEM(uint256)": "bd81009f",
    "ownershipTokenCount(address)": "cec21acb",
    "pause()": "8456cb59",
    "pauseProxy()": "63a8fd89",
    "paused()": "5c975abb",
    "preMintedGemsAvailable()": "c28fb6b7",
    "proxyImplementation(uint256)": "b911135f",
    "rawFulfillRandomWords(uint256,uint256)": "37ed11db",
    "removeAdmin(address)": "1785f53c",
    "removeMinter(address)": "3092afd5",
    "renounceMinter()": "98650275",
    "renounceOwnership()": "715018a6",
    "renounceRole(bytes32,address)": "36568abe",
    "requestCount()": "5badbe4c",
    "requestIds(uint256)": "8796ba8c",
    "revokeMinter(address)": "cfbd4885",
    "revokeRole(bytes32,address)": "d547741f",
    "s_requests(uint256)": "a168fa89",
    "safeTransferFrom(address,address,uint256)": "42842e0e",
    "safeTransferFrom(address,address,uint256,bytes)": "b88d4fde",
    "selectorImplementation(bytes4)": "50d2a276",
    "setApprovalForAll(address,bool)": "a22cb465",
    "setApprovalForMarketplace()": "0491fd3e",
    "setGemsCooldownPeriods(uint256,uint256,uint256,uint256,uint256,uint256)": "ad0d3d3f",
    "setGemsMiningPeriods(uint256,uint256,uint256,uint256,uint256,uint256)": "0c7254a0",
    "setIsLocked(uint256,bool)": "4d723a75",
    "setMarketPlaceAddress(address)": "cc98ef96",
    "setNumberOfSolidColors(uint8)": "9a66af62",
    "startMiningGEM(uint256)": "1da0fc9c",
    "supportsInterface(bytes4)": "01ffc9a7",
    "symbol()": "95d89b41",
    "tokenMiningByUser(address)": "c1389072",
    "tokenReadyToMine(uint256)": "7866369b",
    "tokenURI(uint256)": "c87b56dd",
    "tokensOfOwner(address)": "8462151c",
    "ton()": "cc48b947",
    "totalSupply()": "18160ddd",
    "transferAdmin(address)": "75829def",
    "transferFrom(address,address,uint256)": "23b872dd",
    "transferGEM(address,uint256)": "337d54a1",
    "transferGEMFrom(address,address,uint256)": "d6bb7ba0",
    "transferOwnership(address)": "f2fde38b",
    "treasury()": "61d027b3",
    "unpause()": "3f4ba83a",
    "userMiningStartTime(address,uint256)": "676f79f1",
    "userMiningToken(address,uint256)": "a1770a7d",
    "wston()": "36b17e13"
  },
  "id": 54
}