{
  "abi": [
    {
      "type": "function",
      "name": "CALLBACK_GAS_LIMIT",
      "inputs": [],
      "outputs": [
        {
          "name": "",
          "type": "uint32",
          "internalType": "uint32"
        }
      ],
      "stateMutability": "view"
    },
    {
      "type": "function",
      "name": "GEMIndexToOwner",
      "inputs": [
        {
          "name": "",
          "type": "uint256",
          "internalType": "uint256"
        }
      ],
      "outputs": [
        {
          "name": "",
          "type": "address",
          "internalType": "address"
        }
      ],
      "stateMutability": "view"
    },
    {
      "type": "function",
      "name": "Gems",
      "inputs": [
        {
          "name": "",
          "type": "uint256",
          "internalType": "uint256"
        }
      ],
      "outputs": [
        {
          "name": "tokenId",
          "type": "uint256",
          "internalType": "uint256"
        },
        {
          "name": "value",
          "type": "uint256",
          "internalType": "uint256"
        },
        {
          "name": "gemCooldownDueDate",
          "type": "uint256",
          "internalType": "uint256"
        },
        {
          "name": "randomRequestId",
          "type": "uint256",
          "internalType": "uint256"
        },
        {
          "name": "rarity",
          "type": "uint8",
          "internalType": "enum GemFactoryStorage.Rarity"
        },
        {
          "name": "miningPeriod",
          "type": "uint32",
          "internalType": "uint32"
        },
        {
          "name": "miningTry",
          "type": "uint8",
          "internalType": "uint8"
        },
        {
          "name": "isLocked",
          "type": "bool",
          "internalType": "bool"
        },
        {
          "name": "tokenURI",
          "type": "string",
          "internalType": "string"
        }
      ],
      "stateMutability": "view"
    },
    {
      "type": "function",
      "name": "addColor",
      "inputs": [
        {
          "name": "_colorName",
          "type": "string",
          "internalType": "string"
        },
        {
          "name": "_index1",
          "type": "uint8",
          "internalType": "uint8"
        },
        {
          "name": "_index2",
          "type": "uint8",
          "internalType": "uint8"
        }
      ],
      "outputs": [],
      "stateMutability": "nonpayable"
    },
    {
      "type": "function",
      "name": "aliveImplementation",
      "inputs": [
        {
          "name": "",
          "type": "address",
          "internalType": "address"
        }
      ],
      "outputs": [
        {
          "name": "",
          "type": "bool",
          "internalType": "bool"
        }
      ],
      "stateMutability": "view"
    },
    {
      "type": "function",
      "name": "approve",
      "inputs": [
        {
          "name": "to",
          "type": "address",
          "internalType": "address"
        },
        {
          "name": "tokenId",
          "type": "uint256",
          "internalType": "uint256"
        }
      ],
      "outputs": [],
      "stateMutability": "nonpayable"
    },
    {
      "type": "function",
      "name": "availableGemsRandomPack",
      "inputs": [],
      "outputs": [
        {
          "name": "",
          "type": "bool",
          "internalType": "bool"
        }
      ],
      "stateMutability": "view"
    },
    {
      "type": "function",
      "name": "balanceOf",
      "inputs": [
        {
          "name": "_owner",
          "type": "address",
          "internalType": "address"
        }
      ],
      "outputs": [
        {
          "name": "count",
          "type": "uint256",
          "internalType": "uint256"
        }
      ],
      "stateMutability": "view"
    },
    {
      "type": "function",
      "name": "colorName",
      "inputs": [
        {
          "name": "",
          "type": "uint8",
          "internalType": "uint8"
        },
        {
          "name": "",
          "type": "uint8",
          "internalType": "uint8"
        }
      ],
      "outputs": [
        {
          "name": "",
          "type": "string",
          "internalType": "string"
        }
      ],
      "stateMutability": "view"
    },
    {
      "type": "function",
      "name": "colors",
      "inputs": [
        {
          "name": "",
          "type": "uint256",
          "internalType": "uint256"
        },
        {
          "name": "",
          "type": "uint256",
          "internalType": "uint256"
        }
      ],
      "outputs": [
        {
          "name": "",
          "type": "uint8",
          "internalType": "uint8"
        }
      ],
      "stateMutability": "view"
    },
    {
      "type": "function",
      "name": "colorsCount",
      "inputs": [],
      "outputs": [
        {
          "name": "",
          "type": "uint8",
          "internalType": "uint8"
        }
      ],
      "stateMutability": "view"
    },
    {
      "type": "function",
      "name": "createGEM",
      "inputs": [
        {
          "name": "_rarity",
          "type": "uint8",
          "internalType": "enum GemFactoryStorage.Rarity"
        },
        {
          "name": "_color",
          "type": "uint8[2]",
          "internalType": "uint8[2]"
        },
        {
          "name": "_quadrants",
          "type": "uint8[4]",
          "internalType": "uint8[4]"
        },
        {
          "name": "_tokenURI",
          "type": "string",
          "internalType": "string"
        }
      ],
      "outputs": [
        {
          "name": "",
          "type": "uint256",
          "internalType": "uint256"
        }
      ],
      "stateMutability": "nonpayable"
    },
    {
      "type": "function",
      "name": "createGEMPool",
      "inputs": [
        {
          "name": "_rarities",
          "type": "uint8[]",
          "internalType": "enum GemFactoryStorage.Rarity[]"
        },
        {
          "name": "_colors",
          "type": "uint8[2][]",
          "internalType": "uint8[2][]"
        },
        {
          "name": "_quadrants",
          "type": "uint8[4][]",
          "internalType": "uint8[4][]"
        },
        {
          "name": "_tokenURIs",
          "type": "string[]",
          "internalType": "string[]"
        }
      ],
      "outputs": [
        {
          "name": "",
          "type": "uint256[]",
          "internalType": "uint256[]"
        }
      ],
      "stateMutability": "nonpayable"
    },
    {
      "type": "function",
      "name": "getAirdropAddress",
      "inputs": [],
      "outputs": [
        {
          "name": "",
          "type": "address",
          "internalType": "address"
        }
      ],
      "stateMutability": "view"
    },
    {
      "type": "function",
      "name": "getApproved",
      "inputs": [
        {
          "name": "tokenId",
          "type": "uint256",
          "internalType": "uint256"
        }
      ],
      "outputs": [
        {
          "name": "",
          "type": "address",
          "internalType": "address"
        }
      ],
      "stateMutability": "view"
    },
    {
      "type": "function",
      "name": "getColorName",
      "inputs": [
        {
          "name": "_index1",
          "type": "uint8",
          "internalType": "uint8"
        },
        {
          "name": "_index2",
          "type": "uint8",
          "internalType": "uint8"
        }
      ],
      "outputs": [
        {
          "name": "",
          "type": "string",
          "internalType": "string"
        }
      ],
      "stateMutability": "view"
    },
    {
      "type": "function",
      "name": "getCommonGemsValue",
      "inputs": [],
      "outputs": [
        {
          "name": "",
          "type": "uint256",
          "internalType": "uint256"
        }
      ],
      "stateMutability": "view"
    },
    {
      "type": "function",
      "name": "getEpicGemsCooldownPeriod",
      "inputs": [],
      "outputs": [
        {
          "name": "",
          "type": "uint32",
          "internalType": "uint32"
        }
      ],
      "stateMutability": "view"
    },
    {
      "type": "function",
      "name": "getEpicGemsMiningPeriod",
      "inputs": [],
      "outputs": [
        {
          "name": "",
          "type": "uint32",
          "internalType": "uint32"
        }
      ],
      "stateMutability": "view"
    },
    {
      "type": "function",
      "name": "getEpicGemsValue",
      "inputs": [],
      "outputs": [
        {
          "name": "",
          "type": "uint256",
          "internalType": "uint256"
        }
      ],
      "stateMutability": "view"
    },
    {
      "type": "function",
      "name": "getEpicminingTry",
      "inputs": [],
      "outputs": [
        {
          "name": "",
          "type": "uint8",
          "internalType": "uint8"
        }
      ],
      "stateMutability": "view"
    },
    {
      "type": "function",
      "name": "getGem",
      "inputs": [
        {
          "name": "tokenId",
          "type": "uint256",
          "internalType": "uint256"
        }
      ],
      "outputs": [
        {
          "name": "",
          "type": "tuple",
          "internalType": "struct GemFactoryStorage.Gem",
          "components": [
            {
              "name": "tokenId",
              "type": "uint256",
              "internalType": "uint256"
            },
            {
              "name": "value",
              "type": "uint256",
              "internalType": "uint256"
            },
            {
              "name": "gemCooldownDueDate",
              "type": "uint256",
              "internalType": "uint256"
            },
            {
              "name": "randomRequestId",
              "type": "uint256",
              "internalType": "uint256"
            },
            {
              "name": "rarity",
              "type": "uint8",
              "internalType": "enum GemFactoryStorage.Rarity"
            },
            {
              "name": "miningPeriod",
              "type": "uint32",
              "internalType": "uint32"
            },
            {
              "name": "miningTry",
              "type": "uint8",
              "internalType": "uint8"
            },
            {
              "name": "isLocked",
              "type": "bool",
              "internalType": "bool"
            },
            {
              "name": "quadrants",
              "type": "uint8[4]",
              "internalType": "uint8[4]"
            },
            {
              "name": "color",
              "type": "uint8[2]",
              "internalType": "uint8[2]"
            },
            {
              "name": "tokenURI",
              "type": "string",
              "internalType": "string"
            }
          ]
        }
      ],
      "stateMutability": "view"
    },
    {
      "type": "function",
      "name": "getGemListAvailableByRarity",
      "inputs": [
        {
          "name": "_rarity",
          "type": "uint8",
          "internalType": "enum GemFactoryStorage.Rarity"
        }
      ],
      "outputs": [
        {
          "name": "",
          "type": "uint256",
          "internalType": "uint256"
        },
        {
          "name": "",
          "type": "uint256[]",
          "internalType": "uint256[]"
        }
      ],
      "stateMutability": "view"
    },
    {
      "type": "function",
      "name": "getGemsSupplyTotalValue",
      "inputs": [],
      "outputs": [
        {
          "name": "totalValue",
          "type": "uint256",
          "internalType": "uint256"
        }
      ],
      "stateMutability": "view"
    },
    {
      "type": "function",
      "name": "getLegendaryGemsCooldownPeriod",
      "inputs": [],
      "outputs": [
        {
          "name": "",
          "type": "uint32",
          "internalType": "uint32"
        }
      ],
      "stateMutability": "view"
    },
    {
      "type": "function",
      "name": "getLegendaryGemsMiningPeriod",
      "inputs": [],
      "outputs": [
        {
          "name": "",
          "type": "uint32",
          "internalType": "uint32"
        }
      ],
      "stateMutability": "view"
    },
    {
      "type": "function",
      "name": "getLegendaryGemsValue",
      "inputs": [],
      "outputs": [
        {
          "name": "",
          "type": "uint256",
          "internalType": "uint256"
        }
      ],
      "stateMutability": "view"
    },
    {
      "type": "function",
      "name": "getLegendaryminingTry",
      "inputs": [],
      "outputs": [
        {
          "name": "",
          "type": "uint8",
          "internalType": "uint8"
        }
      ],
      "stateMutability": "view"
    },
    {
      "type": "function",
      "name": "getMarketPlaceAddress",
      "inputs": [],
      "outputs": [
        {
          "name": "",
          "type": "address",
          "internalType": "address"
        }
      ],
      "stateMutability": "view"
    },
    {
      "type": "function",
      "name": "getMythicGemsCooldownPeriod",
      "inputs": [],
      "outputs": [
        {
          "name": "",
          "type": "uint32",
          "internalType": "uint32"
        }
      ],
      "stateMutability": "view"
    },
    {
      "type": "function",
      "name": "getMythicGemsMiningPeriod",
      "inputs": [],
      "outputs": [
        {
          "name": "",
          "type": "uint32",
          "internalType": "uint32"
        }
      ],
      "stateMutability": "view"
    },
    {
      "type": "function",
      "name": "getMythicGemsValue",
      "inputs": [],
      "outputs": [
        {
          "name": "",
          "type": "uint256",
          "internalType": "uint256"
        }
      ],
      "stateMutability": "view"
    },
    {
      "type": "function",
      "name": "getMythicminingTry",
      "inputs": [],
      "outputs": [
        {
          "name": "",
          "type": "uint8",
          "internalType": "uint8"
        }
      ],
      "stateMutability": "view"
    },
    {
      "type": "function",
      "name": "getOwnershipTokenCount",
      "inputs": [
        {
          "name": "_user",
          "type": "address",
          "internalType": "address"
        }
      ],
      "outputs": [
        {
          "name": "",
          "type": "uint256",
          "internalType": "uint256"
        }
      ],
      "stateMutability": "view"
    },
    {
      "type": "function",
      "name": "getPaused",
      "inputs": [],
      "outputs": [
        {
          "name": "",
          "type": "bool",
          "internalType": "bool"
        }
      ],
      "stateMutability": "view"
    },
    {
      "type": "function",
      "name": "getRandomRequest",
      "inputs": [
        {
          "name": "_requestId",
          "type": "uint256",
          "internalType": "uint256"
        }
      ],
      "outputs": [
        {
          "name": "",
          "type": "tuple",
          "internalType": "struct GemFactoryStorage.RequestStatus",
          "components": [
            {
              "name": "tokenId",
              "type": "uint256",
              "internalType": "uint256"
            },
            {
              "name": "randomWord",
              "type": "uint256",
              "internalType": "uint256"
            },
            {
              "name": "chosenTokenId",
              "type": "uint256",
              "internalType": "uint256"
            },
            {
              "name": "requester",
              "type": "address",
              "internalType": "address"
            },
            {
              "name": "requested",
              "type": "bool",
              "internalType": "bool"
            },
            {
              "name": "fulfilled",
              "type": "bool",
              "internalType": "bool"
            }
          ]
        }
      ],
      "stateMutability": "view"
    },
    {
      "type": "function",
      "name": "getRareGemsCooldownPeriod",
      "inputs": [],
      "outputs": [
        {
          "name": "",
          "type": "uint32",
          "internalType": "uint32"
        }
      ],
      "stateMutability": "view"
    },
    {
      "type": "function",
      "name": "getRareGemsMiningPeriod",
      "inputs": [],
      "outputs": [
        {
          "name": "",
          "type": "uint32",
          "internalType": "uint32"
        }
      ],
      "stateMutability": "view"
    },
    {
      "type": "function",
      "name": "getRareGemsValue",
      "inputs": [],
      "outputs": [
        {
          "name": "",
          "type": "uint256",
          "internalType": "uint256"
        }
      ],
      "stateMutability": "view"
    },
    {
      "type": "function",
      "name": "getRareminingTry",
      "inputs": [],
      "outputs": [
        {
          "name": "",
          "type": "uint8",
          "internalType": "uint8"
        }
      ],
      "stateMutability": "view"
    },
    {
      "type": "function",
      "name": "getRequestCount",
      "inputs": [],
      "outputs": [
        {
          "name": "",
          "type": "uint256",
          "internalType": "uint256"
        }
      ],
      "stateMutability": "view"
    },
    {
      "type": "function",
      "name": "getRequestIds",
      "inputs": [],
      "outputs": [
        {
          "name": "",
          "type": "uint256[]",
          "internalType": "uint256[]"
        }
      ],
      "stateMutability": "view"
    },
    {
      "type": "function",
      "name": "getTonAddress",
      "inputs": [],
      "outputs": [
        {
          "name": "",
          "type": "address",
          "internalType": "address"
        }
      ],
      "stateMutability": "view"
    },
    {
      "type": "function",
      "name": "getTreasuryAddress",
      "inputs": [],
      "outputs": [
        {
          "name": "",
          "type": "address",
          "internalType": "address"
        }
      ],
      "stateMutability": "view"
    },
    {
      "type": "function",
      "name": "getUniqueGemsCooldownPeriod",
      "inputs": [],
      "outputs": [
        {
          "name": "",
          "type": "uint32",
          "internalType": "uint32"
        }
      ],
      "stateMutability": "view"
    },
    {
      "type": "function",
      "name": "getUniqueGemsMiningPeriod",
      "inputs": [],
      "outputs": [
        {
          "name": "",
          "type": "uint32",
          "internalType": "uint32"
        }
      ],
      "stateMutability": "view"
    },
    {
      "type": "function",
      "name": "getUniqueGemsValue",
      "inputs": [],
      "outputs": [
        {
          "name": "",
          "type": "uint256",
          "internalType": "uint256"
        }
      ],
      "stateMutability": "view"
    },
    {
      "type": "function",
      "name": "getUniqueminingTry",
      "inputs": [],
      "outputs": [
        {
          "name": "",
          "type": "uint8",
          "internalType": "uint8"
        }
      ],
      "stateMutability": "view"
    },
    {
      "type": "function",
      "name": "getValueBasedOnRarity",
      "inputs": [
        {
          "name": "_rarity",
          "type": "uint8",
          "internalType": "enum GemFactoryStorage.Rarity"
        }
      ],
      "outputs": [
        {
          "name": "value",
          "type": "uint256",
          "internalType": "uint256"
        }
      ],
      "stateMutability": "view"
    },
    {
      "type": "function",
      "name": "getWstonAddress",
      "inputs": [],
      "outputs": [
        {
          "name": "",
          "type": "address",
          "internalType": "address"
        }
      ],
      "stateMutability": "view"
    },
    {
      "type": "function",
      "name": "initialize",
      "inputs": [
        {
          "name": "_owner",
          "type": "address",
          "internalType": "address"
        },
        {
          "name": "_wston",
          "type": "address",
          "internalType": "address"
        },
        {
          "name": "_ton",
          "type": "address",
          "internalType": "address"
        },
        {
          "name": "_treasury",
          "type": "address",
          "internalType": "address"
        }
      ],
      "outputs": [],
      "stateMutability": "nonpayable"
    },
    {
      "type": "function",
      "name": "isApprovedForAll",
      "inputs": [
        {
          "name": "owner",
          "type": "address",
          "internalType": "address"
        },
        {
          "name": "operator",
          "type": "address",
          "internalType": "address"
        }
      ],
      "outputs": [
        {
          "name": "",
          "type": "bool",
          "internalType": "bool"
        }
      ],
      "stateMutability": "view"
    },
    {
      "type": "function",
      "name": "isTokenLocked",
      "inputs": [
        {
          "name": "_tokenId",
          "type": "uint256",
          "internalType": "uint256"
        }
      ],
      "outputs": [
        {
          "name": "",
          "type": "bool",
          "internalType": "bool"
        }
      ],
      "stateMutability": "view"
    },
    {
      "type": "function",
      "name": "meltGEM",
      "inputs": [
        {
          "name": "_tokenId",
          "type": "uint256",
          "internalType": "uint256"
        }
      ],
      "outputs": [],
      "stateMutability": "nonpayable"
    },
    {
      "type": "function",
      "name": "name",
      "inputs": [],
      "outputs": [
        {
          "name": "",
          "type": "string",
          "internalType": "string"
        }
      ],
      "stateMutability": "view"
    },
    {
      "type": "function",
      "name": "owner",
      "inputs": [],
      "outputs": [
        {
          "name": "",
          "type": "address",
          "internalType": "address"
        }
      ],
      "stateMutability": "view"
    },
    {
      "type": "function",
      "name": "ownerOf",
      "inputs": [
        {
          "name": "tokenId",
          "type": "uint256",
          "internalType": "uint256"
        }
      ],
      "outputs": [
        {
          "name": "",
          "type": "address",
          "internalType": "address"
        }
      ],
      "stateMutability": "view"
    },
    {
      "type": "function",
      "name": "ownershipTokenCount",
      "inputs": [
        {
          "name": "",
          "type": "address",
          "internalType": "address"
        }
      ],
      "outputs": [
        {
          "name": "",
          "type": "uint256",
          "internalType": "uint256"
        }
      ],
      "stateMutability": "view"
    },
    {
      "type": "function",
      "name": "pause",
      "inputs": [],
      "outputs": [],
      "stateMutability": "nonpayable"
    },
    {
      "type": "function",
      "name": "pauseProxy",
      "inputs": [],
      "outputs": [
        {
          "name": "",
          "type": "bool",
          "internalType": "bool"
        }
      ],
      "stateMutability": "view"
    },
    {
      "type": "function",
      "name": "paused",
      "inputs": [],
      "outputs": [
        {
          "name": "",
          "type": "bool",
          "internalType": "bool"
        }
      ],
      "stateMutability": "view"
    },
    {
      "type": "function",
      "name": "preMintedGemsAvailable",
      "inputs": [],
      "outputs": [
        {
          "name": "GemsAvailable",
          "type": "uint256[]",
          "internalType": "uint256[]"
        }
      ],
      "stateMutability": "view"
    },
    {
      "type": "function",
      "name": "proxyImplementation",
      "inputs": [
        {
          "name": "",
          "type": "uint256",
          "internalType": "uint256"
        }
      ],
      "outputs": [
        {
          "name": "",
          "type": "address",
          "internalType": "address"
        }
      ],
      "stateMutability": "view"
    },
    {
      "type": "function",
      "name": "renounceOwnership",
      "inputs": [],
      "outputs": [],
      "stateMutability": "nonpayable"
    },
    {
      "type": "function",
      "name": "s_requests",
      "inputs": [
        {
          "name": "",
          "type": "uint256",
          "internalType": "uint256"
        }
      ],
      "outputs": [
        {
          "name": "tokenId",
          "type": "uint256",
          "internalType": "uint256"
        },
        {
          "name": "randomWord",
          "type": "uint256",
          "internalType": "uint256"
        },
        {
          "name": "chosenTokenId",
          "type": "uint256",
          "internalType": "uint256"
        },
        {
          "name": "requester",
          "type": "address",
          "internalType": "address"
        },
        {
          "name": "requested",
          "type": "bool",
          "internalType": "bool"
        },
        {
          "name": "fulfilled",
          "type": "bool",
          "internalType": "bool"
        }
      ],
      "stateMutability": "view"
    },
    {
      "type": "function",
      "name": "safeTransferFrom",
      "inputs": [
        {
          "name": "from",
          "type": "address",
          "internalType": "address"
        },
        {
          "name": "to",
          "type": "address",
          "internalType": "address"
        },
        {
          "name": "tokenId",
          "type": "uint256",
          "internalType": "uint256"
        }
      ],
      "outputs": [],
      "stateMutability": "nonpayable"
    },
    {
      "type": "function",
      "name": "safeTransferFrom",
      "inputs": [
        {
          "name": "from",
          "type": "address",
          "internalType": "address"
        },
        {
          "name": "to",
          "type": "address",
          "internalType": "address"
        },
        {
          "name": "tokenId",
          "type": "uint256",
          "internalType": "uint256"
        },
        {
          "name": "data",
          "type": "bytes",
          "internalType": "bytes"
        }
      ],
      "outputs": [],
      "stateMutability": "nonpayable"
    },
    {
      "type": "function",
      "name": "selectorImplementation",
      "inputs": [
        {
          "name": "",
          "type": "bytes4",
          "internalType": "bytes4"
        }
      ],
      "outputs": [
        {
          "name": "",
          "type": "address",
          "internalType": "address"
        }
      ],
      "stateMutability": "view"
    },
    {
      "type": "function",
      "name": "setAirdrop",
      "inputs": [
        {
          "name": "_airdrop",
          "type": "address",
          "internalType": "address"
        }
      ],
      "outputs": [],
      "stateMutability": "nonpayable"
    },
    {
      "type": "function",
      "name": "setApprovalForAll",
      "inputs": [
        {
          "name": "operator",
          "type": "address",
          "internalType": "address"
        },
        {
          "name": "approved",
          "type": "bool",
          "internalType": "bool"
        }
      ],
      "outputs": [],
      "stateMutability": "nonpayable"
    },
    {
      "type": "function",
      "name": "setGemsCooldownPeriods",
      "inputs": [
        {
          "name": "_RareGemsCooldownPeriod",
          "type": "uint32",
          "internalType": "uint32"
        },
        {
          "name": "_UniqueGemsCooldownPeriod",
          "type": "uint32",
          "internalType": "uint32"
        },
        {
          "name": "_EpicGemsCooldownPeriod",
          "type": "uint32",
          "internalType": "uint32"
        },
        {
          "name": "_LegendaryGemsCooldownPeriod",
          "type": "uint32",
          "internalType": "uint32"
        },
        {
          "name": "_MythicGemsCooldownPeriod",
          "type": "uint32",
          "internalType": "uint32"
        }
      ],
      "outputs": [],
      "stateMutability": "nonpayable"
    },
    {
      "type": "function",
      "name": "setGemsMiningPeriods",
      "inputs": [
        {
          "name": "_RareGemsMiningPeriod",
          "type": "uint32",
          "internalType": "uint32"
        },
        {
          "name": "_UniqueGemsMiningPeriod",
          "type": "uint32",
          "internalType": "uint32"
        },
        {
          "name": "_EpicGemsMiningPeriod",
          "type": "uint32",
          "internalType": "uint32"
        },
        {
          "name": "_LegendaryGemsMiningPeriod",
          "type": "uint32",
          "internalType": "uint32"
        },
        {
          "name": "_MythicGemsMiningPeriod",
          "type": "uint32",
          "internalType": "uint32"
        }
      ],
      "outputs": [],
      "stateMutability": "nonpayable"
    },
    {
      "type": "function",
      "name": "setGemsValue",
      "inputs": [
        {
          "name": "_CommonGemsValue",
          "type": "uint256",
          "internalType": "uint256"
        },
        {
          "name": "_RareGemsValue",
          "type": "uint256",
          "internalType": "uint256"
        },
        {
          "name": "_UniqueGemsValue",
          "type": "uint256",
          "internalType": "uint256"
        },
        {
          "name": "_EpicGemsValue",
          "type": "uint256",
          "internalType": "uint256"
        },
        {
          "name": "_LegendaryGemsValue",
          "type": "uint256",
          "internalType": "uint256"
        },
        {
          "name": "_MythicGemsValue",
          "type": "uint256",
          "internalType": "uint256"
        }
      ],
      "outputs": [],
      "stateMutability": "nonpayable"
    },
    {
      "type": "function",
      "name": "setIsLocked",
      "inputs": [
        {
          "name": "_tokenId",
          "type": "uint256",
          "internalType": "uint256"
        },
        {
          "name": "_isLocked",
          "type": "bool",
          "internalType": "bool"
        }
      ],
      "outputs": [],
      "stateMutability": "nonpayable"
    },
    {
      "type": "function",
      "name": "setMarketPlaceAddress",
      "inputs": [
        {
          "name": "_marketplace",
          "type": "address",
          "internalType": "address"
        }
      ],
      "outputs": [],
      "stateMutability": "nonpayable"
    },
    {
      "type": "function",
      "name": "setMiningTries",
      "inputs": [
        {
          "name": "_RareminingTry",
          "type": "uint8",
          "internalType": "uint8"
        },
        {
          "name": "_UniqueminingTry",
          "type": "uint8",
          "internalType": "uint8"
        },
        {
          "name": "_EpicminingTry",
          "type": "uint8",
          "internalType": "uint8"
        },
        {
          "name": "_LegendaryminingTry",
          "type": "uint8",
          "internalType": "uint8"
        },
        {
          "name": "_MythicminingTry",
          "type": "uint8",
          "internalType": "uint8"
        }
      ],
      "outputs": [],
      "stateMutability": "nonpayable"
    },
    {
      "type": "function",
      "name": "setTokenURI",
      "inputs": [
        {
          "name": "tokenId",
          "type": "uint256",
          "internalType": "uint256"
        },
        {
          "name": "_tokenURI",
          "type": "string",
          "internalType": "string"
        }
      ],
      "outputs": [],
      "stateMutability": "nonpayable"
    },
    {
      "type": "function",
      "name": "setTreasury",
      "inputs": [
        {
          "name": "_treasury",
          "type": "address",
          "internalType": "address"
        }
      ],
      "outputs": [],
      "stateMutability": "nonpayable"
    },
    {
      "type": "function",
      "name": "supportsInterface",
      "inputs": [
        {
          "name": "interfaceId",
          "type": "bytes4",
          "internalType": "bytes4"
        }
      ],
      "outputs": [
        {
          "name": "",
          "type": "bool",
          "internalType": "bool"
        }
      ],
      "stateMutability": "view"
    },
    {
      "type": "function",
      "name": "symbol",
      "inputs": [],
      "outputs": [
        {
          "name": "",
          "type": "string",
          "internalType": "string"
        }
      ],
      "stateMutability": "view"
    },
    {
      "type": "function",
      "name": "tokenMiningByUser",
      "inputs": [
        {
          "name": "",
          "type": "address",
          "internalType": "address"
        }
      ],
      "outputs": [
        {
          "name": "",
          "type": "uint256",
          "internalType": "uint256"
        }
      ],
      "stateMutability": "view"
    },
    {
      "type": "function",
      "name": "tokenReadyToMine",
      "inputs": [
        {
          "name": "",
          "type": "uint256",
          "internalType": "uint256"
        }
      ],
      "outputs": [
        {
          "name": "",
          "type": "bool",
          "internalType": "bool"
        }
      ],
      "stateMutability": "view"
    },
    {
      "type": "function",
      "name": "tokenURI",
      "inputs": [
        {
          "name": "tokenId",
          "type": "uint256",
          "internalType": "uint256"
        }
      ],
      "outputs": [
        {
          "name": "",
          "type": "string",
          "internalType": "string"
        }
      ],
      "stateMutability": "view"
    },
    {
      "type": "function",
      "name": "tokensOfOwner",
      "inputs": [
        {
          "name": "_owner",
          "type": "address",
          "internalType": "address"
        }
      ],
      "outputs": [
        {
          "name": "ownerTokens",
          "type": "uint256[]",
          "internalType": "uint256[]"
        }
      ],
      "stateMutability": "view"
    },
    {
      "type": "function",
      "name": "totalSupply",
      "inputs": [],
      "outputs": [
        {
          "name": "",
          "type": "uint256",
          "internalType": "uint256"
        }
      ],
      "stateMutability": "view"
    },
    {
      "type": "function",
      "name": "transferFrom",
      "inputs": [
        {
          "name": "from",
          "type": "address",
          "internalType": "address"
        },
        {
          "name": "to",
          "type": "address",
          "internalType": "address"
        },
        {
          "name": "tokenId",
          "type": "uint256",
          "internalType": "uint256"
        }
      ],
      "outputs": [],
      "stateMutability": "nonpayable"
    },
    {
      "type": "function",
      "name": "transferOwnership",
      "inputs": [
        {
          "name": "newOwner",
          "type": "address",
          "internalType": "address"
        }
      ],
      "outputs": [],
      "stateMutability": "nonpayable"
    },
    {
      "type": "function",
      "name": "unpause",
      "inputs": [],
      "outputs": [],
      "stateMutability": "nonpayable"
    },
    {
      "type": "function",
      "name": "userMiningStartTime",
      "inputs": [
        {
          "name": "",
          "type": "address",
          "internalType": "address"
        },
        {
          "name": "",
          "type": "uint256",
          "internalType": "uint256"
        }
      ],
      "outputs": [
        {
          "name": "",
          "type": "uint256",
          "internalType": "uint256"
        }
      ],
      "stateMutability": "view"
    },
    {
      "type": "function",
      "name": "userMiningToken",
      "inputs": [
        {
          "name": "",
          "type": "address",
          "internalType": "address"
        },
        {
          "name": "",
          "type": "uint256",
          "internalType": "uint256"
        }
      ],
      "outputs": [
        {
          "name": "",
          "type": "bool",
          "internalType": "bool"
        }
      ],
      "stateMutability": "view"
    },
    {
      "type": "event",
      "name": "Approval",
      "inputs": [
        {
          "name": "owner",
          "type": "address",
          "indexed": true,
          "internalType": "address"
        },
        {
          "name": "approved",
          "type": "address",
          "indexed": true,
          "internalType": "address"
        },
        {
          "name": "tokenId",
          "type": "uint256",
          "indexed": true,
          "internalType": "uint256"
        }
      ],
      "anonymous": false
    },
    {
      "type": "event",
      "name": "ApprovalForAll",
      "inputs": [
        {
          "name": "owner",
          "type": "address",
          "indexed": true,
          "internalType": "address"
        },
        {
          "name": "operator",
          "type": "address",
          "indexed": true,
          "internalType": "address"
        },
        {
          "name": "approved",
          "type": "bool",
          "indexed": false,
          "internalType": "bool"
        }
      ],
      "anonymous": false
    },
    {
      "type": "event",
      "name": "BackgroundColorAdded",
      "inputs": [
        {
          "name": "id",
          "type": "uint8",
          "indexed": true,
          "internalType": "uint8"
        },
        {
          "name": "backgroundColor",
          "type": "string",
          "indexed": false,
          "internalType": "string"
        }
      ],
      "anonymous": false
    },
    {
      "type": "event",
      "name": "BatchMetadataUpdate",
      "inputs": [
        {
          "name": "_fromTokenId",
          "type": "uint256",
          "indexed": false,
          "internalType": "uint256"
        },
        {
          "name": "_toTokenId",
          "type": "uint256",
          "indexed": false,
          "internalType": "uint256"
        }
      ],
      "anonymous": false
    },
    {
      "type": "event",
      "name": "ColorAdded",
      "inputs": [
        {
          "name": "id",
          "type": "uint8",
          "indexed": true,
          "internalType": "uint8"
        },
        {
          "name": "color",
          "type": "string",
          "indexed": false,
          "internalType": "string"
        }
      ],
      "anonymous": false
    },
    {
      "type": "event",
      "name": "ColorValidated",
      "inputs": [
        {
          "name": "color_0",
          "type": "uint8",
          "indexed": false,
          "internalType": "uint8"
        },
        {
          "name": "color_1",
          "type": "uint8",
          "indexed": false,
          "internalType": "uint8"
        }
      ],
      "anonymous": false
    },
    {
      "type": "event",
      "name": "CountGemsByQuadrant",
      "inputs": [
        {
          "name": "gemCount",
          "type": "uint256",
          "indexed": false,
          "internalType": "uint256"
        },
        {
          "name": "tokenIds",
          "type": "uint256[]",
          "indexed": false,
          "internalType": "uint256[]"
        }
      ],
      "anonymous": false
    },
    {
      "type": "event",
      "name": "Created",
      "inputs": [
        {
          "name": "tokenId",
          "type": "uint256",
          "indexed": true,
          "internalType": "uint256"
        },
        {
          "name": "rarity",
          "type": "uint8",
          "indexed": false,
          "internalType": "enum GemFactoryStorage.Rarity"
        },
        {
          "name": "color",
          "type": "uint8[2]",
          "indexed": false,
          "internalType": "uint8[2]"
        },
        {
          "name": "miningTry",
          "type": "uint8",
          "indexed": false,
          "internalType": "uint8"
        },
        {
          "name": "value",
          "type": "uint256",
          "indexed": false,
          "internalType": "uint256"
        },
        {
          "name": "quadrants",
          "type": "uint8[4]",
          "indexed": false,
          "internalType": "uint8[4]"
        },
        {
          "name": "miningPeriod",
          "type": "uint32",
          "indexed": false,
          "internalType": "uint32"
        },
        {
          "name": "cooldownDueDate",
          "type": "uint256",
          "indexed": false,
          "internalType": "uint256"
        },
        {
          "name": "tokenURI",
          "type": "string",
          "indexed": false,
          "internalType": "string"
        },
        {
          "name": "owner",
          "type": "address",
          "indexed": false,
          "internalType": "address"
        }
      ],
      "anonymous": false
    },
    {
      "type": "event",
      "name": "EthSentBack",
      "inputs": [
        {
          "name": "amount",
          "type": "uint256",
          "indexed": false,
          "internalType": "uint256"
        }
      ],
      "anonymous": false
    },
    {
      "type": "event",
      "name": "GemForged",
      "inputs": [
        {
          "name": "gemOwner",
          "type": "address",
          "indexed": false,
          "internalType": "address"
        },
        {
          "name": "gemsTokenIds",
          "type": "uint256[]",
          "indexed": false,
          "internalType": "uint256[]"
        },
        {
          "name": "newGemCreatedId",
          "type": "uint256",
          "indexed": false,
          "internalType": "uint256"
        },
        {
          "name": "newRarity",
          "type": "uint8",
          "indexed": false,
          "internalType": "enum GemFactoryStorage.Rarity"
        },
        {
          "name": "forgedQuadrants",
          "type": "uint8[4]",
          "indexed": false,
          "internalType": "uint8[4]"
        },
        {
          "name": "color",
          "type": "uint8[2]",
          "indexed": false,
          "internalType": "uint8[2]"
        },
        {
          "name": "newValue",
          "type": "uint256",
          "indexed": false,
          "internalType": "uint256"
        }
      ],
      "anonymous": false
    },
    {
      "type": "event",
      "name": "GemMelted",
      "inputs": [
        {
          "name": "_tokenId",
          "type": "uint256",
          "indexed": false,
          "internalType": "uint256"
        },
        {
          "name": "_from",
          "type": "address",
          "indexed": false,
          "internalType": "address"
        }
      ],
      "anonymous": false
    },
    {
      "type": "event",
      "name": "GemMiningClaimed",
      "inputs": [
        {
          "name": "tokenId",
          "type": "uint256",
          "indexed": false,
          "internalType": "uint256"
        },
        {
          "name": "minedGemCooldownDueDate",
          "type": "uint256",
          "indexed": false,
          "internalType": "uint256"
        },
        {
          "name": "miner",
          "type": "address",
          "indexed": false,
          "internalType": "address"
        }
      ],
      "anonymous": false
    },
    {
      "type": "event",
      "name": "GemMiningStarted",
      "inputs": [
        {
          "name": "tokenId",
          "type": "uint256",
          "indexed": false,
          "internalType": "uint256"
        },
        {
          "name": "miner",
          "type": "address",
          "indexed": false,
          "internalType": "address"
        },
        {
          "name": "startMiningTime",
          "type": "uint256",
          "indexed": false,
          "internalType": "uint256"
        },
        {
          "name": "newminingTry",
          "type": "uint256",
          "indexed": false,
          "internalType": "uint256"
        }
      ],
      "anonymous": false
    },
    {
      "type": "event",
      "name": "GemsCoolDownPeriodModified",
      "inputs": [
        {
          "name": "RareGemsCooldownPeriod",
          "type": "uint32",
          "indexed": false,
          "internalType": "uint32"
        },
        {
          "name": "UniqueGemsCooldownPeriod",
          "type": "uint32",
          "indexed": false,
          "internalType": "uint32"
        },
        {
          "name": "EpicGemsCooldownPeriod",
          "type": "uint32",
          "indexed": false,
          "internalType": "uint32"
        },
        {
          "name": "LegendaryGemsCooldownPeriod",
          "type": "uint32",
          "indexed": false,
          "internalType": "uint32"
        },
        {
          "name": "MythicGemsCooldownPeriod",
          "type": "uint32",
          "indexed": false,
          "internalType": "uint32"
        }
      ],
      "anonymous": false
    },
    {
      "type": "event",
      "name": "GemsMiningPeriodModified",
      "inputs": [
        {
          "name": "RareGemsMiningPeriod",
          "type": "uint32",
          "indexed": false,
          "internalType": "uint32"
        },
        {
          "name": "UniqueGemsMiningPeriod",
          "type": "uint32",
          "indexed": false,
          "internalType": "uint32"
        },
        {
          "name": "EpicGemsMiningPeriod",
          "type": "uint32",
          "indexed": false,
          "internalType": "uint32"
        },
        {
          "name": "LegendaryGemsMiningPeriod",
          "type": "uint32",
          "indexed": false,
          "internalType": "uint32"
        },
        {
          "name": "MythicGemsMiningPeriod",
          "type": "uint32",
          "indexed": false,
          "internalType": "uint32"
        }
      ],
      "anonymous": false
    },
    {
      "type": "event",
      "name": "GemsMiningTryModified",
      "inputs": [
        {
          "name": "RareGemsMiningTry",
          "type": "uint8",
          "indexed": false,
          "internalType": "uint8"
        },
        {
          "name": "UniqueGemsMiningTry",
          "type": "uint8",
          "indexed": false,
          "internalType": "uint8"
        },
        {
          "name": "EpicGemsMiningTry",
          "type": "uint8",
          "indexed": false,
          "internalType": "uint8"
        },
        {
          "name": "LegendaryGemsMiningTry",
          "type": "uint8",
          "indexed": false,
          "internalType": "uint8"
        },
        {
          "name": "MythicGemsMiningTry",
          "type": "uint8",
          "indexed": false,
          "internalType": "uint8"
        }
      ],
      "anonymous": false
    },
    {
      "type": "event",
      "name": "GemsValueModified",
      "inputs": [
        {
          "name": "CommonGemsValue",
          "type": "uint256",
          "indexed": false,
          "internalType": "uint256"
        },
        {
          "name": "RareGemsValue",
          "type": "uint256",
          "indexed": false,
          "internalType": "uint256"
        },
        {
          "name": "UniqueGemsValue",
          "type": "uint256",
          "indexed": false,
          "internalType": "uint256"
        },
        {
          "name": "EpicGemsValue",
          "type": "uint256",
          "indexed": false,
          "internalType": "uint256"
        },
        {
          "name": "LegendaryValue",
          "type": "uint256",
          "indexed": false,
          "internalType": "uint256"
        },
        {
          "name": "MythicValue",
          "type": "uint256",
          "indexed": false,
          "internalType": "uint256"
        }
      ],
      "anonymous": false
    },
    {
      "type": "event",
      "name": "Initialized",
      "inputs": [
        {
          "name": "version",
          "type": "uint64",
          "indexed": false,
          "internalType": "uint64"
        }
      ],
      "anonymous": false
    },
    {
      "type": "event",
      "name": "MetadataUpdate",
      "inputs": [
        {
          "name": "_tokenId",
          "type": "uint256",
          "indexed": false,
          "internalType": "uint256"
        }
      ],
      "anonymous": false
    },
    {
      "type": "event",
      "name": "MiningCancelled",
      "inputs": [
        {
          "name": "_tokenId",
          "type": "uint256",
          "indexed": false,
          "internalType": "uint256"
        },
        {
          "name": "owner",
          "type": "address",
          "indexed": false,
          "internalType": "address"
        },
        {
          "name": "timestamp",
          "type": "uint256",
          "indexed": false,
          "internalType": "uint256"
        }
      ],
      "anonymous": false
    },
    {
      "type": "event",
      "name": "NoGemAvailable",
      "inputs": [
        {
          "name": "tokenId",
          "type": "uint256",
          "indexed": false,
          "internalType": "uint256"
        }
      ],
      "anonymous": false
    },
    {
      "type": "event",
      "name": "OwnershipTransferred",
      "inputs": [
        {
          "name": "previousOwner",
          "type": "address",
          "indexed": true,
          "internalType": "address"
        },
        {
          "name": "newOwner",
          "type": "address",
          "indexed": true,
          "internalType": "address"
        }
      ],
      "anonymous": false
    },
    {
      "type": "event",
      "name": "Paused",
      "inputs": [
        {
          "name": "account",
          "type": "address",
          "indexed": false,
          "internalType": "address"
        }
      ],
      "anonymous": false
    },
    {
      "type": "event",
      "name": "RandomGemRequested",
      "inputs": [
        {
          "name": "tokenId",
          "type": "uint256",
          "indexed": false,
          "internalType": "uint256"
        },
        {
          "name": "requestNumber",
          "type": "uint256",
          "indexed": false,
          "internalType": "uint256"
        }
      ],
      "anonymous": false
    },
    {
      "type": "event",
      "name": "Transfer",
      "inputs": [
        {
          "name": "from",
          "type": "address",
          "indexed": true,
          "internalType": "address"
        },
        {
          "name": "to",
          "type": "address",
          "indexed": true,
          "internalType": "address"
        },
        {
          "name": "tokenId",
          "type": "uint256",
          "indexed": true,
          "internalType": "uint256"
        }
      ],
      "anonymous": false
    },
    {
      "type": "event",
      "name": "TransferGEM",
      "inputs": [
        {
          "name": "from",
          "type": "address",
          "indexed": false,
          "internalType": "address"
        },
        {
          "name": "to",
          "type": "address",
          "indexed": false,
          "internalType": "address"
        },
        {
          "name": "tokenId",
          "type": "uint256",
          "indexed": false,
          "internalType": "uint256"
        }
      ],
      "anonymous": false
    },
    {
      "type": "event",
      "name": "Unpaused",
      "inputs": [
        {
          "name": "account",
          "type": "address",
          "indexed": false,
          "internalType": "address"
        }
      ],
      "anonymous": false
    },
    {
      "type": "error",
      "name": "AddressZero",
      "inputs": []
    },
    {
      "type": "error",
      "name": "ColorNotExist",
      "inputs": []
    },
    {
      "type": "error",
      "name": "ContractNotPaused",
      "inputs": []
    },
    {
      "type": "error",
      "name": "ContractPaused",
      "inputs": []
    },
    {
      "type": "error",
      "name": "CooldownPeriodNotElapsed",
      "inputs": []
    },
    {
      "type": "error",
      "name": "ERC721IncorrectOwner",
      "inputs": [
        {
          "name": "sender",
          "type": "address",
          "internalType": "address"
        },
        {
          "name": "tokenId",
          "type": "uint256",
          "internalType": "uint256"
        },
        {
          "name": "owner",
          "type": "address",
          "internalType": "address"
        }
      ]
    },
    {
      "type": "error",
      "name": "ERC721InsufficientApproval",
      "inputs": [
        {
          "name": "operator",
          "type": "address",
          "internalType": "address"
        },
        {
          "name": "tokenId",
          "type": "uint256",
          "internalType": "uint256"
        }
      ]
    },
    {
      "type": "error",
      "name": "ERC721InvalidApprover",
      "inputs": [
        {
          "name": "approver",
          "type": "address",
          "internalType": "address"
        }
      ]
    },
    {
      "type": "error",
      "name": "ERC721InvalidOperator",
      "inputs": [
        {
          "name": "operator",
          "type": "address",
          "internalType": "address"
        }
      ]
    },
    {
      "type": "error",
      "name": "ERC721InvalidOwner",
      "inputs": [
        {
          "name": "owner",
          "type": "address",
          "internalType": "address"
        }
      ]
    },
    {
      "type": "error",
      "name": "ERC721InvalidReceiver",
      "inputs": [
        {
          "name": "receiver",
          "type": "address",
          "internalType": "address"
        }
      ]
    },
    {
      "type": "error",
      "name": "ERC721InvalidSender",
      "inputs": [
        {
          "name": "sender",
          "type": "address",
          "internalType": "address"
        }
      ]
    },
    {
      "type": "error",
      "name": "ERC721NonexistentToken",
      "inputs": [
        {
          "name": "tokenId",
          "type": "uint256",
          "internalType": "uint256"
        }
      ]
    },
    {
      "type": "error",
      "name": "FailedToSendEthBack",
      "inputs": []
    },
    {
      "type": "error",
      "name": "GemAlreadyPicked",
      "inputs": []
    },
    {
      "type": "error",
      "name": "GemIsLocked",
      "inputs": []
    },
    {
      "type": "error",
      "name": "GemIsNotLocked",
      "inputs": []
    },
    {
      "type": "error",
      "name": "InvalidInitialization",
      "inputs": []
    },
    {
      "type": "error",
      "name": "InvalidQuadrant",
      "inputs": [
        {
          "name": "quadrant",
          "type": "uint8",
          "internalType": "uint8"
        },
        {
          "name": "value",
          "type": "uint8",
          "internalType": "uint8"
        }
      ]
    },
    {
      "type": "error",
      "name": "InvalidSumOfQuadrants",
      "inputs": []
    },
    {
      "type": "error",
      "name": "MiningPeriodNotElapsed",
      "inputs": []
    },
    {
      "type": "error",
      "name": "MismatchedArrayLengths",
      "inputs": []
    },
    {
      "type": "error",
      "name": "NewGemInvalidQuadrant",
      "inputs": [
        {
          "name": "quadrantIndex",
          "type": "uint8",
          "internalType": "uint8"
        },
        {
          "name": "expectedValue1",
          "type": "uint8",
          "internalType": "uint8"
        },
        {
          "name": "expectedValue2",
          "type": "uint8",
          "internalType": "uint8"
        }
      ]
    },
    {
      "type": "error",
      "name": "NoMiningTryLeft",
      "inputs": []
    },
    {
      "type": "error",
      "name": "NotGemOwner",
      "inputs": []
    },
    {
      "type": "error",
      "name": "NotInitializing",
      "inputs": []
    },
    {
      "type": "error",
      "name": "NotMining",
      "inputs": []
    },
    {
      "type": "error",
      "name": "OwnableInvalidOwner",
      "inputs": [
        {
          "name": "owner",
          "type": "address",
          "internalType": "address"
        }
      ]
    },
    {
      "type": "error",
      "name": "OwnableUnauthorizedAccount",
      "inputs": [
        {
          "name": "account",
          "type": "address",
          "internalType": "address"
        }
      ]
    },
    {
      "type": "error",
      "name": "ReentrancyGuardReentrantCall",
      "inputs": []
    },
    {
      "type": "error",
      "name": "RequestNotMade",
      "inputs": []
    },
    {
      "type": "error",
      "name": "SameSenderAndRecipient",
      "inputs": []
    },
    {
      "type": "error",
      "name": "SumOfQuadrantsTooHigh",
      "inputs": [
        {
          "name": "sum",
          "type": "uint8",
          "internalType": "uint8"
        },
        {
          "name": "rarity",
          "type": "string",
          "internalType": "string"
        }
      ]
    },
    {
      "type": "error",
      "name": "TransferFailed",
      "inputs": []
    },
    {
      "type": "error",
      "name": "URIQueryForNonexistentToken",
      "inputs": [
        {
          "name": "tokenId",
          "type": "uint256",
          "internalType": "uint256"
        }
      ]
    },
    {
      "type": "error",
      "name": "UnauthorizedCaller",
      "inputs": [
        {
          "name": "caller",
          "type": "address",
          "internalType": "address"
        }
      ]
    },
    {
      "type": "error",
      "name": "WrongRarity",
      "inputs": []
    }
  ],
  "bytecode": {
    "object": "0x608060405234601f57600e6024565b60405161680e610060823961680e90f35b600080fd5b602a6051565b565b6036603660369290565b90565b60366001602c565b9060366036604d92602c565b9055565b602a60596039565b601e604156fe6080604052600436101561001257600080fd5b60003560e01c806301ffc9a7146105ad578063044bc779146105a857806304e9fd7e146105a357806306fdde031461059e578063081812fc14610599578063093ba92b14610594578063095ea7b31461058f5780630a8ce2101461058a5780630b513d99146105855780630ff1ac6714610580578063162094c41461057b578063166b35c91461057657806318160ddd146105715780631aac071d1461056c5780631c8802541461056757806323b872dd14610562578063276a28a31461055d57806333d5efdb1461055857806333d608f114610553578063356edf741461054e5780633d007e57146105495780633ec7af4a146105445780633f4ba83a1461053f5780633fad18341461053a57806342842e0e146105355780634cbe4360146105305780634d723a751461052b57806350d2a27614610526578063550d01a3146105215780635c975abb1461051c5780635f2d00231461051757806361f7f6d7146105125780636352211e1461050d57806363a8fd8914610508578063676f79f1146105035780636805b84b146104fe578063694eaa40146104f95780636ae638d0146104f45780636c106fea146104ef57806370a0823114610472578063715018a6146104ea57806372820dbc146104e557806377207e37146104e05780637866369b146104db5780638456cb59146104d65780638462151c146104d1578063864ccaac146104cc5780638d41fe30146104c75780638da5cb5b146104c25780638e80a165146104bd57806394ca6449146104b857806395d89b41146104b357806397125c40146104ae578063975781b7146104a957806397d88628146104a45780639aa19da71461049f5780639d3415f61461049a578063a168fa8914610495578063a1770a7d14610490578063a20fa9e91461048b578063a22cb46514610486578063aa723bb714610481578063aae31df31461047c578063ac33a27314610477578063b4f6eae414610472578063b88d4fde1461046d578063b911135f14610468578063bad39efd14610463578063c0c2fd991461045e578063c138907214610459578063c28fb6b714610454578063c61a46c51461044f578063c68a53851461044a578063c87b56dd14610445578063cc98ef9614610440578063cec21acb1461043b578063e002460414610436578063e0dd8f1b14610431578063e316dc131461042c578063e985e9c514610427578063ea2b7b4314610422578063f0f442601461041d578063f2a6094d14610418578063f2fde38b14610413578063f317d7dd1461040e578063f41c472914610409578063f8c8765e14610404578063f99a6bb5146103ff578063fb250435146103fa5763ff198a1d036105b2576120b0565b612042565b61202a565b61200e565b611fbd565b611f5c565b611eb5565b611e9a565b611e82565b611e66565b611e4a565b611e0c565b611df1565b611dd6565b611dbb565b611d93565b611d78565b611d5d565b611d42565b611d27565b611d0c565b611ce1565b611cc6565b611cab565b611c7f565b6115d7565b611c15565b611bee565b611b64565b611a0b565b6119d4565b6119b8565b611970565b611871565b611856565b61183b565b61181c565b6117b1565b611786565b611758565b611727565b6116d1565b6116b6565b61169b565b611680565b611668565b61164d565b611622565b61160a565b6115f2565b6115bc565b6115a1565b611586565b61156b565b61154f565b6114e9565b6114c3565b61148c565b61129d565b61112f565b611108565b611094565b611022565b610fcf565b610fb6565b610f9b565b610f83565b610f68565b610f4d565b610f32565b610ef1565b610eac565b610e91565b610e78565b610e34565b610e18565b610d98565b610d69565b610d50565b610cf0565b610887565b610831565b610813565b6107a8565b61078d565b61074b565b610722565b610656565b6105f4565b600080fd5b6001600160e01b031981165b036105b257565b905035906105d7826105b7565b565b906020828203126105b2576105ed916105ca565b90565b9052565b346105b25761062261060f61060a3660046105d9565b6120ef565b6040515b91829182901515815260200190565b0390f35b60009103126105b257565b6001600160a01b031690565b6105f090610631565b6020810192916105d7919061063d565b346105b257610666366004610626565b61062261067161211b565b60405191829182610646565b60ff81166105c3565b905035906105d78261067d565b91906040838203126105b2576105ed9060206106af8286610686565b9401610686565b60005b8381106106c95750506000910152565b81810151838201526020016106b9565b6106fa61070360209361070d936106ee815190565b80835293849260200190565b958691016106b6565b601f01601f191690565b0190565b60208082526105ed929101906106d9565b346105b25761062261073e610738366004610693565b9061212e565b6040515b91829182610711565b346105b25761075b366004610626565b61062261073e61214e565b806105c3565b905035906105d782610766565b906020828203126105b2576105ed9161076c565b346105b2576106226106716107a3366004610779565b612161565b346105b2576107b8366004610626565b6106226107c3612187565b6040519182918263ffffffff909116815260200190565b6105c381610631565b905035906105d7826107da565b91906040838203126105b2576105ed90602061080c82866107e3565b940161076c565b346105b25761082c6108263660046107f0565b90612191565b604051005b346105b257610841366004610626565b61062261084c61219c565b6040519182918290815260200190565b600611156105b257565b905035906105d78261085c565b906020828203126105b2576105ed91610866565b346105b25761062261084c61089d366004610873565b6121a6565b634e487b7160e01b600052604160045260246000fd5b90601f01601f191681019081106001600160401b038211176108d957604052565b6108a2565b906105d76108eb60405190565b92836108b8565b6001600160401b0381116108d95760208091020190565b9092919261091e610919826108f2565b6108de565b93818552602080860192028301928184116105b257915b8383106109425750505050565b602080916109508486610866565b815201920191610935565b9080601f830112156105b2578160206105ed93359101610909565b6001600160401b0381116108d95760200290565b9092919261099a61091982610976565b9360208592028301928184116105b257915b8383106109b95750505050565b602080916109c78486610686565b8152019201916109ac565b9080601f830112156105b25760026105ed9261098a565b909291926109f9610919826108f2565b9381855260406020860192028301928184116105b257915b838310610a1e5750505050565b6020604091610a2d84866109d2565b815201920191610a11565b9080601f830112156105b2578160206105ed933591016109e9565b90929192610a6361091982610976565b9360208592028301928184116105b257915b838310610a825750505050565b60208091610a908486610686565b815201920191610a75565b9080601f830112156105b25760046105ed92610a53565b90929192610ac2610919826108f2565b9381855260806020860192028301928184116105b257915b838310610ae75750505050565b6020608091610af68486610a9b565b815201920191610ada565b9080601f830112156105b2578160206105ed93359101610ab2565b6001600160401b0381116108d957602090601f01601f19160190565b90826000939282370152565b90929192610b5461091982610b1c565b93818552818301116105b2576105d7916020850190610b38565b9080601f830112156105b2578160206105ed93359101610b44565b929190610b98610919826108f2565b93818552602080860192028101918383116105b25781905b838210610bbe575050505050565b81356001600160401b0381116105b257602091610bde8784938701610b6e565b815201910190610bb0565b9080601f830112156105b2578160206105ed93359101610b89565b906080828203126105b25781356001600160401b0381116105b25781610c2b91840161095b565b9260208301356001600160401b0381116105b25782610c4b918501610a38565b9260408101356001600160401b0381116105b25783610c6b918301610b01565b9260608201356001600160401b0381116105b2576105ed9201610be9565b90610ca9610ca2610c98845190565b8084529260200190565b9260200190565b9060005b818110610cba5750505090565b909192610cd7610cd06001928651815260200190565b9460200190565b929101610cad565b60208082526105ed92910190610c89565b346105b257610622610d0f610d06366004610c04565b92919091612473565b60405191829182610cdf565b9190916040818403126105b257610d32838261076c565b9260208201356001600160401b0381116105b2576105ed9201610b6e565b346105b25761082c610d63366004610d1b565b90612481565b346105b257610d79366004610626565b610622610d846124a1565b6040519182918260ff909116815260200190565b346105b257610da8366004610626565b61062261084c6124dc565b63ffffffff81166105c3565b905035906105d782610db3565b919060a0838203126105b257610de28184610dbf565b92610df08260208301610dbf565b926105ed610e018460408501610dbf565b936080610e118260608701610dbf565b9401610dbf565b346105b25761082c610e2b366004610dcc565b9392909261274e565b346105b257610e44366004610626565b6106226107c361275b565b90916060828403126105b2576105ed610e6884846107e3565b93604061080c82602087016107e3565b346105b25761082c610e8b366004610e4f565b91612848565b346105b25761062261060f610ea7366004610779565b612853565b346105b257610ebc366004610626565b6106226107c3612881565b610ed46105ed6105ed9290565b63ffffffff1690565b6105ed62033450610ec7565b6105ed610edd565b346105b257610f01366004610626565b6106226107c3610ee9565b6105ed916008021c5b60ff1690565b906105ed9154610f0c565b6105ed60006006610f1b565b346105b257610f42366004610626565b610622610d84610f26565b346105b257610f5d366004610626565b61062261067161288b565b346105b257610f78366004610626565b610622610d84612895565b346105b257610f93366004610626565b61082c61293a565b346105b257610fab366004610626565b61062261084c612942565b346105b25761082c610fc9366004610e4f565b9161296b565b346105b257610fdf366004610626565b61062261084c61298c565b8015156105c3565b905035906105d782610fea565b91906040838203126105b2576105ed90602061101b828661076c565b9401610ff2565b346105b25761082c611035366004610fff565b90612a73565b6001600160e01b03191690565b906110529061103b565b600052602052604060002090565b6105ed916008021c6001600160a01b031690565b906105ed9154611060565b600061108f6105ed926003611048565b611074565b346105b2576106226106716110aa3660046105d9565b61107f565b906020828203126105b2576105ed916107e3565b6105ed90610631906001600160a01b031682565b6105ed906110c3565b6105ed906110d7565b90611052906110e0565b60006111036105ed9260026110e9565b610f1b565b346105b25761062261060f61111e3660046110af565b6110f3565b6105ed6000600f610f1b565b346105b25761113f366004610626565b61062261060f611123565b610f156105ed6105ed9260ff1690565b906110529061114a565b634e487b7160e01b600052600060045260246000fd5b634e487b7160e01b600052602260045260246000fd5b90600160028304921680156111b0575b60208310146111ab57565b61117a565b91607f16916111a0565b805460009392916111d76111cd83611190565b8085529360200190565b916001811690811561122957506001146111f057505050565b6112039192939450600052602060002090565b916000925b8184106112155750500190565b805484840152602090930192600101611208565b92949550505060ff1916825215156020020190565b906105ed916111ba565b906105d76112629261125960405190565b9384809261123e565b03836108b8565b9060001061127a576105ed90611248565b611164565b6112986105ed92611293600093600561115a565b61115a565b611269565b346105b25761062261073e6112b3366004610693565b9061127f565b634e487b7160e01b600052603260045260246000fd5b80548210156112f2576112e9600891600052602060002090565b91020190600090565b6112b9565b6105ed9081565b6105ed90546112f7565b6105ed90610f15565b6105ed9054611308565b6105ed9060081c610ed4565b6105ed905461131b565b6105ed9060281c610f15565b6105ed9054611331565b6105ed9060301c610f15565b6105ed9054611347565b600490611368825490565b8110156105b257611378916112cf565b50611382816112fe565b9161138f600183016112fe565b9161139c600282016112fe565b916113a9600383016112fe565b916113b660048201611311565b916113c360048301611327565b916113d06004820161133d565b916105ed60076113e260048501611353565b9301611248565b634e487b7160e01b600052602160045260246000fd5b6006111561140957565b6113e9565b906105d7826113ff565b6105ed9061140e565b6105f090611418565b969492909795939161012088019860008901611444919052565b6020880152604087015260608601526080850161146091611421565b63ffffffff1660a084015260ff1660c0830152151560e08201528082039061010001526105ed916106d9565b346105b2576106226114a76114a2366004610779565b61135d565b956114ba99979995919594929460405190565b998a998a61142a565b346105b2576106226106716114d9366004610779565b612a7d565b6105ed600080610f1b565b346105b2576114f9366004610626565b61062261060f6114de565b6105ed6105ed6105ed9290565b9061105290611504565b6105ed916008021c81565b906105ed915461151b565b61154a6105ed92611545600093600c6110e9565b611511565b611526565b346105b25761062261084c6115653660046107f0565b90611531565b346105b25761157b366004610626565b61062261060f612a86565b346105b257611596366004610626565b610622610671612a90565b346105b2576115b1366004610626565b610622610671612a9a565b346105b2576115cc366004610626565b610622610d84612aba565b346105b25761062261084c6115ed3660046110af565b612ac4565b346105b257611602366004610626565b61082c612b18565b346105b25761082c61161d3660046110af565b612b62565b346105b257611632366004610626565b6106226107c3612b6b565b60006111036105ed92600d611511565b346105b25761062261060f611663366004610779565b61163d565b346105b257611678366004610626565b61082c612bc7565b346105b257610622610d0f6116963660046110af565b612bde565b346105b2576116ab366004610626565b6106226107c3612cc2565b346105b2576116c6366004610626565b610622610d84612ce2565b346105b2576116e1366004610626565b610622610671612cec565b90916060828403126105b25781356001600160401b0381116105b257611717846105ed928501610b6e565b9360406106af8260208701610686565b346105b25761082c61173a3660046116ec565b91613127565b9081526040602082018190526105ed92910190610c89565b346105b25761177061176b366004610873565b613132565b9061062261177d60405190565b92839283611740565b346105b257611796366004610626565b61062261073e61325e565b600061108f6105ed926008611511565b346105b2576106226106716117c7366004610779565b6117a1565b90610100828203126105b2576117e28183610866565b926117f082602085016109d2565b926117fe8360608301610a9b565b9260e08201356001600160401b0381116105b2576105ed9201610b6e565b346105b25761062261084c6118323660046117cc565b92919091614263565b346105b25761184b366004610626565b61062261084c614271565b346105b257611866366004610626565b61062261060f61427b565b346105b257611881366004610626565b61062261084c6142ea565b6105ed90610631565b6105ed905461188c565b6105ed9060a01c610f15565b6105ed905461189f565b6105ed9060a81c610f15565b6105ed90546118b5565b6118d690600e611511565b906118e0826112fe565b916118ed600182016112fe565b916118fa600283016112fe565b9161190760038201611895565b916105ed60036119188185016118ab565b93016118c1565b919461195f6119689298979561195560a09661194e6105d79a61194760c08a019e60008b0152565b6020890152565b6040870152565b606085019061063d565b15156080830152565b019015159052565b346105b25761062261198b611986366004610779565b6118cb565b9261199b96949692919260405190565b9687968761191f565b6111036105ed92611545600093600b6110e9565b346105b25761062261060f6119ce3660046107f0565b906119a4565b346105b2576119e4366004610626565b61062261084c6142f4565b91906040838203126105b2576105ed90602061101b82866107e3565b346105b25761082c611a1e3660046119ef565b906142fe565b611a34611a3060049390565b9190565b6000915b838310611a455750505050565b611a5b610ca2600192845160ff16815260200190565b92019190611a38565b611a70611a3060029390565b6000915b838310611a815750505050565b611a97610ca2600192845160ff16815260200190565b92019190611a74565b805182526105ed916101e081019161014090611ac160208201516020850152565b611ad060408201516040850152565b611adf60608201516060850152565b611af160808201516080850190611421565b60a08181015163ffffffff169084015260c08181015160ff169084015260e081810151151590840152611b2e610100820151610100850190611a24565b611b42610120820151610180850190611a64565b0151906101c08184039101526106d9565b60208082526105ed92910190611aa0565b346105b257610622611b7f611b7a366004610779565b6145b1565b60405191829182611b53565b805182526105d7919060a0908190611ba860208201516020860152565b611bb760408201516040860152565b611bc96060820151606086019061063d565b60808181015115159085015201511515910152565b60c0810192916105d79190611b8b565b346105b257610622611c09611c04366004610779565b614736565b60405191829182611bde565b346105b257611c25366004610626565b610622610d0f6147d7565b906080828203126105b257611c4581836107e3565b92611c5382602085016107e3565b92611c61836040830161076c565b9260608201356001600160401b0381116105b2576105ed9201610b6e565b346105b25761082c611c92366004611c30565b9291909161486a565b600061108f6105ed926001611511565b346105b257610622610671611cc1366004610779565b611c9b565b346105b257611cd6366004610626565b6106226107c3614876565b346105b257611cf1366004610626565b61062261084c614880565b600061154a6105ed92600a6110e9565b346105b25761062261084c611d223660046110af565b611cfc565b346105b257611d37366004610626565b610622610d0f61488a565b346105b257611d52366004610626565b610622610d84614897565b346105b257611d6d366004610626565b6106226107c36148a1565b346105b25761062261073e611d8e366004610779565b6148ab565b346105b25761082c611da63660046110af565b614902565b600061154a6105ed9260096110e9565b346105b25761062261084c611dd13660046110af565b611dab565b346105b257611de6366004610626565b61062261067161490b565b346105b257611e01366004610626565b6106226107c3614915565b346105b257611e1c366004610626565b61062261084c61491f565b91906040838203126105b2576105ed906020611e4382866107e3565b94016107e3565b346105b25761062261060f611e60366004611e27565b90614929565b346105b25761082c611e79366004610dcc565b93929092614aa1565b346105b25761082c611e953660046110af565b614ac5565b346105b257611eaa366004610626565b6106226107c3614ace565b346105b25761082c611ec83660046110af565b614b32565b91906040838203126105b2576105ed90602061080c828661076c565b80548210156112f2576112e9600191600052602060002090565b90919060028310156112f2576020611f1a60019290565b8185040193060290565b600790611f2f825490565b8110156105b257611f3f91611ee9565b5060028210156105b2576105ed91611f5691611f03565b90610f1b565b346105b257610622610d84611f72366004611ecd565b90611f24565b919060a0838203126105b257611f8e8184610686565b92611f9c8260208301610686565b926105ed611fad8460408501610686565b9360806106af8260608701610686565b346105b25761082c611fd0366004611f78565b93929092614cc7565b6080818303126105b257611fed82826107e3565b926105ed611ffe84602085016107e3565b936060611e4382604087016107e3565b346105b25761082c612021366004611fd9565b92919091614f46565b346105b25761082c61203d366004610779565b615136565b346105b257612052366004610626565b6106226107c361513f565b909160c0828403126105b257612073838361076c565b92612081816020850161076c565b9261208f826040830161076c565b926105ed6120a0846060850161076c565b9360a061080c826080870161076c565b346105b25761082c6120c336600461205d565b9493909392919261522e565b61103b6120dc6105ed9290565b60e01b90565b6105ed63490649066120cf565b6120fa61103b6120e2565b6001600160e01b0319821614908115612111575090565b6105ed915061523c565b6105ed6019611895565b6105ed90611248565b6105ed9161129361214992612141606090565b50600561115a565b612125565b6105ed600061215b615287565b01612125565b6105ed9061216e816152ab565b506152fb565b6105ed90610ed4565b6105ed9054612174565b6105ed601061217d565b6105d791339161531b565b6105ed60126112fe565b6121b0600061140e565b6121b98261140e565b036121c957506105ed60116112fe565b6121d3600161140e565b6121dc8261140e565b036121ec57506105ed60126112fe565b6121f6600261140e565b6121ff8261140e565b0361220f57506105ed60136112fe565b612219600361140e565b6122228261140e565b0361223257506105ed60146112fe565b61223c600461140e565b6122458261140e565b0361225557506105ed60156112fe565b612268612262600561140e565b9161140e565b03612277576105ed60166112fe565b60405162461bcd60e51b815260206004820152600c60248201526b77726f6e672072617269747960a01b6044820152606490fd5b0390fd5b939291906122c56122c0601b611895565b610631565b6122ce33610631565b036122dc576105ed946122f7565b60405163d86ad9cf60e01b8152806122ab3360048301610646565b93929190612305600f611311565b612312576105ed94612382565b60405163ab35696f60e01b8152600490fd5b90612331610919836108f2565b918252565b369037565b906105d761235161234b84612324565b936108f2565b601f190160208401612336565b90612367825190565b8110156112f2576020809102010190565b6105ed905161140e565b5080519093919290936123966105ed855190565b851415801561245f575b801561244b575b612439576123bb6123b6825190565b61233b565b956123c66000611504565b865b81101561243057612429816124236124166123ee6123e96123c8968961235e565b612378565b6123f8848c61235e565b51612403858b61235e565b519061240f868d61235e565b5192614263565b612420838d61235e565b52565b60010190565b90506123c6565b50945050505050565b604051632b477e7160e11b8152600490fd5b506124576105ed845190565b8514156123a7565b5061246b6105ed835190565b8514156123a0565b6105ed9392919060606122af565b906105d791615328565b6105ed9060201c610f15565b6105ed905461248b565b6105ed600f612497565b634e487b7160e01b600052601160045260246000fd5b91906124cc565b9290565b82039182116124d757565b6124ab565b6105ed6124e860045490565b6124f26001611504565b906124c1565b906105d79493929161250861534c565b6126a8565b9063ffffffff60d01b9060d01b5b9181191691161790565b610ed46105ed6105ed9263ffffffff1690565b906125486105ed61254f92612525565b825461250d565b9055565b9063ffffffff9061251b565b9061256f6105ed61254f92612525565b8254612553565b9063ffffffff60201b9060201b61251b565b906125986105ed61254f92612525565b8254612576565b9063ffffffff60401b9060401b61251b565b906125c16105ed61254f92612525565b825461259f565b9063ffffffff60601b9060601b61251b565b906125ea6105ed61254f92612525565b82546125c8565b6105ed9060d01c610ed4565b6105ed90546125f1565b6105ed9060201c610ed4565b6105ed9054612607565b6105ed9060401c610ed4565b6105ed905461261d565b6105ed9060601c610ed4565b6105ed9054612633565b909594926105d79461268f61269c9261268260809661267560a088019c600089019063ffffffff169052565b63ffffffff166020870152565b63ffffffff166040850152565b63ffffffff166060830152565b019063ffffffff169052565b6126d8926126ca6126df9695936126c36126d194600f612538565b601061255f565b6010612588565b60106125b1565b60106125da565b7f3b286e7240533ee960e022a65587f2b49f2264d9390fe4d81a57a23f1054d8b961270a600f6125fd565b612714601061217d565b906127496127226010612613565b61272c6010612629565b612736601061263f565b9161274060405190565b95869586612649565b0390a1565b906105d7949392916124f8565b6105ed600f6125fd565b9190612771600f611311565b612312576105d7926127ac565b6040906127a86105d7949695939661279e6060840198600085019061063d565b602083019061063d565b0152565b6127b581610631565b6127be83610631565b14612836576127d960046127d285826112cf565b5001611353565b612824576127498361280d7f85d07a7616aea29f5d972fd9100b991c224490bd49b737377d908f66f34d9afd95858561539a565b612818818585615444565b6040519384938461277e565b604051635399ebf560e01b8152600490fd5b604051636879d8a360e01b8152600490fd5b906105d79291612765565b60046127d26105ed92612864600090565b50826112cf565b6105ed9060701c610ed4565b6105ed905461286b565b6105ed600f612877565b6105ed601d611895565b6105ed600f61133d565b6128a761534c565b6105d76128bb6128b7600f611311565b1590565b6128c7576105d76128f9565b60405163dcdde9dd60e01b8152600490fd5b9060ff9061251b565b906128f26105ed61254f92151590565b82546128d9565b6129056000600f6128e2565b7f5db9ee0a495bf2e6ff9c91a7834c1ba4fdd244a5e8aa4e537bd38aeae4b073aa61292f60405190565b806127493382610646565b6105d761289f565b6105ed60186112fe565b9061233161091983610b1c565b6105ed600061294c565b6105ed612959565b90916105d792612979612963565b9261486a565b919082018092116124d757565b600090600461299a60045490565b916129a56000611504565b935b835b8510156129e5576129dd6129d66129a9926129d060016129c98a896112cf565b50016112fe565b9061297f565b9560010190565b9490506129a7565b9350915050565b906129fa6122c0601d611895565b612a0333610631565b141580612a18575b6122dc576105d791612a5c565b50612a266122c0601c611895565b612a2f33610631565b1415612a0b565b9060ff60301b9060301b61251b565b90612a556105ed61254f92151590565b8254612a36565b906004612a6c6105d793826112cf565b5001612a45565b906105d7916129ec565b6105ed906152ab565b6105ed600f611311565b6105ed601c611895565b6105ed601a611895565b6105ed9060081c610f15565b6105ed9054612aa4565b6105ed600f612ab0565b612adb6105ed91612ad3600090565b5060096110e9565b6112fe565b612ae861534c565b6105d7612b06565b6106316105ed6105ed9290565b6105ed90612af0565b6105d7612b136000612afd565b6154d5565b6105d7612ae0565b6105d790612b2c61534c565b612b57565b906001600160a01b039061251b565b90612b506105ed61254f926110e0565b8254612b31565b6105d790601d612b40565b6105d790612b20565b6105ed6010612629565b612b7d61534c565b6105d7612b8a600f611311565b612312576105d7612b9d6001600f6128e2565b7f62e78cea01bee320cd4e420270b5ea74000d11b0c9f74754ebdbfc544b05a25861292f60405190565b6105d7612b75565b60001981146124d75760010190565b612be781612ac4565b600090612bf382611504565b8103612c0857506105ed91506123b690611504565b612c119061233b565b91612c1a6124dc565b90612c2483611504565b925060019182612c346001611504565b905b612c43575b505050505090565b818111612ca757612c5d612c58826008611511565b611895565b612c6f612c6985610631565b91610631565b14612c84575b612c7e90612bcf565b83612c36565b93612c9f81612c9a87612420612c7e958b61235e565b612bcf565b949050612c75565b612c3b565b6105ed9060301c610ed4565b6105ed9054612cac565b6105ed600f612cb8565b6105ed9060181c610f15565b6105ed9054612ccc565b6105ed600f612cd8565b6105ed6000612cf9615532565b01611895565b906105d79291612d0d61534c565b61307d565b9160001960089290920291821b911b61251b565b921b90565b9190612d3c6105ed61254f93611504565b908354612d12565b6105d791600091612d2b565b818110612d5b575050565b80612d696000600193612d44565b01612d50565b9190601f8111612d7e57505050565b612d906105d793600052602060002090565b906020601f840181900483019310612db3575b6020601f909101045b0190612d50565b9091508190612da3565b9060001960089091021c191690565b81612dd691612dbd565b906002021790565b90612de7815190565b906001600160401b0382116108d957612e0a82612e048554611190565b85612d6f565b602090601f8311600114612e385761254f929160009183612e2d575b5050612dcc565b015190503880612e26565b601f19831691612e4d85600052602060002090565b9260005b818110612e8c57509160029391856001969410612e72575b50505002019055565b612e82910151601f841690612dbd565b9055388080612e69565b91936020600181928787015181550195019201612e51565b906105d791612dde565b6109196105ed91610976565b90612ecd90600019906020036008021c90565b8154169055565b919091828210612ee357505050565b6105d7926020601f909101049060016020612f06601f86018290049390565b9390565b92830194060260008111612f1d575b500190612d50565b612f2a9060018503612eba565b38612f15565b90600160401b81116108d9576105d79160025b90612ed4565b9190600861251b910291612d2660ff841b90565b906002906124c8612f72916105ed8486612f30565b602082049160005b838110612fe0575060208302900360008111612f97575b50505050565b9260009360005b818110612fb357505050015538808080612f91565b9091946020612fd6600192612fcc6105ed8a5160ff1690565b9085850290612f49565b9601929101612f9e565b6000805b60208110612ff9575083820155600101612f7a565b9590602061301b6001926130116105ed865160ff1690565b908a850290612f49565b92019601612fe4565b919061127a576105d791612f5d565b80549190600160401b8310156108d957826130569160016105d795018155611ee9565b90613024565b60ff1660ff81146124d75760010190565b906128f26105ed61254f9261114a565b91906130c69161309b846130968361129386600561115a565b612ea4565b6130c16007916130b76130ae6002612eae565b60ff9095168552565b60ff166020840152565b613033565b6130e26130db6130d66006611311565b61305c565b600661306d565b7fe4d2864ec291f6f11cb3363fa1bd2a4d5ff49a2cfdf4bf7dfe3b90a26b8c776f6131226131186131136006611311565b61114a565b9261074260405190565b0390a2565b906105d79291612cff565b90600480549160009161314483611504565b9161314e8561233b565b8391845b875b81101561320c57613169612c58826008611511565b613179612c696122c0601b611895565b14806131f5575b806131cd575b61319a575b613154906001015b9050613152565b94926131936131c46129d6613154936124236131ba8c6129c98d8d6112cf565b612420838a61235e565b9691505061318b565b506131e3856131dc83826112cf565b5001611311565b6131ef6122628b61140e565b14613186565b506132076128b7866127d284826112cf565b613180565b5093955093955050506132276132218461233b565b94611504565b838110156132565780612423613247613243613251948761235e565b5190565b612420838961235e565b613227565b509190509190565b6105ed600161215b615287565b9392919061327c6122c0601b611895565b61328533610631565b036122dc576105ed949392919061329c600f611311565b612312576105ed9461347e565b9060025b8110156112f2576020020190565b9060046132ad565b6132d29060ff165b9160ff1690565b019060ff82116124d757565b610f156105ed6105ed9290565b6105f0906132de565b60409061331e6105d79496959396613314606084019860008501906132eb565b60208301906132eb565b01906132eb565b6105ed9060b01c610ed4565b6105ed9054613325565b6105ed9060901c610ed4565b6105ed905461333b565b6105ed9060501c610ed4565b6105ed9054613351565b6105ed9060101c610f15565b6105ed9054613367565b6105ed6105ed6105ed9263ffffffff1690565b61339c611a3060029390565b6000915b8383106133ad5750505050565b6133c3610ca2600192845160ff16815260200190565b920191906133a0565b6133d8611a3060049390565b6000915b8383106133e95750505050565b6133ff610ca2600192845160ff16815260200190565b920191906133dc565b999897969492909593916101a08b019660008c0161342591611421565b60208b0161343291613390565b60ff1660608a0152608089015260a0880161344c916133cc565b63ffffffff16610120870152610140860152848103610160860152613470916106d9565b92610180016105d79161063d565b93909192935060006134a261349b61349583611504565b866132a9565b5160ff1690565b6134c66128b76001926134c061349b6134ba86611504565b8a6132a9565b90615560565b614251576134fd6134e261349b6134dc85611504565b896132bb565b6134f761349b6134f185611504565b8a6132bb565b906132c3565b906135196002926134f761349b61351386611504565b8b6132bb565b6135346003916134f761349b61352e85611504565b8c6132bb565b9261353e8561140e565b6135478861140e565b036137e85761355b61349b61351387611504565b6135676132cb856132de565b1415806137c5575b6137b65761358261349b61351385611504565b61358e6132cb856132de565b141580613793575b61376f576135a961349b61351383611504565b6135b56132cb856132de565b14158061374c575b613728576135d061349b61351384611504565b6135dc6132cb856132de565b141580613705575b6136e2575050506135f560086132de565b60ff8216101561369a5750926136946000805160206167b98339815191529361364a938661362561364198610ec7565b61366183828c8461365061363960116112fe565b9e8f986132de565b9c8d945b61337d565b4261297f565b9687928c8b336009600860046157d3565b9961366c8b336158bd565b613676848c615328565b61367f8b611504565b9961368960405190565b98899833978a613408565b0390a290565b6122ab906136a760405190565b634967af1f60e11b815260ff909116600482015260406024820152600660448201526521a7a6a6a7a760d11b60648201529081906084820190565b6122ab906136ef60405190565b6358be4af360e11b8152938493600485016132f4565b5061371561349b61351384611504565b6137216132cb836132de565b14156135e4565b826122ab61373560405190565b6358be4af360e11b815292839281600485016132f4565b5061375c61349b61351383611504565b6137686132cb836132de565b14156135bd565b826122ab61377c60405190565b6358be4af360e11b815292839280600485016132f4565b506137a361349b61351385611504565b6137af6132cb836132de565b1415613596565b846122ab84926136ef60405190565b506137d561349b61351387611504565b6137e16132cb836132de565b141561356f565b919092936137f9829897969861140e565b6138028761140e565b03613a0f5761381661349b61351383611504565b6138226132cb856132de565b1415806139ec575b6139dd575061383e61349b6134f183611504565b61384a6132cb846132de565b1415806139ba575b6139ad575061386661349b6134dc83611504565b6138726132cb836132de565b14158061398a575b61397e5761388d61349b6134dc84611504565b6138996132cb836132de565b14158061395b575b61394f5750506138b1600c6132de565b60ff8216101561390757506000805160206167b98339815191529161369461364a92856138de600f6125fd565b6138e8600f612cb8565b6136616138f560126112fe565b998a938c84613650613641600f612ab0565b6122ab9061391460405190565b634967af1f60e11b81529182916004830160ff919091168152604060208201819052600490820152635241524560e01b606082015260800190565b6122ab61373560405190565b5061396b61349b6134dc84611504565b6139776132cb846132de565b14156138a1565b6122ab61377c60405190565b5061399a61349b6134dc83611504565b6139a66132cb846132de565b141561387a565b6122ab836136ef60405190565b506139ca61349b6134f183611504565b6139d66132cb856132de565b1415613852565b90506122ab836136ef60405190565b506139fc61349b61351383611504565b613a086132cb866132de565b141561382a565b613a188361140e565b613a218761140e565b03613c6c57613a3561349b61351383611504565b613a416132cb866132de565b141580613c48575b613c385750613a5d61349b6134f183611504565b613a696132cb856132de565b141580613c14575b613c045750613a8561349b6134dc83611504565b613a916132cb846132de565b141580613be0575b613bbd5750613ab361349b613aad83611504565b886132bb565b613abf6132cb836132de565b141580613b99575b613b745750613ad660106132de565b60ff82161015613b2c57506000805160206167b98339815191529161369461364a9285613b03601061217d565b613b0d600f61335d565b613661613b1a60136112fe565b998a938c84613650613641600f613373565b6122ab90613b3960405190565b634967af1f60e11b815260ff9091166004820152604060248201526006604482015265554e4951554560d01b60648201529081906084820190565b6004906122ab613b8360405190565b6358be4af360e11b8152928392808285016132f4565b50613ba961349b613aad83611504565b613bb66132cb60046132de565b1415613ac7565b6122ab6004613bcb60405190565b6358be4af360e11b81529384938285016132f4565b50613bf061349b6134dc83611504565b613bfd6132cb60046132de565b1415613a99565b90506122ab6004613bcb60405190565b50613c2461349b6134f183611504565b613c316132cb60046132de565b1415613a71565b83906122ab6004613bcb60405190565b50613c5861349b61351383611504565b613c656132cb60046132de565b1415613a49565b929190613c788361140e565b613c818761140e565b03613eb357613c9561349b61351386611504565b93600494613ca56132cb876132de565b141580613e8f575b613e7f5750613cc161349b61351383611504565b613ccd6132cb866132de565b141580613e5b575b613e4b5750613ce961349b6134f183611504565b613cf56132cb856132de565b141580613e27575b613e175750613d1161349b6134dc83611504565b613d1d6132cb846132de565b141580613df3575b613dd05750613d3460146132de565b60ff83161015613d8b5750506000805160206167b98339815191529161369461364a9285613d626010612613565b613d6c600f612877565b613661613d7960146112fe565b998a938c84613650613641600f612cd8565b6122ab613d9760405190565b634967af1f60e11b8152928392830160ff919091168152604060208201819052600490820152634550494360e01b606082015260800190565b6122ab6005613dde60405190565b6358be4af360e11b81529384938185016132f4565b50613e0361349b6134dc83611504565b613e106132cb60056132de565b1415613d25565b90506122ab6005613dde60405190565b50613e3761349b6134f183611504565b613e446132cb60056132de565b1415613cfd565b83906122ab6005613dde60405190565b50613e6b61349b61351383611504565b613e786132cb60056132de565b1415613cd5565b84906122ab6005613dde60405190565b50613e9f61349b61352e83611504565b613eac6132cb60056132de565b1415613cad565b9290600493613ec18561140e565b613eca8861140e565b0361410957613ede61349b61352e85611504565b92600593613eee6132cb866132de565b1415806140df575b6140cf5750613f0a61349b61352e83611504565b613f166132cb856132de565b1415806140ab575b61409b5750613f3261349b61351383611504565b613f3e6132cb846132de565b141580614077575b6140675750613f5a61349b6134f184611504565b613f666132cb836132de565b141580614043575b61401f575050613f7e60186132de565b60ff83161015613fd55750506000805160206167b98339815191529161369461364a9285613fac6010612629565b613fb6600f613347565b613661613fc360156112fe565b998a938c84613650613641600f612497565b6122ab613fe160405190565b634967af1f60e11b8152928392830160ff919091168152604060208201819052600990820152684c4547454e4441525960b81b606082015260800190565b6122ab6006849261402f60405190565b6358be4af360e11b815294859485016132f4565b5061405361349b6134f184611504565b6140606132cb60066132de565b1415613f6e565b836122ab60068461402f60405190565b5061408761349b61351383611504565b6140946132cb60066132de565b1415613f46565b846122ab60068561402f60405190565b506140bb61349b61352e83611504565b6140c86132cb60066132de565b1415613f1e565b856122ab60068661402f60405190565b506140f561349b6140ef83611504565b8d6132bb565b6141026132cb60066132de565b1415613ef6565b91945091614117600561140e565b6141208761140e565b036142325761413461349b61351387611504565b926006936141446132cb866132de565b141592831561420b575b5082156141e4575b5081156141bf575b506141b1575050506000805160206167b98339815191529161369461364a9285614188601061263f565b614192600f613331565b61366161419f60166112fe565b998a938c84613650613641600f61133d565b806122ab9161402f60405190565b6141d091506134dc61349b91611504565b6141dc6132cb836132de565b14153861415e565b6141f69192506134f161349b91611504565b6142026132cb846132de565b14159038614156565b61421d91935061351361349b91611504565b6142296132cb856132de565b1415913861414e565b6122ab8461423f60405190565b63036cae1f60e31b8152918291820190565b604051634441919d60e11b8152600490fd5b6105ed93929190600061326b565b6105ed60146112fe565b600480549061428a6000611504565b828110156142e2576142a0612c58826008611511565b6142b0612c696122c0601b611895565b14806142cb575b6142c35760010161428a565b505050600190565b506142dd6128b7836127d284826112cf565b6142b7565b505050600090565b6105ed60156112fe565b6105ed60136112fe565b6105d79190336158cf565b6105ed6101606108de565b906105d761432a61432484612eae565b93610976565b83612336565b6105ed6004614314565b6105ed6002614314565b61434c614309565b90600082526020808080808080808080808c01600081520160008152016000815201600081520160008152016000815201600081520161438a614330565b81520161439561433a565b8152016060905250565b6105ed614344565b906105f09061140e565b60206001612f916143ec936143ec84848181816143dc6143d8839d6143d4600490565b5090565b9790565b966143f381600099549d8e611308565b60ff169052565b01950194614404816143ec8c612aa4565b01930192614415816143ec8a613367565b019384920195612ccc565b9061070d816080936143b1565b906105d76112629261443e60405190565b93848092614420565b60208061445b612f026001956143d4600290565b549261446a816143ec86611308565b01612f91816143ec8660000195612aa4565b9061070d81604093614447565b906105d76112629261449a60405190565b9384809261447c565b906105d76145a060076144b4614309565b946144c56144c1826112fe565b8752565b6144db6144d4600183016112fe565b6020880152565b6144f16144ea600283016112fe565b6040880152565b614507614500600383016112fe565b6060880152565b61451f61451660048301611311565b608088016143a7565b61453b61452e60048301611327565b63ffffffff1660a0880152565b61455461454a6004830161133d565b60ff1660c0880152565b61456c61456360048301611353565b151560e0880152565b61458361457b6005830161442d565b610100880152565b61459a61459260068301614489565b610120880152565b01611248565b610140840152565b6105ed906144a3565b6145b961439f565b5060006145c66000611504565b60046145d36105ed825490565b82101561460c576145e8836129c984846112cf565b84146145f757506001016145c6565b6105ed935061460692506112cf565b506145a8565b60405162461bcd60e51b815260206004820152602d60248201527f47656d2077697468207468652073706563696669656420746f6b656e4964206460448201526c1bd95cc81b9bdd08195e1a5cdd609a1b6064820152608490fd5b6105ed60c06108de565b614679614667565b906000825260208080808080870160008152016000815201600081520160008152016000905250565b6105ed614671565b906105f090610631565b906105d761472460036146c5614667565b946146d26144c1826112fe565b6146e16144d4600183016112fe565b6146f06144ea600283016112fe565b6147076146fe838301611895565b606088016146aa565b61471e6147158383016118ab565b15156080880152565b016118c1565b151560a0840152565b6105ed906146b4565b61474d6105ed916147456146a2565b50600e611511565b61472d565b9061476d614761610c98845490565b92600052602060002090565b9060005b81811061477e5750505090565b9091926147a261479b600192614793876112fe565b815260200190565b9460010190565b929101614771565b906105ed91614752565b906105d7611262926147c560405190565b938480926147aa565b6105ed906147b4565b6105ed60176147ce565b9291906147ee600f611311565b612312576105d79390919261480282610631565b61480b84610631565b146128365761481f60046127d286826112cf565b6128245783612818612749926148577f85d07a7616aea29f5d972fd9100b991c224490bd49b737377d908f66f34d9afd97878761539a565b614862838787615444565b8286866159e8565b906105d79392916147e1565b6105ed601061263f565b6105ed60166112fe565b6105ed611696601b611895565b6105ed600f613373565b6105ed600f613347565b6148b76128b782615ae4565b6148c4576105ed90615b71565b6122ab906148d160405190565b633af8b4af60e11b81529182916004830190815260200190565b6105d7906148f761534c565b6105d790601c612b40565b6105d7906148eb565b6105ed601b611895565b6105ed600f613331565b6105ed60116112fe565b6105ed9161494d6149529261493c600090565b506005614947615287565b016110e9565b6110e9565b611311565b906105d79493929161496761534c565b614a39565b9063ffffffff60301b9060301b61251b565b9061498e6105ed61254f92612525565b825461496c565b9063ffffffff60501b9060501b61251b565b906149b76105ed61254f92612525565b8254614995565b9063ffffffff60701b9060701b61251b565b906149e06105ed61254f92612525565b82546149be565b9063ffffffff60901b9060901b61251b565b90614a096105ed61254f92612525565b82546149e7565b9063ffffffff60b01b9060b01b61251b565b90614a326105ed61254f92612525565b8254614a10565b919361274991937f12db92c8c4542eebc521c0180f8ce8d4c77dad4fcfb9f9f9c1c8b31e0b9cd81195614a6d85600f61497e565b614a7886600f6149a7565b614a8381600f6149d0565b614a8e82600f6149f9565b614a9983600f614a22565b604051612740565b906105d794939291614957565b6105d790614aba61534c565b6105d790601b612b40565b6105d790614aae565b6105ed6010612613565b6105d790614ae461534c565b614aee6000612afd565b614af781610631565b614b0083610631565b14614b0f57506105d7906154d5565b6122ab90614b1c60405190565b631e4fbdf760e01b815291829160048301610646565b6105d790614ad8565b906105d794939291614b4b61534c565b614c5b565b9061ff009060081b61251b565b90614b6d6105ed61254f9261114a565b8254614b50565b9062ff00009060101b61251b565b90614b926105ed61254f9261114a565b8254614b74565b9063ff0000009060181b61251b565b90614bb86105ed61254f9261114a565b8254614b99565b9060ff60201b9060201b61251b565b90614bde6105ed61254f9261114a565b8254614bbf565b9060ff60281b9060281b61251b565b90614c046105ed61254f9261114a565b8254614be5565b909594926105d794614c48614c5292614c3e608096614c3460a088019c600089019060ff169052565b60ff166020870152565b60ff166040850152565b60ff166060830152565b019060ff169052565b919361274991937f06b36b7c2517dbb6d0fec68beba3c915efebf56980628b2181e3fcd96920910e95614c8f85600f614b5d565b614c9a86600f614b82565b614ca581600f614ba8565b614cb082600f614bce565b614cbb83600f614bf4565b60405195869586614c0b565b906105d794939291614b3b565b6105ed9060401c610f15565b6105ed9054614cd4565b6105ed905b6001600160401b031690565b6105ed9054614cea565b614cef6105ed6105ed9290565b906001600160401b039061251b565b614cef6105ed6105ed926001600160401b031690565b90614d476105ed61254f92614d21565b8254614d12565b9060ff60401b9060401b61251b565b90614d6d6105ed61254f92151590565b8254614d4e565b6105f090614d05565b6020810192916105d79190614d74565b92919091614d99615bdd565b938491614db1614dab6128b785614ce0565b93614cfb565b93600095614dbe87614d05565b6001600160401b0387161480614eb6575b600196614deb614dde89614d05565b916001600160401b031690565b149081614e92575b155b9081614e89575b50614e7757614e259385614e1c89614e138a614d05565b9b019a8b614d37565b614e6857614f03565b614e2e57505050565b614e5c612749927fc7f505b2f371ae2175ee4913f4499e1f2633a7b5936321eed1cdaeb6115181d294614d5d565b60405191829182614d7d565b614e72878a614d5d565b614f03565b60405163f92ee8a960e01b8152600490fd5b15905038614dfc565b9050614df5614ea0306110e0565b3b614ead611a308b611504565b14919050614df3565b5084614dcf565b614ec7600761294c565b6623b2b6a9aa27a760c91b602082015290565b6105ed614ebd565b614eec600361294c565b6247454d60e81b602082015290565b6105ed614ee2565b91614f38614f3f92614f316105d79695614f2c614f1e614eda565b614f26614efb565b90615c18565b615c37565b6019612b40565b601a612b40565b601b612b40565b906105d7939291614d8d565b614f5c600f611311565b612312576105d790614fc9565b905051906105d782610fea565b906020828203126105b2576105ed91614f69565b9160206105d79294936127a86040820196600083019061063d565b6040513d6000823e3d90fd5b9081526040810192916105d7916020905b019061063d565b614fd66122c06000612afd565b614fdf33610631565b1461512457614ff2612c58826008611511565b614ffe612c6933610631565b036151125760046000602061506d61501b60016129c987876112cf565b61502a86336009600889615eae565b61503386615ed8565b615048615043615043601b611895565b6110e0565b9061505260405190565b9485938492839190630169dc3160e01b8352338a8401614f8a565b03925af1801561510d57615087916000916150e457501590565b6150c557506127497f65aff8e0552d208dfaf55b1280e55553b7dba628290897ff43c8f086d5dbfd2a916150ba60405190565b918291339083614fb1565b6122ab906150d260405190565b6312171d8360e31b8152918291820190565b6128b7915060203d602011615106575b6150fe81836108b8565b810190614f76565b503d6150f4565b614fa5565b6040516302b327b560e41b8152600490fd5b604051639fabe1c160e01b8152600490fd5b6105d790614f52565b6105ed600f61335d565b906105d7959493929161515a61534c565b6151b6565b906000199061251b565b906151796105ed61254f92611504565b825461515f565b91946151af6127a8929897956151a860a09661194e6105d79a61194760c08a019e60008b0152565b6060850152565b6080830152565b92937f6474c0fa1cc494f92527db3b4306654db98a8ff14de99d615b7e445e0266ef43959194612749936151eb866011615169565b6151f6876012615169565b615201816013615169565b61520c826014615169565b615217836015615169565b615222846016615169565b60405196879687615180565b906105d79594939291615149565b6380ac58cd60e01b6001600160e01b031982161490811561526c575b8115615262575090565b6105ed9150615f01565b6001600160e01b03198116635b5e139f60e01b149150615258565b7f80bb2b638cc20bc4d0a60d66940f3ab4a00c1d7b313497ca82fb0b4ab007930090565b6152b481615f15565b906152c26122c06000612afd565b6152cb83610631565b146152d4575090565b6122ab906152e160405190565b637e27328960e01b81529182916004830190815260200190565b612c586105ed9161530a600090565b506004615315615287565b01611511565b916001916105d793615f2f565b906153356122c083612a7d565b61533e33610631565b03615112576105d79161606a565b615354612cec565b3390615362612c6983610631565b0361536a5750565b6122ab9061537760405190565b63118cdaa760e01b815291829160048301610646565b80156124d7576000190190565b61540561540c926154006105d7956153d9600460026153d2846153cc61364a6153c7866131dc85826112cf565b6160a1565b936112cf565b5001615169565b6153f96153e78460096110e9565b6153f3612c9a826112fe565b90615169565b6008611511565b612b40565b60096110e9565b6153f3615418826112fe565b61538d565b604090614fc26105d7949695939661543d6060840198600085019061063d565b6020830152565b9061544f6000612afd565b61545881610631565b61546183610631565b146154b25750615473908333916161b1565b61547c82610631565b61548582610631565b0361548f57505050565b6122ab9061549c60405190565b6364283d7b60e01b81529384936004850161541d565b6122ab906154bf60405190565b633250574960e11b815291829160048301610646565b6154ff6154f960006154e5615532565b01615043846154f383611895565b92612b40565b916110e0565b907f8be0079c531659141344cd1fd0a4f28419497f9722a3daafe3b4186f6b6457e061552a60405190565b80805b0390a3565b7f9016d09d72d40fdae2fd8ceac6b6234c7706214fd39c1cd1e609a0528c19930090565b6105ed9054611190565b6105ed61557b9261129361557693612141600090565b615556565b615588611a306000611504565b1190565b906128f26105ed61254f92611418565b9064ffffffff009060081b61251b565b906155bc6105ed61254f92612525565b825461559c565b90600160401b81116108d9576105d7916004612f43565b906004906124c86155ef916105ed84866155c3565b602082049160005b8381106156525750602083029003600081116156135750505050565b9260009360005b81811061562f57505050015538808080612f91565b9091946020615648600192612fcc6105ed8a5160ff1690565b960192910161561a565b6000805b6020811061566b5750838201556001016155f7565b959060206156836001926130116105ed865160ff1690565b92019601615656565b906105d7916155da565b906105d791612f5d565b60076157946101406105d7946156c06156ba600083015190565b86615169565b6156d76156ce602083015190565b60018701615169565b6156ee6156e5604083015190565b60028701615169565b6157056156fc606083015190565b60038701615169565b61575f6004860161572161571b60808501612378565b8261558c565b61573b61573560a085015163ffffffff1690565b826155ac565b61575261574c60c085015160ff1690565b82614bf4565b60e0830151151590612a45565b61577761576e61010083015190565b6005870161568c565b61578f61578661012083015190565b60068701615696565b015190565b9101612ea4565b919061127a576105d7916156a0565b80549190600160401b8310156108d957826157cd9160016105d7950181556112cf565b9061579b565b95919990969492989a939789986157e8600090565b506000809d6157f5614309565b986157ff83611504565b928a0183905260208a01526040890152606088015261582190608088016143a7565b63ffffffff1660a086015260ff1660c085015289151560e085015261010084015261012083015261014082015261585890826157aa565b80546158646001611504565b61586d916124c1565b809661587a8280946112cf565b50019061588691615169565b61588f91611511565b9061589991612b40565b6158a2916110e9565b6158ab816112fe565b6158b490612bcf565b6105ed91615169565b6105d7916158c9612963565b916162ee565b6158d7615287565b6158e46122c06000612afd565b6158ed84610631565b146159475761593d61593783615043876159328861494d7f17307eab39ab6107e8899845ad3d59bd9653f200f220920489ca2b5937696c3199600561552d9a016110e9565b6128e2565b936110e0565b9361061360405190565b6122ab8361595460405190565b630b61174360e31b815291829160048301610646565b905051906105d7826105b7565b906020828203126105b2576105ed9161596a565b90926159bc906159b56105ed96946159ab6080860197600087019061063d565b602085019061063d565b6040830152565b60608184039101526106d9565b3d156159e3576159d83d61294c565b903d6000602084013e565b606090565b909291833b6159fa611a306000611504565b11615a055750505050565b602091615a14615043866110e0565b90600033615a3e615a2460405190565b97889687958694630a85bd0160e11b86526004860161598b565b03925af160009181615ab3575b50615a8a5750615a596159c9565b90615a62825190565b615a6f611a306000611504565b03615a81576122ab906154bf60405190565b50805190602001fd5b615aa4630a85bd0160e11b5b916001600160e01b03191690565b036154b2575038808080612f91565b615ad691925060203d602011615add575b615ace81836108b8565b810190615977565b9038615a4b565b503d615ac4565b612c58615afb91615af3600090565b506008611511565b615b0b612c696122c06000612afd565b141590565b61070d615b2892602092615b22815190565b94859290565b938491016106b6565b615b3f906105ed9392615b10565b90615b10565b615b6592916105d791615b5760405190565b948592602084019283615b31565b908103825203836108b8565b615b92612149826000615b8261630d565b615b8b836152ab565b5001611511565b615b9a616331565b8051615ba9611a306000611504565b14615bd7578151615bbd611a306000611504565b11615bcd5750506105ed90616339565b6105ed9250615b45565b50905090565b7ff0c57e16840df040f15088dc2f81fe391c3923bec73e23a9662efc9c229c6a0090565b906105d791615c0e61637c565b906105d7916163cb565b906105d791615c01565b6105d790615c2e61637c565b6105d7906163e1565b6105d790615c22565b6105d79060015b810190612d50565b9060000361127a576105d790615c40565b6105d7906001615c47565b9060000361127a576105d790615c60565b90600091615c9a615c9282600052602060002090565b928354612dcc565b905555565b9192906020821015615cf757601f8411600114615cc15761254f929350612dcc565b5090615cf26105d7936001615ce9615cde85600052602060002090565b92601f602091010490565b82019101612d50565b615c7c565b50615d308293615d0e600194600052602060002090565b612dac6020601f860104820192601f861680615d38575b50601f602091010490565b600202179055565b615d4490888603612eba565b38615d25565b929091600160401b82116108d95760201115615d91576020811015615d725761254f91612dcc565b60019160ff1916615d8884600052602060002090565b55600202019055565b60019150600202019055565b908154615da981611190565b90818311615dd1575b818310615dbf5750505050565b615dc893615c9f565b38808080612f91565b615ddd83838387615d4a565b615db2565b60006105d791615d9d565b9060000361127a576105d790615de2565b600060076105d792615e1283808301612d44565b615e1f8360018301612d44565b615e2c8360028301612d44565b615e398360038301612d44565b826004820155615e4c8360058301615c4f565b615e598360068301615c6b565b01615ded565b9060000361127a576105d790615dfe565b916001600160a01b0360089290920291821b911b61251b565b9190615e9a6105ed61254f936110e0565b908354615e70565b6105d791600091615e89565b9061154561540c600095615ed39561494d615ecd8a6105d79b986112cf565b90615e5f565b615ea2565b615ee26000612afd565b615ef9612c69615ef38385816161b1565b92610631565b146152d45750565b615f116301ffc9a760e01b615a96565b1490565b612c586105ed91615f24600090565b506002615315615287565b929091615f3a615287565b9180811561604c575b615f5b575b50506105d7929160046154009201611511565b615f64846152ab565b91615f726122c06000612afd565b615f7b82610631565b141580616032575b8061601f575b615ffc5750615400926105d7959492600492615fac575b50925081939450615f48565b615fb5906110e0565b615fbe866110e0565b615fc785611504565b917f8c5be1e5ebec7d5bd14f71427d1e84f3dd0314c0f7b2291e5b200ac8c7c3b925615ff260405190565b600090a438615fa0565b6122ab9061600960405190565b63a9fbf51f60e01b815291829160048301610646565b5061602d6128b78285614929565b615f89565b5061603c81610631565b61604584610631565b1415615f83565b5061605a6122c06000612afd565b61606383610631565b1415615f43565b6127499061084c7ff8e1a15aba9398e019f0b49df1a4fde98ee17ae345cb5f6b5e2c27f5033e8ce79361309683600061531561630d565b6160ab600061140e565b6160b48261140e565b146161a6576160c3600161140e565b6160cc8261140e565b14616198576160db600261140e565b6160e48261140e565b1461618a576160f3600361140e565b6160fc8261140e565b1461617c5761610b600461140e565b6161148261140e565b1461616e57616126612262600561140e565b146161615760405162461bcd60e51b815260206004820152600e60248201526d496e76616c69642072617269747960901b6044820152606490fd5b6105ed613645601061263f565b506105ed6136456010612629565b506105ed6136456010612613565b506105ed613645601061217d565b506105ed613645600f6125fd565b506105ed6000611504565b9061622c826154008360026161c4615287565b6162186161d084615f15565b9960008b866161de83612afd565b936161e885610631565b6161f182610631565b036162dd575b50505061620382610631565b61620c8d610631565b0361629f575b50610631565b61622186610631565b036162735701611511565b61624161623b615937856110e0565b91611504565b917fddf252ad1be2c89b69c2b068fc378daa952ba7f163c4a11628f55a4df523b3ef61626c60405190565b600090a490565b61629a6162806001611504565b6153f361629088600386016110e9565b9161070d836112fe565b615315565b6162ab90828781615f2f565b6162d78b6153f36162c96162bf6001611504565b92600388016110e9565b916162d3836112fe565b0390565b38616212565b6162e6926163ea565b8b86386161f7565b906105d792916162fe8282616445565b6163086000612afd565b6159e8565b7f0542a41881ee128a365a727b282c86fa859579490b9bb45aab8503648c8e790090565b6105ed612963565b616342816152ab565b5061634b616331565b805161635a611a306000611504565b11156163725761636c6105ed926164f2565b90615b45565b50506105ed612963565b6163876128b7616585565b61638d57565b604051631afcd79f60e31b8152600490fd5b906105d7916163ac61637c565b9060016105d7926163c56163be615287565b9182612ea4565b01612ea4565b906105d79161639f565b6105d790614ae461637c565b6105d7906163d5565b6163f86128b7848484616598565b61640157505050565b616411612c696122c06000612afd565b03616423576122ab826152e160405190565b6122ab61642f60405190565b63177e802f60e01b815292839260048401614f8a565b906164506000612afd565b9161645a83610631565b61646382610631565b146164aa576164739183916161b1565b61647f612c6983610631565b036164875750565b6122ab9061649460405190565b6339e3563760e11b815291829160048301610646565b6122ab836154bf60405190565b906105d76123516164c78461294c565b93610b1c565b634e487b7160e01b600052601260045260246000fd5b81156164ed570490565b6164cd565b6164fb8161661c565b9061650c60019261070d6001611504565b9180616517846164b7565b936020018401905b61652a575b50505090565b8115616580576165649060001901926f181899199a1a9b1b9c1cb0b131b232b360811b600a82061a845361655e600a611504565b906164e3565b9081616573611a306000611504565b146165805790918161651f565b616524565b6105ed6000616592615bdd565b01614ce0565b906165a66122c06000612afd565b6165af82610631565b141592836165bd5750505090565b909192506165ca82610631565b6165d384610631565b14928315616608575b5082156165ee575b5050388080616524565b616600919250615ef3612c69916152fb565b1438806165e4565b6166159193508290614929565b91386165dc565b6166266000611504565b9072184f03e93ff9f4daa797ed6e38ed64bf6a1f0160401b61664781611504565b821015616796575b506904ee2d6d415b85acef8160201b61666781611504565b821015616774575b50662386f26fc1000061668181611504565b821015616752575b506305f5e10061669881611504565b821015616730575b506127106166ad81611504565b82101561670e575b506166c06064611504565b8110156166ec575b6166d5611a30600a611504565b10156166de5790565b6105ed9061070d6001611504565b6166fd6167089161655e6064611504565b9161070d6002611504565b906166c8565b6167299161655e61671e92611504565b9161070d6004611504565b90386166b5565b61674b9161655e61674092611504565b9161070d6008611504565b90386166a0565b61676d9161655e61676292611504565b9161070d6010611504565b9038616689565b61678f9161655e61678492611504565b9161070d6020611504565b903861666f565b6167b19161655e6167a692611504565b9161070d6040611504565b903861664f56fee2f2ceab074c88402a89ce0c5895885cc0170e7409a8863d5639ce5b1e6d1138a264697066735822122008042604a69ea2c8c94f6b60fee220f670269c8c2c46c3292c1331e8b1d9d40464736f6c63430008190033",
    "linkReferences": {}
  },
  "methodIdentifiers": {
    "CALLBACK_GAS_LIMIT()": "33d608f1",
    "GEMIndexToOwner(uint256)": "97125c40",
    "Gems(uint256)": "61f7f6d7",
    "addColor(string,uint8,uint8)": "8e80a165",
    "aliveImplementation(address)": "550d01a3",
    "approve(address,uint256)": "095ea7b3",
    "availableGemsRandomPack()": "9aa19da7",
    "balanceOf(address)": "70a08231",
    "colorName(uint8,uint8)": "5f2d0023",
    "colors(uint256,uint256)": "f317d7dd",
    "colorsCount()": "356edf74",
    "createGEM(uint8,uint8[2],uint8[4],string)": "975781b7",
    "createGEMPool(uint8[],uint8[2][],uint8[4][],string[])": "0ff1ac67",
    "getAirdropAddress()": "3d007e57",
    "getApproved(uint256)": "081812fc",
    "getColorName(uint8,uint8)": "04e9fd7e",
    "getCommonGemsValue()": "e316dc13",
    "getEpicGemsCooldownPeriod()": "f2a6094d",
    "getEpicGemsMiningPeriod()": "33d5efdb",
    "getEpicGemsValue()": "97d88628",
    "getEpicminingTry()": "8d41fe30",
    "getGem(uint256)": "aa723bb7",
    "getGemListAvailableByRarity(uint8)": "94ca6449",
    "getGemsSupplyTotalValue()": "4cbe4360",
    "getLegendaryGemsCooldownPeriod()": "77207e37",
    "getLegendaryGemsMiningPeriod()": "c68a5385",
    "getLegendaryGemsValue()": "9d3415f6",
    "getLegendaryminingTry()": "166b35c9",
    "getMarketPlaceAddress()": "694eaa40",
    "getMythicGemsCooldownPeriod()": "bad39efd",
    "getMythicGemsMiningPeriod()": "e0dd8f1b",
    "getMythicGemsValue()": "c0c2fd99",
    "getMythicminingTry()": "3ec7af4a",
    "getOwnershipTokenCount(address)": "b4f6eae4",
    "getPaused()": "6805b84b",
    "getRandomRequest(uint256)": "aae31df3",
    "getRareGemsCooldownPeriod()": "1c880254",
    "getRareGemsMiningPeriod()": "864ccaac",
    "getRareGemsValue()": "0a8ce210",
    "getRareminingTry()": "6c106fea",
    "getRequestCount()": "3fad1834",
    "getRequestIds()": "ac33a273",
    "getTonAddress()": "6ae638d0",
    "getTreasuryAddress()": "e0024604",
    "getUniqueGemsCooldownPeriod()": "093ba92b",
    "getUniqueGemsMiningPeriod()": "fb250435",
    "getUniqueGemsValue()": "a20fa9e9",
    "getUniqueminingTry()": "c61a46c5",
    "getValueBasedOnRarity(uint8)": "0b513d99",
    "getWstonAddress()": "044bc779",
    "initialize(address,address,address,address)": "f8c8765e",
    "isApprovedForAll(address,address)": "e985e9c5",
    "isTokenLocked(uint256)": "276a28a3",
    "meltGEM(uint256)": "f99a6bb5",
    "name()": "06fdde03",
    "owner()": "8da5cb5b",
    "ownerOf(uint256)": "6352211e",
    "ownershipTokenCount(address)": "cec21acb",
    "pause()": "8456cb59",
    "pauseProxy()": "63a8fd89",
    "paused()": "5c975abb",
    "preMintedGemsAvailable()": "c28fb6b7",
    "proxyImplementation(uint256)": "b911135f",
    "renounceOwnership()": "715018a6",
    "s_requests(uint256)": "a168fa89",
    "safeTransferFrom(address,address,uint256)": "42842e0e",
    "safeTransferFrom(address,address,uint256,bytes)": "b88d4fde",
    "selectorImplementation(bytes4)": "50d2a276",
    "setAirdrop(address)": "72820dbc",
    "setApprovalForAll(address,bool)": "a22cb465",
    "setGemsCooldownPeriods(uint32,uint32,uint32,uint32,uint32)": "1aac071d",
    "setGemsMiningPeriods(uint32,uint32,uint32,uint32,uint32)": "ea2b7b43",
    "setGemsValue(uint256,uint256,uint256,uint256,uint256,uint256)": "ff198a1d",
    "setIsLocked(uint256,bool)": "4d723a75",
    "setMarketPlaceAddress(address)": "cc98ef96",
    "setMiningTries(uint8,uint8,uint8,uint8,uint8)": "f41c4729",
    "setTokenURI(uint256,string)": "162094c4",
    "setTreasury(address)": "f0f44260",
    "supportsInterface(bytes4)": "01ffc9a7",
    "symbol()": "95d89b41",
    "tokenMiningByUser(address)": "c1389072",
    "tokenReadyToMine(uint256)": "7866369b",
    "tokenURI(uint256)": "c87b56dd",
    "tokensOfOwner(address)": "8462151c",
    "totalSupply()": "18160ddd",
    "transferFrom(address,address,uint256)": "23b872dd",
    "transferOwnership(address)": "f2fde38b",
    "unpause()": "3f4ba83a",
    "userMiningStartTime(address,uint256)": "676f79f1",
    "userMiningToken(address,uint256)": "a1770a7d"
  },
  "id": 108
}