{
  "abi": [
    {
      "type": "constructor",
      "inputs": [
        {
          "name": "coordinator",
          "type": "address",
          "internalType": "address"
        }
      ],
      "stateMutability": "nonpayable"
    },
    {
      "type": "function",
      "name": "CALLBACK_GAS_LIMIT",
      "inputs": [],
      "outputs": [
        {
          "name": "",
          "type": "uint32",
          "internalType": "uint32"
        }
      ],
      "stateMutability": "view"
    },
    {
      "type": "function",
      "name": "CommonMiningFees",
      "inputs": [],
      "outputs": [
        {
          "name": "",
          "type": "uint256",
          "internalType": "uint256"
        }
      ],
      "stateMutability": "view"
    },
    {
      "type": "function",
      "name": "DEFAULT_ADMIN_ROLE",
      "inputs": [],
      "outputs": [
        {
          "name": "",
          "type": "bytes32",
          "internalType": "bytes32"
        }
      ],
      "stateMutability": "view"
    },
    {
      "type": "function",
      "name": "EpicMiningFees",
      "inputs": [],
      "outputs": [
        {
          "name": "",
          "type": "uint256",
          "internalType": "uint256"
        }
      ],
      "stateMutability": "view"
    },
    {
      "type": "function",
      "name": "GEMIndexToApproved",
      "inputs": [
        {
          "name": "",
          "type": "uint256",
          "internalType": "uint256"
        }
      ],
      "outputs": [
        {
          "name": "",
          "type": "address",
          "internalType": "address"
        }
      ],
      "stateMutability": "view"
    },
    {
      "type": "function",
      "name": "GEMIndexToOwner",
      "inputs": [
        {
          "name": "",
          "type": "uint256",
          "internalType": "uint256"
        }
      ],
      "outputs": [
        {
          "name": "",
          "type": "address",
          "internalType": "address"
        }
      ],
      "stateMutability": "view"
    },
    {
      "type": "function",
      "name": "Gems",
      "inputs": [
        {
          "name": "",
          "type": "uint256",
          "internalType": "uint256"
        }
      ],
      "outputs": [
        {
          "name": "tokenId",
          "type": "uint256",
          "internalType": "uint256"
        },
        {
          "name": "rarity",
          "type": "uint8",
          "internalType": "enum GemFactoryStorage.Rarity"
        },
        {
          "name": "color",
          "type": "string",
          "internalType": "string"
        },
        {
          "name": "gemCooldownPeriod",
          "type": "uint256",
          "internalType": "uint256"
        },
        {
          "name": "miningPeriod",
          "type": "uint256",
          "internalType": "uint256"
        },
        {
          "name": "isLocked",
          "type": "bool",
          "internalType": "bool"
        },
        {
          "name": "value",
          "type": "uint256",
          "internalType": "uint256"
        },
        {
          "name": "tokenURI",
          "type": "string",
          "internalType": "string"
        },
        {
          "name": "randomRequestId",
          "type": "uint256",
          "internalType": "uint256"
        }
      ],
      "stateMutability": "view"
    },
    {
      "type": "function",
      "name": "L1StakingIndex",
      "inputs": [],
      "outputs": [
        {
          "name": "",
          "type": "uint256",
          "internalType": "uint256"
        }
      ],
      "stateMutability": "view"
    },
    {
      "type": "function",
      "name": "PAUSE_ROLE",
      "inputs": [],
      "outputs": [
        {
          "name": "",
          "type": "bytes32",
          "internalType": "bytes32"
        }
      ],
      "stateMutability": "view"
    },
    {
      "type": "function",
      "name": "RareMiningFees",
      "inputs": [],
      "outputs": [
        {
          "name": "",
          "type": "uint256",
          "internalType": "uint256"
        }
      ],
      "stateMutability": "view"
    },
    {
      "type": "function",
      "name": "TREASURY_ROLE",
      "inputs": [],
      "outputs": [
        {
          "name": "",
          "type": "bytes32",
          "internalType": "bytes32"
        }
      ],
      "stateMutability": "view"
    },
    {
      "type": "function",
      "name": "UniqueMiningFees",
      "inputs": [],
      "outputs": [
        {
          "name": "",
          "type": "uint256",
          "internalType": "uint256"
        }
      ],
      "stateMutability": "view"
    },
    {
      "type": "function",
      "name": "addAdmin",
      "inputs": [
        {
          "name": "account",
          "type": "address",
          "internalType": "address"
        }
      ],
      "outputs": [],
      "stateMutability": "nonpayable"
    },
    {
      "type": "function",
      "name": "addMinter",
      "inputs": [
        {
          "name": "account",
          "type": "address",
          "internalType": "address"
        }
      ],
      "outputs": [],
      "stateMutability": "nonpayable"
    },
    {
      "type": "function",
      "name": "adminTransferGEM",
      "inputs": [
        {
          "name": "_to",
          "type": "address",
          "internalType": "address"
        },
        {
          "name": "_tokenId",
          "type": "uint256",
          "internalType": "uint256"
        }
      ],
      "outputs": [
        {
          "name": "",
          "type": "bool",
          "internalType": "bool"
        }
      ],
      "stateMutability": "nonpayable"
    },
    {
      "type": "function",
      "name": "aliveImplementation",
      "inputs": [
        {
          "name": "",
          "type": "address",
          "internalType": "address"
        }
      ],
      "outputs": [
        {
          "name": "",
          "type": "bool",
          "internalType": "bool"
        }
      ],
      "stateMutability": "view"
    },
    {
      "type": "function",
      "name": "approve",
      "inputs": [
        {
          "name": "to",
          "type": "address",
          "internalType": "address"
        },
        {
          "name": "tokenId",
          "type": "uint256",
          "internalType": "uint256"
        }
      ],
      "outputs": [],
      "stateMutability": "nonpayable"
    },
    {
      "type": "function",
      "name": "balanceOf",
      "inputs": [
        {
          "name": "_owner",
          "type": "address",
          "internalType": "address"
        }
      ],
      "outputs": [
        {
          "name": "count",
          "type": "uint256",
          "internalType": "uint256"
        }
      ],
      "stateMutability": "view"
    },
    {
      "type": "function",
      "name": "claimMinedGEM",
      "inputs": [
        {
          "name": "_tokenId",
          "type": "uint256",
          "internalType": "uint256"
        }
      ],
      "outputs": [
        {
          "name": "",
          "type": "bool",
          "internalType": "bool"
        }
      ],
      "stateMutability": "nonpayable"
    },
    {
      "type": "function",
      "name": "createGEM",
      "inputs": [
        {
          "name": "_rarity",
          "type": "uint8",
          "internalType": "enum GemFactoryStorage.Rarity"
        },
        {
          "name": "_color",
          "type": "string",
          "internalType": "string"
        },
        {
          "name": "_value",
          "type": "uint256",
          "internalType": "uint256"
        },
        {
          "name": "_quadrants",
          "type": "uint8[4]",
          "internalType": "uint8[4]"
        },
        {
          "name": "_miningPeriod",
          "type": "uint256",
          "internalType": "uint256"
        },
        {
          "name": "_gemCooldownPeriod",
          "type": "uint256",
          "internalType": "uint256"
        },
        {
          "name": "_tokenURI",
          "type": "string",
          "internalType": "string"
        }
      ],
      "outputs": [
        {
          "name": "",
          "type": "uint256",
          "internalType": "uint256"
        }
      ],
      "stateMutability": "nonpayable"
    },
    {
      "type": "function",
      "name": "createGEMPool",
      "inputs": [
        {
          "name": "_rarities",
          "type": "uint8[]",
          "internalType": "enum GemFactoryStorage.Rarity[]"
        },
        {
          "name": "_colors",
          "type": "string[]",
          "internalType": "string[]"
        },
        {
          "name": "_values",
          "type": "uint256[]",
          "internalType": "uint256[]"
        },
        {
          "name": "_quadrants",
          "type": "uint8[4][]",
          "internalType": "uint8[4][]"
        },
        {
          "name": "_miningPeriods",
          "type": "uint256[]",
          "internalType": "uint256[]"
        },
        {
          "name": "_gemCooldownPeriods",
          "type": "uint256[]",
          "internalType": "uint256[]"
        },
        {
          "name": "_tokenURIs",
          "type": "string[]",
          "internalType": "string[]"
        }
      ],
      "outputs": [
        {
          "name": "",
          "type": "uint256[]",
          "internalType": "uint256[]"
        }
      ],
      "stateMutability": "nonpayable"
    },
    {
      "type": "function",
      "name": "estimatedStakingIndexIncreaseRate",
      "inputs": [],
      "outputs": [
        {
          "name": "",
          "type": "uint256",
          "internalType": "uint256"
        }
      ],
      "stateMutability": "view"
    },
    {
      "type": "function",
      "name": "gemAllowedToAddress",
      "inputs": [
        {
          "name": "",
          "type": "uint256",
          "internalType": "uint256"
        }
      ],
      "outputs": [
        {
          "name": "",
          "type": "address",
          "internalType": "address"
        }
      ],
      "stateMutability": "view"
    },
    {
      "type": "function",
      "name": "getApproved",
      "inputs": [
        {
          "name": "tokenId",
          "type": "uint256",
          "internalType": "uint256"
        }
      ],
      "outputs": [
        {
          "name": "",
          "type": "address",
          "internalType": "address"
        }
      ],
      "stateMutability": "view"
    },
    {
      "type": "function",
      "name": "getCalculatedDirectFundingPrice",
      "inputs": [
        {
          "name": "_callbackGasLimit",
          "type": "uint32",
          "internalType": "uint32"
        }
      ],
      "outputs": [
        {
          "name": "",
          "type": "uint256",
          "internalType": "uint256"
        }
      ],
      "stateMutability": "view"
    },
    {
      "type": "function",
      "name": "getCommonMiningFees",
      "inputs": [],
      "outputs": [
        {
          "name": "",
          "type": "uint256",
          "internalType": "uint256"
        }
      ],
      "stateMutability": "view"
    },
    {
      "type": "function",
      "name": "getRareMiningFees",
      "inputs": [],
      "outputs": [
        {
          "name": "",
          "type": "uint256",
          "internalType": "uint256"
        }
      ],
      "stateMutability": "view"
    },
    {
      "type": "function",
      "name": "getRoleAdmin",
      "inputs": [
        {
          "name": "role",
          "type": "bytes32",
          "internalType": "bytes32"
        }
      ],
      "outputs": [
        {
          "name": "",
          "type": "bytes32",
          "internalType": "bytes32"
        }
      ],
      "stateMutability": "view"
    },
    {
      "type": "function",
      "name": "getTon",
      "inputs": [],
      "outputs": [
        {
          "name": "",
          "type": "address",
          "internalType": "address"
        }
      ],
      "stateMutability": "view"
    },
    {
      "type": "function",
      "name": "getTreasury",
      "inputs": [],
      "outputs": [
        {
          "name": "",
          "type": "address",
          "internalType": "address"
        }
      ],
      "stateMutability": "view"
    },
    {
      "type": "function",
      "name": "getUniqueMiningFees",
      "inputs": [],
      "outputs": [
        {
          "name": "",
          "type": "uint256",
          "internalType": "uint256"
        }
      ],
      "stateMutability": "view"
    },
    {
      "type": "function",
      "name": "getWston",
      "inputs": [],
      "outputs": [
        {
          "name": "",
          "type": "address",
          "internalType": "address"
        }
      ],
      "stateMutability": "view"
    },
    {
      "type": "function",
      "name": "grantRole",
      "inputs": [
        {
          "name": "role",
          "type": "bytes32",
          "internalType": "bytes32"
        },
        {
          "name": "account",
          "type": "address",
          "internalType": "address"
        }
      ],
      "outputs": [],
      "stateMutability": "nonpayable"
    },
    {
      "type": "function",
      "name": "hasRole",
      "inputs": [
        {
          "name": "role",
          "type": "bytes32",
          "internalType": "bytes32"
        },
        {
          "name": "account",
          "type": "address",
          "internalType": "address"
        }
      ],
      "outputs": [
        {
          "name": "",
          "type": "bool",
          "internalType": "bool"
        }
      ],
      "stateMutability": "view"
    },
    {
      "type": "function",
      "name": "initialize",
      "inputs": [
        {
          "name": "_wston",
          "type": "address",
          "internalType": "address"
        },
        {
          "name": "_ton",
          "type": "address",
          "internalType": "address"
        },
        {
          "name": "_treasury",
          "type": "address",
          "internalType": "address"
        },
        {
          "name": "_CommonMiningFees",
          "type": "uint256",
          "internalType": "uint256"
        },
        {
          "name": "_RareMiningFees",
          "type": "uint256",
          "internalType": "uint256"
        },
        {
          "name": "_UniqueMiningFees",
          "type": "uint256",
          "internalType": "uint256"
        },
        {
          "name": "_EpicMiningFees",
          "type": "uint256",
          "internalType": "uint256"
        }
      ],
      "outputs": [],
      "stateMutability": "nonpayable"
    },
    {
      "type": "function",
      "name": "isAdmin",
      "inputs": [
        {
          "name": "account",
          "type": "address",
          "internalType": "address"
        }
      ],
      "outputs": [
        {
          "name": "",
          "type": "bool",
          "internalType": "bool"
        }
      ],
      "stateMutability": "view"
    },
    {
      "type": "function",
      "name": "isApprovedForAll",
      "inputs": [
        {
          "name": "owner",
          "type": "address",
          "internalType": "address"
        },
        {
          "name": "operator",
          "type": "address",
          "internalType": "address"
        }
      ],
      "outputs": [
        {
          "name": "",
          "type": "bool",
          "internalType": "bool"
        }
      ],
      "stateMutability": "view"
    },
    {
      "type": "function",
      "name": "isMinter",
      "inputs": [
        {
          "name": "account",
          "type": "address",
          "internalType": "address"
        }
      ],
      "outputs": [
        {
          "name": "",
          "type": "bool",
          "internalType": "bool"
        }
      ],
      "stateMutability": "view"
    },
    {
      "type": "function",
      "name": "isOwner",
      "inputs": [],
      "outputs": [
        {
          "name": "",
          "type": "bool",
          "internalType": "bool"
        }
      ],
      "stateMutability": "view"
    },
    {
      "type": "function",
      "name": "isTokenLocked",
      "inputs": [
        {
          "name": "_tokenId",
          "type": "uint256",
          "internalType": "uint256"
        }
      ],
      "outputs": [
        {
          "name": "",
          "type": "bool",
          "internalType": "bool"
        }
      ],
      "stateMutability": "view"
    },
    {
      "type": "function",
      "name": "isUserMining",
      "inputs": [
        {
          "name": "",
          "type": "address",
          "internalType": "address"
        }
      ],
      "outputs": [
        {
          "name": "",
          "type": "bool",
          "internalType": "bool"
        }
      ],
      "stateMutability": "view"
    },
    {
      "type": "function",
      "name": "lastRequestId",
      "inputs": [],
      "outputs": [
        {
          "name": "",
          "type": "uint256",
          "internalType": "uint256"
        }
      ],
      "stateMutability": "view"
    },
    {
      "type": "function",
      "name": "marketplace",
      "inputs": [],
      "outputs": [
        {
          "name": "",
          "type": "address",
          "internalType": "address"
        }
      ],
      "stateMutability": "view"
    },
    {
      "type": "function",
      "name": "meltGEM",
      "inputs": [
        {
          "name": "_tokenId",
          "type": "uint256",
          "internalType": "uint256"
        }
      ],
      "outputs": [],
      "stateMutability": "nonpayable"
    },
    {
      "type": "function",
      "name": "name",
      "inputs": [],
      "outputs": [
        {
          "name": "",
          "type": "string",
          "internalType": "string"
        }
      ],
      "stateMutability": "view"
    },
    {
      "type": "function",
      "name": "ownerOf",
      "inputs": [
        {
          "name": "tokenId",
          "type": "uint256",
          "internalType": "uint256"
        }
      ],
      "outputs": [
        {
          "name": "",
          "type": "address",
          "internalType": "address"
        }
      ],
      "stateMutability": "view"
    },
    {
      "type": "function",
      "name": "ownerOfGEM",
      "inputs": [
        {
          "name": "_tokenId",
          "type": "uint256",
          "internalType": "uint256"
        }
      ],
      "outputs": [
        {
          "name": "owner",
          "type": "address",
          "internalType": "address"
        }
      ],
      "stateMutability": "view"
    },
    {
      "type": "function",
      "name": "ownershipTokenCount",
      "inputs": [
        {
          "name": "",
          "type": "address",
          "internalType": "address"
        }
      ],
      "outputs": [
        {
          "name": "",
          "type": "uint256",
          "internalType": "uint256"
        }
      ],
      "stateMutability": "view"
    },
    {
      "type": "function",
      "name": "pause",
      "inputs": [],
      "outputs": [],
      "stateMutability": "nonpayable"
    },
    {
      "type": "function",
      "name": "pauseProxy",
      "inputs": [],
      "outputs": [
        {
          "name": "",
          "type": "bool",
          "internalType": "bool"
        }
      ],
      "stateMutability": "view"
    },
    {
      "type": "function",
      "name": "paused",
      "inputs": [],
      "outputs": [
        {
          "name": "",
          "type": "bool",
          "internalType": "bool"
        }
      ],
      "stateMutability": "view"
    },
    {
      "type": "function",
      "name": "preMintedGemsAvailable",
      "inputs": [],
      "outputs": [
        {
          "name": "GemsAvailable",
          "type": "uint256[]",
          "internalType": "uint256[]"
        }
      ],
      "stateMutability": "view"
    },
    {
      "type": "function",
      "name": "proxyImplementation",
      "inputs": [
        {
          "name": "",
          "type": "uint256",
          "internalType": "uint256"
        }
      ],
      "outputs": [
        {
          "name": "",
          "type": "address",
          "internalType": "address"
        }
      ],
      "stateMutability": "view"
    },
    {
      "type": "function",
      "name": "rawFulfillRandomWords",
      "inputs": [
        {
          "name": "round",
          "type": "uint256",
          "internalType": "uint256"
        },
        {
          "name": "hashedOmegaVal",
          "type": "uint256",
          "internalType": "uint256"
        }
      ],
      "outputs": [],
      "stateMutability": "nonpayable"
    },
    {
      "type": "function",
      "name": "removeAdmin",
      "inputs": [
        {
          "name": "account",
          "type": "address",
          "internalType": "address"
        }
      ],
      "outputs": [],
      "stateMutability": "nonpayable"
    },
    {
      "type": "function",
      "name": "removeMinter",
      "inputs": [
        {
          "name": "account",
          "type": "address",
          "internalType": "address"
        }
      ],
      "outputs": [],
      "stateMutability": "nonpayable"
    },
    {
      "type": "function",
      "name": "renounceMinter",
      "inputs": [],
      "outputs": [],
      "stateMutability": "nonpayable"
    },
    {
      "type": "function",
      "name": "renounceOwnership",
      "inputs": [],
      "outputs": [],
      "stateMutability": "nonpayable"
    },
    {
      "type": "function",
      "name": "renounceRole",
      "inputs": [
        {
          "name": "role",
          "type": "bytes32",
          "internalType": "bytes32"
        },
        {
          "name": "callerConfirmation",
          "type": "address",
          "internalType": "address"
        }
      ],
      "outputs": [],
      "stateMutability": "nonpayable"
    },
    {
      "type": "function",
      "name": "requestCount",
      "inputs": [],
      "outputs": [
        {
          "name": "",
          "type": "uint256",
          "internalType": "uint256"
        }
      ],
      "stateMutability": "view"
    },
    {
      "type": "function",
      "name": "requestIds",
      "inputs": [
        {
          "name": "",
          "type": "uint256",
          "internalType": "uint256"
        }
      ],
      "outputs": [
        {
          "name": "",
          "type": "uint256",
          "internalType": "uint256"
        }
      ],
      "stateMutability": "view"
    },
    {
      "type": "function",
      "name": "revokeMinter",
      "inputs": [
        {
          "name": "account",
          "type": "address",
          "internalType": "address"
        }
      ],
      "outputs": [],
      "stateMutability": "nonpayable"
    },
    {
      "type": "function",
      "name": "revokeRole",
      "inputs": [
        {
          "name": "role",
          "type": "bytes32",
          "internalType": "bytes32"
        },
        {
          "name": "account",
          "type": "address",
          "internalType": "address"
        }
      ],
      "outputs": [],
      "stateMutability": "nonpayable"
    },
    {
      "type": "function",
      "name": "s_requests",
      "inputs": [
        {
          "name": "",
          "type": "uint256",
          "internalType": "uint256"
        }
      ],
      "outputs": [
        {
          "name": "requested",
          "type": "bool",
          "internalType": "bool"
        },
        {
          "name": "fulfilled",
          "type": "bool",
          "internalType": "bool"
        },
        {
          "name": "randomWord",
          "type": "uint256",
          "internalType": "uint256"
        },
        {
          "name": "chosenTokenId",
          "type": "uint256",
          "internalType": "uint256"
        },
        {
          "name": "requester",
          "type": "address",
          "internalType": "address"
        }
      ],
      "stateMutability": "view"
    },
    {
      "type": "function",
      "name": "safeTransferFrom",
      "inputs": [
        {
          "name": "from",
          "type": "address",
          "internalType": "address"
        },
        {
          "name": "to",
          "type": "address",
          "internalType": "address"
        },
        {
          "name": "tokenId",
          "type": "uint256",
          "internalType": "uint256"
        }
      ],
      "outputs": [],
      "stateMutability": "nonpayable"
    },
    {
      "type": "function",
      "name": "safeTransferFrom",
      "inputs": [
        {
          "name": "from",
          "type": "address",
          "internalType": "address"
        },
        {
          "name": "to",
          "type": "address",
          "internalType": "address"
        },
        {
          "name": "tokenId",
          "type": "uint256",
          "internalType": "uint256"
        },
        {
          "name": "data",
          "type": "bytes",
          "internalType": "bytes"
        }
      ],
      "outputs": [],
      "stateMutability": "nonpayable"
    },
    {
      "type": "function",
      "name": "selectorImplementation",
      "inputs": [
        {
          "name": "",
          "type": "bytes4",
          "internalType": "bytes4"
        }
      ],
      "outputs": [
        {
          "name": "",
          "type": "address",
          "internalType": "address"
        }
      ],
      "stateMutability": "view"
    },
    {
      "type": "function",
      "name": "setApprovalForAll",
      "inputs": [
        {
          "name": "operator",
          "type": "address",
          "internalType": "address"
        },
        {
          "name": "approved",
          "type": "bool",
          "internalType": "bool"
        }
      ],
      "outputs": [],
      "stateMutability": "nonpayable"
    },
    {
      "type": "function",
      "name": "setApprovalForMarketplace",
      "inputs": [],
      "outputs": [],
      "stateMutability": "nonpayable"
    },
    {
      "type": "function",
      "name": "setIsLocked",
      "inputs": [
        {
          "name": "_tokenId",
          "type": "uint256",
          "internalType": "uint256"
        },
        {
          "name": "_isLocked",
          "type": "bool",
          "internalType": "bool"
        }
      ],
      "outputs": [],
      "stateMutability": "nonpayable"
    },
    {
      "type": "function",
      "name": "setMarketPlaceAddress",
      "inputs": [
        {
          "name": "_marketplace",
          "type": "address",
          "internalType": "address"
        }
      ],
      "outputs": [],
      "stateMutability": "nonpayable"
    },
    {
      "type": "function",
      "name": "startMiningGEM",
      "inputs": [
        {
          "name": "_tokenId",
          "type": "uint256",
          "internalType": "uint256"
        }
      ],
      "outputs": [
        {
          "name": "",
          "type": "bool",
          "internalType": "bool"
        }
      ],
      "stateMutability": "payable"
    },
    {
      "type": "function",
      "name": "supportsInterface",
      "inputs": [
        {
          "name": "interfaceId",
          "type": "bytes4",
          "internalType": "bytes4"
        }
      ],
      "outputs": [
        {
          "name": "",
          "type": "bool",
          "internalType": "bool"
        }
      ],
      "stateMutability": "view"
    },
    {
      "type": "function",
      "name": "symbol",
      "inputs": [],
      "outputs": [
        {
          "name": "",
          "type": "string",
          "internalType": "string"
        }
      ],
      "stateMutability": "view"
    },
    {
      "type": "function",
      "name": "tokenMiningByUser",
      "inputs": [
        {
          "name": "",
          "type": "address",
          "internalType": "address"
        }
      ],
      "outputs": [
        {
          "name": "",
          "type": "uint256",
          "internalType": "uint256"
        }
      ],
      "stateMutability": "view"
    },
    {
      "type": "function",
      "name": "tokenReadyToMine",
      "inputs": [
        {
          "name": "",
          "type": "uint256",
          "internalType": "uint256"
        }
      ],
      "outputs": [
        {
          "name": "",
          "type": "bool",
          "internalType": "bool"
        }
      ],
      "stateMutability": "view"
    },
    {
      "type": "function",
      "name": "tokenURI",
      "inputs": [
        {
          "name": "tokenId",
          "type": "uint256",
          "internalType": "uint256"
        }
      ],
      "outputs": [
        {
          "name": "",
          "type": "string",
          "internalType": "string"
        }
      ],
      "stateMutability": "view"
    },
    {
      "type": "function",
      "name": "tokensOfOwner",
      "inputs": [
        {
          "name": "_owner",
          "type": "address",
          "internalType": "address"
        }
      ],
      "outputs": [
        {
          "name": "ownerTokens",
          "type": "uint256[]",
          "internalType": "uint256[]"
        }
      ],
      "stateMutability": "view"
    },
    {
      "type": "function",
      "name": "ton",
      "inputs": [],
      "outputs": [
        {
          "name": "",
          "type": "address",
          "internalType": "address"
        }
      ],
      "stateMutability": "view"
    },
    {
      "type": "function",
      "name": "totalSupply",
      "inputs": [],
      "outputs": [
        {
          "name": "",
          "type": "uint256",
          "internalType": "uint256"
        }
      ],
      "stateMutability": "view"
    },
    {
      "type": "function",
      "name": "transferAdmin",
      "inputs": [
        {
          "name": "newAdmin",
          "type": "address",
          "internalType": "address"
        }
      ],
      "outputs": [],
      "stateMutability": "nonpayable"
    },
    {
      "type": "function",
      "name": "transferFrom",
      "inputs": [
        {
          "name": "from",
          "type": "address",
          "internalType": "address"
        },
        {
          "name": "to",
          "type": "address",
          "internalType": "address"
        },
        {
          "name": "tokenId",
          "type": "uint256",
          "internalType": "uint256"
        }
      ],
      "outputs": [],
      "stateMutability": "nonpayable"
    },
    {
      "type": "function",
      "name": "transferGEM",
      "inputs": [
        {
          "name": "_to",
          "type": "address",
          "internalType": "address"
        },
        {
          "name": "_tokenId",
          "type": "uint256",
          "internalType": "uint256"
        }
      ],
      "outputs": [],
      "stateMutability": "nonpayable"
    },
    {
      "type": "function",
      "name": "transferGEMFrom",
      "inputs": [
        {
          "name": "_from",
          "type": "address",
          "internalType": "address"
        },
        {
          "name": "_to",
          "type": "address",
          "internalType": "address"
        },
        {
          "name": "_tokenId",
          "type": "uint256",
          "internalType": "uint256"
        }
      ],
      "outputs": [],
      "stateMutability": "nonpayable"
    },
    {
      "type": "function",
      "name": "transferOwnership",
      "inputs": [
        {
          "name": "newAdmin",
          "type": "address",
          "internalType": "address"
        }
      ],
      "outputs": [],
      "stateMutability": "nonpayable"
    },
    {
      "type": "function",
      "name": "treasury",
      "inputs": [],
      "outputs": [
        {
          "name": "",
          "type": "address",
          "internalType": "address"
        }
      ],
      "stateMutability": "view"
    },
    {
      "type": "function",
      "name": "unpause",
      "inputs": [],
      "outputs": [],
      "stateMutability": "nonpayable"
    },
    {
      "type": "function",
      "name": "userMiningStartTime",
      "inputs": [
        {
          "name": "",
          "type": "address",
          "internalType": "address"
        },
        {
          "name": "",
          "type": "uint256",
          "internalType": "uint256"
        }
      ],
      "outputs": [
        {
          "name": "",
          "type": "uint256",
          "internalType": "uint256"
        }
      ],
      "stateMutability": "view"
    },
    {
      "type": "function",
      "name": "userMiningToken",
      "inputs": [
        {
          "name": "",
          "type": "address",
          "internalType": "address"
        },
        {
          "name": "",
          "type": "uint256",
          "internalType": "uint256"
        }
      ],
      "outputs": [
        {
          "name": "",
          "type": "bool",
          "internalType": "bool"
        }
      ],
      "stateMutability": "view"
    },
    {
      "type": "function",
      "name": "wston",
      "inputs": [],
      "outputs": [
        {
          "name": "",
          "type": "address",
          "internalType": "address"
        }
      ],
      "stateMutability": "view"
    },
    {
      "type": "event",
      "name": "Approval",
      "inputs": [
        {
          "name": "owner",
          "type": "address",
          "indexed": true,
          "internalType": "address"
        },
        {
          "name": "approved",
          "type": "address",
          "indexed": true,
          "internalType": "address"
        },
        {
          "name": "tokenId",
          "type": "uint256",
          "indexed": true,
          "internalType": "uint256"
        }
      ],
      "anonymous": false
    },
    {
      "type": "event",
      "name": "ApprovalForAll",
      "inputs": [
        {
          "name": "owner",
          "type": "address",
          "indexed": true,
          "internalType": "address"
        },
        {
          "name": "operator",
          "type": "address",
          "indexed": true,
          "internalType": "address"
        },
        {
          "name": "approved",
          "type": "bool",
          "indexed": false,
          "internalType": "bool"
        }
      ],
      "anonymous": false
    },
    {
      "type": "event",
      "name": "BatchMetadataUpdate",
      "inputs": [
        {
          "name": "_fromTokenId",
          "type": "uint256",
          "indexed": false,
          "internalType": "uint256"
        },
        {
          "name": "_toTokenId",
          "type": "uint256",
          "indexed": false,
          "internalType": "uint256"
        }
      ],
      "anonymous": false
    },
    {
      "type": "event",
      "name": "Created",
      "inputs": [
        {
          "name": "tokenId",
          "type": "uint256",
          "indexed": false,
          "internalType": "uint256"
        },
        {
          "name": "owner",
          "type": "address",
          "indexed": false,
          "internalType": "address"
        }
      ],
      "anonymous": false
    },
    {
      "type": "event",
      "name": "GemMelted",
      "inputs": [
        {
          "name": "_tokenId",
          "type": "uint256",
          "indexed": false,
          "internalType": "uint256"
        },
        {
          "name": "_from",
          "type": "address",
          "indexed": false,
          "internalType": "address"
        }
      ],
      "anonymous": false
    },
    {
      "type": "event",
      "name": "GemMiningClaimed",
      "inputs": [
        {
          "name": "tokenId",
          "type": "uint256",
          "indexed": false,
          "internalType": "uint256"
        },
        {
          "name": "miner",
          "type": "address",
          "indexed": false,
          "internalType": "address"
        }
      ],
      "anonymous": false
    },
    {
      "type": "event",
      "name": "GemMiningStarted",
      "inputs": [
        {
          "name": "tokenId",
          "type": "uint256",
          "indexed": false,
          "internalType": "uint256"
        },
        {
          "name": "miner",
          "type": "address",
          "indexed": false,
          "internalType": "address"
        }
      ],
      "anonymous": false
    },
    {
      "type": "event",
      "name": "MetadataUpdate",
      "inputs": [
        {
          "name": "_tokenId",
          "type": "uint256",
          "indexed": false,
          "internalType": "uint256"
        }
      ],
      "anonymous": false
    },
    {
      "type": "event",
      "name": "Paused",
      "inputs": [
        {
          "name": "account",
          "type": "address",
          "indexed": false,
          "internalType": "address"
        }
      ],
      "anonymous": false
    },
    {
      "type": "event",
      "name": "RoleAdminChanged",
      "inputs": [
        {
          "name": "role",
          "type": "bytes32",
          "indexed": true,
          "internalType": "bytes32"
        },
        {
          "name": "previousAdminRole",
          "type": "bytes32",
          "indexed": true,
          "internalType": "bytes32"
        },
        {
          "name": "newAdminRole",
          "type": "bytes32",
          "indexed": true,
          "internalType": "bytes32"
        }
      ],
      "anonymous": false
    },
    {
      "type": "event",
      "name": "RoleGranted",
      "inputs": [
        {
          "name": "role",
          "type": "bytes32",
          "indexed": true,
          "internalType": "bytes32"
        },
        {
          "name": "account",
          "type": "address",
          "indexed": true,
          "internalType": "address"
        },
        {
          "name": "sender",
          "type": "address",
          "indexed": true,
          "internalType": "address"
        }
      ],
      "anonymous": false
    },
    {
      "type": "event",
      "name": "RoleRevoked",
      "inputs": [
        {
          "name": "role",
          "type": "bytes32",
          "indexed": true,
          "internalType": "bytes32"
        },
        {
          "name": "account",
          "type": "address",
          "indexed": true,
          "internalType": "address"
        },
        {
          "name": "sender",
          "type": "address",
          "indexed": true,
          "internalType": "address"
        }
      ],
      "anonymous": false
    },
    {
      "type": "event",
      "name": "Transfer",
      "inputs": [
        {
          "name": "from",
          "type": "address",
          "indexed": true,
          "internalType": "address"
        },
        {
          "name": "to",
          "type": "address",
          "indexed": true,
          "internalType": "address"
        },
        {
          "name": "tokenId",
          "type": "uint256",
          "indexed": true,
          "internalType": "uint256"
        }
      ],
      "anonymous": false
    },
    {
      "type": "event",
      "name": "TransferGEM",
      "inputs": [
        {
          "name": "from",
          "type": "address",
          "indexed": false,
          "internalType": "address"
        },
        {
          "name": "to",
          "type": "address",
          "indexed": false,
          "internalType": "address"
        },
        {
          "name": "tokenId",
          "type": "uint256",
          "indexed": false,
          "internalType": "uint256"
        }
      ],
      "anonymous": false
    },
    {
      "type": "event",
      "name": "Unpaused",
      "inputs": [
        {
          "name": "account",
          "type": "address",
          "indexed": false,
          "internalType": "address"
        }
      ],
      "anonymous": false
    },
    {
      "type": "error",
      "name": "AccessControlBadConfirmation",
      "inputs": []
    },
    {
      "type": "error",
      "name": "AccessControlUnauthorizedAccount",
      "inputs": [
        {
          "name": "account",
          "type": "address",
          "internalType": "address"
        },
        {
          "name": "neededRole",
          "type": "bytes32",
          "internalType": "bytes32"
        }
      ]
    },
    {
      "type": "error",
      "name": "AddressEmptyCode",
      "inputs": [
        {
          "name": "target",
          "type": "address",
          "internalType": "address"
        }
      ]
    },
    {
      "type": "error",
      "name": "AddressInsufficientBalance",
      "inputs": [
        {
          "name": "account",
          "type": "address",
          "internalType": "address"
        }
      ]
    },
    {
      "type": "error",
      "name": "ERC721IncorrectOwner",
      "inputs": [
        {
          "name": "sender",
          "type": "address",
          "internalType": "address"
        },
        {
          "name": "tokenId",
          "type": "uint256",
          "internalType": "uint256"
        },
        {
          "name": "owner",
          "type": "address",
          "internalType": "address"
        }
      ]
    },
    {
      "type": "error",
      "name": "ERC721InsufficientApproval",
      "inputs": [
        {
          "name": "operator",
          "type": "address",
          "internalType": "address"
        },
        {
          "name": "tokenId",
          "type": "uint256",
          "internalType": "uint256"
        }
      ]
    },
    {
      "type": "error",
      "name": "ERC721InvalidApprover",
      "inputs": [
        {
          "name": "approver",
          "type": "address",
          "internalType": "address"
        }
      ]
    },
    {
      "type": "error",
      "name": "ERC721InvalidOperator",
      "inputs": [
        {
          "name": "operator",
          "type": "address",
          "internalType": "address"
        }
      ]
    },
    {
      "type": "error",
      "name": "ERC721InvalidOwner",
      "inputs": [
        {
          "name": "owner",
          "type": "address",
          "internalType": "address"
        }
      ]
    },
    {
      "type": "error",
      "name": "ERC721InvalidReceiver",
      "inputs": [
        {
          "name": "receiver",
          "type": "address",
          "internalType": "address"
        }
      ]
    },
    {
      "type": "error",
      "name": "ERC721InvalidSender",
      "inputs": [
        {
          "name": "sender",
          "type": "address",
          "internalType": "address"
        }
      ]
    },
    {
      "type": "error",
      "name": "ERC721NonexistentToken",
      "inputs": [
        {
          "name": "tokenId",
          "type": "uint256",
          "internalType": "uint256"
        }
      ]
    },
    {
      "type": "error",
      "name": "FailedInnerCall",
      "inputs": []
    },
    {
      "type": "error",
      "name": "OnlyCoordinatorCanFulfill",
      "inputs": [
        {
          "name": "have",
          "type": "address",
          "internalType": "address"
        },
        {
          "name": "want",
          "type": "address",
          "internalType": "address"
        }
      ]
    },
    {
      "type": "error",
      "name": "SafeERC20FailedOperation",
      "inputs": [
        {
          "name": "token",
          "type": "address",
          "internalType": "address"
        }
      ]
    }
  ],
  "bytecode": {
    "object": "0x60a060405234801561001057600080fd5b50604051616fc7380380616fc783398101604081905261002f9161015c565b806040518060400160405280600a815260200169546f6b616d616b47454d60b01b8152506040518060400160405280600381526020016247454d60e81b815250816000908161007e919061022b565b50600161008b828261022b565b5050506001600160a01b03166080526100a56000336100ac565b50506102e9565b60008281526024602090815260408083206001600160a01b038516845290915281205460ff166101525760008381526024602090815260408083206001600160a01b03861684529091529020805460ff1916600117905561010a3390565b6001600160a01b0316826001600160a01b0316847f2f8788117e7eff1d82e926ec794901d17c78024a50270940304540a733656f0d60405160405180910390a4506001610156565b5060005b92915050565b60006020828403121561016e57600080fd5b81516001600160a01b038116811461018557600080fd5b9392505050565b634e487b7160e01b600052604160045260246000fd5b600181811c908216806101b657607f821691505b6020821081036101d657634e487b7160e01b600052602260045260246000fd5b50919050565b601f82111561022657806000526020600020601f840160051c810160208510156102035750805b601f840160051c820191505b81811015610223576000815560010161020f565b50505b505050565b81516001600160401b038111156102445761024461018c565b6102588161025284546101a2565b846101dc565b6020601f82116001811461028c57600083156102745750848201515b600019600385901b1c1916600184901b178455610223565b600084815260208120601f198516915b828110156102bc578785015182556020948501946001909201910161029c565b50848210156102da5786840151600019600387901b60f8161c191681555b50505050600190811b01905550565b608051616ca761032060003960008181611dd401528181611e1601528181613ee20152818161496d0152614a010152616ca76000f3fe6080604052600436106104e15760003560e01c806375829def11610281578063b88d4fde1161015a578063d11a57ec116100cc578063f2fde38b11610085578063f2fde38b14611081578063f5494bb9146110a1578063f99a6bb5146110c1578063f9db8be7146110e1578063fc2a88c314611101578063fed7b27a1461111757600080fd5b8063d11a57ec14610fcb578063d547741f14610fed578063d6bb7ba01461100d578063d8f573cd1461102d578063e7a523c014611043578063e985e9c51461106157600080fd5b8063c87b56dd1161011e578063c87b56dd14610f08578063cc48b94714610f28578063cc98ef9614610f48578063ce8ab5df14610f68578063cec21acb14610f7e578063cfbd488514610fab57600080fd5b8063b88d4fde14610e50578063b911135f14610e70578063bd81009f14610ea6578063c138907214610ec6578063c28fb6b714610ef357600080fd5b806397125c40116101f3578063a1770a7d116101b7578063a1770a7d14610d8a578063a217fddf14610dc5578063a22cb46514610dda578063aa271e1a14610dfa578063abc8c7af14610e1a578063adf8627e14610e3a57600080fd5b806397125c4014610c76578063983b2d5614610cac5780639865027514610ccc5780639bd22cd814610ce1578063a168fa8914610d0157600080fd5b80638796ba8c116102455780638796ba8c14610be15780638ba24af014610c015780638f32d59b14610c1657806391490c4b14610c2b57806391d1485414610c4157806395d89b4114610c6157600080fd5b806375829def14610b2f5780637866369b14610b4f5780637fe6fde514610b7f5780638456cb5914610b9f5780638462151c14610bb457600080fd5b806336568abe116103be578063550d01a3116103305780636352211e116102e95780636352211e14610a4b57806363a8fd8914610a6b578063676f79f114610a8c5780637048027514610ac457806370a0823114610ae4578063715018a614610b1a57600080fd5b8063550d01a3146109815780635badbe4c146109b15780635c975abb146109c757806361d027b3146109e157806361f7f6d714610a01578063629296c514610a3657600080fd5b80633b19e84a116103825780633b19e84a146108c25780633f4ba83a146108e057806342842e0e146108f55780634d723a75146109155780634f557d271461093557806350d2a2761461094b57600080fd5b806336568abe146107f857806336b17e131461081857806337ed11db14610838578063384c252f14610858578063389ed2671461088e57600080fd5b806323b872dd116104575780632bbbe94d1161041b5780632bbbe94d1461072e5780632f2ff15d1461074c5780633092afd51461076c578063331580581461078c578063337d54a1146107ac57806333d608f1146107cc57600080fd5b806323b872dd1461067e578063248a9ca31461069e57806324d7806c146106ce578063276a28a3146106ee5780632b4656c81461070e57600080fd5b8063119868bb116104a9578063119868bb146105ac5780631785f53c146105e257806318160ddd146106025780631d3392e2146106255780631da0fc9c1461063b578063205fb1f81461064e57600080fd5b806301ffc9a7146104e65780630491fd3e1461051b57806306fdde0314610532578063081812fc14610554578063095ea7b31461058c575b600080fd5b3480156104f257600080fd5b50610506610501366004615d8c565b61112c565b60405190151581526020015b60405180910390f35b34801561052757600080fd5b5061053061113d565b005b34801561053e57600080fd5b50610547611182565b6040516105129190615df9565b34801561056057600080fd5b5061057461056f366004615e0c565b611214565b6040516001600160a01b039091168152602001610512565b34801561059857600080fd5b506105306105a7366004615e3c565b61123d565b3480156105b857600080fd5b506105746105c7366004615e0c565b600c602052600090815260409020546001600160a01b031681565b3480156105ee57600080fd5b506105306105fd366004615e66565b61124c565b34801561060e57600080fd5b5061061761127f565b604051908152602001610512565b34801561063157600080fd5b5061061760155481565b610506610649366004615e0c565b611296565b34801561065a57600080fd5b50610506610669366004615e66565b600d6020526000908152604090205460ff1681565b34801561068a57600080fd5b50610530610699366004615e81565b611911565b3480156106aa57600080fd5b506106176106b9366004615e0c565b60009081526024602052604090206001015490565b3480156106da57600080fd5b506105066106e9366004615e66565b61199c565b3480156106fa57600080fd5b50610506610709366004615e0c565b6119a8565b34801561071a57600080fd5b50610530610729366004615ebe565b6119da565b34801561073a57600080fd5b50601e546001600160a01b0316610574565b34801561075857600080fd5b50610530610767366004615f26565b611ade565b34801561077857600080fd5b50610530610787366004615e66565b611b03565b34801561079857600080fd5b506105066107a7366004615e3c565b611b40565b3480156107b857600080fd5b506105306107c7366004615e3c565b611c2e565b3480156107d857600080fd5b506107e36203345081565b60405163ffffffff9091168152602001610512565b34801561080457600080fd5b50610530610813366004615f26565b611d91565b34801561082457600080fd5b50601d54610574906001600160a01b031681565b34801561084457600080fd5b50610530610853366004615f52565b611dc9565b34801561086457600080fd5b50610574610873366004615e0c565b600b602052600090815260409020546001600160a01b031681565b34801561089a57600080fd5b506106177ffcb9fcbfa83b897fb2d5cf4b58962164105c1e71489a37ef3ae0db3fdce576f681565b3480156108ce57600080fd5b50601f546001600160a01b0316610574565b3480156108ec57600080fd5b50610530611e4d565b34801561090157600080fd5b50610530610910366004615e81565b611ef6565b34801561092157600080fd5b50610530610930366004615f82565b611f11565b34801561094157600080fd5b5061061760165481565b34801561095757600080fd5b50610574610966366004615d8c565b6023602052600090815260409020546001600160a01b031681565b34801561098d57600080fd5b5061050661099c366004615e66565b60226020526000908152604090205460ff1681565b3480156109bd57600080fd5b50610617601b5481565b3480156109d357600080fd5b506013546105069060ff1681565b3480156109ed57600080fd5b50601f54610574906001600160a01b031681565b348015610a0d57600080fd5b50610a21610a1c366004615e0c565b611f75565b60405161051299989796959493929190615fc8565b348015610a4257600080fd5b50601654610617565b348015610a5757600080fd5b50610574610a66366004615e0c565b6120ed565b348015610a7757600080fd5b5060205461050690600160a01b900460ff1681565b348015610a9857600080fd5b50610617610aa7366004615e3c565b601060209081526000928352604080842090915290825290205481565b348015610ad057600080fd5b50610530610adf366004615e66565b6120f8565b348015610af057600080fd5b50610617610aff366004615e66565b6001600160a01b03166000908152600a602052604090205490565b348015610b2657600080fd5b50610530612128565b348015610b3b57600080fd5b50610530610b4a366004615e66565b612158565b348015610b5b57600080fd5b50610506610b6a366004615e0c565b60116020526000908152604090205460ff1681565b348015610b8b57600080fd5b50610506610b9a366004615e0c565b61223a565b348015610bab57600080fd5b50610530612666565b348015610bc057600080fd5b50610bd4610bcf366004615e66565b61270c565b604051610512919061604b565b348015610bed57600080fd5b50610617610bfc366004615e0c565b61281d565b348015610c0d57600080fd5b50601854610617565b348015610c2257600080fd5b5061050661283e565b348015610c3757600080fd5b5061061760175481565b348015610c4d57600080fd5b50610506610c5c366004615f26565b612846565b348015610c6d57600080fd5b50610547612871565b348015610c8257600080fd5b50610574610c91366004615e0c565b6009602052600090815260409020546001600160a01b031681565b348015610cb857600080fd5b50610530610cc7366004615e66565b612880565b348015610cd857600080fd5b506105306128bd565b348015610ced57600080fd5b50610bd4610cfc3660046163ae565b6128d5565b348015610d0d57600080fd5b50610d57610d1c366004615e0c565b601260205260009081526040902080546001820154600283015460039093015460ff808416946101009094041692906001600160a01b031685565b60408051951515865293151560208601529284019190915260608301526001600160a01b0316608082015260a001610512565b348015610d9657600080fd5b50610506610da5366004615e3c565b600f60209081526000928352604080842090915290825290205460ff1681565b348015610dd157600080fd5b50610617600081565b348015610de657600080fd5b50610530610df53660046164ea565b613aab565b348015610e0657600080fd5b50610506610e15366004615e66565b613ab6565b348015610e2657600080fd5b50602054610574906001600160a01b031681565b348015610e4657600080fd5b5061061760185481565b348015610e5c57600080fd5b50610530610e6b366004616516565b613ad0565b348015610e7c57600080fd5b50610574610e8b366004615e0c565b6021602052600090815260409020546001600160a01b031681565b348015610eb257600080fd5b50610574610ec1366004615e0c565b613ae7565b348015610ed257600080fd5b50610617610ee1366004615e66565b600e6020526000908152604090205481565b348015610eff57600080fd5b50610bd4613b09565b348015610f1457600080fd5b50610547610f23366004615e0c565b613b21565b348015610f3457600080fd5b50601e54610574906001600160a01b031681565b348015610f5457600080fd5b50610530610f63366004615e66565b613ba9565b348015610f7457600080fd5b5061061760195481565b348015610f8a57600080fd5b50610617610f99366004615e66565b600a6020526000908152604090205481565b348015610fb757600080fd5b50610530610fc6366004615e66565b613bf0565b348015610fd757600080fd5b50610617600080516020616c5283398151915281565b348015610ff957600080fd5b50610530611008366004615f26565b613c29565b34801561101957600080fd5b50610530611028366004615e81565b613c4e565b34801561103957600080fd5b5061061760145481565b34801561104f57600080fd5b50601d546001600160a01b0316610574565b34801561106d57600080fd5b5061050661107c366004616591565b613e68565b34801561108d57600080fd5b5061053061109c366004615e66565b613e96565b3480156110ad57600080fd5b506106176110bc3660046165bb565b613ec4565b3480156110cd57600080fd5b506105306110dc366004615e0c565b613f55565b3480156110ed57600080fd5b506106176110fc3660046165e1565b6140f2565b34801561110d57600080fd5b50610617601c5481565b34801561112357600080fd5b50601754610617565b600061113782614898565b92915050565b60135460ff16156111695760405162461bcd60e51b81526004016111609061667b565b60405180910390fd5b602054611180906001600160a01b03166001613aab565b565b606060008054611191906166a5565b80601f01602080910402602001604051908101604052809291908181526020018280546111bd906166a5565b801561120a5780601f106111df5761010080835404028352916020019161120a565b820191906000526020600020905b8154815290600101906020018083116111ed57829003601f168201915b5050505050905090565b600061121f826148a3565b506000828152600460205260409020546001600160a01b0316611137565b6112488282336148dc565b5050565b6112553361199c565b6112715760405162461bcd60e51b8152600401611160906166d9565b61127c600082611d91565b50565b60075460009061129190600190616732565b905090565b60135460009060ff16156112bc5760405162461bcd60e51b81526004016111609061667b565b336112f85760405162461bcd60e51b815260206004820152600c60248201526b7a65726f206164647265737360a01b6044820152606401611160565b426007838154811061130c5761130c616745565b90600052602060002090600a020160040154106113775760405162461bcd60e51b815260206004820152602360248201527f47656d20636f6f6c646f776e20706572696f6420686173206e6f7420656c61706044820152621cd95960ea1b6064820152608401611160565b6007828154811061138a5761138a616745565b600091825260209091206006600a90920201015460ff16156113ff5760405162461bcd60e51b815260206004820152602860248201527f47656d206973206c697374656420666f722073616c65206f7220616c7265616460448201526779206d696e696e6760c01b6064820152608401611160565b336000908152600d602052604090205460ff16156114585760405162461bcd60e51b81526020600482015260166024820152757573657220697320616c7265616479206d696e696e6760501b6044820152606401611160565b6000828152600960205260409020546001600160a01b0316331461147b57600080fd5b6000806007848154811061149157611491616745565b90600052602060002090600a02016002016003600481106114b4576114b4616745565b602091828204019190069054906101000a900460ff16600785815481106114dd576114dd616745565b90600052602060002090600a020160020160026004811061150057611500616745565b602091828204019190069054906101000a900460ff166007868154811061152957611529616745565b90600052602060002090600a020160020160016004811061154c5761154c616745565b602091828204019190069054906101000a900460ff166007878154811061157557611575616745565b600091825260209091206002600a909202010154611596919060ff1661675b565b6115a0919061675b565b6115aa919061675b565b905060088160ff16116115c157601654915061167b565b60088160ff161180156115d85750600c8160ff1611155b156115e757601754915061167b565b600c8160ff161180156115fe575060108160ff1611155b1561160d57601854915061167b565b60108160ff16118015611624575060148160ff1611155b1561163357601954915061167b565b60405162461bcd60e51b815260206004820152601760248201527f47656d206e6f7420616c6c6f77656420746f204d696e650000000000000000006044820152606401611160565b601f54601e5461169a916001600160a01b0391821691339116856148e9565b336000818152600d602090815260408083208054600160ff199182168117909255600f84528285208a86528452828520805490911682179055848452601083528184208985528352818420429055938352600e9091529020859055600780548690811061170957611709616745565b60009182526020909120600a90910201600601805460ff191691151591909117905533321461176f5760405162461bcd60e51b815260206004820152601260248201527163616c6c6572206d75737420626520454f4160701b6044820152606401611160565b60008061177e62033450614943565b91509150803410156117c55760405162461bcd60e51b815260206004820152601060248201526f4e6f7420656e6f7567682066756e647360801b6044820152606401611160565b81600787815481106117d9576117d9616745565b600091825260208083206009600a909302019190910192909255838152601290915260409020805460ff191660019081178255600390910180546001600160a01b03191633179055601b80549091019055601c829055348110156118cb576000336118448334616732565b604051600081818185875af1925050503d8060008114611880576040519150601f19603f3d011682016040523d82523d6000602084013e611885565b606091505b50509050806118c95760405162461bcd60e51b815260206004820152601060248201526f6e6f7420656e6f7567682066756e647360801b6044820152606401611160565b505b604080518781523360208201527f2fce09d26d857788ba01b9b5f270871ba5d5bfa54e4880162dda018a0a1087ae910160405180910390a160019450505050505b919050565b6001600160a01b03821661193b57604051633250574960e11b815260006004820152602401611160565b6000611948838333614a7b565b9050836001600160a01b0316816001600160a01b031614611996576040516364283d7b60e01b81526001600160a01b0380861660048301526024820184905282166044820152606401611160565b50505050565b60006111378183612846565b6000600782815481106119bd576119bd616745565b600091825260209091206006600a90920201015460ff1692915050565b601d546001600160a01b031615611a335760405162461bcd60e51b815260206004820152601e60248201527f746974616e7773746f6e20616c726561647920696e697469616c697a656400006044820152606401611160565b601e546001600160a01b031615611a8c5760405162461bcd60e51b815260206004820152601760248201527f746f6e20616c726561647920696e697469616c697a65640000000000000000006044820152606401611160565b601d80546001600160a01b03199081166001600160a01b03998a1617909155601e8054821697891697909717909655601f80549096169490961693909317909355601655601791909155601855601955565b600082815260246020526040902060010154611af981614b76565b6119968383614b80565b611b0c3361199c565b611b285760405162461bcd60e51b8152600401611160906166d9565b61127c600080516020616c5283398151915282611d91565b6000611b4b3361199c565b611b675760405162461bcd60e51b8152600401611160906166d9565b601f5460405163048dbcef60e41b81526001600160a01b03858116600483015260248201859052909116906348dbcef0906044016020604051808303816000875af1158015611bba573d6000803e3d6000fd5b505050506040513d601f19601f82011682018060405250810190611bde9190616774565b611c255760405162461bcd60e51b81526020600482015260186024820152773330b4b632b2103a37903a3930b739b332b9103a37b5b2b760411b6044820152606401611160565b50600192915050565b601f546001600160a01b03163314611c585760405162461bcd60e51b815260040161116090616791565b60135460ff1615611c7b5760405162461bcd60e51b81526004016111609061667b565b6001600160a01b038216611c8e57600080fd5b336001600160a01b03831603611ca357600080fd5b60078181548110611cb657611cb6616745565b600091825260209091206006600a90920201015460ff1615611d0a5760405162461bcd60e51b815260206004820152600d60248201526c11d95b481a5cc81b1bd8dad959609a1b6044820152606401611160565b6000818152600960205260409020546001600160a01b03163314611d2d57600080fd5b611d38338383614c14565b611d43338383611ef6565b604080513381526001600160a01b03841660208201529081018290527f85d07a7616aea29f5d972fd9100b991c224490bd49b737377d908f66f34d9afd906060015b60405180910390a15050565b6001600160a01b0381163314611dba5760405163334bd91960e11b815260040160405180910390fd5b611dc48282614cbd565b505050565b336001600160a01b037f00000000000000000000000000000000000000000000000000000000000000001614611e435760405163073e64fd60e21b81523360048201526001600160a01b037f0000000000000000000000000000000000000000000000000000000000000000166024820152604401611160565b6112488282614d2a565b611e777ffcb9fcbfa83b897fb2d5cf4b58962164105c1e71489a37ef3ae0db3fdce576f633612846565b611e935760405162461bcd60e51b8152600401611160906167de565b60135460ff1615611eb65760405162461bcd60e51b81526004016111609061667b565b6013805460ff191690556040513381527f5db9ee0a495bf2e6ff9c91a7834c1ba4fdd244a5e8aa4e537bd38aeae4b073aa906020015b60405180910390a1565b611dc483838360405180602001604052806000815250613ad0565b6020546001600160a01b03163314611f3b5760405162461bcd60e51b815260040161116090616791565b8060078381548110611f4f57611f4f616745565b60009182526020909120600a90910201600601805460ff19169115159190911790555050565b60078181548110611f8557600080fd5b60009182526020909120600a909102018054600182015460038301805492945060ff9091169291611fb5906166a5565b80601f0160208091040260200160405190810160405280929190818152602001828054611fe1906166a5565b801561202e5780601f106120035761010080835404028352916020019161202e565b820191906000526020600020905b81548152906001019060200180831161201157829003601f168201915b50505060048401546005850154600686015460078701546008880180549798949793965060ff90921694509291612064906166a5565b80601f0160208091040260200160405190810160405280929190818152602001828054612090906166a5565b80156120dd5780601f106120b2576101008083540402835291602001916120dd565b820191906000526020600020905b8154815290600101906020018083116120c057829003601f168201915b5050505050908060090154905089565b6000611137826148a3565b6121013361199c565b61211d5760405162461bcd60e51b8152600401611160906166d9565b61127c600082611ade565b6121313361199c565b61214d5760405162461bcd60e51b8152600401611160906166d9565b611180600033611d91565b6121613361199c565b61217d5760405162461bcd60e51b8152600401611160906166d9565b6001600160a01b0381166121d35760405162461bcd60e51b815260206004820152601860248201527f41636365737369626c653a207a65726f206164647265737300000000000000006044820152606401611160565b6001600160a01b03811633036122245760405162461bcd60e51b815260206004820152601660248201527520b1b1b2b9b9b4b136329d1039b0b6b29030b236b4b760511b6044820152606401611160565b61222f600082611ade565b61127c600033611d91565b60135460009060ff16156122605760405162461bcd60e51b81526004016111609061667b565b6000828152600960205260409020546001600160a01b031633146122b65760405162461bcd60e51b815260206004820152600d60248201526c3737ba1023a2a69037bbb732b960991b6044820152606401611160565b600782815481106122c9576122c9616745565b90600052602060002090600a02016009015460000361232a5760405162461bcd60e51b815260206004820181905260248201527f6e6f2072616e646f6d207265717565737420666f72207468697320746f6b656e6044820152606401611160565b336000908152600f6020908152604080832085845290915290205460ff1615156001146123995760405162461bcd60e51b815260206004820152601b60248201527f75736572206973206e6f74206d696e696e6720746869732047656d00000000006044820152606401611160565b600782815481106123ac576123ac616745565b600091825260208083206005600a9093020191909101543383526010825260408084208685529092529120546123e29190616821565b42116124305760405162461bcd60e51b815260206004820152601d60248201527f6d696e696e6720706572696f6420686173206e6f7420656c61707365640000006044820152606401611160565b6007828154811061244357612443616745565b600091825260209091206006600a90920201015460ff1615156001146124a05760405162461bcd60e51b815260206004820152601260248201527147656d73206973206e6f74206d696e696e6760701b6044820152606401611160565b336000818152600d60209081526040808320805460ff19908116909155600f8352818420878552835281842080549091169055838352601082528083208684528252808320839055928252600e9052908120819055600780548490811061250957612509616745565b600091825260208220600a9190910201600601805460ff191692151592909217909155600780548490811061254057612540616745565b60009182526020808320600a9290920290910160090154601f54818452601290925260409283902060020154925163048dbcef60e41b8152336004820152602481019390935292506001600160a01b0316906348dbcef0906044016020604051808303816000875af11580156125ba573d6000803e3d6000fd5b505050506040513d601f19601f820116820180604052508101906125de9190616774565b6126255760405162461bcd60e51b81526020600482015260186024820152773330b4b632b2103a37903a3930b739b332b9103a37b5b2b760411b6044820152606401611160565b604080518481523360208201527f97b363697f59781efcf0539a3eeabceea1e3b444e248009d3730fa6a26db9c24910160405180910390a150600192915050565b6126907ffcb9fcbfa83b897fb2d5cf4b58962164105c1e71489a37ef3ae0db3fdce576f633612846565b6126ac5760405162461bcd60e51b8152600401611160906167de565b60135460ff16156126cf5760405162461bcd60e51b81526004016111609061667b565b6013805460ff191660011790556040513381527f62e78cea01bee320cd4e420270b5ea74000d11b0c9f74754ebdbfc544b05a25890602001611eec565b6060600061272f836001600160a01b03166000908152600a602052604090205490565b90508060000361274f575050604080516000815260208101909152919050565b6000816001600160401b038111156127695761276961608e565b604051908082528060200260200182016040528015612792578160200160208202803683370190505b509050600061279f61127f565b9050600060015b82811161280c576000818152600960205260409020546001600160a01b038089169116036127fa57808483815181106127e1576127e1616745565b6020908102919091010152816127f681616834565b9250505b8061280481616834565b9150506127a6565b509195945050505050565b50919050565b601a818154811061282d57600080fd5b600091825260209091200154905081565b600061129181335b60009182526024602090815260408084206001600160a01b0393909316845291905290205460ff1690565b606060018054611191906166a5565b6128893361199c565b6128a55760405162461bcd60e51b8152600401611160906166d9565b61127c600080516020616c5283398151915282611ade565b611180600080516020616c5283398151915233611d91565b601f546060906001600160a01b031633146129025760405162461bcd60e51b815260040161116090616791565b60135460ff16156129255760405162461bcd60e51b81526004016111609061667b565b86518851148015612937575085518751145b8015612944575084518651145b8015612951575083518551145b801561295e575082518451145b801561296b575081518351145b6129c65760405162461bcd60e51b815260206004820152602660248201527f496e70757420617272617973206d7573742068617665207468652073616d65206044820152650d8cadccee8d60d31b6064820152608401611160565b600086516001600160401b038111156129e1576129e161608e565b604051908082528060200260200182016040528015612a0a578160200160208202803683370190505b50905060005b8751811015613a9e576000878281518110612a2d57612a2d616745565b6020026020010151600360048110612a4757612a47616745565b6020020151888381518110612a5e57612a5e616745565b6020026020010151600260048110612a7857612a78616745565b6020020151898481518110612a8f57612a8f616745565b6020026020010151600160048110612aa957612aa9616745565b60200201518a8581518110612ac057612ac0616745565b6020026020010151600060048110612ada57612ada616745565b6020020151612ae9919061675b565b612af3919061675b565b612afd919061675b565b905060008b8381518110612b1357612b13616745565b60200260200101516005811115612b2c57612b2c615fb2565b03612d3657878281518110612b4357612b43616745565b6020026020010151600060048110612b5d57612b5d616745565b602002015160ff1660011480612ba65750878281518110612b8057612b80616745565b6020026020010151600060048110612b9a57612b9a616745565b602002015160ff166002145b8015612c225750878281518110612bbf57612bbf616745565b6020026020010151600160048110612bd957612bd9616745565b602002015160ff1660011480612c225750878281518110612bfc57612bfc616745565b6020026020010151600160048110612c1657612c16616745565b602002015160ff166002145b8015612c9e5750878281518110612c3b57612c3b616745565b6020026020010151600260048110612c5557612c55616745565b602002015160ff1660011480612c9e5750878281518110612c7857612c78616745565b6020026020010151600260048110612c9257612c92616745565b602002015160ff166002145b8015612d1a5750878281518110612cb757612cb7616745565b6020026020010151600360048110612cd157612cd1616745565b602002015160ff1660011480612d1a5750878281518110612cf457612cf4616745565b6020026020010151600360048110612d0e57612d0e616745565b602002015160ff166002145b612d365760405162461bcd60e51b81526004016111609061684d565b60018b8381518110612d4a57612d4a616745565b60200260200101516005811115612d6357612d63615fb2565b03612f6d57878281518110612d7a57612d7a616745565b6020026020010151600060048110612d9457612d94616745565b602002015160ff1660021480612ddd5750878281518110612db757612db7616745565b6020026020010151600060048110612dd157612dd1616745565b602002015160ff166003145b8015612e595750878281518110612df657612df6616745565b6020026020010151600160048110612e1057612e10616745565b602002015160ff1660021480612e595750878281518110612e3357612e33616745565b6020026020010151600160048110612e4d57612e4d616745565b602002015160ff166003145b8015612ed55750878281518110612e7257612e72616745565b6020026020010151600260048110612e8c57612e8c616745565b602002015160ff1660021480612ed55750878281518110612eaf57612eaf616745565b6020026020010151600260048110612ec957612ec9616745565b602002015160ff166003145b8015612f515750878281518110612eee57612eee616745565b6020026020010151600360048110612f0857612f08616745565b602002015160ff1660021480612f515750878281518110612f2b57612f2b616745565b6020026020010151600360048110612f4557612f45616745565b602002015160ff166003145b612f6d5760405162461bcd60e51b81526004016111609061689b565b60028b8381518110612f8157612f81616745565b60200260200101516005811115612f9a57612f9a615fb2565b036131a457878281518110612fb157612fb1616745565b6020026020010151600060048110612fcb57612fcb616745565b602002015160ff16600314806130145750878281518110612fee57612fee616745565b602002602001015160006004811061300857613008616745565b602002015160ff166004145b8015613090575087828151811061302d5761302d616745565b602002602001015160016004811061304757613047616745565b602002015160ff1660031480613090575087828151811061306a5761306a616745565b602002602001015160016004811061308457613084616745565b602002015160ff166004145b801561310c57508782815181106130a9576130a9616745565b60200260200101516002600481106130c3576130c3616745565b602002015160ff166003148061310c57508782815181106130e6576130e6616745565b602002602001015160026004811061310057613100616745565b602002015160ff166004145b8015613188575087828151811061312557613125616745565b602002602001015160036004811061313f5761313f616745565b602002015160ff1660031480613188575087828151811061316257613162616745565b602002602001015160036004811061317c5761317c616745565b602002015160ff166004145b6131a45760405162461bcd60e51b8152600401611160906168e7565b60038b83815181106131b8576131b8616745565b602002602001015160058111156131d1576131d1615fb2565b036133db578782815181106131e8576131e8616745565b602002602001015160006004811061320257613202616745565b602002015160ff166004148061324b575087828151811061322557613225616745565b602002602001015160006004811061323f5761323f616745565b602002015160ff166005145b80156132c7575087828151811061326457613264616745565b602002602001015160016004811061327e5761327e616745565b602002015160ff16600414806132c757508782815181106132a1576132a1616745565b60200260200101516001600481106132bb576132bb616745565b602002015160ff166005145b801561334357508782815181106132e0576132e0616745565b60200260200101516002600481106132fa576132fa616745565b602002015160ff1660041480613343575087828151811061331d5761331d616745565b602002602001015160026004811061333757613337616745565b602002015160ff166005145b80156133bf575087828151811061335c5761335c616745565b602002602001015160036004811061337657613376616745565b602002015160ff16600414806133bf575087828151811061339957613399616745565b60200260200101516003600481106133b3576133b3616745565b602002015160ff166005145b6133db5760405162461bcd60e51b815260040161116090616935565b60048b83815181106133ef576133ef616745565b6020026020010151600581111561340857613408615fb2565b036136355787828151811061341f5761341f616745565b602002602001015160006004811061343957613439616745565b602002015160ff1660051480613482575087828151811061345c5761345c616745565b602002602001015160006004811061347657613476616745565b602002015160ff166006145b80156134fe575087828151811061349b5761349b616745565b60200260200101516001600481106134b5576134b5616745565b602002015160ff16600514806134fe57508782815181106134d8576134d8616745565b60200260200101516001600481106134f2576134f2616745565b602002015160ff166006145b801561357a575087828151811061351757613517616745565b602002602001015160026004811061353157613531616745565b602002015160ff166005148061357a575087828151811061355457613554616745565b602002602001015160026004811061356e5761356e616745565b602002015160ff166006145b80156135f6575087828151811061359357613593616745565b60200260200101516003600481106135ad576135ad616745565b602002015160ff16600514806135f657508782815181106135d0576135d0616745565b60200260200101516003600481106135ea576135ea616745565b602002015160ff166006145b6136125760405162461bcd60e51b815260040161116090616981565b60188160ff16106136355760405162461bcd60e51b8152600401611160906169d2565b60058b838151811061364957613649616745565b6020026020010151600581111561366257613662615fb2565b036137775787828151811061367957613679616745565b602002602001015160006004811061369357613693616745565b602002015160ff1660061480156136dd57508782815181106136b7576136b7616745565b60200260200101516001600481106136d1576136d1616745565b602002015160ff166006145b801561371c57508782815181106136f6576136f6616745565b602002602001015160026004811061371057613710616745565b602002015160ff166006145b801561375b575087828151811061373557613735616745565b602002602001015160036004811061374f5761374f616745565b602002015160ff166006145b6137775760405162461bcd60e51b815260040161116090616a16565b6000604051806101400160405280600081526020018d858151811061379e5761379e616745565b602002602001015160058111156137b7576137b7615fb2565b81526020018a85815181106137ce576137ce616745565b602002602001015181526020018c85815181106137ed576137ed616745565b6020026020010151815260200188858151811061380c5761380c616745565b60200260200101514261381f9190616821565b815260200189858151811061383657613836616745565b602002602001015181526020016000151581526020018b858151811061385e5761385e616745565b6020026020010151815260200187858151811061387d5761387d616745565b602090810291909101810151825260009181018290526007805460018181018355919093528351600a9093027fa66cc928b5edb82af9bd49922954155ab7b0942694bea4ce44661d9a8736c6888101938455918401517fa66cc928b5edb82af9bd49922954155ab7b0942694bea4ce44661d9a8736c68990920180549495508594909160ff199091169083600581111561391957613919615fb2565b021790555060408201516139339060028301906004615c98565b50606082015160038201906139489082616aa6565b506080820151600482015560a0820151600582015560c082015160068201805460ff191691151591909117905560e0820151600782015561010082015160088201906139949082616aa6565b5061012091909101516009909101556007546000906139b590600190616732565b90508063ffffffff1681146139c957600080fd5b63ffffffff81168252600081815260096020908152604080832080546001600160a01b031916339081179091558352600a9091528120805491613a0b83616834565b9190505550613a1a3382614ec2565b613a3d81888681518110613a3057613a30616745565b6020026020010151614edc565b604080518281523360208201527f7757890bcab34d673dfca6b71df1b57f75a2fe4231d6e8de726caf534ab1fdd6910160405180910390a180858581518110613a8857613a88616745565b6020908102919091010152505050600101612a10565b5098975050505050505050565b611248338383614f25565b6000611137600080516020616c5283398151915283612846565b613adb848484611911565b61199684848484614fc4565b6000818152600960205260409020546001600160a01b03168061190c57600080fd5b601f54606090611291906001600160a01b031661270c565b6000818152600960205260409020546060906001600160a01b0316613ba05760405162461bcd60e51b815260206004820152602f60248201527f4552433732314d657461646174613a2055524920717565727920666f72206e6f60448201526e3732bc34b9ba32b73a103a37b5b2b760891b6064820152608401611160565b611137826150ed565b613bb23361199c565b613bce5760405162461bcd60e51b8152600401611160906166d9565b602080546001600160a01b0319166001600160a01b0392909216919091179055565b613bf93361199c565b613c155760405162461bcd60e51b8152600401611160906166d9565b61127c600080516020616c52833981519152825b600082815260246020526040902060010154613c4481614b76565b6119968383614cbd565b6020546001600160a01b03163314613c785760405162461bcd60e51b815260040161116090616791565b60135460ff1615613c9b5760405162461bcd60e51b81526004016111609061667b565b6000818152600960205260409020546001600160a01b0316613cf85760405162461bcd60e51b815260206004820152601660248201527522a9219b9918a737b732bc34b9ba32b73a2a37b5b2b760511b6044820152606401611160565b60078181548110613d0b57613d0b616745565b600091825260209091206006600a90920201015460ff1615613d5f5760405162461bcd60e51b815260206004820152600d60248201526c11d95b481a5cc81b1bd8dad959609a1b6044820152606401611160565b6000818152600960205260409020546001600160a01b03848116911614613dba5760405162461bcd60e51b815260206004820152600f60248201526e2737ba103a37b5b2b71037bbb732b960891b6044820152606401611160565b6001600160a01b038216613e025760405162461bcd60e51b815260206004820152600f60248201526e496e76616c6964206164647265737360881b6044820152606401611160565b613e0d838383614c14565b613e18838383611ef6565b604080516001600160a01b038086168252841660208201529081018290527f85d07a7616aea29f5d972fd9100b991c224490bd49b737377d908f66f34d9afd9060600160405180910390a1505050565b6001600160a01b03918216600090815260056020908152604080832093909416825291909152205460ff1690565b613e9f3361199c565b613ebb5760405162461bcd60e51b8152600401611160906166d9565b61127c81612158565b6040516315ae5acd60e11b815263ffffffff821660048201526000907f00000000000000000000000000000000000000000000000000000000000000006001600160a01b031690632b5cb59a90602401602060405180830381865afa158015613f31573d6000803e3d6000fd5b505050506040513d601f19601f820116820180604052508101906111379190616b64565b60135460ff1615613f785760405162461bcd60e51b81526004016111609061667b565b33613fb45760405162461bcd60e51b815260206004820152600c60248201526b7a65726f206164647265737360a01b6044820152606401611160565b6000818152600960205260409020546001600160a01b03163314613fd757600080fd5b600060078281548110613fec57613fec616745565b90600052602060002090600a020160070154905061400a33836151fe565b601f54604051630169dc3160e01b8152336004820152602481018390526001600160a01b0390911690630169dc31906044016020604051808303816000875af115801561405b573d6000803e3d6000fd5b505050506040513d601f19601f8201168201806040525081019061407f9190616774565b6140bd5760405162461bcd60e51b815260206004820152600f60248201526e1d1c985b9cd9995c8819985a5b1959608a1b6044820152606401611160565b604080518381523360208201527f65aff8e0552d208dfaf55b1280e55553b7dba628290897ff43c8f086d5dbfd2a9101611d85565b601f546000906001600160a01b0316331461411f5760405162461bcd60e51b815260040161116090616791565b60135460ff16156141425760405162461bcd60e51b81526004016111609061667b565b606085015160408601516020870151875160009392916141619161675b565b61416b919061675b565b614175919061675b565b9050600089600581111561418b5761418b615fb2565b0361424057855160ff16600114806141a75750855160ff166002145b80156141ce5750602086015160ff16600114806141ce5750856001602002015160ff166002145b80156141f55750856002602002015160ff16600114806141f55750604086015160ff166002145b801561421f5750856003602002015160ff166001148061421f5750856003602002015160ff166002145b61423b5760405162461bcd60e51b81526004016111609061684d565b614638565b600189600581111561425457614254615fb2565b0361430457855160ff16600214806142705750855160ff166003145b801561429a5750856001602002015160ff166002148061429a5750856001602002015160ff166003145b80156142c15750604086015160ff16600214806142c15750856002602002015160ff166003145b80156142e85750856003602002015160ff16600214806142e85750606086015160ff166003145b61423b5760405162461bcd60e51b81526004016111609061689b565b600289600581111561431857614318615fb2565b036143cb57855160ff16600314806143345750855160ff166004145b801561435e5750856001602002015160ff166003148061435e5750856001602002015160ff166004145b80156143885750856002602002015160ff16600314806143885750856002602002015160ff166004145b80156143af5750606086015160ff16600314806143af5750856003602002015160ff166004145b61423b5760405162461bcd60e51b8152600401611160906168e7565b60038960058111156143df576143df615fb2565b0361449557855160ff16600414806143fb5750855160ff166005145b80156144255750856001602002015160ff16600414806144255750856001602002015160ff166005145b801561444f5750856002602002015160ff166004148061444f5750856002602002015160ff166005145b80156144795750856003602002015160ff16600414806144795750856003602002015160ff166005145b61423b5760405162461bcd60e51b815260040161116090616935565b60048960058111156144a9576144a9615fb2565b0361458257855160ff16600514806144c55750855160ff166006145b80156144ef5750856001602002015160ff16600514806144ef5750856001602002015160ff166006145b80156145195750856002602002015160ff16600514806145195750856002602002015160ff166006145b80156145435750856003602002015160ff16600514806145435750856003602002015160ff166006145b61455f5760405162461bcd60e51b815260040161116090616981565b60188160ff161061423b5760405162461bcd60e51b8152600401611160906169d2565b600589600581111561459657614596615fb2565b0361460157855160ff1660061480156145b95750856001602002015160ff166006145b80156145cf5750856002602002015160ff166006145b80156145e55750856003602002015160ff166006145b61423b5760405162461bcd60e51b815260040161116090616a16565b60405162461bcd60e51b815260206004820152600c60248201526b77726f6e672052617269747960a01b6044820152606401611160565b6000604051806101400160405280600081526020018b600581111561465f5761465f615fb2565b81526020018881526020018a8152602001864261467c9190616821565b81526020808201899052600060408301819052606083018c90526080830188905260a09092018290526007805460018181018355919093528351600a9093027fa66cc928b5edb82af9bd49922954155ab7b0942694bea4ce44661d9a8736c6888101938455918401517fa66cc928b5edb82af9bd49922954155ab7b0942694bea4ce44661d9a8736c68990920180549495508594909160ff199091169083600581111561472b5761472b615fb2565b021790555060408201516147459060028301906004615c98565b506060820151600382019061475a9082616aa6565b506080820151600482015560a0820151600582015560c082015160068201805460ff191691151591909117905560e0820151600782015561010082015160088201906147a69082616aa6565b5061012091909101516009909101556007546000906147c790600190616732565b905080600782815481106147dd576147dd616745565b60009182526020909120600a909102015563ffffffff8116811461480057600080fd5b600081815260096020908152604080832080546001600160a01b031916339081179091558352600a909152812080549161483983616834565b91905055506148483382614ec2565b6148528186614edc565b604080518281523360208201527f7757890bcab34d673dfca6b71df1b57f75a2fe4231d6e8de726caf534ab1fdd6910160405180910390a19a9950505050505050505050565b6000611137826152ef565b6000818152600260205260408120546001600160a01b03168061113757604051637e27328960e01b815260048101849052602401611160565b611dc48383836001615314565b604080516001600160a01b0385811660248301528416604482015260648082018490528251808303909101815260849091019091526020810180516001600160e01b03166323b872dd60e01b17905261199690859061541a565b6040516315ae5acd60e11b815263ffffffff82166004820152600090819081906001600160a01b037f00000000000000000000000000000000000000000000000000000000000000001690632b5cb59a90602401602060405180830381865afa1580156149b4573d6000803e3d6000fd5b505050506040513d601f19601f820116820180604052508101906149d89190616b64565b604051637072b97760e01b815263ffffffff861660048201529091506000906001600160a01b037f00000000000000000000000000000000000000000000000000000000000000001690637072b97790849060240160206040518083038185885af1158015614a4b573d6000803e3d6000fd5b50505050506040513d601f19601f82011682018060405250810190614a709190616b64565b959194509092505050565b6000828152600260205260408120546001600160a01b0390811690831615614aa857614aa881848661547d565b6001600160a01b03811615614ae657614ac5600085600080615314565b6001600160a01b038116600090815260036020526040902080546000190190555b6001600160a01b03851615614b15576001600160a01b0385166000908152600360205260409020805460010190555b60008481526002602052604080822080546001600160a01b0319166001600160a01b0389811691821790925591518793918516917fddf252ad1be2c89b69c2b068fc378daa952ba7f163c4a11628f55a4df523b3ef91a490505b9392505050565b61127c81336154e1565b6000614b8c8383612846565b614c0c5760008381526024602090815260408083206001600160a01b03861684529091529020805460ff19166001179055614bc43390565b6001600160a01b0316826001600160a01b0316847f2f8788117e7eff1d82e926ec794901d17c78024a50270940304540a733656f0d60405160405180910390a4506001611137565b506000611137565b6001600160a01b0382166000908152600a60205260408120805491614c3883616834565b9091555050600081815260096020908152604080832080546001600160a01b0319166001600160a01b038781169190911790915586168352600a9091528120805491614c8383616b7d565b90915550506000908152600c6020908152604080832080546001600160a01b0319908116909155600b909252909120805490911690555050565b6000614cc98383612846565b15614c0c5760008381526024602090815260408083206001600160a01b0386168085529252808320805460ff1916905551339286917ff6391f5c32d9c69d2a47ea670b442974b53935d1edc7fd64eb21e047a839171b9190a4506001611137565b60008281526012602052604090205460ff16614d7b5760405162461bcd60e51b815260206004820152601060248201526f52657175657374206e6f74206d61646560801b6044820152606401611160565b60008281526012602090815260408083206003810154815461ff00191661010017825560019091018590556001600160a01b0316808452600e909252822054600780549293929091908110614dd257614dd2616745565b60009182526020822060408051608081019182905293600a90930290910160020191600491908390855b825461010083900a900460ff16815260206001928301818104948501949093039092029101808411614dfc57905050505050509050600080614e6783600060048110614e4a57614e4a616745565b60209081029190910151908501516040860151606087015161551a565b90925090506000614e788387616b94565b614e83906001616821565b9050818181518110614e9757614e97616745565b6020026020010151601260008981526020019081526020016000206002018190555050505050505050565b6112488282604051806020016040528060008152506157fb565b6000828152600660205260409020614ef48282616aa6565b506040518281527ff8e1a15aba9398e019f0b49df1a4fde98ee17ae345cb5f6b5e2c27f5033e8ce790602001611d85565b6001600160a01b038216614f5757604051630b61174360e31b81526001600160a01b0383166004820152602401611160565b6001600160a01b03838116600081815260056020908152604080832094871680845294825291829020805460ff191686151590811790915591519182527f17307eab39ab6107e8899845ad3d59bd9653f200f220920489ca2b5937696c31910160405180910390a3505050565b6001600160a01b0383163b1561199657604051630a85bd0160e11b81526001600160a01b0384169063150b7a0290615006903390889087908790600401616bb6565b6020604051808303816000875af1925050508015615041575060408051601f3d908101601f1916820190925261503e91810190616be9565b60015b6150aa573d80801561506f576040519150601f19603f3d011682016040523d82523d6000602084013e615074565b606091505b5080516000036150a257604051633250574960e11b81526001600160a01b0385166004820152602401611160565b805181602001fd5b6001600160e01b03198116630a85bd0160e11b146150e657604051633250574960e11b81526001600160a01b0385166004820152602401611160565b5050505050565b60606150f8826148a3565b5060008281526006602052604081208054615112906166a5565b80601f016020809104026020016040519081016040528092919081815260200182805461513e906166a5565b801561518b5780601f106151605761010080835404028352916020019161518b565b820191906000526020600020905b81548152906001019060200180831161516e57829003601f168201915b5050505050905060006151a960408051602081019091526000815290565b905080516000036151bb575092915050565b8151156151ed5780826040516020016151d5929190616c06565b60405160208183030381529060405292505050919050565b6151f684615812565b949350505050565b6007818154811061521157615211616745565b600091825260208220600a9091020181815560018101805460ff191690556002810182905590615245600383016000615d2b565b6000600483018190556005830181905560068301805460ff1916905560078301819055615276906008840190615d2b565b5060006009919091018190556001600160a01b0383168152600a602052604081208054916152a383616b7d565b9091555050600081815260096020908152604080832080546001600160a01b0319908116909155600c8352818420805482169055600b9092529091208054909116905561124881615886565b60006001600160e01b03198216637965db0b60e01b14806111375750611137826158c1565b808061532857506001600160a01b03821615155b156153ea576000615338846148a3565b90506001600160a01b038316158015906153645750826001600160a01b0316816001600160a01b031614155b801561537757506153758184613e68565b155b156153a05760405163a9fbf51f60e01b81526001600160a01b0384166004820152602401611160565b81156153e85783856001600160a01b0316826001600160a01b03167f8c5be1e5ebec7d5bd14f71427d1e84f3dd0314c0f7b2291e5b200ac8c7c3b92560405160405180910390a45b505b5050600090815260046020526040902080546001600160a01b0319166001600160a01b0392909216919091179055565b600061542f6001600160a01b038416836158e6565b905080516000141580156154545750808060200190518101906154529190616774565b155b15611dc457604051635274afe760e01b81526001600160a01b0384166004820152602401611160565b6154888383836158f4565b611dc4576001600160a01b0383166154b657604051637e27328960e01b815260048101829052602401611160565b60405163177e802f60e01b81526001600160a01b038316600482015260248101829052604401611160565b6154eb8282612846565b6112485760405163e2517d3f60e01b81526001600160a01b038216600482015260248101839052604401611160565b600060606000806007805490506001600160401b0381111561553e5761553e61608e565b604051908082528060200260200182016040528015615567578160200160208202803683370190505b50905060008086886155798b8d61675b565b615583919061675b565b61558d919061675b565b905060005b600754811015615758576000600782815481106155b1576155b1616745565b90600052602060002090600a02016002016003600481106155d4576155d4616745565b602091828204019190069054906101000a900460ff16600783815481106155fd576155fd616745565b90600052602060002090600a020160020160026004811061562057615620616745565b602091828204019190069054906101000a900460ff166007848154811061564957615649616745565b90600052602060002090600a020160020160016004811061566c5761566c616745565b602091828204019190069054906101000a900460ff166007858154811061569557615695616745565b600091825260209091206002600a9092020101546156b6919060ff1661675b565b6156c0919061675b565b6156ca919061675b565b90508260ff168160ff161080156156fd5750601f546000838152600960205260409020546001600160a01b039081169116145b1561574f576007828154811061571557615715616745565b90600052602060002090600a02016000015485858151811061573957615739616745565b6020908102919091010152600195860195909301925b50600101615592565b506000846001600160401b038111156157735761577361608e565b60405190808252806020026020018201604052801561579c578160200160208202803683370190505b50905060005b858110156157e9578481815181106157bc576157bc616745565b60200260200101518282815181106157d6576157d6616745565b60209081029190910101526001016157a2565b50939a93995092975050505050505050565b6158058383615957565b611dc46000848484614fc4565b606061581d826148a3565b50600061583560408051602081019091526000815290565b905060008151116158555760405180602001604052806000815250614b6f565b8061585f846159bc565b604051602001615870929190616c06565b6040516020818303038152906040529392505050565b60006158956000836000614a7b565b90506001600160a01b03811661124857604051637e27328960e01b815260048101839052602401611160565b60006001600160e01b03198216632483248360e11b1480611137575061113782615a4e565b6060614b6f83836000615a9e565b60006001600160a01b038316158015906151f65750826001600160a01b0316846001600160a01b0316148061592e575061592e8484613e68565b806151f65750506000908152600460205260409020546001600160a01b03908116911614919050565b6001600160a01b03821661598157604051633250574960e11b815260006004820152602401611160565b600061598f83836000614a7b565b90506001600160a01b03811615611dc4576040516339e3563760e11b815260006004820152602401611160565b606060006159c983615b3b565b60010190506000816001600160401b038111156159e8576159e861608e565b6040519080825280601f01601f191660200182016040528015615a12576020820181803683370190505b5090508181016020015b600019016f181899199a1a9b1b9c1cb0b131b232b360811b600a86061a8153600a8504945084615a1c57509392505050565b60006001600160e01b031982166380ac58cd60e01b1480615a7f57506001600160e01b03198216635b5e139f60e01b145b8061113757506301ffc9a760e01b6001600160e01b0319831614611137565b606081471015615ac35760405163cd78605960e01b8152306004820152602401611160565b600080856001600160a01b03168486604051615adf9190616c35565b60006040518083038185875af1925050503d8060008114615b1c576040519150601f19603f3d011682016040523d82523d6000602084013e615b21565b606091505b5091509150615b31868383615c13565b9695505050505050565b60008072184f03e93ff9f4daa797ed6e38ed64bf6a1f0160401b8310615b7a5772184f03e93ff9f4daa797ed6e38ed64bf6a1f0160401b830492506040015b6d04ee2d6d415b85acef81000000008310615ba6576d04ee2d6d415b85acef8100000000830492506020015b662386f26fc100008310615bc457662386f26fc10000830492506010015b6305f5e1008310615bdc576305f5e100830492506008015b6127108310615bf057612710830492506004015b60648310615c02576064830492506002015b600a83106111375760010192915050565b606082615c2857615c2382615c6f565b614b6f565b8151158015615c3f57506001600160a01b0384163b155b15615c6857604051639996b31560e01b81526001600160a01b0385166004820152602401611160565b5080614b6f565b805115615c7f5780518082602001fd5b604051630a12f52160e11b815260040160405180910390fd5b600183019183908215615d1b5791602002820160005b83821115615cec57835183826101000a81548160ff021916908360ff1602179055509260200192600101602081600001049283019260010302615cae565b8015615d195782816101000a81549060ff0219169055600101602081600001049283019260010302615cec565b505b50615d27929150615d61565b5090565b508054615d37906166a5565b6000825580601f10615d47575050565b601f01602090049060005260206000209081019061127c91905b5b80821115615d275760008155600101615d62565b6001600160e01b03198116811461127c57600080fd5b600060208284031215615d9e57600080fd5b8135614b6f81615d76565b60005b83811015615dc4578181015183820152602001615dac565b50506000910152565b60008151808452615de5816020860160208601615da9565b601f01601f19169290920160200192915050565b602081526000614b6f6020830184615dcd565b600060208284031215615e1e57600080fd5b5035919050565b80356001600160a01b038116811461190c57600080fd5b60008060408385031215615e4f57600080fd5b615e5883615e25565b946020939093013593505050565b600060208284031215615e7857600080fd5b614b6f82615e25565b600080600060608486031215615e9657600080fd5b615e9f84615e25565b9250615ead60208501615e25565b929592945050506040919091013590565b600080600080600080600060e0888a031215615ed957600080fd5b615ee288615e25565b9650615ef060208901615e25565b9550615efe60408901615e25565b969995985095966060810135965060808101359560a0820135955060c0909101359350915050565b60008060408385031215615f3957600080fd5b82359150615f4960208401615e25565b90509250929050565b60008060408385031215615f6557600080fd5b50508035926020909101359150565b801515811461127c57600080fd5b60008060408385031215615f9557600080fd5b823591506020830135615fa781615f74565b809150509250929050565b634e487b7160e01b600052602160045260246000fd5b898152600060068a10615feb57634e487b7160e01b600052602160045260246000fd5b896020830152610120604083015261600761012083018a615dcd565b88606084015287608084015286151560a08401528560c084015282810360e08401526160338186615dcd565b915050826101008301529a9950505050505050505050565b602080825282518282018190526000918401906040840190835b81811015616083578351835260209384019390920191600101616065565b509095945050505050565b634e487b7160e01b600052604160045260246000fd5b604051601f8201601f191681016001600160401b03811182821017156160cc576160cc61608e565b604052919050565b60006001600160401b038211156160ed576160ed61608e565b5060051b60200190565b80356006811061190c57600080fd5b600082601f83011261611757600080fd5b813561612a616125826160d4565b6160a4565b8082825260208201915060208360051b86010192508583111561614c57600080fd5b602085015b8381101561617057616162816160f7565b835260209283019201616151565b5095945050505050565b6000806001600160401b038411156161945761619461608e565b50601f8301601f19166020016161a9816160a4565b9150508281528383830111156161be57600080fd5b828260208301376000602084830101529392505050565b600082601f8301126161e657600080fd5b614b6f8383356020850161617a565b600082601f83011261620657600080fd5b8135616214616125826160d4565b8082825260208201915060208360051b86010192508583111561623657600080fd5b602085015b838110156161705780356001600160401b0381111561625957600080fd5b616268886020838a01016161d5565b8452506020928301920161623b565b600082601f83011261628857600080fd5b8135616296616125826160d4565b8082825260208201915060208360051b8601019250858311156162b857600080fd5b602085015b838110156161705780358352602092830192016162bd565b600082601f8301126162e657600080fd5b604051608081016001600160401b03811182821017156163085761630861608e565b60405280608084018581111561631d57600080fd5b845b8181101561280c57803560ff8116811461633857600080fd5b83526020928301920161631f565b600082601f83011261635757600080fd5b8135616365616125826160d4565b8082825260208201915060208360071b86010192508583111561638757600080fd5b602085015b838110156161705761639e87826162d5565b835260209092019160800161638c565b600080600080600080600060e0888a0312156163c957600080fd5b87356001600160401b038111156163df57600080fd5b6163eb8a828b01616106565b97505060208801356001600160401b0381111561640757600080fd5b6164138a828b016161f5565b96505060408801356001600160401b0381111561642f57600080fd5b61643b8a828b01616277565b95505060608801356001600160401b0381111561645757600080fd5b6164638a828b01616346565b94505060808801356001600160401b0381111561647f57600080fd5b61648b8a828b01616277565b93505060a08801356001600160401b038111156164a757600080fd5b6164b38a828b01616277565b92505060c08801356001600160401b038111156164cf57600080fd5b6164db8a828b016161f5565b91505092959891949750929550565b600080604083850312156164fd57600080fd5b61650683615e25565b91506020830135615fa781615f74565b6000806000806080858703121561652c57600080fd5b61653585615e25565b935061654360208601615e25565b92506040850135915060608501356001600160401b0381111561656557600080fd5b8501601f8101871361657657600080fd5b6165858782356020840161617a565b91505092959194509250565b600080604083850312156165a457600080fd5b6165ad83615e25565b9150615f4960208401615e25565b6000602082840312156165cd57600080fd5b813563ffffffff81168114614b6f57600080fd5b6000806000806000806000610140888a0312156165fd57600080fd5b616606886160f7565b965060208801356001600160401b0381111561662157600080fd5b61662d8a828b016161d5565b965050604088013594506166448960608a016162d5565b935060e0880135925061010088013591506101208801356001600160401b0381111561666f57600080fd5b6164db8a828b016161d5565b60208082526010908201526f14185d5cd8589b194e881c185d5cd95960821b604082015260600190565b600181811c908216806166b957607f821691505b60208210810361281757634e487b7160e01b600052602260045260246000fd5b60208082526023908201527f41757468436f6e74726f6c3a2043616c6c6572206973206e6f7420616e20616460408201526236b4b760e91b606082015260800190565b634e487b7160e01b600052601160045260246000fd5b818103818111156111375761113761671c565b634e487b7160e01b600052603260045260246000fd5b60ff81811683821601908111156111375761113761671c565b60006020828403121561678657600080fd5b8151614b6f81615f74565b6020808252602d908201527f66756e6374696f6e2063616c6c61626c652066726f6d2074726561737572792060408201526c636f6e7472616374206f6e6c7960981b606082015260800190565b60208082526023908201527f41757468436f6e74726f6c3a2043616c6c6572206973206e6f7420612070617560408201526239b2b960e91b606082015260800190565b808201808211156111375761113761671c565b6000600182016168465761684661671c565b5060010190565b6020808252602e908201527f416c6c207175616472616e7473206d7573742062652031206f72203220666f7260408201526d20434f4d4d4f4e2072617269747960901b606082015260800190565b6020808252602c908201527f416c6c207175616472616e7473206d7573742062652032206f72203320666f7260408201526b20524152452072617269747960a01b606082015260800190565b6020808252602e908201527f416c6c207175616472616e7473206d7573742062652033206f72203420666f7260408201526d20554e495155452072617269747960901b606082015260800190565b6020808252602c908201527f416c6c207175616472616e7473206d7573742062652034206f72203520666f7260408201526b20455049432072617269747960a01b606082015260800190565b60208082526031908201527f416c6c207175616472616e7473206d7573742062652035206f72203620666f72604082015270204c4547454e444152592072617269747960781b606082015260800190565b60208082526024908201527f746869732073756d20636f72726573706f6e647320746f2061204d79746869636040820152632047454d60e01b606082015260800190565b60208082526029908201527f416c6c207175616472616e7473206d757374206265203620666f72204d59544860408201526849432072617269747960b81b606082015260800190565b601f821115611dc457806000526020600020601f840160051c81016020851015616a865750805b601f840160051c820191505b818110156150e65760008155600101616a92565b81516001600160401b03811115616abf57616abf61608e565b616ad381616acd84546166a5565b84616a5f565b6020601f821160018114616b075760008315616aef5750848201515b600019600385901b1c1916600184901b1784556150e6565b600084815260208120601f198516915b82811015616b375787850151825560209485019460019092019101616b17565b5084821015616b555786840151600019600387901b60f8161c191681555b50505050600190811b01905550565b600060208284031215616b7657600080fd5b5051919050565b600081616b8c57616b8c61671c565b506000190190565b600082616bb157634e487b7160e01b600052601260045260246000fd5b500690565b6001600160a01b0385811682528416602082015260408101839052608060608201819052600090615b3190830184615dcd565b600060208284031215616bfb57600080fd5b8151614b6f81615d76565b60008351616c18818460208801615da9565b835190830190616c2c818360208801615da9565b01949350505050565b60008251616c47818460208701615da9565b919091019291505056fe06aa03964db1f7257357ef09714a5f0ca3633723df419e97015e0c7a3e83edb7a264697066735822122067906e48236d914a67695dc227c54ff7d49b36364e15f660b221f551c767fd2a64736f6c634300081a0033",
    "linkReferences": {}
  },
  "methodIdentifiers": {
    "CALLBACK_GAS_LIMIT()": "33d608f1",
    "CommonMiningFees()": "4f557d27",
    "DEFAULT_ADMIN_ROLE()": "a217fddf",
    "EpicMiningFees()": "ce8ab5df",
    "GEMIndexToApproved(uint256)": "384c252f",
    "GEMIndexToOwner(uint256)": "97125c40",
    "Gems(uint256)": "61f7f6d7",
    "L1StakingIndex()": "d8f573cd",
    "PAUSE_ROLE()": "389ed267",
    "RareMiningFees()": "91490c4b",
    "TREASURY_ROLE()": "d11a57ec",
    "UniqueMiningFees()": "adf8627e",
    "addAdmin(address)": "70480275",
    "addMinter(address)": "983b2d56",
    "adminTransferGEM(address,uint256)": "33158058",
    "aliveImplementation(address)": "550d01a3",
    "approve(address,uint256)": "095ea7b3",
    "balanceOf(address)": "70a08231",
    "claimMinedGEM(uint256)": "7fe6fde5",
    "createGEM(uint8,string,uint256,uint8[4],uint256,uint256,string)": "f9db8be7",
    "createGEMPool(uint8[],string[],uint256[],uint8[4][],uint256[],uint256[],string[])": "9bd22cd8",
    "estimatedStakingIndexIncreaseRate()": "1d3392e2",
    "gemAllowedToAddress(uint256)": "119868bb",
    "getApproved(uint256)": "081812fc",
    "getCalculatedDirectFundingPrice(uint32)": "f5494bb9",
    "getCommonMiningFees()": "629296c5",
    "getRareMiningFees()": "fed7b27a",
    "getRoleAdmin(bytes32)": "248a9ca3",
    "getTon()": "2bbbe94d",
    "getTreasury()": "3b19e84a",
    "getUniqueMiningFees()": "8ba24af0",
    "getWston()": "e7a523c0",
    "grantRole(bytes32,address)": "2f2ff15d",
    "hasRole(bytes32,address)": "91d14854",
    "initialize(address,address,address,uint256,uint256,uint256,uint256)": "2b4656c8",
    "isAdmin(address)": "24d7806c",
    "isApprovedForAll(address,address)": "e985e9c5",
    "isMinter(address)": "aa271e1a",
    "isOwner()": "8f32d59b",
    "isTokenLocked(uint256)": "276a28a3",
    "isUserMining(address)": "205fb1f8",
    "lastRequestId()": "fc2a88c3",
    "marketplace()": "abc8c7af",
    "meltGEM(uint256)": "f99a6bb5",
    "name()": "06fdde03",
    "ownerOf(uint256)": "6352211e",
    "ownerOfGEM(uint256)": "bd81009f",
    "ownershipTokenCount(address)": "cec21acb",
    "pause()": "8456cb59",
    "pauseProxy()": "63a8fd89",
    "paused()": "5c975abb",
    "preMintedGemsAvailable()": "c28fb6b7",
    "proxyImplementation(uint256)": "b911135f",
    "rawFulfillRandomWords(uint256,uint256)": "37ed11db",
    "removeAdmin(address)": "1785f53c",
    "removeMinter(address)": "3092afd5",
    "renounceMinter()": "98650275",
    "renounceOwnership()": "715018a6",
    "renounceRole(bytes32,address)": "36568abe",
    "requestCount()": "5badbe4c",
    "requestIds(uint256)": "8796ba8c",
    "revokeMinter(address)": "cfbd4885",
    "revokeRole(bytes32,address)": "d547741f",
    "s_requests(uint256)": "a168fa89",
    "safeTransferFrom(address,address,uint256)": "42842e0e",
    "safeTransferFrom(address,address,uint256,bytes)": "b88d4fde",
    "selectorImplementation(bytes4)": "50d2a276",
    "setApprovalForAll(address,bool)": "a22cb465",
    "setApprovalForMarketplace()": "0491fd3e",
    "setIsLocked(uint256,bool)": "4d723a75",
    "setMarketPlaceAddress(address)": "cc98ef96",
    "startMiningGEM(uint256)": "1da0fc9c",
    "supportsInterface(bytes4)": "01ffc9a7",
    "symbol()": "95d89b41",
    "tokenMiningByUser(address)": "c1389072",
    "tokenReadyToMine(uint256)": "7866369b",
    "tokenURI(uint256)": "c87b56dd",
    "tokensOfOwner(address)": "8462151c",
    "ton()": "cc48b947",
    "totalSupply()": "18160ddd",
    "transferAdmin(address)": "75829def",
    "transferFrom(address,address,uint256)": "23b872dd",
    "transferGEM(address,uint256)": "337d54a1",
    "transferGEMFrom(address,address,uint256)": "d6bb7ba0",
    "transferOwnership(address)": "f2fde38b",
    "treasury()": "61d027b3",
    "unpause()": "3f4ba83a",
    "userMiningStartTime(address,uint256)": "676f79f1",
    "userMiningToken(address,uint256)": "a1770a7d",
    "wston()": "36b17e13"
  },
  "id": 51
}