{
  "abi": [
    {
      "type": "constructor",
      "inputs": [
        {
          "name": "coordinator",
          "type": "address",
          "internalType": "address"
        }
      ],
      "stateMutability": "nonpayable"
    },
    {
      "type": "function",
      "name": "ADMIN_ROLE",
      "inputs": [],
      "outputs": [
        {
          "name": "",
          "type": "bytes32",
          "internalType": "bytes32"
        }
      ],
      "stateMutability": "view"
    },
    {
      "type": "function",
      "name": "CALLBACK_GAS_LIMIT",
      "inputs": [],
      "outputs": [
        {
          "name": "",
          "type": "uint32",
          "internalType": "uint32"
        }
      ],
      "stateMutability": "view"
    },
    {
      "type": "function",
      "name": "CommonGemsCooldownPeriod",
      "inputs": [],
      "outputs": [
        {
          "name": "",
          "type": "uint256",
          "internalType": "uint256"
        }
      ],
      "stateMutability": "view"
    },
    {
      "type": "function",
      "name": "CommonGemsMiningPeriod",
      "inputs": [],
      "outputs": [
        {
          "name": "",
          "type": "uint256",
          "internalType": "uint256"
        }
      ],
      "stateMutability": "view"
    },
    {
      "type": "function",
      "name": "CommonGemsValue",
      "inputs": [],
      "outputs": [
        {
          "name": "",
          "type": "uint256",
          "internalType": "uint256"
        }
      ],
      "stateMutability": "view"
    },
    {
      "type": "function",
      "name": "CommonminingTry",
      "inputs": [],
      "outputs": [
        {
          "name": "",
          "type": "uint256",
          "internalType": "uint256"
        }
      ],
      "stateMutability": "view"
    },
    {
      "type": "function",
      "name": "DEFAULT_ADMIN_ROLE",
      "inputs": [],
      "outputs": [
        {
          "name": "",
          "type": "bytes32",
          "internalType": "bytes32"
        }
      ],
      "stateMutability": "view"
    },
    {
      "type": "function",
      "name": "EpicGemsCooldownPeriod",
      "inputs": [],
      "outputs": [
        {
          "name": "",
          "type": "uint256",
          "internalType": "uint256"
        }
      ],
      "stateMutability": "view"
    },
    {
      "type": "function",
      "name": "EpicGemsMiningPeriod",
      "inputs": [],
      "outputs": [
        {
          "name": "",
          "type": "uint256",
          "internalType": "uint256"
        }
      ],
      "stateMutability": "view"
    },
    {
      "type": "function",
      "name": "EpicGemsValue",
      "inputs": [],
      "outputs": [
        {
          "name": "",
          "type": "uint256",
          "internalType": "uint256"
        }
      ],
      "stateMutability": "view"
    },
    {
      "type": "function",
      "name": "EpicminingTry",
      "inputs": [],
      "outputs": [
        {
          "name": "",
          "type": "uint256",
          "internalType": "uint256"
        }
      ],
      "stateMutability": "view"
    },
    {
      "type": "function",
      "name": "GEMIndexToOwner",
      "inputs": [
        {
          "name": "",
          "type": "uint256",
          "internalType": "uint256"
        }
      ],
      "outputs": [
        {
          "name": "",
          "type": "address",
          "internalType": "address"
        }
      ],
      "stateMutability": "view"
    },
    {
      "type": "function",
      "name": "Gems",
      "inputs": [
        {
          "name": "",
          "type": "uint256",
          "internalType": "uint256"
        }
      ],
      "outputs": [
        {
          "name": "tokenId",
          "type": "uint256",
          "internalType": "uint256"
        },
        {
          "name": "rarity",
          "type": "uint8",
          "internalType": "enum GemFactoryStorage.Rarity"
        },
        {
          "name": "gemCooldownPeriod",
          "type": "uint256",
          "internalType": "uint256"
        },
        {
          "name": "miningPeriod",
          "type": "uint256",
          "internalType": "uint256"
        },
        {
          "name": "miningTry",
          "type": "uint256",
          "internalType": "uint256"
        },
        {
          "name": "isLocked",
          "type": "bool",
          "internalType": "bool"
        },
        {
          "name": "value",
          "type": "uint256",
          "internalType": "uint256"
        },
        {
          "name": "tokenURI",
          "type": "string",
          "internalType": "string"
        },
        {
          "name": "randomRequestId",
          "type": "uint256",
          "internalType": "uint256"
        }
      ],
      "stateMutability": "view"
    },
    {
      "type": "function",
      "name": "LegendaryGemsCooldownPeriod",
      "inputs": [],
      "outputs": [
        {
          "name": "",
          "type": "uint256",
          "internalType": "uint256"
        }
      ],
      "stateMutability": "view"
    },
    {
      "type": "function",
      "name": "LegendaryGemsMiningPeriod",
      "inputs": [],
      "outputs": [
        {
          "name": "",
          "type": "uint256",
          "internalType": "uint256"
        }
      ],
      "stateMutability": "view"
    },
    {
      "type": "function",
      "name": "LegendaryGemsValue",
      "inputs": [],
      "outputs": [
        {
          "name": "",
          "type": "uint256",
          "internalType": "uint256"
        }
      ],
      "stateMutability": "view"
    },
    {
      "type": "function",
      "name": "LegendaryminingTry",
      "inputs": [],
      "outputs": [
        {
          "name": "",
          "type": "uint256",
          "internalType": "uint256"
        }
      ],
      "stateMutability": "view"
    },
    {
      "type": "function",
      "name": "MythicGemsCooldownPeriod",
      "inputs": [],
      "outputs": [
        {
          "name": "",
          "type": "uint256",
          "internalType": "uint256"
        }
      ],
      "stateMutability": "view"
    },
    {
      "type": "function",
      "name": "MythicGemsMiningPeriod",
      "inputs": [],
      "outputs": [
        {
          "name": "",
          "type": "uint256",
          "internalType": "uint256"
        }
      ],
      "stateMutability": "view"
    },
    {
      "type": "function",
      "name": "MythicGemsValue",
      "inputs": [],
      "outputs": [
        {
          "name": "",
          "type": "uint256",
          "internalType": "uint256"
        }
      ],
      "stateMutability": "view"
    },
    {
      "type": "function",
      "name": "MythicminingTry",
      "inputs": [],
      "outputs": [
        {
          "name": "",
          "type": "uint256",
          "internalType": "uint256"
        }
      ],
      "stateMutability": "view"
    },
    {
      "type": "function",
      "name": "PAUSE_ROLE",
      "inputs": [],
      "outputs": [
        {
          "name": "",
          "type": "bytes32",
          "internalType": "bytes32"
        }
      ],
      "stateMutability": "view"
    },
    {
      "type": "function",
      "name": "RareGemsCooldownPeriod",
      "inputs": [],
      "outputs": [
        {
          "name": "",
          "type": "uint256",
          "internalType": "uint256"
        }
      ],
      "stateMutability": "view"
    },
    {
      "type": "function",
      "name": "RareGemsMiningPeriod",
      "inputs": [],
      "outputs": [
        {
          "name": "",
          "type": "uint256",
          "internalType": "uint256"
        }
      ],
      "stateMutability": "view"
    },
    {
      "type": "function",
      "name": "RareGemsValue",
      "inputs": [],
      "outputs": [
        {
          "name": "",
          "type": "uint256",
          "internalType": "uint256"
        }
      ],
      "stateMutability": "view"
    },
    {
      "type": "function",
      "name": "RareminingTry",
      "inputs": [],
      "outputs": [
        {
          "name": "",
          "type": "uint256",
          "internalType": "uint256"
        }
      ],
      "stateMutability": "view"
    },
    {
      "type": "function",
      "name": "UniqueGemsCooldownPeriod",
      "inputs": [],
      "outputs": [
        {
          "name": "",
          "type": "uint256",
          "internalType": "uint256"
        }
      ],
      "stateMutability": "view"
    },
    {
      "type": "function",
      "name": "UniqueGemsMiningPeriod",
      "inputs": [],
      "outputs": [
        {
          "name": "",
          "type": "uint256",
          "internalType": "uint256"
        }
      ],
      "stateMutability": "view"
    },
    {
      "type": "function",
      "name": "UniqueGemsValue",
      "inputs": [],
      "outputs": [
        {
          "name": "",
          "type": "uint256",
          "internalType": "uint256"
        }
      ],
      "stateMutability": "view"
    },
    {
      "type": "function",
      "name": "UniqueminingTry",
      "inputs": [],
      "outputs": [
        {
          "name": "",
          "type": "uint256",
          "internalType": "uint256"
        }
      ],
      "stateMutability": "view"
    },
    {
      "type": "function",
      "name": "addAdmin",
      "inputs": [
        {
          "name": "account",
          "type": "address",
          "internalType": "address"
        }
      ],
      "outputs": [],
      "stateMutability": "nonpayable"
    },
    {
      "type": "function",
      "name": "addBackgroundColor",
      "inputs": [
        {
          "name": "_backgroundColor",
          "type": "string",
          "internalType": "string"
        }
      ],
      "outputs": [],
      "stateMutability": "nonpayable"
    },
    {
      "type": "function",
      "name": "addColor",
      "inputs": [
        {
          "name": "_color",
          "type": "string",
          "internalType": "string"
        }
      ],
      "outputs": [],
      "stateMutability": "nonpayable"
    },
    {
      "type": "function",
      "name": "addPauser",
      "inputs": [
        {
          "name": "account",
          "type": "address",
          "internalType": "address"
        }
      ],
      "outputs": [],
      "stateMutability": "nonpayable"
    },
    {
      "type": "function",
      "name": "adminTransferGEM",
      "inputs": [
        {
          "name": "_to",
          "type": "address",
          "internalType": "address"
        },
        {
          "name": "_tokenId",
          "type": "uint256",
          "internalType": "uint256"
        }
      ],
      "outputs": [
        {
          "name": "",
          "type": "bool",
          "internalType": "bool"
        }
      ],
      "stateMutability": "nonpayable"
    },
    {
      "type": "function",
      "name": "aliveImplementation",
      "inputs": [
        {
          "name": "",
          "type": "address",
          "internalType": "address"
        }
      ],
      "outputs": [
        {
          "name": "",
          "type": "bool",
          "internalType": "bool"
        }
      ],
      "stateMutability": "view"
    },
    {
      "type": "function",
      "name": "approve",
      "inputs": [
        {
          "name": "to",
          "type": "address",
          "internalType": "address"
        },
        {
          "name": "tokenId",
          "type": "uint256",
          "internalType": "uint256"
        }
      ],
      "outputs": [],
      "stateMutability": "nonpayable"
    },
    {
      "type": "function",
      "name": "backgroundColors",
      "inputs": [
        {
          "name": "",
          "type": "uint256",
          "internalType": "uint256"
        }
      ],
      "outputs": [
        {
          "name": "",
          "type": "string",
          "internalType": "string"
        }
      ],
      "stateMutability": "view"
    },
    {
      "type": "function",
      "name": "balanceOf",
      "inputs": [
        {
          "name": "_owner",
          "type": "address",
          "internalType": "address"
        }
      ],
      "outputs": [
        {
          "name": "count",
          "type": "uint256",
          "internalType": "uint256"
        }
      ],
      "stateMutability": "view"
    },
    {
      "type": "function",
      "name": "cancelMining",
      "inputs": [
        {
          "name": "_tokenId",
          "type": "uint256",
          "internalType": "uint256"
        }
      ],
      "outputs": [
        {
          "name": "",
          "type": "bool",
          "internalType": "bool"
        }
      ],
      "stateMutability": "nonpayable"
    },
    {
      "type": "function",
      "name": "claimMinedGEM",
      "inputs": [
        {
          "name": "_tokenId",
          "type": "uint256",
          "internalType": "uint256"
        }
      ],
      "outputs": [
        {
          "name": "",
          "type": "bool",
          "internalType": "bool"
        }
      ],
      "stateMutability": "nonpayable"
    },
    {
      "type": "function",
      "name": "colors",
      "inputs": [
        {
          "name": "",
          "type": "uint256",
          "internalType": "uint256"
        }
      ],
      "outputs": [
        {
          "name": "",
          "type": "string",
          "internalType": "string"
        }
      ],
      "stateMutability": "view"
    },
    {
      "type": "function",
      "name": "createGEM",
      "inputs": [
        {
          "name": "_rarity",
          "type": "uint8",
          "internalType": "enum GemFactoryStorage.Rarity"
        },
        {
          "name": "_color",
          "type": "uint8[2]",
          "internalType": "uint8[2]"
        },
        {
          "name": "_quadrants",
          "type": "uint8[4]",
          "internalType": "uint8[4]"
        },
        {
          "name": "_tokenURI",
          "type": "string",
          "internalType": "string"
        }
      ],
      "outputs": [
        {
          "name": "",
          "type": "uint256",
          "internalType": "uint256"
        }
      ],
      "stateMutability": "nonpayable"
    },
    {
      "type": "function",
      "name": "createGEMPool",
      "inputs": [
        {
          "name": "_rarities",
          "type": "uint8[]",
          "internalType": "enum GemFactoryStorage.Rarity[]"
        },
        {
          "name": "_colors",
          "type": "uint8[2][]",
          "internalType": "uint8[2][]"
        },
        {
          "name": "_quadrants",
          "type": "uint8[4][]",
          "internalType": "uint8[4][]"
        },
        {
          "name": "_tokenURIs",
          "type": "string[]",
          "internalType": "string[]"
        }
      ],
      "outputs": [
        {
          "name": "",
          "type": "uint256[]",
          "internalType": "uint256[]"
        }
      ],
      "stateMutability": "nonpayable"
    },
    {
      "type": "function",
      "name": "customBackgroundColors",
      "inputs": [
        {
          "name": "",
          "type": "uint8",
          "internalType": "uint8"
        }
      ],
      "outputs": [
        {
          "name": "",
          "type": "string",
          "internalType": "string"
        }
      ],
      "stateMutability": "view"
    },
    {
      "type": "function",
      "name": "customBackgroundColorsCount",
      "inputs": [],
      "outputs": [
        {
          "name": "",
          "type": "uint8",
          "internalType": "uint8"
        }
      ],
      "stateMutability": "view"
    },
    {
      "type": "function",
      "name": "customColors",
      "inputs": [
        {
          "name": "",
          "type": "uint8",
          "internalType": "uint8"
        }
      ],
      "outputs": [
        {
          "name": "",
          "type": "string",
          "internalType": "string"
        }
      ],
      "stateMutability": "view"
    },
    {
      "type": "function",
      "name": "customColorsCount",
      "inputs": [],
      "outputs": [
        {
          "name": "",
          "type": "uint8",
          "internalType": "uint8"
        }
      ],
      "stateMutability": "view"
    },
    {
      "type": "function",
      "name": "drbcoordinator",
      "inputs": [],
      "outputs": [
        {
          "name": "",
          "type": "address",
          "internalType": "address"
        }
      ],
      "stateMutability": "view"
    },
    {
      "type": "function",
      "name": "forgeTokens",
      "inputs": [
        {
          "name": "_tokenIds",
          "type": "uint256[]",
          "internalType": "uint256[]"
        },
        {
          "name": "_rarity",
          "type": "uint8",
          "internalType": "enum GemFactoryStorage.Rarity"
        },
        {
          "name": "_color",
          "type": "uint8[2]",
          "internalType": "uint8[2]"
        }
      ],
      "outputs": [
        {
          "name": "newGemId",
          "type": "uint256",
          "internalType": "uint256"
        }
      ],
      "stateMutability": "nonpayable"
    },
    {
      "type": "function",
      "name": "getApproved",
      "inputs": [
        {
          "name": "tokenId",
          "type": "uint256",
          "internalType": "uint256"
        }
      ],
      "outputs": [
        {
          "name": "",
          "type": "address",
          "internalType": "address"
        }
      ],
      "stateMutability": "view"
    },
    {
      "type": "function",
      "name": "getCommonValue",
      "inputs": [],
      "outputs": [
        {
          "name": "",
          "type": "uint256",
          "internalType": "uint256"
        }
      ],
      "stateMutability": "view"
    },
    {
      "type": "function",
      "name": "getCommonminingTry",
      "inputs": [],
      "outputs": [
        {
          "name": "",
          "type": "uint256",
          "internalType": "uint256"
        }
      ],
      "stateMutability": "view"
    },
    {
      "type": "function",
      "name": "getCustomColor",
      "inputs": [
        {
          "name": "_index",
          "type": "uint8",
          "internalType": "uint8"
        }
      ],
      "outputs": [
        {
          "name": "",
          "type": "string",
          "internalType": "string"
        }
      ],
      "stateMutability": "view"
    },
    {
      "type": "function",
      "name": "getEpicValue",
      "inputs": [],
      "outputs": [
        {
          "name": "",
          "type": "uint256",
          "internalType": "uint256"
        }
      ],
      "stateMutability": "view"
    },
    {
      "type": "function",
      "name": "getEpicminingTry",
      "inputs": [],
      "outputs": [
        {
          "name": "",
          "type": "uint256",
          "internalType": "uint256"
        }
      ],
      "stateMutability": "view"
    },
    {
      "type": "function",
      "name": "getGem",
      "inputs": [
        {
          "name": "_tokenId",
          "type": "uint256",
          "internalType": "uint256"
        }
      ],
      "outputs": [
        {
          "name": "",
          "type": "tuple",
          "internalType": "struct GemFactoryStorage.Gem",
          "components": [
            {
              "name": "tokenId",
              "type": "uint256",
              "internalType": "uint256"
            },
            {
              "name": "rarity",
              "type": "uint8",
              "internalType": "enum GemFactoryStorage.Rarity"
            },
            {
              "name": "quadrants",
              "type": "uint8[4]",
              "internalType": "uint8[4]"
            },
            {
              "name": "color",
              "type": "uint8[2]",
              "internalType": "uint8[2]"
            },
            {
              "name": "gemCooldownPeriod",
              "type": "uint256",
              "internalType": "uint256"
            },
            {
              "name": "miningPeriod",
              "type": "uint256",
              "internalType": "uint256"
            },
            {
              "name": "miningTry",
              "type": "uint256",
              "internalType": "uint256"
            },
            {
              "name": "isLocked",
              "type": "bool",
              "internalType": "bool"
            },
            {
              "name": "value",
              "type": "uint256",
              "internalType": "uint256"
            },
            {
              "name": "tokenURI",
              "type": "string",
              "internalType": "string"
            },
            {
              "name": "randomRequestId",
              "type": "uint256",
              "internalType": "uint256"
            }
          ]
        }
      ],
      "stateMutability": "view"
    },
    {
      "type": "function",
      "name": "getGemList",
      "inputs": [],
      "outputs": [
        {
          "name": "",
          "type": "tuple[]",
          "internalType": "struct GemFactoryStorage.Gem[]",
          "components": [
            {
              "name": "tokenId",
              "type": "uint256",
              "internalType": "uint256"
            },
            {
              "name": "rarity",
              "type": "uint8",
              "internalType": "enum GemFactoryStorage.Rarity"
            },
            {
              "name": "quadrants",
              "type": "uint8[4]",
              "internalType": "uint8[4]"
            },
            {
              "name": "color",
              "type": "uint8[2]",
              "internalType": "uint8[2]"
            },
            {
              "name": "gemCooldownPeriod",
              "type": "uint256",
              "internalType": "uint256"
            },
            {
              "name": "miningPeriod",
              "type": "uint256",
              "internalType": "uint256"
            },
            {
              "name": "miningTry",
              "type": "uint256",
              "internalType": "uint256"
            },
            {
              "name": "isLocked",
              "type": "bool",
              "internalType": "bool"
            },
            {
              "name": "value",
              "type": "uint256",
              "internalType": "uint256"
            },
            {
              "name": "tokenURI",
              "type": "string",
              "internalType": "string"
            },
            {
              "name": "randomRequestId",
              "type": "uint256",
              "internalType": "uint256"
            }
          ]
        }
      ],
      "stateMutability": "view"
    },
    {
      "type": "function",
      "name": "getGemListAvailableForRandomPack",
      "inputs": [],
      "outputs": [
        {
          "name": "",
          "type": "uint256",
          "internalType": "uint256"
        },
        {
          "name": "",
          "type": "uint256[]",
          "internalType": "uint256[]"
        }
      ],
      "stateMutability": "view"
    },
    {
      "type": "function",
      "name": "getGemsSupplyTotalValue",
      "inputs": [],
      "outputs": [
        {
          "name": "totalValue",
          "type": "uint256",
          "internalType": "uint256"
        }
      ],
      "stateMutability": "view"
    },
    {
      "type": "function",
      "name": "getLegendaryValue",
      "inputs": [],
      "outputs": [
        {
          "name": "",
          "type": "uint256",
          "internalType": "uint256"
        }
      ],
      "stateMutability": "view"
    },
    {
      "type": "function",
      "name": "getLegendaryminingTry",
      "inputs": [],
      "outputs": [
        {
          "name": "",
          "type": "uint256",
          "internalType": "uint256"
        }
      ],
      "stateMutability": "view"
    },
    {
      "type": "function",
      "name": "getMythicValue",
      "inputs": [],
      "outputs": [
        {
          "name": "",
          "type": "uint256",
          "internalType": "uint256"
        }
      ],
      "stateMutability": "view"
    },
    {
      "type": "function",
      "name": "getMythicminingTry",
      "inputs": [],
      "outputs": [
        {
          "name": "",
          "type": "uint256",
          "internalType": "uint256"
        }
      ],
      "stateMutability": "view"
    },
    {
      "type": "function",
      "name": "getRandomRequest",
      "inputs": [
        {
          "name": "_requestId",
          "type": "uint256",
          "internalType": "uint256"
        }
      ],
      "outputs": [
        {
          "name": "",
          "type": "tuple",
          "internalType": "struct GemFactoryStorage.RequestStatus",
          "components": [
            {
              "name": "tokenId",
              "type": "uint256",
              "internalType": "uint256"
            },
            {
              "name": "requested",
              "type": "bool",
              "internalType": "bool"
            },
            {
              "name": "fulfilled",
              "type": "bool",
              "internalType": "bool"
            },
            {
              "name": "randomWord",
              "type": "uint256",
              "internalType": "uint256"
            },
            {
              "name": "chosenTokenId",
              "type": "uint256",
              "internalType": "uint256"
            },
            {
              "name": "requester",
              "type": "address",
              "internalType": "address"
            }
          ]
        }
      ],
      "stateMutability": "view"
    },
    {
      "type": "function",
      "name": "getRareValue",
      "inputs": [],
      "outputs": [
        {
          "name": "",
          "type": "uint256",
          "internalType": "uint256"
        }
      ],
      "stateMutability": "view"
    },
    {
      "type": "function",
      "name": "getRareminingTry",
      "inputs": [],
      "outputs": [
        {
          "name": "",
          "type": "uint256",
          "internalType": "uint256"
        }
      ],
      "stateMutability": "view"
    },
    {
      "type": "function",
      "name": "getRoleAdmin",
      "inputs": [
        {
          "name": "role",
          "type": "bytes32",
          "internalType": "bytes32"
        }
      ],
      "outputs": [
        {
          "name": "",
          "type": "bytes32",
          "internalType": "bytes32"
        }
      ],
      "stateMutability": "view"
    },
    {
      "type": "function",
      "name": "getTon",
      "inputs": [],
      "outputs": [
        {
          "name": "",
          "type": "address",
          "internalType": "address"
        }
      ],
      "stateMutability": "view"
    },
    {
      "type": "function",
      "name": "getTreasury",
      "inputs": [],
      "outputs": [
        {
          "name": "",
          "type": "address",
          "internalType": "address"
        }
      ],
      "stateMutability": "view"
    },
    {
      "type": "function",
      "name": "getUniqueValue",
      "inputs": [],
      "outputs": [
        {
          "name": "",
          "type": "uint256",
          "internalType": "uint256"
        }
      ],
      "stateMutability": "view"
    },
    {
      "type": "function",
      "name": "getUniqueminingTry",
      "inputs": [],
      "outputs": [
        {
          "name": "",
          "type": "uint256",
          "internalType": "uint256"
        }
      ],
      "stateMutability": "view"
    },
    {
      "type": "function",
      "name": "getWston",
      "inputs": [],
      "outputs": [
        {
          "name": "",
          "type": "address",
          "internalType": "address"
        }
      ],
      "stateMutability": "view"
    },
    {
      "type": "function",
      "name": "grantRole",
      "inputs": [
        {
          "name": "role",
          "type": "bytes32",
          "internalType": "bytes32"
        },
        {
          "name": "account",
          "type": "address",
          "internalType": "address"
        }
      ],
      "outputs": [],
      "stateMutability": "nonpayable"
    },
    {
      "type": "function",
      "name": "hasRole",
      "inputs": [
        {
          "name": "role",
          "type": "bytes32",
          "internalType": "bytes32"
        },
        {
          "name": "account",
          "type": "address",
          "internalType": "address"
        }
      ],
      "outputs": [
        {
          "name": "",
          "type": "bool",
          "internalType": "bool"
        }
      ],
      "stateMutability": "view"
    },
    {
      "type": "function",
      "name": "initialize",
      "inputs": [
        {
          "name": "_wston",
          "type": "address",
          "internalType": "address"
        },
        {
          "name": "_ton",
          "type": "address",
          "internalType": "address"
        },
        {
          "name": "_treasury",
          "type": "address",
          "internalType": "address"
        },
        {
          "name": "_CommonGemsValue",
          "type": "uint256",
          "internalType": "uint256"
        },
        {
          "name": "_RareGemsValue",
          "type": "uint256",
          "internalType": "uint256"
        },
        {
          "name": "_UniqueGemsValue",
          "type": "uint256",
          "internalType": "uint256"
        },
        {
          "name": "_EpicGemsValue",
          "type": "uint256",
          "internalType": "uint256"
        },
        {
          "name": "_LegendaryGemsValue",
          "type": "uint256",
          "internalType": "uint256"
        },
        {
          "name": "_MythicGemsValue",
          "type": "uint256",
          "internalType": "uint256"
        }
      ],
      "outputs": [],
      "stateMutability": "nonpayable"
    },
    {
      "type": "function",
      "name": "isAdmin",
      "inputs": [
        {
          "name": "account",
          "type": "address",
          "internalType": "address"
        }
      ],
      "outputs": [
        {
          "name": "",
          "type": "bool",
          "internalType": "bool"
        }
      ],
      "stateMutability": "view"
    },
    {
      "type": "function",
      "name": "isApprovedForAll",
      "inputs": [
        {
          "name": "owner",
          "type": "address",
          "internalType": "address"
        },
        {
          "name": "operator",
          "type": "address",
          "internalType": "address"
        }
      ],
      "outputs": [
        {
          "name": "",
          "type": "bool",
          "internalType": "bool"
        }
      ],
      "stateMutability": "view"
    },
    {
      "type": "function",
      "name": "isOwner",
      "inputs": [],
      "outputs": [
        {
          "name": "",
          "type": "bool",
          "internalType": "bool"
        }
      ],
      "stateMutability": "view"
    },
    {
      "type": "function",
      "name": "isTokenLocked",
      "inputs": [
        {
          "name": "_tokenId",
          "type": "uint256",
          "internalType": "uint256"
        }
      ],
      "outputs": [
        {
          "name": "",
          "type": "bool",
          "internalType": "bool"
        }
      ],
      "stateMutability": "view"
    },
    {
      "type": "function",
      "name": "marketplace",
      "inputs": [],
      "outputs": [
        {
          "name": "",
          "type": "address",
          "internalType": "address"
        }
      ],
      "stateMutability": "view"
    },
    {
      "type": "function",
      "name": "meltGEM",
      "inputs": [
        {
          "name": "_tokenId",
          "type": "uint256",
          "internalType": "uint256"
        }
      ],
      "outputs": [],
      "stateMutability": "nonpayable"
    },
    {
      "type": "function",
      "name": "name",
      "inputs": [],
      "outputs": [
        {
          "name": "",
          "type": "string",
          "internalType": "string"
        }
      ],
      "stateMutability": "view"
    },
    {
      "type": "function",
      "name": "numberOfSolidColors",
      "inputs": [],
      "outputs": [
        {
          "name": "",
          "type": "uint8",
          "internalType": "uint8"
        }
      ],
      "stateMutability": "view"
    },
    {
      "type": "function",
      "name": "ownerOf",
      "inputs": [
        {
          "name": "tokenId",
          "type": "uint256",
          "internalType": "uint256"
        }
      ],
      "outputs": [
        {
          "name": "",
          "type": "address",
          "internalType": "address"
        }
      ],
      "stateMutability": "view"
    },
    {
      "type": "function",
      "name": "ownershipTokenCount",
      "inputs": [
        {
          "name": "",
          "type": "address",
          "internalType": "address"
        }
      ],
      "outputs": [
        {
          "name": "",
          "type": "uint256",
          "internalType": "uint256"
        }
      ],
      "stateMutability": "view"
    },
    {
      "type": "function",
      "name": "pause",
      "inputs": [],
      "outputs": [],
      "stateMutability": "nonpayable"
    },
    {
      "type": "function",
      "name": "pauseProxy",
      "inputs": [],
      "outputs": [
        {
          "name": "",
          "type": "bool",
          "internalType": "bool"
        }
      ],
      "stateMutability": "view"
    },
    {
      "type": "function",
      "name": "paused",
      "inputs": [],
      "outputs": [
        {
          "name": "",
          "type": "bool",
          "internalType": "bool"
        }
      ],
      "stateMutability": "view"
    },
    {
      "type": "function",
      "name": "pickMinedGEM",
      "inputs": [
        {
          "name": "_tokenId",
          "type": "uint256",
          "internalType": "uint256"
        }
      ],
      "outputs": [
        {
          "name": "",
          "type": "bool",
          "internalType": "bool"
        }
      ],
      "stateMutability": "payable"
    },
    {
      "type": "function",
      "name": "preMintedGemsAvailable",
      "inputs": [],
      "outputs": [
        {
          "name": "GemsAvailable",
          "type": "uint256[]",
          "internalType": "uint256[]"
        }
      ],
      "stateMutability": "view"
    },
    {
      "type": "function",
      "name": "proxyImplementation",
      "inputs": [
        {
          "name": "",
          "type": "uint256",
          "internalType": "uint256"
        }
      ],
      "outputs": [
        {
          "name": "",
          "type": "address",
          "internalType": "address"
        }
      ],
      "stateMutability": "view"
    },
    {
      "type": "function",
      "name": "randomPack",
      "inputs": [],
      "outputs": [
        {
          "name": "",
          "type": "address",
          "internalType": "address"
        }
      ],
      "stateMutability": "view"
    },
    {
      "type": "function",
      "name": "rawFulfillRandomWords",
      "inputs": [
        {
          "name": "requestId",
          "type": "uint256",
          "internalType": "uint256"
        },
        {
          "name": "randomWord",
          "type": "uint256",
          "internalType": "uint256"
        }
      ],
      "outputs": [],
      "stateMutability": "nonpayable"
    },
    {
      "type": "function",
      "name": "removeAdmin",
      "inputs": [
        {
          "name": "account",
          "type": "address",
          "internalType": "address"
        }
      ],
      "outputs": [],
      "stateMutability": "nonpayable"
    },
    {
      "type": "function",
      "name": "removePauser",
      "inputs": [
        {
          "name": "account",
          "type": "address",
          "internalType": "address"
        }
      ],
      "outputs": [],
      "stateMutability": "nonpayable"
    },
    {
      "type": "function",
      "name": "renounceOwnership",
      "inputs": [],
      "outputs": [],
      "stateMutability": "nonpayable"
    },
    {
      "type": "function",
      "name": "renounceRole",
      "inputs": [
        {
          "name": "role",
          "type": "bytes32",
          "internalType": "bytes32"
        },
        {
          "name": "callerConfirmation",
          "type": "address",
          "internalType": "address"
        }
      ],
      "outputs": [],
      "stateMutability": "nonpayable"
    },
    {
      "type": "function",
      "name": "requestCount",
      "inputs": [],
      "outputs": [
        {
          "name": "",
          "type": "uint256",
          "internalType": "uint256"
        }
      ],
      "stateMutability": "view"
    },
    {
      "type": "function",
      "name": "requestIds",
      "inputs": [
        {
          "name": "",
          "type": "uint256",
          "internalType": "uint256"
        }
      ],
      "outputs": [
        {
          "name": "",
          "type": "uint256",
          "internalType": "uint256"
        }
      ],
      "stateMutability": "view"
    },
    {
      "type": "function",
      "name": "revokeRole",
      "inputs": [
        {
          "name": "role",
          "type": "bytes32",
          "internalType": "bytes32"
        },
        {
          "name": "account",
          "type": "address",
          "internalType": "address"
        }
      ],
      "outputs": [],
      "stateMutability": "nonpayable"
    },
    {
      "type": "function",
      "name": "s_requests",
      "inputs": [
        {
          "name": "",
          "type": "uint256",
          "internalType": "uint256"
        }
      ],
      "outputs": [
        {
          "name": "tokenId",
          "type": "uint256",
          "internalType": "uint256"
        },
        {
          "name": "requested",
          "type": "bool",
          "internalType": "bool"
        },
        {
          "name": "fulfilled",
          "type": "bool",
          "internalType": "bool"
        },
        {
          "name": "randomWord",
          "type": "uint256",
          "internalType": "uint256"
        },
        {
          "name": "chosenTokenId",
          "type": "uint256",
          "internalType": "uint256"
        },
        {
          "name": "requester",
          "type": "address",
          "internalType": "address"
        }
      ],
      "stateMutability": "view"
    },
    {
      "type": "function",
      "name": "safeTransferFrom",
      "inputs": [
        {
          "name": "from",
          "type": "address",
          "internalType": "address"
        },
        {
          "name": "to",
          "type": "address",
          "internalType": "address"
        },
        {
          "name": "tokenId",
          "type": "uint256",
          "internalType": "uint256"
        }
      ],
      "outputs": [],
      "stateMutability": "nonpayable"
    },
    {
      "type": "function",
      "name": "safeTransferFrom",
      "inputs": [
        {
          "name": "from",
          "type": "address",
          "internalType": "address"
        },
        {
          "name": "to",
          "type": "address",
          "internalType": "address"
        },
        {
          "name": "tokenId",
          "type": "uint256",
          "internalType": "uint256"
        },
        {
          "name": "data",
          "type": "bytes",
          "internalType": "bytes"
        }
      ],
      "outputs": [],
      "stateMutability": "nonpayable"
    },
    {
      "type": "function",
      "name": "selectorImplementation",
      "inputs": [
        {
          "name": "",
          "type": "bytes4",
          "internalType": "bytes4"
        }
      ],
      "outputs": [
        {
          "name": "",
          "type": "address",
          "internalType": "address"
        }
      ],
      "stateMutability": "view"
    },
    {
      "type": "function",
      "name": "setApprovalForAll",
      "inputs": [
        {
          "name": "operator",
          "type": "address",
          "internalType": "address"
        },
        {
          "name": "approved",
          "type": "bool",
          "internalType": "bool"
        }
      ],
      "outputs": [],
      "stateMutability": "nonpayable"
    },
    {
      "type": "function",
      "name": "setApprovalForMarketplace",
      "inputs": [],
      "outputs": [],
      "stateMutability": "nonpayable"
    },
    {
      "type": "function",
      "name": "setGemsCooldownPeriods",
      "inputs": [
        {
          "name": "_CommonGemsCooldownPeriod",
          "type": "uint256",
          "internalType": "uint256"
        },
        {
          "name": "_RareGemsCooldownPeriod",
          "type": "uint256",
          "internalType": "uint256"
        },
        {
          "name": "_UniqueGemsCooldownPeriod",
          "type": "uint256",
          "internalType": "uint256"
        },
        {
          "name": "_EpicGemsCooldownPeriod",
          "type": "uint256",
          "internalType": "uint256"
        },
        {
          "name": "_LegendaryGemsCooldownPeriod",
          "type": "uint256",
          "internalType": "uint256"
        },
        {
          "name": "_MythicGemsCooldownPeriod",
          "type": "uint256",
          "internalType": "uint256"
        }
      ],
      "outputs": [],
      "stateMutability": "nonpayable"
    },
    {
      "type": "function",
      "name": "setGemsMiningPeriods",
      "inputs": [
        {
          "name": "_CommonGemsMiningPeriod",
          "type": "uint256",
          "internalType": "uint256"
        },
        {
          "name": "_RareGemsMiningPeriod",
          "type": "uint256",
          "internalType": "uint256"
        },
        {
          "name": "_UniqueGemsMiningPeriod",
          "type": "uint256",
          "internalType": "uint256"
        },
        {
          "name": "_EpicGemsMiningPeriod",
          "type": "uint256",
          "internalType": "uint256"
        },
        {
          "name": "_LegendaryGemsMiningPeriod",
          "type": "uint256",
          "internalType": "uint256"
        },
        {
          "name": "_MythicGemsMiningPeriod",
          "type": "uint256",
          "internalType": "uint256"
        }
      ],
      "outputs": [],
      "stateMutability": "nonpayable"
    },
    {
      "type": "function",
      "name": "setGemsValue",
      "inputs": [
        {
          "name": "_CommonGemsValue",
          "type": "uint256",
          "internalType": "uint256"
        },
        {
          "name": "_RareGemsValue",
          "type": "uint256",
          "internalType": "uint256"
        },
        {
          "name": "_UniqueGemsValue",
          "type": "uint256",
          "internalType": "uint256"
        },
        {
          "name": "_EpicGemsValue",
          "type": "uint256",
          "internalType": "uint256"
        },
        {
          "name": "_LegendaryGemsValue",
          "type": "uint256",
          "internalType": "uint256"
        },
        {
          "name": "_MythicGemsValue",
          "type": "uint256",
          "internalType": "uint256"
        }
      ],
      "outputs": [],
      "stateMutability": "nonpayable"
    },
    {
      "type": "function",
      "name": "setIsLocked",
      "inputs": [
        {
          "name": "_tokenId",
          "type": "uint256",
          "internalType": "uint256"
        },
        {
          "name": "_isLocked",
          "type": "bool",
          "internalType": "bool"
        }
      ],
      "outputs": [],
      "stateMutability": "nonpayable"
    },
    {
      "type": "function",
      "name": "setMarketPlaceAddress",
      "inputs": [
        {
          "name": "_marketplace",
          "type": "address",
          "internalType": "address"
        }
      ],
      "outputs": [],
      "stateMutability": "nonpayable"
    },
    {
      "type": "function",
      "name": "setNumberOfSolidColors",
      "inputs": [
        {
          "name": "_numberOfSolidColors",
          "type": "uint8",
          "internalType": "uint8"
        }
      ],
      "outputs": [],
      "stateMutability": "nonpayable"
    },
    {
      "type": "function",
      "name": "setRandomPack",
      "inputs": [
        {
          "name": "_randomPack",
          "type": "address",
          "internalType": "address"
        }
      ],
      "outputs": [],
      "stateMutability": "nonpayable"
    },
    {
      "type": "function",
      "name": "setTokenURI",
      "inputs": [
        {
          "name": "tokenId",
          "type": "uint256",
          "internalType": "uint256"
        },
        {
          "name": "_tokenURI",
          "type": "string",
          "internalType": "string"
        }
      ],
      "outputs": [],
      "stateMutability": "nonpayable"
    },
    {
      "type": "function",
      "name": "setminingTrys",
      "inputs": [
        {
          "name": "_CommonminingTry",
          "type": "uint256",
          "internalType": "uint256"
        },
        {
          "name": "_RareminingTry",
          "type": "uint256",
          "internalType": "uint256"
        },
        {
          "name": "_UniqueminingTry",
          "type": "uint256",
          "internalType": "uint256"
        },
        {
          "name": "_EpicminingTry",
          "type": "uint256",
          "internalType": "uint256"
        },
        {
          "name": "_LegendaryminingTry",
          "type": "uint256",
          "internalType": "uint256"
        },
        {
          "name": "_MythicminingTry",
          "type": "uint256",
          "internalType": "uint256"
        }
      ],
      "outputs": [],
      "stateMutability": "nonpayable"
    },
    {
      "type": "function",
      "name": "startMiningGEM",
      "inputs": [
        {
          "name": "_tokenId",
          "type": "uint256",
          "internalType": "uint256"
        }
      ],
      "outputs": [
        {
          "name": "",
          "type": "bool",
          "internalType": "bool"
        }
      ],
      "stateMutability": "nonpayable"
    },
    {
      "type": "function",
      "name": "supportsInterface",
      "inputs": [
        {
          "name": "interfaceId",
          "type": "bytes4",
          "internalType": "bytes4"
        }
      ],
      "outputs": [
        {
          "name": "",
          "type": "bool",
          "internalType": "bool"
        }
      ],
      "stateMutability": "view"
    },
    {
      "type": "function",
      "name": "symbol",
      "inputs": [],
      "outputs": [
        {
          "name": "",
          "type": "string",
          "internalType": "string"
        }
      ],
      "stateMutability": "view"
    },
    {
      "type": "function",
      "name": "tokenMiningByUser",
      "inputs": [
        {
          "name": "",
          "type": "address",
          "internalType": "address"
        }
      ],
      "outputs": [
        {
          "name": "",
          "type": "uint256",
          "internalType": "uint256"
        }
      ],
      "stateMutability": "view"
    },
    {
      "type": "function",
      "name": "tokenReadyToMine",
      "inputs": [
        {
          "name": "",
          "type": "uint256",
          "internalType": "uint256"
        }
      ],
      "outputs": [
        {
          "name": "",
          "type": "bool",
          "internalType": "bool"
        }
      ],
      "stateMutability": "view"
    },
    {
      "type": "function",
      "name": "tokenURI",
      "inputs": [
        {
          "name": "tokenId",
          "type": "uint256",
          "internalType": "uint256"
        }
      ],
      "outputs": [
        {
          "name": "",
          "type": "string",
          "internalType": "string"
        }
      ],
      "stateMutability": "view"
    },
    {
      "type": "function",
      "name": "tokensOfOwner",
      "inputs": [
        {
          "name": "_owner",
          "type": "address",
          "internalType": "address"
        }
      ],
      "outputs": [
        {
          "name": "ownerTokens",
          "type": "uint256[]",
          "internalType": "uint256[]"
        }
      ],
      "stateMutability": "view"
    },
    {
      "type": "function",
      "name": "ton",
      "inputs": [],
      "outputs": [
        {
          "name": "",
          "type": "address",
          "internalType": "address"
        }
      ],
      "stateMutability": "view"
    },
    {
      "type": "function",
      "name": "totalSupply",
      "inputs": [],
      "outputs": [
        {
          "name": "",
          "type": "uint256",
          "internalType": "uint256"
        }
      ],
      "stateMutability": "view"
    },
    {
      "type": "function",
      "name": "transferAdmin",
      "inputs": [
        {
          "name": "newAdmin",
          "type": "address",
          "internalType": "address"
        }
      ],
      "outputs": [],
      "stateMutability": "nonpayable"
    },
    {
      "type": "function",
      "name": "transferFrom",
      "inputs": [
        {
          "name": "from",
          "type": "address",
          "internalType": "address"
        },
        {
          "name": "to",
          "type": "address",
          "internalType": "address"
        },
        {
          "name": "tokenId",
          "type": "uint256",
          "internalType": "uint256"
        }
      ],
      "outputs": [],
      "stateMutability": "nonpayable"
    },
    {
      "type": "function",
      "name": "transferOwnership",
      "inputs": [
        {
          "name": "newAdmin",
          "type": "address",
          "internalType": "address"
        }
      ],
      "outputs": [],
      "stateMutability": "nonpayable"
    },
    {
      "type": "function",
      "name": "treasury",
      "inputs": [],
      "outputs": [
        {
          "name": "",
          "type": "address",
          "internalType": "address"
        }
      ],
      "stateMutability": "view"
    },
    {
      "type": "function",
      "name": "unpause",
      "inputs": [],
      "outputs": [],
      "stateMutability": "nonpayable"
    },
    {
      "type": "function",
      "name": "userMiningStartTime",
      "inputs": [
        {
          "name": "",
          "type": "address",
          "internalType": "address"
        },
        {
          "name": "",
          "type": "uint256",
          "internalType": "uint256"
        }
      ],
      "outputs": [
        {
          "name": "",
          "type": "uint256",
          "internalType": "uint256"
        }
      ],
      "stateMutability": "view"
    },
    {
      "type": "function",
      "name": "userMiningToken",
      "inputs": [
        {
          "name": "",
          "type": "address",
          "internalType": "address"
        },
        {
          "name": "",
          "type": "uint256",
          "internalType": "uint256"
        }
      ],
      "outputs": [
        {
          "name": "",
          "type": "bool",
          "internalType": "bool"
        }
      ],
      "stateMutability": "view"
    },
    {
      "type": "function",
      "name": "wston",
      "inputs": [],
      "outputs": [
        {
          "name": "",
          "type": "address",
          "internalType": "address"
        }
      ],
      "stateMutability": "view"
    },
    {
      "type": "event",
      "name": "Approval",
      "inputs": [
        {
          "name": "owner",
          "type": "address",
          "indexed": true,
          "internalType": "address"
        },
        {
          "name": "approved",
          "type": "address",
          "indexed": true,
          "internalType": "address"
        },
        {
          "name": "tokenId",
          "type": "uint256",
          "indexed": true,
          "internalType": "uint256"
        }
      ],
      "anonymous": false
    },
    {
      "type": "event",
      "name": "ApprovalForAll",
      "inputs": [
        {
          "name": "owner",
          "type": "address",
          "indexed": true,
          "internalType": "address"
        },
        {
          "name": "operator",
          "type": "address",
          "indexed": true,
          "internalType": "address"
        },
        {
          "name": "approved",
          "type": "bool",
          "indexed": false,
          "internalType": "bool"
        }
      ],
      "anonymous": false
    },
    {
      "type": "event",
      "name": "BackgroundColorAdded",
      "inputs": [
        {
          "name": "id",
          "type": "uint8",
          "indexed": true,
          "internalType": "uint8"
        },
        {
          "name": "backgroundColor",
          "type": "string",
          "indexed": false,
          "internalType": "string"
        }
      ],
      "anonymous": false
    },
    {
      "type": "event",
      "name": "BatchMetadataUpdate",
      "inputs": [
        {
          "name": "_fromTokenId",
          "type": "uint256",
          "indexed": false,
          "internalType": "uint256"
        },
        {
          "name": "_toTokenId",
          "type": "uint256",
          "indexed": false,
          "internalType": "uint256"
        }
      ],
      "anonymous": false
    },
    {
      "type": "event",
      "name": "ColorAdded",
      "inputs": [
        {
          "name": "id",
          "type": "uint8",
          "indexed": true,
          "internalType": "uint8"
        },
        {
          "name": "color",
          "type": "string",
          "indexed": false,
          "internalType": "string"
        }
      ],
      "anonymous": false
    },
    {
      "type": "event",
      "name": "ColorValidated",
      "inputs": [
        {
          "name": "color_0",
          "type": "uint8",
          "indexed": false,
          "internalType": "uint8"
        },
        {
          "name": "color_1",
          "type": "uint8",
          "indexed": false,
          "internalType": "uint8"
        }
      ],
      "anonymous": false
    },
    {
      "type": "event",
      "name": "CountGemsByQuadrant",
      "inputs": [
        {
          "name": "gemCount",
          "type": "uint256",
          "indexed": false,
          "internalType": "uint256"
        },
        {
          "name": "tokenIds",
          "type": "uint256[]",
          "indexed": false,
          "internalType": "uint256[]"
        }
      ],
      "anonymous": false
    },
    {
      "type": "event",
      "name": "Created",
      "inputs": [
        {
          "name": "tokenId",
          "type": "uint256",
          "indexed": true,
          "internalType": "uint256"
        },
        {
          "name": "rarity",
          "type": "uint8",
          "indexed": false,
          "internalType": "enum GemFactoryStorage.Rarity"
        },
        {
          "name": "color",
          "type": "uint8[2]",
          "indexed": false,
          "internalType": "uint8[2]"
        },
        {
          "name": "value",
          "type": "uint256",
          "indexed": false,
          "internalType": "uint256"
        },
        {
          "name": "quadrants",
          "type": "uint8[4]",
          "indexed": false,
          "internalType": "uint8[4]"
        },
        {
          "name": "miningPeriod",
          "type": "uint256",
          "indexed": false,
          "internalType": "uint256"
        },
        {
          "name": "cooldownPeriod",
          "type": "uint256",
          "indexed": false,
          "internalType": "uint256"
        },
        {
          "name": "tokenURI",
          "type": "string",
          "indexed": false,
          "internalType": "string"
        },
        {
          "name": "owner",
          "type": "address",
          "indexed": false,
          "internalType": "address"
        }
      ],
      "anonymous": false
    },
    {
      "type": "event",
      "name": "GemForged",
      "inputs": [
        {
          "name": "gemOwner",
          "type": "address",
          "indexed": false,
          "internalType": "address"
        },
        {
          "name": "gemsTokenIds",
          "type": "uint256[]",
          "indexed": false,
          "internalType": "uint256[]"
        },
        {
          "name": "newGemCreatedId",
          "type": "uint256",
          "indexed": false,
          "internalType": "uint256"
        },
        {
          "name": "newRarity",
          "type": "uint8",
          "indexed": false,
          "internalType": "enum GemFactoryStorage.Rarity"
        },
        {
          "name": "forgedQuadrants",
          "type": "uint8[4]",
          "indexed": false,
          "internalType": "uint8[4]"
        },
        {
          "name": "color",
          "type": "uint8[2]",
          "indexed": false,
          "internalType": "uint8[2]"
        },
        {
          "name": "newValue",
          "type": "uint256",
          "indexed": false,
          "internalType": "uint256"
        }
      ],
      "anonymous": false
    },
    {
      "type": "event",
      "name": "GemMelted",
      "inputs": [
        {
          "name": "_tokenId",
          "type": "uint256",
          "indexed": false,
          "internalType": "uint256"
        },
        {
          "name": "_from",
          "type": "address",
          "indexed": false,
          "internalType": "address"
        }
      ],
      "anonymous": false
    },
    {
      "type": "event",
      "name": "GemMiningClaimed",
      "inputs": [
        {
          "name": "tokenId",
          "type": "uint256",
          "indexed": false,
          "internalType": "uint256"
        },
        {
          "name": "miner",
          "type": "address",
          "indexed": false,
          "internalType": "address"
        }
      ],
      "anonymous": false
    },
    {
      "type": "event",
      "name": "GemMiningStarted",
      "inputs": [
        {
          "name": "tokenId",
          "type": "uint256",
          "indexed": false,
          "internalType": "uint256"
        },
        {
          "name": "miner",
          "type": "address",
          "indexed": false,
          "internalType": "address"
        },
        {
          "name": "startMiningTime",
          "type": "uint256",
          "indexed": false,
          "internalType": "uint256"
        },
        {
          "name": "newminingTry",
          "type": "uint256",
          "indexed": false,
          "internalType": "uint256"
        }
      ],
      "anonymous": false
    },
    {
      "type": "event",
      "name": "MetadataUpdate",
      "inputs": [
        {
          "name": "_tokenId",
          "type": "uint256",
          "indexed": false,
          "internalType": "uint256"
        }
      ],
      "anonymous": false
    },
    {
      "type": "event",
      "name": "NoGemAvailable",
      "inputs": [
        {
          "name": "tokenId",
          "type": "uint256",
          "indexed": false,
          "internalType": "uint256"
        }
      ],
      "anonymous": false
    },
    {
      "type": "event",
      "name": "Paused",
      "inputs": [
        {
          "name": "account",
          "type": "address",
          "indexed": false,
          "internalType": "address"
        }
      ],
      "anonymous": false
    },
    {
      "type": "event",
      "name": "RandomGemSelected",
      "inputs": [
        {
          "name": "chosenTokenId",
          "type": "uint256",
          "indexed": false,
          "internalType": "uint256"
        },
        {
          "name": "requestNumber",
          "type": "uint256",
          "indexed": false,
          "internalType": "uint256"
        }
      ],
      "anonymous": false
    },
    {
      "type": "event",
      "name": "RoleAdminChanged",
      "inputs": [
        {
          "name": "role",
          "type": "bytes32",
          "indexed": true,
          "internalType": "bytes32"
        },
        {
          "name": "previousAdminRole",
          "type": "bytes32",
          "indexed": true,
          "internalType": "bytes32"
        },
        {
          "name": "newAdminRole",
          "type": "bytes32",
          "indexed": true,
          "internalType": "bytes32"
        }
      ],
      "anonymous": false
    },
    {
      "type": "event",
      "name": "RoleGranted",
      "inputs": [
        {
          "name": "role",
          "type": "bytes32",
          "indexed": true,
          "internalType": "bytes32"
        },
        {
          "name": "account",
          "type": "address",
          "indexed": true,
          "internalType": "address"
        },
        {
          "name": "sender",
          "type": "address",
          "indexed": true,
          "internalType": "address"
        }
      ],
      "anonymous": false
    },
    {
      "type": "event",
      "name": "RoleRevoked",
      "inputs": [
        {
          "name": "role",
          "type": "bytes32",
          "indexed": true,
          "internalType": "bytes32"
        },
        {
          "name": "account",
          "type": "address",
          "indexed": true,
          "internalType": "address"
        },
        {
          "name": "sender",
          "type": "address",
          "indexed": true,
          "internalType": "address"
        }
      ],
      "anonymous": false
    },
    {
      "type": "event",
      "name": "Transfer",
      "inputs": [
        {
          "name": "from",
          "type": "address",
          "indexed": true,
          "internalType": "address"
        },
        {
          "name": "to",
          "type": "address",
          "indexed": true,
          "internalType": "address"
        },
        {
          "name": "tokenId",
          "type": "uint256",
          "indexed": true,
          "internalType": "uint256"
        }
      ],
      "anonymous": false
    },
    {
      "type": "event",
      "name": "TransferGEM",
      "inputs": [
        {
          "name": "from",
          "type": "address",
          "indexed": false,
          "internalType": "address"
        },
        {
          "name": "to",
          "type": "address",
          "indexed": false,
          "internalType": "address"
        },
        {
          "name": "tokenId",
          "type": "uint256",
          "indexed": false,
          "internalType": "uint256"
        }
      ],
      "anonymous": false
    },
    {
      "type": "event",
      "name": "Unpaused",
      "inputs": [
        {
          "name": "account",
          "type": "address",
          "indexed": false,
          "internalType": "address"
        }
      ],
      "anonymous": false
    },
    {
      "type": "error",
      "name": "AccessControlBadConfirmation",
      "inputs": []
    },
    {
      "type": "error",
      "name": "AccessControlUnauthorizedAccount",
      "inputs": [
        {
          "name": "account",
          "type": "address",
          "internalType": "address"
        },
        {
          "name": "neededRole",
          "type": "bytes32",
          "internalType": "bytes32"
        }
      ]
    },
    {
      "type": "error",
      "name": "ERC721IncorrectOwner",
      "inputs": [
        {
          "name": "sender",
          "type": "address",
          "internalType": "address"
        },
        {
          "name": "tokenId",
          "type": "uint256",
          "internalType": "uint256"
        },
        {
          "name": "owner",
          "type": "address",
          "internalType": "address"
        }
      ]
    },
    {
      "type": "error",
      "name": "ERC721InsufficientApproval",
      "inputs": [
        {
          "name": "operator",
          "type": "address",
          "internalType": "address"
        },
        {
          "name": "tokenId",
          "type": "uint256",
          "internalType": "uint256"
        }
      ]
    },
    {
      "type": "error",
      "name": "ERC721InvalidApprover",
      "inputs": [
        {
          "name": "approver",
          "type": "address",
          "internalType": "address"
        }
      ]
    },
    {
      "type": "error",
      "name": "ERC721InvalidOperator",
      "inputs": [
        {
          "name": "operator",
          "type": "address",
          "internalType": "address"
        }
      ]
    },
    {
      "type": "error",
      "name": "ERC721InvalidOwner",
      "inputs": [
        {
          "name": "owner",
          "type": "address",
          "internalType": "address"
        }
      ]
    },
    {
      "type": "error",
      "name": "ERC721InvalidReceiver",
      "inputs": [
        {
          "name": "receiver",
          "type": "address",
          "internalType": "address"
        }
      ]
    },
    {
      "type": "error",
      "name": "ERC721InvalidSender",
      "inputs": [
        {
          "name": "sender",
          "type": "address",
          "internalType": "address"
        }
      ]
    },
    {
      "type": "error",
      "name": "ERC721NonexistentToken",
      "inputs": [
        {
          "name": "tokenId",
          "type": "uint256",
          "internalType": "uint256"
        }
      ]
    },
    {
      "type": "error",
      "name": "OnlyCoordinatorCanFulfill",
      "inputs": [
        {
          "name": "have",
          "type": "address",
          "internalType": "address"
        },
        {
          "name": "want",
          "type": "address",
          "internalType": "address"
        }
      ]
    },
    {
      "type": "error",
      "name": "ReentrancyGuardReentrantCall",
      "inputs": []
    }
  ],
  "bytecode": {
    "object": "0x60a06040523461003a576100196100146100d2565b6101d6565b60405161896e61054282396080518181816148270152616f39015261896e90f35b600080fd5b634e487b7160e01b600052604160045260246000fd5b90601f01601f191681019081106001600160401b0382111761007657604052565b61003f565b9061008f61008860405190565b9283610055565b565b6001600160a01b031690565b90565b6001600160a01b0381160361003a57565b9050519061008f826100a0565b9060208282031261003a5761009d916100b1565b61009d618eb0803803806100e58161007b565b9283398101906100be565b6001600160401b03811161007657602090601f01601f19160190565b9061011e610119836100f0565b61007b565b918252565b61012d600761010c565b6623b2b6a9aa27a760c91b602082015290565b61009d610123565b610152600361010c565b6247454d60e81b602082015290565b61009d610148565b61009d61009d61009d9290565b61009d6000610169565b906001600160a01b03905b9181191691161790565b61009d90610091906001600160a01b031682565b61009d90610195565b61009d906101a9565b906101cb61009d6101d2926101b2565b8254610180565b9055565b61008f906101f46101e5610140565b6101ed610161565b9083610239565b6102066101ff610176565b3390610491565b5060356101bb565b61009d6001610169565b906000199061018b565b9061023261009d6101d292610169565b8254610218565b906102449291610256565b61008f61024f61020e565b603b610222565b90610269926102649161026e565b6101b2565b608052565b61008f91829182918291829190610441565b634e487b7160e01b600052602260045260246000fd5b90600160028304921680156102b6575b60208310146102b157565b610280565b91607f16916102a6565b9160001960089290920291821b911b61018b565b91906102e561009d6101d293610169565b9083546102c0565b61008f916000916102d4565b818110610304575050565b8061031260006001936102ed565b016102f9565b9190601f811161032757505050565b61033961008f93600052602060002090565b906020601f84018190048301931061035b575b6020601f9091010401906102f9565b909150819061034c565b9061036e815190565b906001600160401b038211610076576103918261038b8554610296565b85610318565b602090601f83116001146103cc576101d29291600091836103c1575b5050600019600883021c1916906002021790565b0151905038806103ad565b601f198316916103e185600052602060002090565b9260005b81811061041f57509160029391856001969410610406575b50505002019055565b01516000196008601f8516021c191690553880806103fd565b919360206001819287870151815501950192016103e5565b9061008f91610365565b9061045061008f926000610437565b6001610437565b905b600052602052604060002090565b90610459906101b2565b9060ff9061018b565b9061048a61009d6101d292151590565b8254610471565b6104a261049e838361051d565b1590565b15610516576104c860016104c38460006104bd86603a610457565b01610467565b61047a565b6104e26104dc6104d6339390565b936101b2565b916101b2565b917f2f8788117e7eff1d82e926ec794901d17c78024a50270940304540a733656f0d61050d60405190565b600090a4600190565b5050600090565b61009d9160006104bd61053a93610532600090565b50603a610457565b5460ff169056fe610160604052600436101561001357600080fd5b60003560e01c806301ffc9a714610863578063034294f81461085e578063038a7e05146108595780630491fd3e1461085457806304e41a0b1461084f57806306fdde031461084a578063081812fc146108455780630922f51314610840578063095ea7b31461083b5780630c7254a0146108365780630de32a97146108315780630ff1ac671461082c5780631008ef7814610827578063139b63f31461082257806315341f2b1461081d578063162094c414610818578063166b35c9146108135780631785f53c1461080e57806318160ddd146108095780631885cbbe1461080457806318898f36146107ff5780631d0e0aac146107fa5780631da0fc9c146107f5578063201832c0146107f057806323b872dd146107eb578063248a9ca3146107e657806324d7806c146107e1578063274f2455146107dc578063276a28a3146107d75780632b8cd094146107d25780632bbbe94d146107cd5780632f2ff15d146107c857806333158058146107c357806333d608f1146107be57806333fcb648146107b957806336568abe146107b457806336b17e13146107af57806337ed11db146107aa578063389ed267146107a55780633b19e84a146107a05780633ec7af4a1461079b5780633f4ba83a146107965780633fb310a51461079157806342842e0e1461078c5780634cbe4360146107875780634d723a75146107825780634ec741b41461077d57806350d2a27614610778578063550d01a31461077357806358bf3e651461076e5780635badbe4c146107695780635bbffab6146107645780635c975abb1461075f5780635fcf94d11461075a57806361d027b31461075557806361f7f6d714610750578063627517381461074b5780636352211e1461074657806363a8fd8914610741578063676f79f11461073c5780636b1a96fa146107375780636b2c0f55146107325780636c106fea1461072d578063704802751461072857806370a0823114610723578063715018a61461071e57806371b57c4714610719578063724188bc1461071457806375829def1461070f57806375b238fc1461070a57806377f7e499146107055780637866369b146107005780637fe6fde5146106fb57806382dc1ec4146106f65780638456cb59146106f15780638462151c146106ec5780638796ba8c146106e75780638964f0c1146106e25780638d41fe30146106dd5780638f32d59b146106d85780638fddb065146106d357806391d14854146106ce57806395d89b41146106c957806397125c40146106c4578063975781b7146106bf57806398a2c65d146106ba5780639a66af62146106b5578063a0b2d41b146106b0578063a168fa89146106ab578063a1770a7d146106a6578063a1c52726146106a1578063a217fddf1461069c578063a22cb46514610697578063a8ce886e14610692578063aa723bb71461068d578063aae31df314610688578063abc8c7af14610683578063ad0d3d3f1461067e578063ad6caa4714610679578063aff2a46314610674578063b78417b01461066f578063b88d4fde1461066a578063b911135f14610665578063bb4a250914610660578063bc36b2ee1461065b578063bd11f69d14610656578063c138907214610651578063c28fb6b71461064c578063c4d2fcae14610647578063c61a46c514610642578063c87b56dd1461063d578063cc48b94714610638578063cc98ef9614610633578063cec21acb1461062e578063d1bd7e0614610629578063d547741f14610624578063d55486d31461061f578063d62c990f1461061a578063d7a4649514610615578063dc0515d614610610578063e4b7fddf1461060b578063e7a523c014610606578063e985e9c514610601578063ecc5e06f146105fc578063ed8c2472146105f7578063efa2cc29146105f2578063f2fde38b146105ed578063f66f9e34146105e8578063f7c0794d146105e3578063f99a6bb5146105de578063fea90d02146105d9578063ff198a1d146105d45763ffbccde40361086857612a18565b6129ed565b6129bf565b61298f565b612974565b61294d565b612929565b61290e565b6128ea565b6128cf565b6128a3565b61286c565b612851565b61282a565b61280f565b6127e8565b6127cd565b6127b4565b612799565b612772565b61274a565b61272f565b612708565b6126ed565b6126d2565b6126ab565b612690565b612665565b612632565b612610565b612576565b61254a565b6124e0565b6124b9565b61249e565b61247f565b612464565b612431565b6123a6565b61237a565b612343565b61230c565b6122db565b6122bf565b612277565b612187565b612163565b612148565b61211d565b6120b2565b612087565b61206b565b612050565b612029565b61200e565b611ff3565b611fd8565b611f85565b611f6d565b611f55565b611f3a565b611f1f565b611ef4565b611ec1565b611ea9565b611e8e565b611e67565b611e43565b611e28565b611e10565b611df5565b611ddd565b611dc2565b611d37565b611ce7565b611cc0565b611ca5565b611c62565b611a13565b6119ec565b6119d1565b6119aa565b611983565b61195c565b611935565b6118d5565b61187e565b611859565b611806565b6117ed565b6117d2565b6117ae565b611793565b611778565b611751565b611738565b611701565b6116bd565b6116a1565b6115c5565b61157f565b611566565b611528565b611501565b6112ed565b6112d7565b6112bc565b6112a1565b611288565b611244565b61121d565b611205565b6111ea565b6111c3565b61119c565b611184565b611155565b61113c565b6110ef565b6110af565b611088565b61105d565b610bc7565b610b9c565b610b30565b610ad6565b610a95565b610a3a565b6109b3565b61098a565b61095e565b61090d565b6108aa565b600080fd5b6001600160e01b031981165b0361086857565b9050359061088d8261086d565b565b90602082820312610868576108a391610880565b90565b9052565b34610868576108d86108c56108c036600461088f565b612a33565b6040515b91829182901515815260200190565b0390f35b600091031261086857565b6108a3916008021c5b60ff1690565b906108a391546108e7565b6108a3600060096108f6565b346108685761091d3660046108dc565b6108d8610928610901565b6040519182918260ff909116815260200190565b6108a3916008021c81565b906108a3915461093c565b6108a360006020610947565b346108685761096e3660046108dc565b6108d8610979610952565b6040515b9182918290815260200190565b346108685761099a3660046108dc565b6109a2612aaf565b604051005b6108a360006025610947565b34610868576109c33660046108dc565b6108d86109796109a7565b60005b8381106109e15750506000910152565b81810151838201526020016109d1565b610a12610a1b602093610a2593610a06815190565b80835293849260200190565b958691016109ce565b601f01601f191690565b0190565b60208082526108a3929101906109f1565b3461086857610a4a3660046108dc565b6108d8610a55612ac0565b6040515b91829182610a29565b80610879565b9050359061088d82610a62565b90602082820312610868576108a391610a68565b6001600160a01b031690565b34610868576108d8610ab0610aab366004610a75565b612aca565b604051918291826001600160a01b03909116815260200190565b6108a36000600c6108f6565b3461086857610ae63660046108dc565b6108d8610928610aca565b6001600160a01b038116610879565b9050359061088d82610af1565b9190604083820312610868576108a3906020610b298286610b00565b9401610a68565b34610868576109a2610b43366004610b0d565b90612add565b909160c08284031261086857610b5f8383610a68565b92610b6d8160208501610a68565b92610b7b8260408301610a68565b926108a3610b8c8460608501610a68565b9360a0610b298260808701610a68565b34610868576109a2610baf366004610b49565b94939093929192612bd0565b6108a360006024610947565b3461086857610bd73660046108dc565b6108d8610979610bbb565b634e487b7160e01b600052604160045260246000fd5b90601f01601f191681019081106001600160401b03821117610c1957604052565b610be2565b9061088d610c2b60405190565b9283610bf8565b6001600160401b038111610c195760208091020190565b6006111561086857565b9050359061088d82610c49565b90929192610c75610c7082610c32565b610c1e565b938185526020808601920283019281841161086857915b838310610c995750505050565b60208091610ca78486610c53565b815201920191610c8c565b9080601f83011215610868578160206108a393359101610c60565b6001600160401b038111610c195760200290565b60ff8116610879565b9050359061088d82610ce1565b90929192610d07610c7082610ccd565b93602085920283019281841161086857915b838310610d265750505050565b60208091610d348486610cea565b815201920191610d19565b9080601f830112156108685760026108a392610cf7565b90929192610d66610c7082610c32565b93818552604060208601920283019281841161086857915b838310610d8b5750505050565b6020604091610d9a8486610d3f565b815201920191610d7e565b9080601f83011215610868578160206108a393359101610d56565b90929192610dd0610c7082610ccd565b93602085920283019281841161086857915b838310610def5750505050565b60208091610dfd8486610cea565b815201920191610de2565b9080601f830112156108685760046108a392610dc0565b90929192610e2f610c7082610c32565b93818552608060208601920283019281841161086857915b838310610e545750505050565b6020608091610e638486610e08565b815201920191610e47565b9080601f83011215610868578160206108a393359101610e1f565b6001600160401b038111610c1957602090601f01601f19160190565b90826000939282370152565b90929192610ec1610c7082610e89565b93818552818301116108685761088d916020850190610ea5565b9080601f83011215610868578160206108a393359101610eb1565b929190610f05610c7082610c32565b93818552602080860192028101918383116108685781905b838210610f2b575050505050565b81356001600160401b03811161086857602091610f4b8784938701610edb565b815201910190610f1d565b9080601f83011215610868578160206108a393359101610ef6565b906080828203126108685781356001600160401b0381116108685781610f98918401610cb2565b9260208301356001600160401b0381116108685782610fb8918501610da5565b9260408101356001600160401b0381116108685783610fd8918301610e6e565b9260608201356001600160401b038111610868576108a39201610f56565b9061101661100f611005845190565b8084529260200190565b9260200190565b9060005b8181106110275750505090565b90919261104461103d6001928651815260200190565b9460200190565b92910161101a565b60208082526108a392910190610ff6565b34610868576108d861107c611073366004610f71565b92919091612e52565b6040519182918261104c565b34610868576110983660046108dc565b6108d8610979612e60565b6108a360006028610947565b34610868576110bf3660046108dc565b6108d86109796110a3565b906020828203126108685781356001600160401b038111610868576108a39201610edb565b34610868576109a26111023660046110ca565b613138565b9190916040818403126108685761111e8382610a68565b9260208201356001600160401b038111610868576108a39201610edb565b34610868576109a261114f366004611107565b90613141565b34610868576111653660046108dc565b6108d861097961314b565b90602082820312610868576108a391610b00565b34610868576109a2611197366004611170565b6131d9565b34610868576111ac3660046108dc565b6108d86109796131f8565b6108a36000602b610947565b34610868576111d33660046108dc565b6108d86109796111b7565b6108a36000601f610947565b34610868576111fa3660046108dc565b6108d86109796111de565b34610868576109a26112183660046110ca565b6132b4565b34610868576108d86108c5611233366004610a75565b613627565b6108a36000601b610947565b34610868576112543660046108dc565b6108d8610979611238565b9091606082840312610868576108a36112788484610b00565b936040610b298260208701610b00565b34610868576109a261129b36600461125f565b916137c5565b34610868576108d86109796112b7366004610a75565b6137d6565b34610868576108d86108c56112d2366004611170565b6137f5565b6108d86108c56112e8366004610a75565b613c21565b34610868576108d86108c5611303366004610a75565b613c2c565b634e487b7160e01b600052602160045260246000fd5b6006111561132857565b611308565b9061088d8261131e565b6108a39061132d565b6108a690611337565b61135961135560049390565b9190565b6000915b83831061136a5750505050565b61138061100f600192845160ff16815260200190565b9201919061135d565b61139561135560029390565b6000915b8383106113a65750505050565b6113bc61100f600192845160ff16815260200190565b92019190611399565b80518252906108a3906101c06101406114726101e084016113ee60208801516020870190611340565b61140060408801516040870190611349565b611412606088015160c0870190611389565b6114226080880151610100870152565b61143260a0880151610120870152565b61144060c088015184870152565b60e0870151151561016086015261145e610100880151610180870152565b6101208701518582036101a08701526109f1565b940151910152565b906108a3916113c5565b9061149a611490835190565b8083529160200190565b90816114ac6020830284019460200190565b926000915b8383106114c057505050505090565b909192939460206114e36114dc8385600195038752895161147a565b9760200190565b93019301919392906114b1565b60208082526108a392910190611484565b34610868576115113660046108dc565b6108d861151c613eca565b604051918291826114f0565b34610868576115383660046108dc565b6108d8610ab0613ed4565b9190604083820312610868576108a390602061155f8286610a68565b9401610b00565b34610868576109a2611579366004611543565b90613f01565b34610868576108d86108c5611595366004610b0d565b9061405d565b6115a86108a36108a39290565b63ffffffff1690565b6108a36203345061159b565b6108a36115b1565b34610868576115d53660046108dc565b6108d86115e06115bd565b6040519182918263ffffffff909116815260200190565b90929192611607610c7082610c32565b938185526020808601920283019281841161086857915b83831061162b5750505050565b602080916116398486610a68565b81520192019161161e565b9080601f83011215610868578160206108a3933591016115f7565b90916080828403126108685781356001600160401b0381116108685761168a846108a3928501611644565b93604061169a8260208701610c53565b9401610d3f565b34610868576108d86109796116b736600461165f565b916147c0565b34610868576109a26116d0366004611543565b906147cd565b6108a3916008021c6001600160a01b031690565b906108a391546116d6565b6108a3600160316116ea565b34610868576117113660046108dc565b6108d8610ab06116f5565b9190604083820312610868576108a3906020610b298286610a68565b34610868576109a261174b36600461171c565b90614820565b34610868576117613660046108dc565b6108d86000805160206188d9833981519152610979565b34610868576117883660046108dc565b6108d8610ab061488b565b34610868576117a33660046108dc565b6108d8610979614895565b34610868576117be3660046108dc565b6109a2614972565b6108a360006022610947565b34610868576117e23660046108dc565b6108d86109796117c6565b34610868576109a261180036600461125f565b9161497a565b34610868576118163660046108dc565b6108d861097961498e565b801515610879565b9050359061088d82611821565b9190604083820312610868576108a39060206118528286610a68565b9401611829565b34610868576109a261186c366004611836565b90614a0c565b6108a3600060366116ea565b346108685761188e3660046108dc565b6108d8610ab0611872565b6001600160e01b03191690565b906001600160e01b0319165b600052602052604060002090565b60006118d06108a39260396118a6565b6116ea565b34610868576108d8610ab06118eb36600461088f565b6118c0565b6108a390610a89906001600160a01b031682565b6108a3906118f0565b6108a390611904565b906118b29061190d565b60006119306108a3926038611916565b6108f6565b34610868576108d86108c561194b366004611170565b611920565b6108a36000601d610947565b346108685761196c3660046108dc565b6108d8610979611950565b6108a360006030610947565b34610868576119933660046108dc565b6108d8610979611977565b6108a360006026610947565b34610868576119ba3660046108dc565b6108d861097961199e565b6108a3600060166108f6565b34610868576119e13660046108dc565b6108d86108c56119c5565b34610868576119fc3660046108dc565b6108d8610979614a16565b6108a3600060336116ea565b3461086857611a233660046108dc565b6108d8610ab0611a07565b634e487b7160e01b600052603260045260246000fd5b8054821015611a6757611a5e600b91600052602060002090565b91020190600090565b611a2e565b6108a39081565b6108a39054611a6c565b6108a3906108f0565b6108a39054611a7d565b634e487b7160e01b600052602260045260246000fd5b9060016002830492168015611ac6575b6020831014611ac157565b611a90565b91607f1691611ab6565b80546000939291611aed611ae383611aa6565b8085529360200190565b9160018116908115611b3f5750600114611b0657505050565b611b199192939450600052602060002090565b916000925b818410611b2b5750500190565b805484840152602090930192600101611b1e565b92949550505060ff1916825215156020020190565b906108a391611ad0565b9061088d611b7892611b6f60405190565b93848092611b54565b0383610bf8565b600790611b8a825490565b81101561086857611b9a91611a44565b50611ba481611a73565b91611bb160018301611a86565b91611bbe60048201611a73565b91611bcb60058301611a73565b91611bd860068201611a73565b91611be560078301611a86565b91611bf260088201611a73565b916108a3600a611c0460098501611b5e565b9301611a73565b908152989796956101208a0195909490939092909160208b01611c2d91611340565b60408a015260608901526080880152151560a087015260c086015284810360e0860152611c59916109f1565b61010090930152565b34610868576108d8611c7d611c78366004610a75565b611b7f565b95611c9099979995919594929460405190565b998a998a611c0b565b6108a36000601c610947565b3461086857611cb53660046108dc565b6108d8610979611c99565b34610868576108d8610ab0611cd6366004610a75565b614a20565b6108a3601460366108f6565b3461086857611cf73660046108dc565b6108d86108c5611cdb565b6108a36108a36108a39290565b906118b290611d02565b611d326108a392611d2d6000936013611916565b611d0f565b610947565b34610868576108d8610979611d4d366004610b0d565b90611d19565b90602082820312610868576108a391610cea565b6108f06108a36108a39260ff1690565b906118b290611d67565b634e487b7160e01b600052600060045260246000fd5b90600010611da8576108a390611b5e565b611d81565b6000611dbd6108a3926008611d77565b611d97565b34610868576108d8610a55611dd8366004611d53565b611dad565b34610868576109a2611df0366004611170565b614a50565b3461086857611e053660046108dc565b6108d8610979614a59565b34610868576109a2611e23366004611170565b614a8a565b34610868576108d8610979611e3e366004611170565b614a93565b3461086857611e533660046108dc565b6109a2614aca565b6108a3600060356116ea565b3461086857611e773660046108dc565b6108d8610ab0611e5b565b6108a3600060316108f6565b3461086857611e9e3660046108dc565b6108d8610928611e82565b34610868576109a2611ebc366004611170565b614bca565b3461086857611ed13660046108dc565b6108d86000805160206188f9833981519152610979565b6108a360006029610947565b3461086857611f043660046108dc565b6108d8610979611ee8565b60006119306108a3926014611d0f565b34610868576108d86108c5611f35366004610a75565b611f0f565b34610868576108d86108c5611f50366004610a75565b614ed5565b34610868576109a2611f68366004611170565b614f2d565b3461086857611f7d3660046108dc565b6109a2614f9c565b34610868576108d861107c611f9b366004611170565b614fb3565b8054821015611a6757611a5e600191600052602060002090565b602f5481101561086857611fd26108a391602f611fa0565b90610947565b34610868576108d8610979611fee366004610a75565b611fba565b34610868576120033660046108dc565b6108d8610979615081565b346108685761201e3660046108dc565b6108d861097961508b565b34610868576120393660046108dc565b6108d86108c5615095565b6108a36000602d610947565b34610868576120603660046108dc565b6108d8610979612044565b34610868576108d86108c5612081366004611543565b906150a0565b34610868576120973660046108dc565b6108d8610a556150bb565b60006118d06108a392600f611d0f565b34610868576108d8610ab06120c8366004610a75565b6120a2565b9061010082820312610868576120e38183610c53565b926120f18260208501610d3f565b926120ff8360608301610e08565b9260e08201356001600160401b038111610868576108a39201610edb565b34610868576108d86109796121333660046120cd565b929190916160c5565b6108a360006019610947565b34610868576121583660046108dc565b6108d861097961213c565b34610868576109a2612176366004611d53565b616113565b6108a360006021610947565b34610868576121973660046108dc565b6108d861097961217b565b6108a39060081c6108f0565b6108a390546121a2565b6108a390610a89565b6108a390546121b8565b6121d6906015611d0f565b906121e082611a73565b916121ed60018201611a86565b916121fa600183016121ae565b9161220760028201611a73565b916108a3600461221960038501611a73565b93016121c1565b91946122616122689298979561225a60a09661225161088d9a61224860c08a019e60008b0152565b15156020890152565b15156040870152565b6060850152565b6080830152565b01906001600160a01b03169052565b34610868576108d861229261228d366004610a75565b6121cb565b926122a296949692919260405190565b96879687612220565b6119306108a392611d2d6000936012611916565b34610868576108d86108c56122d5366004610b0d565b906122ab565b34610868576109a26122ee366004610b49565b94939093929192616198565b6108a36000611d02565b6108a36122fa565b346108685761231c3660046108dc565b6108d8610979612304565b9190604083820312610868576108a39060206118528286610b00565b34610868576109a2612356366004612327565b906161a6565b600d54811015610868576123746108a391600d611fa0565b90611d97565b34610868576108d8610a55612390366004610a75565b61235c565b60208082526108a3929101906113c5565b34610868576108d86123c16123bc366004610a75565b616260565b60405191829182612395565b8051825261088d919060a090819060208181015115159085015260408181015115159085015261240260608201516060860152565b61241160808201516080860152565b01516001600160a01b0316910152565b60c08101929161088d91906123cd565b34610868576108d861244c612447366004610a75565b61635c565b60405191829182612421565b6108a3600060346116ea565b34610868576124743660046108dc565b6108d8610ab0612458565b34610868576109a2612492366004610b49565b949390939291926163f4565b34610868576108d86108c56124b4366004610a75565b616477565b34610868576108d8610a556124cf366004611d53565b6164c4565b6108a36000602a610947565b34610868576124f03660046108dc565b6108d86109796124d4565b90608082820312610868576125108183610b00565b9261251e8260208501610b00565b9261252c8360408301610a68565b9260608201356001600160401b038111610868576108a39201610edb565b34610868576109a261255d3660046124fb565b92919091616583565b60006118d06108a3926037611d0f565b34610868576108d8610ab061258c366004610a75565b612566565b909161012082840312610868576125a88383610b00565b926125b68160208501610b00565b926125c48260408301610b00565b926125d28360608401610a68565b926125e08160808501610a68565b926125ee8260a08301610a68565b926108a36125ff8460c08501610a68565b93610100610b298260e08701610a68565b34610868576109a2612623366004612591565b9796909695919594929461673c565b34610868576126423660046108dc565b6108d861097961674d565b600a54811015610868576123746108a391600a611fa0565b34610868576108d8610a5561267b366004610a75565b61264d565b6000611d326108a3926011611916565b34610868576108d86109796126a6366004611170565b612680565b34610868576126bb3660046108dc565b6108d861107c616757565b6108a360006023610947565b34610868576126e23660046108dc565b6108d86109796126c6565b34610868576126fd3660046108dc565b6108d8610979616764565b34610868576108d8610a5561271e366004610a75565b6167d2565b6108a3600060326116ea565b346108685761273f3660046108dc565b6108d8610ab0612723565b34610868576109a261275d366004611170565b61682c565b6000611d326108a3926010611916565b34610868576108d8610979612788366004611170565b612762565b6108a360006018610947565b34610868576127a93660046108dc565b6108d861097961278d565b34610868576109a26127c7366004611543565b90616850565b34610868576127dd3660046108dc565b6108d861097961685a565b34610868576127f83660046108dc565b6108d8610979616864565b6108a360006027610947565b346108685761281f3660046108dc565b6108d8610979612803565b346108685761283a3660046108dc565b6108d861097961686e565b6108a36000602e610947565b34610868576128613660046108dc565b6108d8610979612845565b346108685761287c3660046108dc565b6108d8610ab0616878565b9190604083820312610868576108a390602061155f8286610b00565b34610868576108d86108c56128b9366004612887565b90616882565b6000611dbd6108a392600b611d77565b34610868576108d8610a556128e5366004611d53565b6128bf565b34610868576109a26128fd366004611170565b6168e2565b6108a36000602c610947565b346108685761291e3660046108dc565b6108d8610979612902565b34610868576109a261293c366004611170565b616903565b6108a36000601e610947565b346108685761295d3660046108dc565b6108d8610979612941565b6108a36000601a610947565b34610868576129843660046108dc565b6108d8610979612968565b34610868576109a26129a2366004610a75565b616a53565b9081526040602082018190526108a392910190610ff6565b34610868576129cf3660046108dc565b6129d7616a5c565b906108d86129e460405190565b928392836129a7565b34610868576109a2612a00366004610b49565b94939093929192616bba565b6108a360006017610947565b3461086857612a283660046108dc565b6108d8610979612a0c565b6108a390616bc8565b15612a4357565b60405162461bcd60e51b815260206004820152601060248201526f14185d5cd8589b194e881c185d5cd95960821b6044820152606490fd5b0390fd5b612a98612a93612a8f6016611a86565b1590565b612a3c565b61088d61088d6001612aaa60346121c1565b6161a6565b61088d612a7f565b6108a390611b5e565b6108a36000612ab7565b6108a390612ad781616bd1565b50616c22565b61088d913391616c39565b15612aef57565b60405162461bcd60e51b81526020600482015260126024820152713737ba1027bbb732b91037b91020b236b4b760711b6044820152606490fd5b9061088d9594939291612b3b336137f5565b8015612b50575b612b4b90612ae8565b612b8e565b50612b4b612b5c615095565b9050612b42565b90600019905b9181191691161790565b90612b836108a3612b8a92611d02565b8254612b63565b9055565b92612bbb61088d969593612bb4612bc294612bad612bc9986023612b73565b6024612b73565b6025612b73565b6026612b73565b6027612b73565b6028612b73565b9061088d9594939291612b29565b15612be557565b60405162461bcd60e51b815260206004820152602d60248201527f66756e6374696f6e2063616c6c61626c652066726f6d2074726561737572792060448201526c636f6e7472616374206f6e6c7960981b6064820152608490fd5b906108a394939291612c55610a8960336121c1565b33148015612c6c575b612c6790612bde565b612c86565b50612c67612c7d610a8960366121c1565b33149050612c5e565b906108a394939291612c9e612a93612a8f6016611a86565b612d5c565b15612caa57565b60405162461bcd60e51b815260206004820152602660248201527f496e70757420617272617973206d7573742068617665207468652073616d65206044820152650d8cadccee8d60d31b6064820152608490fd5b90612d0b610c7083610c32565b918252565b369037565b9061088d612d2b612d2584612cfe565b93610c32565b601f190160208401612d10565b90612d41825190565b811015611a67576020809102010190565b6108a3905161132d565b508051909493919290612d736113556108a3865190565b1480612e3b575b80612e19575b612d8990612ca3565b612d99612d94865190565b612d15565b94612da46000611d02565b612daf6108a3835190565b811015612e125780612e07612dfa612dd2612dcd612e0d9587612d38565b612d52565b612ddc848a612d38565b51612de78589612d38565b5190612df3868b612d38565b51926160c5565b612e04838b612d38565b52565b60010190565b612da4565b5050505050565b50612d89612e25825190565b612e336113556108a3865190565b149050612d80565b508251612e4c6113556108a3845190565b14612d7a565b6108a3939291906060612c40565b6108a36017611a73565b61088d90612e77336137f5565b8015612e8c575b612e8790612ae8565b6130af565b50612e87612e98615095565b9050612e7e565b9160001960089290920291821b911b612b69565b921b90565b9190612ec96108a3612b8a93611d02565b908354612e9f565b61088d91600091612eb8565b818110612ee8575050565b80612ef66000600193612ed1565b01612edd565b9190601f8111612f0b57505050565b612f1d61088d93600052602060002090565b906020601f840181900483019310612f40575b6020601f909101045b0190612edd565b9091508190612f30565b600019600883021c1916906002021790565b90612f65815190565b906001600160401b038211610c1957612f8882612f828554611aa6565b85612efc565b602090601f8311600114612fb657612b8a929160009183612fab575b5050612f4a565b015190503880612fa4565b601f19831691612fcb85600052602060002090565b9260005b81811061300957509160029391856001969410612ff0575b50505002019055565b01516000196008601f8516021c19169055388080612fe7565b91936020600181928787015181550195019201612fcf565b9061088d91612f5c565b9190611da85761088d91612f5c565b90815491600160401b831015610c19578261305d91600161088d95018155611fa0565b9061302b565b634e487b7160e01b600052601160045260246000fd5b60ff1660ff811461308a5760010190565b613063565b9060ff90612b69565b906130a86108a3612b8a92611d67565b825461308f565b6130cc816130c76130c06009611a86565b6008611d77565b613021565b6130d781600a61303a565b6130f36130ec6130e76009611a86565b613079565b6009613098565b7fe4d2864ec291f6f11cb3363fa1bd2a4d5ff49a2cfdf4bf7dfe3b90a26b8c776f6131336131296131246009611a86565b611d67565b92610a5960405190565b0390a2565b61088d90612e6a565b9061088d91616c92565b6108a3601b611a73565b1561315c57565b60405162461bcd60e51b8152602060048201526024808201527f41757468436f6e74726f6c3a2043616c6c6572206973206e6f7420746865206f6044820152633bb732b960e11b6064820152608490fd5b61088d906131c16131bc615095565b613155565b61088d906000805160206188f98339815191526147cd565b61088d906131ad565b91906131ed565b9290565b820391821161308a57565b6108a361320460075490565b61320e6001611d02565b906131e2565b61088d90613221336137f5565b8015613236575b61323190612ae8565b613249565b50613231613242615095565b9050613228565b613261816130c761325a600c611a86565b600b611d77565b61326c81600d61303a565b61328361327c6130e7600c611a86565b600c613098565b7fd961fa20561746b8576d7b504b0bc57067c67db2ce13bd9866d451bec5985f4b613133613129613124600c611a86565b61088d90613214565b906108a3916132d2612a93612a8f6016611a86565b6134f5565b610a896108a36108a39290565b6108a3906132d7565b156132f457565b60405162461bcd60e51b815260206004820152600c60248201526b7a65726f206164647265737360a01b6044820152606490fd5b1561332f57565b60405162461bcd60e51b815260206004820152600d60248201526c3737ba1033b2b69037bbb732b960991b6044820152606490fd5b1561336b57565b60405162461bcd60e51b815260206004820152602360248201527f47656d20636f6f6c646f776e20706572696f6420686173206e6f7420656c61706044820152621cd95960ea1b6064820152608490fd5b156133c357565b60405162461bcd60e51b815260206004820152602860248201527f47656d206973206c697374656420666f722073616c65206f7220616c7265616460448201526779206d696e696e6760c01b6064820152608490fd5b1561342057565b60405162461bcd60e51b815260206004820152601c60248201527f726172697479206d757374206265206174206c656173742052415245000000006044820152606490fd5b1561346c57565b60405162461bcd60e51b815260206004820152602160248201527f6e6f206d696e696e6720706f776572206c65667420666f7220746861742047456044820152604d60f81b6064820152608490fd5b6134f161088d946134ea6060949897956134da608086019a6000870152565b6001600160a01b03166020850152565b6040830152565b0152565b507fcfdb0da0eda7e72692cc304e4e58d2543a70ce5269931e91e02337cbff2a1ef190613530613528610a8960006132e4565b3314156132ed565b61355461353c82614a20565b61354e335b916001600160a01b031690565b14613328565b613605600661357183600761358061357860046135718585611a44565b5001611a73565b421015613364565b6135a061359b612a8f836135948682611a44565b5001611a86565b6133bc565b6135cc6135b260016135948585611a44565b6135c56135bf600061132d565b9161132d565b1415613419565b6135f16135dd856135718585611a44565b6135ea6113556000611d02565b1415613465565b61360082336013601285616ce6565b611a44565b9061361f61361260405190565b92839242903390856134bb565b0390a1600190565b6108a39060006132bd565b9061088d9291613648612a93612a8f6016611a86565b613700565b1561086857565b1561365b57565b60405162461bcd60e51b815260206004820152600d60248201526c11d95b481a5cc81b1bd8dad959609a1b6044820152606490fd5b1561369757565b60405162461bcd60e51b815260206004820152601d60248201527f73656e646572206973206e6f742074686520746f6b656e206f776e65720000006044820152606490fd5b6001600160a01b0391821681529116602082015260608101929161088d9160400152565b6137c07f85d07a7616aea29f5d972fd9100b991c224490bd49b737377d908f66f34d9afd93613746613735610a8960006132e4565b6001600160a01b038616141561364d565b6137586001600160a01b038416613735565b6137a98185856010600f6137a4600761378061377b612a8f836135948b82611a44565b613654565b6108a361378c88614a20565b61379e6001600160a01b038816613541565b14613690565b616d45565b6137b4818585616dc4565b604051938493846136dc565b0390a1565b9061088d9291613632565b906118b2565b60016137ef6108a3926137e7600090565b50603a6137d0565b01611a73565b6108a3906000805160206188f98339815191526150a0565b906108a391613822612a93612a8f6016611a86565b906138349161382f616e71565b6139c9565b9061088d616eb1565b1561384457565b60405162461bcd60e51b815260206004820152601a60248201527f6e6f742047454d206f776e6572206f72206e6f742061646d696e0000000000006044820152606490fd5b9190820180921161308a57565b1561389d57565b60405162461bcd60e51b815260206004820152601d60248201527f6d696e696e6720706572696f6420686173206e6f7420656c61707365640000006044820152606490fd5b156138e957565b60405162461bcd60e51b815260206004820152601260248201527147656d73206973206e6f74206d696e696e6760701b6044820152606490fd5b1561392a57565b60405162461bcd60e51b815260206004820152600e60248201526d67656d206e6f74206d696e696e6760901b6044820152606490fd5b61396d6108a36108a39290565b61ffff1690565b906130a86108a3612b8a92151590565b906001600160a01b0390612b69565b906139a36108a3612b8a9261190d565b8254613984565b6040513d6000823e3d90fd5b90815260408101929161088d9160200152565b506139d381614a20565b6139dc33613541565b148015613c02575b6139ed9061383d565b613a046139ff82611d2d336013611916565b611a73565b90613a2d613a266108a3600794613a2060056135718789611a44565b90613889565b4211613896565b613a3b826135948382611a44565b60019290613a5490613a4e855b91151590565b146138e2565b613a87613a76613a7184611d2d613a6a82614a20565b6012611916565b611a86565b613a81851515613a48565b14613923565b600091613aa4613a956115b1565b613a9e85613960565b80616f1e565b613abb81600a613ab48587611a44565b5001612b73565b6015613ad28386613acc8585611d0f565b01612b73565b613ae78680613ae18585611d0f565b01613974565b613afe613af48383611d0f565b6004339101613993565b613b15613b0e612e076030611a73565b6030612b73565b613b2a613b25613b2560356121c1565b61190d565b92833b156108685785613b3c60405190565b6324adeca760e11b815260048101859052948590602490829084905af1958615613bfd5760036137ef8561357195611d2d600a9889613ab4897fd8d282938b8a25adfd1ff3df570c529f147b9700ff1a12712d2a2f737cfff5149f8f909a613bb49f613bae9c613bd0575b5050611a44565b94611a44565b90613bca613bc160405190565b928392836139b6565b0390a190565b81613bef92903d10613bf6575b613be78183610bf8565b8101906108dc565b3880613ba7565b503d613bdd565b6139aa565b506139ed613c0f336137f5565b613c196001613a48565b1490506139e4565b6108a390600061380d565b60076135946108a392613c3d600090565b5082611a44565b906108a69061132d565b6108a39060101c6108f0565b6108a39060181c6108f0565b60206001613cd5613ca193613ca18484818181613c91613c8d839d613c89600490565b5090565b9790565b96613ca881600099549d8e611a7d565b60ff169052565b01950194613cb981613ca18c6121a2565b01930192613cca81613ca18a613c4e565b019384920195613c5a565b50505050565b90610a2581608093613c66565b9061088d611b7892613cf960405190565b93848092613cdb565b602080613d1a613d16600195613c89600290565b9390565b5492613d2981613ca186611a7d565b01613cd581613ca186600001956121a2565b90610a2581604093613d02565b9061088d611b7892613d5960405190565b93848092613d3b565b6108a3610160610c1e565b9061088d613e5b600a613d7e613d62565b94613d8f613d8b82611a73565b8752565b613da7613d9e60018301611a86565b60208801613c44565b613dbd613db660028301613ce8565b6040880152565b613dd3613dcc60038301613d48565b6060880152565b613de9613de260048301611a73565b6080880152565b613dff613df860058301611a73565b60a0880152565b613e15613e0e60068301611a73565b60c0880152565b613e2d613e2460078301611a86565b151560e0880152565b613e44613e3c60088301611a73565b610100880152565b6137ef613e5360098301611b5e565b610120880152565b610140840152565b6108a390613d6d565b90613e75825490565b613e7e81612cfe565b92613e926020850191600052602060002090565b6000915b838310613ea35750505050565b600b6020600192613eb385613e63565b815201920192019190613e96565b6108a390613e6c565b6108a36007613ec1565b6108a360326121c1565b9061088d91613ef4613eef826137d6565b616fef565b90613efe91616ffa565b50565b9061088d91613ede565b906108a39291613f1a336137f5565b8015613f2f575b613f2a90612ae8565b613fcc565b50613f2a613f3b615095565b9050613f21565b9050519061088d82611821565b90602082820312610868576108a391613f42565b6001600160a01b03909116815260408101929161088d9160200152565b15613f8757565b60405162461bcd60e51b815260206004820152601860248201527f6661696c656420746f207472616e7366657220746f6b656e00000000000000006044820152606490fd5b5061400d91602091613fe2613b258060336121c1565b906000613fee60405190565b8096819582946140026348dbcef060e01b90565b845260048401613f63565b03925af18015613bfd576140299160009161402e575b50613f80565b600190565b614050915060203d602011614056575b6140488183610bf8565b810190613f4f565b38614023565b503d61403e565b6108a391906000613f0b565b906108a3939291614080612a93612a8f6016611a86565b6144f4565b6108a3610280610c1e565b610c706108a391610ccd565b9061088d6140b26140ac84614090565b93610ccd565b83612d10565b6108a3600461409c565b9050519061088d82610a62565b9050519061088d82610ce1565b909291926140ec610c7082610ccd565b93602085920283019281841161086857915b83831061410b5750505050565b6020809161411984866140cf565b8152019201916140fe565b9080601f830112156108685760046108a3926140dc565b9050519061088d82610c49565b610140818303126108685761415d82826140c2565b9261416b8360208401614124565b926141798160a0850161413b565b926141878260c083016140c2565b926108a36141988460e085016140c2565b936101206141aa8261010087016140c2565b94016140c2565b906141c061100f611005845190565b9060005b8181106141d15750505090565b9091926141e761103d6001928651815260200190565b9291016141c4565b6141fb61135560029390565b6000915b83831061420c5750505050565b61422261100f600192845160ff16815260200190565b920191906141ff565b8051825261088d919061026090819061424960208201516020860152565b61425860408201516040860152565b61426760608201516060860152565b61427660808201516080860152565b61428560a082015160a0860152565b61429460c082015160c0860152565b6142a360e082015160e0860152565b6142b4610100820151610100860152565b6142c5610120820151610120860152565b6142d6610140820151610140860152565b6142e7610160820151610160860152565b6142f8610180820151610180860152565b6143096101a08201516101a0860152565b61431a6101c08201516101c0860152565b61432b6101e08201516101e0860152565b61433c610200820151610200860152565b61434d610220820151610220860152565b61435e610240820151610240860152565b0151910152565b9384610100966143b66143c3936143a66143d8989b9e9d9b61439f61088d9e996143986143ce9a60006103808b019a0152565b60208d0152565b60408b0152565b6001600160a01b03166060890152565b86820360808801526141b1565b9860a0850190611340565b60c08301906141ef565b019061422b565b90612d0b610c7083610e89565b6108a360006143df565b6108a36143ec565b61440a61135560029390565b6000915b83831061441b5750505050565b61443161100f600192845160ff16815260200190565b9201919061440e565b61444661135560049390565b6000915b8383106144575750505050565b61446d61100f600192845160ff16815260200190565b9201919061444a565b979694956144c961088d976144c1610160976144b76144e49860608f6134f16144d19a9b6144ad61018084019d6000850190611340565b60208301906143fe565b60808d019061443a565b6101008b0152565b610120890152565b8681036101408801526000815260200190565b9401906001600160a01b03169052565b92919250614502601e611a73565b61450c601f611a73565b6101005261451a6020611a73565b610140526145286021611a73565b6145326022611a73565b61453c6024611a73565b6145466025611a73565b6145506026611a73565b61455a6027611a73565b6145646028611a73565b9061456f6018611a73565b9261457a6019611a73565b94614585601a611a73565b96614590601b611a73565b9861459b601c611a73565b9a6145a6602a611a73565b9c6145b1602b611a73565b6080526145be602c611a73565b60c0526145cb602d611a73565b610120526145d9602e611a73565b60e0526145e4614085565b60a0819052526101005160a051602001526101405160a0516040015260a0516060015260a0516080015260a08051015260a05160c0015260a05160e0015260a051610100015260a051610120015260a051610140015260a051610160015260a051610180015260a0516101a0015260a0516101c0015260a0516101e0015260805160a051610200015260c05160a05161022001526101205160a051610240015260e05160a05161026001526146976140b8565b506007926146a460405190565b9384916341264bff60e01b83528460a05191853360048701600f6146ca97601092614365565b038373__$c8413349dc071733da103ffe8c54b86872$__91815a9361014094f4908115613bfd57600092839284908593869087928890614769575b600080516020618919833981519152979899506147639493929161472a91503361731f565b61473489336173b6565b61474561473f6143f6565b8a616c92565b61474e89611d02565b9761475860405190565b968796339588614476565b0390a290565b50945050505061472a935060008051602061891983398151915292506147a9614763956101403d81116147b9575b6147a18183610bf8565b810190614148565b9193959950939750959095614705565b503d614797565b6108a39291906000614069565b906147d733610a89565b6001600160a01b038216036147ef57613efe916173c8565b60405163334bd91960e11b8152600490fd5b6001600160a01b03909116815260408101929161088d91602090612268565b919061484b7f000000000000000000000000000000000000000000000000000000000000000061190d565b926001600160a01b03841633036148675761088d9293506174b6565b612a7b8461487460405190565b63073e64fd60e21b81529182913360048401614801565b6108a360336121c1565b6108a3601c611a73565b156148a657565b60405162461bcd60e51b815260206004820152602360248201527f41757468436f6e74726f6c3a2043616c6c6572206973206e6f7420612070617560448201526239b2b960e91b6064820152608490fd5b6149196149146000805160206188d98339815191525b33906150a0565b61489f565b61088d61492c612a93612a8f6016611a86565b61088d61493b60006016613974565b7f5db9ee0a495bf2e6ff9c91a7834c1ba4fdd244a5e8aa4e537bd38aeae4b073aa61496560405190565b33815280602081016137c0565b61088d6148f7565b909161088d926149886143f6565b92616583565b60009061499b6000611d02565b915b60076149aa6108a3825490565b8410156149d4576149ce91613a206008613571876149c795611a44565b9260010190565b9161499d565b509150565b9061088d916149f56149ee610a8960346121c1565b3314612bde565b906007614a0561088d9382611a44565b5001613974565b9061088d916149d9565b6108a36021611a73565b6108a390616bd1565b61088d90614a386131bc615095565b61088d906000805160206188d98339815191526147cd565b61088d90614a29565b6108a36018611a73565b61088d90614a726131bc615095565b61088d906000805160206188f9833981519152613f01565b61088d90614a63565b6139ff6108a391614aa2600090565b506010611916565b614ab56131bc615095565b61088d61088d614ac36122fa565b33906147cd565b61088d614aaa565b61088d90614ae16131bc615095565b614b77565b15614aed57565b60405162461bcd60e51b815260206004820152601860248201527f41636365737369626c653a207a65726f206164647265737300000000000000006044820152606490fd5b15614b3957565b60405162461bcd60e51b815260206004820152601660248201527520b1b1b2b9b9b4b136329d1039b0b6b29030b236b4b760511b6044820152606490fd5b61088d90614b9c614b8b610a8960006132e4565b6001600160a01b0383161415614ae6565b614bb16001600160a01b038216331415614b32565b614ac36000805160206188f98339815191529182613f01565b61088d90614ad2565b906108a391614be8612a93612a8f6016611a86565b614ceb565b15614bf457565b60405162461bcd60e51b815260206004820152600d60248201526c3737ba1023a2a69037bbb732b960991b6044820152606490fd5b15614c3057565b60405162461bcd60e51b815260206004820152601b60248201527f75736572206973206e6f74206d696e696e6720746869732047656d00000000006044820152606490fd5b15614c7c57565b60405162461bcd60e51b815260206004820152602c60248201527f796f75206e65656420746f2063616c6c207069636b4d696e656447454d20667560448201526b1b98dd1a5bdb88199a5c9cdd60a21b6064820152608490fd5b90815260408101929161088d91602090612268565b50614d07614cf882614a20565b614d0133613541565b14614bed565b614d19613a7182611d2d336012611916565b60019190614d3090614d2a84613a48565b14614c29565b6007614d4e614d43826135948582611a44565b613a4e851515613a48565b614d5d600a6135718484611a44565b916015614d88614d7786614d718785611d0f565b016121ae565b614d82871515613a48565b14614c75565b614d96826013601286617652565b614da560036137ef8684611d0f565b93600094614db286611d02565b8114614ea1578592614ded60036137ef602095614dd7888b614a05614e0d9982611a44565b614de7613b25613b2560336121c1565b94611d0f565b604051978893849283919063048dbcef60e41b5b83523360048401613f63565b03925af1928315613bfd57614e68614e5c83614e57613bca977f97b363697f59781efcf0539a3eeabceea1e3b444e248009d3730fa6a26db9c2499614e93979161402e5750613f80565b611d02565b600a613ab48685611a44565b6004613ab484614e8d614e87614e828b6135948589611a44565b61768e565b42613889565b93611a44565b604051918291339083614cd6565b5050507f87c3badc36a4b7c7f2331493a7998c2f9c414769a1bc588ef4b4c7ef302aeb519250613bca915061097d60405190565b6108a3906000614bd3565b61088d90614eed336137f5565b8015614f02575b614efd90612ae8565b614f15565b50614efd614f0e615095565b9050614ef4565b61088d906000805160206188d9833981519152613f01565b61088d90614ee0565b614f506149146000805160206188d983398151915261490d565b61088d614f63612a93612a8f6016611a86565b61088d614f7260016016613974565b7f62e78cea01bee320cd4e420270b5ea74000d11b0c9f74754ebdbfc544b05a25861496560405190565b61088d614f36565b600019811461308a5760010190565b614fbc81614a93565b600090614fc882611d02565b8103614fdd57506108a39150612d9490611d02565b614fe690612d15565b91614fef6131f8565b90614ff983611d02565b9250600191826150096001611d02565b905b615018575b505050505090565b81811161507c5761503261502d82600f611d0f565b6121c1565b6150446001600160a01b038516613541565b14615059575b61505390614fa4565b8361500b565b936150748161506f87612e04615053958b612d38565b614fa4565b94905061504a565b615010565b6108a3601e611a73565b6108a3601a611a73565b6108a361490d6122fa565b6108a39160006150b5613a71936137e7600090565b01611916565b6108a36001612ab7565b906108a3949392916150da610a8960336121c1565b331480156150f1575b6150ec90612bde565b61510b565b506150ec615102610a8960366121c1565b331490506150e3565b906108a394939291615123612a93612a8f6016611a86565b615597565b906004811015611a67576020020190565b6151489060ff165b9160ff1690565b019060ff821161308a57565b6108f06108a36108a39290565b1561516857565b60405162461bcd60e51b815260206004820152602960248201527f416c6c207175616472616e7473206d757374206265203620666f72204d59544860448201526849432072617269747960b81b6064820152608490fd5b156151c657565b60405162461bcd60e51b815260206004820152603160248201527f416c6c207175616472616e7473206d7573742062652035206f72203620666f72604482015270204c4547454e444152592072617269747960781b6064820152608490fd5b1561522c57565b60405162461bcd60e51b815260206004820152601c60248201527f36363636206973204d5954484943206e6f74204c4547454e44415259000000006044820152606490fd5b1561527857565b60405162461bcd60e51b815260206004820152602c60248201527f416c6c207175616472616e7473206d7573742062652034206f72203520666f7260448201526b20455049432072617269747960a01b6064820152608490fd5b156152d957565b60405162461bcd60e51b815260206004820152601a60248201527f35353535206973204c4547454e44415259206e6f7420455049430000000000006044820152606490fd5b1561532557565b60405162461bcd60e51b815260206004820152602e60248201527f416c6c207175616472616e7473206d7573742062652033206f72203420666f7260448201526d20554e495155452072617269747960901b6064820152608490fd5b1561538857565b60405162461bcd60e51b815260206004820152601760248201527f343434342069732045504943206e6f7420554e495155450000000000000000006044820152606490fd5b156153d457565b60405162461bcd60e51b815260206004820152602c60248201527f416c6c207175616472616e7473206d7573742062652032206f72203320666f7260448201526b20524152452072617269747960a01b6064820152608490fd5b1561543557565b60405162461bcd60e51b815260206004820152601760248201527f3333333320697320554e49515545206e6f7420524152450000000000000000006044820152606490fd5b1561548157565b60405162461bcd60e51b815260206004820152602e60248201527f416c6c207175616472616e7473206d7573742062652031206f72203220666f7260448201526d20434f4d4d4f4e2072617269747960901b6064820152608490fd5b156154e457565b60405162461bcd60e51b815260206004820152601760248201527f323232322069732052415245206e6f7420434f4d4d4f4e0000000000000000006044820152606490fd5b989795615581610160966155796144e49760808e615572615589989a61088d9f9a61556b9061556161018086019e6000870190611340565b60208501906143fe565b6060830152565b019061443a565b6101008c0152565b6101208a0152565b8782036101408901526109f1565b506000916155b76155b06155aa85611d02565b86615128565b5160ff1690565b926155d96001946155d36155b06155cd88611d02565b89615128565b90615139565b6155f46002916155d36155b06155ee85611d02565b8a615128565b906156106003926155d36155b061560a86611d02565b8b615128565b9561561a8461132d565b6156238761132d565b0361583b579260008051602061891983398151915296926156879261569a956156576155b061565186611d02565b8d615128565b61566361514183615154565b14938415615815575b50836157c8575b8361577b575b8361571c575b50505061547a565b6156946151416008615154565b106154dd565b6147636156a76029611a73565b926156b26023611a73565b966156bd601d611a73565b946156e9826156cc6017611a73565b60078c8a8d8b8a6156dd8a42613889565b956010600f3392617af7565b986156f48a336173b6565b6156fe838b616c92565b6157078a611d02565b9861571160405190565b978897339689615529565b9091925061574261514161573c6155b08d61573688611d02565b90615128565b92615154565b14918215615755575b505038808061567f565b61577391925061573c6155b061576d61514193611d02565b8c615128565b14388061574b565b925061578c6155b061576d83611d02565b61579861514185615154565b1480156157a6575b92615679565b506157b66155b061576d83611d02565b6157c261514183615154565b146157a0565b92506157d96155b061576d85611d02565b6157e561514185615154565b1480156157f3575b92615673565b506158036155b061576d85611d02565b61580f61514183615154565b146157ed565b61582791945061576d6155b091611d02565b61583361514183615154565b14923861566c565b6158448161132d565b61584d8761132d565b03615a02579260008051602061891983398151915296926158ab926158be9561587b6155b061565186611d02565b61588761514184615154565b149384156159dc575b5083615989575b508261593c575b826158f5575b50506153cd565b6158b8615141600c615154565b1061542e565b6147636158cb602a611a73565b926158d66024611a73565b966158e1601e611a73565b946156e9826158f06018611a73565b6156cc565b90915061590d61514161573c6155b061565186611d02565b1490811561591e575b5038806158a4565b905061593561514161573c6155b061576d85611d02565b1438615916565b915061594d6155b061560a84611d02565b61595961514184615154565b148015615967575b9161589e565b506159776155b061560a84611d02565b61598361514183615154565b14615961565b90925061599b6155b061576d83611d02565b6159a761514185615154565b149081156159b8575b509138615897565b6159c9915061560a6155b091611d02565b6159d561514183615154565b14386159b0565b6159ee91945061576d6155b091611d02565b6159fa61514184615154565b149238615890565b615a0b8261132d565b615a148761132d565b03615bd857926000805160206189198339815191529692615a7292615a8595615a426155b061565186611d02565b615a4e61514185615154565b14938415615bb1575b5083615b5d575b5082615b09575b5081615ab7575b5061531e565b615a7f6151416010615154565b10615381565b614763615a92602b611a73565b92615a9d6025611a73565b96615aa8601f611a73565b946156e9826158f06019611a73565b9050615ac86155b06155ee83611d02565b615ad461514183615154565b14908115615ae4575b5038615a6c565b615af591506155cd6155b091611d02565b615b026151416004615154565b1438615add565b909150615b1b6155b061560a83611d02565b615b2761514184615154565b14908115615b38575b509038615a65565b615b4991506155ee6155b091611d02565b615b566151416004615154565b1438615b30565b909250615b6f6155b061576d83611d02565b615b7b61514184615154565b14908115615b8c575b509138615a5e565b615b9d915061560a6155b091611d02565b615baa6151416004615154565b1438615b84565b615bc391945061576d6155b091611d02565b615bd06151416004615154565b149238615a57565b90615be28361132d565b615beb8761132d565b03615db057926000805160206189198339815191529692615c4e92615c6195615c196155b061565186611d02565b91600492615c2961514185615154565b14948515615d89575b5084615d35575b5083615ce1575b5082615c93575b5050615271565b615c5b6151416014615154565b106152d2565b614763615c6e602c611a73565b92615c796026611a73565b96615c846020611a73565b946156e9826158f0601a611a73565b909150615cab61514161573c6155b061565186611d02565b14908115615cbc575b503880615c47565b615ccd91506155cd6155b091611d02565b615cda6151416005615154565b1438615cb4565b909250615cf36155b061576d83611d02565b615cff61514185615154565b14908115615d10575b509138615c40565b615d21915061560a6155b091611d02565b615d2e6151416005615154565b1438615d08565b909350615d476155b061565183611d02565b615d5361514184615154565b14908115615d64575b509238615c39565b615d75915061576d6155b091611d02565b615d826151416005615154565b1438615d5c565b615d9b9195506156516155b091611d02565b615da86151416005615154565b149338615c32565b615dba600461132d565b615dc38761132d565b03615f8857926000805160206189198339815191529692615e2692615e3995615df16155b061565186611d02565b91600592615e0161514185615154565b14948515615f61575b5084615f0d575b5083615eb9575b5082615e6b575b50506151bf565b615e336151416018615154565b10615225565b614763615e46602d611a73565b92615e516027611a73565b96615e5c6021611a73565b946156e9826158f0601b611a73565b909150615e8361514161573c6155b061565186611d02565b14908115615e94575b503880615e1f565b615ea591506155cd6155b091611d02565b615eb26151416006615154565b1438615e8c565b909250615ecb6155b061576d83611d02565b615ed761514185615154565b14908115615ee8575b509138615e18565b615ef9915061560a6155b091611d02565b615f066151416006615154565b1438615ee0565b909350615f1f6155b061565183611d02565b615f2b61514184615154565b14908115615f3c575b509238615e11565b615f4d915061576d6155b091611d02565b615f5a6151416006615154565b1438615f34565b615f739195506156516155b091611d02565b615f806151416006615154565b149338615e0a565b90919550615f96600561132d565b615f9f8661132d565b036160915760008051602061891983398151915295615fc66155b06155ee615ff396611d02565b91600692615fd661514185615154565b14938461606b575b5083616045575b5082616025575b5050615161565b614763616000602e611a73565b9261600b6028611a73565b966160166022611a73565b946156e9826158f0601c611a73565b61603d91925061573c6155b06155ee61514193611d02565b143880615fec565b6160579193506155cd6155b091611d02565b61606361514183615154565b149138615fe5565b61607d9194506155ee6155b091611d02565b61608961514184615154565b149238615fde565b60405162461bcd60e51b815260206004820152600c60248201526b77726f6e672052617269747960a01b6044820152606490fd5b6108a39392919060006150c5565b61088d906160e0336137f5565b80156160f5575b6160f090612ae8565b616108565b506160f0616101615095565b90506160e7565b61088d906031613098565b61088d906160d3565b9061088d959493929161612e336137f5565b8015616143575b61613e90612ae8565b616156565b5061613e61614f615095565b9050616135565b9261618361088d96959361617c61618a94616175616191986017612b73565b6018612b73565b6019612b73565b601a612b73565b601b612b73565b601c612b73565b9061088d959493929161611c565b61088d919033617bda565b6108a3600261409c565b6161c3613d62565b90600082526020808080808080808080808c0160008152016161e36140b8565b8152016161ee6161b1565b8152016000815201600081520160008152016000815201600081520160605b8152016000905250565b6108a36161bb565b1561622657565b60405162461bcd60e51b815260206004820152601260248201527111d95b48191bd95cc81b9bdd08195e1a5cdd60721b6044820152606490fd5b61628d6108a39161626f616217565b5061628661627f6108a360075490565b821061621f565b6007611a44565b50613e63565b6108a360c0610c1e565b6162a5616293565b9060008252602080808080808701600081520160008152016000815201600061620d565b6108a361629d565b9061088d61634360046162e2616293565b946162ef613d8b82611a73565b6163076162fe60018301611a86565b15156020880152565b61631f616316600183016121ae565b15156040880152565b61632e613dcc60028301611a73565b61633d613de260038301611a73565b016121c1565b6001600160a01b031660a0840152565b6108a3906162d1565b6163736108a39161636b6162c9565b506015611d0f565b616353565b9061088d959493929161638a336137f5565b801561639f575b61639a90612ae8565b6163b2565b5061639a6163ab615095565b9050616391565b926163df61088d9695936163d86163e6946163d16163ed986029612b73565b602a612b73565b602b612b73565b602c612b73565b602d612b73565b602e612b73565b9061088d9594939291616378565b906108a391616417612a93612a8f6016611a86565b506140299061642d614cf861502d83600f611d0f565b61646c600761644d616443826135948682611a44565b613a4e6001613a48565b6108a3616462613a7185611d2d336012611916565b614d2a6001613a48565b601360123392617c74565b6108a3906000616402565b1561648957565b60405162461bcd60e51b8152602060048201526013602482015272496e646578206f7574206f6620626f756e647360681b6044820152606490fd5b6164ee6108a3916164d3606090565b506130c06164e46108f06009611a86565b60ff831610616482565b612ab7565b9061088d93929161650a612a93612a8f6016611a86565b929190616518823386617ca0565b6165213061190d565b93843b1561086857600061653460405190565b9586906323b872dd60e01b8252818381616553898989600485016136dc565b03925af1948515613bfd5761088d9561656d575b50617d6e565b61657d906000613be78183610bf8565b38616567565b9061088d9392916164f3565b9061088d98979695949392916165a66131bc615095565b616683565b6108a39060081c610a89565b6108a390546165ab565b156165c857565b60405162461bcd60e51b815260206004820152601e60248201527f746974616e7773746f6e20616c726561647920696e697469616c697a656400006044820152606490fd5b1561661457565b60405162461bcd60e51b815260206004820152601760248201527f746f6e20616c726561647920696e697469616c697a65640000000000000000006044820152606490fd5b90610100600160a81b039060081b612b69565b9061667c6108a3612b8a9261190d565b8254616659565b61672e9461671961673598956167126167279661670b61088d9e9d9b97616704616720986166fd6166b460316165b7565b6166da6166c160006132e4565b916166d46001600160a01b038416613541565b146165c1565b6166f76135416166ea60326121c1565b926001600160a01b031690565b1461660d565b603161666c565b6032613993565b6033613993565b601d612b73565b601e612b73565b601f612b73565b6020612b73565b6021612b73565b6022612b73565b9061088d989796959493929161658f565b6108a36022611a73565b6108a3611f9b60336121c1565b6108a36019611a73565b1561677557565b60405162461bcd60e51b815260206004820152602f60248201527f4552433732314d657461646174613a2055524920717565727920666f72206e6f60448201526e3732bc34b9ba32b73a103a37b5b2b760891b6064820152608490fd5b6108a3906167e76167e282617e6a565b61676e565b617ef7565b61088d906167f9336137f5565b801561680e575b61680990612ae8565b616821565b5061680961681a615095565b9050616800565b61088d906034613993565b61088d906167ec565b9061088d91616846613eef826137d6565b90613efe916173c8565b9061088d91616835565b6108a3601d611a73565b6108a3601f611a73565b6108a36020611a73565b6108a360316165b7565b6108a39161689d613a7192616895600090565b506005611916565b611916565b61088d906168af336137f5565b80156168c4575b6168bf90612ae8565b6168d7565b506168bf6168d0615095565b90506168b6565b61088d906036613993565b61088d906168a2565b61088d906168fa6131bc615095565b61088d90614bca565b61088d906168eb565b61088d90616920612a93612a8f6016611a86565b616963565b1561692c57565b60405162461bcd60e51b815260206004820152600f60248201526e1d1c985b9cd9995c8819985a5b1959608a1b6044820152606490fd5b600090616975613528610a89846132e4565b61699561698661502d83600f611d0f565b61698f33613541565b1461364d565b60206169f26169aa6008613571856007611a44565b6169ba84336010600f6007617f5a565b6169c384617f79565b6169d3613b25613b2560336121c1565b906169dd60405190565b9586938492839190630169dc3160e01b614e01565b03925af1908115613bfd57614e936137c0927f65aff8e0552d208dfaf55b1280e55553b7dba628290897ff43c8f086d5dbfd2a94600091616a34575b50616925565b616a4d915060203d602011614056576140488183610bf8565b38616a2e565b61088d9061690c565b600090616a6882611d02565b91600792616a77612d94855490565b938194825b616a876108a3845490565b811015616b1257616a9c61502d82600f611d0f565b616aac613541610a8960336121c1565b1480616afb575b616ac5575b600101616a7c565b616a7c565b9295616af3616aec616ac092612e07616ae2896135718a8a611a44565b612e048388612d38565b9760010190565b939050616ab8565b50616b0d612a8f846135948482611a44565b616ab3565b509294505091616b2a616b2484612d15565b94611d02565b83811015616b595780612e07616b4a616b46616b549487612d38565b5190565b612e048389612d38565b616b2a565b509190509190565b9061088d9594939291616b73336137f5565b8015616b88575b616b8390612ae8565b616b9b565b50616b83616b94615095565b9050616b7a565b9261672761088d96959361672061672e9461671961673598601d612b73565b9061088d9594939291616b61565b6108a390617f9c565b616bda81617fc5565b90616be8610a8960006132e4565b6001600160a01b03831614616bfb575090565b612a7b90616c0860405190565b637e27328960e01b81529182916004830190815260200190565b61502d6108a391616c31600090565b506004611d0f565b9160019161088d93617fdc565b15616c4d57565b60405162461bcd60e51b815260206004820152601c60248201527f6e6f7420616c6c6f77656420746f2073657420746f6b656e20555249000000006044820152606490fd5b9061088d91616ca3610a8982614a20565b33148015616cba575b616cb590616c46565b618118565b50616cb5616cc7336137f5565b616cd16001613a48565b149050616cac565b801561308a576000190190565b616d1b616d1486611d2d87616d2c9761689d6001616d0f86611d2d61088d9f9c9e60069f611916565b613974565b4290612b73565b61360060016007614a058585611a44565b5001616d3f616d3a82611a73565b616cd9565b90612b73565b93616d8c61088d9661689d93616d73616d91986004613ab485614e8d614e87614e8260016135948589611a44565b611d2d616d808588611916565b616d3f61506f82611a73565b613993565b616d3f616d3a82611a73565b6001600160a01b03909116815260608101939261088d929091604091612268906020830152565b90616dcf60006132e4565b6001600160a01b0381166001600160a01b03831614616e365750616df59083339161814c565b6001600160a01b0382166001600160a01b03821603616e1357505050565b612a7b90616e2060405190565b6364283d7b60e01b815293849360048501616d9d565b612a7b90616e4360405190565b633250574960e11b8152918291600483016001600160a01b03909116815260200190565b6108a36002611d02565b616e7b603b611a73565b616e83616e67565b908114616e955761088d90603b612b73565b604051633ee5aeb560e01b8152600490fd5b6108a36001611d02565b61088d616ebc616ea7565b603b612b73565b6108a36060610c1e565b90602082820312610868576108a3916140c2565b805161ffff16825261088d9190604090819060208181015161ffff1690850152015163ffffffff16910152565b60608101929161088d9190616ee1565b616fae92616fa3602093616f30600090565b50616f93616f5d7f000000000000000000000000000000000000000000000000000000000000000061190d565b93616f8663122c162a93616f7c616f72616ec3565b61ffff9099168952565b61ffff1687890152565b63ffffffff166040860152565b6040519586948593849360e01b90565b835260048301616f0e565b039134905af1908115613bfd57600091616fc6575090565b6108a3915060203d602011616fe8575b616fe08183610bf8565b810190616ecd565b503d616fd6565b61088d903390618286565b617007612a8f83836150a0565b15617070576170226001616d0f8460006150b586603a6137d0565b61703c617036617030339390565b9361190d565b9161190d565b917f2f8788117e7eff1d82e926ec794901d17c78024a50270940304540a733656f0d61706760405190565b600090a4600190565b5050600090565b61088d9060015b810190612edd565b90600003611da85761088d90617077565b61088d90600161707e565b90600003611da85761088d90617097565b906170c690600019906020036008021c90565b8154169055565b906000916170eb6170e382600052602060002090565b928354612f4a565b905555565b919290602082101561714857601f841160011461711257612b8a929350612f4a565b509061714361088d93600161713a61712f85600052602060002090565b92601f602091010490565b82019101612edd565b6170cd565b50617181829361715f600194600052602060002090565b612f396020601f860104820192601f861680617189575b50601f602091010490565b600202179055565b617195908886036170b3565b38617176565b929091600160401b8211610c1957602011156171e25760208110156171c357612b8a91612f4a565b60019160ff19166171d984600052602060002090565b55600202019055565b60019150600202019055565b9081546171fa81611aa6565b90818311617222575b8183106172105750505050565b617219936170f0565b38808080613cd5565b61722e8383838761719b565b617203565b600061088d916171ee565b90600003611da85761088d90617233565b6000600a61088d9261726383808301612ed1565b8260018201556172768360028301617086565b61728383600383016170a2565b6172908360048301612ed1565b61729d8360058301612ed1565b6172aa8360068301612ed1565b8260078201556172bd8360088301612ed1565b6172ca836009830161723e565b01612ed1565b90600003611da85761088d9061724f565b916001600160a01b0360089290920291821b911b612b69565b919061730b6108a3612b8a9361190d565b9083546172e1565b61088d916000916172fa565b91909160009061732f6000611d02565b61733a6108a3865190565b8110156173af576173aa90617366617360600761735a616b46858b612d38565b90611a44565b906172d0565b617374616d91846010611916565b61739584617390600f61738a616b46868c612d38565b90611d0f565b617313565b612e076173a5616b468389612d38565b617f79565b61732f565b5050509050565b61088d916173c26143f6565b916182be565b6173d282826150a0565b15617070576173ec6000616d0f84826150b586603a6137d0565b6173fa617036617030339390565b917ff6391f5c32d9c69d2a47ea670b442974b53935d1edc7fd64eb21e047a839171b61706760405190565b1561742c57565b60405162461bcd60e51b815260206004820152601060248201526f52657175657374206e6f74206d61646560801b6044820152606490fd5b9061ff009060081b612b69565b906174816108a3612b8a92151590565b8254617464565b6108a390613ce8565b634e487b7160e01b600052601260045260246000fd5b81156174b1570690565b617491565b9060156174d66174d160016174cb8685611d0f565b01611a86565b617425565b6001916174ee83806174e88786611d0f565b01617471565b6174fe816002613acc8786611d0f565b600791617575617528600261752161751b60006137ef8b88611d0f565b87611a44565b5001617488565b61753e6155b06175386000611d02565b83615128565b9061754e6155b061753889611d02565b61756f6155b06175646155b06155aa6002611d02565b936157366003611d02565b926182fe565b927fdd6ebb40766c50572c78f680f70ff043535bc04e71ac56a352f7c3df1e11ec516175a060405190565b806175ac8786836129a7565b0390a16175b96000611d02565b8211156176005795614a05936175f56175fa946003613acc6175e1616b469761088d9d6174a7565b956175ef616b468888612d38565b93611d0f565b612d38565b82611a44565b5050925050506003613acc61088d936175ef6000611d02565b91906008612b69910291612eb360ff841b90565b919061763e6108a3612b8a93151590565b908354617619565b61088d9160009161762d565b83614a0591613600600061768984611d2d83996176828561767d61088d9e611d2d60079e3390611916565b617646565b3390611916565b612ed1565b617698600061132d565b6176a18261132d565b1461778e576176b0600161132d565b6176b98261132d565b14617781576176c8600261132d565b6176d18261132d565b14617774576176e0600361132d565b6176e98261132d565b14617767576176f8600461132d565b6177018261132d565b1461775a576177136135bf600561132d565b1461774e5760405162461bcd60e51b815260206004820152600e60248201526d496e76616c69642072617269747960901b6044820152606490fd5b6108a36207e900611d02565b506108a362069780611d02565b506108a362054600611d02565b506108a36203f480611d02565b506108a36202a300611d02565b506108a362015180611d02565b906130a86108a3612b8a92611337565b9190918282106177ba57505050565b61088d926020601f9091010490600160206177d9601f86018290049390565b928301940602600081116177f0575b500190612edd565b6177fd90600185036170b3565b386177e8565b90600160401b8111610c195761088d9160045b906177ab565b906004906131e9617831916108a38486617803565b602082049160005b83811061789e5750602083029003600081116178555750505050565b9260009360005b81811061787157505050015538808080613cd5565b909194602061789460019261788a6108a38a5160ff1690565b9085850290617619565b960192910161785c565b6000805b602081106178b7575083820155600101617839565b959060206178d96001926178cf6108a3865160ff1690565b908a850290617619565b920196016178a2565b9061088d9161781c565b90600160401b8111610c195761088d916002617816565b906002906131e9617918916108a384866178ec565b602082049160005b83811061797b57506020830290036000811161793c5750505050565b9260009360005b81811061795857505050015538808080613cd5565b909194602061797160019261788a6108a38a5160ff1690565b9601929101617943565b6000805b60208110617994575083820155600101617920565b959060206179ac6001926178cf6108a3865160ff1690565b9201960161797f565b9061088d91617903565b600a617ab861014061088d946179df6179d9600083015190565b86612b73565b6179f76179ee60208301612d52565b6001870161779b565b617a0e617a05604083015190565b600287016178e2565b617a25617a1c606083015190565b600387016179b5565b617a3c617a33608083015190565b60048701612b73565b617a53617a4a60a083015190565b60058701612b73565b617a6a617a6160c083015190565b60068701612b73565b617a83617a7a60e0830151151590565b60078701613974565b617a9b617a9261010083015190565b60088701612b73565b617ab3617aaa61012083015190565b60098701613021565b015190565b9101612b73565b9190611da85761088d916179bf565b90815491600160401b831015610c195782617af191600161088d95018155611a44565b90617abf565b9593949a92989789989a9197929a617b0d600090565b5060009c8d96617b1b613d62565b98617b2589611d02565b988a01899052617b389060208b01613c44565b60408901526060880152608087015260a086015260c085015289151560e0850152610100840152610120830152610140820152617b759082617ace565b8054617b816001611d02565b617b8a916131e2565b8096617b97828094611a44565b500190617ba391612b73565b617bac91611d0f565b90617bb691613993565b617bbf91611916565b617bc881611a73565b617bd190614fa4565b6108a391612b73565b617be7610a8960006132e4565b6001600160a01b03831614617c4357617c3e617c3461703083613b2587616d0f8861689d7f17307eab39ab6107e8899845ad3d59bd9653f200f220920489ca2b5937696c31996005611916565b936108c960405190565b0390a3565b612a7b82617c5060405190565b630b61174360e31b8152918291600483016001600160a01b03909116815260200190565b9361088d94613600600061768984611d2d8960079961689d8661767d86829f611d2d90614a059f611916565b617cae612a8f84848461847e565b617cb757505050565b617cc7613541610a8960006132e4565b03617cd957612a7b82616c0860405190565b612a7b617ce560405190565b63177e802f60e01b815292839260048401613f63565b9050519061088d8261086d565b90602082820312610868576108a391617cfb565b6001600160a01b0390911681526108a39360808201939092617d4291906134ea906134da565b60608184039101526109f1565b3d15617d6957617d5e3d6143df565b903d6000602084013e565b606090565b909291833b617d806113556000611d02565b11617d8b5750505050565b602091617d9a613b258661190d565b90600033617dc4617daa60405190565b97889687958694630a85bd0160e11b865260048601617d1c565b03925af160009181617e39575b50617e105750617ddf617d4f565b90617de8825190565b617df56113556000611d02565b03617e0757612a7b90616e4360405190565b50805190602001fd5b617e2a630a85bd0160e11b5b916001600160e01b03191690565b03616e36575038808080613cd5565b617e5c91925060203d602011617e63575b617e548183610bf8565b810190617d08565b9038617dd1565b503d617e4a565b61502d617e8191617e79600090565b50600f611d0f565b617e91613541610a8960006132e4565b141590565b610a25617eae92602092617ea8815190565b94859290565b938491016109ce565b617ec5906108a39392617e96565b90617e96565b617eeb929161088d91617edd60405190565b948592602084019283617eb7565b90810382520383610bf8565b617f0081616bd1565b50617f0f6164ee826006611d0f565b617f17618506565b8051617f266113556000611d02565b14617f54578151617f3a6113556000611d02565b11617f4a5750506108a39061850e565b6108a39250617ecb565b50905090565b90611d2d616d916000956173909561689d6173608a61088d9b98611a44565b617f8360006132e4565b617f946135416166ea83858161814c565b14616bfb5750565b637965db0b60e01b6001600160e01b0319821614908115617fbb575090565b6108a39150618571565b61502d6108a391617fd4600090565b506002611d0f565b929190918081156180f9575b617ffe575b505090616d8c61088d926004611d0f565b61800783616bd1565b91618015610a8960006132e4565b6001600160a01b0382161415806180dd575b806180ca575b618099575091616d8c9161088d9493618049575b509192617fed565b6180529061190d565b61805b8461190d565b61806483611d02565b917f8c5be1e5ebec7d5bd14f71427d1e84f3dd0314c0f7b2291e5b200ac8c7c3b92561808f60405190565b600090a438618041565b612a7b906180a660405190565b63a9fbf51f60e01b8152918291600483016001600160a01b03909116815260200190565b506180d8612a8f8285616882565b61802d565b506001600160a01b0381166001600160a01b0384161415618027565b50618107610a8960006132e4565b6001600160a01b0383161415617fe8565b6137c0906109797ff8e1a15aba9398e019f0b49df1a4fde98ee17ae345cb5f6b5e2c27f5033e8ce7936130c7836006611d0f565b906181aa61815982617fc5565b936000618165816132e4565b91846001600160a01b0384166001600160a01b03831603618275575b50506001600160a01b0382166001600160a01b0387160361823a575b506001600160a01b031690565b6001600160a01b03831603618210575b6181c982616d8c836002611d0f565b6181de6181d86170308561190d565b91611d02565b917fddf252ad1be2c89b69c2b068fc378daa952ba7f163c4a11628f55a4df523b3ef61820960405190565b600090a490565b61823561821d6001611d02565b616d3f61822b856003611916565b91610a2583611a73565b6181ba565b61824690828581617fdc565b61826f6182536001611d02565b616d3f618261886003611916565b9161826b83611a73565b0390565b3861819d565b61827f9188617ca0565b3884618181565b90618294612a8f82846150a0565b61829c575050565b612a7b6182a860405190565b63e2517d3f60e01b815292839260048401613f63565b9061088d92916182ce828261859d565b6182d860006132e4565b617d6e565b9091906004831015611a675760206182f460019290565b8185040193060290565b909392909160009261833461831285611d02565b9361832f60079461832f618327612d94885490565b9a8896615139565b615139565b95835b6183426108a3855490565b81101561844a576183b761838361836f618369896002618362878b611a44565b50016182dd565b906108f6565b6155d361836960016002618362888c611a44565b6155d361836960036183ac600261839a888c611a44565b5001946155d3618369600280986182dd565b93618362878b611a44565b6183c360ff8a16615141565b1080618425575b8061840e575b6183e2575b600101618337565b618337565b93916184066183ff6183dd92612e07616ae28a6135718b8b611a44565b9360010190565b9490506183d5565b50618420612a8f856135948482611a44565b6183d0565b5061843461502d82600f611d0f565b618444613541610a8960336121c1565b146183ca565b5093955050509161845d616b2484612d15565b83811015616b595780612e07616b4a616b466184799487612d38565b61845d565b9061848c610a8960006132e4565b6001600160a01b038216141592836184a5575b50505090565b919250906001600160a01b0382166001600160a01b038416149283156184f2575b5082156184d8575b505038808061849f565b6184ea9192506166ea61354191616c22565b1438806184ce565b6184ff9193508290616882565b91386184c6565b6108a36143f6565b61851781616bd1565b50618520618506565b805161852f6113556000611d02565b1115618547576185416108a392618645565b90617ecb565b50506108a36143f6565b61189961855e6108a39290565b60e01b90565b6108a36349064906618551565b61857c611899618564565b6001600160e01b0319821614908115618593575090565b6108a391506186d7565b906185a860006132e4565b916001600160a01b0383166001600160a01b03821614618618576185cd91839161814c565b6185df6001600160a01b038316613541565b036185e75750565b612a7b906185f460405190565b6339e3563760e11b8152918291600483016001600160a01b03909116815260200190565b612a7b83616e4360405190565b9061088d612d2b618635846143df565b93610e89565b81156174b1570490565b61864e81618722565b9061865f600192610a256001611d02565b918061866a84618625565b936020018401905b61867c5750505090565b81156186d2576186b69060001901926f181899199a1a9b1b9c1cb0b131b232b360811b600a82061a84536186b0600a611d02565b9061863b565b90816186c56113556000611d02565b146186d257909181618672565b61849f565b6380ac58cd60e01b6001600160e01b0319821614908115618707575b81156186fd575090565b6108a391506188c4565b6001600160e01b03198116635b5e139f60e01b1491506186f3565b61872c6000611d02565b907a184f03e93ff9f4daa797ed6e38ed64bf6a1f01000000000000000061875281611d02565b8210156188a2575b506d04ee2d6d415b85acef810000000061877381611d02565b821015618880575b50662386f26fc1000061878d81611d02565b82101561885e575b506305f5e1006187a481611d02565b82101561883c575b506127106187b981611d02565b82101561881a575b506187cc6064611d02565b8110156187f8575b6187e1611355600a611d02565b10156187ea5790565b6108a390610a256001611d02565b618809618814916186b06064611d02565b91610a256002611d02565b906187d4565b618835916186b061882a92611d02565b91610a256004611d02565b90386187c1565b618857916186b061884c92611d02565b91610a256008611d02565b90386187ac565b618879916186b061886e92611d02565b91610a256010611d02565b9038618795565b61889b916186b061889092611d02565b91610a256020611d02565b903861877b565b6188bd916186b06188b292611d02565b91610a256040611d02565b903861875a565b6188d46301ffc9a760e01b617e1c565b149056fefcb9fcbfa83b897fb2d5cf4b58962164105c1e71489a37ef3ae0db3fdce576f6df8b4c520ffe197c5343c6f5aec59570151ef9a492f2c624fd45ddde6135ec425ea0402f9a8785c25ad31fd3e0e81f8c2b4ca231668cc82cd03fa34ea1f0ce3ca26469706673582212207d384d05cdfb66c98ba7ae5e25def9b87455cfd928bdd13fd2c707cf7893505364736f6c63430008190033",
    "linkReferences": {
      "src/libraries/ForgeLibrary.sol": {
        "ForgeLibrary": [
          {
            "start": 19472,
            "length": 20
          }
        ]
      }
    }
  },
  "methodIdentifiers": {
    "ADMIN_ROLE()": "75b238fc",
    "CALLBACK_GAS_LIMIT()": "33d608f1",
    "CommonGemsCooldownPeriod()": "77f7e499",
    "CommonGemsMiningPeriod()": "c4d2fcae",
    "CommonGemsValue()": "58bf3e65",
    "CommonminingTry()": "ffbccde4",
    "DEFAULT_ADMIN_ROLE()": "a217fddf",
    "EpicGemsCooldownPeriod()": "efa2cc29",
    "EpicGemsMiningPeriod()": "5bbffab6",
    "EpicGemsValue()": "038a7e05",
    "EpicminingTry()": "f7c0794d",
    "GEMIndexToOwner(uint256)": "97125c40",
    "Gems(uint256)": "61f7f6d7",
    "LegendaryGemsCooldownPeriod()": "8fddb065",
    "LegendaryGemsMiningPeriod()": "d7a46495",
    "LegendaryGemsValue()": "a0b2d41b",
    "LegendaryminingTry()": "201832c0",
    "MythicGemsCooldownPeriod()": "e4b7fddf",
    "MythicGemsMiningPeriod()": "139b63f3",
    "MythicGemsValue()": "3fb310a5",
    "MythicminingTry()": "62751738",
    "PAUSE_ROLE()": "389ed267",
    "RareGemsCooldownPeriod()": "b78417b0",
    "RareGemsMiningPeriod()": "0de32a97",
    "RareGemsValue()": "f66f9e34",
    "RareminingTry()": "d1bd7e06",
    "UniqueGemsCooldownPeriod()": "1885cbbe",
    "UniqueGemsMiningPeriod()": "04e41a0b",
    "UniqueGemsValue()": "18898f36",
    "UniqueminingTry()": "98a2c65d",
    "addAdmin(address)": "70480275",
    "addBackgroundColor(string)": "1d0e0aac",
    "addColor(string)": "15341f2b",
    "addPauser(address)": "82dc1ec4",
    "adminTransferGEM(address,uint256)": "33158058",
    "aliveImplementation(address)": "550d01a3",
    "approve(address,uint256)": "095ea7b3",
    "backgroundColors(uint256)": "a8ce886e",
    "balanceOf(address)": "70a08231",
    "cancelMining(uint256)": "ad6caa47",
    "claimMinedGEM(uint256)": "7fe6fde5",
    "colors(uint256)": "bd11f69d",
    "createGEM(uint8,uint8[2],uint8[4],string)": "975781b7",
    "createGEMPool(uint8[],uint8[2][],uint8[4][],string[])": "0ff1ac67",
    "customBackgroundColors(uint8)": "ecc5e06f",
    "customBackgroundColorsCount()": "0922f513",
    "customColors(uint8)": "6b1a96fa",
    "customColorsCount()": "034294f8",
    "drbcoordinator()": "71b57c47",
    "forgeTokens(uint256[],uint8,uint8[2])": "33fcb648",
    "getApproved(uint256)": "081812fc",
    "getCommonValue()": "d55486d3",
    "getCommonminingTry()": "1008ef78",
    "getCustomColor(uint8)": "aff2a463",
    "getEpicValue()": "dc0515d6",
    "getEpicminingTry()": "8d41fe30",
    "getGem(uint256)": "aa723bb7",
    "getGemList()": "2b8cd094",
    "getGemListAvailableForRandomPack()": "fea90d02",
    "getGemsSupplyTotalValue()": "4cbe4360",
    "getLegendaryValue()": "5fcf94d1",
    "getLegendaryminingTry()": "166b35c9",
    "getMythicValue()": "bc36b2ee",
    "getMythicminingTry()": "3ec7af4a",
    "getRandomRequest(uint256)": "aae31df3",
    "getRareValue()": "8964f0c1",
    "getRareminingTry()": "6c106fea",
    "getRoleAdmin(bytes32)": "248a9ca3",
    "getTon()": "2bbbe94d",
    "getTreasury()": "3b19e84a",
    "getUniqueValue()": "d62c990f",
    "getUniqueminingTry()": "c61a46c5",
    "getWston()": "e7a523c0",
    "grantRole(bytes32,address)": "2f2ff15d",
    "hasRole(bytes32,address)": "91d14854",
    "initialize(address,address,address,uint256,uint256,uint256,uint256,uint256,uint256)": "bb4a2509",
    "isAdmin(address)": "24d7806c",
    "isApprovedForAll(address,address)": "e985e9c5",
    "isOwner()": "8f32d59b",
    "isTokenLocked(uint256)": "276a28a3",
    "marketplace()": "abc8c7af",
    "meltGEM(uint256)": "f99a6bb5",
    "name()": "06fdde03",
    "numberOfSolidColors()": "724188bc",
    "ownerOf(uint256)": "6352211e",
    "ownershipTokenCount(address)": "cec21acb",
    "pause()": "8456cb59",
    "pauseProxy()": "63a8fd89",
    "paused()": "5c975abb",
    "pickMinedGEM(uint256)": "274f2455",
    "preMintedGemsAvailable()": "c28fb6b7",
    "proxyImplementation(uint256)": "b911135f",
    "randomPack()": "4ec741b4",
    "rawFulfillRandomWords(uint256,uint256)": "37ed11db",
    "removeAdmin(address)": "1785f53c",
    "removePauser(address)": "6b2c0f55",
    "renounceOwnership()": "715018a6",
    "renounceRole(bytes32,address)": "36568abe",
    "requestCount()": "5badbe4c",
    "requestIds(uint256)": "8796ba8c",
    "revokeRole(bytes32,address)": "d547741f",
    "s_requests(uint256)": "a168fa89",
    "safeTransferFrom(address,address,uint256)": "42842e0e",
    "safeTransferFrom(address,address,uint256,bytes)": "b88d4fde",
    "selectorImplementation(bytes4)": "50d2a276",
    "setApprovalForAll(address,bool)": "a22cb465",
    "setApprovalForMarketplace()": "0491fd3e",
    "setGemsCooldownPeriods(uint256,uint256,uint256,uint256,uint256,uint256)": "ad0d3d3f",
    "setGemsMiningPeriods(uint256,uint256,uint256,uint256,uint256,uint256)": "0c7254a0",
    "setGemsValue(uint256,uint256,uint256,uint256,uint256,uint256)": "ff198a1d",
    "setIsLocked(uint256,bool)": "4d723a75",
    "setMarketPlaceAddress(address)": "cc98ef96",
    "setNumberOfSolidColors(uint8)": "9a66af62",
    "setRandomPack(address)": "ed8c2472",
    "setTokenURI(uint256,string)": "162094c4",
    "setminingTrys(uint256,uint256,uint256,uint256,uint256,uint256)": "a1c52726",
    "startMiningGEM(uint256)": "1da0fc9c",
    "supportsInterface(bytes4)": "01ffc9a7",
    "symbol()": "95d89b41",
    "tokenMiningByUser(address)": "c1389072",
    "tokenReadyToMine(uint256)": "7866369b",
    "tokenURI(uint256)": "c87b56dd",
    "tokensOfOwner(address)": "8462151c",
    "ton()": "cc48b947",
    "totalSupply()": "18160ddd",
    "transferAdmin(address)": "75829def",
    "transferFrom(address,address,uint256)": "23b872dd",
    "transferOwnership(address)": "f2fde38b",
    "treasury()": "61d027b3",
    "unpause()": "3f4ba83a",
    "userMiningStartTime(address,uint256)": "676f79f1",
    "userMiningToken(address,uint256)": "a1770a7d",
    "wston()": "36b17e13"
  },
  "id": 87
}