{
  "abi": [
    {
      "type": "constructor",
      "inputs": [
        {
          "name": "coordinator",
          "type": "address",
          "internalType": "address"
        }
      ],
      "stateMutability": "nonpayable"
    },
    {
      "type": "function",
      "name": "CALLBACK_GAS_LIMIT",
      "inputs": [],
      "outputs": [
        {
          "name": "",
          "type": "uint32",
          "internalType": "uint32"
        }
      ],
      "stateMutability": "view"
    },
    {
      "type": "function",
      "name": "CommonGemsCooldownPeriod",
      "inputs": [],
      "outputs": [
        {
          "name": "",
          "type": "uint256",
          "internalType": "uint256"
        }
      ],
      "stateMutability": "view"
    },
    {
      "type": "function",
      "name": "CommonGemsMiningPeriod",
      "inputs": [],
      "outputs": [
        {
          "name": "",
          "type": "uint256",
          "internalType": "uint256"
        }
      ],
      "stateMutability": "view"
    },
    {
      "type": "function",
      "name": "CommonGemsValue",
      "inputs": [],
      "outputs": [
        {
          "name": "",
          "type": "uint256",
          "internalType": "uint256"
        }
      ],
      "stateMutability": "view"
    },
    {
      "type": "function",
      "name": "CommonMiningFees",
      "inputs": [],
      "outputs": [
        {
          "name": "",
          "type": "uint256",
          "internalType": "uint256"
        }
      ],
      "stateMutability": "view"
    },
    {
      "type": "function",
      "name": "DEFAULT_ADMIN_ROLE",
      "inputs": [],
      "outputs": [
        {
          "name": "",
          "type": "bytes32",
          "internalType": "bytes32"
        }
      ],
      "stateMutability": "view"
    },
    {
      "type": "function",
      "name": "EpicGemsCooldownPeriod",
      "inputs": [],
      "outputs": [
        {
          "name": "",
          "type": "uint256",
          "internalType": "uint256"
        }
      ],
      "stateMutability": "view"
    },
    {
      "type": "function",
      "name": "EpicGemsMiningPeriod",
      "inputs": [],
      "outputs": [
        {
          "name": "",
          "type": "uint256",
          "internalType": "uint256"
        }
      ],
      "stateMutability": "view"
    },
    {
      "type": "function",
      "name": "EpicGemsValue",
      "inputs": [],
      "outputs": [
        {
          "name": "",
          "type": "uint256",
          "internalType": "uint256"
        }
      ],
      "stateMutability": "view"
    },
    {
      "type": "function",
      "name": "EpicMiningFees",
      "inputs": [],
      "outputs": [
        {
          "name": "",
          "type": "uint256",
          "internalType": "uint256"
        }
      ],
      "stateMutability": "view"
    },
    {
      "type": "function",
      "name": "GEMIndexToApproved",
      "inputs": [
        {
          "name": "",
          "type": "uint256",
          "internalType": "uint256"
        }
      ],
      "outputs": [
        {
          "name": "",
          "type": "address",
          "internalType": "address"
        }
      ],
      "stateMutability": "view"
    },
    {
      "type": "function",
      "name": "GEMIndexToOwner",
      "inputs": [
        {
          "name": "",
          "type": "uint256",
          "internalType": "uint256"
        }
      ],
      "outputs": [
        {
          "name": "",
          "type": "address",
          "internalType": "address"
        }
      ],
      "stateMutability": "view"
    },
    {
      "type": "function",
      "name": "Gems",
      "inputs": [
        {
          "name": "",
          "type": "uint256",
          "internalType": "uint256"
        }
      ],
      "outputs": [
        {
          "name": "tokenId",
          "type": "uint256",
          "internalType": "uint256"
        },
        {
          "name": "rarity",
          "type": "uint8",
          "internalType": "enum GemFactoryStorage.Rarity"
        },
        {
          "name": "gemCooldownPeriod",
          "type": "uint256",
          "internalType": "uint256"
        },
        {
          "name": "miningPeriod",
          "type": "uint256",
          "internalType": "uint256"
        },
        {
          "name": "isLocked",
          "type": "bool",
          "internalType": "bool"
        },
        {
          "name": "value",
          "type": "uint256",
          "internalType": "uint256"
        },
        {
          "name": "tokenURI",
          "type": "string",
          "internalType": "string"
        },
        {
          "name": "randomRequestId",
          "type": "uint256",
          "internalType": "uint256"
        }
      ],
      "stateMutability": "view"
    },
    {
      "type": "function",
      "name": "LegendaryGemsCooldownPeriod",
      "inputs": [],
      "outputs": [
        {
          "name": "",
          "type": "uint256",
          "internalType": "uint256"
        }
      ],
      "stateMutability": "view"
    },
    {
      "type": "function",
      "name": "LegendaryGemsMiningPeriod",
      "inputs": [],
      "outputs": [
        {
          "name": "",
          "type": "uint256",
          "internalType": "uint256"
        }
      ],
      "stateMutability": "view"
    },
    {
      "type": "function",
      "name": "LegendaryGemsValue",
      "inputs": [],
      "outputs": [
        {
          "name": "",
          "type": "uint256",
          "internalType": "uint256"
        }
      ],
      "stateMutability": "view"
    },
    {
      "type": "function",
      "name": "LegendaryMiningFees",
      "inputs": [],
      "outputs": [
        {
          "name": "",
          "type": "uint256",
          "internalType": "uint256"
        }
      ],
      "stateMutability": "view"
    },
    {
      "type": "function",
      "name": "MythicGemsCooldownPeriod",
      "inputs": [],
      "outputs": [
        {
          "name": "",
          "type": "uint256",
          "internalType": "uint256"
        }
      ],
      "stateMutability": "view"
    },
    {
      "type": "function",
      "name": "MythicGemsMiningPeriod",
      "inputs": [],
      "outputs": [
        {
          "name": "",
          "type": "uint256",
          "internalType": "uint256"
        }
      ],
      "stateMutability": "view"
    },
    {
      "type": "function",
      "name": "MythicGemsValue",
      "inputs": [],
      "outputs": [
        {
          "name": "",
          "type": "uint256",
          "internalType": "uint256"
        }
      ],
      "stateMutability": "view"
    },
    {
      "type": "function",
      "name": "MythicMiningFees",
      "inputs": [],
      "outputs": [
        {
          "name": "",
          "type": "uint256",
          "internalType": "uint256"
        }
      ],
      "stateMutability": "view"
    },
    {
      "type": "function",
      "name": "PAUSE_ROLE",
      "inputs": [],
      "outputs": [
        {
          "name": "",
          "type": "bytes32",
          "internalType": "bytes32"
        }
      ],
      "stateMutability": "view"
    },
    {
      "type": "function",
      "name": "RareGemsCooldownPeriod",
      "inputs": [],
      "outputs": [
        {
          "name": "",
          "type": "uint256",
          "internalType": "uint256"
        }
      ],
      "stateMutability": "view"
    },
    {
      "type": "function",
      "name": "RareGemsMiningPeriod",
      "inputs": [],
      "outputs": [
        {
          "name": "",
          "type": "uint256",
          "internalType": "uint256"
        }
      ],
      "stateMutability": "view"
    },
    {
      "type": "function",
      "name": "RareGemsValue",
      "inputs": [],
      "outputs": [
        {
          "name": "",
          "type": "uint256",
          "internalType": "uint256"
        }
      ],
      "stateMutability": "view"
    },
    {
      "type": "function",
      "name": "RareMiningFees",
      "inputs": [],
      "outputs": [
        {
          "name": "",
          "type": "uint256",
          "internalType": "uint256"
        }
      ],
      "stateMutability": "view"
    },
    {
      "type": "function",
      "name": "TREASURY_ROLE",
      "inputs": [],
      "outputs": [
        {
          "name": "",
          "type": "bytes32",
          "internalType": "bytes32"
        }
      ],
      "stateMutability": "view"
    },
    {
      "type": "function",
      "name": "UniqueGemsCooldownPeriod",
      "inputs": [],
      "outputs": [
        {
          "name": "",
          "type": "uint256",
          "internalType": "uint256"
        }
      ],
      "stateMutability": "view"
    },
    {
      "type": "function",
      "name": "UniqueGemsMiningPeriod",
      "inputs": [],
      "outputs": [
        {
          "name": "",
          "type": "uint256",
          "internalType": "uint256"
        }
      ],
      "stateMutability": "view"
    },
    {
      "type": "function",
      "name": "UniqueGemsValue",
      "inputs": [],
      "outputs": [
        {
          "name": "",
          "type": "uint256",
          "internalType": "uint256"
        }
      ],
      "stateMutability": "view"
    },
    {
      "type": "function",
      "name": "UniqueMiningFees",
      "inputs": [],
      "outputs": [
        {
          "name": "",
          "type": "uint256",
          "internalType": "uint256"
        }
      ],
      "stateMutability": "view"
    },
    {
      "type": "function",
      "name": "addAdmin",
      "inputs": [
        {
          "name": "account",
          "type": "address",
          "internalType": "address"
        }
      ],
      "outputs": [],
      "stateMutability": "nonpayable"
    },
    {
      "type": "function",
      "name": "addBackgroundColor",
      "inputs": [
        {
          "name": "_backgroundColor",
          "type": "string",
          "internalType": "string"
        }
      ],
      "outputs": [],
      "stateMutability": "nonpayable"
    },
    {
      "type": "function",
      "name": "addColor",
      "inputs": [
        {
          "name": "_color",
          "type": "string",
          "internalType": "string"
        }
      ],
      "outputs": [],
      "stateMutability": "nonpayable"
    },
    {
      "type": "function",
      "name": "addMinter",
      "inputs": [
        {
          "name": "account",
          "type": "address",
          "internalType": "address"
        }
      ],
      "outputs": [],
      "stateMutability": "nonpayable"
    },
    {
      "type": "function",
      "name": "adminTransferGEM",
      "inputs": [
        {
          "name": "_to",
          "type": "address",
          "internalType": "address"
        },
        {
          "name": "_tokenId",
          "type": "uint256",
          "internalType": "uint256"
        }
      ],
      "outputs": [
        {
          "name": "",
          "type": "bool",
          "internalType": "bool"
        }
      ],
      "stateMutability": "nonpayable"
    },
    {
      "type": "function",
      "name": "aliveImplementation",
      "inputs": [
        {
          "name": "",
          "type": "address",
          "internalType": "address"
        }
      ],
      "outputs": [
        {
          "name": "",
          "type": "bool",
          "internalType": "bool"
        }
      ],
      "stateMutability": "view"
    },
    {
      "type": "function",
      "name": "approve",
      "inputs": [
        {
          "name": "to",
          "type": "address",
          "internalType": "address"
        },
        {
          "name": "tokenId",
          "type": "uint256",
          "internalType": "uint256"
        }
      ],
      "outputs": [],
      "stateMutability": "nonpayable"
    },
    {
      "type": "function",
      "name": "backgroundColors",
      "inputs": [
        {
          "name": "",
          "type": "uint256",
          "internalType": "uint256"
        }
      ],
      "outputs": [
        {
          "name": "",
          "type": "string",
          "internalType": "string"
        }
      ],
      "stateMutability": "view"
    },
    {
      "type": "function",
      "name": "balanceOf",
      "inputs": [
        {
          "name": "_owner",
          "type": "address",
          "internalType": "address"
        }
      ],
      "outputs": [
        {
          "name": "count",
          "type": "uint256",
          "internalType": "uint256"
        }
      ],
      "stateMutability": "view"
    },
    {
      "type": "function",
      "name": "claimMinedGEM",
      "inputs": [
        {
          "name": "_tokenId",
          "type": "uint256",
          "internalType": "uint256"
        }
      ],
      "outputs": [
        {
          "name": "",
          "type": "bool",
          "internalType": "bool"
        }
      ],
      "stateMutability": "nonpayable"
    },
    {
      "type": "function",
      "name": "colors",
      "inputs": [
        {
          "name": "",
          "type": "uint256",
          "internalType": "uint256"
        }
      ],
      "outputs": [
        {
          "name": "",
          "type": "string",
          "internalType": "string"
        }
      ],
      "stateMutability": "view"
    },
    {
      "type": "function",
      "name": "createGEM",
      "inputs": [
        {
          "name": "_rarity",
          "type": "uint8",
          "internalType": "enum GemFactoryStorage.Rarity"
        },
        {
          "name": "_color",
          "type": "uint8[2]",
          "internalType": "uint8[2]"
        },
        {
          "name": "_quadrants",
          "type": "uint8[4]",
          "internalType": "uint8[4]"
        },
        {
          "name": "_tokenURI",
          "type": "string",
          "internalType": "string"
        }
      ],
      "outputs": [
        {
          "name": "",
          "type": "uint256",
          "internalType": "uint256"
        }
      ],
      "stateMutability": "nonpayable"
    },
    {
      "type": "function",
      "name": "createGEMPool",
      "inputs": [
        {
          "name": "_rarities",
          "type": "uint8[]",
          "internalType": "enum GemFactoryStorage.Rarity[]"
        },
        {
          "name": "_colors",
          "type": "uint8[2][]",
          "internalType": "uint8[2][]"
        },
        {
          "name": "_quadrants",
          "type": "uint8[4][]",
          "internalType": "uint8[4][]"
        },
        {
          "name": "_tokenURIs",
          "type": "string[]",
          "internalType": "string[]"
        }
      ],
      "outputs": [
        {
          "name": "",
          "type": "uint256[]",
          "internalType": "uint256[]"
        }
      ],
      "stateMutability": "nonpayable"
    },
    {
      "type": "function",
      "name": "customBackgroundColors",
      "inputs": [
        {
          "name": "",
          "type": "uint8",
          "internalType": "uint8"
        }
      ],
      "outputs": [
        {
          "name": "",
          "type": "string",
          "internalType": "string"
        }
      ],
      "stateMutability": "view"
    },
    {
      "type": "function",
      "name": "customBackgroundColorsCount",
      "inputs": [],
      "outputs": [
        {
          "name": "",
          "type": "uint8",
          "internalType": "uint8"
        }
      ],
      "stateMutability": "view"
    },
    {
      "type": "function",
      "name": "customColors",
      "inputs": [
        {
          "name": "",
          "type": "uint8",
          "internalType": "uint8"
        }
      ],
      "outputs": [
        {
          "name": "",
          "type": "string",
          "internalType": "string"
        }
      ],
      "stateMutability": "view"
    },
    {
      "type": "function",
      "name": "customColorsCount",
      "inputs": [],
      "outputs": [
        {
          "name": "",
          "type": "uint8",
          "internalType": "uint8"
        }
      ],
      "stateMutability": "view"
    },
    {
      "type": "function",
      "name": "forgeTokens",
      "inputs": [
        {
          "name": "_tokenIds",
          "type": "uint256[]",
          "internalType": "uint256[]"
        },
        {
          "name": "_rarity",
          "type": "uint8",
          "internalType": "enum GemFactoryStorage.Rarity"
        },
        {
          "name": "_color",
          "type": "uint8[2]",
          "internalType": "uint8[2]"
        }
      ],
      "outputs": [
        {
          "name": "newGemId",
          "type": "uint256",
          "internalType": "uint256"
        }
      ],
      "stateMutability": "nonpayable"
    },
    {
      "type": "function",
      "name": "gemAllowedToAddress",
      "inputs": [
        {
          "name": "",
          "type": "uint256",
          "internalType": "uint256"
        }
      ],
      "outputs": [
        {
          "name": "",
          "type": "address",
          "internalType": "address"
        }
      ],
      "stateMutability": "view"
    },
    {
      "type": "function",
      "name": "getApproved",
      "inputs": [
        {
          "name": "tokenId",
          "type": "uint256",
          "internalType": "uint256"
        }
      ],
      "outputs": [
        {
          "name": "",
          "type": "address",
          "internalType": "address"
        }
      ],
      "stateMutability": "view"
    },
    {
      "type": "function",
      "name": "getCalculatedDirectFundingPrice",
      "inputs": [
        {
          "name": "_callbackGasLimit",
          "type": "uint32",
          "internalType": "uint32"
        }
      ],
      "outputs": [
        {
          "name": "",
          "type": "uint256",
          "internalType": "uint256"
        }
      ],
      "stateMutability": "view"
    },
    {
      "type": "function",
      "name": "getCommonMiningFees",
      "inputs": [],
      "outputs": [
        {
          "name": "",
          "type": "uint256",
          "internalType": "uint256"
        }
      ],
      "stateMutability": "view"
    },
    {
      "type": "function",
      "name": "getCustomColor",
      "inputs": [
        {
          "name": "_index",
          "type": "uint8",
          "internalType": "uint8"
        }
      ],
      "outputs": [
        {
          "name": "",
          "type": "string",
          "internalType": "string"
        }
      ],
      "stateMutability": "view"
    },
    {
      "type": "function",
      "name": "getGem",
      "inputs": [
        {
          "name": "_tokenId",
          "type": "uint256",
          "internalType": "uint256"
        }
      ],
      "outputs": [
        {
          "name": "",
          "type": "tuple",
          "internalType": "struct GemFactoryStorage.Gem",
          "components": [
            {
              "name": "tokenId",
              "type": "uint256",
              "internalType": "uint256"
            },
            {
              "name": "rarity",
              "type": "uint8",
              "internalType": "enum GemFactoryStorage.Rarity"
            },
            {
              "name": "quadrants",
              "type": "uint8[4]",
              "internalType": "uint8[4]"
            },
            {
              "name": "color",
              "type": "uint8[2]",
              "internalType": "uint8[2]"
            },
            {
              "name": "gemCooldownPeriod",
              "type": "uint256",
              "internalType": "uint256"
            },
            {
              "name": "miningPeriod",
              "type": "uint256",
              "internalType": "uint256"
            },
            {
              "name": "isLocked",
              "type": "bool",
              "internalType": "bool"
            },
            {
              "name": "value",
              "type": "uint256",
              "internalType": "uint256"
            },
            {
              "name": "tokenURI",
              "type": "string",
              "internalType": "string"
            },
            {
              "name": "randomRequestId",
              "type": "uint256",
              "internalType": "uint256"
            }
          ]
        }
      ],
      "stateMutability": "view"
    },
    {
      "type": "function",
      "name": "getRareMiningFees",
      "inputs": [],
      "outputs": [
        {
          "name": "",
          "type": "uint256",
          "internalType": "uint256"
        }
      ],
      "stateMutability": "view"
    },
    {
      "type": "function",
      "name": "getRoleAdmin",
      "inputs": [
        {
          "name": "role",
          "type": "bytes32",
          "internalType": "bytes32"
        }
      ],
      "outputs": [
        {
          "name": "",
          "type": "bytes32",
          "internalType": "bytes32"
        }
      ],
      "stateMutability": "view"
    },
    {
      "type": "function",
      "name": "getTon",
      "inputs": [],
      "outputs": [
        {
          "name": "",
          "type": "address",
          "internalType": "address"
        }
      ],
      "stateMutability": "view"
    },
    {
      "type": "function",
      "name": "getTreasury",
      "inputs": [],
      "outputs": [
        {
          "name": "",
          "type": "address",
          "internalType": "address"
        }
      ],
      "stateMutability": "view"
    },
    {
      "type": "function",
      "name": "getUniqueMiningFees",
      "inputs": [],
      "outputs": [
        {
          "name": "",
          "type": "uint256",
          "internalType": "uint256"
        }
      ],
      "stateMutability": "view"
    },
    {
      "type": "function",
      "name": "getWston",
      "inputs": [],
      "outputs": [
        {
          "name": "",
          "type": "address",
          "internalType": "address"
        }
      ],
      "stateMutability": "view"
    },
    {
      "type": "function",
      "name": "grantRole",
      "inputs": [
        {
          "name": "role",
          "type": "bytes32",
          "internalType": "bytes32"
        },
        {
          "name": "account",
          "type": "address",
          "internalType": "address"
        }
      ],
      "outputs": [],
      "stateMutability": "nonpayable"
    },
    {
      "type": "function",
      "name": "hasRole",
      "inputs": [
        {
          "name": "role",
          "type": "bytes32",
          "internalType": "bytes32"
        },
        {
          "name": "account",
          "type": "address",
          "internalType": "address"
        }
      ],
      "outputs": [
        {
          "name": "",
          "type": "bool",
          "internalType": "bool"
        }
      ],
      "stateMutability": "view"
    },
    {
      "type": "function",
      "name": "initialize",
      "inputs": [
        {
          "name": "_wston",
          "type": "address",
          "internalType": "address"
        },
        {
          "name": "_ton",
          "type": "address",
          "internalType": "address"
        },
        {
          "name": "_treasury",
          "type": "address",
          "internalType": "address"
        },
        {
          "name": "_CommonMiningFees",
          "type": "uint256",
          "internalType": "uint256"
        },
        {
          "name": "_RareMiningFees",
          "type": "uint256",
          "internalType": "uint256"
        },
        {
          "name": "_UniqueMiningFees",
          "type": "uint256",
          "internalType": "uint256"
        },
        {
          "name": "_EpicMiningFees",
          "type": "uint256",
          "internalType": "uint256"
        },
        {
          "name": "_LegendaryMiningFees",
          "type": "uint256",
          "internalType": "uint256"
        },
        {
          "name": "_MythicMiningFees",
          "type": "uint256",
          "internalType": "uint256"
        },
        {
          "name": "_CommonGemsValue",
          "type": "uint256",
          "internalType": "uint256"
        },
        {
          "name": "_RareGemsValue",
          "type": "uint256",
          "internalType": "uint256"
        },
        {
          "name": "_UniqueGemsValue",
          "type": "uint256",
          "internalType": "uint256"
        },
        {
          "name": "_EpicGemsValue",
          "type": "uint256",
          "internalType": "uint256"
        },
        {
          "name": "_LegendaryGemsValue",
          "type": "uint256",
          "internalType": "uint256"
        },
        {
          "name": "_MythicGemsValue",
          "type": "uint256",
          "internalType": "uint256"
        }
      ],
      "outputs": [],
      "stateMutability": "nonpayable"
    },
    {
      "type": "function",
      "name": "isAdmin",
      "inputs": [
        {
          "name": "account",
          "type": "address",
          "internalType": "address"
        }
      ],
      "outputs": [
        {
          "name": "",
          "type": "bool",
          "internalType": "bool"
        }
      ],
      "stateMutability": "view"
    },
    {
      "type": "function",
      "name": "isApprovedForAll",
      "inputs": [
        {
          "name": "owner",
          "type": "address",
          "internalType": "address"
        },
        {
          "name": "operator",
          "type": "address",
          "internalType": "address"
        }
      ],
      "outputs": [
        {
          "name": "",
          "type": "bool",
          "internalType": "bool"
        }
      ],
      "stateMutability": "view"
    },
    {
      "type": "function",
      "name": "isMinter",
      "inputs": [
        {
          "name": "account",
          "type": "address",
          "internalType": "address"
        }
      ],
      "outputs": [
        {
          "name": "",
          "type": "bool",
          "internalType": "bool"
        }
      ],
      "stateMutability": "view"
    },
    {
      "type": "function",
      "name": "isOwner",
      "inputs": [],
      "outputs": [
        {
          "name": "",
          "type": "bool",
          "internalType": "bool"
        }
      ],
      "stateMutability": "view"
    },
    {
      "type": "function",
      "name": "isTokenLocked",
      "inputs": [
        {
          "name": "_tokenId",
          "type": "uint256",
          "internalType": "uint256"
        }
      ],
      "outputs": [
        {
          "name": "",
          "type": "bool",
          "internalType": "bool"
        }
      ],
      "stateMutability": "view"
    },
    {
      "type": "function",
      "name": "isUserMining",
      "inputs": [
        {
          "name": "",
          "type": "address",
          "internalType": "address"
        }
      ],
      "outputs": [
        {
          "name": "",
          "type": "bool",
          "internalType": "bool"
        }
      ],
      "stateMutability": "view"
    },
    {
      "type": "function",
      "name": "lastRequestId",
      "inputs": [],
      "outputs": [
        {
          "name": "",
          "type": "uint256",
          "internalType": "uint256"
        }
      ],
      "stateMutability": "view"
    },
    {
      "type": "function",
      "name": "marketplace",
      "inputs": [],
      "outputs": [
        {
          "name": "",
          "type": "address",
          "internalType": "address"
        }
      ],
      "stateMutability": "view"
    },
    {
      "type": "function",
      "name": "meltGEM",
      "inputs": [
        {
          "name": "_tokenId",
          "type": "uint256",
          "internalType": "uint256"
        }
      ],
      "outputs": [],
      "stateMutability": "nonpayable"
    },
    {
      "type": "function",
      "name": "name",
      "inputs": [],
      "outputs": [
        {
          "name": "",
          "type": "string",
          "internalType": "string"
        }
      ],
      "stateMutability": "view"
    },
    {
      "type": "function",
      "name": "numberOfSolidColors",
      "inputs": [],
      "outputs": [
        {
          "name": "",
          "type": "uint8",
          "internalType": "uint8"
        }
      ],
      "stateMutability": "view"
    },
    {
      "type": "function",
      "name": "ownerOf",
      "inputs": [
        {
          "name": "tokenId",
          "type": "uint256",
          "internalType": "uint256"
        }
      ],
      "outputs": [
        {
          "name": "",
          "type": "address",
          "internalType": "address"
        }
      ],
      "stateMutability": "view"
    },
    {
      "type": "function",
      "name": "ownerOfGEM",
      "inputs": [
        {
          "name": "_tokenId",
          "type": "uint256",
          "internalType": "uint256"
        }
      ],
      "outputs": [
        {
          "name": "owner",
          "type": "address",
          "internalType": "address"
        }
      ],
      "stateMutability": "view"
    },
    {
      "type": "function",
      "name": "ownershipTokenCount",
      "inputs": [
        {
          "name": "",
          "type": "address",
          "internalType": "address"
        }
      ],
      "outputs": [
        {
          "name": "",
          "type": "uint256",
          "internalType": "uint256"
        }
      ],
      "stateMutability": "view"
    },
    {
      "type": "function",
      "name": "pause",
      "inputs": [],
      "outputs": [],
      "stateMutability": "nonpayable"
    },
    {
      "type": "function",
      "name": "pauseProxy",
      "inputs": [],
      "outputs": [
        {
          "name": "",
          "type": "bool",
          "internalType": "bool"
        }
      ],
      "stateMutability": "view"
    },
    {
      "type": "function",
      "name": "paused",
      "inputs": [],
      "outputs": [
        {
          "name": "",
          "type": "bool",
          "internalType": "bool"
        }
      ],
      "stateMutability": "view"
    },
    {
      "type": "function",
      "name": "preMintedGemsAvailable",
      "inputs": [],
      "outputs": [
        {
          "name": "GemsAvailable",
          "type": "uint256[]",
          "internalType": "uint256[]"
        }
      ],
      "stateMutability": "view"
    },
    {
      "type": "function",
      "name": "proxyImplementation",
      "inputs": [
        {
          "name": "",
          "type": "uint256",
          "internalType": "uint256"
        }
      ],
      "outputs": [
        {
          "name": "",
          "type": "address",
          "internalType": "address"
        }
      ],
      "stateMutability": "view"
    },
    {
      "type": "function",
      "name": "rawFulfillRandomWords",
      "inputs": [
        {
          "name": "round",
          "type": "uint256",
          "internalType": "uint256"
        },
        {
          "name": "hashedOmegaVal",
          "type": "uint256",
          "internalType": "uint256"
        }
      ],
      "outputs": [],
      "stateMutability": "nonpayable"
    },
    {
      "type": "function",
      "name": "removeAdmin",
      "inputs": [
        {
          "name": "account",
          "type": "address",
          "internalType": "address"
        }
      ],
      "outputs": [],
      "stateMutability": "nonpayable"
    },
    {
      "type": "function",
      "name": "removeMinter",
      "inputs": [
        {
          "name": "account",
          "type": "address",
          "internalType": "address"
        }
      ],
      "outputs": [],
      "stateMutability": "nonpayable"
    },
    {
      "type": "function",
      "name": "renounceMinter",
      "inputs": [],
      "outputs": [],
      "stateMutability": "nonpayable"
    },
    {
      "type": "function",
      "name": "renounceOwnership",
      "inputs": [],
      "outputs": [],
      "stateMutability": "nonpayable"
    },
    {
      "type": "function",
      "name": "renounceRole",
      "inputs": [
        {
          "name": "role",
          "type": "bytes32",
          "internalType": "bytes32"
        },
        {
          "name": "callerConfirmation",
          "type": "address",
          "internalType": "address"
        }
      ],
      "outputs": [],
      "stateMutability": "nonpayable"
    },
    {
      "type": "function",
      "name": "requestCount",
      "inputs": [],
      "outputs": [
        {
          "name": "",
          "type": "uint256",
          "internalType": "uint256"
        }
      ],
      "stateMutability": "view"
    },
    {
      "type": "function",
      "name": "requestIds",
      "inputs": [
        {
          "name": "",
          "type": "uint256",
          "internalType": "uint256"
        }
      ],
      "outputs": [
        {
          "name": "",
          "type": "uint256",
          "internalType": "uint256"
        }
      ],
      "stateMutability": "view"
    },
    {
      "type": "function",
      "name": "revokeMinter",
      "inputs": [
        {
          "name": "account",
          "type": "address",
          "internalType": "address"
        }
      ],
      "outputs": [],
      "stateMutability": "nonpayable"
    },
    {
      "type": "function",
      "name": "revokeRole",
      "inputs": [
        {
          "name": "role",
          "type": "bytes32",
          "internalType": "bytes32"
        },
        {
          "name": "account",
          "type": "address",
          "internalType": "address"
        }
      ],
      "outputs": [],
      "stateMutability": "nonpayable"
    },
    {
      "type": "function",
      "name": "s_requests",
      "inputs": [
        {
          "name": "",
          "type": "uint256",
          "internalType": "uint256"
        }
      ],
      "outputs": [
        {
          "name": "requested",
          "type": "bool",
          "internalType": "bool"
        },
        {
          "name": "fulfilled",
          "type": "bool",
          "internalType": "bool"
        },
        {
          "name": "randomWord",
          "type": "uint256",
          "internalType": "uint256"
        },
        {
          "name": "chosenTokenId",
          "type": "uint256",
          "internalType": "uint256"
        },
        {
          "name": "requester",
          "type": "address",
          "internalType": "address"
        }
      ],
      "stateMutability": "view"
    },
    {
      "type": "function",
      "name": "safeTransferFrom",
      "inputs": [
        {
          "name": "from",
          "type": "address",
          "internalType": "address"
        },
        {
          "name": "to",
          "type": "address",
          "internalType": "address"
        },
        {
          "name": "tokenId",
          "type": "uint256",
          "internalType": "uint256"
        }
      ],
      "outputs": [],
      "stateMutability": "nonpayable"
    },
    {
      "type": "function",
      "name": "safeTransferFrom",
      "inputs": [
        {
          "name": "from",
          "type": "address",
          "internalType": "address"
        },
        {
          "name": "to",
          "type": "address",
          "internalType": "address"
        },
        {
          "name": "tokenId",
          "type": "uint256",
          "internalType": "uint256"
        },
        {
          "name": "data",
          "type": "bytes",
          "internalType": "bytes"
        }
      ],
      "outputs": [],
      "stateMutability": "nonpayable"
    },
    {
      "type": "function",
      "name": "selectorImplementation",
      "inputs": [
        {
          "name": "",
          "type": "bytes4",
          "internalType": "bytes4"
        }
      ],
      "outputs": [
        {
          "name": "",
          "type": "address",
          "internalType": "address"
        }
      ],
      "stateMutability": "view"
    },
    {
      "type": "function",
      "name": "setApprovalForAll",
      "inputs": [
        {
          "name": "operator",
          "type": "address",
          "internalType": "address"
        },
        {
          "name": "approved",
          "type": "bool",
          "internalType": "bool"
        }
      ],
      "outputs": [],
      "stateMutability": "nonpayable"
    },
    {
      "type": "function",
      "name": "setApprovalForMarketplace",
      "inputs": [],
      "outputs": [],
      "stateMutability": "nonpayable"
    },
    {
      "type": "function",
      "name": "setGemsCooldownPeriods",
      "inputs": [
        {
          "name": "_CommonGemsCooldownPeriod",
          "type": "uint256",
          "internalType": "uint256"
        },
        {
          "name": "_RareGemsCooldownPeriod",
          "type": "uint256",
          "internalType": "uint256"
        },
        {
          "name": "_UniqueGemsCooldownPeriod",
          "type": "uint256",
          "internalType": "uint256"
        },
        {
          "name": "_EpicGemsCooldownPeriod",
          "type": "uint256",
          "internalType": "uint256"
        },
        {
          "name": "_LegendaryGemsCooldownPeriod",
          "type": "uint256",
          "internalType": "uint256"
        },
        {
          "name": "_MythicGemsCooldownPeriod",
          "type": "uint256",
          "internalType": "uint256"
        }
      ],
      "outputs": [],
      "stateMutability": "nonpayable"
    },
    {
      "type": "function",
      "name": "setGemsMiningPeriods",
      "inputs": [
        {
          "name": "_CommonGemsMiningPeriod",
          "type": "uint256",
          "internalType": "uint256"
        },
        {
          "name": "_RareGemsMiningPeriod",
          "type": "uint256",
          "internalType": "uint256"
        },
        {
          "name": "_UniqueGemsMiningPeriod",
          "type": "uint256",
          "internalType": "uint256"
        },
        {
          "name": "_EpicGemsMiningPeriod",
          "type": "uint256",
          "internalType": "uint256"
        },
        {
          "name": "_LegendaryGemsMiningPeriod",
          "type": "uint256",
          "internalType": "uint256"
        },
        {
          "name": "_MythicGemsMiningPeriod",
          "type": "uint256",
          "internalType": "uint256"
        }
      ],
      "outputs": [],
      "stateMutability": "nonpayable"
    },
    {
      "type": "function",
      "name": "setIsLocked",
      "inputs": [
        {
          "name": "_tokenId",
          "type": "uint256",
          "internalType": "uint256"
        },
        {
          "name": "_isLocked",
          "type": "bool",
          "internalType": "bool"
        }
      ],
      "outputs": [],
      "stateMutability": "nonpayable"
    },
    {
      "type": "function",
      "name": "setMarketPlaceAddress",
      "inputs": [
        {
          "name": "_marketplace",
          "type": "address",
          "internalType": "address"
        }
      ],
      "outputs": [],
      "stateMutability": "nonpayable"
    },
    {
      "type": "function",
      "name": "setNumberOfSolidColors",
      "inputs": [
        {
          "name": "_numberOfSolidColors",
          "type": "uint8",
          "internalType": "uint8"
        }
      ],
      "outputs": [],
      "stateMutability": "nonpayable"
    },
    {
      "type": "function",
      "name": "startMiningGEM",
      "inputs": [
        {
          "name": "_tokenId",
          "type": "uint256",
          "internalType": "uint256"
        }
      ],
      "outputs": [
        {
          "name": "",
          "type": "bool",
          "internalType": "bool"
        }
      ],
      "stateMutability": "payable"
    },
    {
      "type": "function",
      "name": "supportsInterface",
      "inputs": [
        {
          "name": "interfaceId",
          "type": "bytes4",
          "internalType": "bytes4"
        }
      ],
      "outputs": [
        {
          "name": "",
          "type": "bool",
          "internalType": "bool"
        }
      ],
      "stateMutability": "view"
    },
    {
      "type": "function",
      "name": "symbol",
      "inputs": [],
      "outputs": [
        {
          "name": "",
          "type": "string",
          "internalType": "string"
        }
      ],
      "stateMutability": "view"
    },
    {
      "type": "function",
      "name": "tokenMiningByUser",
      "inputs": [
        {
          "name": "",
          "type": "address",
          "internalType": "address"
        }
      ],
      "outputs": [
        {
          "name": "",
          "type": "uint256",
          "internalType": "uint256"
        }
      ],
      "stateMutability": "view"
    },
    {
      "type": "function",
      "name": "tokenReadyToMine",
      "inputs": [
        {
          "name": "",
          "type": "uint256",
          "internalType": "uint256"
        }
      ],
      "outputs": [
        {
          "name": "",
          "type": "bool",
          "internalType": "bool"
        }
      ],
      "stateMutability": "view"
    },
    {
      "type": "function",
      "name": "tokenURI",
      "inputs": [
        {
          "name": "tokenId",
          "type": "uint256",
          "internalType": "uint256"
        }
      ],
      "outputs": [
        {
          "name": "",
          "type": "string",
          "internalType": "string"
        }
      ],
      "stateMutability": "view"
    },
    {
      "type": "function",
      "name": "tokensOfOwner",
      "inputs": [
        {
          "name": "_owner",
          "type": "address",
          "internalType": "address"
        }
      ],
      "outputs": [
        {
          "name": "ownerTokens",
          "type": "uint256[]",
          "internalType": "uint256[]"
        }
      ],
      "stateMutability": "view"
    },
    {
      "type": "function",
      "name": "ton",
      "inputs": [],
      "outputs": [
        {
          "name": "",
          "type": "address",
          "internalType": "address"
        }
      ],
      "stateMutability": "view"
    },
    {
      "type": "function",
      "name": "totalSupply",
      "inputs": [],
      "outputs": [
        {
          "name": "",
          "type": "uint256",
          "internalType": "uint256"
        }
      ],
      "stateMutability": "view"
    },
    {
      "type": "function",
      "name": "transferAdmin",
      "inputs": [
        {
          "name": "newAdmin",
          "type": "address",
          "internalType": "address"
        }
      ],
      "outputs": [],
      "stateMutability": "nonpayable"
    },
    {
      "type": "function",
      "name": "transferFrom",
      "inputs": [
        {
          "name": "from",
          "type": "address",
          "internalType": "address"
        },
        {
          "name": "to",
          "type": "address",
          "internalType": "address"
        },
        {
          "name": "tokenId",
          "type": "uint256",
          "internalType": "uint256"
        }
      ],
      "outputs": [],
      "stateMutability": "nonpayable"
    },
    {
      "type": "function",
      "name": "transferGEM",
      "inputs": [
        {
          "name": "_to",
          "type": "address",
          "internalType": "address"
        },
        {
          "name": "_tokenId",
          "type": "uint256",
          "internalType": "uint256"
        }
      ],
      "outputs": [],
      "stateMutability": "nonpayable"
    },
    {
      "type": "function",
      "name": "transferGEMFrom",
      "inputs": [
        {
          "name": "_from",
          "type": "address",
          "internalType": "address"
        },
        {
          "name": "_to",
          "type": "address",
          "internalType": "address"
        },
        {
          "name": "_tokenId",
          "type": "uint256",
          "internalType": "uint256"
        }
      ],
      "outputs": [],
      "stateMutability": "nonpayable"
    },
    {
      "type": "function",
      "name": "transferOwnership",
      "inputs": [
        {
          "name": "newAdmin",
          "type": "address",
          "internalType": "address"
        }
      ],
      "outputs": [],
      "stateMutability": "nonpayable"
    },
    {
      "type": "function",
      "name": "treasury",
      "inputs": [],
      "outputs": [
        {
          "name": "",
          "type": "address",
          "internalType": "address"
        }
      ],
      "stateMutability": "view"
    },
    {
      "type": "function",
      "name": "unpause",
      "inputs": [],
      "outputs": [],
      "stateMutability": "nonpayable"
    },
    {
      "type": "function",
      "name": "userMiningStartTime",
      "inputs": [
        {
          "name": "",
          "type": "address",
          "internalType": "address"
        },
        {
          "name": "",
          "type": "uint256",
          "internalType": "uint256"
        }
      ],
      "outputs": [
        {
          "name": "",
          "type": "uint256",
          "internalType": "uint256"
        }
      ],
      "stateMutability": "view"
    },
    {
      "type": "function",
      "name": "userMiningToken",
      "inputs": [
        {
          "name": "",
          "type": "address",
          "internalType": "address"
        },
        {
          "name": "",
          "type": "uint256",
          "internalType": "uint256"
        }
      ],
      "outputs": [
        {
          "name": "",
          "type": "bool",
          "internalType": "bool"
        }
      ],
      "stateMutability": "view"
    },
    {
      "type": "function",
      "name": "wston",
      "inputs": [],
      "outputs": [
        {
          "name": "",
          "type": "address",
          "internalType": "address"
        }
      ],
      "stateMutability": "view"
    },
    {
      "type": "event",
      "name": "Approval",
      "inputs": [
        {
          "name": "owner",
          "type": "address",
          "indexed": true,
          "internalType": "address"
        },
        {
          "name": "approved",
          "type": "address",
          "indexed": true,
          "internalType": "address"
        },
        {
          "name": "tokenId",
          "type": "uint256",
          "indexed": true,
          "internalType": "uint256"
        }
      ],
      "anonymous": false
    },
    {
      "type": "event",
      "name": "ApprovalForAll",
      "inputs": [
        {
          "name": "owner",
          "type": "address",
          "indexed": true,
          "internalType": "address"
        },
        {
          "name": "operator",
          "type": "address",
          "indexed": true,
          "internalType": "address"
        },
        {
          "name": "approved",
          "type": "bool",
          "indexed": false,
          "internalType": "bool"
        }
      ],
      "anonymous": false
    },
    {
      "type": "event",
      "name": "BackgroundColorAdded",
      "inputs": [
        {
          "name": "id",
          "type": "uint8",
          "indexed": true,
          "internalType": "uint8"
        },
        {
          "name": "backgroundColor",
          "type": "string",
          "indexed": false,
          "internalType": "string"
        }
      ],
      "anonymous": false
    },
    {
      "type": "event",
      "name": "BatchMetadataUpdate",
      "inputs": [
        {
          "name": "_fromTokenId",
          "type": "uint256",
          "indexed": false,
          "internalType": "uint256"
        },
        {
          "name": "_toTokenId",
          "type": "uint256",
          "indexed": false,
          "internalType": "uint256"
        }
      ],
      "anonymous": false
    },
    {
      "type": "event",
      "name": "ColorAdded",
      "inputs": [
        {
          "name": "id",
          "type": "uint8",
          "indexed": true,
          "internalType": "uint8"
        },
        {
          "name": "color",
          "type": "string",
          "indexed": false,
          "internalType": "string"
        }
      ],
      "anonymous": false
    },
    {
      "type": "event",
      "name": "Created",
      "inputs": [
        {
          "name": "tokenId",
          "type": "uint256",
          "indexed": true,
          "internalType": "uint256"
        },
        {
          "name": "rarity",
          "type": "uint8",
          "indexed": false,
          "internalType": "enum GemFactoryStorage.Rarity"
        },
        {
          "name": "color",
          "type": "uint8[2]",
          "indexed": false,
          "internalType": "uint8[2]"
        },
        {
          "name": "value",
          "type": "uint256",
          "indexed": false,
          "internalType": "uint256"
        },
        {
          "name": "quadrants",
          "type": "uint8[4]",
          "indexed": false,
          "internalType": "uint8[4]"
        },
        {
          "name": "miningPeriod",
          "type": "uint256",
          "indexed": false,
          "internalType": "uint256"
        },
        {
          "name": "cooldownPeriod",
          "type": "uint256",
          "indexed": false,
          "internalType": "uint256"
        },
        {
          "name": "tokenURI",
          "type": "string",
          "indexed": false,
          "internalType": "string"
        },
        {
          "name": "owner",
          "type": "address",
          "indexed": false,
          "internalType": "address"
        }
      ],
      "anonymous": false
    },
    {
      "type": "event",
      "name": "GemForged",
      "inputs": [
        {
          "name": "GemsTokenIds",
          "type": "uint256[]",
          "indexed": false,
          "internalType": "uint256[]"
        },
        {
          "name": "newGemCreatedId",
          "type": "uint256",
          "indexed": false,
          "internalType": "uint256"
        }
      ],
      "anonymous": false
    },
    {
      "type": "event",
      "name": "GemMelted",
      "inputs": [
        {
          "name": "_tokenId",
          "type": "uint256",
          "indexed": false,
          "internalType": "uint256"
        },
        {
          "name": "_from",
          "type": "address",
          "indexed": false,
          "internalType": "address"
        }
      ],
      "anonymous": false
    },
    {
      "type": "event",
      "name": "GemMiningClaimed",
      "inputs": [
        {
          "name": "tokenId",
          "type": "uint256",
          "indexed": false,
          "internalType": "uint256"
        },
        {
          "name": "miner",
          "type": "address",
          "indexed": false,
          "internalType": "address"
        }
      ],
      "anonymous": false
    },
    {
      "type": "event",
      "name": "GemMiningStarted",
      "inputs": [
        {
          "name": "tokenId",
          "type": "uint256",
          "indexed": false,
          "internalType": "uint256"
        },
        {
          "name": "miner",
          "type": "address",
          "indexed": false,
          "internalType": "address"
        },
        {
          "name": "startMiningTime",
          "type": "uint256",
          "indexed": false,
          "internalType": "uint256"
        }
      ],
      "anonymous": false
    },
    {
      "type": "event",
      "name": "MetadataUpdate",
      "inputs": [
        {
          "name": "_tokenId",
          "type": "uint256",
          "indexed": false,
          "internalType": "uint256"
        }
      ],
      "anonymous": false
    },
    {
      "type": "event",
      "name": "Paused",
      "inputs": [
        {
          "name": "account",
          "type": "address",
          "indexed": false,
          "internalType": "address"
        }
      ],
      "anonymous": false
    },
    {
      "type": "event",
      "name": "RoleAdminChanged",
      "inputs": [
        {
          "name": "role",
          "type": "bytes32",
          "indexed": true,
          "internalType": "bytes32"
        },
        {
          "name": "previousAdminRole",
          "type": "bytes32",
          "indexed": true,
          "internalType": "bytes32"
        },
        {
          "name": "newAdminRole",
          "type": "bytes32",
          "indexed": true,
          "internalType": "bytes32"
        }
      ],
      "anonymous": false
    },
    {
      "type": "event",
      "name": "RoleGranted",
      "inputs": [
        {
          "name": "role",
          "type": "bytes32",
          "indexed": true,
          "internalType": "bytes32"
        },
        {
          "name": "account",
          "type": "address",
          "indexed": true,
          "internalType": "address"
        },
        {
          "name": "sender",
          "type": "address",
          "indexed": true,
          "internalType": "address"
        }
      ],
      "anonymous": false
    },
    {
      "type": "event",
      "name": "RoleRevoked",
      "inputs": [
        {
          "name": "role",
          "type": "bytes32",
          "indexed": true,
          "internalType": "bytes32"
        },
        {
          "name": "account",
          "type": "address",
          "indexed": true,
          "internalType": "address"
        },
        {
          "name": "sender",
          "type": "address",
          "indexed": true,
          "internalType": "address"
        }
      ],
      "anonymous": false
    },
    {
      "type": "event",
      "name": "Transfer",
      "inputs": [
        {
          "name": "from",
          "type": "address",
          "indexed": true,
          "internalType": "address"
        },
        {
          "name": "to",
          "type": "address",
          "indexed": true,
          "internalType": "address"
        },
        {
          "name": "tokenId",
          "type": "uint256",
          "indexed": true,
          "internalType": "uint256"
        }
      ],
      "anonymous": false
    },
    {
      "type": "event",
      "name": "TransferGEM",
      "inputs": [
        {
          "name": "from",
          "type": "address",
          "indexed": false,
          "internalType": "address"
        },
        {
          "name": "to",
          "type": "address",
          "indexed": false,
          "internalType": "address"
        },
        {
          "name": "tokenId",
          "type": "uint256",
          "indexed": false,
          "internalType": "uint256"
        }
      ],
      "anonymous": false
    },
    {
      "type": "event",
      "name": "Unpaused",
      "inputs": [
        {
          "name": "account",
          "type": "address",
          "indexed": false,
          "internalType": "address"
        }
      ],
      "anonymous": false
    },
    {
      "type": "error",
      "name": "AccessControlBadConfirmation",
      "inputs": []
    },
    {
      "type": "error",
      "name": "AccessControlUnauthorizedAccount",
      "inputs": [
        {
          "name": "account",
          "type": "address",
          "internalType": "address"
        },
        {
          "name": "neededRole",
          "type": "bytes32",
          "internalType": "bytes32"
        }
      ]
    },
    {
      "type": "error",
      "name": "ERC721IncorrectOwner",
      "inputs": [
        {
          "name": "sender",
          "type": "address",
          "internalType": "address"
        },
        {
          "name": "tokenId",
          "type": "uint256",
          "internalType": "uint256"
        },
        {
          "name": "owner",
          "type": "address",
          "internalType": "address"
        }
      ]
    },
    {
      "type": "error",
      "name": "ERC721InsufficientApproval",
      "inputs": [
        {
          "name": "operator",
          "type": "address",
          "internalType": "address"
        },
        {
          "name": "tokenId",
          "type": "uint256",
          "internalType": "uint256"
        }
      ]
    },
    {
      "type": "error",
      "name": "ERC721InvalidApprover",
      "inputs": [
        {
          "name": "approver",
          "type": "address",
          "internalType": "address"
        }
      ]
    },
    {
      "type": "error",
      "name": "ERC721InvalidOperator",
      "inputs": [
        {
          "name": "operator",
          "type": "address",
          "internalType": "address"
        }
      ]
    },
    {
      "type": "error",
      "name": "ERC721InvalidOwner",
      "inputs": [
        {
          "name": "owner",
          "type": "address",
          "internalType": "address"
        }
      ]
    },
    {
      "type": "error",
      "name": "ERC721InvalidReceiver",
      "inputs": [
        {
          "name": "receiver",
          "type": "address",
          "internalType": "address"
        }
      ]
    },
    {
      "type": "error",
      "name": "ERC721InvalidSender",
      "inputs": [
        {
          "name": "sender",
          "type": "address",
          "internalType": "address"
        }
      ]
    },
    {
      "type": "error",
      "name": "ERC721NonexistentToken",
      "inputs": [
        {
          "name": "tokenId",
          "type": "uint256",
          "internalType": "uint256"
        }
      ]
    },
    {
      "type": "error",
      "name": "OnlyCoordinatorCanFulfill",
      "inputs": [
        {
          "name": "have",
          "type": "address",
          "internalType": "address"
        },
        {
          "name": "want",
          "type": "address",
          "internalType": "address"
        }
      ]
    }
  ],
  "bytecode": {
    "object": "0x60a06040523462000047576200001e62000018620000ea565b620001b2565b604051619057620005598239608051818181615e420152818161790e0152617b9d015261905790f35b600080fd5b634e487b7160e01b600052604160045260246000fd5b90601f01601f191681019081106001600160401b038211176200008457604052565b6200004c565b90620000a16200009960405190565b928362000062565b565b6001600160a01b031690565b90565b6001600160a01b038116036200004757565b90505190620000a182620000b2565b906020828203126200004757620000af91620000c4565b620000af620095b08038038062000101816200008a565b928339810190620000d3565b6001600160401b0381116200008457602090601f01601f19160190565b90620001406200013a836200010d565b6200008a565b918252565b62000151600a6200012a565b69546f6b616d616b47454d60b01b602082015290565b620000af62000145565b6200017d60036200012a565b6247454d60e81b602082015290565b620000af62000171565b620000af620000af620000af9290565b620000af600062000196565b620001d290620001c162000167565b620001cb6200018c565b9162000217565b620001e8620001e0620001a6565b339062000493565b50565b620000af90620000a3906001600160a01b031682565b620000af90620001eb565b620000af9062000201565b906200022e92620002289162000233565b6200020c565b608052565b620000a19182918291829182919062000438565b634e487b7160e01b600052602260045260246000fd5b906001600283049216801562000280575b60208310146200027a57565b62000247565b91607f16916200026e565b9160001960089290920291821b911b5b9181191691161790565b9190620002ba620000af620002c39362000196565b9083546200028b565b9055565b620000a191600091620002a5565b818110620002e1575050565b80620002f16000600193620002c7565b01620002d5565b9190601f81116200030857505050565b6200031c620000a193600052602060002090565b906020601f84018190048301931062000340575b6020601f909101040190620002d5565b909150819062000330565b9062000355815190565b906001600160401b03821162000084576200037d826200037685546200025d565b85620002f8565b602090601f8311600114620003bc57620002c3929160009183620003b0575b5050600019600883021c1916906002021790565b0151905038806200039c565b601f19831691620003d285600052602060002090565b9260005b8181106200041357509160029391856001969410620003f9575b50505002019055565b01516000196008601f8516021c19169055388080620003f0565b91936020600181928787015181550195019201620003d6565b90620000a1916200034b565b906200044a620000a19260006200042c565b60016200042c565b905b600052602052604060002090565b9062000454906200020c565b9060ff906200029b565b906200048b620000af620002c392151590565b82546200046e565b620004a7620004a383836200052f565b1590565b156200052857620004d46001620004ce846000620004c786603c62000452565b0162000462565b62000478565b620004f3620004ec620004e5339390565b936200020c565b916200020c565b917f2f8788117e7eff1d82e926ec794901d17c78024a50270940304540a733656f0d6200051f60405190565b600090a4600190565b5050600090565b620000af916000620004c7620005519362000548600090565b50603c62000452565b5460ff169056fe6080604052600436101561001257600080fd5b60003560e01c806301ffc9a7146107c2578063034294f8146107bd578063038a7e05146107b85780630491fd3e146107b357806304e41a0b146107ae57806306fdde03146107a9578063081812fc146107a45780630922f5131461079f578063095ea7b31461079a5780630c7254a0146107955780630de32a97146107905780630ff1ac671461078b578063119868bb14610786578063139b63f31461078157806315341f2b1461077c5780631785f53c1461077757806318160ddd146107725780631885cbbe1461076d57806318898f36146107685780631d0e0aac146107635780631da0fc9c1461075e578063205fb1f81461075957806323b872dd14610754578063248a9ca31461074f57806324d7806c1461074a578063276a28a3146107455780632bbbe94d146107405780632f2ff15d1461073b5780633092afd5146107365780633189983f14610731578063331580581461072c578063337d54a11461072757806333d608f11461072257806333fcb6481461071d57806336568abe1461071857806336b17e131461071357806337ed11db1461070e578063384c252f14610709578063389ed267146107045780633b19e84a146106ff5780633f4ba83a146106fa5780633fb310a5146106f557806342842e0e146106f05780634d723a75146106eb5780634f557d27146106e657806350d2a276146106e1578063550d01a3146106dc57806358bf3e65146106d75780635badbe4c146106d25780635bbffab6146106cd5780635c975abb146106c857806361d027b3146106c357806361f7f6d7146106be578063629296c5146106b95780636352211e146106b457806363a8fd89146106af578063676f79f1146106aa5780636b1a96fa146106a557806370480275146106a057806370a082311461069b578063715018a614610696578063724188bc1461069157806375829def1461068c57806377f7e499146106875780637866369b146106825780637fe6fde51461067d5780638456cb59146106785780638462151c146106735780638796ba8c1461066e5780638ba24af0146106695780638f32d59b146106645780638fddb0651461065f57806391490c4b1461065a57806391d148541461065557806395d89b411461065057806397125c401461064b578063975781b714610646578063983b2d5614610641578063986502751461063c5780639a66af6214610637578063a0b2d41b14610632578063a168fa891461062d578063a1770a7d14610628578063a217fddf14610623578063a22cb4651461061e578063a8ce886e14610619578063aa271e1a14610614578063aa723bb71461060f578063abc8c7af1461060a578063ad0d3d3f14610605578063adf8627e14610600578063aff2a463146105fb578063b211d958146105f6578063b78417b0146105f1578063b88d4fde146105ec578063b911135f146105e7578063bd11f69d146105e2578063bd81009f146105dd578063c1389072146105d8578063c28fb6b7146105d3578063c4d2fcae146105ce578063c87b56dd146105c9578063cc48b947146105c4578063cc98ef96146105bf578063ce8ab5df146105ba578063cec21acb146105b5578063cfbd4885146105b0578063d11a57ec146105ab578063d547741f146105a6578063d6bb7ba0146105a1578063d7a464951461059c578063dffdae0214610597578063e4b7fddf14610592578063e7a523c01461058d578063e985e9c514610588578063ecc5e06f14610583578063efa2cc291461057e578063f2fde38b14610579578063f5494bb914610574578063f66f9e341461056f578063f99a6bb51461056a578063fc2a88c3146105655763fed7b27a036107c757612795565b61277a565b612756565b61273b565b612714565b6126cf565b6126b4565b61268d565b612661565b61262a565b61260f565b6125e8565b6125c1565b61259c565b612583565b61255c565b612544565b612529565b6124fe565b6124da565b6124bf565b612498565b61247d565b612456565b61243b565b612410565b6123f5565b6123c2565b612396565b61232c565b612305565b6122de565b6122c3565b612298565b61227d565b61224a565b6120fe565b6120e3565b6120ac565b612075565b612047565b612002565b611f33565b611f0f565b611ef7565b611edf565b611ec0565b611e55565b611e2a565b611e0e565b611df3565b611dcc565b611da5565b611d8a565b611d6f565b611d1c565b611d04565b611ce9565b611cce565b611ca3565b611c7f565b611c64565b611c40565b611c25565b611c0d565b611bf2565b611b67565b611b2e565b611b07565b611aec565b611ab5565b61181d565b6117f6565b6117cf565b6117a8565b611781565b61175a565b61172f565b6116e7565b6116c2565b611671565b611656565b611632565b611617565b6115de565b6115c3565b61159a565b611563565b61153e565b611522565b611446565b611403565b6113e7565b6113bc565b6112cb565b6112b2565b611274565b611259565b61123e565b611223565b61120a565b6111c6565b61116b565b611153565b611138565b611111565b6110ea565b6110d2565b6110a6565b611066565b61103f565b610fbb565b610b25565b610afa565b610a8e565b610a34565b6109f3565b610998565b610911565b6108e8565b6108bd565b61086c565b610809565b600080fd5b6001600160e01b031981165b036107c757565b905035906107ec826107cc565b565b906020828203126107c757610802916107df565b90565b9052565b346107c75761083761082461081f3660046107ee565b6127b0565b6040515b91829182901515815260200190565b0390f35b60009103126107c757565b610802916008021c5b60ff1690565b906108029154610846565b61080260006009610855565b346107c75761087c36600461083b565b610837610887610860565b6040519182918260ff909116815260200190565b610802916008021c81565b90610802915461089b565b610802600060236108a6565b346107c7576108cd36600461083b565b6108376108d86108b1565b6040519182918290815260200190565b346107c7576108f836600461083b565b61090061282c565b604051005b610802600060286108a6565b346107c75761092136600461083b565b6108376108d8610905565b60005b83811061093f5750506000910152565b818101518382015260200161092f565b61097061097960209361098393610964815190565b80835293849260200190565b9586910161092c565b601f01601f191690565b0190565b60208082526108029291019061094f565b346107c7576109a836600461083b565b6108376109b361283d565b6040515b91829182610987565b806107d8565b905035906107ec826109c0565b906020828203126107c757610802916109c6565b6001600160a01b031690565b346107c757610837610a0e610a093660046109d3565b612847565b604051918291826001600160a01b03909116815260200190565b6108026000600c610855565b346107c757610a4436600461083b565b610837610887610a28565b6001600160a01b0381166107d8565b905035906107ec82610a4f565b91906040838203126107c757610802906020610a878286610a5e565b94016109c6565b346107c757610900610aa1366004610a6b565b9061285a565b909160c0828403126107c757610abd83836109c6565b92610acb81602085016109c6565b92610ad982604083016109c6565b92610802610aea84606085016109c6565b9360a0610a8782608087016109c6565b346107c757610900610b0d366004610aa7565b94939093929192612949565b610802600060276108a6565b346107c757610b3536600461083b565b6108376108d8610b19565b634e487b7160e01b600052604160045260246000fd5b90601f01601f191681019081106001600160401b03821117610b7757604052565b610b40565b906107ec610b8960405190565b9283610b56565b6001600160401b038111610b775760208091020190565b600611156107c757565b905035906107ec82610ba7565b90929192610bd3610bce82610b90565b610b7c565b93818552602080860192028301928184116107c757915b838310610bf75750505050565b60208091610c058486610bb1565b815201920191610bea565b9080601f830112156107c75781602061080293359101610bbe565b6001600160401b038111610b775760200290565b60ff81166107d8565b905035906107ec82610c3f565b90929192610c65610bce82610c2b565b9360208592028301928184116107c757915b838310610c845750505050565b60208091610c928486610c48565b815201920191610c77565b9080601f830112156107c757600261080292610c55565b90929192610cc4610bce82610b90565b9381855260406020860192028301928184116107c757915b838310610ce95750505050565b6020604091610cf88486610c9d565b815201920191610cdc565b9080601f830112156107c75781602061080293359101610cb4565b90929192610d2e610bce82610c2b565b9360208592028301928184116107c757915b838310610d4d5750505050565b60208091610d5b8486610c48565b815201920191610d40565b9080601f830112156107c757600461080292610d1e565b90929192610d8d610bce82610b90565b9381855260806020860192028301928184116107c757915b838310610db25750505050565b6020608091610dc18486610d66565b815201920191610da5565b9080601f830112156107c75781602061080293359101610d7d565b6001600160401b038111610b7757602090601f01601f19160190565b90826000939282370152565b90929192610e1f610bce82610de7565b93818552818301116107c7576107ec916020850190610e03565b9080601f830112156107c75781602061080293359101610e0f565b929190610e63610bce82610b90565b93818552602080860192028101918383116107c75781905b838210610e89575050505050565b81356001600160401b0381116107c757602091610ea98784938701610e39565b815201910190610e7b565b9080601f830112156107c75781602061080293359101610e54565b906080828203126107c75781356001600160401b0381116107c75781610ef6918401610c10565b9260208301356001600160401b0381116107c75782610f16918501610d03565b9260408101356001600160401b0381116107c75783610f36918301610dcc565b9260608201356001600160401b0381116107c7576108029201610eb4565b90610f74610f6d610f63845190565b8084529260200190565b9260200190565b9060005b818110610f855750505090565b909192610fa2610f9b6001928651815260200190565b9460200190565b929101610f78565b602080825261080292910190610f54565b346107c757610837610fda610fd1366004610ecf565b92919091614235565b60405191829182610faa565b6108026108026108029290565b90610ffd90610fe6565b600052602052604060002090565b610802916008021c6001600160a01b031690565b90610802915461100b565b600061103a610802926012610ff3565b61101f565b346107c757610837610a0e6110553660046109d3565b61102a565b6108026000602b6108a6565b346107c75761107636600461083b565b6108376108d861105a565b906020828203126107c75781356001600160401b0381116107c7576108029201610e39565b346107c7576109006110b9366004611081565b61433a565b906020828203126107c75761080291610a5e565b346107c7576109006110e53660046110be565b614364565b346107c7576110fa36600461083b565b6108376108d861436d565b6108026000602e6108a6565b346107c75761112136600461083b565b6108376108d8611105565b610802600060226108a6565b346107c75761114836600461083b565b6108376108d861112c565b346107c757610900611166366004611081565b614404565b61083761082461117c3660046109d3565b614aa7565b610802906109e7906001600160a01b031682565b61080290611181565b61080290611195565b90610ffd9061119e565b60006111c16108029260136111a7565b610855565b346107c7576108376108246111dc3660046110be565b6111b1565b90916060828403126107c7576108026111fa8484610a5e565b936040610a878260208701610a5e565b346107c75761090061121d3660046111e1565b91614ad9565b346107c7576108376108d86112393660046109d3565b614b82565b346107c7576108376108246112543660046110be565b614ba1565b346107c75761083761082461126f3660046109d3565b614bb2565b346107c75761128436600461083b565b610837610a0e614bcb565b91906040838203126107c7576108029060206112ab82866109c6565b9401610a5e565b346107c7576109006112c536600461128f565b90614bf8565b346107c7576109006112de3660046110be565b614c2a565b90916101e0828403126107c7576112fa8383610a5e565b926113088160208501610a5e565b926113168260408301610a5e565b9261132483606084016109c6565b9261133281608085016109c6565b926113408260a083016109c6565b9261134e8360c084016109c6565b9261135c8160e085016109c6565b9261136b8261010083016109c6565b9261137a8361012084016109c6565b926113898161014085016109c6565b926113988261016083016109c6565b926108026113aa8461018085016109c6565b936101c0610a87826101a087016109c6565b346107c7576109006113cf3660046112e3565b9d9c909c9b919b9a929a999399989498979597614e2b565b346107c7576108376108246113fd366004610a6b565b90614f85565b346107c757610900611416366004610a6b565b906150cd565b6114296108026108029290565b63ffffffff1690565b6108026203345061141c565b610802611432565b346107c75761145636600461083b565b61083761146161143e565b6040519182918263ffffffff909116815260200190565b90929192611488610bce82610b90565b93818552602080860192028301928184116107c757915b8383106114ac5750505050565b602080916114ba84866109c6565b81520192019161149f565b9080601f830112156107c75781602061080293359101611478565b90916080828403126107c75781356001600160401b0381116107c75761150b846108029285016114c5565b93604061151b8260208701610bb1565b9401610c9d565b346107c7576108376108d86115383660046114e0565b91615ddb565b346107c75761090061155136600461128f565b90615de8565b6108026001603561101f565b346107c75761157336600461083b565b610837610a0e611557565b91906040838203126107c757610802906020610a8782866109c6565b346107c7576109006115ad36600461157e565b90615e3b565b600061103a610802926011610ff3565b346107c757610837610a0e6115d93660046109d3565b6115b3565b346107c7576115ee36600461083b565b6108377ffcb9fcbfa83b897fb2d5cf4b58962164105c1e71489a37ef3ae0db3fdce576f66108d8565b346107c75761162736600461083b565b610837610a0e615ea6565b346107c75761164236600461083b565b610900615f95565b610802600060256108a6565b346107c75761166636600461083b565b6108376108d861164a565b346107c7576109006116843660046111e1565b91615f9d565b8015156107d8565b905035906107ec8261168a565b91906040838203126107c7576108029060206116bb82866109c6565b9401611692565b346107c7576109006116d536600461169f565b90615fd7565b6108026000601a6108a6565b346107c7576116f736600461083b565b6108376108d86116db565b6001600160e01b03191690565b906001600160e01b031916610ffd565b600061103a61080292603b61170f565b346107c757610837610a0e6117453660046107ee565b61171f565b60006111c161080292603a6111a7565b346107c7576108376108246117703660046110be565b61174a565b610802600060206108a6565b346107c75761179136600461083b565b6108376108d8611775565b610802600060336108a6565b346107c7576117b836600461083b565b6108376108d861179c565b610802600060296108a6565b346107c7576117df36600461083b565b6108376108d86117c3565b61080260006019610855565b346107c75761180636600461083b565b6108376108246117ea565b6108026000603761101f565b346107c75761182d36600461083b565b610837610a0e611811565b634e487b7160e01b600052603260045260246000fd5b805482101561187157611868600a91600052602060002090565b91020190600090565b611838565b6108029081565b6108029054611876565b6108029061084f565b6108029054611887565b634e487b7160e01b600052602260045260246000fd5b90600160028304921680156118d0575b60208310146118cb57565b61189a565b91607f16916118c0565b805460009392916118f76118ed836118b0565b8085529360200190565b9160018116908115611949575060011461191057505050565b6119239192939450600052602060002090565b916000925b8184106119355750500190565b805484840152602090930192600101611928565b92949550505060ff1916825215156020020190565b90610802916118da565b906107ec6119829261197960405190565b9384809261195e565b0383610b56565b600790611994825490565b8110156107c7576119a49161184e565b50906119af8261187d565b916119bc60018201611890565b916119c96004830161187d565b916119d66005820161187d565b916119e360068301611890565b916119f06007820161187d565b916108026009611a0260088501611968565b930161187d565b634e487b7160e01b600052602160045260246000fd5b60061115611a2957565b611a09565b906107ec82611a1f565b61080290611a2e565b61080590611a38565b989795611a9c60e096611a93611ab09760608e611a8f611aa3989a6107ec9f9a611a8890611a7e61010086019e6000870152565b6020850190611a41565b6040830152565b0152565b151560808c0152565b60a08a0152565b87820360c089015261094f565b940152565b346107c757610837611ad0611acb3660046109d3565b611989565b94611ae398969894919493929360405190565b98899889611a4a565b346107c757611afc36600461083b565b6108376108d8615fe1565b346107c757610837610a0e611b1d3660046109d3565b615feb565b61080260146038610855565b346107c757611b3e36600461083b565b610837610824611b22565b611b6261080292611b5d60009360166111a7565b610ff3565b6108a6565b346107c7576108376108d8611b7d366004610a6b565b90611b49565b906020828203126107c75761080291610c48565b61084f6108026108029260ff1690565b90610ffd90611b97565b634e487b7160e01b600052600060045260246000fd5b90600010611bd85761080290611968565b611bb1565b6000611bed610802926008611ba7565b611bc7565b346107c7576108376109b3611c08366004611b83565b611bdd565b346107c757610900611c203660046110be565b616015565b346107c7576108376108d8611c3b3660046110be565b61601e565b346107c757611c5036600461083b565b61090061605b565b61080260006035610855565b346107c757611c7436600461083b565b610837610887611c58565b346107c757610900611c923660046110be565b616155565b6108026000602c6108a6565b346107c757611cb336600461083b565b6108376108d8611c97565b60006111c1610802926017610ff3565b346107c757610837610824611ce43660046109d3565b611cbe565b346107c757610837610824611cff3660046109d3565b616528565b346107c757611d1436600461083b565b6109006165ab565b346107c757610837610fda611d323660046110be565b6165b3565b805482101561187157611868600191600052602060002090565b6032548110156107c757611d69610802916032611d37565b906108a6565b346107c7576108376108d8611d853660046109d3565b611d51565b346107c757611d9a36600461083b565b6108376108d861667f565b346107c757611db536600461083b565b610837610824616689565b610802600060306108a6565b346107c757611ddc36600461083b565b6108376108d8611dc0565b6108026000601b6108a6565b346107c757611e0336600461083b565b6108376108d8611de7565b346107c757610837610824611e2436600461128f565b90616694565b346107c757611e3a36600461083b565b6108376109b36166af565b600061103a61080292600f610ff3565b346107c757610837610a0e611e6b3660046109d3565b611e45565b90610100828203126107c757611e868183610bb1565b92611e948260208501610c9d565b92611ea28360608301610d66565b9260e08201356001600160401b0381116107c7576108029201610e39565b346107c7576108376108d8611ed6366004611e70565b929190916171d6565b346107c757610900611ef23660046110be565b61720c565b346107c757611f0736600461083b565b610900617215565b346107c757610900611f22366004611b83565b617247565b610802600060246108a6565b346107c757611f4336600461083b565b6108376108d8611f27565b6108029060081c61084f565b6108029054611f4e565b610802906109e7565b6108029054611f64565b611f82906018610ff3565b611f8b81611890565b91611f9582611f5a565b91611fa26001820161187d565b916108026003611fb46002850161187d565b9301611f6d565b901515815260a0810195946107ec949093608093611ff39291611fec91611fe59015156020870152565b6040850152565b6060830152565b01906001600160a01b03169052565b346107c75761083761201d6120183660046109d3565b611f77565b9161202a95939560405190565b95869586611fbb565b6111c161080292611b5d60009360156111a7565b346107c75761083761082461205d366004610a6b565b90612033565b6108026000610fe6565b610802612063565b346107c75761208536600461083b565b6108376108d861206d565b91906040838203126107c7576108029060206116bb8286610a5e565b346107c7576109006120bf366004612090565b90617250565b600d548110156107c7576120dd61080291600d611d37565b90611bc7565b346107c7576108376109b36120f93660046109d3565b6120c5565b346107c7576108376108246121143660046110be565b61725b565b61212961212560049390565b9190565b6000915b83831061213a5750505050565b612150610f6d600192845160ff16815260200190565b9201919061212d565b61216561212560029390565b6000915b8383106121765750505050565b61218c610f6d600192845160ff16815260200190565b92019190612169565b8051825290610802906101a06101206122316101c084016121be60208801516020870190611a41565b6121d060408801516040870190612119565b6121e2606088015160c0870190612159565b6121f26080880151610100870152565b61220060a088015184870152565b60c0870151151561014086015261221d60e0880151610160870152565b61010087015185820361018087015261094f565b940151910152565b602080825261080292910190612195565b346107c7576108376122656122603660046109d3565b61748e565b60405191829182612239565b6108026000603861101f565b346107c75761228d36600461083b565b610837610a0e612271565b346107c7576109006122ab366004610aa7565b94939093929192617511565b6108026000601c6108a6565b346107c7576122d336600461083b565b6108376108d86122b7565b346107c7576108376109b36122f4366004611b83565b617561565b6108026000601f6108a6565b346107c75761231536600461083b565b6108376108d86122f9565b6108026000602d6108a6565b346107c75761233c36600461083b565b6108376108d8612320565b906080828203126107c75761235c8183610a5e565b9261236a8260208501610a5e565b9261237883604083016109c6565b9260608201356001600160401b0381116107c7576108029201610e39565b346107c7576109006123a9366004612347565b92919091617590565b600061103a610802926039610ff3565b346107c757610837610a0e6123d83660046109d3565b6123b2565b600a548110156107c7576120dd61080291600a611d37565b346107c7576108376109b361240b3660046109d3565b6123dd565b346107c757610837610a0e6124263660046109d3565b6175a7565b6000611b626108029260146111a7565b346107c7576108376108d86124513660046110be565b61242b565b346107c75761246636600461083b565b610837610fda6175d3565b610802600060266108a6565b346107c75761248d36600461083b565b6108376108d8612471565b346107c7576108376109b36124ae3660046109d3565b617644565b6108026000603661101f565b346107c7576124cf36600461083b565b610837610a0e6124b3565b346107c7576109006124ed3660046110be565b617679565b6108026000601d6108a6565b346107c75761250e36600461083b565b6108376108d86124f2565b6000611b626108029260106111a7565b346107c7576108376108d861253f3660046110be565b612519565b346107c7576109006125573660046110be565b6176aa565b346107c75761256c36600461083b565b6108376000805160206190028339815191526108d8565b346107c75761090061259636600461128f565b906176ce565b346107c7576109006125af3660046111e1565b91617882565b6108026000602a6108a6565b346107c7576125d136600461083b565b6108376108d86125b5565b6108026000601e6108a6565b346107c7576125f836600461083b565b6108376108d86125dc565b610802600060316108a6565b346107c75761261f36600461083b565b6108376108d8612603565b346107c75761263a36600461083b565b610837610a0e61788d565b91906040838203126107c7576108029060206112ab8286610a5e565b346107c757610837610824612677366004612645565b90617897565b6000611bed61080292600b611ba7565b346107c7576108376109b36126a3366004611b83565b61267d565b6108026000602f6108a6565b346107c7576126c436600461083b565b6108376108d86126a8565b346107c7576109006126e23660046110be565b6178d0565b63ffffffff81166107d8565b905035906107ec826126e7565b906020828203126107c757610802916126f3565b346107c7576108376108d861272a366004612700565b6178fa565b610802600060216108a6565b346107c75761274b36600461083b565b6108376108d861272f565b346107c7576109006127693660046109d3565b617ac0565b610802600060346108a6565b346107c75761278a36600461083b565b6108376108d861276e565b346107c7576127a536600461083b565b6108376108d8617ac9565b61080290617ad3565b156127c057565b60405162461bcd60e51b815260206004820152601060248201526f14185d5cd8589b194e881c185d5cd95960821b6044820152606490fd5b0390fd5b61281561281061280c6019611890565b1590565b6127b9565b6107ec6107ec60016128276038611f6d565b617250565b6107ec6127fc565b61080290611968565b6108026000612834565b6108029061285481617adc565b50617b2d565b6107ec913391617b44565b1561286c57565b60405162461bcd60e51b815260206004820152602360248201527f41757468436f6e74726f6c3a2043616c6c6572206973206e6f7420616e20616460448201526236b4b760e91b6064820152608490fd5b906107ec95949392916128d76128d233614ba1565b612865565b612907565b90600019905b9181191691161790565b906128fc61080261290392610fe6565b82546128dc565b9055565b926129346107ec96959361292d61293b946129266129429860266128ec565b60276128ec565b60286128ec565b60296128ec565b602a6128ec565b602b6128ec565b906107ec95949392916128bd565b1561295e57565b60405162461bcd60e51b815260206004820152602d60248201527f66756e6374696f6e2063616c6c61626c652066726f6d2074726561737572792060448201526c636f6e7472616374206f6e6c7960981b6064820152608490fd5b90610802949392916129d86129d16109e76037611f6d565b3314612957565b90610802949392916129f061281061280c6019611890565b613564565b156129fc57565b60405162461bcd60e51b815260206004820152602660248201527f496e70757420617272617973206d7573742068617665207468652073616d65206044820152650d8cadccee8d60d31b6064820152608490fd5b90612a5d610bce83610b90565b918252565b369037565b906107ec612a7d612a7784612a50565b93610b90565b601f190160208401612a62565b90612a93825190565b811015611871576020809102010190565b9060045b811015611871576020020190565b634e487b7160e01b600052601160045260246000fd5b612adb9060ff165b9160ff1690565b019060ff8211612ae757565b612ab6565b6108029051611a2e565b61084f6108026108029290565b15612b0a57565b60405162461bcd60e51b815260206004820152602e60248201527f416c6c207175616472616e7473206d7573742062652031206f72203220666f7260448201526d20434f4d4d4f4e2072617269747960901b6064820152608490fd5b15612b6d57565b60405162461bcd60e51b815260206004820152601760248201527f323232322069732052415245206e6f7420434f4d4d4f4e0000000000000000006044820152606490fd5b15612bb957565b60405162461bcd60e51b815260206004820152602c60248201527f416c6c207175616472616e7473206d7573742062652032206f72203320666f7260448201526b20524152452072617269747960a01b6064820152608490fd5b15612c1a57565b60405162461bcd60e51b815260206004820152601760248201527f3333333320697320554e49515545206e6f7420524152450000000000000000006044820152606490fd5b15612c6657565b60405162461bcd60e51b815260206004820152602e60248201527f416c6c207175616472616e7473206d7573742062652033206f72203420666f7260448201526d20554e495155452072617269747960901b6064820152608490fd5b15612cc957565b60405162461bcd60e51b815260206004820152601760248201527f343434342069732045504943206e6f7420554e495155450000000000000000006044820152606490fd5b15612d1557565b60405162461bcd60e51b815260206004820152602c60248201527f416c6c207175616472616e7473206d7573742062652034206f72203520666f7260448201526b20455049432072617269747960a01b6064820152608490fd5b15612d7657565b60405162461bcd60e51b815260206004820152601a60248201527f35353535206973204c4547454e44415259206e6f7420455049430000000000006044820152606490fd5b15612dc257565b60405162461bcd60e51b815260206004820152603160248201527f416c6c207175616472616e7473206d7573742062652035206f72203620666f72604482015270204c4547454e444152592072617269747960781b6064820152608490fd5b15612e2857565b60405162461bcd60e51b815260206004820152601c60248201527f36363636206973204d5954484943206e6f74204c4547454e44415259000000006044820152606490fd5b15612e7457565b60405162461bcd60e51b815260206004820152602960248201527f416c6c207175616472616e7473206d757374206265203620666f72204d59544860448201526849432072617269747960b81b6064820152608490fd5b9190612ed6565b9290565b8201809211612ae757565b610802610140610b7c565b9061080590611a2e565b9060ff906128e2565b90612f0f61080261290392611a38565b8254612ef6565b9160001960089290920291821b911b6128e2565b921b90565b9190612f4061080261290393610fe6565b908354612f16565b6107ec91600091612f2f565b818110612f5f575050565b80612f6d6000600193612f48565b01612f54565b90612f8690600019906020036008021c90565b8154169055565b919091828210612f9c57505050565b6107ec926020601f909101049060016020612fbf601f86018290049390565b9390565b92830194060260008111612fd6575b500190612f54565b612fe39060018503612f73565b38612fce565b90600160401b8111610b77576107ec9160045b90612f8d565b919060086128e2910291612f2a60ff841b90565b90600490612ed261302b916108028486612fe9565b602082049160005b838110613099575060208302900360008111613050575b50505050565b9260009360005b81811061306c5750505001553880808061304a565b909194602061308f6001926130856108028a5160ff1690565b9085850290613002565b9601929101613057565b6000805b602081106130b2575083820155600101613033565b959060206130d46001926130ca610802865160ff1690565b908a850290613002565b9201960161309d565b906107ec91613016565b90600160401b8111610b77576107ec916002612ffc565b90600290612ed26131139161080284866130e7565b602082049160005b8381106131765750602083029003600081116131375750505050565b9260009360005b8181106131535750505001553880808061304a565b909194602061316c6001926130856108028a5160ff1690565b960192910161313e565b6000805b6020811061318f57508382015560010161311b565b959060206131a76001926130ca610802865160ff1690565b9201960161317a565b906107ec916130fe565b90612f0f61080261290392151590565b9190601f81116131d957505050565b6131eb6107ec93600052602060002090565b906020601f84018190048301931061320e575b6020601f909101045b0190612f54565b90915081906131fe565b600019600883021c1916906002021790565b90613233815190565b906001600160401b038211610b77576132568261325085546118b0565b856131ca565b602090601f831160011461328457612903929160009183613279575b5050613218565b015190503880613272565b601f1983169161329985600052602060002090565b9260005b8181106132d7575091600293918560019694106132be575b50505002019055565b01516000196008601f8516021c191690553880806132b5565b9193602060018192878701518155019501920161329d565b906107ec9161322a565b60096133da6101206107ec94613319613313600083015190565b866128ec565b61333161332860208301612aec565b60018701612eff565b61334861333f604083015190565b600287016130dd565b61335f613356606083015190565b600387016131b0565b61337661336d608083015190565b600487016128ec565b61338d61338460a083015190565b600587016128ec565b6133a661339d60c0830151151590565b600687016131ba565b6133bd6133b460e083015190565b600787016128ec565b6133d56133cc61010083015190565b600887016132ef565b015190565b91016128ec565b9190611bd8576107ec916132f9565b90815491600160401b831015610b7757826134139160016107ec9501815561184e565b906133e1565b91908203918211612ae757565b6108026108026108029263ffffffff1690565b156107c757565b906001600160a01b03906128e2565b9061345f6108026129039261119e565b8254613440565b6000198114612ae75760010190565b61348161212560029390565b6000915b8383106134925750505050565b6134a8610f6d600192845160ff16815260200190565b92019190613485565b6134bd61212560049390565b6000915b8383106134ce5750505050565b6134e4610f6d600192845160ff16815260200190565b920191906134c1565b98979561353e610160966135366135549760808e61352f613546989a6107ec9f9a611fec9061352561018086019e6000870190611a41565b6020850190613475565b01906134b1565b6101008c0152565b6101208a0152565b87820361014089015261094f565b9401906001600160a01b03169052565b50805190939190613579612125610802845190565b148061421e575b806141fc575b61358f906129f5565b61359f61359a855190565b612a67565b92600092839184936000976135b389610fe6565b6135be610802835190565b8110156141ef576135ec6135e56135d58387612a8a565b516135df8d610fe6565b90612aa4565b5160ff1690565b6136136135f98387612a8a565b519161360d6135e56001946135df86610fe6565b90612acc565b6136346136208488612a8a565b519161360d6135e56002946135df86610fe6565b6136556136418589612a8a565b519161360d6135e56003946135df86610fe6565b8d61367a61367461366e613669898b612a8a565b612aec565b92611a2e565b91611a2e565b1461406a575b61368d6136698688612a8a565b61369961367486611a2e565b14613ee5575b6136ac6136698688612a8a565b6136b861367485611a2e565b14613d48575b6136cb6136698688612a8a565b6136d761367484611a2e565b14613b9e575b6136ea6136698688612a8a565b6136f76136746004611a2e565b146139f1575b5061370b6136698587612a8a565b6137186136746005611a2e565b146138ee575b505061372a8284612a8a565b61373390612aec565b908b61373f8488612a8a565b5161374a8588612a8a565b516137558b42612ecb565b90613760878c612a8a565b519261376a612ee1565b9661377486610fe6565b9588018690526137879060208901612eec565b6040870152606086015260808501526137a18c60a0860152565b8d151560c08501526137b48b60e0860152565b61010084015261012083015260076137cc83826133f0565b54906137d790610fe6565b6137e091613419565b908b6137eb8361141c565b6137f490613426565b91613800848414613439565b015261380d81600f610ff3565b336138179161344f565b6138223360106111a7565b61382b8161187d565b61383490613466565b61383d916128ec565b6138478133617b51565b6138518287612a8a565b5161385c9082617b63565b886138678385612a8a565b61387090612aec565b8961387b8588612a8a565b5191613887868a612a8a565b5192613893878c612a8a565b518c61389e88610fe6565b966138a860405190565b96879633956138b797896134ed565b037f5ea0402f9a8785c25ad31fd3e0e81f8c2b4ca231668cc82cd03fa34ea1f0ce3c91a26138e5828b612a8a565b526001016135b3565b9198509198506139439296506139156135e58c6135df61390e8d8a612a8a565b5191610fe6565b90600691613925612ad484612af6565b1492836139c2575b83613997575b50898361396b575b505050612e6d565b61394d603161187d565b93613958602b61187d565b96613963602561187d565b96388061371e565b61398e9293506135e5612ad4926135df61390e613988948b612a8a565b92612af6565b1438808961393b565b6139ae9193506135e5906135df61390e8d8a612a8a565b6139ba612ad483612af6565b149138613933565b92506139de6135e56139d48c89612a8a565b516135df8c610fe6565b6139ea612ad484612af6565b149261392d565b919a509850613a5e919750613a106135e58d6135df61390e878b612a8a565b600590613a1f612ad483612af6565b148d8115613b74575b5080613b2d575b80613ade575b8a858983613a85575b505050613a4b9150612dbb565b613a58612ad46018612af6565b10612e21565b613a68603061187d565b95613a73602a61187d565b98613a7e602461187d565b98386136fd565b613aa19350612ad4926135df61390e613988946135e594612a8a565b148015613ab5575b613a4b908a8589613a3e565b50613a4b613ac96135e56135d5868a612a8a565b613ad6612ad46006612af6565b149050613aa9565b50613af36135e58c6135df61390e888c612a8a565b613aff612ad483612af6565b1480613a355750613b1a6135e58c6135df61390e888c612a8a565b613b27612ad46006612af6565b14613a35565b50613b3e6135e56139d4868a612a8a565b613b4a612ad483612af6565b1480613a2f5750613b616135e56139d4868a612a8a565b613b6e612ad46006612af6565b14613a2f565b613b8a91506135e5906135df61390e888c612a8a565b613b97612ad46006612af6565b148d613a28565b995099509650613bb86135e58c6135df61390e868a612a8a565b600490613bc7612ad483612af6565b148015613d20575b80613ccf575b80613c7e575b80613c29575b613beb9150612d0e565b613c03613bf86014612af6565b60ff8a165b10612d6f565b613c0d602f61187d565b96613c18602961187d565b99613c23602361187d565b996136dd565b50613c44612ad46139886135e58d6135df61390e898d612a8a565b148015613c55575b613beb90613be1565b50613beb613c696135e56135d58589612a8a565b613c76612ad46005612af6565b149050613c4c565b50613c996135e5613c8f8589612a8a565b516135df8b610fe6565b613ca5612ad483612af6565b1480613bdb5750613cbc6135e5613c8f8589612a8a565b613cc9612ad46005612af6565b14613bdb565b50613cea6135e5613ce08589612a8a565b516135df85610fe6565b613cf6612ad483612af6565b1480613bd55750613d0d6135e5613ce08589612a8a565b613d1a612ad46005612af6565b14613bd5565b50613d356135e58d6135df61390e878b612a8a565b613d42612ad46005612af6565b14613bcf565b995099509650613d626135e58c6135df61390e868a612a8a565b613d6e612ad48b612af6565b148015613ebd575b80613e6c575b80613e1b575b80613dcf575b613d9190612c5f565b613da9613d9e6010612af6565b60ff8a165b10612cc2565b613db3602e61187d565b96613dbe602861187d565b99613dc9602261187d565b996136be565b50613de06135e56139d48488612a8a565b613dec612ad48b612af6565b1480613d885750613d91613e066135e56135d58589612a8a565b613e13612ad46004612af6565b149050613d88565b50613e366135e5613e2c8488612a8a565b516135df8a610fe6565b613e42612ad48b612af6565b1480613d825750613e596135e5613e2c8488612a8a565b613e66612ad46004612af6565b14613d82565b50613e876135e5613e7d8488612a8a565b516135df84610fe6565b613e93612ad48b612af6565b1480613d7c5750613eaa6135e5613e7d8488612a8a565b613eb7612ad46004612af6565b14613d7c565b50613ed26135e58c6135df61390e868a612a8a565b613edf612ad46004612af6565b14613d76565b995099509650613eff6135e58c6135df61390e868a612a8a565b613f0b612ad489612af6565b148015614043575b80613ffd575b80613fb7575b80613f6c575b613f2e90612bb2565b613f46613f3b600c612af6565b60ff8a165b10612c13565b613f50602d61187d565b96613f5b602761187d565b99613f66602161187d565b9961369f565b50613f7d6135e56139d48488612a8a565b613f89612ad489612af6565b1480613f255750613f2e613fa36135e56135d58589612a8a565b613faf612ad48c612af6565b149050613f25565b50613fc86135e5613e2c8488612a8a565b613fd4612ad489612af6565b1480613f1f5750613feb6135e5613e2c8488612a8a565b613ff7612ad48b612af6565b14613f1f565b5061400e6135e5613e7d8488612a8a565b61401a612ad489612af6565b1480613f1957506140316135e5613e7d8488612a8a565b61403d612ad48b612af6565b14613f19565b506140586135e58c6135df61390e868a612a8a565b614064612ad48b612af6565b14613f13565b9950995096506140846135e58c6135df61390e868a612a8a565b614090612ad483612af6565b1480156141c8575b80614182575b8061413c575b806140f1575b6140b390612b03565b6140cb6140c06008612af6565b60ff8a165b10612b66565b6140d5602c61187d565b966140e0602661187d565b996140eb602061187d565b99613680565b506141026135e56139d48488612a8a565b61410e612ad483612af6565b14806140aa57506140b36141286135e56135d58589612a8a565b614134612ad48a612af6565b1490506140aa565b5061414d6135e5613e2c8488612a8a565b614159612ad483612af6565b14806140a457506141706135e5613e2c8488612a8a565b61417c612ad489612af6565b146140a4565b506141936135e5613e7d8488612a8a565b61419f612ad483612af6565b148061409e57506141b66135e5613e7d8488612a8a565b6141c2612ad489612af6565b1461409e565b506141dd6135e58c6135df61390e868a612a8a565b6141e9612ad489612af6565b14614098565b5050505050505050905090565b5061358f614208845190565b614216612125610802865190565b149050613586565b50805161422f612125610802865190565b14613580565b6108029392919060606129b9565b6107ec906142536128d233614ba1565b6142b1565b9190611bd8576107ec9161322a565b90815491600160401b831015610b77578261428a9160016107ec95018155611d37565b90614258565b60ff1660ff8114612ae75760010190565b90612f0f61080261290392611b97565b6142ce816142c96142c26009611890565b6008611ba7565b6132ef565b6142d981600a614267565b6142f56142ee6142e96009611890565b614290565b60096142a1565b7fe4d2864ec291f6f11cb3363fa1bd2a4d5ff49a2cfdf4bf7dfe3b90a26b8c776f61433561432b6143266009611890565b611b97565b926109b760405190565b0390a2565b6107ec90614243565b6107ec906143536128d233614ba1565b6107ec9061435f612063565b615de8565b6107ec90614343565b61080261437960075490565b6143836001610fe6565b90613419565b6107ec906143996128d233614ba1565b6143b1816142c96143aa600c611890565b600b611ba7565b6143bc81600d614267565b6143d36143cc6142e9600c611890565b600c6142a1565b7fd961fa20561746b8576d7b504b0bc57067c67db2ce13bd9866d451bec5985f4b61433561432b614326600c611890565b6107ec90614389565b906108029161442261281061280c6019611890565b6146a0565b6109e76108026108029290565b61080290614427565b1561444457565b60405162461bcd60e51b815260206004820152600c60248201526b7a65726f206164647265737360a01b6044820152606490fd5b1561447f57565b60405162461bcd60e51b815260206004820152602360248201527f47656d20636f6f6c646f776e20706572696f6420686173206e6f7420656c61706044820152621cd95960ea1b6064820152608490fd5b156144d757565b60405162461bcd60e51b815260206004820152602860248201527f47656d206973206c697374656420666f722073616c65206f7220616c7265616460448201526779206d696e696e6760c01b6064820152608490fd5b1561453457565b60405162461bcd60e51b81526020600482015260166024820152757573657220697320616c7265616479206d696e696e6760501b6044820152606490fd5b1561457957565b60405162461bcd60e51b815260206004820152600d60248201526c3737ba1033b2b69037bbb732b960991b6044820152606490fd5b90919060048310156118715760206145c560019290565b8185040193060290565b156145d657565b60405162461bcd60e51b815260206004820152601060248201526f4e6f7420656e6f7567682066756e647360801b6044820152606490fd5b90612a5d610bce83610de7565b3d156146355761462a3d61460e565b903d6000602084013e565b606090565b1561464157565b60405162461bcd60e51b815260206004820152601060248201526f6e6f7420656e6f7567682066756e647360801b6044820152606490fd5b9081526060810193926107ec929091604091611a8f905b6001600160a01b03166020830152565b506000906146bb6146b36109e784614434565b33141561443d565b6007916146de6146d760046146d0858761184e565b500161187d565b4211614478565b6146ff6146fa61280c60066146f3868861184e565b5001611890565b6144d0565b61471d61471861280c6147133360136111a7565b611890565b61452d565b61474b61473361472e84600f610ff3565b611f6d565b614745335b916001600160a01b031690565b14614572565b61476b61476582600261475e868861184e565b50016145ae565b90610855565b926147ba6147a66147936002614781878661184e565b50019661360d6147656001809a6145ae565b61360d61476560028061475e8a8961184e565b61360d6147656003600261475e898861184e565b6147c46008612af6565b60ff82161161494a57509180614905926148eb614892614899600080516020618fe2833981519152976147f7601a61187d565b505b61480d8a6148083360136111a7565b6131ba565b6148208a61480888611b5d3360156111a7565b61483961483287611b5d3360166111a7565b42906128ec565b61484d866148483360146111a7565b6128ec565b6148648a600661485d898561184e565b50016131ba565b6009614876614871611432565b617b97565b978195919361488d6148858b90565b3410156145cf565b61184e565b50016128ec565b6148af88846148a9846018610ff3565b016131ba565b6148c76148bd826018610ff3565b600333910161344f565b6148e46148dd6148d7603361187d565b60010190565b60336128ec565b60346128ec565b81341161490b575b50506040519182914290339084614679565b0390a190565b806149439261492b61492461491f3361119e565b61119e565b9134613419565b60405190818003925af161493d61461b565b5061463a565b38806148f3565b6149546008612af6565b60ff82161180614a91575b1561499457509180614905926148eb614892614899600080516020618fe28339815191529761498e601b61187d565b506147f9565b61499e600c612af6565b60ff82161180614a7b575b156149d857509180614905926148eb614892614899600080516020618fe28339815191529761498e601c61187d565b6149e56010949294612af6565b60ff8216119081614a64575b5015614a1f5780614905926148eb614892614899600080516020618fe28339815191529761498e601d61187d565b60405162461bcd60e51b815260206004820152601760248201527f47656d206e6f7420616c6c6f77656420746f204d696e650000000000000000006044820152606490fd5b9050614a73612ad46014612af6565b1115386149f1565b50614a866010612af6565b60ff821611156149a9565b50614a9c600c612af6565b60ff8216111561495f565b61080290600061440d565b6001600160a01b0390911681526060810193926107ec929091604091611ff3906020830152565b90614ae46000614434565b6001600160a01b0381166001600160a01b03831614614b4b5750614b0a90833391617c79565b6001600160a01b0382166001600160a01b03821603614b2857505050565b6127f890614b3560405190565b6364283d7b60e01b815293849360048501614ab2565b6127f890614b5860405190565b633250574960e11b8152918291600483016001600160a01b03909116815260200190565b90610ffd565b6001614b9b61080292614b93600090565b50603c614b7c565b0161187d565b61080290614bad612063565b616694565b60066146f361080292614bc3600090565b50600761184e565b6108026036611f6d565b906107ec91614beb614be682614b82565b617dc4565b90614bf591617dcf565b50565b906107ec91614bd5565b6107ec90614c126128d233614ba1565b6107ec90600080516020619002833981519152615de8565b6107ec90614c02565b906107ec9e9d9c9b9a999897969594939291614c516128d233614ba1565b614d2e565b6108029060081c6109e7565b6108029054614c56565b15614c7357565b60405162461bcd60e51b815260206004820152601e60248201527f746974616e7773746f6e20616c726561647920696e697469616c697a656400006044820152606490fd5b15614cbf57565b60405162461bcd60e51b815260206004820152601760248201527f746f6e20616c726561647920696e697469616c697a65640000000000000000006044820152606490fd5b90610100600160a81b039060081b6128e2565b90614d276108026129039261119e565b8254614d04565b6107ec9e9d9b97614df3614e0f98614e249f9c96614e1d9e99614de5614e089a614e169f98614dec94614dd7614e019c614dd0614dde94614dc9614dfa9e614dc2614d796035614c62565b614d9f614d866000614434565b91614d996001600160a01b038416614738565b14614c6c565b614dbc614738614daf6036611f6d565b926001600160a01b031690565b14614cb8565b6035614d17565b603661344f565b603761344f565b601a6128ec565b601b6128ec565b601c6128ec565b601d6128ec565b601e6128ec565b601f6128ec565b60206128ec565b60216128ec565b60226128ec565b60236128ec565b60246128ec565b60256128ec565b906107ec9e9d9c9b9a999897969594939291614c33565b906108029291614e546128d233614ba1565b614eef565b905051906107ec8261168a565b906020828203126107c75761080291614e59565b6001600160a01b0390911681526040810192916107ec9160200152565b6040513d6000823e3d90fd5b15614eaa57565b60405162461bcd60e51b815260206004820152601860248201527f6661696c656420746f207472616e7366657220746f6b656e00000000000000006044820152606490fd5b50614f3091602091614f0561491f806037611f6d565b906000614f1160405190565b809681958294614f256348dbcef060e01b90565b845260048401614e7a565b03925af18015614f8057614f4c91600091614f51575b50614ea3565b600190565b614f73915060203d602011614f79575b614f6b8183610b56565b810190614e66565b38614f46565b503d614f61565b614e97565b61080291906000614e42565b906107ec91614fa66129d16109e76037611f6d565b906107ec91614fbb61281061280c6019611890565b615021565b15614fc757565b60405162461bcd60e51b815260206004820152600d60248201526c11d95b481a5cc81b1bd8dad959609a1b6044820152606490fd5b6001600160a01b0390911681526060810193926107ec929091604091611a8f90614690565b907f85d07a7616aea29f5d972fd9100b991c224490bd49b737377d908f66f34d9afd916150666150546109e76000614434565b6001600160a01b0383165b1415613439565b61506f33615054565b61508a61508561280c60066146f386600761184e565b614fc0565b61509c6150978333617e46565b613439565b6150a7828233617eab565b6150b2828233615f9d565b6150c86150be60405190565b9283923384614ffc565b0390a1565b906107ec91614f91565b906108029392916150ee61281061280c6019611890565b615359565b906002612aa8565b1561510257565b60405162461bcd60e51b815260206004820152602160248201527f77726f6e67206e756d626572206f662047656d7320746f20626520666f7267656044820152601960fa1b6064820152608490fd5b610bce61080291610c2b565b906107ec61517361516d84615151565b93610c2b565b83612a62565b610802600461515d565b1561518a57565b60405162461bcd60e51b815260206004820152601c60248201527f47656d20697320666f722073616c65206f72206973206d696e696e67000000006044820152606490fd5b156151d657565b60405162461bcd60e51b815260206004820152601160248201527077726f6e67207261726974792047656d7360781b6044820152606490fd5b6108029060101c61084f565b6108029060181c61084f565b60208061523f612fbb60019561523b600290565b5090565b54926152558161524e86611887565b60ff169052565b0161304a8161524e8660000195611f4e565b9061098381604093615227565b906107ec6119829261528560405190565b93848092615267565b61080290615274565b1561529e57565b60405162461bcd60e51b815260206004820152601c60248201527f7468697320636f6c6f722063616e2774206265206f627461696e6564000000006044820152606490fd5b634e487b7160e01b600052601260045260246000fd5b6153059060ff16612ad4565b908115615310570690565b6152e3565b6001610802910160ff1690565b6108026108026108029260ff1690565b6153426108026108029260ff1690565b611a2e565b610802600061460e565b610802615347565b506000929061536d6146b36109e786614434565b6000926153856135e561537f87610fe6565b856150f3565b9160019361539e6135e561539887610fe6565b836150f3565b926153a888611a2e565b6153b182611a2e565b03615c53576153d46153c1845190565b6153ce6121256002610fe6565b146150fb565b6153de602161187d565b936153e9602761187d565b93876153f5602d61187d565b9790508a925b8980615405615179565b809661541081610fe6565b935b6158c3575b5050505050505060029061542a82612af6565b806154348c610fe6565b61543e9084612aa4565b5160ff169061544c916152f9565b6154558c610fe6565b61545f9084612aa4565b60ff9091169052806154708a610fe6565b61547a9084612aa4565b5160ff1690615488916152f9565b6154918a610fe6565b61549b9084612aa4565b60ff9091169052806154ac84610fe6565b6154b69084612aa4565b5160ff16906154c4916152f9565b6154cd84610fe6565b6154d79084612aa4565b60ff9091169052600390806154eb83610fe6565b6154f59085612aa4565b5160ff1690615503916152f9565b61550c83610fe6565b6155169085612aa4565b60ff9091169052615525615179565b9a61552f8d611a2e565b61553887611a2e565b0361581d5750908a8a9594939186926155508f612af6565b975b6157af575b506155ae96508d6155736135e561556d83610fe6565b85612aa4565b61558b612ad461084f61558588612af6565b89612acc565b1480615787575b8061575f575b80615737575b6156e3575b505050505050611a38565b6155b786612af6565b6155c091612acc565b6155c990615332565b936155d49042612ecb565b906155dd612ee1565b966155e789610fe6565b956155f2878a8c0152565b6155ff9060208a01612eec565b60408801526060870152608086015260a085015284151560c085015260e0840152615628615351565b61010084015261012083015260079161564190836133f0565b81549061564d90610fe6565b61565691613419565b918291826156639161184e565b50019061566f916128ec565b6156788161141c565b61568190613426565b811461568c90613439565b61569781600f610ff3565b336156a19161344f565b6156ac3360106111a7565b6156b58161187d565b6156be90613466565b6156c7916128ec565b6156d18133617b51565b6156d9615351565b6108029082617b63565b84615719615713946135df61572c99615721856157196157266157199c615721846157196157136157219e610fe6565b8b612aa4565b9060ff169052565b610fe6565b86612aa4565b3880888a828d6155a3565b506157476135e561556d84610fe6565b615759612ad461084f61558588612af6565b1461559e565b5061576f6135e561556d88610fe6565b615781612ad461084f61558588612af6565b14615598565b506157976135e561556d86610fe6565b6157a9612ad461084f61558588612af6565b14615592565b92916157c16004989295969798612af6565b60ff8316101561581057906157fe615803926157196157f46157ee6135e56157e887615322565b8a612aa4565b8a612acc565b916135df85615322565b615315565b9594939281928d92615552565b9192879695949150615557565b90506158288a611a2e565b61583186611a2e565b03615853575061584081612af6565b915b8a8a9594939286926155508f612af6565b61585c84611a2e565b61586586611a2e565b0361587c57506158756004612af6565b915b615842565b61588582611a2e565b61588e86611a2e565b0361589e57506158756005612af6565b916158a96004611a2e565b6158b286611a2e565b036158775791506158756006612af6565b886158cf610802895190565b851015615c4d57615a4a615a346147656003879a9998979661475e6159746159348f80615981615a579b8f938f8f6136749161596461366e9261595e61595861595261126f6159348e61597b9b61594d61593e61472e600f6159386159348787612a8a565b5190565b90610ff3565b61594733614738565b14613439565b612a8a565b92151590565b91151590565b14615183565b6146f36159746159348a8a612a8a565b600761184e565b146151cf565b6159c88c6157196159c26159bc6159a761476585600261475e6159746159348d8d612a8a565b6159b76135e58d6135df88610fe6565b612acc565b92610fe6565b89612aa4565b6159ee8d6157196159c26159bc6159a761476585600261475e6159746159348d8d612a8a565b61594d6002615a036159746159348686612a8a565b500196615719615a2a615a1b6147656002809c6145ae565b6159b76135e56157268d610fe6565b916135df8a610fe6565b6159b76135e5615a446003610fe6565b8d612aa4565b6157196157136003610fe6565b615a6081610fe6565b915b615a8e575b5050806148d7615a7d615934615a839489612a8a565b33618180565b909192858e82615412565b615a9e6108028897949596975190565b821015615c4357615ac1919083888684808203615acc575b505050505060010190565b8e8295949392615a62565b615b04615974615934600393615b236135e58a615b1d615b176135e5615b11615b0b8c8f615b299f61593461597491615b0493612a8a565b500161528e565b94610fe6565b846150f3565b9b610fe6565b906150f3565b96612a8a565b92615b4f6135e5615b456135e5615b3f85610fe6565b886150f3565b95615b1d8a610fe6565b909360ff8b1660ff851614938415615c32575b8415615c21575b8415615c10575b84615b99575b50505050615b92575b615b8890615297565b8f83888684615ab6565b5082615b7f565b9293509091615baa60ff8b16612ad4565b14928315615bf9575b508215615be2575b508115615bcd575b5038808080615b76565b9050615bdb60ff8816612ad4565b1438615bc3565b909150615bf160ff8916612ad4565b149038615bbb565b909250615c0860ff8a16612ad4565b149138615bb3565b935060ff8b1660ff83161493615b70565b935060ff8b1660ff82161493615b69565b935060ff8b1660ff84161493615b62565b9493929194615a67565b50615417565b615c5c86611a2e565b615c6582611a2e565b03615cae57615c82615c75845190565b6153ce6121256003610fe6565b615c8c602261187d565b93615c97602861187d565b9387615ca3602e61187d565b975b90508a926153fb565b615cb86002611a2e565b615cc182611a2e565b03615d0557615cde615cd1845190565b6153ce6121256004610fe6565b615ce8602361187d565b93615cf3602961187d565b9387615cff602f61187d565b97615ca5565b615d0f6003611a2e565b615d1882611a2e565b03615d5657615d35615d28845190565b6153ce6121256005610fe6565b615d3f602461187d565b93615d4a602a61187d565b9387615cff603061187d565b615d606004611a2e565b615d6982611a2e565b03615da757615d86615d79845190565b6153ce6121256006610fe6565b615d90602561187d565b93615d9b602b61187d565b9387615cff603161187d565b60405162461bcd60e51b815260206004820152600c60248201526b77726f6e672072617269747960a01b6044820152606490fd5b61080292919060006150d7565b90615df2336109e7565b6001600160a01b03821603615e0a57614bf5916181d4565b60405163334bd91960e11b8152600490fd5b6001600160a01b0390911681526040810192916107ec91602090611ff3565b9190615e667f000000000000000000000000000000000000000000000000000000000000000061119e565b926001600160a01b0384163303615e82576107ec9293506182a3565b6127f884615e8f60405190565b63073e64fd60e21b81529182913360048401615e1c565b6108026037611f6d565b15615eb757565b60405162461bcd60e51b815260206004820152602360248201527f41757468436f6e74726f6c3a2043616c6c6572206973206e6f7420612070617560448201526239b2b960e91b6064820152608490fd5b615f3c615f377ffcb9fcbfa83b897fb2d5cf4b58962164105c1e71489a37ef3ae0db3fdce576f65b3390616694565b615eb0565b6107ec615f4f61281061280c6019611890565b6107ec615f5e600060196131ba565b7f5db9ee0a495bf2e6ff9c91a7834c1ba4fdd244a5e8aa4e537bd38aeae4b073aa615f8860405190565b33815280602081016150c8565b6107ec615f08565b90916107ec92615fab615351565b92617590565b906107ec91615fc66129d16109e76038611f6d565b90600661485d6107ec93600761184e565b906107ec91615fb1565b610802601a61187d565b61080290617adc565b6107ec906160046128d233614ba1565b6107ec90616010612063565b614bf8565b6107ec90615ff4565b6160356108029161602d600090565b5060106111a7565b61187d565b6160466128d233614ba1565b6107ec6107ec616054612063565b3390615de8565b6107ec61603a565b6107ec906160736128d233614ba1565b616109565b1561607f57565b60405162461bcd60e51b815260206004820152601860248201527f41636365737369626c653a207a65726f206164647265737300000000000000006044820152606490fd5b156160cb57565b60405162461bcd60e51b815260206004820152601660248201527520b1b1b2b9b9b4b136329d1039b0b6b29030b236b4b760511b6044820152606490fd5b6107ec9061612e61611d6109e76000614434565b6001600160a01b0383161415616078565b6161436001600160a01b0382163314156160c4565b61605461614e612063565b9182614bf8565b6107ec90616063565b906108029161617361281061280c6019611890565b616317565b1561617f57565b60405162461bcd60e51b815260206004820152600d60248201526c3737ba1023a2a69037bbb732b960991b6044820152606490fd5b156161bb57565b60405162461bcd60e51b8152806127f8600482016020808252818101527f6e6f2072616e646f6d207265717565737420666f72207468697320746f6b656e604082015260600190565b1561620b57565b60405162461bcd60e51b815260206004820152601b60248201527f75736572206973206e6f74206d696e696e6720746869732047656d00000000006044820152606490fd5b1561625757565b60405162461bcd60e51b815260206004820152601d60248201527f6d696e696e6720706572696f6420686173206e6f7420656c61707365640000006044820152606490fd5b156162a357565b60405162461bcd60e51b815260206004820152601260248201527147656d73206973206e6f74206d696e696e6760701b6044820152606490fd5b91906162ee61080261290393151590565b908354613002565b6107ec916000916162dd565b9081526040810192916107ec91602090611ff3565b5061633861632961472e83600f610ff3565b61633233614738565b14616178565b600761634960096146d0848461184e565b9061636360009261635c61212585610fe6565b14156161b4565b61637561471384611b5d3360156111a7565b6001939061638c9061638686615958565b14616204565b6163c36163bc6108026163a761603585611b5d3360166111a7565b6163b660056146d0878961184e565b90612ecb565b4211616250565b6163e66163d560066146f3848661184e565b6163e0861515615958565b1461629c565b6163f5836148083360136111a7565b61640d8361640883611b5d3360156111a7565b6162f6565b6164258361642083611b5d3360166111a7565b612f48565b616434836164203360146111a7565b61644483600661485d848661184e565b82602061649961645960096146d0868861184e565b6164796002614b9b61647161491f61491f6037611f6d565b936018610ff3565b604051978893849283919063048dbcef60e41b5b83523360048401614e7a565b03925af1928315614f80576164ef6164e383615721614905977f97b363697f59781efcf0539a3eeabceea1e3b444e248009d3730fa6a26db9c249961651a9791614f515750614ea3565b6009614892868561184e565b60046148928461651461650e6165098b6146f3858961184e565b6183de565b42612ecb565b9361184e565b604051918291339083616302565b61080290600061615e565b61655f615f377ffcb9fcbfa83b897fb2d5cf4b58962164105c1e71489a37ef3ae0db3fdce576f6615f30565b6107ec61657261281061280c6019611890565b6107ec616581600160196131ba565b7f62e78cea01bee320cd4e420270b5ea74000d11b0c9f74754ebdbfc544b05a258615f8860405190565b6107ec616533565b6165bc8161601e565b6000906165c882610fe6565b81036165dd5750610802915061359a90610fe6565b6165e690612a67565b916165ef61436d565b906165f983610fe6565b9250600191826166096001610fe6565b905b616618575b505050505090565b81811161667a5761662d61472e82600f610ff3565b61663f6001600160a01b038516614738565b14616654575b61664e90613466565b8361660b565b936166728161666d8761666a61664e958b612a8a565b52565b613466565b949050616645565b616610565b610802601c61187d565b610802615f30612063565b6108029160006166a961471393614b93600090565b016111a7565b6108026001612834565b90610802949392916166d16129d16109e76037611f6d565b90610802949392916166e961281061280c6019611890565b509291906000936166ff6135e561556d87610fe6565b9161671b60019361360d6135e561671587610fe6565b88612aa4565b61673060029161360d6135e56159c285610fe6565b9061674660039261360d6135e56157e886610fe6565b9061675089611a2e565b61675986611a2e565b03616a49576167a3906167b0936167756135e56157138d610fe6565b616781612ad48a612af6565b14918215616a25575b826169d8575b8261698b575b82616935575b5050612b03565b6140c5612ad46008612af6565b6167ba602c61187d565b946167c5602661187d565b956167d0602061187d565b945b6167dc8242612ecb565b906167e5612ee1565b916167ef8b610fe6565b906167fa82858e0152565b6168078860208601612eec565b604084018a90526060840187905260808401526168258a60a0850152565b8a151560c08401526168388860e0850152565b610100830185905261012083015260079161685390836133f0565b81549061685f90610fe6565b61686891613419565b986168748a809361184e565b500190616880916128ec565b6168898861141c565b61689290613426565b881461689d90613439565b6168a888600f610ff3565b336168b29161344f565b6168bd3360106111a7565b6168c68161187d565b6168cf90613466565b6168d8916128ec565b6168e28833617b51565b6168ec8289617b63565b6168f588610fe6565b966168ff60405190565b968796339561690e97896134ed565b037f5ea0402f9a8785c25ad31fd3e0e81f8c2b4ca231668cc82cd03fa34ea1f0ce3c91a290565b9091506169476135e561571384610fe6565b616953612ad48a612af6565b14918215616965575b5050388061679c565b6169839192506139886135e561697d612ad493610fe6565b8c612aa4565b14388061695c565b915061699c6135e561571384610fe6565b6169a8612ad48a612af6565b1480156169b6575b91616796565b506169c66135e561571384610fe6565b6169d2612ad484612af6565b146169b0565b91506169e96135e56157138a610fe6565b6169f5612ad48a612af6565b148015616a03575b91616790565b50616a136135e56157138a610fe6565b616a1f612ad484612af6565b146169fd565b9150616a366135e56157138d610fe6565b616a42612ad484612af6565b149161678a565b616a5286611a2e565b616a5b86611a2e565b03616bdd57616aa590616ab293616a776135e56157138d610fe6565b616a83612ad484612af6565b14918215616bb9575b82616b6c575b82616b1f575b82616ad8575b5050612bb2565b613f40612ad4600c612af6565b616abc602d61187d565b94616ac7602761187d565b95616ad2602161187d565b946167d2565b909150616af0612ad46139886135e5615a4486610fe6565b14908115616b01575b503880616a9e565b9050616b18612ad46139886135e561697d85610fe6565b1438616af9565b9150616b306135e561571384610fe6565b616b3c612ad484612af6565b148015616b4a575b91616a98565b50616b5a6135e561571384610fe6565b616b66612ad483612af6565b14616b44565b9150616b7d6135e56157138a610fe6565b616b89612ad484612af6565b148015616b97575b91616a92565b50616ba76135e56157138a610fe6565b616bb3612ad483612af6565b14616b91565b9150616bca6135e56157138d610fe6565b616bd6612ad483612af6565b1491616a8c565b616be681611a2e565b616bef86611a2e565b03616d7f57616c3990616c4693616c0b6135e56157138d610fe6565b616c17612ad483612af6565b14918215616d5a575b82616d0c575b82616cb8575b5081616c66575b50612c5f565b613da3612ad46010612af6565b616c50602e61187d565b94616c5b602861187d565b95616ad2602261187d565b9050616c776135e56157e883610fe6565b616c83612ad483612af6565b14908115616c93575b5038616c33565b616ca491506159c26135e591610fe6565b616cb1612ad46004612af6565b1438616c8c565b909150616cca6135e561571383610fe6565b616cd6612ad484612af6565b14908115616ce7575b509038616c2c565b616cf891506157e86135e591610fe6565b616d05612ad46004612af6565b1438616cdf565b9150616d1d6135e56157138a610fe6565b616d29612ad483612af6565b148015616d37575b91616c26565b50616d476135e56157138a610fe6565b616d54612ad46004612af6565b14616d31565b9150616d6b6135e56157138d610fe6565b616d78612ad46004612af6565b1491616c20565b616d8883611a2e565b616d9186611a2e565b03616f2557616de190616dee93616dad6135e56157138d610fe6565b600490616dbc612ad483612af6565b14928c8415616efe575b5083616eb0575b83616e5c575b5082616e0e575b5050612d0e565b613bfd612ad46014612af6565b616df8602f61187d565b94616e03602961187d565b95616ad2602361187d565b909150616e26612ad46139886135e5615a4486610fe6565b14908115616e37575b503880616dda565b616e4891506159c26135e591610fe6565b616e55612ad46005612af6565b1438616e2f565b909250616e6e6135e561697d83610fe6565b616e7a612ad485612af6565b14908115616e8b575b509138616dd3565b616e9c91506157136135e591610fe6565b616ea9612ad46005612af6565b1438616e83565b9250616ec16135e561697d8b610fe6565b616ecd612ad483612af6565b148015616edb575b92616dcd565b50616eeb6135e561697d8b610fe6565b616ef8612ad46005612af6565b14616ed5565b616f1091945061697d6135e591610fe6565b616f1d612ad46005612af6565b14928c616dc6565b616f2f6004611a2e565b616f3886611a2e565b036170bf57613a4b90616f8893616f546135e56157138d610fe6565b600590616f63612ad483612af6565b14928c8415617098575b508361704a575b83616ff6575b5082616fa8575b5050612dbb565b616f92603061187d565b94616f9d602a61187d565b95616ad2602461187d565b909150616fc0612ad46139886135e5615a4486610fe6565b14908115616fd1575b503880616f81565b616fe291506159c26135e591610fe6565b616fef612ad46006612af6565b1438616fc9565b9092506170086135e561697d83610fe6565b617014612ad485612af6565b14908115617025575b509138616f7a565b61703691506157136135e591610fe6565b617043612ad46006612af6565b143861701d565b925061705b6135e561697d8b610fe6565b617067612ad483612af6565b148015617075575b92616f74565b506170856135e561697d8b610fe6565b617092612ad46006612af6565b1461706f565b6170aa91945061697d6135e591610fe6565b6170b7612ad46006612af6565b14928c616f6d565b90506170cb6005611a2e565b6170d485611a2e565b036171a257617118916170ec6135e56159c28b610fe6565b906006916170fc612ad484612af6565b14928361717e575b83617158575b5082617138575b5050612e6d565b617122603161187d565b9461712d602b61187d565b95616ad2602561187d565b6171509192506139886135e56157e8612ad493610fe6565b143880617111565b61716a9193506159c26135e591610fe6565b617176612ad483612af6565b14913861710a565b925061718f6135e56157e889610fe6565b61719b612ad484612af6565b1492617104565b60405162461bcd60e51b815260206004820152600c60248201526b77726f6e672052617269747960a01b6044820152606490fd5b6108029392919060006166b9565b6107ec906171f46128d233614ba1565b6107ec90600080516020619002833981519152614bf8565b6107ec906171e4565b6107ec600080516020619002833981519152616054565b6107ec9061723c6128d233614ba1565b6107ec9060356142a1565b6107ec9061722c565b6107ec9190336184df565b61080290600080516020619002833981519152616694565b610802600261515d565b617285612ee1565b906000825260208080808080808080808b0160008152016172a4615179565b8152016172af617273565b815201600081520160008152016000815201600081520160608152016000905250565b61080261727d565b156172e157565b60405162461bcd60e51b815260206004820152601260248201527111d95b48191bd95cc81b9bdd08195e1a5cdd60721b6044820152606490fd5b6020600161304a61524e9361524e848481818161734261733e839d61523b600490565b9790565b9661735281600099549d8e611887565b019501946173638161524e8c611f4e565b019301926173748161524e8a61520f565b01938492019561521b565b906109838160809361731b565b906107ec6119829261739d60405190565b9384809261737f565b906107ec61747d60096173b7612ee1565b946173c86173c48261187d565b8752565b6173e06173d760018301611890565b60208801612eec565b6173f66173ef6002830161738c565b6040880152565b61740c61740560038301615274565b6060880152565b61742261741b6004830161187d565b6080880152565b6174386174316005830161187d565b60a0880152565b61745061744760068301611890565b151560c0880152565b61746661745f6007830161187d565b60e0880152565b614b9b61747560088301611968565b610100880152565b610120840152565b610802906173a6565b6174b46108029161749d6172d2565b506159746174ad61080260075490565b82106172da565b50617485565b906107ec95949392916174cf6128d233614ba1565b926174fc6107ec9695936174f5617503946174ee61750a98602c6128ec565b602d6128ec565b602e6128ec565b602f6128ec565b60306128ec565b60316128ec565b906107ec95949392916174ba565b1561752657565b60405162461bcd60e51b8152602060048201526013602482015272496e646578206f7574206f6620626f756e647360681b6044820152606490fd5b61758b61080291617570606090565b506142c261758161084f6009611890565b60ff83161061751f565b612834565b906107ec9392916175a2838383614ad9565b6185d0565b61472e6175be916175b6600090565b50600f610ff3565b906107ec8261505f6147386109e76000614434565b610802611d326037611f6d565b156175e757565b60405162461bcd60e51b815260206004820152602f60248201527f4552433732314d657461646174613a2055524920717565727920666f72206e6f60448201526e3732bc34b9ba32b73a103a37b5b2b760891b6064820152608490fd5b61080290617659617654826186cc565b6175e0565b618751565b6107ec9061766e6128d233614ba1565b6107ec90603861344f565b6107ec9061765e565b6107ec906176926128d233614ba1565b6107ec906000805160206190028339815191526176ce565b6107ec90617682565b906107ec916176c4614be682614b82565b90614bf5916181d4565b906107ec916176b3565b906107ec92916176ee6129d16109e76038611f6d565b906107ec929161770461281061280c6019611890565b6177ca565b1561771057565b60405162461bcd60e51b815260206004820152601660248201527522a9219b9918a737b732bc34b9ba32b73a2a37b5b2b760511b6044820152606490fd5b1561775557565b60405162461bcd60e51b815260206004820152600f60248201526e2737ba103a37b5b2b71037bbb732b960891b6044820152606490fd5b1561779357565b60405162461bcd60e51b815260206004820152600f60248201526e496e76616c6964206164647265737360881b6044820152606490fd5b6150c87f85d07a7616aea29f5d972fd9100b991c224490bd49b737377d908f66f34d9afd936178006177fb826186cc565b617709565b61781661508561280c60066146f385600761184e565b61783f61782761472e83600f610ff3565b6178396001600160a01b038616614738565b1461774e565b61786061784f6109e76000614434565b6001600160a01b038616141561778c565b61786b818585617eab565b617876818585615f9d565b60405193849384614ffc565b906107ec92916176d8565b6108026035614c62565b610802916178b2614713926178aa600090565b5060056111a7565b6111a7565b6107ec906178c76128d233614ba1565b6107ec90616155565b6107ec906178b7565b905051906107ec826109c0565b906020828203126107c757610802916178d9565b602061795991617908600090565b506179327f000000000000000000000000000000000000000000000000000000000000000061119e565b604051938492839182916315ae5acd60e11b5b835263ffffffff1660048301526024820190565b03915afa908115614f805760009161796f575090565b610802915060203d602011617991575b6179898183610b56565b8101906178e6565b503d61797f565b6107ec906179ac61281061280c6019611890565b6179ef565b156179b857565b60405162461bcd60e51b815260206004820152600f60248201526e1d1c985b9cd9995c8819985a5b1959608a1b6044820152606490fd5b600090617a016146b36109e784614434565b617a1261593e61472e83600f610ff3565b6020617a5f617a2660076146d0858261184e565b617a308433618180565b617a4061491f61491f6037611f6d565b90617a4a60405190565b9586938492839190630169dc3160e01b61648d565b03925af1908115614f805761651a6150c8927f65aff8e0552d208dfaf55b1280e55553b7dba628290897ff43c8f086d5dbfd2a94600091617aa1575b506179b1565b617aba915060203d602011614f7957614f6b8183610b56565b38617a9b565b6107ec90617998565b610802601b61187d565b610802906187b4565b617ae5816187dd565b90617af36109e76000614434565b6001600160a01b03831614617b06575090565b6127f890617b1360405190565b637e27328960e01b81529182916004830190815260200190565b61472e61080291617b3c600090565b506004610ff3565b916001916107ec936187f4565b6107ec91617b5d615351565b91618930565b6150c8906108d87ff8e1a15aba9398e019f0b49df1a4fde98ee17ae345cb5f6b5e2c27f5033e8ce7936142c9836006610ff3565b90617bc17f000000000000000000000000000000000000000000000000000000000000000061119e565b91617bcb60405190565b6315ae5acd60e11b815263ffffffff8216600482015292602084602481845afa938415614f8057600094617c51575b50617c219160209161794586637072b977617c1460405190565b9687958694859360e01b90565b03925af1908115614f8057600091617c3857509190565b612125915060203d602011617991576179898183610b56565b602091945091617c70617c2193833d8511617991576179898183610b56565b94915091617bfa565b90617cd7617c86826187dd565b936000617c9281614434565b91846001600160a01b0384166001600160a01b03831603617db3575b50506001600160a01b0382166001600160a01b03871603617d78575b506001600160a01b031690565b6001600160a01b03831603617d48575b617cfb82617cf6836002610ff3565b61344f565b617d16617d10617d0a8561119e565b9361119e565b91610fe6565b917fddf252ad1be2c89b69c2b068fc378daa952ba7f163c4a11628f55a4df523b3ef617d4160405190565b600090a490565b617d73617d556001610fe6565b617d6d617d638560036111a7565b916109838361187d565b906128ec565b617ce7565b617d84908285816187f4565b617dad617d916001610fe6565b617d6d617d9f8860036111a7565b91617da98361187d565b0390565b38617cca565b617dbd918861894a565b3884617cae565b6107ec9033906189a5565b617ddc61280c8383616694565b15617e3f57617df760016148088460006166a986603c614b7c565b617e0b617e05617d0a339390565b9161119e565b917f2f8788117e7eff1d82e926ec794901d17c78024a50270940304540a733656f0d617e3660405190565b600090a4600190565b5050600090565b90614738614daf61472e617e5c936175b6600090565b1490565b8015612ae7576000190190565b916001600160a01b0360089290920291821b911b6128e2565b9190617e976108026129039361119e565b908354617e6d565b6107ec91600091617e86565b6107ec92617f22617f11617f3193617f0a600096617ee5617ed861650e61650960016146f38b600761184e565b600461489289600761184e565b617eff617ef38260106111a7565b617d6d61666d8261187d565b617cf686600f610ff3565b60106111a7565b617d6d617f1d8261187d565b617e60565b617f3683617f31836012610ff3565b617e9f565b6011610ff3565b6107ec9060015b810190612f54565b90600003611bd8576107ec90617f3d565b6107ec906001617f44565b90600003611bd8576107ec90617f5d565b90600091617f97617f8f82600052602060002090565b928354613218565b905555565b9192906020821015617ff457601f8411600114617fbe57612903929350613218565b5090617fef6107ec936001617fe6617fdb85600052602060002090565b92601f602091010490565b82019101612f54565b617f79565b5061802d829361800b600194600052602060002090565b6132076020601f860104820192601f861680618035575b50601f602091010490565b600202179055565b61804190888603612f73565b38618022565b929091600160401b8211610b77576020111561808e57602081101561806f5761290391613218565b60019160ff191661808584600052602060002090565b55600202019055565b60019150600202019055565b9081546180a6816118b0565b908183116180ce575b8183106180bc5750505050565b6180c593617f9c565b3880808061304a565b6180da83838387618047565b6180af565b60006107ec9161809a565b90600003611bd8576107ec906180df565b600060096107ec9261810f83808301612f48565b8260018201556181228360028301617f4c565b61812f8360038301617f68565b61813c8360048301612f48565b6181498360058301612f48565b82600682015561815c8360078301612f48565b61816983600883016180ea565b01612f48565b90600003611bd8576107ec906180fb565b9061819f617f116107ec93617f0a61819985600761184e565b9061816f565b6181af6000617f3183600f610ff3565b6181bf6000617f31836012610ff3565b6181cf6000617f31836011610ff3565b6189dd565b6181de8282616694565b15617e3f576181f8600061480884826166a986603c614b7c565b618206617e05617d0a339390565b917ff6391f5c32d9c69d2a47ea670b442974b53935d1edc7fd64eb21e047a839171b617e3660405190565b1561823857565b60405162461bcd60e51b815260206004820152601060248201526f52657175657374206e6f74206d61646560801b6044820152606490fd5b9061ff009060081b6128e2565b9061828d61080261290392151590565b8254618270565b6108029061738c565b90615305565b906018906182b18383610ff3565b6182ba90611890565b6182c390618231565b6182cd8383610ff3565b6003016182d990611f6d565b600190816182e78686610ff3565b6182f1919061827d565b82826182fd8787610ff3565b0190618308916128ec565b6183139060146111a7565b61831c9061187d565b61832790600761184e565b5060020161833490618294565b61833e6000610fe6565b6183489082612aa4565b5160ff169061835683610fe6565b6183609082612aa4565b5160ff169061836f6002610fe6565b6183799082612aa4565b5160ff16906183886003610fe6565b61839191612aa4565b5160ff169161839f93618a00565b92906183aa9161829d565b906183b490610fe6565b6183bd91612ecb565b6183c691612a8a565b51916183d191610ff3565b600201906107ec916128ec565b6183e86000611a2e565b6183f182611a2e565b146184d4576184006001611a2e565b61840982611a2e565b146184c9576184186002611a2e565b61842182611a2e565b146184be576184306003611a2e565b61843982611a2e565b146184b3576184486004611a2e565b61845182611a2e565b146184a8576184636136746005611a2e565b1461849e5760405162461bcd60e51b815260206004820152600e60248201526d496e76616c69642072617269747960901b6044820152606490fd5b610802603161187d565b50610802603061187d565b50610802602f61187d565b50610802602e61187d565b50610802602d61187d565b50610802602c61187d565b6184ec6109e76000614434565b6001600160a01b0383161461854857618543618539617d0a8361491f87614808886178b27f17307eab39ab6107e8899845ad3d59bd9653f200f220920489ca2b5937696c319960056111a7565b9361082860405190565b0390a3565b6127f88261855560405190565b630b61174360e31b8152918291600483016001600160a01b03909116815260200190565b905051906107ec826107cc565b906020828203126107c75761080291618579565b6001600160a01b039182168152911660208201526108029260808201929091906185c390611a88565b606081840391015261094f565b909291833b6185e26121256000610fe6565b116185ed5750505050565b6020916185fc61491f8661119e565b9060003361862661860c60405190565b97889687958694630a85bd0160e11b86526004860161859a565b03925af16000918161869b575b50618672575061864161461b565b9061864a825190565b6186576121256000610fe6565b03618669576127f890614b5860405190565b50805190602001fd5b61868c630a85bd0160e11b5b916001600160e01b03191690565b03614b4b57503880808061304a565b6186be91925060203d6020116186c5575b6186b68183610b56565b810190618586565b9038618633565b503d6186ac565b61472e6186db916175b6600090565b6186eb6147386109e76000614434565b141590565b61098361870892602092618702815190565b94859290565b9384910161092c565b61871f9061080293926186f0565b906186f0565b61874592916107ec9161873760405190565b948592602084019283618711565b90810382520383610b56565b61875a81617adc565b5061876961758b826006610ff3565b618771618b8b565b80516187806121256000610fe6565b146187ae5781516187946121256000610fe6565b116187a457505061080290618b93565b6108029250618725565b50905090565b637965db0b60e01b6001600160e01b03198216149081156187d3575090565b6108029150618bf6565b61472e610802916187ec600090565b506002610ff3565b92919091808115618911575b618816575b505090617cf66107ec926004610ff3565b61881f83617adc565b9161882d6109e76000614434565b6001600160a01b0382161415806188f5575b806188e2575b6188b1575091617cf6916107ec9493618861575b509192618805565b61886a9061119e565b6188738461119e565b61887c83610fe6565b917f8c5be1e5ebec7d5bd14f71427d1e84f3dd0314c0f7b2291e5b200ac8c7c3b9256188a760405190565b600090a438618859565b6127f8906188be60405190565b63a9fbf51f60e01b8152918291600483016001600160a01b03909116815260200190565b506188f061280c8285617897565b618845565b506001600160a01b0381166001600160a01b038416141561883f565b5061891f6109e76000614434565b6001600160a01b0383161415618800565b906107ec92916189408282618c22565b6175a26000614434565b61895861280c848484618caa565b61896157505050565b6189716147386109e76000614434565b03618983576127f882617b1360405190565b6127f861898f60405190565b63177e802f60e01b815292839260048401614e7a565b906189b361280c8284616694565b6189bb575050565b6127f86189c760405190565b63e2517d3f60e01b815292839260048401614e7a565b6189e76000614434565b6189f8614738614daf838581617c79565b14617b065750565b9093929091600092618a31618a1485610fe6565b936159b76007946159b7618a2961359a885490565b9a8896612acc565b95835b618a3f610802855490565b811015618b4557618aa7618a73618a5f61476589600261475e878b61184e565b61360d6147656001600261475e888c61184e565b61360d6147656003618a9c6002618a8a888c61184e565b50019461360d614765600280986145ae565b9361475e878b61184e565b618ab360ff8a16612ad4565b1080618b20575b80618b08575b618ad2575b600101618a34565b618a34565b9391618b00618af9618acd926148d7618aef8a6146d08b8b61184e565b61666a8388612a8a565b9360010190565b949050618ac5565b50618b1b61280c60066146f3848861184e565b618ac0565b50618b2f61472e82600f610ff3565b618b3f6147386109e76037611f6d565b14618aba565b50939550505091618b58615b0b84612a67565b83811015618b8357806148d7618b74615934618b7e9487612a8a565b61666a8389612a8a565b618b58565b509190509190565b610802615351565b618b9c81617adc565b50618ba5618b8b565b8051618bb46121256000610fe6565b1115618bcc57618bc661080292618d52565b90618725565b5050610802615351565b611702618be36108029290565b60e01b90565b6108026349064906618bd6565b618c01611702618be9565b6001600160e01b0319821614908115618c18575090565b6108029150618de4565b90618c2d6000614434565b916001600160a01b0383166001600160a01b03821614618c9d57618c52918391617c79565b618c646001600160a01b038316614738565b03618c6c5750565b6127f890618c7960405190565b6339e3563760e11b8152918291600483016001600160a01b03909116815260200190565b6127f883614b5860405190565b90618cb86109e76000614434565b6001600160a01b03821614159283618cd1575b50505090565b919250906001600160a01b0382166001600160a01b03841614928315618d1e575b508215618d04575b5050388080618ccb565b618d16919250614daf61473891617b2d565b143880618cfa565b618d2b9193508290617897565b9138618cf2565b906107ec612a7d618d428461460e565b93610de7565b8115615310570490565b618d5b81618e2f565b90618d6c6001926109836001610fe6565b9180618d7784618d32565b936020018401905b618d895750505090565b8115618ddf57618dc39060001901926f181899199a1a9b1b9c1cb0b131b232b360811b600a82061a8453618dbd600a610fe6565b90618d48565b9081618dd26121256000610fe6565b14618ddf57909181618d7f565b618ccb565b6380ac58cd60e01b6001600160e01b0319821614908115618e14575b8115618e0a575090565b6108029150618fd1565b6001600160e01b03198116635b5e139f60e01b149150618e00565b618e396000610fe6565b907a184f03e93ff9f4daa797ed6e38ed64bf6a1f010000000000000000618e5f81610fe6565b821015618faf575b506d04ee2d6d415b85acef8100000000618e8081610fe6565b821015618f8d575b50662386f26fc10000618e9a81610fe6565b821015618f6b575b506305f5e100618eb181610fe6565b821015618f49575b50612710618ec681610fe6565b821015618f27575b50618ed96064610fe6565b811015618f05575b618eee612125600a610fe6565b1015618ef75790565b610802906109836001610fe6565b618f16618f2191618dbd6064610fe6565b916109836002610fe6565b90618ee1565b618f4291618dbd618f3792610fe6565b916109836004610fe6565b9038618ece565b618f6491618dbd618f5992610fe6565b916109836008610fe6565b9038618eb9565b618f8691618dbd618f7b92610fe6565b916109836010610fe6565b9038618ea2565b618fa891618dbd618f9d92610fe6565b916109836020610fe6565b9038618e88565b618fca91618dbd618fbf92610fe6565b916109836040610fe6565b9038618e67565b617e5c6301ffc9a760e01b61867e56fe47538340716ce4ea460b03ab331ade0bc77d177abe31d6e8e6cdbc159b7e035906aa03964db1f7257357ef09714a5f0ca3633723df419e97015e0c7a3e83edb7a26469706673582212202940aa99b0473eac514e57e4ee770eca3f51a0c3044724930757345884066b9764736f6c63430008170033",
    "linkReferences": {}
  },
  "methodIdentifiers": {
    "CALLBACK_GAS_LIMIT()": "33d608f1",
    "CommonGemsCooldownPeriod()": "77f7e499",
    "CommonGemsMiningPeriod()": "c4d2fcae",
    "CommonGemsValue()": "58bf3e65",
    "CommonMiningFees()": "4f557d27",
    "DEFAULT_ADMIN_ROLE()": "a217fddf",
    "EpicGemsCooldownPeriod()": "efa2cc29",
    "EpicGemsMiningPeriod()": "5bbffab6",
    "EpicGemsValue()": "038a7e05",
    "EpicMiningFees()": "ce8ab5df",
    "GEMIndexToApproved(uint256)": "384c252f",
    "GEMIndexToOwner(uint256)": "97125c40",
    "Gems(uint256)": "61f7f6d7",
    "LegendaryGemsCooldownPeriod()": "8fddb065",
    "LegendaryGemsMiningPeriod()": "d7a46495",
    "LegendaryGemsValue()": "a0b2d41b",
    "LegendaryMiningFees()": "dffdae02",
    "MythicGemsCooldownPeriod()": "e4b7fddf",
    "MythicGemsMiningPeriod()": "139b63f3",
    "MythicGemsValue()": "3fb310a5",
    "MythicMiningFees()": "b211d958",
    "PAUSE_ROLE()": "389ed267",
    "RareGemsCooldownPeriod()": "b78417b0",
    "RareGemsMiningPeriod()": "0de32a97",
    "RareGemsValue()": "f66f9e34",
    "RareMiningFees()": "91490c4b",
    "TREASURY_ROLE()": "d11a57ec",
    "UniqueGemsCooldownPeriod()": "1885cbbe",
    "UniqueGemsMiningPeriod()": "04e41a0b",
    "UniqueGemsValue()": "18898f36",
    "UniqueMiningFees()": "adf8627e",
    "addAdmin(address)": "70480275",
    "addBackgroundColor(string)": "1d0e0aac",
    "addColor(string)": "15341f2b",
    "addMinter(address)": "983b2d56",
    "adminTransferGEM(address,uint256)": "33158058",
    "aliveImplementation(address)": "550d01a3",
    "approve(address,uint256)": "095ea7b3",
    "backgroundColors(uint256)": "a8ce886e",
    "balanceOf(address)": "70a08231",
    "claimMinedGEM(uint256)": "7fe6fde5",
    "colors(uint256)": "bd11f69d",
    "createGEM(uint8,uint8[2],uint8[4],string)": "975781b7",
    "createGEMPool(uint8[],uint8[2][],uint8[4][],string[])": "0ff1ac67",
    "customBackgroundColors(uint8)": "ecc5e06f",
    "customBackgroundColorsCount()": "0922f513",
    "customColors(uint8)": "6b1a96fa",
    "customColorsCount()": "034294f8",
    "forgeTokens(uint256[],uint8,uint8[2])": "33fcb648",
    "gemAllowedToAddress(uint256)": "119868bb",
    "getApproved(uint256)": "081812fc",
    "getCalculatedDirectFundingPrice(uint32)": "f5494bb9",
    "getCommonMiningFees()": "629296c5",
    "getCustomColor(uint8)": "aff2a463",
    "getGem(uint256)": "aa723bb7",
    "getRareMiningFees()": "fed7b27a",
    "getRoleAdmin(bytes32)": "248a9ca3",
    "getTon()": "2bbbe94d",
    "getTreasury()": "3b19e84a",
    "getUniqueMiningFees()": "8ba24af0",
    "getWston()": "e7a523c0",
    "grantRole(bytes32,address)": "2f2ff15d",
    "hasRole(bytes32,address)": "91d14854",
    "initialize(address,address,address,uint256,uint256,uint256,uint256,uint256,uint256,uint256,uint256,uint256,uint256,uint256,uint256)": "3189983f",
    "isAdmin(address)": "24d7806c",
    "isApprovedForAll(address,address)": "e985e9c5",
    "isMinter(address)": "aa271e1a",
    "isOwner()": "8f32d59b",
    "isTokenLocked(uint256)": "276a28a3",
    "isUserMining(address)": "205fb1f8",
    "lastRequestId()": "fc2a88c3",
    "marketplace()": "abc8c7af",
    "meltGEM(uint256)": "f99a6bb5",
    "name()": "06fdde03",
    "numberOfSolidColors()": "724188bc",
    "ownerOf(uint256)": "6352211e",
    "ownerOfGEM(uint256)": "bd81009f",
    "ownershipTokenCount(address)": "cec21acb",
    "pause()": "8456cb59",
    "pauseProxy()": "63a8fd89",
    "paused()": "5c975abb",
    "preMintedGemsAvailable()": "c28fb6b7",
    "proxyImplementation(uint256)": "b911135f",
    "rawFulfillRandomWords(uint256,uint256)": "37ed11db",
    "removeAdmin(address)": "1785f53c",
    "removeMinter(address)": "3092afd5",
    "renounceMinter()": "98650275",
    "renounceOwnership()": "715018a6",
    "renounceRole(bytes32,address)": "36568abe",
    "requestCount()": "5badbe4c",
    "requestIds(uint256)": "8796ba8c",
    "revokeMinter(address)": "cfbd4885",
    "revokeRole(bytes32,address)": "d547741f",
    "s_requests(uint256)": "a168fa89",
    "safeTransferFrom(address,address,uint256)": "42842e0e",
    "safeTransferFrom(address,address,uint256,bytes)": "b88d4fde",
    "selectorImplementation(bytes4)": "50d2a276",
    "setApprovalForAll(address,bool)": "a22cb465",
    "setApprovalForMarketplace()": "0491fd3e",
    "setGemsCooldownPeriods(uint256,uint256,uint256,uint256,uint256,uint256)": "ad0d3d3f",
    "setGemsMiningPeriods(uint256,uint256,uint256,uint256,uint256,uint256)": "0c7254a0",
    "setIsLocked(uint256,bool)": "4d723a75",
    "setMarketPlaceAddress(address)": "cc98ef96",
    "setNumberOfSolidColors(uint8)": "9a66af62",
    "startMiningGEM(uint256)": "1da0fc9c",
    "supportsInterface(bytes4)": "01ffc9a7",
    "symbol()": "95d89b41",
    "tokenMiningByUser(address)": "c1389072",
    "tokenReadyToMine(uint256)": "7866369b",
    "tokenURI(uint256)": "c87b56dd",
    "tokensOfOwner(address)": "8462151c",
    "ton()": "cc48b947",
    "totalSupply()": "18160ddd",
    "transferAdmin(address)": "75829def",
    "transferFrom(address,address,uint256)": "23b872dd",
    "transferGEM(address,uint256)": "337d54a1",
    "transferGEMFrom(address,address,uint256)": "d6bb7ba0",
    "transferOwnership(address)": "f2fde38b",
    "treasury()": "61d027b3",
    "unpause()": "3f4ba83a",
    "userMiningStartTime(address,uint256)": "676f79f1",
    "userMiningToken(address,uint256)": "a1770a7d",
    "wston()": "36b17e13"
  },
  "id": 53
}