{
  "abi": [
    {
      "type": "function",
      "name": "ADMIN_ROLE",
      "inputs": [],
      "outputs": [
        {
          "name": "",
          "type": "bytes32",
          "internalType": "bytes32"
        }
      ],
      "stateMutability": "view"
    },
    {
      "type": "function",
      "name": "DECIMALS",
      "inputs": [],
      "outputs": [
        {
          "name": "",
          "type": "uint256",
          "internalType": "uint256"
        }
      ],
      "stateMutability": "view"
    },
    {
      "type": "function",
      "name": "DEFAULT_ADMIN_ROLE",
      "inputs": [],
      "outputs": [
        {
          "name": "",
          "type": "bytes32",
          "internalType": "bytes32"
        }
      ],
      "stateMutability": "view"
    },
    {
      "type": "function",
      "name": "PAUSE_ROLE",
      "inputs": [],
      "outputs": [
        {
          "name": "",
          "type": "bytes32",
          "internalType": "bytes32"
        }
      ],
      "stateMutability": "view"
    },
    {
      "type": "function",
      "name": "TON_FEES_RATE_DIVIDER",
      "inputs": [],
      "outputs": [
        {
          "name": "",
          "type": "uint256",
          "internalType": "uint256"
        }
      ],
      "stateMutability": "view"
    },
    {
      "type": "function",
      "name": "addAdmin",
      "inputs": [
        {
          "name": "account",
          "type": "address",
          "internalType": "address"
        }
      ],
      "outputs": [],
      "stateMutability": "nonpayable"
    },
    {
      "type": "function",
      "name": "addPauser",
      "inputs": [
        {
          "name": "account",
          "type": "address",
          "internalType": "address"
        }
      ],
      "outputs": [],
      "stateMutability": "nonpayable"
    },
    {
      "type": "function",
      "name": "aliveImplementation",
      "inputs": [
        {
          "name": "",
          "type": "address",
          "internalType": "address"
        }
      ],
      "outputs": [
        {
          "name": "",
          "type": "bool",
          "internalType": "bool"
        }
      ],
      "stateMutability": "view"
    },
    {
      "type": "function",
      "name": "buyGem",
      "inputs": [
        {
          "name": "_tokenId",
          "type": "uint256",
          "internalType": "uint256"
        },
        {
          "name": "_paymentMethod",
          "type": "bool",
          "internalType": "bool"
        }
      ],
      "outputs": [],
      "stateMutability": "nonpayable"
    },
    {
      "type": "function",
      "name": "gemsForSale",
      "inputs": [
        {
          "name": "",
          "type": "uint256",
          "internalType": "uint256"
        }
      ],
      "outputs": [
        {
          "name": "seller",
          "type": "address",
          "internalType": "address"
        },
        {
          "name": "price",
          "type": "uint256",
          "internalType": "uint256"
        },
        {
          "name": "isActive",
          "type": "bool",
          "internalType": "bool"
        }
      ],
      "stateMutability": "view"
    },
    {
      "type": "function",
      "name": "getGemFactoryAddress",
      "inputs": [],
      "outputs": [
        {
          "name": "",
          "type": "address",
          "internalType": "address"
        }
      ],
      "stateMutability": "view"
    },
    {
      "type": "function",
      "name": "getGemForSale",
      "inputs": [
        {
          "name": "_tokenId",
          "type": "uint256",
          "internalType": "uint256"
        }
      ],
      "outputs": [
        {
          "name": "",
          "type": "tuple",
          "internalType": "struct MarketPlaceStorage.Sale",
          "components": [
            {
              "name": "seller",
              "type": "address",
              "internalType": "address"
            },
            {
              "name": "price",
              "type": "uint256",
              "internalType": "uint256"
            },
            {
              "name": "isActive",
              "type": "bool",
              "internalType": "bool"
            }
          ]
        }
      ],
      "stateMutability": "view"
    },
    {
      "type": "function",
      "name": "getPauseStatus",
      "inputs": [],
      "outputs": [
        {
          "name": "",
          "type": "bool",
          "internalType": "bool"
        }
      ],
      "stateMutability": "view"
    },
    {
      "type": "function",
      "name": "getPaused",
      "inputs": [],
      "outputs": [
        {
          "name": "",
          "type": "bool",
          "internalType": "bool"
        }
      ],
      "stateMutability": "view"
    },
    {
      "type": "function",
      "name": "getRoleAdmin",
      "inputs": [
        {
          "name": "role",
          "type": "bytes32",
          "internalType": "bytes32"
        }
      ],
      "outputs": [
        {
          "name": "",
          "type": "bytes32",
          "internalType": "bytes32"
        }
      ],
      "stateMutability": "view"
    },
    {
      "type": "function",
      "name": "getStakingIndex",
      "inputs": [],
      "outputs": [
        {
          "name": "",
          "type": "uint256",
          "internalType": "uint256"
        }
      ],
      "stateMutability": "view"
    },
    {
      "type": "function",
      "name": "getTonAddress",
      "inputs": [],
      "outputs": [
        {
          "name": "",
          "type": "address",
          "internalType": "address"
        }
      ],
      "stateMutability": "view"
    },
    {
      "type": "function",
      "name": "getTonFeesRate",
      "inputs": [],
      "outputs": [
        {
          "name": "",
          "type": "uint256",
          "internalType": "uint256"
        }
      ],
      "stateMutability": "view"
    },
    {
      "type": "function",
      "name": "getTreasuryAddress",
      "inputs": [],
      "outputs": [
        {
          "name": "",
          "type": "address",
          "internalType": "address"
        }
      ],
      "stateMutability": "view"
    },
    {
      "type": "function",
      "name": "getWstonAddress",
      "inputs": [],
      "outputs": [
        {
          "name": "",
          "type": "address",
          "internalType": "address"
        }
      ],
      "stateMutability": "view"
    },
    {
      "type": "function",
      "name": "grantRole",
      "inputs": [
        {
          "name": "role",
          "type": "bytes32",
          "internalType": "bytes32"
        },
        {
          "name": "account",
          "type": "address",
          "internalType": "address"
        }
      ],
      "outputs": [],
      "stateMutability": "nonpayable"
    },
    {
      "type": "function",
      "name": "hasRole",
      "inputs": [
        {
          "name": "role",
          "type": "bytes32",
          "internalType": "bytes32"
        },
        {
          "name": "account",
          "type": "address",
          "internalType": "address"
        }
      ],
      "outputs": [
        {
          "name": "",
          "type": "bool",
          "internalType": "bool"
        }
      ],
      "stateMutability": "view"
    },
    {
      "type": "function",
      "name": "initialize",
      "inputs": [
        {
          "name": "_treasury",
          "type": "address",
          "internalType": "address"
        },
        {
          "name": "_gemfactory",
          "type": "address",
          "internalType": "address"
        },
        {
          "name": "_tonFeesRate",
          "type": "uint256",
          "internalType": "uint256"
        },
        {
          "name": "_wston",
          "type": "address",
          "internalType": "address"
        },
        {
          "name": "_ton",
          "type": "address",
          "internalType": "address"
        }
      ],
      "outputs": [],
      "stateMutability": "nonpayable"
    },
    {
      "type": "function",
      "name": "isAdmin",
      "inputs": [
        {
          "name": "account",
          "type": "address",
          "internalType": "address"
        }
      ],
      "outputs": [
        {
          "name": "",
          "type": "bool",
          "internalType": "bool"
        }
      ],
      "stateMutability": "view"
    },
    {
      "type": "function",
      "name": "isOwner",
      "inputs": [],
      "outputs": [
        {
          "name": "",
          "type": "bool",
          "internalType": "bool"
        }
      ],
      "stateMutability": "view"
    },
    {
      "type": "function",
      "name": "isPauser",
      "inputs": [
        {
          "name": "account",
          "type": "address",
          "internalType": "address"
        }
      ],
      "outputs": [
        {
          "name": "",
          "type": "bool",
          "internalType": "bool"
        }
      ],
      "stateMutability": "view"
    },
    {
      "type": "function",
      "name": "pause",
      "inputs": [],
      "outputs": [],
      "stateMutability": "nonpayable"
    },
    {
      "type": "function",
      "name": "pauseProxy",
      "inputs": [],
      "outputs": [
        {
          "name": "",
          "type": "bool",
          "internalType": "bool"
        }
      ],
      "stateMutability": "view"
    },
    {
      "type": "function",
      "name": "proxyImplementation",
      "inputs": [
        {
          "name": "",
          "type": "uint256",
          "internalType": "uint256"
        }
      ],
      "outputs": [
        {
          "name": "",
          "type": "address",
          "internalType": "address"
        }
      ],
      "stateMutability": "view"
    },
    {
      "type": "function",
      "name": "putGemForSale",
      "inputs": [
        {
          "name": "_tokenId",
          "type": "uint256",
          "internalType": "uint256"
        },
        {
          "name": "_price",
          "type": "uint256",
          "internalType": "uint256"
        }
      ],
      "outputs": [],
      "stateMutability": "nonpayable"
    },
    {
      "type": "function",
      "name": "putGemListForSale",
      "inputs": [
        {
          "name": "tokenIds",
          "type": "uint256[]",
          "internalType": "uint256[]"
        },
        {
          "name": "prices",
          "type": "uint256[]",
          "internalType": "uint256[]"
        }
      ],
      "outputs": [],
      "stateMutability": "nonpayable"
    },
    {
      "type": "function",
      "name": "removeAdmin",
      "inputs": [],
      "outputs": [],
      "stateMutability": "nonpayable"
    },
    {
      "type": "function",
      "name": "removeGemForSale",
      "inputs": [
        {
          "name": "_tokenId",
          "type": "uint256",
          "internalType": "uint256"
        }
      ],
      "outputs": [],
      "stateMutability": "nonpayable"
    },
    {
      "type": "function",
      "name": "removePauser",
      "inputs": [
        {
          "name": "account",
          "type": "address",
          "internalType": "address"
        }
      ],
      "outputs": [],
      "stateMutability": "nonpayable"
    },
    {
      "type": "function",
      "name": "renounceRole",
      "inputs": [
        {
          "name": "role",
          "type": "bytes32",
          "internalType": "bytes32"
        },
        {
          "name": "callerConfirmation",
          "type": "address",
          "internalType": "address"
        }
      ],
      "outputs": [],
      "stateMutability": "nonpayable"
    },
    {
      "type": "function",
      "name": "revokeRole",
      "inputs": [
        {
          "name": "role",
          "type": "bytes32",
          "internalType": "bytes32"
        },
        {
          "name": "account",
          "type": "address",
          "internalType": "address"
        }
      ],
      "outputs": [],
      "stateMutability": "nonpayable"
    },
    {
      "type": "function",
      "name": "selectorImplementation",
      "inputs": [
        {
          "name": "",
          "type": "bytes4",
          "internalType": "bytes4"
        }
      ],
      "outputs": [
        {
          "name": "",
          "type": "address",
          "internalType": "address"
        }
      ],
      "stateMutability": "view"
    },
    {
      "type": "function",
      "name": "setDiscountRate",
      "inputs": [
        {
          "name": "_tonFeesRate",
          "type": "uint256",
          "internalType": "uint256"
        }
      ],
      "outputs": [],
      "stateMutability": "nonpayable"
    },
    {
      "type": "function",
      "name": "setStakingIndex",
      "inputs": [
        {
          "name": "_stakingIndex",
          "type": "uint256",
          "internalType": "uint256"
        }
      ],
      "outputs": [],
      "stateMutability": "nonpayable"
    },
    {
      "type": "function",
      "name": "supportsInterface",
      "inputs": [
        {
          "name": "interfaceId",
          "type": "bytes4",
          "internalType": "bytes4"
        }
      ],
      "outputs": [
        {
          "name": "",
          "type": "bool",
          "internalType": "bool"
        }
      ],
      "stateMutability": "view"
    },
    {
      "type": "function",
      "name": "transferOwnership",
      "inputs": [
        {
          "name": "newOwner",
          "type": "address",
          "internalType": "address"
        }
      ],
      "outputs": [],
      "stateMutability": "nonpayable"
    },
    {
      "type": "function",
      "name": "unpause",
      "inputs": [],
      "outputs": [],
      "stateMutability": "nonpayable"
    },
    {
      "type": "event",
      "name": "GemBought",
      "inputs": [
        {
          "name": "tokenId",
          "type": "uint256",
          "indexed": false,
          "internalType": "uint256"
        },
        {
          "name": "payer",
          "type": "address",
          "indexed": false,
          "internalType": "address"
        },
        {
          "name": "seller",
          "type": "address",
          "indexed": false,
          "internalType": "address"
        },
        {
          "name": "amount",
          "type": "uint256",
          "indexed": false,
          "internalType": "uint256"
        }
      ],
      "anonymous": false
    },
    {
      "type": "event",
      "name": "GemForSale",
      "inputs": [
        {
          "name": "tokenId",
          "type": "uint256",
          "indexed": false,
          "internalType": "uint256"
        },
        {
          "name": "seller",
          "type": "address",
          "indexed": false,
          "internalType": "address"
        },
        {
          "name": "price",
          "type": "uint256",
          "indexed": false,
          "internalType": "uint256"
        }
      ],
      "anonymous": false
    },
    {
      "type": "event",
      "name": "GemRemovedFromSale",
      "inputs": [
        {
          "name": "tokenId",
          "type": "uint256",
          "indexed": false,
          "internalType": "uint256"
        }
      ],
      "anonymous": false
    },
    {
      "type": "event",
      "name": "RoleAdminChanged",
      "inputs": [
        {
          "name": "role",
          "type": "bytes32",
          "indexed": true,
          "internalType": "bytes32"
        },
        {
          "name": "previousAdminRole",
          "type": "bytes32",
          "indexed": true,
          "internalType": "bytes32"
        },
        {
          "name": "newAdminRole",
          "type": "bytes32",
          "indexed": true,
          "internalType": "bytes32"
        }
      ],
      "anonymous": false
    },
    {
      "type": "event",
      "name": "RoleGranted",
      "inputs": [
        {
          "name": "role",
          "type": "bytes32",
          "indexed": true,
          "internalType": "bytes32"
        },
        {
          "name": "account",
          "type": "address",
          "indexed": true,
          "internalType": "address"
        },
        {
          "name": "sender",
          "type": "address",
          "indexed": true,
          "internalType": "address"
        }
      ],
      "anonymous": false
    },
    {
      "type": "event",
      "name": "RoleRevoked",
      "inputs": [
        {
          "name": "role",
          "type": "bytes32",
          "indexed": true,
          "internalType": "bytes32"
        },
        {
          "name": "account",
          "type": "address",
          "indexed": true,
          "internalType": "address"
        },
        {
          "name": "sender",
          "type": "address",
          "indexed": true,
          "internalType": "address"
        }
      ],
      "anonymous": false
    },
    {
      "type": "event",
      "name": "SetDiscountRate",
      "inputs": [
        {
          "name": "discountRate",
          "type": "uint256",
          "indexed": false,
          "internalType": "uint256"
        }
      ],
      "anonymous": false
    },
    {
      "type": "event",
      "name": "SetStakingIndex",
      "inputs": [
        {
          "name": "stakingIndex",
          "type": "uint256",
          "indexed": false,
          "internalType": "uint256"
        }
      ],
      "anonymous": false
    },
    {
      "type": "event",
      "name": "WSTONClaimed",
      "inputs": [
        {
          "name": "tokenId",
          "type": "uint256",
          "indexed": false,
          "internalType": "uint256"
        },
        {
          "name": "claimer",
          "type": "address",
          "indexed": false,
          "internalType": "address"
        }
      ],
      "anonymous": false
    },
    {
      "type": "error",
      "name": "AccessControlBadConfirmation",
      "inputs": []
    },
    {
      "type": "error",
      "name": "AccessControlUnauthorizedAccount",
      "inputs": [
        {
          "name": "account",
          "type": "address",
          "internalType": "address"
        },
        {
          "name": "neededRole",
          "type": "bytes32",
          "internalType": "bytes32"
        }
      ]
    },
    {
      "type": "error",
      "name": "AddressZero",
      "inputs": []
    },
    {
      "type": "error",
      "name": "AlreadyInitialized",
      "inputs": []
    },
    {
      "type": "error",
      "name": "BuyerIsSeller",
      "inputs": [
        {
          "name": "errorMessage",
          "type": "string",
          "internalType": "string"
        }
      ]
    },
    {
      "type": "error",
      "name": "GemIsAlreadyForSaleOrIsMining",
      "inputs": []
    },
    {
      "type": "error",
      "name": "GemIsNotForSale",
      "inputs": []
    },
    {
      "type": "error",
      "name": "GemNotApproved",
      "inputs": []
    },
    {
      "type": "error",
      "name": "ListingGemFailed",
      "inputs": []
    },
    {
      "type": "error",
      "name": "NoTokens",
      "inputs": []
    },
    {
      "type": "error",
      "name": "NotGemOwner",
      "inputs": []
    },
    {
      "type": "error",
      "name": "NotPaused",
      "inputs": []
    },
    {
      "type": "error",
      "name": "Paused",
      "inputs": []
    },
    {
      "type": "error",
      "name": "PurchaseFailed",
      "inputs": []
    },
    {
      "type": "error",
      "name": "ReentrancyGuardReentrantCall",
      "inputs": []
    },
    {
      "type": "error",
      "name": "SameAdmin",
      "inputs": []
    },
    {
      "type": "error",
      "name": "SameOwner",
      "inputs": []
    },
    {
      "type": "error",
      "name": "WrongLength",
      "inputs": []
    },
    {
      "type": "error",
      "name": "WrongPrice",
      "inputs": []
    },
    {
      "type": "error",
      "name": "WrongSeller",
      "inputs": []
    },
    {
      "type": "error",
      "name": "WrongStakingIndex",
      "inputs": []
    },
    {
      "type": "error",
      "name": "ZeroAddress",
      "inputs": []
    }
  ],
  "bytecode": {
    "object": "0x60806040523461002257610011610027565b604051612267610123823961226790f35b600080fd5b61002f610031565b565b61002f61002f61002f61002f61002f61002f61002f610090565b6100586100586100589290565b90565b610058600161004b565b90600019905b9181191691161790565b9061008561005861008c9261004b565b8254610065565b9055565b6100986100f3565b61002f6100a361005b565b600c610075565b9060ff9061006b565b151590565b906100c861005861008c926100b3565b82546100aa565b9061ff009060081b61006b565b906100ec61005861008c926100b3565b82546100cf565b61010a6b033b2e3c9fd0803ce8000000600a610075565b6101166000600b6100b8565b61002f6000600b6100dc56fe6080604052600436101561001257600080fd5b60003560e01c806301ffc9a7146102ad57806302424ed3146102a8578063044bc779146102a357806308ec897d1461029e5780631d9023cb14610253578063248a9ca31461029957806324d7806c146102945780632e0f26251461028f5780632ede64321461028a5780632f2ff15d1461028557806333e1a2231461028057806336568abe1461027b578063389ed267146102765780633f4ba83a1461027157806346fbf68e1461026c5780635074e0c81461026757806350d2a27614610262578063550d01a31461025d57806363a8fd89146102585780636805b84b146102535780636ae638d01461024e5780636b2c0f5514610249578063704802751461024457806375b238fc1461023f57806379dbd7981461023a5780637c69febd1461023557806382dc1ec4146102305780638456cb591461022b5780638f32d59b1461022657806391d14854146102215780639a202d471461021c5780639c41b42b146102175780639d541be214610212578063a217fddf1461020d578063a69c8fb214610208578063adad692614610203578063b911135f146101fe578063c255bf16146101f9578063ce49a360146101f4578063d547741f146101ef578063e0024604146101ea5763f2fde38b036102b257610c05565b610bea565b610bd1565b610bb9565b610b92565b610b35565b610b0d565b610af2565b610ad7565b610aaa565b610a80565b6109cb565b6109af565b610994565b61097c565b610964565b61094c565b610933565b6107fd565b6107b9565b6107a1565b610786565b610430565b61076b565b610745565b6106cb565b610662565b610647565b61062f565b610614565b6105cf565b6105b3565b610555565b610519565b6104db565b6104a4565b61045f565b610405565b6103be565b610370565b6102f4565b600080fd5b6001600160e01b031981165b036102b257565b905035906102d7826102b7565b565b906020828203126102b2576102ed916102ca565b90565b9052565b346102b25761032161030f61030a3660046102d9565b610c1d565b60405191829182901515815260200190565b0390f35b806102c3565b905035906102d782610325565b8015156102c3565b905035906102d782610338565b91906040838203126102b2576102ed906020610369828661032b565b9401610340565b346102b25761038961038336600461034d565b90610c7f565b604051005b60009103126102b257565b6001600160a01b031690565b6102f090610399565b6020810192916102d791906103a5565b346102b2576103ce36600461038e565b6103216103d9610c89565b604051918291826103ae565b6102ed6102ed6102ed9290565b6102ed6127106103e5565b6102ed6103f2565b346102b25761041536600461038e565b6103216104206103fd565b6040519182918290815260200190565b346102b25761044036600461038e565b61032161030f610c93565b906020828203126102b2576102ed9161032b565b346102b25761032161042061047536600461044b565b610ca3565b6102c381610399565b905035906102d78261047a565b906020828203126102b2576102ed91610483565b346102b25761032161030f6104ba366004610490565b610cc2565b6102ed676765c793fa10079d601b1b6103e5565b6102ed6104bf565b346102b2576104eb36600461038e565b6103216104206104d3565b91906040838203126102b2576102ed906020610512828661032b565b940161032b565b346102b25761038961052c3660046104f6565b90610ded565b91906040838203126102b2576102ed90602061054e828661032b565b9401610483565b346102b257610389610568366004610532565b90610e1a565b919060a0838203126102b2576105848184610483565b926105928260208301610483565b926102ed6105a3846040850161032b565b93608061054e8260608701610483565b346102b2576103896105c636600461056e565b93929092610eaf565b346102b2576103896105e2366004610532565b90610f25565b7ffcb9fcbfa83b897fb2d5cf4b58962164105c1e71489a37ef3ae0db3fdce576f690565b6102ed6105e8565b346102b25761062436600461038e565b61032161042061060c565b346102b25761063f36600461038e565b61038961101a565b346102b25761032161030f61065d366004610490565b611022565b346102b25761067236600461038e565b61032161042061102e565b906001600160e01b0319165b600052602052604060002090565b6102ed916008021c6001600160a01b031690565b906102ed9154610697565b60006106c66102ed92600361067d565b6106ab565b346102b2576103216103d96106e13660046102d9565b6106b6565b6102ed90610399906001600160a01b031682565b6102ed906106e6565b6102ed906106fa565b9061068990610703565b6102ed916008021c5b60ff1690565b906102ed9154610716565b60006107406102ed92600261070c565b610725565b346102b25761032161030f61075b366004610490565b610730565b6102ed600080610725565b346102b25761077b36600461038e565b61032161030f610760565b346102b25761079636600461038e565b6103216103d9611038565b346102b2576103896107b4366004610490565b6110e9565b346102b2576103896107cc366004610490565b611112565b7fdf8b4c520ffe197c5343c6f5aec59570151ef9a492f2c624fd45ddde6135ec4290565b6102ed6107d1565b346102b25761080d36600461038e565b6103216104206107f5565b634e487b7160e01b600052604160045260246000fd5b90601f01601f191681019081106001600160401b0382111761084f57604052565b610818565b906102d761086160405190565b928361082e565b6001600160401b03811161084f5760208091020190565b9092919261089461088f82610868565b610854565b93818552602080860192028301928184116102b257915b8383106108b85750505050565b602080916108c6848661032b565b8152019201916108ab565b9080601f830112156102b2578160206102ed9335910161087f565b9190916040818403126102b25780356001600160401b0381116102b257836109159183016108d1565b9260208201356001600160401b0381116102b2576102ed92016108d1565b346102b2576103896109463660046108ec565b90611290565b346102b25761038961095f36600461044b565b6112de565b346102b257610389610977366004610490565b611302565b346102b25761098c36600461038e565b610389611336565b346102b2576109a436600461038e565b61032161030f61133e565b346102b25761032161030f6109c5366004610532565b90611349565b346102b2576109db36600461038e565b6103896113e7565b90610689906103e5565b6102ed90610399565b6102ed90546109ed565b6102ed9081565b6102ed9054610a00565b6102ed9061071f565b6102ed9054610a11565b610a2f9060046109e3565b610a38816109f6565b916102ed6002610a4a60018501610a07565b9301610a1a565b604090610a786102d79496959396610a71606084019860008501906103a5565b6020830152565b019015159052565b346102b257610321610a9b610a9636600461044b565b610a24565b60405191939193849384610a51565b346102b257610aba36600461038e565b6103216103d96113ef565b6102ed60006103e5565b6102ed610ac5565b346102b257610ae736600461038e565b610321610420610acf565b346102b257610b0236600461038e565b6103216104206113f9565b346102b257610389610b2036600461044b565b611649565b60006106c66102ed9260016109e3565b346102b2576103216103d9610b4b36600461044b565b610b25565b906040806102d793610b6a600082015160008601906103a5565b610b7960208201516020860152565b01511515910152565b6060810192916102d79190610b50565b346102b257610321610bad610ba836600461044b565b6116d6565b60405191829182610b82565b346102b257610389610bcc36600461044b565b61175d565b346102b257610389610be4366004610532565b90611781565b346102b257610bfa36600461038e565b6103216103d961178b565b346102b257610389610c18366004610490565b611837565b6102ed90611840565b90610c31600b610a1a565b610c3e576102d791610c54565b6040516313d0ff5960e31b8152600490fd5b0390fd5b610c6791610c63913390611de7565b1590565b610c6d57565b6040516353afcfe360e01b8152600490fd5b906102d791610c26565b6102ed60086109f6565b6102ed600b610a1a565b90610689565b6001610cbc6102ed92610cb4600090565b50600d610c9d565b01610a07565b6102ed90610cce6107d1565b611349565b90610cde600b610a1a565b610c3e576102d791610d18565b905051906102d78261047a565b906020828203126102b2576102ed91610ceb565b6040513d6000823e3d90fd5b610d2d610d28610d2860066109f6565b610703565b6020610d3860405190565b63020604bf60e21b81526004810184905291829060249082905afa908115610de857600091610db9575b50610d7d610d77610d7230610703565b610399565b91610399565b03610da757610d8f91610c6391611e68565b610d9557565b60405163176479df60e01b8152600490fd5b60405163077ad1ed60e51b8152600490fd5b610ddb915060203d602011610de1575b610dd3818361082e565b810190610cf8565b38610d62565b503d610dc9565b610d0c565b906102d791610cd3565b906102d791610e0d610e0882610ca3565b612087565b90610e1791612092565b50565b906102d791610df7565b6102ed9060081c61071f565b6102ed9054610e24565b90600019905b9181191691161790565b90610e5a6102ed610e61926103e5565b8254610e3a565b9055565b906001600160a01b0390610e40565b90610e846102ed610e6192610703565b8254610e65565b9061ff009060081b610e40565b90610ea86102ed610e6192151590565b8254610e8b565b939290610ebc600b610e30565b610f1457610f0894610ef3610efa92610eec610f0196610ee4610edd610ac5565b3390612092565b506005610e4a565b6006610e74565b6007610e74565b6008610e74565b6009610e74565b6102d76001600b610e98565b60405162dc149f60e41b8152600490fd5b90610f2f33610399565b610f3882610399565b03610f4657610e1791612114565b60405163334bd91960e11b8152600490fd5b15610f5f57565b60405162461bcd60e51b8152602060048201526024808201527f41757468436f6e74726f6c3a2043616c6c6572206973206e6f7420746865206f6044820152633bb732b960e11b6064820152608490fd5b610fc0610fbb61133e565b610f58565b6102d7610fd0610c63600b610a1a565b610fdc576102d761100e565b604051636cd6020160e01b8152600490fd5b9060ff90610e40565b906110076102ed610e6192151590565b8254610fee565b6102d76000600b610ff7565b6102d7610fb0565b6102ed90610cce6105e8565b6102ed600a610a07565b6102ed60096109f6565b1561104957565b60405162461bcd60e51b815260206004820152602360248201527f41757468436f6e74726f6c3a2043616c6c6572206973206e6f7420612070617560448201526239b2b960e91b6064820152608490fd5b6102d7906110b06110a96105e8565b3390611349565b80156110c5575b6110c090611042565b6110d8565b506110c06110d161133e565b90506110b7565b6102d7906110e46105e8565b610f25565b6102d79061109a565b6102d790611101610fbb61133e565b6102d79061110d6107d1565b610e1a565b6102d7906110f2565b90611126600b610a1a565b610c3e576102d791611168565b634e487b7160e01b600052603260045260246000fd5b90611152825190565b811015611163576020809102010190565b611133565b805192611173835190565b9060009161118160006103e5565b861461127e57850361126c5761119760006103e5565b85811015611264576111ed60206111b4610d28610d2860066109f6565b6111c56111c18589611149565b5190565b906111cf60405190565b9384928391829163020604bf60e21b83526004830190815260200190565b03915afa908115610de8578491611246575b5061120f610d77610d7230610703565b03610da75761123a610c636112276111c18488611149565b6112346111c1858a611149565b90611e68565b610d9557600101611197565b61125e915060203d8111610de157610dd3818361082e565b386111ff565b509350505050565b6040516349552d5960e11b8152600490fd5b60405163df95788360e01b8152600490fd5b906102d79161111b565b6102d7906112a9610fbb61133e565b6112d97f21a8eefc17e9c864964b5a4c0769d87f39cc0a7576773159e12358bc0095ffc591610420816005610e4a565b0390a1565b6102d79061129a565b6102d7906112f6610fbb61133e565b6102d79061110d6105e8565b6102d7906112e7565b611316610fbb61133e565b6102d7611323600b610a1a565b610c3e576102d76102d76001600b610ff7565b6102d761130b565b6102ed6110a9610ac5565b6102ed91600061135e61136493610cb4600090565b0161070c565b610a1a565b1561137057565b60405162461bcd60e51b815260206004820152602360248201527f41757468436f6e74726f6c3a2043616c6c6572206973206e6f7420616e20616460448201526236b4b760e91b6064820152608490fd5b6113d26113cd33610cc2565b611369565b6102d76102d76113e06107d1565b3390610f25565b6102d76113c1565b6102ed60066109f6565b6102ed6005610a07565b61140d600b610a1a565b610c3e576102d7906114ae565b9081526040810192916102d791602090610a78565b9160001960089290920291821b911b610e40565b91906114546102ed610e61936103e5565b90835461142f565b6102d791600091611443565b60008082559060029061147e836001830161145c565b0155565b634e487b7160e01b600052600060045260246000fd5b906000036114a9576102d790611468565b611482565b60046114c560026114bf84846109e3565b01610a1a565b6114d160015b91151590565b0361162a576114e6610d28610d2860066109f6565b60206114f160405190565b9182906331a9108f60e11b825281806115108888830190815260200190565b03915afa908115610de85760009161160b575b50611530610d7733610399565b036115ec57611545610d28610d2860066109f6565b91600091833b156102b2578261155a60405190565b948590634d723a7560e01b8252818381611577828989840161141a565b03925af1928315610de8576115bb83610420937f05e530d2932a31001c9cde048b350c93ce3ffea36cf640e4473b8da9e62ac1bb976112d9976115c0575b506109e3565b611498565b6115df90853d87116115e5575b6115d7818361082e565b81019061038e565b386115b5565b503d6115cd565b610c50906115f960405190565b6302b327b560e41b8152918291820190565b611624915060203d602011610de157610dd3818361082e565b38611523565b610c509061163760405190565b6374f0c4bb60e11b8152918291820190565b6102d790611403565b6102ed6060610854565b611664611652565b600080825260208201819052604082015290565b6102ed61165c565b906102f090610399565b906102d76116c4600261169b611652565b946116ae6116a8826109f6565b87611680565b6114bf6116bd60018301610a07565b6020880152565b15156040840152565b6102ed9061168a565b6116ed6102ed916116e5611678565b5060046109e3565b6116cd565b6102d790611701610fbb61133e565b611715676765c793fa10079d601b1b6103e5565b811061174b576112d9816104207fa597abe6b82f0190c1192d690059f8a214908502cdc266fde36fd659711948d993600a610e4a565b6040516373fd31f360e01b8152600490fd5b6102d7906116f2565b906102d791611777610e0882610ca3565b90610e1791612114565b906102d791611766565b6102ed60076109f6565b6102d7906117a4610fbb61133e565b6117bf565b6103996102ed6102ed9290565b6102ed906117a9565b6117cc610d7260006117b6565b6117d582610399565b14611825576117e381610399565b6117ec33610399565b14611813576102d7906113e0611800610ac5565b9161180b8184610e1a565b61110d6107d1565b604051630a98f1f360e21b8152600490fd5b60405163d92e233d60e01b8152600490fd5b6102d790611795565b637965db0b60e01b6001600160e01b031982161490811561185f575090565b6102ed91506001600160e01b0319166301ffc9a760e01b1490565b9061188e93929161188961217b565b611979565b906102d76121bb565b634e487b7160e01b600052601160045260246000fd5b818102929181159184041417156118c057565b611897565b634e487b7160e01b600052601260045260246000fd5b81156118e5570490565b6118c5565b919082018092116118c057565b905051906102d782610338565b906020828203126102b2576102ed916118f7565b6040906119426102d79496959396611938606084019860008501906103a5565b60208301906103a5565b0152565b6119426102d79461196f606094989795611965608086019a6000870152565b60208501906103a5565b60408301906103a5565b50916000611989610d72826117b6565b61199284610399565b14611dd5576004916119ac610c6360026114bf88876109e3565b611dc8576119bf6001610cbc87866109e3565b906119d4836119ce88876109e3565b016109f6565b906119de82610399565b6119e733610399565b1480611daf575b611d5c5715611ba05781602082611a0b610d28610d2860086109f6565b888789611a33611a1a60405190565b978896879586946323b872dd60e01b5b86528501611918565b03925af18015610de857611b73575b505b611a5a836002611a5489886109e3565b01610ff7565b611a6a610d28610d2860066109f6565b803b156102b2578380611aa0928982611a8260405190565b809681958294611a96634d723a7560e01b90565b84528d840161141a565b03925af18015610de857611b57575b50611ac0610d28610d2860066109f6565b803b156102b25785849183838a98611aee611ada60405190565b9c8d96879586946323b872dd60e01b611a2a565b03925af1928315610de8577f429a311c86d807d248190c8540973d38711c40cabad4c6266ef4b9a7ae6cdc3c96611b3294611b3a575b505060405194859485611946565b0390a1600190565b81611b5092903d106115e5576115d7818361082e565b3880611b24565b611b6d90843d86116115e5576115d7818361082e565b38611aaf565b611b949060203d602011611b99575b611b8c818361082e565b810190611904565b611a42565b503d611b82565b611bf3611bee611bca611bbc611bb6600a610a07565b866118ad565b611bc46104bf565b906118db565b611be8611be0611bda6005610a07565b836118ad565b611bc46103f2565b906118ea565b6121cd565b611c03610d28610d2860096109f6565b9060206323b872dd92611c1660076109f6565b9089888a611c37611c2660405190565b97889687958694611a2a8d60e01b90565b03925af18015610de857611d3f575b50611c54610d7260076109f6565b611c5d83610399565b03611c69575b50611a44565b611c79610d28610d2860076109f6565b803b156102b25784611c8a60405190565b91829063081cb0a960e31b8252818381611caa8a8d830190815260200190565b03925af18015610de857611d23575b50602085611ccd610d28610d2860086109f6565b611a2a87611cdb60076109f6565b95611cf78989611cea60405190565b998a988997889660e01b90565b03925af18015610de85715611c6357611d1e9060203d602011611b9957611b8c818361082e565b611c63565b611d3990853d87116115e5576115d7818361082e565b38611cb9565b611d579060203d602011611b9957611b8c818361082e565b611c46565b610c5085611d6960405190565b63b06bd67960e01b815291829182016020808252601d908201527f5573652052656d6f766547656d46726f6d4c69737420696e7374656164000000604082015260600190565b50611db986610399565b611dc233610399565b146119ee565b610c508361163760405190565b604051639fabe1c160e01b8152600490fd5b6102ed929190600061187a565b6102ed9051610399565b6002611e3c60406102d794611e1e611e1860008301611df4565b86610e74565b611e35611e2c602083015190565b60018701610e4a565b0151151590565b9101610ff7565b906102d791611dfe565b9081526060810193926102d792909160409161194290611938565b90611e79610d28610d2860066109f6565b6020611e8460405190565b6331a9108f60e11b81526004810185905291829060249082905afa908115610de857600091612068575b50611ebb610d7733610399565b0361205657600090611ecc826103e5565b811461204457611ee2610d28610d2860066109f6565b926020611eee60405190565b63276a28a360e01b81526004810183905294859060249082905afa938415610de8578394612023575b50600193611f24856114cb565b1461201157611f39610d28610d2860066109f6565b92833b156102b25780611f4b60405190565b948590634d723a7560e01b8252818381611f698b896004840161141a565b03925af1908115610de8577f8b8052dfcc72d6fc28cd795f60661e1a701f185ce78c06a47b2ac29357d6ef8b94611fd892611ff5575b50611fb5611fab611652565b9133908301611680565b611fc0846020830152565b8515156040820152611fd38360046109e3565b611e43565b611fef611fe460405190565b928392339084611e4d565b0390a190565b61200b90823d84116115e5576115d7818361082e565b38611f9f565b60405163e970f37f60e01b8152600490fd5b61203d91945060203d602011611b9957611b8c818361082e565b9238611f17565b60405163f7760f2560e01b8152600490fd5b6040516302b327b560e41b8152600490fd5b612081915060203d602011610de157610dd3818361082e565b38611eae565b6102d79033906121f9565b61209f610c638383611349565b1561210d576120bf60016120ba84600061135e86600d610c9d565b610ff7565b6120d96120d36120cd339390565b93610703565b91610703565b917f2f8788117e7eff1d82e926ec794901d17c78024a50270940304540a733656f0d61210460405190565b600090a4600190565b5050600090565b61211e8282611349565b1561210d5761213860006120ba848261135e86600d610c9d565b6121466120d36120cd339390565b917ff6391f5c32d9c69d2a47ea670b442974b53935d1edc7fd64eb21e047a839171b61210460405190565b6102ed60026103e5565b612185600c610a07565b61218d612171565b90811461219f576102d790600c610e4a565b604051633ee5aeb560e01b8152600490fd5b6102ed60016103e5565b6102d76121c66121b1565b600c610e4a565b6102ed90611bc4633b9aca006103e5565b9160206102d7929493611942604082019660008301906103a5565b90612207610c638284611349565b61220f575050565b610c5061221b60405190565b63e2517d3f60e01b8152928392600484016121de56fea264697066735822122007070f610113026cd9a32019e8edb87ce23f5d659213d0437893d35c67c2b59264736f6c63430008190033",
    "linkReferences": {}
  },
  "methodIdentifiers": {
    "ADMIN_ROLE()": "75b238fc",
    "DECIMALS()": "2e0f2625",
    "DEFAULT_ADMIN_ROLE()": "a217fddf",
    "PAUSE_ROLE()": "389ed267",
    "TON_FEES_RATE_DIVIDER()": "08ec897d",
    "addAdmin(address)": "70480275",
    "addPauser(address)": "82dc1ec4",
    "aliveImplementation(address)": "550d01a3",
    "buyGem(uint256,bool)": "02424ed3",
    "gemsForSale(uint256)": "9c41b42b",
    "getGemFactoryAddress()": "9d541be2",
    "getGemForSale(uint256)": "c255bf16",
    "getPauseStatus()": "1d9023cb",
    "getPaused()": "6805b84b",
    "getRoleAdmin(bytes32)": "248a9ca3",
    "getStakingIndex()": "5074e0c8",
    "getTonAddress()": "6ae638d0",
    "getTonFeesRate()": "a69c8fb2",
    "getTreasuryAddress()": "e0024604",
    "getWstonAddress()": "044bc779",
    "grantRole(bytes32,address)": "2f2ff15d",
    "hasRole(bytes32,address)": "91d14854",
    "initialize(address,address,uint256,address,address)": "33e1a223",
    "isAdmin(address)": "24d7806c",
    "isOwner()": "8f32d59b",
    "isPauser(address)": "46fbf68e",
    "pause()": "8456cb59",
    "pauseProxy()": "63a8fd89",
    "proxyImplementation(uint256)": "b911135f",
    "putGemForSale(uint256,uint256)": "2ede6432",
    "putGemListForSale(uint256[],uint256[])": "79dbd798",
    "removeAdmin()": "9a202d47",
    "removeGemForSale(uint256)": "adad6926",
    "removePauser(address)": "6b2c0f55",
    "renounceRole(bytes32,address)": "36568abe",
    "revokeRole(bytes32,address)": "d547741f",
    "selectorImplementation(bytes4)": "50d2a276",
    "setDiscountRate(uint256)": "7c69febd",
    "setStakingIndex(uint256)": "ce49a360",
    "supportsInterface(bytes4)": "01ffc9a7",
    "transferOwnership(address)": "f2fde38b",
    "unpause()": "3f4ba83a"
  },
  "id": 114
}