{
  "abi": [
    {
      "type": "constructor",
      "inputs": [],
      "stateMutability": "nonpayable"
    },
    {
      "type": "function",
      "name": "DECIMALS",
      "inputs": [],
      "outputs": [
        {
          "name": "",
          "type": "uint256",
          "internalType": "uint256"
        }
      ],
      "stateMutability": "view"
    },
    {
      "type": "function",
      "name": "DEFAULT_ADMIN_ROLE",
      "inputs": [],
      "outputs": [
        {
          "name": "",
          "type": "bytes32",
          "internalType": "bytes32"
        }
      ],
      "stateMutability": "view"
    },
    {
      "type": "function",
      "name": "PAUSE_ROLE",
      "inputs": [],
      "outputs": [
        {
          "name": "",
          "type": "bytes32",
          "internalType": "bytes32"
        }
      ],
      "stateMutability": "view"
    },
    {
      "type": "function",
      "name": "TON_FEES_RATE_DIVIDER",
      "inputs": [],
      "outputs": [
        {
          "name": "",
          "type": "uint256",
          "internalType": "uint256"
        }
      ],
      "stateMutability": "view"
    },
    {
      "type": "function",
      "name": "TREASURY_ROLE",
      "inputs": [],
      "outputs": [
        {
          "name": "",
          "type": "bytes32",
          "internalType": "bytes32"
        }
      ],
      "stateMutability": "view"
    },
    {
      "type": "function",
      "name": "_treasury",
      "inputs": [],
      "outputs": [
        {
          "name": "",
          "type": "address",
          "internalType": "address"
        }
      ],
      "stateMutability": "view"
    },
    {
      "type": "function",
      "name": "addAdmin",
      "inputs": [
        {
          "name": "account",
          "type": "address",
          "internalType": "address"
        }
      ],
      "outputs": [],
      "stateMutability": "nonpayable"
    },
    {
      "type": "function",
      "name": "addMinter",
      "inputs": [
        {
          "name": "account",
          "type": "address",
          "internalType": "address"
        }
      ],
      "outputs": [],
      "stateMutability": "nonpayable"
    },
    {
      "type": "function",
      "name": "buyGem",
      "inputs": [
        {
          "name": "_tokenId",
          "type": "uint256",
          "internalType": "uint256"
        },
        {
          "name": "_paymentMethod",
          "type": "bool",
          "internalType": "bool"
        }
      ],
      "outputs": [],
      "stateMutability": "nonpayable"
    },
    {
      "type": "function",
      "name": "gemFactory",
      "inputs": [],
      "outputs": [
        {
          "name": "",
          "type": "address",
          "internalType": "address"
        }
      ],
      "stateMutability": "view"
    },
    {
      "type": "function",
      "name": "gemsForSale",
      "inputs": [
        {
          "name": "",
          "type": "uint256",
          "internalType": "uint256"
        }
      ],
      "outputs": [
        {
          "name": "seller",
          "type": "address",
          "internalType": "address"
        },
        {
          "name": "price",
          "type": "uint256",
          "internalType": "uint256"
        },
        {
          "name": "isActive",
          "type": "bool",
          "internalType": "bool"
        }
      ],
      "stateMutability": "view"
    },
    {
      "type": "function",
      "name": "getGemFactory",
      "inputs": [],
      "outputs": [
        {
          "name": "",
          "type": "address",
          "internalType": "address"
        }
      ],
      "stateMutability": "view"
    },
    {
      "type": "function",
      "name": "getRoleAdmin",
      "inputs": [
        {
          "name": "role",
          "type": "bytes32",
          "internalType": "bytes32"
        }
      ],
      "outputs": [
        {
          "name": "",
          "type": "bytes32",
          "internalType": "bytes32"
        }
      ],
      "stateMutability": "view"
    },
    {
      "type": "function",
      "name": "getStakingIndex",
      "inputs": [],
      "outputs": [
        {
          "name": "",
          "type": "uint256",
          "internalType": "uint256"
        }
      ],
      "stateMutability": "view"
    },
    {
      "type": "function",
      "name": "getTonFeesRate",
      "inputs": [],
      "outputs": [
        {
          "name": "",
          "type": "uint256",
          "internalType": "uint256"
        }
      ],
      "stateMutability": "view"
    },
    {
      "type": "function",
      "name": "grantRole",
      "inputs": [
        {
          "name": "role",
          "type": "bytes32",
          "internalType": "bytes32"
        },
        {
          "name": "account",
          "type": "address",
          "internalType": "address"
        }
      ],
      "outputs": [],
      "stateMutability": "nonpayable"
    },
    {
      "type": "function",
      "name": "hasRole",
      "inputs": [
        {
          "name": "role",
          "type": "bytes32",
          "internalType": "bytes32"
        },
        {
          "name": "account",
          "type": "address",
          "internalType": "address"
        }
      ],
      "outputs": [
        {
          "name": "",
          "type": "bool",
          "internalType": "bool"
        }
      ],
      "stateMutability": "view"
    },
    {
      "type": "function",
      "name": "initialize",
      "inputs": [
        {
          "name": "treasury",
          "type": "address",
          "internalType": "address"
        },
        {
          "name": "_gemfactory",
          "type": "address",
          "internalType": "address"
        },
        {
          "name": "_tonFeesRate",
          "type": "uint256",
          "internalType": "uint256"
        },
        {
          "name": "_wston",
          "type": "address",
          "internalType": "address"
        },
        {
          "name": "_ton",
          "type": "address",
          "internalType": "address"
        }
      ],
      "outputs": [],
      "stateMutability": "nonpayable"
    },
    {
      "type": "function",
      "name": "isAdmin",
      "inputs": [
        {
          "name": "account",
          "type": "address",
          "internalType": "address"
        }
      ],
      "outputs": [
        {
          "name": "",
          "type": "bool",
          "internalType": "bool"
        }
      ],
      "stateMutability": "view"
    },
    {
      "type": "function",
      "name": "isMinter",
      "inputs": [
        {
          "name": "account",
          "type": "address",
          "internalType": "address"
        }
      ],
      "outputs": [
        {
          "name": "",
          "type": "bool",
          "internalType": "bool"
        }
      ],
      "stateMutability": "view"
    },
    {
      "type": "function",
      "name": "isOwner",
      "inputs": [],
      "outputs": [
        {
          "name": "",
          "type": "bool",
          "internalType": "bool"
        }
      ],
      "stateMutability": "view"
    },
    {
      "type": "function",
      "name": "paused",
      "inputs": [],
      "outputs": [
        {
          "name": "",
          "type": "bool",
          "internalType": "bool"
        }
      ],
      "stateMutability": "view"
    },
    {
      "type": "function",
      "name": "putGemForSale",
      "inputs": [
        {
          "name": "_tokenId",
          "type": "uint256",
          "internalType": "uint256"
        },
        {
          "name": "_price",
          "type": "uint256",
          "internalType": "uint256"
        }
      ],
      "outputs": [],
      "stateMutability": "nonpayable"
    },
    {
      "type": "function",
      "name": "putGemListForSale",
      "inputs": [
        {
          "name": "tokenIds",
          "type": "uint256[]",
          "internalType": "uint256[]"
        },
        {
          "name": "prices",
          "type": "uint256[]",
          "internalType": "uint256[]"
        }
      ],
      "outputs": [],
      "stateMutability": "nonpayable"
    },
    {
      "type": "function",
      "name": "removeAdmin",
      "inputs": [
        {
          "name": "account",
          "type": "address",
          "internalType": "address"
        }
      ],
      "outputs": [],
      "stateMutability": "nonpayable"
    },
    {
      "type": "function",
      "name": "removeMinter",
      "inputs": [
        {
          "name": "account",
          "type": "address",
          "internalType": "address"
        }
      ],
      "outputs": [],
      "stateMutability": "nonpayable"
    },
    {
      "type": "function",
      "name": "renounceMinter",
      "inputs": [],
      "outputs": [],
      "stateMutability": "nonpayable"
    },
    {
      "type": "function",
      "name": "renounceOwnership",
      "inputs": [],
      "outputs": [],
      "stateMutability": "nonpayable"
    },
    {
      "type": "function",
      "name": "renounceRole",
      "inputs": [
        {
          "name": "role",
          "type": "bytes32",
          "internalType": "bytes32"
        },
        {
          "name": "callerConfirmation",
          "type": "address",
          "internalType": "address"
        }
      ],
      "outputs": [],
      "stateMutability": "nonpayable"
    },
    {
      "type": "function",
      "name": "revokeMinter",
      "inputs": [
        {
          "name": "account",
          "type": "address",
          "internalType": "address"
        }
      ],
      "outputs": [],
      "stateMutability": "nonpayable"
    },
    {
      "type": "function",
      "name": "revokeRole",
      "inputs": [
        {
          "name": "role",
          "type": "bytes32",
          "internalType": "bytes32"
        },
        {
          "name": "account",
          "type": "address",
          "internalType": "address"
        }
      ],
      "outputs": [],
      "stateMutability": "nonpayable"
    },
    {
      "type": "function",
      "name": "setDiscountRate",
      "inputs": [
        {
          "name": "_tonFeesRate",
          "type": "uint256",
          "internalType": "uint256"
        }
      ],
      "outputs": [],
      "stateMutability": "nonpayable"
    },
    {
      "type": "function",
      "name": "setStakingIndex",
      "inputs": [
        {
          "name": "_stakingIndex",
          "type": "uint256",
          "internalType": "uint256"
        }
      ],
      "outputs": [],
      "stateMutability": "nonpayable"
    },
    {
      "type": "function",
      "name": "stakingIndex",
      "inputs": [],
      "outputs": [
        {
          "name": "",
          "type": "uint256",
          "internalType": "uint256"
        }
      ],
      "stateMutability": "view"
    },
    {
      "type": "function",
      "name": "supportsInterface",
      "inputs": [
        {
          "name": "interfaceId",
          "type": "bytes4",
          "internalType": "bytes4"
        }
      ],
      "outputs": [
        {
          "name": "",
          "type": "bool",
          "internalType": "bool"
        }
      ],
      "stateMutability": "view"
    },
    {
      "type": "function",
      "name": "tonFeesRate",
      "inputs": [],
      "outputs": [
        {
          "name": "",
          "type": "uint256",
          "internalType": "uint256"
        }
      ],
      "stateMutability": "view"
    },
    {
      "type": "function",
      "name": "ton_",
      "inputs": [],
      "outputs": [
        {
          "name": "",
          "type": "address",
          "internalType": "address"
        }
      ],
      "stateMutability": "view"
    },
    {
      "type": "function",
      "name": "transferAdmin",
      "inputs": [
        {
          "name": "newAdmin",
          "type": "address",
          "internalType": "address"
        }
      ],
      "outputs": [],
      "stateMutability": "nonpayable"
    },
    {
      "type": "function",
      "name": "transferOwnership",
      "inputs": [
        {
          "name": "newAdmin",
          "type": "address",
          "internalType": "address"
        }
      ],
      "outputs": [],
      "stateMutability": "nonpayable"
    },
    {
      "type": "function",
      "name": "wston_",
      "inputs": [],
      "outputs": [
        {
          "name": "",
          "type": "address",
          "internalType": "address"
        }
      ],
      "stateMutability": "view"
    },
    {
      "type": "event",
      "name": "GemBought",
      "inputs": [
        {
          "name": "tokenId",
          "type": "uint256",
          "indexed": false,
          "internalType": "uint256"
        },
        {
          "name": "payer",
          "type": "address",
          "indexed": false,
          "internalType": "address"
        },
        {
          "name": "seller",
          "type": "address",
          "indexed": false,
          "internalType": "address"
        },
        {
          "name": "amount",
          "type": "uint256",
          "indexed": false,
          "internalType": "uint256"
        }
      ],
      "anonymous": false
    },
    {
      "type": "event",
      "name": "GemForSale",
      "inputs": [
        {
          "name": "tokenId",
          "type": "uint256",
          "indexed": false,
          "internalType": "uint256"
        },
        {
          "name": "seller",
          "type": "address",
          "indexed": false,
          "internalType": "address"
        },
        {
          "name": "price",
          "type": "uint256",
          "indexed": false,
          "internalType": "uint256"
        }
      ],
      "anonymous": false
    },
    {
      "type": "event",
      "name": "RoleAdminChanged",
      "inputs": [
        {
          "name": "role",
          "type": "bytes32",
          "indexed": true,
          "internalType": "bytes32"
        },
        {
          "name": "previousAdminRole",
          "type": "bytes32",
          "indexed": true,
          "internalType": "bytes32"
        },
        {
          "name": "newAdminRole",
          "type": "bytes32",
          "indexed": true,
          "internalType": "bytes32"
        }
      ],
      "anonymous": false
    },
    {
      "type": "event",
      "name": "RoleGranted",
      "inputs": [
        {
          "name": "role",
          "type": "bytes32",
          "indexed": true,
          "internalType": "bytes32"
        },
        {
          "name": "account",
          "type": "address",
          "indexed": true,
          "internalType": "address"
        },
        {
          "name": "sender",
          "type": "address",
          "indexed": true,
          "internalType": "address"
        }
      ],
      "anonymous": false
    },
    {
      "type": "event",
      "name": "RoleRevoked",
      "inputs": [
        {
          "name": "role",
          "type": "bytes32",
          "indexed": true,
          "internalType": "bytes32"
        },
        {
          "name": "account",
          "type": "address",
          "indexed": true,
          "internalType": "address"
        },
        {
          "name": "sender",
          "type": "address",
          "indexed": true,
          "internalType": "address"
        }
      ],
      "anonymous": false
    },
    {
      "type": "event",
      "name": "SetDiscountRate",
      "inputs": [
        {
          "name": "discountRate",
          "type": "uint256",
          "indexed": false,
          "internalType": "uint256"
        }
      ],
      "anonymous": false
    },
    {
      "type": "event",
      "name": "WSTONClaimed",
      "inputs": [
        {
          "name": "tokenId",
          "type": "uint256",
          "indexed": false,
          "internalType": "uint256"
        },
        {
          "name": "claimer",
          "type": "address",
          "indexed": false,
          "internalType": "address"
        }
      ],
      "anonymous": false
    },
    {
      "type": "error",
      "name": "AccessControlBadConfirmation",
      "inputs": []
    },
    {
      "type": "error",
      "name": "AccessControlUnauthorizedAccount",
      "inputs": [
        {
          "name": "account",
          "type": "address",
          "internalType": "address"
        },
        {
          "name": "neededRole",
          "type": "bytes32",
          "internalType": "bytes32"
        }
      ]
    },
    {
      "type": "error",
      "name": "AddressEmptyCode",
      "inputs": [
        {
          "name": "target",
          "type": "address",
          "internalType": "address"
        }
      ]
    },
    {
      "type": "error",
      "name": "AddressInsufficientBalance",
      "inputs": [
        {
          "name": "account",
          "type": "address",
          "internalType": "address"
        }
      ]
    },
    {
      "type": "error",
      "name": "FailedInnerCall",
      "inputs": []
    },
    {
      "type": "error",
      "name": "ReentrancyGuardReentrantCall",
      "inputs": []
    },
    {
      "type": "error",
      "name": "SafeERC20FailedOperation",
      "inputs": [
        {
          "name": "token",
          "type": "address",
          "internalType": "address"
        }
      ]
    }
  ],
  "bytecode": {
    "object": "0x60806040523461002257610011610041565b6040516120e661021482396120e690f35b600080fd5b6100346100346100349290565b90565b6100346000610027565b61004961005e565b61005b610054610037565b3390610153565b50565b610066610068565b565b6100666100666100666100666100666100666100b4565b6100346001610027565b90600019905b9181191691161790565b906100a96100346100b092610027565b8254610089565b9055565b6100bc6100ce565b6100666100c761007f565b6008610099565b61006660016006610099565b906100e490610034565b600052602052604060002090565b61003490610106906001600160a01b031682565b6001600160a01b031690565b610034906100f2565b61003490610112565b906100e49061011b565b9060ff9061008f565b151590565b9061014c6100346100b092610137565b825461012e565b61016461016083836101f1565b1590565b156101da5761018a600161018584600061017f8660096100da565b01610124565b61013c565b6101a66101a061019a3393610034565b9361011b565b9161011b565b917f2f8788117e7eff1d82e926ec794901d17c78024a50270940304540a733656f0d6101d160405190565b600090a4600190565b5050600090565b60ff1690565b61003490546101e1565b61003491600061017f61020e93610206600090565b5060096100da565b6101e756fe6080604052600436101561001257600080fd5b60003560e01c806301ffc9a71461029257806302424ed31461028d57806308ec897d1461028857806312788619146102835780631785f53c1461027e578063248a9ca31461027957806324d7806c146102745780632e0f26251461026f5780632ede64321461026a5780632f2ff15d146102655780633092afd51461026057806330f508591461025b57806333e1a2231461025657806336568abe14610251578063389ed2671461024c5780635074e0c8146102475780635c975abb14610242578063704802751461023d578063715018a61461023857806375829def1461023357806379dbd7981461022e5780637c69febd146102295780638d609841146102245780638f32d59b1461021f57806391d148541461021a578063983b2d561461021557806398650275146102105780639c41b42b1461020b578063a217fddf14610206578063a53225c014610201578063a69c8fb2146101fc578063aa271e1a146101f7578063ce49a360146101f2578063cfbd4885146101ed578063d11a57ec146101e8578063d547741f146101e3578063e319a3d9146101de578063e8dea5e8146101d9578063f00fe4fd146101d45763f2fde38b0361029757610b34565b610b19565b610afe565b610ad7565b610ab2565b610a8b565b610a73565b610a5b565b610a40565b610a25565b610a0a565b6109e3565b6109a7565b6108e4565b6108cc565b6108b0565b610895565b610860565b61081d565b610804565b6106cd565b6106b5565b61069d565b610682565b610641565b610608565b6105ef565b6105d3565b610573565b61054f565b610536565b6104fa565b6104bc565b610484565b610469565b61043d565b6103e6565b610399565b610351565b6102d5565b600080fd5b6001600160e01b031981165b0361029757565b905035906102bc8261029c565b565b90602082820312610297576102d2916102af565b90565b34610297576103026102f06102eb3660046102be565b610b4c565b60405191829182901515815260200190565b0390f35b806102a8565b905035906102bc82610306565b8015156102a8565b905035906102bc82610319565b9190604083820312610297576102d290602061034a828661030c565b9401610321565b346102975761036a61036436600461032e565b90610bd6565b604051005b600091031261029757565b6102d26102d26102d29290565b6102d2606461037a565b6102d2610387565b34610297576103a936600461036f565b6103026103b4610391565b6040519182918290815260200190565b6102d2916008021c81565b906102d291546103c4565b6102d2600060016103cf565b34610297576103f636600461036f565b6103026103b46103da565b6001600160a01b031690565b6001600160a01b0381166102a8565b905035906102bc8261040d565b90602082820312610297576102d29161041c565b346102975761036a610450366004610429565b610c5e565b90602082820312610297576102d29161030c565b34610297576103026103b461047f366004610455565b610c6d565b34610297576103026102f061049a366004610429565b610c8c565b6102d26b033b2e3c9fd0803ce800000061037a565b6102d261049f565b34610297576104cc36600461036f565b6103026103b46104b4565b9190604083820312610297576102d29060206104f3828661030c565b940161030c565b346102975761036a61050d3660046104d7565b90610d17565b9190604083820312610297576102d290602061052f828661030c565b940161041c565b346102975761036a610549366004610513565b90610d44565b346102975761036a610562366004610429565b610d76565b6102d2600060066103cf565b346102975761058336600461036f565b6103026103b4610567565b919060a083820312610297576105a4818461041c565b926105b2826020830161041c565b926102d26105c3846040850161030c565b93608061052f826060870161041c565b346102975761036a6105e636600461058e565b93929092610e4e565b346102975761036a610602366004610513565b90610e99565b346102975761061836600461036f565b6103027ffcb9fcbfa83b897fb2d5cf4b58962164105c1e71489a37ef3ae0db3fdce576f66103b4565b346102975761065136600461036f565b6103026103b4610ecd565b6102d2916008021c5b60ff1690565b906102d2915461065c565b6102d26000600761066b565b346102975761069236600461036f565b6103026102f0610676565b346102975761036a6106b0366004610429565b610ef8565b34610297576106c536600461036f565b61036a610f22565b346102975761036a6106e0366004610429565b611032565b634e487b7160e01b600052604160045260246000fd5b90601f01601f1916810190811067ffffffffffffffff82111761071d57604052565b6106e5565b906102bc61072f60405190565b92836106fb565b67ffffffffffffffff811161071d5760208091020190565b9092919261076361075e82610736565b610722565b938185526020808601920283019281841161029757915b8383106107875750505050565b60208091610795848661030c565b81520192019161077a565b9080601f83011215610297578160206102d29335910161074e565b91909160408184031261029757803567ffffffffffffffff811161029757836107e59183016107a0565b92602082013567ffffffffffffffff8111610297576102d292016107a0565b346102975761036a6108173660046107bb565b9061119e565b346102975761036a610830366004610455565b6111fa565b6102d2916008021c6001600160a01b031690565b906102d29154610835565b6102d260006004610849565b346102975761087036600461036f565b61030261087b610854565b604051918291826001600160a01b03909116815260200190565b34610297576108a536600461036f565b6103026102f0611203565b34610297576103026102f06108c6366004610513565b9061121f565b346102975761036a6108df366004610429565b611267565b34610297576108f436600461036f565b61036a611270565b906109069061037a565b600052602052604060002090565b6102d290610401565b6102d29054610914565b6102d29081565b6102d29054610927565b6102d290610665565b6102d29054610938565b6109569060006108fc565b61095f8161091d565b916102d260026109716001850161092e565b9301610941565b6001600160a01b0390911681526060810193926102bc92909160409161099f906020830152565b019015159052565b34610297576103026109c26109bd366004610455565b61094b565b60405191939193849384610978565b6102d2600061037a565b6102d26109d1565b34610297576109f336600461036f565b6103026103b46109db565b6102d260006002610849565b3461029757610a1a36600461036f565b61030261087b6109fe565b3461029757610a3536600461036f565b6103026103b4611287565b34610297576103026102f0610a56366004610429565b611291565b346102975761036a610a6e366004610455565b61134a565b346102975761036a610a86366004610429565b61137b565b3461029757610a9b36600461036f565b6103026000805160206120918339815191526103b4565b346102975761036a610ac5366004610513565b9061139f565b6102d260006003610849565b3461029757610ae736600461036f565b61030261087b610acb565b6102d260006005610849565b3461029757610b0e36600461036f565b61030261087b610af2565b3461029757610b2936600461036f565b61030261087b6113a9565b346102975761036a610b47366004610429565b6113cc565b6102d2906113d5565b15610b5c57565b60405162461bcd60e51b815260206004820152601060248201526f14185d5cd8589b194e881c185d5cd95960821b6044820152606490fd5b0390fd5b906102bc91610bb6610bb1610bad6007610941565b1590565b610b55565b610bc2565b1561029757565b6102bc91610bd19133906118cd565b610bbb565b906102bc91610b98565b15610be757565b60405162461bcd60e51b815260206004820152602360248201527f41757468436f6e74726f6c3a2043616c6c6572206973206e6f7420616e20616460448201526236b4b760e91b6064820152608490fd5b6102bc90610c4d610c4833610c8c565b610be0565b6102bc90610c596109d1565b610e99565b6102bc90610c38565b90610906565b6001610c866102d292610c7e600090565b506009610c67565b0161092e565b6102d290610c986109d1565b61121f565b906102bc91610cb2610bb1610bad6007610941565b610d03565b15610cbe57565b60405162461bcd60e51b815260206004820152601a60248201527f6661696c656420746f207075742067656d20666f722073616c650000000000006044820152606490fd5b610d12906102bc923391611a86565b610cb7565b906102bc91610c9d565b906102bc91610d37610d3282610c6d565b611c86565b90610d4191611c91565b50565b906102bc91610d21565b6102bc90610d5e610c4833610c8c565b6102bc90600080516020612091833981519152610e99565b6102bc90610d4e565b15610d8657565b60405162461bcd60e51b8152602060048201526024808201527f646973636f756e742072617465206d757374206265206c657373207468616e206044820152633130302560e01b6064820152608490fd5b90600019905b9181191691161790565b90610df76102d2610dfe9261037a565b8254610dd7565b9055565b906001600160a01b0390610ddd565b6102d290610401906001600160a01b031682565b6102d290610e11565b6102d290610e25565b90610e476102d2610dfe92610e2e565b8254610e02565b610e8b90610e846102bc969593610e7d610e9296610e76610e6f606461037a565b8210610d7f565b6001610de7565b6002610e37565b6003610e37565b6004610e37565b6005610e37565b90610ea333610401565b6001600160a01b03821603610ebb57610d4191611d13565b60405163334bd91960e11b8152600490fd5b6102d2600661092e565b6102bc90610ee7610c4833610c8c565b6102bc90610ef36109d1565b610d44565b6102bc90610ed7565b610f0d610c4833610c8c565b6102bc6102bc610f1b6109d1565b3390610e99565b6102bc610f01565b6102bc90610f3a610c4833610c8c565b610fe6565b6104016102d26102d29290565b6102d290610f3f565b15610f5c57565b60405162461bcd60e51b815260206004820152601860248201527f41636365737369626c653a207a65726f206164647265737300000000000000006044820152606490fd5b15610fa857565b60405162461bcd60e51b815260206004820152601660248201527520b1b1b2b9b9b4b136329d1039b0b6b29030b236b4b760511b6044820152606490fd5b6102bc9061100b610ffa6104016000610f4c565b6001600160a01b0383161415610f55565b6110206001600160a01b038216331415610fa1565b610f1b61102b6109d1565b9182610d44565b6102bc90610f2a565b906102bc91611050610bb1610bad6007610941565b6110fd565b1561105c57565b60405162461bcd60e51b81526020600482015260096024820152686e6f20746f6b656e7360b81b6044820152606490fd5b1561109457565b60405162461bcd60e51b815260206004820152600c60248201526b0eee4dedcce40d8cadccee8d60a31b6044820152606490fd5b634e487b7160e01b600052603260045260246000fd5b906110e7825190565b8110156110f8576020809102010190565b6110c8565b91909161112361110b825190565b61111c611118600061037a565b9190565b1415611055565b61114261112e825190565b61113c6111186102d2875190565b1461108d565b61114c600061037a565b6111576102d2835190565b811015611198578061118d610d1261117961117561119395876110de565b5190565b611186611175858a6110de565b3391611a86565b60010190565b61114c565b50509050565b906102bc9161103b565b6102bc906111b8610c4833610c8c565b6111f57f21a8eefc17e9c864964b5a4c0769d87f39cc0a7576773159e12358bc0095ffc5916111ea610e6f606461037a565b6103b4816001610de7565b0390a1565b6102bc906111a8565b6102d261120e6109d1565b339061121f565b9061090690610e2e565b6102d291600061123461123a93610c7e600090565b01611215565b610941565b6102bc9061124f610c4833610c8c565b6102bc90600080516020612091833981519152610d44565b6102bc9061123f565b6102bc600080516020612091833981519152610f1b565b6102d2600161092e565b6102d29060008051602061209183398151915261121f565b6102bc906112b9610c4833610c8c565b61131e565b156112c557565b60405162461bcd60e51b815260206004820152602b60248201527f7374616b696e6720696e646578206d7573742062652067726561746572206f7260448201526a20657175616c20746f203160a81b6064820152608490fd5b6102bc9061134361132f600661092e565b61133c611118600161037a565b10156112be565b6006610de7565b6102bc906112a9565b6102bc90611363610c4833610c8c565b6102bc9060008051602061209183398151915261139f565b6102bc90611353565b906102bc91611395610d3282610c6d565b90610d4191611d13565b906102bc91611384565b6102d2600261091d565b6102bc906113c3610c4833610c8c565b6102bc90611032565b6102bc906113b3565b637965db0b60e01b6001600160e01b03198216149081156113f4575090565b6102d291506001600160e01b0319166301ffc9a760e01b1490565b9061142393929161141e611d7a565b61162c565b906102bc611dba565b1561143357565b60405162461bcd60e51b815260206004820152600c60248201526b7a65726f206164647265737360a01b6044820152606490fd5b1561146e57565b60405162461bcd60e51b815260206004820152600c60248201526b6e6f7420666f722073616c6560a01b6044820152606490fd5b156114a957565b60405162461bcd60e51b815260206004820152600b60248201526a77726f6e6720707269636560a81b6044820152606490fd5b156114e357565b60405162461bcd60e51b815260206004820152600c60248201526b3bb937b7339039b2b63632b960a11b6044820152606490fd5b634e487b7160e01b600052601160045260246000fd5b8181029291811591840414171561154057565b611517565b634e487b7160e01b600052601260045260246000fd5b8115611565570490565b611545565b9190820180921161154057565b9060ff90610ddd565b906115906102d2610dfe92151590565b8254611577565b9081526040810192916102bc9160209061099f565b6040513d6000823e3d90fd5b6001600160a01b0390911681526060810193926102bc9290916040916115e9905b6001600160a01b03166020830152565b0152565b6115e96102bc9461161c60609498979561160c608086019a6000870152565b6001600160a01b03166020850152565b6001600160a01b03166040830152565b50600061163881610f4c565b936116576001600160a01b0386166001600160a01b038616141561142c565b61167461166f600261166986866108fc565b01610941565b611467565b6116836001610c8685856108fc565b906116986116908461037a565b8314156114a2565b6116d06116bf6116b2856116ac88826108fc565b0161091d565b976001600160a01b031690565b6001600160a01b03881614156114dc565b15611832576116f28186866116ed6116e8600461091d565b610e2e565b611e03565b61170882600261170286836108fc565b01611580565b6117186116e86116e8600261091d565b803b15610297578261172960405190565b918290634d723a7560e01b8252818381611747828b60048401611597565b03925af1801561181157611816575b506117676116e86116e8600261091d565b94853b15610297578261177960405190565b9687906323b872dd60e01b82528183816117988a8c89600485016115b8565b03925af1928315611811577f429a311c86d807d248190c8540973d38711c40cabad4c6266ef4b9a7ae6cdc3c966117dc946117e4575b5050604051948594856115ed565b0390a1600190565b8161180392903d1061180a575b6117fb81836106fb565b81019061036f565b38806117ce565b503d6117f1565b6115ac565b61182c90833d851161180a576117fb81836106fb565b38611756565b6118a661188861188361185f61185161184b600661092e565b8661152d565b61185961049f565b9061155b565b61187d61187561186f600161092e565b8361152d565b611859610387565b9061156a565b611dcc565b6118956116e8600561091d565b866118a0600361091d565b91611e03565b6118c881866118b86116e8600461091d565b6118c2600361091d565b90611e03565b6116f2565b6102d2929190600061140f565b905051906102bc8261040d565b90602082820312610297576102d2916118da565b1561190257565b60405162461bcd60e51b815260206004820152601860248201527f4e6f7420746865206f776e6572206f66207468652047454d00000000000000006044820152606490fd5b1561194e57565b60405162461bcd60e51b815260206004820152601f60248201527f5072696365206d7573742062652067726561746572207468616e207a65726f006044820152606490fd5b905051906102bc82610319565b90602082820312610297576102d291611993565b156119bb57565b60405162461bcd60e51b815260206004820152602160248201527f47656d20697320616c726561647920666f722073616c65206f72206d696e696e6044820152606760f81b6064820152608490fd5b6102d26060610722565b6002611a5a60406102bc94611a3c611a3660008301516001600160a01b031690565b86610e37565b611a53611a4a602083015190565b60018701610de7565b0151151590565b9101611580565b906102bc91611a14565b9081526060810193926102bc9290916040916115e9906115d9565b909190611a996116e86116e8600261091d565b6020611aa460405190565b6331a9108f60e11b81526004810184905291829060249082905afa801561181157611ae591600091611c57575b506001600160a01b038481169116146118fb565b600092611afb611af48561037a565b8211611947565b611b0b6116e86116e8600261091d565b6020611b1660405190565b63276a28a360e01b81526004810185905291829060249082905afa801561181157611b4e918691611c28575b501515851515146119b4565b611b5e6116e86116e8600261091d565b90813b156102975784611b7060405190565b928390634d723a7560e01b8252818381611b8f60018a60048401611597565b03925af18015611811577f8b8052dfcc72d6fc28cd795f60661e1a701f185ce78c06a47b2ac29357d6ef8b956117dc93611c0092611c0c575b50611bfb85611bd5611a0a565b6001600160a01b0389168482015292611bef866020860152565b600160408501526108fc565b611a61565b60405193849384611a6b565b611c2290823d841161180a576117fb81836106fb565b38611bc8565b611c4a915060203d602011611c50575b611c4281836106fb565b8101906119a0565b38611b42565b503d611c38565b611c79915060203d602011611c7f575b611c7181836106fb565b8101906118e7565b38611ad1565b503d611c67565b6102bc903390611e6a565b611c9e610bad838361121f565b15611d0c57611cbe6001611cb9846000611234866009610c67565b611580565b611cd8611cd2611ccc339390565b93610e2e565b91610e2e565b917f2f8788117e7eff1d82e926ec794901d17c78024a50270940304540a733656f0d611d0360405190565b600090a4600190565b5050600090565b611d1d828261121f565b15611d0c57611d376000611cb98482611234866009610c67565b611d45611cd2611ccc339390565b917ff6391f5c32d9c69d2a47ea670b442974b53935d1edc7fd64eb21e047a839171b611d0360405190565b6102d2600261037a565b611d84600861092e565b611d8c611d70565b908114611d9e576102bc906008610de7565b604051633ee5aeb560e01b8152600490fd5b6102d2600161037a565b6102bc611dc5611db0565b6008610de7565b6102d290611859633b9aca0061037a565b611df6611df06102d29263ffffffff1690565b60e01b90565b6001600160e01b03191690565b90611e4890611e396102bc95600495611e1f6323b872dd611ddd565b93611e2960405190565b97889560208701908152016115b8565b602082018103825203836106fb565b611ea2565b6001600160a01b0390911681526040810192916102bc9160200152565b90611e78610bad828461121f565b611e80575050565b610b94611e8c60405190565b63e2517d3f60e01b815292839260048401611e4d565b611eae611eb591610e2e565b9182611f2a565b8051611ec4611118600061037a565b14159081611f06575b50611ed55750565b610b9490611ee260405190565b635274afe760e01b8152918291600483016001600160a01b03909116815260200190565b611f249150806020611f19610bad935190565b8183010191016119a0565b38611ecd565b6102d291611f38600061037a565b91611f8c565b67ffffffffffffffff811161071d57602090601f01601f19160190565b90611f6861075e83611f3e565b918252565b3d15611f8757611f7c3d611f5b565b903d6000602084013e565b606090565b91611f9630610e2e565b81813110611fc05750600082819260206102d2969551920190855af1611fba611f6d565b91611ff1565b610b9490611fcd60405190565b63cd78605960e01b8152918291600483016001600160a01b03909116815260200190565b90611ffc5750612061565b815161200b611118600061037a565b148061204b575b61201a575090565b610b949061202760405190565b639996b31560e01b8152918291600483016001600160a01b03909116815260200190565b50803b61205b611118600061037a565b14612012565b8051612070611118600061037a565b111561207e57805190602001fd5b604051630a12f52160e11b8152600490fdfe06aa03964db1f7257357ef09714a5f0ca3633723df419e97015e0c7a3e83edb7a2646970667358221220c1f2c18d4cd26e1ff94288d12f4e123b6745b3cfd67aba9c805a3826c6ca679164736f6c63430008190033",
    "linkReferences": {}
  },
  "methodIdentifiers": {
    "DECIMALS()": "2e0f2625",
    "DEFAULT_ADMIN_ROLE()": "a217fddf",
    "PAUSE_ROLE()": "389ed267",
    "TON_FEES_RATE_DIVIDER()": "08ec897d",
    "TREASURY_ROLE()": "d11a57ec",
    "_treasury()": "e319a3d9",
    "addAdmin(address)": "70480275",
    "addMinter(address)": "983b2d56",
    "buyGem(uint256,bool)": "02424ed3",
    "gemFactory()": "a53225c0",
    "gemsForSale(uint256)": "9c41b42b",
    "getGemFactory()": "f00fe4fd",
    "getRoleAdmin(bytes32)": "248a9ca3",
    "getStakingIndex()": "5074e0c8",
    "getTonFeesRate()": "a69c8fb2",
    "grantRole(bytes32,address)": "2f2ff15d",
    "hasRole(bytes32,address)": "91d14854",
    "initialize(address,address,uint256,address,address)": "33e1a223",
    "isAdmin(address)": "24d7806c",
    "isMinter(address)": "aa271e1a",
    "isOwner()": "8f32d59b",
    "paused()": "5c975abb",
    "putGemForSale(uint256,uint256)": "2ede6432",
    "putGemListForSale(uint256[],uint256[])": "79dbd798",
    "removeAdmin(address)": "1785f53c",
    "removeMinter(address)": "3092afd5",
    "renounceMinter()": "98650275",
    "renounceOwnership()": "715018a6",
    "renounceRole(bytes32,address)": "36568abe",
    "revokeMinter(address)": "cfbd4885",
    "revokeRole(bytes32,address)": "d547741f",
    "setDiscountRate(uint256)": "7c69febd",
    "setStakingIndex(uint256)": "ce49a360",
    "stakingIndex()": "30f50859",
    "supportsInterface(bytes4)": "01ffc9a7",
    "tonFeesRate()": "12788619",
    "ton_()": "e8dea5e8",
    "transferAdmin(address)": "75829def",
    "transferOwnership(address)": "f2fde38b",
    "wston_()": "8d609841"
  },
  "id": 100
}