{
  "abi": [
    {
      "type": "constructor",
      "inputs": [],
      "stateMutability": "nonpayable"
    },
    {
      "type": "function",
      "name": "DECIMALS",
      "inputs": [],
      "outputs": [
        {
          "name": "",
          "type": "uint256",
          "internalType": "uint256"
        }
      ],
      "stateMutability": "view"
    },
    {
      "type": "function",
      "name": "TON_FEES_RATE_DIVIDER",
      "inputs": [],
      "outputs": [
        {
          "name": "",
          "type": "uint256",
          "internalType": "uint256"
        }
      ],
      "stateMutability": "view"
    },
    {
      "type": "function",
      "name": "_treasury",
      "inputs": [],
      "outputs": [
        {
          "name": "",
          "type": "address",
          "internalType": "address"
        }
      ],
      "stateMutability": "view"
    },
    {
      "type": "function",
      "name": "buyGem",
      "inputs": [
        {
          "name": "_tokenId",
          "type": "uint256",
          "internalType": "uint256"
        },
        {
          "name": "_paymentMethod",
          "type": "bool",
          "internalType": "bool"
        }
      ],
      "outputs": [],
      "stateMutability": "nonpayable"
    },
    {
      "type": "function",
      "name": "gemFactory",
      "inputs": [],
      "outputs": [
        {
          "name": "",
          "type": "address",
          "internalType": "address"
        }
      ],
      "stateMutability": "view"
    },
    {
      "type": "function",
      "name": "gemsForSale",
      "inputs": [
        {
          "name": "",
          "type": "uint256",
          "internalType": "uint256"
        }
      ],
      "outputs": [
        {
          "name": "seller",
          "type": "address",
          "internalType": "address"
        },
        {
          "name": "price",
          "type": "uint256",
          "internalType": "uint256"
        },
        {
          "name": "isActive",
          "type": "bool",
          "internalType": "bool"
        }
      ],
      "stateMutability": "view"
    },
    {
      "type": "function",
      "name": "getGemFactory",
      "inputs": [],
      "outputs": [
        {
          "name": "",
          "type": "address",
          "internalType": "address"
        }
      ],
      "stateMutability": "view"
    },
    {
      "type": "function",
      "name": "getStakingIndex",
      "inputs": [],
      "outputs": [
        {
          "name": "",
          "type": "uint256",
          "internalType": "uint256"
        }
      ],
      "stateMutability": "view"
    },
    {
      "type": "function",
      "name": "getTonFeesRate",
      "inputs": [],
      "outputs": [
        {
          "name": "",
          "type": "uint256",
          "internalType": "uint256"
        }
      ],
      "stateMutability": "view"
    },
    {
      "type": "function",
      "name": "initialize",
      "inputs": [
        {
          "name": "treasury",
          "type": "address",
          "internalType": "address"
        },
        {
          "name": "_gemfactory",
          "type": "address",
          "internalType": "address"
        },
        {
          "name": "_tonFeesRate",
          "type": "uint256",
          "internalType": "uint256"
        },
        {
          "name": "_wston",
          "type": "address",
          "internalType": "address"
        },
        {
          "name": "_ton",
          "type": "address",
          "internalType": "address"
        }
      ],
      "outputs": [],
      "stateMutability": "nonpayable"
    },
    {
      "type": "function",
      "name": "owner",
      "inputs": [],
      "outputs": [
        {
          "name": "",
          "type": "address",
          "internalType": "address"
        }
      ],
      "stateMutability": "view"
    },
    {
      "type": "function",
      "name": "paused",
      "inputs": [],
      "outputs": [
        {
          "name": "",
          "type": "bool",
          "internalType": "bool"
        }
      ],
      "stateMutability": "view"
    },
    {
      "type": "function",
      "name": "putGemForSale",
      "inputs": [
        {
          "name": "_tokenId",
          "type": "uint256",
          "internalType": "uint256"
        },
        {
          "name": "_price",
          "type": "uint256",
          "internalType": "uint256"
        }
      ],
      "outputs": [],
      "stateMutability": "nonpayable"
    },
    {
      "type": "function",
      "name": "putGemListForSale",
      "inputs": [
        {
          "name": "tokenIds",
          "type": "uint256[]",
          "internalType": "uint256[]"
        },
        {
          "name": "prices",
          "type": "uint256[]",
          "internalType": "uint256[]"
        }
      ],
      "outputs": [],
      "stateMutability": "nonpayable"
    },
    {
      "type": "function",
      "name": "removeGemForSale",
      "inputs": [
        {
          "name": "_tokenId",
          "type": "uint256",
          "internalType": "uint256"
        }
      ],
      "outputs": [],
      "stateMutability": "nonpayable"
    },
    {
      "type": "function",
      "name": "renounceOwnership",
      "inputs": [],
      "outputs": [],
      "stateMutability": "nonpayable"
    },
    {
      "type": "function",
      "name": "setDiscountRate",
      "inputs": [
        {
          "name": "_tonFeesRate",
          "type": "uint256",
          "internalType": "uint256"
        }
      ],
      "outputs": [],
      "stateMutability": "nonpayable"
    },
    {
      "type": "function",
      "name": "setStakingIndex",
      "inputs": [
        {
          "name": "_stakingIndex",
          "type": "uint256",
          "internalType": "uint256"
        }
      ],
      "outputs": [],
      "stateMutability": "nonpayable"
    },
    {
      "type": "function",
      "name": "stakingIndex",
      "inputs": [],
      "outputs": [
        {
          "name": "",
          "type": "uint256",
          "internalType": "uint256"
        }
      ],
      "stateMutability": "view"
    },
    {
      "type": "function",
      "name": "tonFeesRate",
      "inputs": [],
      "outputs": [
        {
          "name": "",
          "type": "uint256",
          "internalType": "uint256"
        }
      ],
      "stateMutability": "view"
    },
    {
      "type": "function",
      "name": "ton_",
      "inputs": [],
      "outputs": [
        {
          "name": "",
          "type": "address",
          "internalType": "address"
        }
      ],
      "stateMutability": "view"
    },
    {
      "type": "function",
      "name": "transferOwnership",
      "inputs": [
        {
          "name": "newOwner",
          "type": "address",
          "internalType": "address"
        }
      ],
      "outputs": [],
      "stateMutability": "nonpayable"
    },
    {
      "type": "function",
      "name": "wston_",
      "inputs": [],
      "outputs": [
        {
          "name": "",
          "type": "address",
          "internalType": "address"
        }
      ],
      "stateMutability": "view"
    },
    {
      "type": "event",
      "name": "GemBought",
      "inputs": [
        {
          "name": "tokenId",
          "type": "uint256",
          "indexed": false,
          "internalType": "uint256"
        },
        {
          "name": "payer",
          "type": "address",
          "indexed": false,
          "internalType": "address"
        },
        {
          "name": "seller",
          "type": "address",
          "indexed": false,
          "internalType": "address"
        },
        {
          "name": "amount",
          "type": "uint256",
          "indexed": false,
          "internalType": "uint256"
        }
      ],
      "anonymous": false
    },
    {
      "type": "event",
      "name": "GemForSale",
      "inputs": [
        {
          "name": "tokenId",
          "type": "uint256",
          "indexed": false,
          "internalType": "uint256"
        },
        {
          "name": "seller",
          "type": "address",
          "indexed": false,
          "internalType": "address"
        },
        {
          "name": "price",
          "type": "uint256",
          "indexed": false,
          "internalType": "uint256"
        }
      ],
      "anonymous": false
    },
    {
      "type": "event",
      "name": "GemRemovedFromSale",
      "inputs": [
        {
          "name": "tokenId",
          "type": "uint256",
          "indexed": false,
          "internalType": "uint256"
        }
      ],
      "anonymous": false
    },
    {
      "type": "event",
      "name": "OwnershipTransferred",
      "inputs": [
        {
          "name": "previousOwner",
          "type": "address",
          "indexed": true,
          "internalType": "address"
        },
        {
          "name": "newOwner",
          "type": "address",
          "indexed": true,
          "internalType": "address"
        }
      ],
      "anonymous": false
    },
    {
      "type": "event",
      "name": "SetDiscountRate",
      "inputs": [
        {
          "name": "discountRate",
          "type": "uint256",
          "indexed": false,
          "internalType": "uint256"
        }
      ],
      "anonymous": false
    },
    {
      "type": "event",
      "name": "WSTONClaimed",
      "inputs": [
        {
          "name": "tokenId",
          "type": "uint256",
          "indexed": false,
          "internalType": "uint256"
        },
        {
          "name": "claimer",
          "type": "address",
          "indexed": false,
          "internalType": "address"
        }
      ],
      "anonymous": false
    },
    {
      "type": "error",
      "name": "AddressEmptyCode",
      "inputs": [
        {
          "name": "target",
          "type": "address",
          "internalType": "address"
        }
      ]
    },
    {
      "type": "error",
      "name": "AddressInsufficientBalance",
      "inputs": [
        {
          "name": "account",
          "type": "address",
          "internalType": "address"
        }
      ]
    },
    {
      "type": "error",
      "name": "FailedInnerCall",
      "inputs": []
    },
    {
      "type": "error",
      "name": "OwnableInvalidOwner",
      "inputs": [
        {
          "name": "owner",
          "type": "address",
          "internalType": "address"
        }
      ]
    },
    {
      "type": "error",
      "name": "OwnableUnauthorizedAccount",
      "inputs": [
        {
          "name": "account",
          "type": "address",
          "internalType": "address"
        }
      ]
    },
    {
      "type": "error",
      "name": "ReentrancyGuardReentrantCall",
      "inputs": []
    },
    {
      "type": "error",
      "name": "SafeERC20FailedOperation",
      "inputs": [
        {
          "name": "token",
          "type": "address",
          "internalType": "address"
        }
      ]
    }
  ],
  "bytecode": {
    "object": "0x60806040523461002257610011610027565b604051611b886102268239611b8890f35b600080fd5b61003033610074565b565b61004261003f61003f9290565b90565b6001600160a01b031690565b61003f90610032565b61006090610042565b9052565b6020810192916100309190610057565b61007c6100ce565b610086600061004e565b61008f81610042565b61009883610042565b146100a75750610030906101ce565b6100ca906100b460405190565b631e4fbdf760e01b815291829160048301610064565b0390fd5b610030610118565b61003f61003f61003f9290565b61003f60016100d6565b90600019905b9181191691161790565b9061010d61003f610114926100d6565b82546100ed565b9055565b610120610157565b61003061012b6100e3565b60086100fd565b9060ff906100f3565b151590565b9061015061003f6101149261013b565b8254610132565b610163600160066100fd565b61003060006007610140565b61003f90610042565b61003f905461016f565b906001600160a01b03906100f3565b61003f90610042906001600160a01b031682565b61003f90610191565b61003f906101a5565b906101c761003f610114926101ae565b8254610182565b6101f46101ee6101de6009610178565b6101e98460096101b7565b6101ae565b916101ae565b907f8be0079c531659141344cd1fd0a4f28419497f9722a3daafe3b4186f6b6457e061021f60405190565b600090a356fe6080604052600436101561001257600080fd5b60003560e01c806302424ed31461018257806308ec897d1461017d57806312788619146101785780632e0f2625146101735780632ede64321461016e57806330f508591461016957806333e1a223146101645780635074e0c81461015f5780635c975abb1461015a578063715018a61461015557806379dbd798146101505780637c69febd1461014b5780638d609841146101465780638da5cb5b146101415780639c41b42b1461013c578063a53225c014610137578063a69c8fb214610132578063adad69261461012d578063ce49a36014610128578063e319a3d914610123578063e8dea5e81461011e578063f00fe4fd146101195763f2fde38b03610187576107e7565b6107b8565b61079d565b610776565b610752565b61073a565b61071f565b610704565b6106ce565b610608565b6105d3565b610590565b610563565b61042c565b6103ff565b6103be565b6103a2565b610313565b6102ee565b6102b0565b610278565b61022b565b6101df565b600080fd5b805b0361018757565b905035906101a28261018c565b565b80151561018e565b905035906101a2826101a4565b9190604083820312610187576101dc9060206101d58286610195565b94016101ac565b90565b34610187576101f86101f23660046101b9565b90610880565b604051005b0390f35b600091031261018757565b6101dc6101dc6101dc9290565b6101dc606461020c565b6101dc610219565b346101875761023b366004610201565b6101fd610246610223565b6040519182918290815260200190565b6101dc916008021c81565b906101dc9154610256565b6101dc60006001610261565b3461018757610288366004610201565b6101fd61024661026c565b6101dc6b033b2e3c9fd0803ce800000061020c565b6101dc610293565b34610187576102c0366004610201565b6101fd6102466102a8565b9190604083820312610187576101dc9060206102e78286610195565b9401610195565b34610187576101f86103013660046102cb565b90610902565b6101dc60006006610261565b3461018757610323366004610201565b6101fd610246610307565b6001600160a01b031690565b6001600160a01b03811661018e565b905035906101a28261033a565b919060a0838203126101875761036c8184610349565b9261037a8260208301610349565b926101dc61038b8460408501610195565b93608061039b8260608701610349565b9401610349565b34610187576101f86103b5366004610356565b939290926109db565b34610187576103ce366004610201565b6101fd610246610a26565b6101dc916008021c5b60ff1690565b906101dc91546103d9565b6101dc600060076103e8565b346101875761040f366004610201565b6101fd61041a6103f3565b60405191829182901515815260200190565b346101875761043c366004610201565b6101f8610a68565b634e487b7160e01b600052604160045260246000fd5b90601f01601f1916810190811067ffffffffffffffff82111761047c57604052565b610444565b906101a261048e60405190565b928361045a565b67ffffffffffffffff811161047c5760208091020190565b909291926104c26104bd82610495565b610481565b938185526020808601920283019281841161018757915b8383106104e65750505050565b602080916104f48486610195565b8152019201916104d9565b9080601f83011215610187578160206101dc933591016104ad565b91909160408184031261018757803567ffffffffffffffff811161018757836105449183016104ff565b92602082013567ffffffffffffffff8111610187576101dc92016104ff565b34610187576101f861057636600461051a565b90610bd2565b90602082820312610187576101dc91610195565b34610187576101f86105a336600461057c565b610c2a565b6101dc916008021c6001600160a01b031690565b906101dc91546105a8565b6101dc600060046105bc565b34610187576105e3366004610201565b6101fd6105ee6105c7565b604051918291826001600160a01b03909116815260200190565b3461018757610618366004610201565b6101fd6105ee610c33565b9061062d9061020c565b600052602052604060002090565b6101dc9061032e565b6101dc905461063b565b6101dc9081565b6101dc905461064e565b6101dc906103e2565b6101dc905461065f565b61067d906000610623565b61068681610644565b916101dc600261069860018501610655565b9301610668565b6001600160a01b0390911681526060810193926101a29290916040916106c6906020830152565b019015159052565b34610187576101fd6106e96106e436600461057c565b610672565b6040519193919384938461069f565b6101dc600060026105bc565b3461018757610714366004610201565b6101fd6105ee6106f8565b346101875761072f366004610201565b6101fd610246610c3d565b34610187576101f861074d36600461057c565b610f2a565b34610187576101f861076536600461057c565b610fd0565b6101dc600060036105bc565b3461018757610786366004610201565b6101fd6105ee61076a565b6101dc600060056105bc565b34610187576107ad366004610201565b6101fd6105ee610791565b34610187576107c8366004610201565b6101fd6105ee610fd9565b90602082820312610187576101dc91610349565b34610187576101f86107fa3660046107d3565b61104d565b1561080657565b60405162461bcd60e51b815260206004820152601060248201526f14185d5cd8589b194e881c185d5cd95960821b6044820152606490fd5b0390fd5b906101a29161086061085b6108576007610668565b1590565b6107ff565b61086c565b1561018757565b6101a29161087b9133906114d9565b610865565b906101a291610842565b906101a29161089f61085b6108576007610668565b6108f0565b156108ab57565b60405162461bcd60e51b815260206004820152601a60248201527f6661696c656420746f207075742067656d20666f722073616c650000000000006044820152606490fd5b6101a2916108fd91611625565b6108a4565b906101a29161088a565b1561091357565b60405162461bcd60e51b8152602060048201526024808201527f646973636f756e742072617465206d757374206265206c657373207468616e206044820152633130302560e01b6064820152608490fd5b90600019905b9181191691161790565b906109846101dc61098b9261020c565b8254610964565b9055565b906001600160a01b039061096a565b6101dc9061032e906001600160a01b031682565b6101dc9061099e565b6101dc906109b2565b906109d46101dc61098b926109bb565b825461098f565b610a1890610a116101a2969593610a0a610a1f96610a036109fc606461020c565b821061090c565b6001610974565b60026109c4565b60036109c4565b60046109c4565b60056109c4565b6101dc6006610655565b610a386117ee565b6101a2610a56565b61032e6101dc6101dc9290565b6101dc90610a40565b6101a2610a636000610a4d565b61183a565b6101a2610a30565b906101a291610a8561085b6108576007610668565b610b32565b15610a9157565b60405162461bcd60e51b81526020600482015260096024820152686e6f20746f6b656e7360b81b6044820152606490fd5b15610ac957565b60405162461bcd60e51b815260206004820152600c60248201526b0eee4dedcce40d8cadccee8d60a31b6044820152606490fd5b634e487b7160e01b600052603260045260246000fd5b90610b1c825190565b811015610b2d576020809102010190565b610afd565b919091610b58610b40825190565b610b51610b4d600061020c565b9190565b1415610a8a565b610b77610b63825190565b610b71610b4d6101dc875190565b14610ac2565b610b81600061020c565b610b8c6101dc835190565b811015610bcc5780610bc16108fd610bae610baa610bc79587610b13565b5190565b610bbb610baa858a610b13565b90611625565b60010190565b610b81565b50509050565b906101a291610a70565b6101a290610be86117ee565b610c257f21a8eefc17e9c864964b5a4c0769d87f39cc0a7576773159e12358bc0095ffc591610c1a6109fc606461020c565b610246816001610974565b0390a1565b6101a290610bdc565b6101dc6009610644565b6101dc6001610655565b6101a290610c5b61085b6108576007610668565b610daf565b15610c6757565b60405162461bcd60e51b815260206004820152601360248201527247656d206973206e6f7420666f722073616c6560681b6044820152606490fd5b905051906101a28261033a565b90602082820312610187576101dc91610ca2565b6040513d6000823e3d90fd5b15610cd657565b60405162461bcd60e51b815260206004820152601860248201527f4e6f7420746865206f776e6572206f66207468652047454d00000000000000006044820152606490fd5b9081526040810192916101a2916020906106c6565b9160001960089290920291821b911b61096a565b9190610d556101dc61098b9361020c565b908354610d30565b6101a291600091610d44565b600080825590600290610d7f8360018301610d5d565b0155565b634e487b7160e01b600052600060045260246000fd5b90600003610daa576101a290610d69565b610d83565b600090610ddc610dca6002610dc48486610623565b01610668565b610dd660015b91151590565b14610c60565b610df1610dec610dec6002610644565b6109bb565b6020610dfc60405190565b6331a9108f60e11b81526004810184905291829060249082905afa8015610ef657610e41918491610efb575b50610e3b335b916001600160a01b031690565b14610ccf565b610e51610dec610dec6002610644565b90813b156101875782610e6360405190565b928390634d723a7560e01b8252818381610e81828860048401610d1b565b03925af18015610ef6577f05e530d2932a31001c9cde048b350c93ce3ffea36cf640e4473b8da9e62ac1bb93610c259361024692610eca575b50610ec58382610623565b610d99565b610ee990823d8411610eef575b610ee1818361045a565b810190610201565b38610eba565b503d610ed7565b610cc3565b610f1d915060203d602011610f23575b610f15818361045a565b810190610caf565b38610e28565b503d610f0b565b6101a290610c47565b6101a290610f3f6117ee565b610fa4565b15610f4b57565b60405162461bcd60e51b815260206004820152602b60248201527f7374616b696e6720696e646578206d7573742062652067726561746572206f7260448201526a20657175616c20746f203160a81b6064820152608490fd5b6101a290610fc9610fb56006610655565b610fc2610b4d600161020c565b1015610f44565b6006610974565b6101a290610f33565b6101dc6002610644565b6101a290610fef6117ee565b610ff96000610a4d565b6001600160a01b0381166001600160a01b0383161461101c57506101a29061183a565b61083e9061102960405190565b631e4fbdf760e01b8152918291600483016001600160a01b03909116815260200190565b6101a290610fe3565b9061106a939291611065611896565b611252565b906101a26118d6565b1561107a57565b60405162461bcd60e51b815260206004820152600c60248201526b7a65726f206164647265737360a01b6044820152606490fd5b156110b557565b60405162461bcd60e51b815260206004820152600c60248201526b6e6f7420666f722073616c6560a01b6044820152606490fd5b156110f057565b60405162461bcd60e51b815260206004820152600b60248201526a77726f6e6720707269636560a81b6044820152606490fd5b1561112a57565b60405162461bcd60e51b815260206004820152600c60248201526b3bb937b7339039b2b63632b960a11b6044820152606490fd5b634e487b7160e01b600052601160045260246000fd5b8181029291811591840414171561118757565b61115e565b634e487b7160e01b600052601260045260246000fd5b81156111ac570490565b61118c565b9190820180921161118757565b9060ff9061096a565b906111d76101dc61098b92151590565b82546111be565b6001600160a01b0390911681526060810193926101a292909160409161120f905b6001600160a01b03166020830152565b0152565b61120f6101a294611242606094989795611232608086019a6000870152565b6001600160a01b03166020850152565b6001600160a01b03166040830152565b50600061125e81610a4d565b9361127d6001600160a01b0386166001600160a01b0386161415611073565b61129461128f6002610dc48686610623565b6110ae565b6112a960016112a38585610623565b01610655565b906112be6112b68461020c565b8314156110e9565b6112f66112e56112d8856112d28882610623565b01610644565b976001600160a01b031690565b6001600160a01b0388161415611123565b1561143e5761131381868661130e610dec6004610644565b61191f565b6113298260026113238683610623565b016111c7565b611339610dec610dec6002610644565b803b15610187578261134a60405190565b918290634d723a7560e01b8252818381611368828b60048401610d1b565b03925af18015610ef657611422575b50611388610dec610dec6002610644565b94853b15610187578261139a60405190565b9687906323b872dd60e01b82528183816113b98a8c89600485016111de565b03925af1928315610ef6577f429a311c86d807d248190c8540973d38711c40cabad4c6266ef4b9a7ae6cdc3c966113fd94611405575b505060405194859485611213565b0390a1600190565b8161141b92903d10610eef57610ee1818361045a565b38806113ef565b61143890833d8511610eef57610ee1818361045a565b38611377565b6114b261149461148f61146b61145d6114576006610655565b86611174565b611465610293565b906111a2565b61148961148161147b6001610655565b83611174565b611465610219565b906111b1565b6118e8565b6114a1610dec6005610644565b866114ac6003610644565b9161191f565b6114d481866114c4610dec6004610644565b6114ce6003610644565b9061191f565b611313565b6101dc9291906000611056565b156114ed57565b60405162461bcd60e51b815260206004820152601f60248201527f5072696365206d7573742062652067726561746572207468616e207a65726f006044820152606490fd5b905051906101a2826101a4565b90602082820312610187576101dc91611532565b1561155a57565b60405162461bcd60e51b815260206004820152602160248201527f47656d20697320616c726561647920666f722073616c65206f72206d696e696e6044820152606760f81b6064820152608490fd5b6101dc6060610481565b60026115f960406101a2946115db6115d560008301516001600160a01b031690565b866109c4565b6115f26115e9602083015190565b60018701610974565b0151151590565b91016111c7565b906101a2916115b3565b9081526060810193926101a292909160409161120f906111ff565b90611636610dec610dec6002610644565b602061164160405190565b6331a9108f60e11b81526004810185905291829060249082905afa8015610ef65761167791600091610efb5750610e3b33610e2e565b60009161168d6116868461020c565b83116114e6565b61169d610dec610dec6002610644565b60206116a860405190565b63276a28a360e01b81526004810184905291829060249082905afa8015610ef6576116e69185916117bf575b506116e0851515610dd0565b14611553565b6116f6610dec610dec6002610644565b92833b15610187578061170860405190565b948590634d723a7560e01b825281838161172760018960048401610d1b565b03925af1908115610ef6577f8b8052dfcc72d6fc28cd795f60661e1a701f185ce78c06a47b2ac29357d6ef8b9461178c926117a3575b506117878361176a6115a9565b33848201529261177b876020860152565b60016040850152610623565b611600565b6113fd61179860405190565b92839233908461160a565b6117b990823d8411610eef57610ee1818361045a565b3861175d565b6117e1915060203d6020116117e7575b6117d9818361045a565b81019061153f565b386116d4565b503d6117cf565b6117f6610c33565b339061180182610e2e565b036118095750565b61083e9061181660405190565b63118cdaa760e01b8152918291600483016001600160a01b03909116815260200190565b61185b61185561184a6009610644565b610dec8460096109c4565b916109bb565b907f8be0079c531659141344cd1fd0a4f28419497f9722a3daafe3b4186f6b6457e061188660405190565b600090a3565b6101dc600261020c565b6118a06008610655565b6118a861188c565b9081146118ba576101a2906008610974565b604051633ee5aeb560e01b8152600490fd5b6101dc600161020c565b6101a26118e16118cc565b6008610974565b6101dc90611465633b9aca0061020c565b61191261190c6101dc9263ffffffff1690565b60e01b90565b6001600160e01b03191690565b90611964906119556101a29560049561193b6323b872dd6118f9565b9361194560405190565b97889560208701908152016111de565b6020820181038252038361045a565b611970611977916109bb565b91826119ec565b8051611986610b4d600061020c565b141590816119c8575b506119975750565b61083e906119a460405190565b635274afe760e01b8152918291600483016001600160a01b03909116815260200190565b6119e691508060206119db610857935190565b81830101910161153f565b3861198f565b6101dc916119fa600061020c565b91611a4e565b67ffffffffffffffff811161047c57602090601f01601f19160190565b90611a2a6104bd83611a00565b918252565b3d15611a4957611a3e3d611a1d565b903d6000602084013e565b606090565b91611a58306109bb565b81813110611a825750600082819260206101dc969551920190855af1611a7c611a2f565b91611ab3565b61083e90611a8f60405190565b63cd78605960e01b8152918291600483016001600160a01b03909116815260200190565b90611abe5750611b23565b8151611acd610b4d600061020c565b1480611b0d575b611adc575090565b61083e90611ae960405190565b639996b31560e01b8152918291600483016001600160a01b03909116815260200190565b50803b611b1d610b4d600061020c565b14611ad4565b8051611b32610b4d600061020c565b1115611b4057805190602001fd5b604051630a12f52160e11b8152600490fdfea2646970667358221220bddb8648fb0d113a94d50e68b0317ab96b572515d29cf2d6b0c9cc5d969db01a64736f6c63430008190033",
    "linkReferences": {}
  },
  "methodIdentifiers": {
    "DECIMALS()": "2e0f2625",
    "TON_FEES_RATE_DIVIDER()": "08ec897d",
    "_treasury()": "e319a3d9",
    "buyGem(uint256,bool)": "02424ed3",
    "gemFactory()": "a53225c0",
    "gemsForSale(uint256)": "9c41b42b",
    "getGemFactory()": "f00fe4fd",
    "getStakingIndex()": "5074e0c8",
    "getTonFeesRate()": "a69c8fb2",
    "initialize(address,address,uint256,address,address)": "33e1a223",
    "owner()": "8da5cb5b",
    "paused()": "5c975abb",
    "putGemForSale(uint256,uint256)": "2ede6432",
    "putGemListForSale(uint256[],uint256[])": "79dbd798",
    "removeGemForSale(uint256)": "adad6926",
    "renounceOwnership()": "715018a6",
    "setDiscountRate(uint256)": "7c69febd",
    "setStakingIndex(uint256)": "ce49a360",
    "stakingIndex()": "30f50859",
    "tonFeesRate()": "12788619",
    "ton_()": "e8dea5e8",
    "transferOwnership(address)": "f2fde38b",
    "wston_()": "8d609841"
  },
  "id": 90
}