{
  "abi": [
    {
      "type": "constructor",
      "inputs": [
        {
          "name": "coordinator",
          "type": "address",
          "internalType": "address"
        }
      ],
      "stateMutability": "nonpayable"
    },
    {
      "type": "function",
      "name": "CALLBACK_GAS_LIMIT",
      "inputs": [],
      "outputs": [
        {
          "name": "",
          "type": "uint32",
          "internalType": "uint32"
        }
      ],
      "stateMutability": "view"
    },
    {
      "type": "function",
      "name": "CommonGemsCooldownPeriod",
      "inputs": [],
      "outputs": [
        {
          "name": "",
          "type": "uint256",
          "internalType": "uint256"
        }
      ],
      "stateMutability": "view"
    },
    {
      "type": "function",
      "name": "CommonGemsMiningPeriod",
      "inputs": [],
      "outputs": [
        {
          "name": "",
          "type": "uint256",
          "internalType": "uint256"
        }
      ],
      "stateMutability": "view"
    },
    {
      "type": "function",
      "name": "CommonGemsValue",
      "inputs": [],
      "outputs": [
        {
          "name": "",
          "type": "uint256",
          "internalType": "uint256"
        }
      ],
      "stateMutability": "view"
    },
    {
      "type": "function",
      "name": "CommonMiningFees",
      "inputs": [],
      "outputs": [
        {
          "name": "",
          "type": "uint256",
          "internalType": "uint256"
        }
      ],
      "stateMutability": "view"
    },
    {
      "type": "function",
      "name": "DEFAULT_ADMIN_ROLE",
      "inputs": [],
      "outputs": [
        {
          "name": "",
          "type": "bytes32",
          "internalType": "bytes32"
        }
      ],
      "stateMutability": "view"
    },
    {
      "type": "function",
      "name": "EpicGemsCooldownPeriod",
      "inputs": [],
      "outputs": [
        {
          "name": "",
          "type": "uint256",
          "internalType": "uint256"
        }
      ],
      "stateMutability": "view"
    },
    {
      "type": "function",
      "name": "EpicGemsMiningPeriod",
      "inputs": [],
      "outputs": [
        {
          "name": "",
          "type": "uint256",
          "internalType": "uint256"
        }
      ],
      "stateMutability": "view"
    },
    {
      "type": "function",
      "name": "EpicGemsValue",
      "inputs": [],
      "outputs": [
        {
          "name": "",
          "type": "uint256",
          "internalType": "uint256"
        }
      ],
      "stateMutability": "view"
    },
    {
      "type": "function",
      "name": "EpicMiningFees",
      "inputs": [],
      "outputs": [
        {
          "name": "",
          "type": "uint256",
          "internalType": "uint256"
        }
      ],
      "stateMutability": "view"
    },
    {
      "type": "function",
      "name": "GEMIndexToApproved",
      "inputs": [
        {
          "name": "",
          "type": "uint256",
          "internalType": "uint256"
        }
      ],
      "outputs": [
        {
          "name": "",
          "type": "address",
          "internalType": "address"
        }
      ],
      "stateMutability": "view"
    },
    {
      "type": "function",
      "name": "GEMIndexToOwner",
      "inputs": [
        {
          "name": "",
          "type": "uint256",
          "internalType": "uint256"
        }
      ],
      "outputs": [
        {
          "name": "",
          "type": "address",
          "internalType": "address"
        }
      ],
      "stateMutability": "view"
    },
    {
      "type": "function",
      "name": "Gems",
      "inputs": [
        {
          "name": "",
          "type": "uint256",
          "internalType": "uint256"
        }
      ],
      "outputs": [
        {
          "name": "tokenId",
          "type": "uint256",
          "internalType": "uint256"
        },
        {
          "name": "rarity",
          "type": "uint8",
          "internalType": "enum GemFactoryStorage.Rarity"
        },
        {
          "name": "gemCooldownPeriod",
          "type": "uint256",
          "internalType": "uint256"
        },
        {
          "name": "miningPeriod",
          "type": "uint256",
          "internalType": "uint256"
        },
        {
          "name": "isLocked",
          "type": "bool",
          "internalType": "bool"
        },
        {
          "name": "value",
          "type": "uint256",
          "internalType": "uint256"
        },
        {
          "name": "tokenURI",
          "type": "string",
          "internalType": "string"
        },
        {
          "name": "randomRequestId",
          "type": "uint256",
          "internalType": "uint256"
        }
      ],
      "stateMutability": "view"
    },
    {
      "type": "function",
      "name": "LegendaryGemsCooldownPeriod",
      "inputs": [],
      "outputs": [
        {
          "name": "",
          "type": "uint256",
          "internalType": "uint256"
        }
      ],
      "stateMutability": "view"
    },
    {
      "type": "function",
      "name": "LegendaryGemsMiningPeriod",
      "inputs": [],
      "outputs": [
        {
          "name": "",
          "type": "uint256",
          "internalType": "uint256"
        }
      ],
      "stateMutability": "view"
    },
    {
      "type": "function",
      "name": "LegendaryGemsValue",
      "inputs": [],
      "outputs": [
        {
          "name": "",
          "type": "uint256",
          "internalType": "uint256"
        }
      ],
      "stateMutability": "view"
    },
    {
      "type": "function",
      "name": "LegendaryMiningFees",
      "inputs": [],
      "outputs": [
        {
          "name": "",
          "type": "uint256",
          "internalType": "uint256"
        }
      ],
      "stateMutability": "view"
    },
    {
      "type": "function",
      "name": "MythicGemsCooldownPeriod",
      "inputs": [],
      "outputs": [
        {
          "name": "",
          "type": "uint256",
          "internalType": "uint256"
        }
      ],
      "stateMutability": "view"
    },
    {
      "type": "function",
      "name": "MythicGemsMiningPeriod",
      "inputs": [],
      "outputs": [
        {
          "name": "",
          "type": "uint256",
          "internalType": "uint256"
        }
      ],
      "stateMutability": "view"
    },
    {
      "type": "function",
      "name": "MythicGemsValue",
      "inputs": [],
      "outputs": [
        {
          "name": "",
          "type": "uint256",
          "internalType": "uint256"
        }
      ],
      "stateMutability": "view"
    },
    {
      "type": "function",
      "name": "MythicMiningFees",
      "inputs": [],
      "outputs": [
        {
          "name": "",
          "type": "uint256",
          "internalType": "uint256"
        }
      ],
      "stateMutability": "view"
    },
    {
      "type": "function",
      "name": "PAUSE_ROLE",
      "inputs": [],
      "outputs": [
        {
          "name": "",
          "type": "bytes32",
          "internalType": "bytes32"
        }
      ],
      "stateMutability": "view"
    },
    {
      "type": "function",
      "name": "RareGemsCooldownPeriod",
      "inputs": [],
      "outputs": [
        {
          "name": "",
          "type": "uint256",
          "internalType": "uint256"
        }
      ],
      "stateMutability": "view"
    },
    {
      "type": "function",
      "name": "RareGemsMiningPeriod",
      "inputs": [],
      "outputs": [
        {
          "name": "",
          "type": "uint256",
          "internalType": "uint256"
        }
      ],
      "stateMutability": "view"
    },
    {
      "type": "function",
      "name": "RareGemsValue",
      "inputs": [],
      "outputs": [
        {
          "name": "",
          "type": "uint256",
          "internalType": "uint256"
        }
      ],
      "stateMutability": "view"
    },
    {
      "type": "function",
      "name": "RareMiningFees",
      "inputs": [],
      "outputs": [
        {
          "name": "",
          "type": "uint256",
          "internalType": "uint256"
        }
      ],
      "stateMutability": "view"
    },
    {
      "type": "function",
      "name": "TON_FEES_RATE_DIVIDER",
      "inputs": [],
      "outputs": [
        {
          "name": "",
          "type": "uint256",
          "internalType": "uint256"
        }
      ],
      "stateMutability": "view"
    },
    {
      "type": "function",
      "name": "TREASURY_ROLE",
      "inputs": [],
      "outputs": [
        {
          "name": "",
          "type": "bytes32",
          "internalType": "bytes32"
        }
      ],
      "stateMutability": "view"
    },
    {
      "type": "function",
      "name": "UniqueGemsCooldownPeriod",
      "inputs": [],
      "outputs": [
        {
          "name": "",
          "type": "uint256",
          "internalType": "uint256"
        }
      ],
      "stateMutability": "view"
    },
    {
      "type": "function",
      "name": "UniqueGemsMiningPeriod",
      "inputs": [],
      "outputs": [
        {
          "name": "",
          "type": "uint256",
          "internalType": "uint256"
        }
      ],
      "stateMutability": "view"
    },
    {
      "type": "function",
      "name": "UniqueGemsValue",
      "inputs": [],
      "outputs": [
        {
          "name": "",
          "type": "uint256",
          "internalType": "uint256"
        }
      ],
      "stateMutability": "view"
    },
    {
      "type": "function",
      "name": "UniqueMiningFees",
      "inputs": [],
      "outputs": [
        {
          "name": "",
          "type": "uint256",
          "internalType": "uint256"
        }
      ],
      "stateMutability": "view"
    },
    {
      "type": "function",
      "name": "addAdmin",
      "inputs": [
        {
          "name": "account",
          "type": "address",
          "internalType": "address"
        }
      ],
      "outputs": [],
      "stateMutability": "nonpayable"
    },
    {
      "type": "function",
      "name": "addBackgroundColor",
      "inputs": [
        {
          "name": "_backgroundColor",
          "type": "string",
          "internalType": "string"
        }
      ],
      "outputs": [],
      "stateMutability": "nonpayable"
    },
    {
      "type": "function",
      "name": "addColor",
      "inputs": [
        {
          "name": "_color",
          "type": "string",
          "internalType": "string"
        }
      ],
      "outputs": [],
      "stateMutability": "nonpayable"
    },
    {
      "type": "function",
      "name": "addMinter",
      "inputs": [
        {
          "name": "account",
          "type": "address",
          "internalType": "address"
        }
      ],
      "outputs": [],
      "stateMutability": "nonpayable"
    },
    {
      "type": "function",
      "name": "adminTransferGEM",
      "inputs": [
        {
          "name": "_to",
          "type": "address",
          "internalType": "address"
        },
        {
          "name": "_tokenId",
          "type": "uint256",
          "internalType": "uint256"
        }
      ],
      "outputs": [
        {
          "name": "",
          "type": "bool",
          "internalType": "bool"
        }
      ],
      "stateMutability": "nonpayable"
    },
    {
      "type": "function",
      "name": "aliveImplementation",
      "inputs": [
        {
          "name": "",
          "type": "address",
          "internalType": "address"
        }
      ],
      "outputs": [
        {
          "name": "",
          "type": "bool",
          "internalType": "bool"
        }
      ],
      "stateMutability": "view"
    },
    {
      "type": "function",
      "name": "approve",
      "inputs": [
        {
          "name": "to",
          "type": "address",
          "internalType": "address"
        },
        {
          "name": "tokenId",
          "type": "uint256",
          "internalType": "uint256"
        }
      ],
      "outputs": [],
      "stateMutability": "nonpayable"
    },
    {
      "type": "function",
      "name": "backgroundColors",
      "inputs": [
        {
          "name": "",
          "type": "uint256",
          "internalType": "uint256"
        }
      ],
      "outputs": [
        {
          "name": "",
          "type": "string",
          "internalType": "string"
        }
      ],
      "stateMutability": "view"
    },
    {
      "type": "function",
      "name": "balanceOf",
      "inputs": [
        {
          "name": "_owner",
          "type": "address",
          "internalType": "address"
        }
      ],
      "outputs": [
        {
          "name": "count",
          "type": "uint256",
          "internalType": "uint256"
        }
      ],
      "stateMutability": "view"
    },
    {
      "type": "function",
      "name": "buyGem",
      "inputs": [
        {
          "name": "_tokenId",
          "type": "uint256",
          "internalType": "uint256"
        },
        {
          "name": "_paymentMethod",
          "type": "bool",
          "internalType": "bool"
        }
      ],
      "outputs": [],
      "stateMutability": "nonpayable"
    },
    {
      "type": "function",
      "name": "claimMinedGEM",
      "inputs": [
        {
          "name": "_tokenId",
          "type": "uint256",
          "internalType": "uint256"
        }
      ],
      "outputs": [
        {
          "name": "",
          "type": "bool",
          "internalType": "bool"
        }
      ],
      "stateMutability": "nonpayable"
    },
    {
      "type": "function",
      "name": "colors",
      "inputs": [
        {
          "name": "",
          "type": "uint256",
          "internalType": "uint256"
        }
      ],
      "outputs": [
        {
          "name": "",
          "type": "string",
          "internalType": "string"
        }
      ],
      "stateMutability": "view"
    },
    {
      "type": "function",
      "name": "createGEM",
      "inputs": [
        {
          "name": "_rarity",
          "type": "uint8",
          "internalType": "enum GemFactoryStorage.Rarity"
        },
        {
          "name": "_color",
          "type": "uint8[2]",
          "internalType": "uint8[2]"
        },
        {
          "name": "_quadrants",
          "type": "uint8[4]",
          "internalType": "uint8[4]"
        },
        {
          "name": "_tokenURI",
          "type": "string",
          "internalType": "string"
        }
      ],
      "outputs": [
        {
          "name": "",
          "type": "uint256",
          "internalType": "uint256"
        }
      ],
      "stateMutability": "nonpayable"
    },
    {
      "type": "function",
      "name": "createGEMPool",
      "inputs": [
        {
          "name": "_rarities",
          "type": "uint8[]",
          "internalType": "enum GemFactoryStorage.Rarity[]"
        },
        {
          "name": "_colors",
          "type": "uint8[2][]",
          "internalType": "uint8[2][]"
        },
        {
          "name": "_quadrants",
          "type": "uint8[4][]",
          "internalType": "uint8[4][]"
        },
        {
          "name": "_tokenURIs",
          "type": "string[]",
          "internalType": "string[]"
        }
      ],
      "outputs": [
        {
          "name": "",
          "type": "uint256[]",
          "internalType": "uint256[]"
        }
      ],
      "stateMutability": "nonpayable"
    },
    {
      "type": "function",
      "name": "customBackgroundColors",
      "inputs": [
        {
          "name": "",
          "type": "uint8",
          "internalType": "uint8"
        }
      ],
      "outputs": [
        {
          "name": "",
          "type": "string",
          "internalType": "string"
        }
      ],
      "stateMutability": "view"
    },
    {
      "type": "function",
      "name": "customBackgroundColorsCount",
      "inputs": [],
      "outputs": [
        {
          "name": "",
          "type": "uint8",
          "internalType": "uint8"
        }
      ],
      "stateMutability": "view"
    },
    {
      "type": "function",
      "name": "customColors",
      "inputs": [
        {
          "name": "",
          "type": "uint8",
          "internalType": "uint8"
        }
      ],
      "outputs": [
        {
          "name": "",
          "type": "string",
          "internalType": "string"
        }
      ],
      "stateMutability": "view"
    },
    {
      "type": "function",
      "name": "customColorsCount",
      "inputs": [],
      "outputs": [
        {
          "name": "",
          "type": "uint8",
          "internalType": "uint8"
        }
      ],
      "stateMutability": "view"
    },
    {
      "type": "function",
      "name": "forgeTokens",
      "inputs": [
        {
          "name": "_tokenIds",
          "type": "uint256[]",
          "internalType": "uint256[]"
        },
        {
          "name": "_rarity",
          "type": "uint8",
          "internalType": "enum GemFactoryStorage.Rarity"
        },
        {
          "name": "_color",
          "type": "uint8[2]",
          "internalType": "uint8[2]"
        }
      ],
      "outputs": [
        {
          "name": "newGemId",
          "type": "uint256",
          "internalType": "uint256"
        }
      ],
      "stateMutability": "nonpayable"
    },
    {
      "type": "function",
      "name": "gemAllowedToAddress",
      "inputs": [
        {
          "name": "",
          "type": "uint256",
          "internalType": "uint256"
        }
      ],
      "outputs": [
        {
          "name": "",
          "type": "address",
          "internalType": "address"
        }
      ],
      "stateMutability": "view"
    },
    {
      "type": "function",
      "name": "gemFactory",
      "inputs": [],
      "outputs": [
        {
          "name": "",
          "type": "address",
          "internalType": "address"
        }
      ],
      "stateMutability": "view"
    },
    {
      "type": "function",
      "name": "gemsForSale",
      "inputs": [
        {
          "name": "",
          "type": "uint256",
          "internalType": "uint256"
        }
      ],
      "outputs": [
        {
          "name": "seller",
          "type": "address",
          "internalType": "address"
        },
        {
          "name": "price",
          "type": "uint256",
          "internalType": "uint256"
        },
        {
          "name": "isActive",
          "type": "bool",
          "internalType": "bool"
        }
      ],
      "stateMutability": "view"
    },
    {
      "type": "function",
      "name": "getApproved",
      "inputs": [
        {
          "name": "tokenId",
          "type": "uint256",
          "internalType": "uint256"
        }
      ],
      "outputs": [
        {
          "name": "",
          "type": "address",
          "internalType": "address"
        }
      ],
      "stateMutability": "view"
    },
    {
      "type": "function",
      "name": "getCalculatedDirectFundingPrice",
      "inputs": [
        {
          "name": "_callbackGasLimit",
          "type": "uint32",
          "internalType": "uint32"
        }
      ],
      "outputs": [
        {
          "name": "",
          "type": "uint256",
          "internalType": "uint256"
        }
      ],
      "stateMutability": "view"
    },
    {
      "type": "function",
      "name": "getCommonMiningFees",
      "inputs": [],
      "outputs": [
        {
          "name": "",
          "type": "uint256",
          "internalType": "uint256"
        }
      ],
      "stateMutability": "view"
    },
    {
      "type": "function",
      "name": "getCustomColor",
      "inputs": [
        {
          "name": "_index",
          "type": "uint8",
          "internalType": "uint8"
        }
      ],
      "outputs": [
        {
          "name": "",
          "type": "string",
          "internalType": "string"
        }
      ],
      "stateMutability": "view"
    },
    {
      "type": "function",
      "name": "getGem",
      "inputs": [
        {
          "name": "_tokenId",
          "type": "uint256",
          "internalType": "uint256"
        }
      ],
      "outputs": [
        {
          "name": "",
          "type": "tuple",
          "internalType": "struct GemFactoryStorage.Gem",
          "components": [
            {
              "name": "tokenId",
              "type": "uint256",
              "internalType": "uint256"
            },
            {
              "name": "rarity",
              "type": "uint8",
              "internalType": "enum GemFactoryStorage.Rarity"
            },
            {
              "name": "quadrants",
              "type": "uint8[4]",
              "internalType": "uint8[4]"
            },
            {
              "name": "color",
              "type": "uint8[2]",
              "internalType": "uint8[2]"
            },
            {
              "name": "gemCooldownPeriod",
              "type": "uint256",
              "internalType": "uint256"
            },
            {
              "name": "miningPeriod",
              "type": "uint256",
              "internalType": "uint256"
            },
            {
              "name": "isLocked",
              "type": "bool",
              "internalType": "bool"
            },
            {
              "name": "value",
              "type": "uint256",
              "internalType": "uint256"
            },
            {
              "name": "tokenURI",
              "type": "string",
              "internalType": "string"
            },
            {
              "name": "randomRequestId",
              "type": "uint256",
              "internalType": "uint256"
            }
          ]
        }
      ],
      "stateMutability": "view"
    },
    {
      "type": "function",
      "name": "getRareMiningFees",
      "inputs": [],
      "outputs": [
        {
          "name": "",
          "type": "uint256",
          "internalType": "uint256"
        }
      ],
      "stateMutability": "view"
    },
    {
      "type": "function",
      "name": "getRoleAdmin",
      "inputs": [
        {
          "name": "role",
          "type": "bytes32",
          "internalType": "bytes32"
        }
      ],
      "outputs": [
        {
          "name": "",
          "type": "bytes32",
          "internalType": "bytes32"
        }
      ],
      "stateMutability": "view"
    },
    {
      "type": "function",
      "name": "getTon",
      "inputs": [],
      "outputs": [
        {
          "name": "",
          "type": "address",
          "internalType": "address"
        }
      ],
      "stateMutability": "view"
    },
    {
      "type": "function",
      "name": "getTonFeesRate",
      "inputs": [],
      "outputs": [
        {
          "name": "",
          "type": "uint256",
          "internalType": "uint256"
        }
      ],
      "stateMutability": "view"
    },
    {
      "type": "function",
      "name": "getTreasury",
      "inputs": [],
      "outputs": [
        {
          "name": "",
          "type": "address",
          "internalType": "address"
        }
      ],
      "stateMutability": "view"
    },
    {
      "type": "function",
      "name": "getUniqueMiningFees",
      "inputs": [],
      "outputs": [
        {
          "name": "",
          "type": "uint256",
          "internalType": "uint256"
        }
      ],
      "stateMutability": "view"
    },
    {
      "type": "function",
      "name": "getWston",
      "inputs": [],
      "outputs": [
        {
          "name": "",
          "type": "address",
          "internalType": "address"
        }
      ],
      "stateMutability": "view"
    },
    {
      "type": "function",
      "name": "grantRole",
      "inputs": [
        {
          "name": "role",
          "type": "bytes32",
          "internalType": "bytes32"
        },
        {
          "name": "account",
          "type": "address",
          "internalType": "address"
        }
      ],
      "outputs": [],
      "stateMutability": "nonpayable"
    },
    {
      "type": "function",
      "name": "hasRole",
      "inputs": [
        {
          "name": "role",
          "type": "bytes32",
          "internalType": "bytes32"
        },
        {
          "name": "account",
          "type": "address",
          "internalType": "address"
        }
      ],
      "outputs": [
        {
          "name": "",
          "type": "bool",
          "internalType": "bool"
        }
      ],
      "stateMutability": "view"
    },
    {
      "type": "function",
      "name": "initialize",
      "inputs": [
        {
          "name": "_wston",
          "type": "address",
          "internalType": "address"
        },
        {
          "name": "_ton",
          "type": "address",
          "internalType": "address"
        },
        {
          "name": "_treasury",
          "type": "address",
          "internalType": "address"
        },
        {
          "name": "_CommonMiningFees",
          "type": "uint256",
          "internalType": "uint256"
        },
        {
          "name": "_RareMiningFees",
          "type": "uint256",
          "internalType": "uint256"
        },
        {
          "name": "_UniqueMiningFees",
          "type": "uint256",
          "internalType": "uint256"
        },
        {
          "name": "_EpicMiningFees",
          "type": "uint256",
          "internalType": "uint256"
        },
        {
          "name": "_LegendaryMiningFees",
          "type": "uint256",
          "internalType": "uint256"
        },
        {
          "name": "_MythicMiningFees",
          "type": "uint256",
          "internalType": "uint256"
        },
        {
          "name": "_CommonGemsValue",
          "type": "uint256",
          "internalType": "uint256"
        },
        {
          "name": "_RareGemsValue",
          "type": "uint256",
          "internalType": "uint256"
        },
        {
          "name": "_UniqueGemsValue",
          "type": "uint256",
          "internalType": "uint256"
        },
        {
          "name": "_EpicGemsValue",
          "type": "uint256",
          "internalType": "uint256"
        },
        {
          "name": "_LegendaryGemsValue",
          "type": "uint256",
          "internalType": "uint256"
        },
        {
          "name": "_MythicGemsValue",
          "type": "uint256",
          "internalType": "uint256"
        }
      ],
      "outputs": [],
      "stateMutability": "nonpayable"
    },
    {
      "type": "function",
      "name": "initialize",
      "inputs": [
        {
          "name": "treasury",
          "type": "address",
          "internalType": "address"
        },
        {
          "name": "gemfactory",
          "type": "address",
          "internalType": "address"
        },
        {
          "name": "_tonFeesRate",
          "type": "uint256",
          "internalType": "uint256"
        },
        {
          "name": "_wston",
          "type": "address",
          "internalType": "address"
        },
        {
          "name": "_ton",
          "type": "address",
          "internalType": "address"
        }
      ],
      "outputs": [],
      "stateMutability": "nonpayable"
    },
    {
      "type": "function",
      "name": "isAdmin",
      "inputs": [
        {
          "name": "account",
          "type": "address",
          "internalType": "address"
        }
      ],
      "outputs": [
        {
          "name": "",
          "type": "bool",
          "internalType": "bool"
        }
      ],
      "stateMutability": "view"
    },
    {
      "type": "function",
      "name": "isApprovedForAll",
      "inputs": [
        {
          "name": "owner",
          "type": "address",
          "internalType": "address"
        },
        {
          "name": "operator",
          "type": "address",
          "internalType": "address"
        }
      ],
      "outputs": [
        {
          "name": "",
          "type": "bool",
          "internalType": "bool"
        }
      ],
      "stateMutability": "view"
    },
    {
      "type": "function",
      "name": "isMinter",
      "inputs": [
        {
          "name": "account",
          "type": "address",
          "internalType": "address"
        }
      ],
      "outputs": [
        {
          "name": "",
          "type": "bool",
          "internalType": "bool"
        }
      ],
      "stateMutability": "view"
    },
    {
      "type": "function",
      "name": "isOwner",
      "inputs": [],
      "outputs": [
        {
          "name": "",
          "type": "bool",
          "internalType": "bool"
        }
      ],
      "stateMutability": "view"
    },
    {
      "type": "function",
      "name": "isTokenLocked",
      "inputs": [
        {
          "name": "_tokenId",
          "type": "uint256",
          "internalType": "uint256"
        }
      ],
      "outputs": [
        {
          "name": "",
          "type": "bool",
          "internalType": "bool"
        }
      ],
      "stateMutability": "view"
    },
    {
      "type": "function",
      "name": "isUserMining",
      "inputs": [
        {
          "name": "",
          "type": "address",
          "internalType": "address"
        }
      ],
      "outputs": [
        {
          "name": "",
          "type": "bool",
          "internalType": "bool"
        }
      ],
      "stateMutability": "view"
    },
    {
      "type": "function",
      "name": "lastRequestId",
      "inputs": [],
      "outputs": [
        {
          "name": "",
          "type": "uint256",
          "internalType": "uint256"
        }
      ],
      "stateMutability": "view"
    },
    {
      "type": "function",
      "name": "marketplace",
      "inputs": [],
      "outputs": [
        {
          "name": "",
          "type": "address",
          "internalType": "address"
        }
      ],
      "stateMutability": "view"
    },
    {
      "type": "function",
      "name": "meltGEM",
      "inputs": [
        {
          "name": "_tokenId",
          "type": "uint256",
          "internalType": "uint256"
        }
      ],
      "outputs": [],
      "stateMutability": "nonpayable"
    },
    {
      "type": "function",
      "name": "name",
      "inputs": [],
      "outputs": [
        {
          "name": "",
          "type": "string",
          "internalType": "string"
        }
      ],
      "stateMutability": "view"
    },
    {
      "type": "function",
      "name": "numberOfSolidColors",
      "inputs": [],
      "outputs": [
        {
          "name": "",
          "type": "uint8",
          "internalType": "uint8"
        }
      ],
      "stateMutability": "view"
    },
    {
      "type": "function",
      "name": "ownerOf",
      "inputs": [
        {
          "name": "tokenId",
          "type": "uint256",
          "internalType": "uint256"
        }
      ],
      "outputs": [
        {
          "name": "",
          "type": "address",
          "internalType": "address"
        }
      ],
      "stateMutability": "view"
    },
    {
      "type": "function",
      "name": "ownerOfGEM",
      "inputs": [
        {
          "name": "_tokenId",
          "type": "uint256",
          "internalType": "uint256"
        }
      ],
      "outputs": [
        {
          "name": "owner",
          "type": "address",
          "internalType": "address"
        }
      ],
      "stateMutability": "view"
    },
    {
      "type": "function",
      "name": "ownershipTokenCount",
      "inputs": [
        {
          "name": "",
          "type": "address",
          "internalType": "address"
        }
      ],
      "outputs": [
        {
          "name": "",
          "type": "uint256",
          "internalType": "uint256"
        }
      ],
      "stateMutability": "view"
    },
    {
      "type": "function",
      "name": "pause",
      "inputs": [],
      "outputs": [],
      "stateMutability": "nonpayable"
    },
    {
      "type": "function",
      "name": "pauseProxy",
      "inputs": [],
      "outputs": [
        {
          "name": "",
          "type": "bool",
          "internalType": "bool"
        }
      ],
      "stateMutability": "view"
    },
    {
      "type": "function",
      "name": "paused",
      "inputs": [],
      "outputs": [
        {
          "name": "",
          "type": "bool",
          "internalType": "bool"
        }
      ],
      "stateMutability": "view"
    },
    {
      "type": "function",
      "name": "preMintedGemsAvailable",
      "inputs": [],
      "outputs": [
        {
          "name": "GemsAvailable",
          "type": "uint256[]",
          "internalType": "uint256[]"
        }
      ],
      "stateMutability": "view"
    },
    {
      "type": "function",
      "name": "proxyImplementation",
      "inputs": [
        {
          "name": "",
          "type": "uint256",
          "internalType": "uint256"
        }
      ],
      "outputs": [
        {
          "name": "",
          "type": "address",
          "internalType": "address"
        }
      ],
      "stateMutability": "view"
    },
    {
      "type": "function",
      "name": "putGemForSale",
      "inputs": [
        {
          "name": "_tokenId",
          "type": "uint256",
          "internalType": "uint256"
        },
        {
          "name": "_price",
          "type": "uint256",
          "internalType": "uint256"
        }
      ],
      "outputs": [],
      "stateMutability": "nonpayable"
    },
    {
      "type": "function",
      "name": "putGemListForSale",
      "inputs": [
        {
          "name": "tokenIds",
          "type": "uint256[]",
          "internalType": "uint256[]"
        },
        {
          "name": "prices",
          "type": "uint256[]",
          "internalType": "uint256[]"
        }
      ],
      "outputs": [],
      "stateMutability": "nonpayable"
    },
    {
      "type": "function",
      "name": "rawFulfillRandomWords",
      "inputs": [
        {
          "name": "round",
          "type": "uint256",
          "internalType": "uint256"
        },
        {
          "name": "hashedOmegaVal",
          "type": "uint256",
          "internalType": "uint256"
        }
      ],
      "outputs": [],
      "stateMutability": "nonpayable"
    },
    {
      "type": "function",
      "name": "removeAdmin",
      "inputs": [
        {
          "name": "account",
          "type": "address",
          "internalType": "address"
        }
      ],
      "outputs": [],
      "stateMutability": "nonpayable"
    },
    {
      "type": "function",
      "name": "removeMinter",
      "inputs": [
        {
          "name": "account",
          "type": "address",
          "internalType": "address"
        }
      ],
      "outputs": [],
      "stateMutability": "nonpayable"
    },
    {
      "type": "function",
      "name": "renounceMinter",
      "inputs": [],
      "outputs": [],
      "stateMutability": "nonpayable"
    },
    {
      "type": "function",
      "name": "renounceOwnership",
      "inputs": [],
      "outputs": [],
      "stateMutability": "nonpayable"
    },
    {
      "type": "function",
      "name": "renounceRole",
      "inputs": [
        {
          "name": "role",
          "type": "bytes32",
          "internalType": "bytes32"
        },
        {
          "name": "callerConfirmation",
          "type": "address",
          "internalType": "address"
        }
      ],
      "outputs": [],
      "stateMutability": "nonpayable"
    },
    {
      "type": "function",
      "name": "requestCount",
      "inputs": [],
      "outputs": [
        {
          "name": "",
          "type": "uint256",
          "internalType": "uint256"
        }
      ],
      "stateMutability": "view"
    },
    {
      "type": "function",
      "name": "requestIds",
      "inputs": [
        {
          "name": "",
          "type": "uint256",
          "internalType": "uint256"
        }
      ],
      "outputs": [
        {
          "name": "",
          "type": "uint256",
          "internalType": "uint256"
        }
      ],
      "stateMutability": "view"
    },
    {
      "type": "function",
      "name": "revokeMinter",
      "inputs": [
        {
          "name": "account",
          "type": "address",
          "internalType": "address"
        }
      ],
      "outputs": [],
      "stateMutability": "nonpayable"
    },
    {
      "type": "function",
      "name": "revokeRole",
      "inputs": [
        {
          "name": "role",
          "type": "bytes32",
          "internalType": "bytes32"
        },
        {
          "name": "account",
          "type": "address",
          "internalType": "address"
        }
      ],
      "outputs": [],
      "stateMutability": "nonpayable"
    },
    {
      "type": "function",
      "name": "s_requests",
      "inputs": [
        {
          "name": "",
          "type": "uint256",
          "internalType": "uint256"
        }
      ],
      "outputs": [
        {
          "name": "requested",
          "type": "bool",
          "internalType": "bool"
        },
        {
          "name": "fulfilled",
          "type": "bool",
          "internalType": "bool"
        },
        {
          "name": "randomWord",
          "type": "uint256",
          "internalType": "uint256"
        },
        {
          "name": "chosenTokenId",
          "type": "uint256",
          "internalType": "uint256"
        },
        {
          "name": "requester",
          "type": "address",
          "internalType": "address"
        }
      ],
      "stateMutability": "view"
    },
    {
      "type": "function",
      "name": "safeTransferFrom",
      "inputs": [
        {
          "name": "from",
          "type": "address",
          "internalType": "address"
        },
        {
          "name": "to",
          "type": "address",
          "internalType": "address"
        },
        {
          "name": "tokenId",
          "type": "uint256",
          "internalType": "uint256"
        }
      ],
      "outputs": [],
      "stateMutability": "nonpayable"
    },
    {
      "type": "function",
      "name": "safeTransferFrom",
      "inputs": [
        {
          "name": "from",
          "type": "address",
          "internalType": "address"
        },
        {
          "name": "to",
          "type": "address",
          "internalType": "address"
        },
        {
          "name": "tokenId",
          "type": "uint256",
          "internalType": "uint256"
        },
        {
          "name": "data",
          "type": "bytes",
          "internalType": "bytes"
        }
      ],
      "outputs": [],
      "stateMutability": "nonpayable"
    },
    {
      "type": "function",
      "name": "selectorImplementation",
      "inputs": [
        {
          "name": "",
          "type": "bytes4",
          "internalType": "bytes4"
        }
      ],
      "outputs": [
        {
          "name": "",
          "type": "address",
          "internalType": "address"
        }
      ],
      "stateMutability": "view"
    },
    {
      "type": "function",
      "name": "setApprovalForAll",
      "inputs": [
        {
          "name": "operator",
          "type": "address",
          "internalType": "address"
        },
        {
          "name": "approved",
          "type": "bool",
          "internalType": "bool"
        }
      ],
      "outputs": [],
      "stateMutability": "nonpayable"
    },
    {
      "type": "function",
      "name": "setApprovalForMarketplace",
      "inputs": [],
      "outputs": [],
      "stateMutability": "nonpayable"
    },
    {
      "type": "function",
      "name": "setDiscountRate",
      "inputs": [
        {
          "name": "_tonFeesRate",
          "type": "uint256",
          "internalType": "uint256"
        }
      ],
      "outputs": [],
      "stateMutability": "nonpayable"
    },
    {
      "type": "function",
      "name": "setGemsCooldownPeriods",
      "inputs": [
        {
          "name": "_CommonGemsCooldownPeriod",
          "type": "uint256",
          "internalType": "uint256"
        },
        {
          "name": "_RareGemsCooldownPeriod",
          "type": "uint256",
          "internalType": "uint256"
        },
        {
          "name": "_UniqueGemsCooldownPeriod",
          "type": "uint256",
          "internalType": "uint256"
        },
        {
          "name": "_EpicGemsCooldownPeriod",
          "type": "uint256",
          "internalType": "uint256"
        },
        {
          "name": "_LegendaryGemsCooldownPeriod",
          "type": "uint256",
          "internalType": "uint256"
        },
        {
          "name": "_MythicGemsCooldownPeriod",
          "type": "uint256",
          "internalType": "uint256"
        }
      ],
      "outputs": [],
      "stateMutability": "nonpayable"
    },
    {
      "type": "function",
      "name": "setGemsMiningPeriods",
      "inputs": [
        {
          "name": "_CommonGemsMiningPeriod",
          "type": "uint256",
          "internalType": "uint256"
        },
        {
          "name": "_RareGemsMiningPeriod",
          "type": "uint256",
          "internalType": "uint256"
        },
        {
          "name": "_UniqueGemsMiningPeriod",
          "type": "uint256",
          "internalType": "uint256"
        },
        {
          "name": "_EpicGemsMiningPeriod",
          "type": "uint256",
          "internalType": "uint256"
        },
        {
          "name": "_LegendaryGemsMiningPeriod",
          "type": "uint256",
          "internalType": "uint256"
        },
        {
          "name": "_MythicGemsMiningPeriod",
          "type": "uint256",
          "internalType": "uint256"
        }
      ],
      "outputs": [],
      "stateMutability": "nonpayable"
    },
    {
      "type": "function",
      "name": "setIsLocked",
      "inputs": [
        {
          "name": "_tokenId",
          "type": "uint256",
          "internalType": "uint256"
        },
        {
          "name": "_isLocked",
          "type": "bool",
          "internalType": "bool"
        }
      ],
      "outputs": [],
      "stateMutability": "nonpayable"
    },
    {
      "type": "function",
      "name": "setMarketPlaceAddress",
      "inputs": [
        {
          "name": "_marketplace",
          "type": "address",
          "internalType": "address"
        }
      ],
      "outputs": [],
      "stateMutability": "nonpayable"
    },
    {
      "type": "function",
      "name": "setNumberOfSolidColors",
      "inputs": [
        {
          "name": "_numberOfSolidColors",
          "type": "uint8",
          "internalType": "uint8"
        }
      ],
      "outputs": [],
      "stateMutability": "nonpayable"
    },
    {
      "type": "function",
      "name": "startMiningGEM",
      "inputs": [
        {
          "name": "_tokenId",
          "type": "uint256",
          "internalType": "uint256"
        }
      ],
      "outputs": [
        {
          "name": "",
          "type": "bool",
          "internalType": "bool"
        }
      ],
      "stateMutability": "payable"
    },
    {
      "type": "function",
      "name": "supportsInterface",
      "inputs": [
        {
          "name": "interfaceId",
          "type": "bytes4",
          "internalType": "bytes4"
        }
      ],
      "outputs": [
        {
          "name": "",
          "type": "bool",
          "internalType": "bool"
        }
      ],
      "stateMutability": "view"
    },
    {
      "type": "function",
      "name": "symbol",
      "inputs": [],
      "outputs": [
        {
          "name": "",
          "type": "string",
          "internalType": "string"
        }
      ],
      "stateMutability": "view"
    },
    {
      "type": "function",
      "name": "tokenMiningByUser",
      "inputs": [
        {
          "name": "",
          "type": "address",
          "internalType": "address"
        }
      ],
      "outputs": [
        {
          "name": "",
          "type": "uint256",
          "internalType": "uint256"
        }
      ],
      "stateMutability": "view"
    },
    {
      "type": "function",
      "name": "tokenReadyToMine",
      "inputs": [
        {
          "name": "",
          "type": "uint256",
          "internalType": "uint256"
        }
      ],
      "outputs": [
        {
          "name": "",
          "type": "bool",
          "internalType": "bool"
        }
      ],
      "stateMutability": "view"
    },
    {
      "type": "function",
      "name": "tokenURI",
      "inputs": [
        {
          "name": "tokenId",
          "type": "uint256",
          "internalType": "uint256"
        }
      ],
      "outputs": [
        {
          "name": "",
          "type": "string",
          "internalType": "string"
        }
      ],
      "stateMutability": "view"
    },
    {
      "type": "function",
      "name": "tokensOfOwner",
      "inputs": [
        {
          "name": "_owner",
          "type": "address",
          "internalType": "address"
        }
      ],
      "outputs": [
        {
          "name": "ownerTokens",
          "type": "uint256[]",
          "internalType": "uint256[]"
        }
      ],
      "stateMutability": "view"
    },
    {
      "type": "function",
      "name": "ton",
      "inputs": [],
      "outputs": [
        {
          "name": "",
          "type": "address",
          "internalType": "address"
        }
      ],
      "stateMutability": "view"
    },
    {
      "type": "function",
      "name": "tonFeesRate",
      "inputs": [],
      "outputs": [
        {
          "name": "",
          "type": "uint256",
          "internalType": "uint256"
        }
      ],
      "stateMutability": "view"
    },
    {
      "type": "function",
      "name": "totalSupply",
      "inputs": [],
      "outputs": [
        {
          "name": "",
          "type": "uint256",
          "internalType": "uint256"
        }
      ],
      "stateMutability": "view"
    },
    {
      "type": "function",
      "name": "transferAdmin",
      "inputs": [
        {
          "name": "newAdmin",
          "type": "address",
          "internalType": "address"
        }
      ],
      "outputs": [],
      "stateMutability": "nonpayable"
    },
    {
      "type": "function",
      "name": "transferFrom",
      "inputs": [
        {
          "name": "from",
          "type": "address",
          "internalType": "address"
        },
        {
          "name": "to",
          "type": "address",
          "internalType": "address"
        },
        {
          "name": "tokenId",
          "type": "uint256",
          "internalType": "uint256"
        }
      ],
      "outputs": [],
      "stateMutability": "nonpayable"
    },
    {
      "type": "function",
      "name": "transferGEM",
      "inputs": [
        {
          "name": "_to",
          "type": "address",
          "internalType": "address"
        },
        {
          "name": "_tokenId",
          "type": "uint256",
          "internalType": "uint256"
        }
      ],
      "outputs": [],
      "stateMutability": "nonpayable"
    },
    {
      "type": "function",
      "name": "transferGEMFrom",
      "inputs": [
        {
          "name": "_from",
          "type": "address",
          "internalType": "address"
        },
        {
          "name": "_to",
          "type": "address",
          "internalType": "address"
        },
        {
          "name": "_tokenId",
          "type": "uint256",
          "internalType": "uint256"
        }
      ],
      "outputs": [],
      "stateMutability": "nonpayable"
    },
    {
      "type": "function",
      "name": "transferOwnership",
      "inputs": [
        {
          "name": "newAdmin",
          "type": "address",
          "internalType": "address"
        }
      ],
      "outputs": [],
      "stateMutability": "nonpayable"
    },
    {
      "type": "function",
      "name": "treasury",
      "inputs": [],
      "outputs": [
        {
          "name": "",
          "type": "address",
          "internalType": "address"
        }
      ],
      "stateMutability": "view"
    },
    {
      "type": "function",
      "name": "unpause",
      "inputs": [],
      "outputs": [],
      "stateMutability": "nonpayable"
    },
    {
      "type": "function",
      "name": "userMiningStartTime",
      "inputs": [
        {
          "name": "",
          "type": "address",
          "internalType": "address"
        },
        {
          "name": "",
          "type": "uint256",
          "internalType": "uint256"
        }
      ],
      "outputs": [
        {
          "name": "",
          "type": "uint256",
          "internalType": "uint256"
        }
      ],
      "stateMutability": "view"
    },
    {
      "type": "function",
      "name": "userMiningToken",
      "inputs": [
        {
          "name": "",
          "type": "address",
          "internalType": "address"
        },
        {
          "name": "",
          "type": "uint256",
          "internalType": "uint256"
        }
      ],
      "outputs": [
        {
          "name": "",
          "type": "bool",
          "internalType": "bool"
        }
      ],
      "stateMutability": "view"
    },
    {
      "type": "function",
      "name": "wston",
      "inputs": [],
      "outputs": [
        {
          "name": "",
          "type": "address",
          "internalType": "address"
        }
      ],
      "stateMutability": "view"
    },
    {
      "type": "event",
      "name": "Approval",
      "inputs": [
        {
          "name": "owner",
          "type": "address",
          "indexed": true,
          "internalType": "address"
        },
        {
          "name": "approved",
          "type": "address",
          "indexed": true,
          "internalType": "address"
        },
        {
          "name": "tokenId",
          "type": "uint256",
          "indexed": true,
          "internalType": "uint256"
        }
      ],
      "anonymous": false
    },
    {
      "type": "event",
      "name": "ApprovalForAll",
      "inputs": [
        {
          "name": "owner",
          "type": "address",
          "indexed": true,
          "internalType": "address"
        },
        {
          "name": "operator",
          "type": "address",
          "indexed": true,
          "internalType": "address"
        },
        {
          "name": "approved",
          "type": "bool",
          "indexed": false,
          "internalType": "bool"
        }
      ],
      "anonymous": false
    },
    {
      "type": "event",
      "name": "BackgroundColorAdded",
      "inputs": [
        {
          "name": "id",
          "type": "uint8",
          "indexed": true,
          "internalType": "uint8"
        },
        {
          "name": "backgroundColor",
          "type": "string",
          "indexed": false,
          "internalType": "string"
        }
      ],
      "anonymous": false
    },
    {
      "type": "event",
      "name": "BatchMetadataUpdate",
      "inputs": [
        {
          "name": "_fromTokenId",
          "type": "uint256",
          "indexed": false,
          "internalType": "uint256"
        },
        {
          "name": "_toTokenId",
          "type": "uint256",
          "indexed": false,
          "internalType": "uint256"
        }
      ],
      "anonymous": false
    },
    {
      "type": "event",
      "name": "ColorAdded",
      "inputs": [
        {
          "name": "id",
          "type": "uint8",
          "indexed": true,
          "internalType": "uint8"
        },
        {
          "name": "color",
          "type": "string",
          "indexed": false,
          "internalType": "string"
        }
      ],
      "anonymous": false
    },
    {
      "type": "event",
      "name": "Created",
      "inputs": [
        {
          "name": "tokenId",
          "type": "uint256",
          "indexed": true,
          "internalType": "uint256"
        },
        {
          "name": "rarity",
          "type": "uint8",
          "indexed": false,
          "internalType": "enum GemFactoryStorage.Rarity"
        },
        {
          "name": "color",
          "type": "uint8[2]",
          "indexed": false,
          "internalType": "uint8[2]"
        },
        {
          "name": "value",
          "type": "uint256",
          "indexed": false,
          "internalType": "uint256"
        },
        {
          "name": "quadrants",
          "type": "uint8[4]",
          "indexed": false,
          "internalType": "uint8[4]"
        },
        {
          "name": "miningPeriod",
          "type": "uint256",
          "indexed": false,
          "internalType": "uint256"
        },
        {
          "name": "cooldownPeriod",
          "type": "uint256",
          "indexed": false,
          "internalType": "uint256"
        },
        {
          "name": "tokenURI",
          "type": "string",
          "indexed": false,
          "internalType": "string"
        },
        {
          "name": "owner",
          "type": "address",
          "indexed": false,
          "internalType": "address"
        }
      ],
      "anonymous": false
    },
    {
      "type": "event",
      "name": "GemBought",
      "inputs": [
        {
          "name": "tokenId",
          "type": "uint256",
          "indexed": false,
          "internalType": "uint256"
        },
        {
          "name": "payer",
          "type": "address",
          "indexed": false,
          "internalType": "address"
        },
        {
          "name": "seller",
          "type": "address",
          "indexed": false,
          "internalType": "address"
        },
        {
          "name": "amount",
          "type": "uint256",
          "indexed": false,
          "internalType": "uint256"
        }
      ],
      "anonymous": false
    },
    {
      "type": "event",
      "name": "GemForSale",
      "inputs": [
        {
          "name": "tokenId",
          "type": "uint256",
          "indexed": false,
          "internalType": "uint256"
        },
        {
          "name": "seller",
          "type": "address",
          "indexed": false,
          "internalType": "address"
        },
        {
          "name": "price",
          "type": "uint256",
          "indexed": false,
          "internalType": "uint256"
        }
      ],
      "anonymous": false
    },
    {
      "type": "event",
      "name": "GemForged",
      "inputs": [
        {
          "name": "GemsTokenIds",
          "type": "uint256[]",
          "indexed": false,
          "internalType": "uint256[]"
        },
        {
          "name": "newGemCreatedId",
          "type": "uint256",
          "indexed": false,
          "internalType": "uint256"
        }
      ],
      "anonymous": false
    },
    {
      "type": "event",
      "name": "GemMelted",
      "inputs": [
        {
          "name": "_tokenId",
          "type": "uint256",
          "indexed": false,
          "internalType": "uint256"
        },
        {
          "name": "_from",
          "type": "address",
          "indexed": false,
          "internalType": "address"
        }
      ],
      "anonymous": false
    },
    {
      "type": "event",
      "name": "GemMiningClaimed",
      "inputs": [
        {
          "name": "tokenId",
          "type": "uint256",
          "indexed": false,
          "internalType": "uint256"
        },
        {
          "name": "miner",
          "type": "address",
          "indexed": false,
          "internalType": "address"
        }
      ],
      "anonymous": false
    },
    {
      "type": "event",
      "name": "GemMiningStarted",
      "inputs": [
        {
          "name": "tokenId",
          "type": "uint256",
          "indexed": false,
          "internalType": "uint256"
        },
        {
          "name": "miner",
          "type": "address",
          "indexed": false,
          "internalType": "address"
        },
        {
          "name": "startMiningTime",
          "type": "uint256",
          "indexed": false,
          "internalType": "uint256"
        }
      ],
      "anonymous": false
    },
    {
      "type": "event",
      "name": "MetadataUpdate",
      "inputs": [
        {
          "name": "_tokenId",
          "type": "uint256",
          "indexed": false,
          "internalType": "uint256"
        }
      ],
      "anonymous": false
    },
    {
      "type": "event",
      "name": "Paused",
      "inputs": [
        {
          "name": "account",
          "type": "address",
          "indexed": false,
          "internalType": "address"
        }
      ],
      "anonymous": false
    },
    {
      "type": "event",
      "name": "RoleAdminChanged",
      "inputs": [
        {
          "name": "role",
          "type": "bytes32",
          "indexed": true,
          "internalType": "bytes32"
        },
        {
          "name": "previousAdminRole",
          "type": "bytes32",
          "indexed": true,
          "internalType": "bytes32"
        },
        {
          "name": "newAdminRole",
          "type": "bytes32",
          "indexed": true,
          "internalType": "bytes32"
        }
      ],
      "anonymous": false
    },
    {
      "type": "event",
      "name": "RoleGranted",
      "inputs": [
        {
          "name": "role",
          "type": "bytes32",
          "indexed": true,
          "internalType": "bytes32"
        },
        {
          "name": "account",
          "type": "address",
          "indexed": true,
          "internalType": "address"
        },
        {
          "name": "sender",
          "type": "address",
          "indexed": true,
          "internalType": "address"
        }
      ],
      "anonymous": false
    },
    {
      "type": "event",
      "name": "RoleRevoked",
      "inputs": [
        {
          "name": "role",
          "type": "bytes32",
          "indexed": true,
          "internalType": "bytes32"
        },
        {
          "name": "account",
          "type": "address",
          "indexed": true,
          "internalType": "address"
        },
        {
          "name": "sender",
          "type": "address",
          "indexed": true,
          "internalType": "address"
        }
      ],
      "anonymous": false
    },
    {
      "type": "event",
      "name": "SetDiscountRate",
      "inputs": [
        {
          "name": "discountRate",
          "type": "uint256",
          "indexed": false,
          "internalType": "uint256"
        }
      ],
      "anonymous": false
    },
    {
      "type": "event",
      "name": "Transfer",
      "inputs": [
        {
          "name": "from",
          "type": "address",
          "indexed": true,
          "internalType": "address"
        },
        {
          "name": "to",
          "type": "address",
          "indexed": true,
          "internalType": "address"
        },
        {
          "name": "tokenId",
          "type": "uint256",
          "indexed": true,
          "internalType": "uint256"
        }
      ],
      "anonymous": false
    },
    {
      "type": "event",
      "name": "TransferGEM",
      "inputs": [
        {
          "name": "from",
          "type": "address",
          "indexed": false,
          "internalType": "address"
        },
        {
          "name": "to",
          "type": "address",
          "indexed": false,
          "internalType": "address"
        },
        {
          "name": "tokenId",
          "type": "uint256",
          "indexed": false,
          "internalType": "uint256"
        }
      ],
      "anonymous": false
    },
    {
      "type": "event",
      "name": "Unpaused",
      "inputs": [
        {
          "name": "account",
          "type": "address",
          "indexed": false,
          "internalType": "address"
        }
      ],
      "anonymous": false
    },
    {
      "type": "event",
      "name": "WSTONClaimed",
      "inputs": [
        {
          "name": "tokenId",
          "type": "uint256",
          "indexed": false,
          "internalType": "uint256"
        },
        {
          "name": "claimer",
          "type": "address",
          "indexed": false,
          "internalType": "address"
        }
      ],
      "anonymous": false
    },
    {
      "type": "error",
      "name": "AccessControlBadConfirmation",
      "inputs": []
    },
    {
      "type": "error",
      "name": "AccessControlUnauthorizedAccount",
      "inputs": [
        {
          "name": "account",
          "type": "address",
          "internalType": "address"
        },
        {
          "name": "neededRole",
          "type": "bytes32",
          "internalType": "bytes32"
        }
      ]
    },
    {
      "type": "error",
      "name": "AddressEmptyCode",
      "inputs": [
        {
          "name": "target",
          "type": "address",
          "internalType": "address"
        }
      ]
    },
    {
      "type": "error",
      "name": "AddressInsufficientBalance",
      "inputs": [
        {
          "name": "account",
          "type": "address",
          "internalType": "address"
        }
      ]
    },
    {
      "type": "error",
      "name": "ERC721IncorrectOwner",
      "inputs": [
        {
          "name": "sender",
          "type": "address",
          "internalType": "address"
        },
        {
          "name": "tokenId",
          "type": "uint256",
          "internalType": "uint256"
        },
        {
          "name": "owner",
          "type": "address",
          "internalType": "address"
        }
      ]
    },
    {
      "type": "error",
      "name": "ERC721InsufficientApproval",
      "inputs": [
        {
          "name": "operator",
          "type": "address",
          "internalType": "address"
        },
        {
          "name": "tokenId",
          "type": "uint256",
          "internalType": "uint256"
        }
      ]
    },
    {
      "type": "error",
      "name": "ERC721InvalidApprover",
      "inputs": [
        {
          "name": "approver",
          "type": "address",
          "internalType": "address"
        }
      ]
    },
    {
      "type": "error",
      "name": "ERC721InvalidOperator",
      "inputs": [
        {
          "name": "operator",
          "type": "address",
          "internalType": "address"
        }
      ]
    },
    {
      "type": "error",
      "name": "ERC721InvalidOwner",
      "inputs": [
        {
          "name": "owner",
          "type": "address",
          "internalType": "address"
        }
      ]
    },
    {
      "type": "error",
      "name": "ERC721InvalidReceiver",
      "inputs": [
        {
          "name": "receiver",
          "type": "address",
          "internalType": "address"
        }
      ]
    },
    {
      "type": "error",
      "name": "ERC721InvalidSender",
      "inputs": [
        {
          "name": "sender",
          "type": "address",
          "internalType": "address"
        }
      ]
    },
    {
      "type": "error",
      "name": "ERC721NonexistentToken",
      "inputs": [
        {
          "name": "tokenId",
          "type": "uint256",
          "internalType": "uint256"
        }
      ]
    },
    {
      "type": "error",
      "name": "FailedInnerCall",
      "inputs": []
    },
    {
      "type": "error",
      "name": "OnlyCoordinatorCanFulfill",
      "inputs": [
        {
          "name": "have",
          "type": "address",
          "internalType": "address"
        },
        {
          "name": "want",
          "type": "address",
          "internalType": "address"
        }
      ]
    },
    {
      "type": "error",
      "name": "ReentrancyGuardReentrantCall",
      "inputs": []
    },
    {
      "type": "error",
      "name": "SafeERC20FailedOperation",
      "inputs": [
        {
          "name": "token",
          "type": "address",
          "internalType": "address"
        }
      ]
    }
  ],
  "bytecode": {
    "object": "0x60a06040523462000047576200001e62000018620000ea565b6200010d565b604051619f7f620005b8823960805181818161626a01528181617eca01526185030152619f7f90f35b600080fd5b634e487b7160e01b600052604160045260246000fd5b90601f01601f191681019081106001600160401b038211176200008457604052565b6200004c565b90620000a16200009960405190565b928362000062565b565b6001600160a01b031690565b90565b6001600160a01b038116036200004757565b90505190620000a182620000b2565b906020828203126200004757620000af91620000c4565b620000af6200a5378038038062000101816200008a565b928339810190620000d3565b620000a19062000164565b620000af620000af620000af9290565b620000af600162000118565b90600019905b9181191691161790565b9062000158620000af620001609262000118565b825462000134565b9055565b6200016f906200021a565b620000a16200017d62000128565b604362000144565b6001600160401b0381116200008457602090601f01601f19160190565b90620001b8620001b28362000185565b6200008a565b918252565b620001c9600a620001a2565b69546f6b616d616b47454d60b01b602082015290565b620000af620001bd565b620001f56003620001a2565b6247454d60e81b602082015290565b620000af620001e9565b620000af600062000118565b6200023a9062000229620001df565b6200023362000204565b916200027f565b62000250620002486200020e565b3390620004f2565b50565b620000af90620000a3906001600160a01b031682565b620000af9062000253565b620000af9062000269565b90620002969262000290916200029b565b62000274565b608052565b620000a19182918291829182919062000497565b634e487b7160e01b600052602260045260246000fd5b9060016002830492168015620002e8575b6020831014620002e257565b620002af565b91607f1691620002d6565b9160001960089290920291821b911b6200013a565b91906200031d620000af620001609362000118565b908354620002f3565b620000a19160009162000308565b81811062000340575050565b8062000350600060019362000326565b0162000334565b9190601f81116200036757505050565b6200037b620000a193600052602060002090565b906020601f8401819004830193106200039f575b6020601f90910104019062000334565b90915081906200038f565b90620003b4815190565b906001600160401b0382116200008457620003dc82620003d58554620002c5565b8562000357565b602090601f83116001146200041b57620001609291600091836200040f575b5050600019600883021c1916906002021790565b015190503880620003fb565b601f198316916200043185600052602060002090565b9260005b818110620004725750916002939185600196941062000458575b50505002019055565b01516000196008601f8516021c191690553880806200044f565b9193602060018192878701518155019501920162000435565b90620000a191620003aa565b90620004a9620000a19260066200048b565b60076200048b565b905b600052602052604060002090565b90620004b39062000274565b9060ff906200013a565b90620004ea620000af6200016092151590565b8254620004cd565b620005066200050283836200058e565b1590565b1562000587576200053360016200052d84600062000526866042620004b1565b01620004c1565b620004d7565b620005526200054b62000544339390565b9362000274565b9162000274565b917f2f8788117e7eff1d82e926ec794901d17c78024a50270940304540a733656f0d6200057e60405190565b600090a4600190565b5050600090565b620000af91600062000526620005b093620005a7600090565b506042620004b1565b5460ff169056fe6080604052600436101561001257600080fd5b60003560e01c806301ffc9a71461086257806302424ed31461085d578063034294f814610858578063038a7e05146108535780630491fd3e1461084e57806304e41a0b1461084957806306fdde0314610844578063081812fc1461083f57806308ec897d1461083a5780630922f51314610835578063095ea7b3146108305780630c7254a01461082b5780630de32a97146108265780630ff1ac6714610821578063119868bb1461081c5780631278861914610817578063139b63f31461081257806315341f2b1461080d5780631785f53c1461080857806318160ddd146108035780631885cbbe146107fe57806318898f36146107f95780631d0e0aac146107f45780631da0fc9c146107ef578063205fb1f8146107ea57806323b872dd146107e5578063248a9ca3146107e057806324d7806c146107db578063276a28a3146107d65780632bbbe94d146107d15780632ede6432146107cc5780632f2ff15d146107c75780633092afd5146107c25780633189983f146107bd57806333158058146107b8578063337d54a1146107b357806333d608f1146107ae57806333e1a223146107a957806333fcb648146107a457806336568abe1461079f57806336b17e131461079a57806337ed11db14610795578063384c252f14610790578063389ed2671461078b5780633b19e84a146107865780633f4ba83a146107815780633fb310a51461077c57806342842e0e146107775780634d723a75146107725780634f557d271461076d57806350d2a27614610768578063550d01a31461076357806358bf3e651461075e5780635badbe4c146107595780635bbffab6146107545780635c975abb1461074f57806361d027b31461074a57806361f7f6d714610745578063629296c5146107405780636352211e1461073b57806363a8fd8914610736578063676f79f1146107315780636b1a96fa1461072c578063704802751461072757806370a0823114610722578063715018a61461071d578063724188bc1461071857806375829def1461071357806377f7e4991461070e5780637866369b1461070957806379dbd798146107045780637c69febd146106ff5780637fe6fde5146106fa5780638456cb59146106f55780638462151c146106f05780638796ba8c146106eb5780638ba24af0146106e65780638f32d59b146106e15780638fddb065146106dc57806391490c4b146106d757806391d14854146106d257806395d89b41146106cd57806397125c40146106c8578063975781b7146106c3578063983b2d56146106be57806398650275146106b95780639a66af62146106b45780639c41b42b146106af578063a0b2d41b146106aa578063a168fa89146106a5578063a1770a7d146106a0578063a217fddf1461069b578063a22cb46514610696578063a53225c014610691578063a69c8fb21461068c578063a8ce886e14610687578063aa271e1a14610682578063aa723bb71461067d578063abc8c7af14610678578063ad0d3d3f14610673578063adf8627e1461066e578063aff2a46314610669578063b211d95814610664578063b78417b01461065f578063b88d4fde1461065a578063b911135f14610655578063bd11f69d14610650578063bd81009f1461064b578063c138907214610646578063c28fb6b714610641578063c4d2fcae1461063c578063c87b56dd14610637578063cc48b94714610632578063cc98ef961461062d578063ce8ab5df14610628578063cec21acb14610623578063cfbd48851461061e578063d11a57ec14610619578063d547741f14610614578063d6bb7ba01461060f578063d7a464951461060a578063dffdae0214610605578063e4b7fddf14610600578063e7a523c0146105fb578063e985e9c5146105f6578063ecc5e06f146105f1578063efa2cc29146105ec578063f2fde38b146105e7578063f5494bb9146105e2578063f66f9e34146105dd578063f99a6bb5146105d8578063fc2a88c3146105d35763fed7b27a0361086757612a51565b612a36565b612a12565b6129f7565b6129d0565b61298b565b612970565b612949565b61291d565b6128e6565b6128cb565b6128a4565b61287d565b612858565b61283f565b612818565b612800565b6127e5565b6127ba565b612796565b61277b565b612754565b612739565b612712565b6126f7565b6126cc565b6126b1565b61267e565b612652565b6125e8565b6125c1565b61259a565b61257f565b612554565b612539565b612506565b6123ba565b61239f565b612366565b61234b565b612332565b6122fb565b6122cd565b612288565b6121cc565b612196565b61210e565b6120f6565b6120de565b6120bf565b612054565b612029565b61200d565b611ff2565b611fcb565b611fa4565b611f89565b611f6e565b611f1b565b611f03565b611ee8565b611ed0565b611eb7565b611e55565b611e2a565b611e06565b611deb565b611dc7565b611dac565b611d94565b611d79565b611cee565b611cb5565b611c8e565b611c73565b611c3c565b6119a4565b61197d565b611956565b61192f565b611908565b6118e1565b6118b6565b61186e565b611849565b611830565b611815565b6117f1565b6117d6565b61179d565b611782565b611759565b61173e565b611719565b6116fd565b611637565b6115c0565b61157d565b611561565b611536565b611445565b61142c565b6113f0565b6113b9565b61139e565b611383565b611368565b61134f565b61130b565b6112b0565b611298565b61127d565b611256565b61122f565b611217565b6111eb565b6111ab565b611184565b61115d565b6110e6565b610c50565b610c25565b610bb9565b610b5f565b610b38565b610ae4565b610a9c565b610a15565b6109f1565b6109c6565b610975565b610926565b6108a9565b600080fd5b6001600160e01b031981165b0361086757565b9050359061088c8261086c565b565b90602082820312610867576108a29161087f565b90565b9052565b34610867576108d76108c46108bf36600461088e565b612a6c565b6040515b91829182901515815260200190565b0390f35b80610878565b9050359061088c826108db565b801515610878565b9050359061088c826108ee565b9190604083820312610867576108a290602061091f82866108e1565b94016108f6565b346108675761093f610939366004610903565b90612af6565b604051005b600091031261086757565b6108a2916008021c5b60ff1690565b906108a2915461094f565b6108a26000600f61095e565b3461086757610985366004610944565b6108d7610990610969565b6040519182918260ff909116815260200190565b6108a2916008021c81565b906108a291546109a4565b6108a2600060296109af565b34610867576109d6366004610944565b6108d76109e16109ba565b6040519182918290815260200190565b3461086757610a01366004610944565b61093f612b27565b6108a26000602e6109af565b3461086757610a25366004610944565b6108d76109e1610a09565b60005b838110610a435750506000910152565b8181015183820152602001610a33565b610a74610a7d602093610a8793610a68815190565b80835293849260200190565b95869101610a30565b601f01601f191690565b0190565b60208082526108a292910190610a53565b3461086757610aac366004610944565b6108d7610ab7612b38565b6040515b91829182610a8b565b90602082820312610867576108a2916108e1565b6001600160a01b031690565b34610867576108d7610aff610afa366004610ac4565b612b42565b604051918291826001600160a01b03909116815260200190565b6108a26108a26108a29290565b6108a26064610b19565b6108a2610b26565b3461086757610b48366004610944565b6108d76109e1610b30565b6108a26000601261095e565b3461086757610b6f366004610944565b6108d7610990610b53565b6001600160a01b038116610878565b9050359061088c82610b7a565b9190604083820312610867576108a2906020610bb28286610b89565b94016108e1565b346108675761093f610bcc366004610b96565b90612b55565b909160c08284031261086757610be883836108e1565b92610bf681602085016108e1565b92610c0482604083016108e1565b926108a2610c1584606085016108e1565b9360a0610bb282608087016108e1565b346108675761093f610c38366004610bd2565b94939093929192612c44565b6108a26000602d6109af565b3461086757610c60366004610944565b6108d76109e1610c44565b634e487b7160e01b600052604160045260246000fd5b90601f01601f191681019081106001600160401b03821117610ca257604052565b610c6b565b9061088c610cb460405190565b9283610c81565b6001600160401b038111610ca25760208091020190565b6006111561086757565b9050359061088c82610cd2565b90929192610cfe610cf982610cbb565b610ca7565b938185526020808601920283019281841161086757915b838310610d225750505050565b60208091610d308486610cdc565b815201920191610d15565b9080601f83011215610867578160206108a293359101610ce9565b6001600160401b038111610ca25760200290565b60ff8116610878565b9050359061088c82610d6a565b90929192610d90610cf982610d56565b93602085920283019281841161086757915b838310610daf5750505050565b60208091610dbd8486610d73565b815201920191610da2565b9080601f830112156108675760026108a292610d80565b90929192610def610cf982610cbb565b93818552604060208601920283019281841161086757915b838310610e145750505050565b6020604091610e238486610dc8565b815201920191610e07565b9080601f83011215610867578160206108a293359101610ddf565b90929192610e59610cf982610d56565b93602085920283019281841161086757915b838310610e785750505050565b60208091610e868486610d73565b815201920191610e6b565b9080601f830112156108675760046108a292610e49565b90929192610eb8610cf982610cbb565b93818552608060208601920283019281841161086757915b838310610edd5750505050565b6020608091610eec8486610e91565b815201920191610ed0565b9080601f83011215610867578160206108a293359101610ea8565b6001600160401b038111610ca257602090601f01601f19160190565b90826000939282370152565b90929192610f4a610cf982610f12565b93818552818301116108675761088c916020850190610f2e565b9080601f83011215610867578160206108a293359101610f3a565b929190610f8e610cf982610cbb565b93818552602080860192028101918383116108675781905b838210610fb4575050505050565b81356001600160401b03811161086757602091610fd48784938701610f64565b815201910190610fa6565b9080601f83011215610867578160206108a293359101610f7f565b906080828203126108675781356001600160401b0381116108675781611021918401610d3b565b9260208301356001600160401b0381116108675782611041918501610e2e565b9260408101356001600160401b0381116108675783611061918301610ef7565b9260608201356001600160401b038111610867576108a29201610fdf565b9061109f61109861108e845190565b8084529260200190565b9260200190565b9060005b8181106110b05750505090565b9091926110cd6110c66001928651815260200190565b9460200190565b9291016110a3565b60208082526108a29291019061107f565b34610867576108d76111056110fc366004610ffa565b9291909161453c565b604051918291826110d5565b9061111b90610b19565b600052602052604060002090565b6108a2916008021c6001600160a01b031690565b906108a29154611129565b60006111586108a2926018611111565b61113d565b34610867576108d7610aff611173366004610ac4565b611148565b6108a2600060016109af565b3461086757611194366004610944565b6108d76109e1611178565b6108a2600060316109af565b34610867576111bb366004610944565b6108d76109e161119f565b906020828203126108675781356001600160401b038111610867576108a29201610f64565b346108675761093f6111fe3660046111c6565b614641565b90602082820312610867576108a291610b89565b346108675761093f61122a366004611203565b61466b565b346108675761123f366004610944565b6108d76109e1614674565b6108a2600060346109af565b3461086757611266366004610944565b6108d76109e161124a565b6108a2600060286109af565b346108675761128d366004610944565b6108d76109e1611271565b346108675761093f6112ab3660046111c6565b61470b565b6108d76108c46112c1366004610ac4565b614daf565b6108a290610ad8906001600160a01b031682565b6108a2906112c6565b6108a2906112da565b9061111b906112e3565b60006113066108a29260196112ec565b61095e565b34610867576108d76108c4611321366004611203565b6112f6565b9091606082840312610867576108a261133f8484610b89565b936040610bb28260208701610b89565b346108675761093f611362366004611326565b91614ddf565b34610867576108d76109e161137e366004610ac4565b614e88565b34610867576108d76108c4611399366004611203565b614ea7565b34610867576108d76108c46113b4366004610ac4565b614eb8565b34610867576113c9366004610944565b6108d7610aff614ed1565b9190604083820312610867576108a2906020610bb282866108e1565b346108675761093f6114033660046113d4565b90614f55565b9190604083820312610867576108a290602061142582866108e1565b9401610b89565b346108675761093f61143f366004611409565b90614f82565b346108675761093f611458366004611203565b614fb4565b90916101e082840312610867576114748383610b89565b926114828160208501610b89565b926114908260408301610b89565b9261149e83606084016108e1565b926114ac81608085016108e1565b926114ba8260a083016108e1565b926114c88360c084016108e1565b926114d68160e085016108e1565b926114e58261010083016108e1565b926114f48361012084016108e1565b926115038161014085016108e1565b926115128261016083016108e1565b926108a26115248461018085016108e1565b936101c0610bb2826101a087016108e1565b346108675761093f61154936600461145d565b9d9c909c9b919b9a929a9993999894989795976151b5565b34610867576108d76108c4611577366004610b96565b9061530f565b346108675761093f611590366004610b96565b90615452565b6115a36108a26108a29290565b63ffffffff1690565b6108a262033450611596565b6108a26115ac565b34610867576115d0366004610944565b6108d76115db6115b8565b6040519182918263ffffffff909116815260200190565b919060a083820312610867576116088184610b89565b926116168260208301610b89565b926108a261162784604085016108e1565b9360806114258260608701610b89565b346108675761093f61164a3660046115f2565b939290926154b4565b90929192611663610cf982610cbb565b938185526020808601920283019281841161086757915b8383106116875750505050565b6020809161169584866108e1565b81520192019161167a565b9080601f83011215610867578160206108a293359101611653565b90916080828403126108675781356001600160401b038111610867576116e6846108a29285016116a0565b9360406116f68260208701610cdc565b9401610dc8565b34610867576108d76109e16117133660046116bb565b91616203565b346108675761093f61172c366004611409565b90616210565b6108a26001603b61113d565b346108675761174e366004610944565b6108d7610aff611732565b346108675761093f61176c3660046113d4565b90616263565b60006111586108a2926017611111565b34610867576108d7610aff611798366004610ac4565b611772565b34610867576117ad366004610944565b6108d77ffcb9fcbfa83b897fb2d5cf4b58962164105c1e71489a37ef3ae0db3fdce576f66109e1565b34610867576117e6366004610944565b6108d7610aff6162ce565b3461086757611801366004610944565b61093f6163bd565b6108a26000602b6109af565b3461086757611825366004610944565b6108d76109e1611809565b346108675761093f611843366004611326565b916163c5565b346108675761093f61185c366004610903565b906163ff565b6108a2600060206109af565b346108675761187e366004610944565b6108d76109e1611862565b6001600160e01b03191690565b906001600160e01b03191661111b565b60006111586108a2926041611896565b34610867576108d7610aff6118cc36600461088e565b6118a6565b60006113066108a29260406112ec565b34610867576108d76108c46118f7366004611203565b6118d1565b6108a2600060266109af565b3461086757611918366004610944565b6108d76109e16118fc565b6108a2600060396109af565b346108675761193f366004610944565b6108d76109e1611923565b6108a26000602f6109af565b3461086757611966366004610944565b6108d76109e161194a565b6108a26000601f61095e565b346108675761198d366004610944565b6108d76108c4611971565b6108a26000603d61113d565b34610867576119b4366004610944565b6108d7610aff611998565b634e487b7160e01b600052603260045260246000fd5b80548210156119f8576119ef600a91600052602060002090565b91020190600090565b6119bf565b6108a29081565b6108a290546119fd565b6108a290610958565b6108a29054611a0e565b634e487b7160e01b600052602260045260246000fd5b9060016002830492168015611a57575b6020831014611a5257565b611a21565b91607f1691611a47565b80546000939291611a7e611a7483611a37565b8085529360200190565b9160018116908115611ad05750600114611a9757505050565b611aaa9192939450600052602060002090565b916000925b818410611abc5750500190565b805484840152602090930192600101611aaf565b92949550505060ff1916825215156020020190565b906108a291611a61565b9061088c611b0992611b0060405190565b93848092611ae5565b0383610c81565b600d90611b1b825490565b81101561086757611b2b916119d5565b5090611b3682611a04565b91611b4360018201611a17565b91611b5060048301611a04565b91611b5d60058201611a04565b91611b6a60068301611a17565b91611b7760078201611a04565b916108a26009611b8960088501611aef565b9301611a04565b634e487b7160e01b600052602160045260246000fd5b60061115611bb057565b611b90565b9061088c82611ba6565b6108a290611bb5565b6108a590611bbf565b989795611c2360e096611c1a611c379760608e611c16611c2a989a61088c9f9a611c0f90611c0561010086019e6000870152565b6020850190611bc8565b6040830152565b0152565b151560808c0152565b60a08a0152565b87820360c0890152610a53565b940152565b34610867576108d7611c57611c52366004610ac4565b611b10565b94611c6a98969894919493929360405190565b98899889611bd1565b3461086757611c83366004610944565b6108d76109e1616409565b34610867576108d7610aff611ca4366004610ac4565b616413565b6108a26014603e61095e565b3461086757611cc5366004610944565b6108d76108c4611ca9565b611ce96108a292611ce4600093601c6112ec565b611111565b6109af565b34610867576108d76109e1611d04366004610b96565b90611cd0565b90602082820312610867576108a291610d73565b6109586108a26108a29260ff1690565b9061111b90611d1e565b634e487b7160e01b600052600060045260246000fd5b90600010611d5f576108a290611aef565b611d38565b6000611d746108a292600e611d2e565b611d4e565b34610867576108d7610ab7611d8f366004611d0a565b611d64565b346108675761093f611da7366004611203565b61643d565b34610867576108d76109e1611dc2366004611203565b616446565b3461086757611dd7366004610944565b61093f616483565b6108a26000603b61095e565b3461086757611dfb366004610944565b6108d7610990611ddf565b346108675761093f611e19366004611203565b61657d565b6108a2600060326109af565b3461086757611e3a366004610944565b6108d76109e1611e1e565b60006113066108a292601d611111565b34610867576108d76108c4611e6b366004610ac4565b611e45565b9190916040818403126108675780356001600160401b0381116108675783611e999183016116a0565b9260208201356001600160401b038111610867576108a292016116a0565b346108675761093f611eca366004611e70565b906166a6565b346108675761093f611ee3366004610ac4565b6166fd565b34610867576108d76108c4611efe366004610ac4565b616ad0565b3461086757611f13366004610944565b61093f616b53565b34610867576108d7611105611f31366004611203565b616b5b565b80548210156119f8576119ef600191600052602060002090565b60385481101561086757611f686108a2916038611f36565b906109af565b34610867576108d76109e1611f84366004610ac4565b611f50565b3461086757611f99366004610944565b6108d76109e1616c27565b3461086757611fb4366004610944565b6108d76108c4616c31565b6108a2600060366109af565b3461086757611fdb366004610944565b6108d76109e1611fbf565b6108a2600060216109af565b3461086757612002366004610944565b6108d76109e1611fe6565b34610867576108d76108c4612023366004611409565b90616c3c565b3461086757612039366004610944565b6108d7610ab7616c57565b60006111586108a2926015611111565b34610867576108d7610aff61206a366004610ac4565b612044565b9061010082820312610867576120858183610cdc565b926120938260208501610dc8565b926120a18360608301610e91565b9260e08201356001600160401b038111610867576108a29201610f64565b34610867576108d76109e16120d536600461206f565b9291909161777e565b346108675761093f6120f1366004611203565b6177b4565b3461086757612106366004610944565b61093f6177bd565b346108675761093f612121366004611d0a565b6177ef565b6108a290610ad8565b6108a29054612126565b612144906000611111565b61214d8161212f565b916108a2600261215f60018501611a04565b9301611a17565b6001600160a01b03909116815260608101939261088c92909160409161218e905b6020830152565b019015159052565b34610867576108d76121b16121ac366004610ac4565b612139565b60405191939193849384612166565b6108a26000602a6109af565b34610867576121dc366004610944565b6108d76109e16121c0565b6108a29060081c610958565b6108a290546121e7565b61220890601e611111565b61221181611a17565b9161221b826121f3565b9161222860018201611a04565b916108a2600361223a60028501611a04565b930161212f565b901515815260a08101959461088c94909360809361227992916122729161226b9015156020870152565b6040850152565b6060830152565b01906001600160a01b03169052565b34610867576108d76122a361229e366004610ac4565b6121fd565b916122b095939560405190565b95869586612241565b6113066108a292611ce4600093601b6112ec565b34610867576108d76108c46122e3366004610b96565b906122b9565b6108a26000610b19565b6108a26122e9565b346108675761230b366004610944565b6108d76109e16122f3565b9190604083820312610867576108a290602061091f8286610b89565b346108675761093f612345366004612316565b906177f8565b346108675761235b366004610944565b6108d7610aff617803565b3461086757612376366004610944565b6108d76109e161780d565b601354811015610867576123996108a2916013611f36565b90611d4e565b34610867576108d7610ab76123b5366004610ac4565b612381565b34610867576108d76108c46123d0366004611203565b617817565b6123e56123e160049390565b9190565b6000915b8383106123f65750505050565b61240c611098600192845160ff16815260200190565b920191906123e9565b6124216123e160029390565b6000915b8383106124325750505050565b612448611098600192845160ff16815260200190565b92019190612425565b80518252906108a2906101a06101206124ed6101c0840161247a60208801516020870190611bc8565b61248c604088015160408701906123d5565b61249e606088015160c0870190612415565b6124ae6080880151610100870152565b6124bc60a088015184870152565b60c087015115156101408601526124d960e0880151610160870152565b610100870151858203610180870152610a53565b940151910152565b60208082526108a292910190612451565b34610867576108d761252161251c366004610ac4565b617a4a565b604051918291826124f5565b6108a26000603e61113d565b3461086757612549366004610944565b6108d7610aff61252d565b346108675761093f612567366004610bd2565b94939093929192617acd565b6108a2600060226109af565b346108675761258f366004610944565b6108d76109e1612573565b34610867576108d7610ab76125b0366004611d0a565b617b1d565b6108a2600060256109af565b34610867576125d1366004610944565b6108d76109e16125b5565b6108a2600060336109af565b34610867576125f8366004610944565b6108d76109e16125dc565b90608082820312610867576126188183610b89565b926126268260208501610b89565b9261263483604083016108e1565b9260608201356001600160401b038111610867576108a29201610f64565b346108675761093f612665366004612603565b92919091617b4c565b60006111586108a292603f611111565b34610867576108d7610aff612694366004610ac4565b61266e565b601054811015610867576123996108a2916010611f36565b34610867576108d7610ab76126c7366004610ac4565b612699565b34610867576108d7610aff6126e2366004610ac4565b617b63565b6000611ce96108a292601a6112ec565b34610867576108d76109e161270d366004611203565b6126e7565b3461086757612722366004610944565b6108d7611105617b8f565b6108a26000602c6109af565b3461086757612749366004610944565b6108d76109e161272d565b34610867576108d7610ab761276a366004610ac4565b617c00565b6108a26000603c61113d565b346108675761278b366004610944565b6108d7610aff61276f565b346108675761093f6127a9366004611203565b617c35565b6108a2600060236109af565b34610867576127ca366004610944565b6108d76109e16127ae565b6000611ce96108a29260166112ec565b34610867576108d76109e16127fb366004611203565b6127d5565b346108675761093f612813366004611203565b617c66565b3461086757612828366004610944565b6108d7600080516020619f2a8339815191526109e1565b346108675761093f612852366004611409565b90617c8a565b346108675761093f61286b366004611326565b91617e3e565b6108a2600060306109af565b346108675761288d366004610944565b6108d76109e1612871565b6108a2600060246109af565b34610867576128b4366004610944565b6108d76109e1612898565b6108a2600060376109af565b34610867576128db366004610944565b6108d76109e16128bf565b34610867576128f6366004610944565b6108d7610aff617e49565b9190604083820312610867576108a29060206114258286610b89565b34610867576108d76108c4612933366004612901565b90617e53565b6000611d746108a2926011611d2e565b34610867576108d7610ab761295f366004611d0a565b612939565b6108a2600060356109af565b3461086757612980366004610944565b6108d76109e1612964565b346108675761093f61299e366004611203565b617e8c565b63ffffffff8116610878565b9050359061088c826129a3565b90602082820312610867576108a2916129af565b34610867576108d76109e16129e63660046129bc565b617eb6565b6108a2600060276109af565b3461086757612a07366004610944565b6108d76109e16129eb565b346108675761093f612a25366004610ac4565b61807d565b6108a26000603a6109af565b3461086757612a46366004610944565b6108d76109e1612a2a565b3461086757612a61366004610944565b6108d76109e1618086565b6108a290618090565b15612a7c57565b60405162461bcd60e51b815260206004820152601060248201526f14185d5cd8589b194e881c185d5cd95960821b6044820152606490fd5b0390fd5b9061088c91612ad6612ad1612acd601f611a17565b1590565b612a75565b612ae2565b1561086757565b61088c91612af1913390618435565b612adb565b9061088c91612ab8565b612b10612ad1612acd601f611a17565b61088c61088c6001612b22603e61212f565b6177f8565b61088c612b00565b6108a290611aef565b6108a26006612b2f565b6108a290612b4f81618442565b50618493565b61088c9133916184aa565b15612b6757565b60405162461bcd60e51b815260206004820152602360248201527f41757468436f6e74726f6c3a2043616c6c6572206973206e6f7420616e20616460448201526236b4b760e91b6064820152608490fd5b9061088c9594939291612bd2612bcd33614ea7565b612b60565b612c02565b90600019905b9181191691161790565b90612bf76108a2612bfe92610b19565b8254612bd7565b9055565b92612c2f61088c969593612c28612c3694612c21612c3d98602c612be7565b602d612be7565b602e612be7565b602f612be7565b6030612be7565b6031612be7565b9061088c9594939291612bb8565b15612c5957565b60405162461bcd60e51b815260206004820152602d60248201527f66756e6374696f6e2063616c6c61626c652066726f6d2074726561737572792060448201526c636f6e7472616374206f6e6c7960981b6064820152608490fd5b906108a294939291612cd3612ccc610ad8603d61212f565b3314612c52565b906108a294939291612ceb612ad1612acd601f611a17565b61386b565b15612cf757565b60405162461bcd60e51b815260206004820152602660248201527f496e70757420617272617973206d7573742068617665207468652073616d65206044820152650d8cadccee8d60d31b6064820152608490fd5b90612d58610cf983610cbb565b918252565b369037565b9061088c612d78612d7284612d4b565b93610cbb565b601f190160208401612d5d565b90612d8e825190565b8110156119f8576020809102010190565b9060045b8110156119f8576020020190565b634e487b7160e01b600052601160045260246000fd5b612dd69060ff165b9160ff1690565b019060ff8211612de257565b612db1565b6108a29051611bb5565b6109586108a26108a29290565b15612e0557565b60405162461bcd60e51b815260206004820152602e60248201527f416c6c207175616472616e7473206d7573742062652031206f72203220666f7260448201526d20434f4d4d4f4e2072617269747960901b6064820152608490fd5b15612e6857565b60405162461bcd60e51b815260206004820152601760248201527f323232322069732052415245206e6f7420434f4d4d4f4e0000000000000000006044820152606490fd5b15612eb457565b60405162461bcd60e51b815260206004820152602c60248201527f416c6c207175616472616e7473206d7573742062652032206f72203320666f7260448201526b20524152452072617269747960a01b6064820152608490fd5b15612f1557565b60405162461bcd60e51b815260206004820152601760248201527f3333333320697320554e49515545206e6f7420524152450000000000000000006044820152606490fd5b15612f6157565b60405162461bcd60e51b815260206004820152602e60248201527f416c6c207175616472616e7473206d7573742062652033206f72203420666f7260448201526d20554e495155452072617269747960901b6064820152608490fd5b15612fc457565b60405162461bcd60e51b815260206004820152601760248201527f343434342069732045504943206e6f7420554e495155450000000000000000006044820152606490fd5b1561301057565b60405162461bcd60e51b815260206004820152602c60248201527f416c6c207175616472616e7473206d7573742062652034206f72203520666f7260448201526b20455049432072617269747960a01b6064820152608490fd5b1561307157565b60405162461bcd60e51b815260206004820152601a60248201527f35353535206973204c4547454e44415259206e6f7420455049430000000000006044820152606490fd5b156130bd57565b60405162461bcd60e51b815260206004820152603160248201527f416c6c207175616472616e7473206d7573742062652035206f72203620666f72604482015270204c4547454e444152592072617269747960781b6064820152608490fd5b1561312357565b60405162461bcd60e51b815260206004820152601c60248201527f36363636206973204d5954484943206e6f74204c4547454e44415259000000006044820152606490fd5b1561316f57565b60405162461bcd60e51b815260206004820152602960248201527f416c6c207175616472616e7473206d757374206265203620666f72204d59544860448201526849432072617269747960b81b6064820152608490fd5b91906131d1565b9290565b8201809211612de257565b6108a2610140610ca7565b906108a590611bb5565b9060ff90612bdd565b9061320a6108a2612bfe92611bbf565b82546131f1565b81810292918115918404141715612de257565b9160001960089290920291821b911b612bdd565b921b90565b919061324e6108a2612bfe93610b19565b908354613224565b61088c9160009161323d565b81811061326d575050565b8061327b6000600193613256565b01613262565b9061329490600019906020036008021c90565b8154169055565b9190918282106132aa57505050565b61088c926020601f9091010490600160206132cd601f86018290049390565b9390565b928301940602600081116132e4575b500190613262565b6132f19060018503613281565b386132dc565b90600160401b8111610ca25761088c9160045b9061329b565b91906008612bdd91029161323860ff841b90565b906004906131cd613339916108a284866132f7565b602082049160005b8381106133a757506020830290036000811161335e575b50505050565b9260009360005b81811061337a57505050015538808080613358565b909194602061339d6001926133936108a28a5160ff1690565b9085850290613310565b9601929101613365565b6000805b602081106133c0575083820155600101613341565b959060206133e26001926133d86108a2865160ff1690565b908a850290613310565b920196016133ab565b9061088c91613324565b90600160401b8111610ca25761088c91600261330a565b906002906131cd613421916108a284866133f5565b602082049160005b8381106134845750602083029003600081116134455750505050565b9260009360005b81811061346157505050015538808080613358565b909194602061347a6001926133936108a28a5160ff1690565b960192910161344c565b6000805b6020811061349d575083820155600101613429565b959060206134b56001926133d86108a2865160ff1690565b92019601613488565b9061088c9161340c565b9061320a6108a2612bfe92151590565b9190601f81116134e757505050565b6134f961088c93600052602060002090565b906020601f84018190048301931061351c575b6020601f909101045b0190613262565b909150819061350c565b600019600883021c1916906002021790565b90613541815190565b906001600160401b038211610ca2576135648261355e8554611a37565b856134d8565b602090601f831160011461359257612bfe929160009183613587575b5050613526565b015190503880613580565b601f198316916135a785600052602060002090565b9260005b8181106135e5575091600293918560019694106135cc575b50505002019055565b01516000196008601f8516021c191690553880806135c3565b919360206001819287870151815501950192016135ab565b9061088c91613538565b60096136e861012061088c94613627613621600083015190565b86612be7565b61363f61363660208301612de7565b600187016131fa565b61365661364d604083015190565b600287016133eb565b61366d613664606083015190565b600387016134be565b61368461367b608083015190565b60048701612be7565b61369b61369260a083015190565b60058701612be7565b6136b46136ab60c0830151151590565b600687016134c8565b6136cb6136c260e083015190565b60078701612be7565b6136e36136da61010083015190565b600887016135fd565b015190565b9101612be7565b9190611d5f5761088c91613607565b90815491600160401b831015610ca2578261372191600161088c950181556119d5565b906136ef565b91908203918211612de257565b6108a26108a26108a29263ffffffff1690565b906001600160a01b0390612bdd565b906137666108a2612bfe926112e3565b8254613747565b6000198114612de25760010190565b6137886123e160029390565b6000915b8383106137995750505050565b6137af611098600192845160ff16815260200190565b9201919061378c565b6137c46123e160049390565b6000915b8383106137d55750505050565b6137eb611098600192845160ff16815260200190565b920191906137c8565b9897956138456101609661383d61385b9760808e61383661384d989a61088c9f9a6122729061382c61018086019e6000870190611bc8565b602085019061377c565b01906137b8565b6101008c0152565b6101208a0152565b878203610140890152610a53565b9401906001600160a01b03169052565b508051909391906138806123e16108a2845190565b1480614525575b80614503575b61389690612cf0565b6138a66138a1855190565b612d62565b92600092839184936000976138ba89610b19565b6138c56108a2835190565b8110156144f6576138f36138ec6138dc8387612d85565b516138e68d610b19565b90612d9f565b5160ff1690565b61391a6139008387612d85565b51916139146138ec6001946138e686610b19565b90612dc7565b61393b6139278488612d85565b51916139146138ec6002946138e686610b19565b61395c6139488589612d85565b51916139146138ec6003946138e686610b19565b8d61398161397b613975613970898b612d85565b612de7565b92611bb5565b91611bb5565b14614371575b6139946139708688612d85565b6139a061397b86611bb5565b146141ec575b6139b36139708688612d85565b6139bf61397b85611bb5565b1461404f575b6139d26139708688612d85565b6139de61397b84611bb5565b14613ea5575b6139f16139708688612d85565b6139fe61397b6004611bb5565b14613cf8575b50613a126139708587612d85565b613a1f61397b6005611bb5565b14613bf5575b5050613a318284612d85565b613a3a90612de7565b908b613a468488612d85565b51613a518588612d85565b51613a5c8b426131c6565b90613a67878c612d85565b5192613a716131dc565b96613a7b86610b19565b958801869052613a8e90602089016131e7565b604087015260608601526080850152613aa88c60a0860152565b8d151560c0850152613abb8b60e0860152565b610100840152610120830152600d613ad383826136fe565b5490613ade90610b19565b613ae791613727565b908b613af283611596565b613afb90613734565b91613b07848414612adb565b0152613b14816015611111565b33613b1e91613756565b613b293360166112ec565b613b3281611a04565b613b3b9061376d565b613b4491612be7565b613b4e81336184b7565b613b588287612d85565b51613b6390826184c9565b88613b6e8385612d85565b613b7790612de7565b89613b828588612d85565b5191613b8e868a612d85565b5192613b9a878c612d85565b518c613ba588610b19565b96613baf60405190565b9687963395613bbe97896137f4565b037f5ea0402f9a8785c25ad31fd3e0e81f8c2b4ca231668cc82cd03fa34ea1f0ce3c91a2613bec828b612d85565b526001016138ba565b919850919850613c4a929650613c1c6138ec8c6138e6613c158d8a612d85565b5191610b19565b90600691613c2c612dcf84612df1565b149283613cc9575b83613c9e575b508983613c72575b505050613168565b613c546037611a04565b93613c5f6031611a04565b96613c6a602b611a04565b963880613a25565b613c959293506138ec612dcf926138e6613c15613c8f948b612d85565b92612df1565b14388089613c42565b613cb59193506138ec906138e6613c158d8a612d85565b613cc1612dcf83612df1565b149138613c3a565b9250613ce56138ec613cdb8c89612d85565b516138e68c610b19565b613cf1612dcf84612df1565b1492613c34565b919a509850613d65919750613d176138ec8d6138e6613c15878b612d85565b600590613d26612dcf83612df1565b148d8115613e7b575b5080613e34575b80613de5575b8a858983613d8c575b505050613d5291506130b6565b613d5f612dcf6018612df1565b1061311c565b613d6f6036611a04565b95613d7a6030611a04565b98613d85602a611a04565b9838613a04565b613da89350612dcf926138e6613c15613c8f946138ec94612d85565b148015613dbc575b613d52908a8589613d45565b50613d52613dd06138ec6138dc868a612d85565b613ddd612dcf6006612df1565b149050613db0565b50613dfa6138ec8c6138e6613c15888c612d85565b613e06612dcf83612df1565b1480613d3c5750613e216138ec8c6138e6613c15888c612d85565b613e2e612dcf6006612df1565b14613d3c565b50613e456138ec613cdb868a612d85565b613e51612dcf83612df1565b1480613d365750613e686138ec613cdb868a612d85565b613e75612dcf6006612df1565b14613d36565b613e9191506138ec906138e6613c15888c612d85565b613e9e612dcf6006612df1565b148d613d2f565b995099509650613ebf6138ec8c6138e6613c15868a612d85565b600490613ece612dcf83612df1565b148015614027575b80613fd6575b80613f85575b80613f30575b613ef29150613009565b613f0a613eff6014612df1565b60ff8a165b1061306a565b613f146035611a04565b96613f1f602f611a04565b99613f2a6029611a04565b996139e4565b50613f4b612dcf613c8f6138ec8d6138e6613c15898d612d85565b148015613f5c575b613ef290613ee8565b50613ef2613f706138ec6138dc8589612d85565b613f7d612dcf6005612df1565b149050613f53565b50613fa06138ec613f968589612d85565b516138e68b610b19565b613fac612dcf83612df1565b1480613ee25750613fc36138ec613f968589612d85565b613fd0612dcf6005612df1565b14613ee2565b50613ff16138ec613fe78589612d85565b516138e685610b19565b613ffd612dcf83612df1565b1480613edc57506140146138ec613fe78589612d85565b614021612dcf6005612df1565b14613edc565b5061403c6138ec8d6138e6613c15878b612d85565b614049612dcf6005612df1565b14613ed6565b9950995096506140696138ec8c6138e6613c15868a612d85565b614075612dcf8b612df1565b1480156141c4575b80614173575b80614122575b806140d6575b61409890612f5a565b6140b06140a56010612df1565b60ff8a165b10612fbd565b6140ba6034611a04565b966140c5602e611a04565b996140d06028611a04565b996139c5565b506140e76138ec613cdb8488612d85565b6140f3612dcf8b612df1565b148061408f575061409861410d6138ec6138dc8589612d85565b61411a612dcf6004612df1565b14905061408f565b5061413d6138ec6141338488612d85565b516138e68a610b19565b614149612dcf8b612df1565b148061408957506141606138ec6141338488612d85565b61416d612dcf6004612df1565b14614089565b5061418e6138ec6141848488612d85565b516138e684610b19565b61419a612dcf8b612df1565b148061408357506141b16138ec6141848488612d85565b6141be612dcf6004612df1565b14614083565b506141d96138ec8c6138e6613c15868a612d85565b6141e6612dcf6004612df1565b1461407d565b9950995096506142066138ec8c6138e6613c15868a612d85565b614212612dcf89612df1565b14801561434a575b80614304575b806142be575b80614273575b61423590612ead565b61424d614242600c612df1565b60ff8a165b10612f0e565b6142576033611a04565b96614262602d611a04565b9961426d6027611a04565b996139a6565b506142846138ec613cdb8488612d85565b614290612dcf89612df1565b148061422c57506142356142aa6138ec6138dc8589612d85565b6142b6612dcf8c612df1565b14905061422c565b506142cf6138ec6141338488612d85565b6142db612dcf89612df1565b148061422657506142f26138ec6141338488612d85565b6142fe612dcf8b612df1565b14614226565b506143156138ec6141848488612d85565b614321612dcf89612df1565b148061422057506143386138ec6141848488612d85565b614344612dcf8b612df1565b14614220565b5061435f6138ec8c6138e6613c15868a612d85565b61436b612dcf8b612df1565b1461421a565b99509950965061438b6138ec8c6138e6613c15868a612d85565b614397612dcf83612df1565b1480156144cf575b80614489575b80614443575b806143f8575b6143ba90612dfe565b6143d26143c76008612df1565b60ff8a165b10612e61565b6143dc6032611a04565b966143e7602c611a04565b996143f26026611a04565b99613987565b506144096138ec613cdb8488612d85565b614415612dcf83612df1565b14806143b157506143ba61442f6138ec6138dc8589612d85565b61443b612dcf8a612df1565b1490506143b1565b506144546138ec6141338488612d85565b614460612dcf83612df1565b14806143ab57506144776138ec6141338488612d85565b614483612dcf89612df1565b146143ab565b5061449a6138ec6141848488612d85565b6144a6612dcf83612df1565b14806143a557506144bd6138ec6141848488612d85565b6144c9612dcf89612df1565b146143a5565b506144e46138ec8c6138e6613c15868a612d85565b6144f0612dcf89612df1565b1461439f565b5050505050505050905090565b5061389661450f845190565b61451d6123e16108a2865190565b14905061388d565b5080516145366123e16108a2865190565b14613887565b6108a2939291906060612cb4565b61088c9061455a612bcd33614ea7565b6145b8565b9190611d5f5761088c91613538565b90815491600160401b831015610ca2578261459191600161088c95018155611f36565b9061455f565b60ff1660ff8114612de25760010190565b9061320a6108a2612bfe92611d1e565b6145d5816145d06145c9600f611a17565b600e611d2e565b6135fd565b6145e081601061456e565b6145fc6145f56145f0600f611a17565b614597565b600f6145a8565b7fe4d2864ec291f6f11cb3363fa1bd2a4d5ff49a2cfdf4bf7dfe3b90a26b8c776f61463c61463261462d600f611a17565b611d1e565b92610abb60405190565b0390a2565b61088c9061454a565b61088c9061465a612bcd33614ea7565b61088c906146666122e9565b616210565b61088c9061464a565b6108a2614680600d5490565b61468a6001610b19565b90613727565b61088c906146a0612bcd33614ea7565b6146b8816145d06146b16012611a17565b6011611d2e565b6146c381601361456e565b6146da6146d36145f06012611a17565b60126145a8565b7fd961fa20561746b8576d7b504b0bc57067c67db2ce13bd9866d451bec5985f4b61463c61463261462d6012611a17565b61088c90614690565b906108a291614729612ad1612acd601f611a17565b6149a7565b610ad86108a26108a29290565b6108a29061472e565b1561474b57565b60405162461bcd60e51b815260206004820152600c60248201526b7a65726f206164647265737360a01b6044820152606490fd5b1561478657565b60405162461bcd60e51b815260206004820152602360248201527f47656d20636f6f6c646f776e20706572696f6420686173206e6f7420656c61706044820152621cd95960ea1b6064820152608490fd5b156147de57565b60405162461bcd60e51b815260206004820152602860248201527f47656d206973206c697374656420666f722073616c65206f7220616c7265616460448201526779206d696e696e6760c01b6064820152608490fd5b1561483b57565b60405162461bcd60e51b81526020600482015260166024820152757573657220697320616c7265616479206d696e696e6760501b6044820152606490fd5b1561488057565b60405162461bcd60e51b815260206004820152600d60248201526c3737ba1033b2b69037bbb732b960991b6044820152606490fd5b90919060048310156119f85760206148cc60019290565b8185040193060290565b156148dd57565b60405162461bcd60e51b815260206004820152601060248201526f4e6f7420656e6f7567682066756e647360801b6044820152606490fd5b90612d58610cf983610f12565b3d1561493c576149313d614915565b903d6000602084013e565b606090565b1561494857565b60405162461bcd60e51b815260206004820152601060248201526f6e6f7420656e6f7567682066756e647360801b6044820152606490fd5b90815260608101939261088c929091604091611c16905b6001600160a01b03166020830152565b506000906149c36149ba610ad88461473b565b335b1415614744565b600d916149e66149df60046149d885876119d5565b5001611a04565b421161477f565b614a07614a02612acd60066149fb86886119d5565b5001611a17565b6147d7565b614a25614a20612acd614a1b3360196112ec565b611a17565b614834565b614a53614a3b614a36846015611111565b61212f565b614a4d335b916001600160a01b031690565b14614879565b614a73614a6d826002614a6686886119d5565b50016148b5565b9061095e565b92614ac2614aae614a9b6002614a8987866119d5565b500196613914614a6d6001809a6148b5565b613914614a6d600280614a668a896119d5565b613914614a6d60036002614a6689886119d5565b614acc6008612df1565b60ff821611614c5257509180614c0d92614bf3614b9a614ba1600080516020619f0a83398151915297614aff6020611a04565b505b614b158a614b103360196112ec565b6134c8565b614b288a614b1088611ce433601b6112ec565b614b41614b3a87611ce433601c6112ec565b4290612be7565b614b5586614b5033601a6112ec565b612be7565b614b6c8a6006614b6589856119d5565b50016134c8565b6009614b7e614b796115ac565b6184fd565b9781959193614b95614b8d8b90565b3410156148d6565b6119d5565b5001612be7565b614bb78884614bb184601e611111565b016134c8565b614bcf614bc582601e611111565b6003339101613756565b614bec614be5614bdf6039611a04565b60010190565b6039612be7565b603a612be7565b813411614c13575b50506040519182914290339084614980565b0390a190565b80614c4b92614c33614c2c614c27336112e3565b6112e3565b9134613727565b60405190818003925af1614c45614922565b50614941565b3880614bfb565b614c5c6008612df1565b60ff82161180614d99575b15614c9c57509180614c0d92614bf3614b9a614ba1600080516020619f0a83398151915297614c966021611a04565b50614b01565b614ca6600c612df1565b60ff82161180614d83575b15614ce057509180614c0d92614bf3614b9a614ba1600080516020619f0a83398151915297614c966022611a04565b614ced6010949294612df1565b60ff8216119081614d6c575b5015614d275780614c0d92614bf3614b9a614ba1600080516020619f0a83398151915297614c966023611a04565b60405162461bcd60e51b815260206004820152601760248201527f47656d206e6f7420616c6c6f77656420746f204d696e650000000000000000006044820152606490fd5b9050614d7b612dcf6014612df1565b111538614cf9565b50614d8e6010612df1565b60ff82161115614cb1565b50614da4600c612df1565b60ff82161115614c67565b6108a2906000614714565b6001600160a01b03909116815260608101939261088c92909160409161227990612187565b90614dea600061473b565b6001600160a01b0381166001600160a01b03831614614e515750614e10908333916185df565b6001600160a01b0382166001600160a01b03821603614e2e57505050565b612ab490614e3b60405190565b6364283d7b60e01b815293849360048501614dba565b612ab490614e5e60405190565b633250574960e11b8152918291600483016001600160a01b03909116815260200190565b9061111b565b6001614ea16108a292614e99600090565b506042614e82565b01611a04565b6108a290614eb36122e9565b616c3c565b60066149fb6108a292614ec9600090565b50600d6119d5565b6108a2603c61212f565b9061088c91614ef0612ad1612acd601f611a17565b614f41565b15614efc57565b60405162461bcd60e51b815260206004820152601a60248201527f6661696c656420746f207075742067656d20666f722073616c650000000000006044820152606490fd5b614f509061088c92339161889a565b614ef5565b9061088c91614edb565b9061088c91614f75614f7082614e88565b618a95565b90614f7f91618aa0565b50565b9061088c91614f5f565b61088c90614f9c612bcd33614ea7565b61088c90600080516020619f2a833981519152616210565b61088c90614f8c565b9061088c9e9d9c9b9a999897969594939291614fdb612bcd33614ea7565b6150b8565b6108a29060081c610ad8565b6108a29054614fe0565b15614ffd57565b60405162461bcd60e51b815260206004820152601e60248201527f746974616e7773746f6e20616c726561647920696e697469616c697a656400006044820152606490fd5b1561504957565b60405162461bcd60e51b815260206004820152601760248201527f746f6e20616c726561647920696e697469616c697a65640000000000000000006044820152606490fd5b90610100600160a81b039060081b612bdd565b906150b16108a2612bfe926112e3565b825461508e565b61088c9e9d9b9761517d615199986151ae9f9c966151a79e9961516f6151929a6151a09f986151769461516161518b9c61515a615168946151536151849e61514c615103603b614fec565b615129615110600061473b565b916151236001600160a01b038416614a40565b14614ff6565b615146614a40615139603c61212f565b926001600160a01b031690565b14615042565b603b6150a1565b603c613756565b603d613756565b6020612be7565b6021612be7565b6022612be7565b6023612be7565b6024612be7565b6025612be7565b6026612be7565b6027612be7565b6028612be7565b6029612be7565b602a612be7565b602b612be7565b9061088c9e9d9c9b9a999897969594939291614fbd565b906108a292916151de612bcd33614ea7565b615279565b9050519061088c826108ee565b90602082820312610867576108a2916151e3565b6001600160a01b03909116815260408101929161088c9160200152565b6040513d6000823e3d90fd5b1561523457565b60405162461bcd60e51b815260206004820152601860248201527f6661696c656420746f207472616e7366657220746f6b656e00000000000000006044820152606490fd5b506152ba9160209161528f614c2780603d61212f565b90600061529b60405190565b8096819582946152af6348dbcef060e01b90565b845260048401615204565b03925af1801561530a576152d6916000916152db575b5061522d565b600190565b6152fd915060203d602011615303575b6152f58183610c81565b8101906151f0565b386152d0565b503d6152eb565b615221565b6108a2919060006151cc565b9061088c91615330612ccc610ad8603d61212f565b9061088c91615345612ad1612acd601f611a17565b6153ab565b1561535157565b60405162461bcd60e51b815260206004820152600d60248201526c11d95b481a5cc81b1bd8dad959609a1b6044820152606490fd5b6001600160a01b03909116815260608101939261088c929091604091611c1690614997565b907f85d07a7616aea29f5d972fd9100b991c224490bd49b737377d908f66f34d9afd916153f06153de610ad8600061473b565b6001600160a01b0383165b1415612adb565b6153f9336153de565b61541461540f612acd60066149fb86600d6119d5565b61534a565b615421612af18333618b17565b61542c828233618b7c565b6154378282336163c5565b61544d61544360405190565b9283923384615386565b0390a1565b9061088c9161531b565b1561546357565b60405162461bcd60e51b8152602060048201526024808201527f646973636f756e742072617465206d757374206265206c657373207468616e206044820152633130302560e01b6064820152608490fd5b6154f1906154ea61088c9695936154e36154f8966154dc6154d56064610b19565b821061545c565b6001612be7565b6002613756565b6003613756565b6004613756565b6005613756565b906108a2939291615516612ad1612acd601f611a17565b615781565b906002612da3565b1561552a57565b60405162461bcd60e51b815260206004820152602160248201527f77726f6e67206e756d626572206f662047656d7320746f20626520666f7267656044820152601960fa1b6064820152608490fd5b610cf96108a291610d56565b9061088c61559b61559584615579565b93610d56565b83612d5d565b6108a26004615585565b156155b257565b60405162461bcd60e51b815260206004820152601c60248201527f47656d20697320666f722073616c65206f72206973206d696e696e67000000006044820152606490fd5b156155fe57565b60405162461bcd60e51b815260206004820152601160248201527077726f6e67207261726974792047656d7360781b6044820152606490fd5b6108a29060101c610958565b6108a29060181c610958565b6020806156676132c9600195615663600290565b5090565b549261567d8161567686611a0e565b60ff169052565b016133588161567686600001956121e7565b90610a878160409361564f565b9061088c611b09926156ad60405190565b9384809261568f565b6108a29061569c565b156156c657565b60405162461bcd60e51b815260206004820152601c60248201527f7468697320636f6c6f722063616e2774206265206f627461696e6564000000006044820152606490fd5b634e487b7160e01b600052601260045260246000fd5b61572d9060ff16612dcf565b908115615738570690565b61570b565b60016108a2910160ff1690565b6108a26108a26108a29260ff1690565b61576a6108a26108a29260ff1690565b611bb5565b6108a26000614915565b6108a261576f565b50600092906157956149ba610ad88661473b565b6000926157ad6138ec6157a787610b19565b8561551b565b916001936157c66138ec6157c087610b19565b8361551b565b926157d088611bb5565b6157d982611bb5565b0361607b576157fc6157e9845190565b6157f66123e16002610b19565b14615523565b6158066027611a04565b93615811602d611a04565b938761581d6033611a04565b9790508a925b898061582d6155a1565b809661583881610b19565b935b615ceb575b5050505050505060029061585282612df1565b8061585c8c610b19565b6158669084612d9f565b5160ff169061587491615721565b61587d8c610b19565b6158879084612d9f565b60ff9091169052806158988a610b19565b6158a29084612d9f565b5160ff16906158b091615721565b6158b98a610b19565b6158c39084612d9f565b60ff9091169052806158d484610b19565b6158de9084612d9f565b5160ff16906158ec91615721565b6158f584610b19565b6158ff9084612d9f565b60ff90911690526003908061591383610b19565b61591d9085612d9f565b5160ff169061592b91615721565b61593483610b19565b61593e9085612d9f565b60ff909116905261594d6155a1565b9a6159578d611bb5565b61596087611bb5565b03615c455750908a8a9594939186926159788f612df1565b975b615bd7575b506159d696508d61599b6138ec61599583610b19565b85612d9f565b6159b3612dcf6109586159ad88612df1565b89612dc7565b1480615baf575b80615b87575b80615b5f575b615b0b575b505050505050611bbf565b6159df86612df1565b6159e891612dc7565b6159f19061575a565b936159fc90426131c6565b90615a056131dc565b96615a0f89610b19565b95615a1a878a8c0152565b615a279060208a016131e7565b60408801526060870152608086015260a085015284151560c085015260e0840152615a50615779565b610100840152610120830152600d91615a6990836136fe565b815490615a7590610b19565b615a7e91613727565b91829182615a8b916119d5565b500190615a9791612be7565b615aa081611596565b615aa990613734565b8114615ab490612adb565b615abf816015611111565b33615ac991613756565b615ad43360166112ec565b615add81611a04565b615ae69061376d565b615aef91612be7565b615af981336184b7565b615b01615779565b6108a290826184c9565b84615b41615b3b946138e6615b5499615b4985615b41615b4e615b419c615b4984615b41615b3b615b499e610b19565b8b612d9f565b9060ff169052565b610b19565b86612d9f565b3880888a828d6159cb565b50615b6f6138ec61599584610b19565b615b81612dcf6109586159ad88612df1565b146159c6565b50615b976138ec61599588610b19565b615ba9612dcf6109586159ad88612df1565b146159c0565b50615bbf6138ec61599586610b19565b615bd1612dcf6109586159ad88612df1565b146159ba565b9291615be96004989295969798612df1565b60ff83161015615c385790615c26615c2b92615b41615c1c615c166138ec615c108761574a565b8a612d9f565b8a612dc7565b916138e68561574a565b61573d565b9594939281928d9261597a565b919287969594915061597f565b9050615c508a611bb5565b615c5986611bb5565b03615c7b5750615c6881612df1565b915b8a8a9594939286926159788f612df1565b615c8484611bb5565b615c8d86611bb5565b03615ca45750615c9d6004612df1565b915b615c6a565b615cad82611bb5565b615cb686611bb5565b03615cc65750615c9d6005612df1565b91615cd16004611bb5565b615cda86611bb5565b03615c9f579150615c9d6006612df1565b88615cf76108a2895190565b85101561607557615e72615e5c614a6d6003879a99989796614a66615d9c615d5c8f80615da9615e7f9b8f938f8f61397b91615d8c61397592615d86615d80615d7a6113b4615d5c8e615da39b615d75615d66614a366015615d60615d5c8787612d85565b5190565b90611111565b615d6f33614a40565b14612adb565b612d85565b92151590565b91151590565b146155ab565b6149fb615d9c615d5c8a8a612d85565b600d6119d5565b146155f7565b615df08c615b41615dea615de4615dcf614a6d856002614a66615d9c615d5c8d8d612d85565b615ddf6138ec8d6138e688610b19565b612dc7565b92610b19565b89612d9f565b615e168d615b41615dea615de4615dcf614a6d856002614a66615d9c615d5c8d8d612d85565b615d756002615e2b615d9c615d5c8686612d85565b500196615b41615e52615e43614a6d6002809c6148b5565b615ddf6138ec615b4e8d610b19565b916138e68a610b19565b615ddf6138ec615e6c6003610b19565b8d612d9f565b615b41615b3b6003610b19565b615e8881610b19565b915b615eb6575b505080614bdf615ea5615d5c615eab9489612d85565b33618e51565b909192858e8261583a565b615ec66108a28897949596975190565b82101561606b57615ee9919083888684808203615ef4575b505050505060010190565b8e8295949392615e8a565b615f2c615d9c615d5c600393615f4b6138ec8a615f45615f3f6138ec615f39615f338c8f615f519f615d5c615d9c91615f2c93612d85565b50016156b6565b94610b19565b8461551b565b9b610b19565b9061551b565b96612d85565b92615f776138ec615f6d6138ec615f6785610b19565b8861551b565b95615f458a610b19565b909360ff8b1660ff85161493841561605a575b8415616049575b8415616038575b84615fc1575b50505050615fba575b615fb0906156bf565b8f83888684615ede565b5082615fa7565b9293509091615fd260ff8b16612dcf565b14928315616021575b50821561600a575b508115615ff5575b5038808080615f9e565b905061600360ff8816612dcf565b1438615feb565b90915061601960ff8916612dcf565b149038615fe3565b90925061603060ff8a16612dcf565b149138615fdb565b935060ff8b1660ff83161493615f98565b935060ff8b1660ff82161493615f91565b935060ff8b1660ff84161493615f8a565b9493929194615e8f565b5061583f565b61608486611bb5565b61608d82611bb5565b036160d6576160aa61609d845190565b6157f66123e16003610b19565b6160b46028611a04565b936160bf602e611a04565b93876160cb6034611a04565b975b90508a92615823565b6160e06002611bb5565b6160e982611bb5565b0361612d576161066160f9845190565b6157f66123e16004610b19565b6161106029611a04565b9361611b602f611a04565b93876161276035611a04565b976160cd565b6161376003611bb5565b61614082611bb5565b0361617e5761615d616150845190565b6157f66123e16005610b19565b616167602a611a04565b936161726030611a04565b93876161276036611a04565b6161886004611bb5565b61619182611bb5565b036161cf576161ae6161a1845190565b6157f66123e16006610b19565b6161b8602b611a04565b936161c36031611a04565b93876161276037611a04565b60405162461bcd60e51b815260206004820152600c60248201526b77726f6e672072617269747960a01b6044820152606490fd5b6108a292919060006154ff565b9061621a33610ad8565b6001600160a01b0382160361623257614f7f91618ea5565b60405163334bd91960e11b8152600490fd5b6001600160a01b03909116815260408101929161088c91602090612279565b919061628e7f00000000000000000000000000000000000000000000000000000000000000006112e3565b926001600160a01b03841633036162aa5761088c929350618f74565b612ab4846162b760405190565b63073e64fd60e21b81529182913360048401616244565b6108a2603d61212f565b156162df57565b60405162461bcd60e51b815260206004820152602360248201527f41757468436f6e74726f6c3a2043616c6c6572206973206e6f7420612070617560448201526239b2b960e91b6064820152608490fd5b61636461635f7ffcb9fcbfa83b897fb2d5cf4b58962164105c1e71489a37ef3ae0db3fdce576f65b3390616c3c565b6162d8565b61088c616377612ad1612acd601f611a17565b61088c6163866000601f6134c8565b7f5db9ee0a495bf2e6ff9c91a7834c1ba4fdd244a5e8aa4e537bd38aeae4b073aa6163b060405190565b338152806020810161544d565b61088c616330565b909161088c926163d3615779565b92617b4c565b9061088c916163ee612ccc610ad8603e61212f565b906006614b6561088c93600d6119d5565b9061088c916163d9565b6108a26020611a04565b6108a290618442565b61088c9061642c612bcd33614ea7565b61088c906164386122e9565b614f82565b61088c9061641c565b61645d6108a291616455600090565b5060166112ec565b611a04565b61646e612bcd33614ea7565b61088c61088c61647c6122e9565b3390616210565b61088c616462565b61088c9061649b612bcd33614ea7565b616531565b156164a757565b60405162461bcd60e51b815260206004820152601860248201527f41636365737369626c653a207a65726f206164647265737300000000000000006044820152606490fd5b156164f357565b60405162461bcd60e51b815260206004820152601660248201527520b1b1b2b9b9b4b136329d1039b0b6b29030b236b4b760511b6044820152606490fd5b61088c90616556616545610ad8600061473b565b6001600160a01b03831614156164a0565b61656b6001600160a01b0382163314156164ec565b61647c6165766122e9565b9182614f82565b61088c9061648b565b9061088c9161659b612ad1612acd601f611a17565b616613565b156165a757565b60405162461bcd60e51b81526020600482015260096024820152686e6f20746f6b656e7360b81b6044820152606490fd5b156165df57565b60405162461bcd60e51b815260206004820152600c60248201526b0eee4dedcce40d8cadccee8d60a31b6044820152606490fd5b919091616635616621825190565b61662e6123e16000610b19565b14156165a0565b616654616640825190565b61664e6123e16108a2875190565b146165d8565b61665e6000610b19565b6166696108a2835190565b8110156166a05780614bdf614f50616687615d5c61669b9587612d85565b616694615d5c858a612d85565b339161889a565b61665e565b50509050565b9061088c91616586565b61088c906166c0612bcd33614ea7565b61544d7f21a8eefc17e9c864964b5a4c0769d87f39cc0a7576773159e12358bc0095ffc5916166f26154d56064610b19565b6109e1816001612be7565b61088c906166b0565b906108a29161671b612ad1612acd601f611a17565b6168bf565b1561672757565b60405162461bcd60e51b815260206004820152600d60248201526c3737ba1023a2a69037bbb732b960991b6044820152606490fd5b1561676357565b60405162461bcd60e51b815280612ab4600482016020808252818101527f6e6f2072616e646f6d207265717565737420666f72207468697320746f6b656e604082015260600190565b156167b357565b60405162461bcd60e51b815260206004820152601b60248201527f75736572206973206e6f74206d696e696e6720746869732047656d00000000006044820152606490fd5b156167ff57565b60405162461bcd60e51b815260206004820152601d60248201527f6d696e696e6720706572696f6420686173206e6f7420656c61707365640000006044820152606490fd5b1561684b57565b60405162461bcd60e51b815260206004820152601260248201527147656d73206973206e6f74206d696e696e6760701b6044820152606490fd5b91906168966108a2612bfe93151590565b908354613310565b61088c91600091616885565b90815260408101929161088c91602090612279565b506168e06168d1614a36836015611111565b6168da33614a40565b14616720565b600d6168f160096149d884846119d5565b9061690b6000926169046123e185610b19565b141561675c565b61691d614a1b84611ce433601b6112ec565b600193906169349061692e86615d80565b146167ac565b61696b6169646108a261694f61645d85611ce433601c6112ec565b61695e60056149d887896119d5565b906131c6565b42116167f8565b61698e61697d60066149fb84866119d5565b616988861515615d80565b14616844565b61699d83614b103360196112ec565b6169b5836169b083611ce433601b6112ec565b61689e565b6169cd836169c883611ce433601c6112ec565b613256565b6169dc836169c833601a6112ec565b6169ec836006614b6584866119d5565b826020616a41616a0160096149d886886119d5565b616a216002614ea1616a19614c27614c27603d61212f565b93601e611111565b604051978893849283919063048dbcef60e41b5b83523360048401615204565b03925af192831561530a57616a97616a8b83615b49614c0d977f97b363697f59781efcf0539a3eeabceea1e3b444e248009d3730fa6a26db9c2499616ac297916152db575061522d565b6009614b9a86856119d5565b6004614b9a84616abc616ab6616ab18b6149fb85896119d5565b6190af565b426131c6565b936119d5565b6040519182913390836168aa565b6108a2906000616706565b616b0761635f7ffcb9fcbfa83b897fb2d5cf4b58962164105c1e71489a37ef3ae0db3fdce576f6616358565b61088c616b1a612ad1612acd601f611a17565b61088c616b296001601f6134c8565b7f62e78cea01bee320cd4e420270b5ea74000d11b0c9f74754ebdbfc544b05a2586163b060405190565b61088c616adb565b616b6481616446565b600090616b7082610b19565b8103616b8557506108a291506138a190610b19565b616b8e90612d62565b91616b97614674565b90616ba183610b19565b925060019182616bb16001610b19565b905b616bc0575b505050505090565b818111616c2257616bd5614a36826015611111565b616be76001600160a01b038516614a40565b14616bfc575b616bf69061376d565b83616bb3565b93616c1a81616c1587616c12616bf6958b612d85565b52565b61376d565b949050616bed565b616bb8565b6108a26022611a04565b6108a26163586122e9565b6108a2916000616c51614a1b93614e99600090565b016112ec565b6108a26007612b2f565b906108a294939291616c79612ccc610ad8603d61212f565b906108a294939291616c91612ad1612acd601f611a17565b50929190600093616ca76138ec61599587610b19565b91616cc36001936139146138ec616cbd87610b19565b88612d9f565b616cd86002916139146138ec615dea85610b19565b90616cee6003926139146138ec615c1086610b19565b90616cf889611bb5565b616d0186611bb5565b03616ff157616d4b90616d5893616d1d6138ec615b3b8d610b19565b616d29612dcf8a612df1565b14918215616fcd575b82616f80575b82616f33575b82616edd575b5050612dfe565b6143cc612dcf6008612df1565b616d626032611a04565b94616d6d602c611a04565b95616d786026611a04565b945b616d8482426131c6565b90616d8d6131dc565b91616d978b610b19565b90616da282858e0152565b616daf88602086016131e7565b604084018a9052606084018790526080840152616dcd8a60a0850152565b8a151560c0840152616de08860e0850152565b6101008301859052610120830152600d91616dfb90836136fe565b815490616e0790610b19565b616e1091613727565b98616e1c8a80936119d5565b500190616e2891612be7565b616e3188611596565b616e3a90613734565b8814616e4590612adb565b616e50886015611111565b33616e5a91613756565b616e653360166112ec565b616e6e81611a04565b616e779061376d565b616e8091612be7565b616e8a88336184b7565b616e9482896184c9565b616e9d88610b19565b96616ea760405190565b9687963395616eb697896137f4565b037f5ea0402f9a8785c25ad31fd3e0e81f8c2b4ca231668cc82cd03fa34ea1f0ce3c91a290565b909150616eef6138ec615b3b84610b19565b616efb612dcf8a612df1565b14918215616f0d575b50503880616d44565b616f2b919250613c8f6138ec616f25612dcf93610b19565b8c612d9f565b143880616f04565b9150616f446138ec615b3b84610b19565b616f50612dcf8a612df1565b148015616f5e575b91616d3e565b50616f6e6138ec615b3b84610b19565b616f7a612dcf84612df1565b14616f58565b9150616f916138ec615b3b8a610b19565b616f9d612dcf8a612df1565b148015616fab575b91616d38565b50616fbb6138ec615b3b8a610b19565b616fc7612dcf84612df1565b14616fa5565b9150616fde6138ec615b3b8d610b19565b616fea612dcf84612df1565b1491616d32565b616ffa86611bb5565b61700386611bb5565b036171855761704d9061705a9361701f6138ec615b3b8d610b19565b61702b612dcf84612df1565b14918215617161575b82617114575b826170c7575b82617080575b5050612ead565b614247612dcf600c612df1565b6170646033611a04565b9461706f602d611a04565b9561707a6027611a04565b94616d7a565b909150617098612dcf613c8f6138ec615e6c86610b19565b149081156170a9575b503880617046565b90506170c0612dcf613c8f6138ec616f2585610b19565b14386170a1565b91506170d86138ec615b3b84610b19565b6170e4612dcf84612df1565b1480156170f2575b91617040565b506171026138ec615b3b84610b19565b61710e612dcf83612df1565b146170ec565b91506171256138ec615b3b8a610b19565b617131612dcf84612df1565b14801561713f575b9161703a565b5061714f6138ec615b3b8a610b19565b61715b612dcf83612df1565b14617139565b91506171726138ec615b3b8d610b19565b61717e612dcf83612df1565b1491617034565b61718e81611bb5565b61719786611bb5565b03617327576171e1906171ee936171b36138ec615b3b8d610b19565b6171bf612dcf83612df1565b14918215617302575b826172b4575b82617260575b508161720e575b50612f5a565b6140aa612dcf6010612df1565b6171f86034611a04565b94617203602e611a04565b9561707a6028611a04565b905061721f6138ec615c1083610b19565b61722b612dcf83612df1565b1490811561723b575b50386171db565b61724c9150615dea6138ec91610b19565b617259612dcf6004612df1565b1438617234565b9091506172726138ec615b3b83610b19565b61727e612dcf84612df1565b1490811561728f575b5090386171d4565b6172a09150615c106138ec91610b19565b6172ad612dcf6004612df1565b1438617287565b91506172c56138ec615b3b8a610b19565b6172d1612dcf83612df1565b1480156172df575b916171ce565b506172ef6138ec615b3b8a610b19565b6172fc612dcf6004612df1565b146172d9565b91506173136138ec615b3b8d610b19565b617320612dcf6004612df1565b14916171c8565b61733083611bb5565b61733986611bb5565b036174cd5761738990617396936173556138ec615b3b8d610b19565b600490617364612dcf83612df1565b14928c84156174a6575b5083617458575b83617404575b50826173b6575b5050613009565b613f04612dcf6014612df1565b6173a06035611a04565b946173ab602f611a04565b9561707a6029611a04565b9091506173ce612dcf613c8f6138ec615e6c86610b19565b149081156173df575b503880617382565b6173f09150615dea6138ec91610b19565b6173fd612dcf6005612df1565b14386173d7565b9092506174166138ec616f2583610b19565b617422612dcf85612df1565b14908115617433575b50913861737b565b6174449150615b3b6138ec91610b19565b617451612dcf6005612df1565b143861742b565b92506174696138ec616f258b610b19565b617475612dcf83612df1565b148015617483575b92617375565b506174936138ec616f258b610b19565b6174a0612dcf6005612df1565b1461747d565b6174b8919450616f256138ec91610b19565b6174c5612dcf6005612df1565b14928c61736e565b6174d76004611bb5565b6174e086611bb5565b0361766757613d5290617530936174fc6138ec615b3b8d610b19565b60059061750b612dcf83612df1565b14928c8415617640575b50836175f2575b8361759e575b5082617550575b50506130b6565b61753a6036611a04565b946175456030611a04565b9561707a602a611a04565b909150617568612dcf613c8f6138ec615e6c86610b19565b14908115617579575b503880617529565b61758a9150615dea6138ec91610b19565b617597612dcf6006612df1565b1438617571565b9092506175b06138ec616f2583610b19565b6175bc612dcf85612df1565b149081156175cd575b509138617522565b6175de9150615b3b6138ec91610b19565b6175eb612dcf6006612df1565b14386175c5565b92506176036138ec616f258b610b19565b61760f612dcf83612df1565b14801561761d575b9261751c565b5061762d6138ec616f258b610b19565b61763a612dcf6006612df1565b14617617565b617652919450616f256138ec91610b19565b61765f612dcf6006612df1565b14928c617515565b90506176736005611bb5565b61767c85611bb5565b0361774a576176c0916176946138ec615dea8b610b19565b906006916176a4612dcf84612df1565b149283617726575b83617700575b50826176e0575b5050613168565b6176ca6037611a04565b946176d56031611a04565b9561707a602b611a04565b6176f8919250613c8f6138ec615c10612dcf93610b19565b1438806176b9565b617712919350615dea6138ec91610b19565b61771e612dcf83612df1565b1491386176b2565b92506177376138ec615c1089610b19565b617743612dcf84612df1565b14926176ac565b60405162461bcd60e51b815260206004820152600c60248201526b77726f6e672052617269747960a01b6044820152606490fd5b6108a2939291906000616c61565b61088c9061779c612bcd33614ea7565b61088c90600080516020619f2a833981519152614f82565b61088c9061778c565b61088c600080516020619f2a83398151915261647c565b61088c906177e4612bcd33614ea7565b61088c90603b6145a8565b61088c906177d4565b61088c9190336191b0565b6108a2600261212f565b6108a26001611a04565b6108a290600080516020619f2a833981519152616c3c565b6108a26002615585565b6178416131dc565b906000825260208080808080808080808b0160008152016178606155a1565b81520161786b61782f565b815201600081520160008152016000815201600081520160608152016000905250565b6108a2617839565b1561789d57565b60405162461bcd60e51b815260206004820152601260248201527111d95b48191bd95cc81b9bdd08195e1a5cdd60721b6044820152606490fd5b602060016133586156769361567684848181816178fe6178fa839d615663600490565b9790565b9661790e81600099549d8e611a0e565b0195019461791f816156768c6121e7565b01930192617930816156768a615637565b019384920195615643565b90610a87816080936178d7565b9061088c611b099261795960405190565b9384809261793b565b9061088c617a3960096179736131dc565b9461798461798082611a04565b8752565b61799c61799360018301611a17565b602088016131e7565b6179b26179ab60028301617948565b6040880152565b6179c86179c16003830161569c565b6060880152565b6179de6179d760048301611a04565b6080880152565b6179f46179ed60058301611a04565b60a0880152565b617a0c617a0360068301611a17565b151560c0880152565b617a22617a1b60078301611a04565b60e0880152565b614ea1617a3160088301611aef565b610100880152565b610120840152565b6108a290617962565b617a706108a291617a5961788e565b50615d9c617a696108a2600d5490565b8210617896565b50617a41565b9061088c9594939291617a8b612bcd33614ea7565b92617ab861088c969593617ab1617abf94617aaa617ac6986032612be7565b6033612be7565b6034612be7565b6035612be7565b6036612be7565b6037612be7565b9061088c9594939291617a76565b15617ae257565b60405162461bcd60e51b8152602060048201526013602482015272496e646578206f7574206f6620626f756e647360681b6044820152606490fd5b617b476108a291617b2c606090565b506145c9617b3d610958600f611a17565b60ff831610617adb565b612b2f565b9061088c939291617b5e838383614ddf565b61929e565b614a36617b7a91617b72600090565b506015611111565b9061088c826153e9614a40610ad8600061473b565b6108a2611f31603d61212f565b15617ba357565b60405162461bcd60e51b815260206004820152602f60248201527f4552433732314d657461646174613a2055524920717565727920666f72206e6f60448201526e3732bc34b9ba32b73a103a37b5b2b760891b6064820152608490fd5b6108a290617c15617c108261939a565b617b9c565b61941f565b61088c90617c2a612bcd33614ea7565b61088c90603e613756565b61088c90617c1a565b61088c90617c4e612bcd33614ea7565b61088c90600080516020619f2a833981519152617c8a565b61088c90617c3e565b9061088c91617c80614f7082614e88565b90614f7f91618ea5565b9061088c91617c6f565b9061088c9291617caa612ccc610ad8603e61212f565b9061088c9291617cc0612ad1612acd601f611a17565b617d86565b15617ccc57565b60405162461bcd60e51b815260206004820152601660248201527522a9219b9918a737b732bc34b9ba32b73a2a37b5b2b760511b6044820152606490fd5b15617d1157565b60405162461bcd60e51b815260206004820152600f60248201526e2737ba103a37b5b2b71037bbb732b960891b6044820152606490fd5b15617d4f57565b60405162461bcd60e51b815260206004820152600f60248201526e496e76616c6964206164647265737360881b6044820152606490fd5b61544d7f85d07a7616aea29f5d972fd9100b991c224490bd49b737377d908f66f34d9afd93617dbc617db78261939a565b617cc5565b617dd261540f612acd60066149fb85600d6119d5565b617dfb617de3614a36836015611111565b617df56001600160a01b038616614a40565b14617d0a565b617e1c617e0b610ad8600061473b565b6001600160a01b0386161415617d48565b617e27818585618b7c565b617e328185856163c5565b60405193849384615386565b9061088c9291617c94565b6108a2603b614fec565b6108a291617e6e614a1b92617e66600090565b50600b6112ec565b6112ec565b61088c90617e83612bcd33614ea7565b61088c9061657d565b61088c90617e73565b9050519061088c826108db565b90602082820312610867576108a291617e95565b6020617f1591617ec4600090565b50617eee7f00000000000000000000000000000000000000000000000000000000000000006112e3565b604051938492839182916315ae5acd60e11b5b835263ffffffff1660048301526024820190565b03915afa90811561530a57600091617f2b575090565b6108a2915060203d602011617f4d575b617f458183610c81565b810190617ea2565b503d617f3b565b61088c90617f68612ad1612acd601f611a17565b617fab565b15617f7457565b60405162461bcd60e51b815260206004820152600f60248201526e1d1c985b9cd9995c8819985a5b1959608a1b6044820152606490fd5b600090617fbd6149ba610ad88461473b565b617fce615d66614a36836015611111565b602061801c617fe360076149d885600d6119d5565b617fed8433618e51565b617ffd614c27614c27603d61212f565b9061800760405190565b9586938492839190630169dc3160e01b616a35565b03925af190811561530a57616ac261544d927f65aff8e0552d208dfaf55b1280e55553b7dba628290897ff43c8f086d5dbfd2a9460009161805e575b50617f6d565b618077915060203d602011615303576152f58183610c81565b38618058565b61088c90617f54565b6108a26021611a04565b6108a290619482565b906180ad9392916180a86194b5565b6181c4565b9061088c6194f5565b156180bd57565b60405162461bcd60e51b815260206004820152600c60248201526b6e6f7420666f722073616c6560a01b6044820152606490fd5b156180f857565b60405162461bcd60e51b815260206004820152600b60248201526a77726f6e6720707269636560a81b6044820152606490fd5b1561813257565b60405162461bcd60e51b815260206004820152600c60248201526b3bb937b7339039b2b63632b960a11b6044820152606490fd5b8115615738570490565b90815260408101929161088c9160209061218e565b611c1661088c946181b46060949897956181a4608086019a6000870152565b6001600160a01b03166020850152565b6001600160a01b03166040830152565b5060006181d08161473b565b936181ed6001600160a01b0386166001600160a01b0386166149bc565b61820a61820560026181ff8686611111565b01611a17565b6180b6565b6182196001614ea18585611111565b9061822e61822684610b19565b8314156180f1565b618266618255618248856182428882611111565b0161212f565b976001600160a01b031690565b6001600160a01b038816141561812b565b156183b85761828381868661827e614c27600461212f565b619531565b618293826002614bb18683611111565b6182a3614c27614c27600261212f565b803b1561086757826182b460405190565b918290634d723a7560e01b82528183816182d2828b60048401618170565b03925af1801561530a5761839c575b506182f2614c27614c27600261212f565b94853b15610867578261830460405190565b9687906306b5dbdd60e51b82528183816183238a8c8960048501615386565b03925af192831561530a577f429a311c86d807d248190c8540973d38711c40cabad4c6266ef4b9a7ae6cdc3c966183679461836f575b505060405194859485618185565b0390a1600190565b8161838e92903d10618395575b6183868183610c81565b810190610944565b3880618359565b503d61837c565b6183b290833d8511618395576183868183610c81565b386182e1565b61840e6183f06183eb6183e56183d76183d16001611a04565b86613211565b6183df610b26565b90618166565b846131c6565b619507565b6183fd614c27600561212f565b86618408600361212f565b91619531565b6184308186618420614c27600461212f565b61842a600361212f565b90619531565b618283565b6108a29291906000618099565b61844b8161957b565b90618459610ad8600061473b565b6001600160a01b0383161461846c575090565b612ab49061847960405190565b637e27328960e01b81529182916004830190815260200190565b614a366108a2916184a2600090565b50600a611111565b9160019161088c93619592565b61088c916184c3615779565b916196ce565b61544d906109e17ff8e1a15aba9398e019f0b49df1a4fde98ee17ae345cb5f6b5e2c27f5033e8ce7936145d083600c611111565b906185277f00000000000000000000000000000000000000000000000000000000000000006112e3565b9161853160405190565b6315ae5acd60e11b815263ffffffff8216600482015292602084602481845afa93841561530a576000946185b7575b5061858791602091617f0186637072b97761857a60405190565b9687958694859360e01b90565b03925af190811561530a5760009161859e57509190565b6123e1915060203d602011617f4d57617f458183610c81565b6020919450916185d661858793833d8511617f4d57617f458183610c81565b94915091618560565b9061863d6185ec8261957b565b9360006185f88161473b565b91846001600160a01b0384166001600160a01b03831603618719575b50506001600160a01b0382166001600160a01b038716036186de575b506001600160a01b031690565b6001600160a01b038316036186ae575b6186618261865c836008611111565b613756565b61867c618676618670856112e3565b936112e3565b91610b19565b917fddf252ad1be2c89b69c2b068fc378daa952ba7f163c4a11628f55a4df523b3ef6186a760405190565b600090a490565b6186d96186bb6001610b19565b6186d36186c98560096112ec565b91610a8783611a04565b90612be7565b61864d565b6186ea90828581619592565b6187136186f76001610b19565b6186d36187058860096112ec565b9161870f83611a04565b0390565b38618630565b61872391886196e8565b3884618614565b9050519061088c82610b7a565b90602082820312610867576108a29161872a565b1561875257565b60405162461bcd60e51b815260206004820152601860248201527f4e6f7420746865206f776e6572206f66207468652047454d00000000000000006044820152606490fd5b1561879e57565b60405162461bcd60e51b815260206004820152601f60248201527f5072696365206d7573742062652067726561746572207468616e207a65726f006044820152606490fd5b156187ea57565b60405162461bcd60e51b815260206004820152602160248201527f47656d20697320616c726561647920666f722073616c65206f72206d696e696e6044820152606760f81b6064820152608490fd5b6108a26060610ca7565b6002618889604061088c9461886b61886560008301516001600160a01b031690565b86613756565b618882618879602083015190565b60018701612be7565b0151151590565b91016134c8565b9061088c91618843565b9091906188ad614c27614c27600261212f565b60206188b860405190565b6331a9108f60e11b81526004810184905291829060249082905afa801561530a576188fe91600091618a66575b506188f86001600160a01b038516614a40565b1461874b565b60009261891461890d85610b19565b8211618797565b618924614c27614c27600261212f565b602061892f60405190565b63276a28a360e01b81526004810185905291829060249082905afa801561530a5761896d918691618a47575b50618967861515615d80565b146187e3565b61897d614c27614c27600261212f565b90813b15610867578461898f60405190565b928390634d723a7560e01b82528183816189ae60018a60048401618170565b03925af1801561530a577f8b8052dfcc72d6fc28cd795f60661e1a701f185ce78c06a47b2ac29357d6ef8b9561836793618a1f92618a2b575b50618a1a856189f4618839565b6001600160a01b0389168482015292618a0e866020860152565b60016040850152611111565b618890565b60405193849384614980565b618a4190823d8411618395576183868183610c81565b386189e7565b618a60915060203d602011615303576152f58183610c81565b3861895b565b618a88915060203d602011618a8e575b618a808183610c81565b810190618737565b386188e5565b503d618a76565b61088c903390619743565b618aad612acd8383616c3c565b15618b1057618ac86001614b10846000616c51866042614e82565b618adc618ad6618670339390565b916112e3565b917f2f8788117e7eff1d82e926ec794901d17c78024a50270940304540a733656f0d618b0760405190565b600090a4600190565b5050600090565b90614a40615139614a36618b2d93617b72600090565b1490565b8015612de2576000190190565b916001600160a01b0360089290920291821b911b612bdd565b9190618b686108a2612bfe936112e3565b908354618b3e565b61088c91600091618b57565b61088c92618bf3618be2618c0293618bdb600096618bb6618ba9616ab6616ab160016149fb8b600d6119d5565b6004614b9a89600d6119d5565b618bd0618bc48260166112ec565b6186d3616c1582611a04565b61865c866015611111565b60166112ec565b6186d3618bee82611a04565b618b31565b618c0783618c02836018611111565b618b70565b6017611111565b61088c9060015b810190613262565b90600003611d5f5761088c90618c0e565b61088c906001618c15565b90600003611d5f5761088c90618c2e565b90600091618c68618c6082600052602060002090565b928354613526565b905555565b9192906020821015618cc557601f8411600114618c8f57612bfe929350613526565b5090618cc061088c936001618cb7618cac85600052602060002090565b92601f602091010490565b82019101613262565b618c4a565b50618cfe8293618cdc600194600052602060002090565b6135156020601f860104820192601f861680618d06575b50601f602091010490565b600202179055565b618d1290888603613281565b38618cf3565b929091600160401b8211610ca25760201115618d5f576020811015618d4057612bfe91613526565b60019160ff1916618d5684600052602060002090565b55600202019055565b60019150600202019055565b908154618d7781611a37565b90818311618d9f575b818310618d8d5750505050565b618d9693618c6d565b38808080613358565b618dab83838387618d18565b618d80565b600061088c91618d6b565b90600003611d5f5761088c90618db0565b6000600961088c92618de083808301613256565b826001820155618df38360028301618c1d565b618e008360038301618c39565b618e0d8360048301613256565b618e1a8360058301613256565b826006820155618e2d8360078301613256565b618e3a8360088301618dbb565b01613256565b90600003611d5f5761088c90618dcc565b90618e70618be261088c93618bdb618e6a85600d6119d5565b90618e40565b618e806000618c02836015611111565b618e906000618c02836018611111565b618ea06000618c02836017611111565b61977b565b618eaf8282616c3c565b15618b1057618ec96000614b108482616c51866042614e82565b618ed7618ad6618670339390565b917ff6391f5c32d9c69d2a47ea670b442974b53935d1edc7fd64eb21e047a839171b618b0760405190565b15618f0957565b60405162461bcd60e51b815260206004820152601060248201526f52657175657374206e6f74206d61646560801b6044820152606490fd5b9061ff009060081b612bdd565b90618f5e6108a2612bfe92151590565b8254618f41565b6108a290617948565b9061572d565b90601e90618f828383611111565b618f8b90611a17565b618f9490618f02565b618f9e8383611111565b600301618faa9061212f565b60019081618fb88686611111565b618fc29190618f4e565b8282618fce8787611111565b0190618fd991612be7565b618fe490601a6112ec565b618fed90611a04565b618ff890600d6119d5565b5060020161900590618f65565b61900f6000610b19565b6190199082612d9f565b5160ff169061902783610b19565b6190319082612d9f565b5160ff16906190406002610b19565b61904a9082612d9f565b5160ff16906190596003610b19565b61906291612d9f565b5160ff16916190709361979e565b929061907b91618f6e565b9061908590610b19565b61908e916131c6565b61909791612d85565b51916190a291611111565b6002019061088c91612be7565b6190b96000611bb5565b6190c282611bb5565b146191a5576190d16001611bb5565b6190da82611bb5565b1461919a576190e96002611bb5565b6190f282611bb5565b1461918f576191016003611bb5565b61910a82611bb5565b14619184576191196004611bb5565b61912282611bb5565b146191795761913461397b6005611bb5565b1461916f5760405162461bcd60e51b815260206004820152600e60248201526d496e76616c69642072617269747960901b6044820152606490fd5b6108a26037611a04565b506108a26036611a04565b506108a26035611a04565b506108a26034611a04565b506108a26033611a04565b506108a26032611a04565b6191bd610ad8600061473b565b6001600160a01b038316146192195761921461920a61867083614c2787614b1088617e6e7f17307eab39ab6107e8899845ad3d59bd9653f200f220920489ca2b5937696c3199600b6112ec565b936108c860405190565b0390a3565b612ab48261922660405190565b630b61174360e31b8152918291600483016001600160a01b03909116815260200190565b9050519061088c8261086c565b90602082820312610867576108a29161924a565b6001600160a01b0390911681526108a293608082019390926192919190611c0f906181a4565b6060818403910152610a53565b909291833b6192b06123e16000610b19565b116192bb5750505050565b6020916192ca614c27866112e3565b906000336192f46192da60405190565b97889687958694630a85bd0160e11b86526004860161926b565b03925af160009181619369575b50619340575061930f614922565b90619318825190565b6193256123e16000610b19565b0361933757612ab490614e5e60405190565b50805190602001fd5b61935a630a85bd0160e11b5b916001600160e01b03191690565b03614e51575038808080613358565b61938c91925060203d602011619393575b6193848183610c81565b810190619257565b9038619301565b503d61937a565b614a366193a991617b72600090565b6193b9614a40610ad8600061473b565b141590565b610a876193d6926020926193d0815190565b94859290565b93849101610a30565b6193ed906108a293926193be565b906193be565b619413929161088c9161940560405190565b9485926020840192836193df565b90810382520383610c81565b61942881618442565b50619437617b4782600c611111565b61943f619929565b805161944e6123e16000610b19565b1461947c5781516194626123e16000610b19565b116194725750506108a290619931565b6108a292506193f3565b50905090565b637965db0b60e01b6001600160e01b03198216149081156194a1575090565b6108a2915061998e565b6108a26002610b19565b6194bf6043611a04565b6194c76194ab565b9081146194d95761088c906043612be7565b604051633ee5aeb560e01b8152600490fd5b6108a26001610b19565b61088c6195006194eb565b6043612be7565b6108a2906183df633b9aca00610b19565b61188961952b6108a29263ffffffff1690565b60e01b90565b906195769061956761088c9560049561954d6323b872dd619518565b9361955760405190565b9788956020870190815201615386565b60208201810382520383610c81565b6199ba565b614a366108a29161958a600090565b506008611111565b929190918081156196af575b6195b4575b50509061865c61088c92600a611111565b6195bd83618442565b916195cb610ad8600061473b565b6001600160a01b038216141580619693575b80619680575b61964f57509161865c9161088c94936195ff575b5091926195a3565b619608906112e3565b619611846112e3565b61961a83610b19565b917f8c5be1e5ebec7d5bd14f71427d1e84f3dd0314c0f7b2291e5b200ac8c7c3b92561964560405190565b600090a4386195f7565b612ab49061965c60405190565b63a9fbf51f60e01b8152918291600483016001600160a01b03909116815260200190565b5061968e612acd8285617e53565b6195e3565b506001600160a01b0381166001600160a01b03841614156195dd565b506196bd610ad8600061473b565b6001600160a01b038316141561959e565b9061088c92916196de8282619a42565b617b5e600061473b565b6196f6612acd848484619aca565b6196ff57505050565b61970f614a40610ad8600061473b565b0361972157612ab48261847960405190565b612ab461972d60405190565b63177e802f60e01b815292839260048401615204565b90619751612acd8284616c3c565b619759575050565b612ab461976560405190565b63e2517d3f60e01b815292839260048401615204565b619785600061473b565b619796614a406151398385816185df565b1461846c5750565b90939290916000926197cf6197b285610b19565b93615ddf600d94615ddf6197c76138a1885490565b9a8896612dc7565b95835b6197dd6108a2855490565b8110156198e3576198456198116197fd614a6d896002614a66878b6119d5565b613914614a6d60016002614a66888c6119d5565b613914614a6d600361983a6002619828888c6119d5565b500194613914614a6d600280986148b5565b93614a66878b6119d5565b61985160ff8a16612dcf565b10806198be575b806198a6575b619870575b6001016197d2565b6197d2565b939161989e61989761986b92614bdf61988d8a6149d88b8b6119d5565b616c128388612d85565b9360010190565b949050619863565b506198b9612acd60066149fb84886119d5565b61985e565b506198cd614a36826015611111565b6198dd614a40610ad8603d61212f565b14619858565b509395505050916198f6615f3384612d62565b838110156199215780614bdf619912615d5c61991c9487612d85565b616c128389612d85565b6198f6565b509190509190565b6108a2615779565b61993a81618442565b50619943619929565b80516199526123e16000610b19565b111561996a576199646108a292619b68565b906193f3565b50506108a2615779565b61188961952b6108a29290565b6108a26349064906619974565b619999611889619981565b6001600160e01b03198216149081156199b0575090565b6108a29150619bf4565b6199c66199cd916112e3565b9182619c3f565b80516199dc6123e16000610b19565b14159081619a1e575b506199ed5750565b612ab4906199fa60405190565b635274afe760e01b8152918291600483016001600160a01b03909116815260200190565b619a3c9150806020619a31612acd935190565b8183010191016151f0565b386199e5565b90619a4d600061473b565b916001600160a01b0383166001600160a01b03821614619abd57619a729183916185df565b619a846001600160a01b038316614a40565b03619a8c5750565b612ab490619a9960405190565b6339e3563760e11b8152918291600483016001600160a01b03909116815260200190565b612ab483614e5e60405190565b90619ad8610ad8600061473b565b6001600160a01b03821614159283619af1575b50505090565b919250906001600160a01b0382166001600160a01b03841614928315619b3e575b508215619b24575b5050388080619aeb565b619b36919250615139614a4091618493565b143880619b1a565b619b4b9193508290617e53565b9138619b12565b9061088c612d78619b6284614915565b93610f12565b619b7181619c53565b90619b82600192610a876001610b19565b9180619b8d84619b52565b936020018401905b619b9f5750505090565b8115619bef57619bd39060001901926f181899199a1a9b1b9c1cb0b131b232b360811b600a82061a84536183df600a610b19565b9081619be26123e16000610b19565b14619bef57909181619b95565b619aeb565b6380ac58cd60e01b6001600160e01b0319821614908115619c24575b8115619c1a575090565b6108a29150619df5565b6001600160e01b03198116635b5e139f60e01b149150619c10565b6108a291619c4d6000610b19565b91619e05565b619c5d6000610b19565b907a184f03e93ff9f4daa797ed6e38ed64bf6a1f010000000000000000619c8381610b19565b821015619dd3575b506d04ee2d6d415b85acef8100000000619ca481610b19565b821015619db1575b50662386f26fc10000619cbe81610b19565b821015619d8f575b506305f5e100619cd581610b19565b821015619d6d575b50612710619cea81610b19565b821015619d4b575b50619cfd6064610b19565b811015619d29575b619d126123e1600a610b19565b1015619d1b5790565b6108a290610a876001610b19565b619d3a619d45916183df6064610b19565b91610a876002610b19565b90619d05565b619d66916183df619d5b92610b19565b91610a876004610b19565b9038619cf2565b619d88916183df619d7d92610b19565b91610a876008610b19565b9038619cdd565b619daa916183df619d9f92610b19565b91610a876010610b19565b9038619cc6565b619dcc916183df619dc192610b19565b91610a876020610b19565b9038619cac565b619dee916183df619de392610b19565b91610a876040610b19565b9038619c8b565b618b2d6301ffc9a760e01b61934c565b91619e0f306112e3565b81813110619e395750600082819260206108a2969551920190855af1619e33614922565b91619e6a565b612ab490619e4660405190565b63cd78605960e01b8152918291600483016001600160a01b03909116815260200190565b90619e755750619eda565b8151619e846123e16000610b19565b1480619ec4575b619e93575090565b612ab490619ea060405190565b639996b31560e01b8152918291600483016001600160a01b03909116815260200190565b50803b619ed46123e16000610b19565b14619e8b565b8051619ee96123e16000610b19565b1115619ef757805190602001fd5b604051630a12f52160e11b8152600490fdfe47538340716ce4ea460b03ab331ade0bc77d177abe31d6e8e6cdbc159b7e035906aa03964db1f7257357ef09714a5f0ca3633723df419e97015e0c7a3e83edb7a2646970667358221220f872cc2367b407ad799db2f3a1b05566341ed57914b83aaa1b63422d7f7e847f64736f6c63430008170033",
    "linkReferences": {}
  },
  "methodIdentifiers": {
    "CALLBACK_GAS_LIMIT()": "33d608f1",
    "CommonGemsCooldownPeriod()": "77f7e499",
    "CommonGemsMiningPeriod()": "c4d2fcae",
    "CommonGemsValue()": "58bf3e65",
    "CommonMiningFees()": "4f557d27",
    "DEFAULT_ADMIN_ROLE()": "a217fddf",
    "EpicGemsCooldownPeriod()": "efa2cc29",
    "EpicGemsMiningPeriod()": "5bbffab6",
    "EpicGemsValue()": "038a7e05",
    "EpicMiningFees()": "ce8ab5df",
    "GEMIndexToApproved(uint256)": "384c252f",
    "GEMIndexToOwner(uint256)": "97125c40",
    "Gems(uint256)": "61f7f6d7",
    "LegendaryGemsCooldownPeriod()": "8fddb065",
    "LegendaryGemsMiningPeriod()": "d7a46495",
    "LegendaryGemsValue()": "a0b2d41b",
    "LegendaryMiningFees()": "dffdae02",
    "MythicGemsCooldownPeriod()": "e4b7fddf",
    "MythicGemsMiningPeriod()": "139b63f3",
    "MythicGemsValue()": "3fb310a5",
    "MythicMiningFees()": "b211d958",
    "PAUSE_ROLE()": "389ed267",
    "RareGemsCooldownPeriod()": "b78417b0",
    "RareGemsMiningPeriod()": "0de32a97",
    "RareGemsValue()": "f66f9e34",
    "RareMiningFees()": "91490c4b",
    "TON_FEES_RATE_DIVIDER()": "08ec897d",
    "TREASURY_ROLE()": "d11a57ec",
    "UniqueGemsCooldownPeriod()": "1885cbbe",
    "UniqueGemsMiningPeriod()": "04e41a0b",
    "UniqueGemsValue()": "18898f36",
    "UniqueMiningFees()": "adf8627e",
    "addAdmin(address)": "70480275",
    "addBackgroundColor(string)": "1d0e0aac",
    "addColor(string)": "15341f2b",
    "addMinter(address)": "983b2d56",
    "adminTransferGEM(address,uint256)": "33158058",
    "aliveImplementation(address)": "550d01a3",
    "approve(address,uint256)": "095ea7b3",
    "backgroundColors(uint256)": "a8ce886e",
    "balanceOf(address)": "70a08231",
    "buyGem(uint256,bool)": "02424ed3",
    "claimMinedGEM(uint256)": "7fe6fde5",
    "colors(uint256)": "bd11f69d",
    "createGEM(uint8,uint8[2],uint8[4],string)": "975781b7",
    "createGEMPool(uint8[],uint8[2][],uint8[4][],string[])": "0ff1ac67",
    "customBackgroundColors(uint8)": "ecc5e06f",
    "customBackgroundColorsCount()": "0922f513",
    "customColors(uint8)": "6b1a96fa",
    "customColorsCount()": "034294f8",
    "forgeTokens(uint256[],uint8,uint8[2])": "33fcb648",
    "gemAllowedToAddress(uint256)": "119868bb",
    "gemFactory()": "a53225c0",
    "gemsForSale(uint256)": "9c41b42b",
    "getApproved(uint256)": "081812fc",
    "getCalculatedDirectFundingPrice(uint32)": "f5494bb9",
    "getCommonMiningFees()": "629296c5",
    "getCustomColor(uint8)": "aff2a463",
    "getGem(uint256)": "aa723bb7",
    "getRareMiningFees()": "fed7b27a",
    "getRoleAdmin(bytes32)": "248a9ca3",
    "getTon()": "2bbbe94d",
    "getTonFeesRate()": "a69c8fb2",
    "getTreasury()": "3b19e84a",
    "getUniqueMiningFees()": "8ba24af0",
    "getWston()": "e7a523c0",
    "grantRole(bytes32,address)": "2f2ff15d",
    "hasRole(bytes32,address)": "91d14854",
    "initialize(address,address,address,uint256,uint256,uint256,uint256,uint256,uint256,uint256,uint256,uint256,uint256,uint256,uint256)": "3189983f",
    "initialize(address,address,uint256,address,address)": "33e1a223",
    "isAdmin(address)": "24d7806c",
    "isApprovedForAll(address,address)": "e985e9c5",
    "isMinter(address)": "aa271e1a",
    "isOwner()": "8f32d59b",
    "isTokenLocked(uint256)": "276a28a3",
    "isUserMining(address)": "205fb1f8",
    "lastRequestId()": "fc2a88c3",
    "marketplace()": "abc8c7af",
    "meltGEM(uint256)": "f99a6bb5",
    "name()": "06fdde03",
    "numberOfSolidColors()": "724188bc",
    "ownerOf(uint256)": "6352211e",
    "ownerOfGEM(uint256)": "bd81009f",
    "ownershipTokenCount(address)": "cec21acb",
    "pause()": "8456cb59",
    "pauseProxy()": "63a8fd89",
    "paused()": "5c975abb",
    "preMintedGemsAvailable()": "c28fb6b7",
    "proxyImplementation(uint256)": "b911135f",
    "putGemForSale(uint256,uint256)": "2ede6432",
    "putGemListForSale(uint256[],uint256[])": "79dbd798",
    "rawFulfillRandomWords(uint256,uint256)": "37ed11db",
    "removeAdmin(address)": "1785f53c",
    "removeMinter(address)": "3092afd5",
    "renounceMinter()": "98650275",
    "renounceOwnership()": "715018a6",
    "renounceRole(bytes32,address)": "36568abe",
    "requestCount()": "5badbe4c",
    "requestIds(uint256)": "8796ba8c",
    "revokeMinter(address)": "cfbd4885",
    "revokeRole(bytes32,address)": "d547741f",
    "s_requests(uint256)": "a168fa89",
    "safeTransferFrom(address,address,uint256)": "42842e0e",
    "safeTransferFrom(address,address,uint256,bytes)": "b88d4fde",
    "selectorImplementation(bytes4)": "50d2a276",
    "setApprovalForAll(address,bool)": "a22cb465",
    "setApprovalForMarketplace()": "0491fd3e",
    "setDiscountRate(uint256)": "7c69febd",
    "setGemsCooldownPeriods(uint256,uint256,uint256,uint256,uint256,uint256)": "ad0d3d3f",
    "setGemsMiningPeriods(uint256,uint256,uint256,uint256,uint256,uint256)": "0c7254a0",
    "setIsLocked(uint256,bool)": "4d723a75",
    "setMarketPlaceAddress(address)": "cc98ef96",
    "setNumberOfSolidColors(uint8)": "9a66af62",
    "startMiningGEM(uint256)": "1da0fc9c",
    "supportsInterface(bytes4)": "01ffc9a7",
    "symbol()": "95d89b41",
    "tokenMiningByUser(address)": "c1389072",
    "tokenReadyToMine(uint256)": "7866369b",
    "tokenURI(uint256)": "c87b56dd",
    "tokensOfOwner(address)": "8462151c",
    "ton()": "cc48b947",
    "tonFeesRate()": "12788619",
    "totalSupply()": "18160ddd",
    "transferAdmin(address)": "75829def",
    "transferFrom(address,address,uint256)": "23b872dd",
    "transferGEM(address,uint256)": "337d54a1",
    "transferGEMFrom(address,address,uint256)": "d6bb7ba0",
    "transferOwnership(address)": "f2fde38b",
    "treasury()": "61d027b3",
    "unpause()": "3f4ba83a",
    "userMiningStartTime(address,uint256)": "676f79f1",
    "userMiningToken(address,uint256)": "a1770a7d",
    "wston()": "36b17e13"
  },
  "id": 56
}