{
  "abi": [
    {
      "type": "constructor",
      "inputs": [],
      "stateMutability": "nonpayable"
    },
    {
      "type": "function",
      "name": "DECIMALS",
      "inputs": [],
      "outputs": [
        {
          "name": "",
          "type": "uint256",
          "internalType": "uint256"
        }
      ],
      "stateMutability": "view"
    },
    {
      "type": "function",
      "name": "TON_FEES_RATE_DIVIDER",
      "inputs": [],
      "outputs": [
        {
          "name": "",
          "type": "uint256",
          "internalType": "uint256"
        }
      ],
      "stateMutability": "view"
    },
    {
      "type": "function",
      "name": "buyCommonGem",
      "inputs": [],
      "outputs": [
        {
          "name": "newTokenId",
          "type": "uint256",
          "internalType": "uint256"
        }
      ],
      "stateMutability": "nonpayable"
    },
    {
      "type": "function",
      "name": "buyGem",
      "inputs": [
        {
          "name": "_tokenId",
          "type": "uint256",
          "internalType": "uint256"
        },
        {
          "name": "_paymentMethod",
          "type": "bool",
          "internalType": "bool"
        }
      ],
      "outputs": [],
      "stateMutability": "nonpayable"
    },
    {
      "type": "function",
      "name": "commonGemTokenUri",
      "inputs": [],
      "outputs": [
        {
          "name": "",
          "type": "string",
          "internalType": "string"
        }
      ],
      "stateMutability": "view"
    },
    {
      "type": "function",
      "name": "gemFactory",
      "inputs": [],
      "outputs": [
        {
          "name": "",
          "type": "address",
          "internalType": "address"
        }
      ],
      "stateMutability": "view"
    },
    {
      "type": "function",
      "name": "gemsForSale",
      "inputs": [
        {
          "name": "",
          "type": "uint256",
          "internalType": "uint256"
        }
      ],
      "outputs": [
        {
          "name": "seller",
          "type": "address",
          "internalType": "address"
        },
        {
          "name": "price",
          "type": "uint256",
          "internalType": "uint256"
        },
        {
          "name": "isActive",
          "type": "bool",
          "internalType": "bool"
        }
      ],
      "stateMutability": "view"
    },
    {
      "type": "function",
      "name": "getGemFactory",
      "inputs": [],
      "outputs": [
        {
          "name": "",
          "type": "address",
          "internalType": "address"
        }
      ],
      "stateMutability": "view"
    },
    {
      "type": "function",
      "name": "getTonFeesRate",
      "inputs": [],
      "outputs": [
        {
          "name": "",
          "type": "uint256",
          "internalType": "uint256"
        }
      ],
      "stateMutability": "view"
    },
    {
      "type": "function",
      "name": "initialize",
      "inputs": [
        {
          "name": "_treasury",
          "type": "address",
          "internalType": "address"
        },
        {
          "name": "_gemfactory",
          "type": "address",
          "internalType": "address"
        },
        {
          "name": "_tonFeesRate",
          "type": "uint256",
          "internalType": "uint256"
        },
        {
          "name": "_wston",
          "type": "address",
          "internalType": "address"
        },
        {
          "name": "_ton",
          "type": "address",
          "internalType": "address"
        }
      ],
      "outputs": [],
      "stateMutability": "nonpayable"
    },
    {
      "type": "function",
      "name": "owner",
      "inputs": [],
      "outputs": [
        {
          "name": "",
          "type": "address",
          "internalType": "address"
        }
      ],
      "stateMutability": "view"
    },
    {
      "type": "function",
      "name": "paused",
      "inputs": [],
      "outputs": [
        {
          "name": "",
          "type": "bool",
          "internalType": "bool"
        }
      ],
      "stateMutability": "view"
    },
    {
      "type": "function",
      "name": "putGemForSale",
      "inputs": [
        {
          "name": "_tokenId",
          "type": "uint256",
          "internalType": "uint256"
        },
        {
          "name": "_price",
          "type": "uint256",
          "internalType": "uint256"
        }
      ],
      "outputs": [],
      "stateMutability": "nonpayable"
    },
    {
      "type": "function",
      "name": "putGemListForSale",
      "inputs": [
        {
          "name": "tokenIds",
          "type": "uint256[]",
          "internalType": "uint256[]"
        },
        {
          "name": "prices",
          "type": "uint256[]",
          "internalType": "uint256[]"
        }
      ],
      "outputs": [],
      "stateMutability": "nonpayable"
    },
    {
      "type": "function",
      "name": "removeGemForSale",
      "inputs": [
        {
          "name": "_tokenId",
          "type": "uint256",
          "internalType": "uint256"
        }
      ],
      "outputs": [],
      "stateMutability": "nonpayable"
    },
    {
      "type": "function",
      "name": "renounceOwnership",
      "inputs": [],
      "outputs": [],
      "stateMutability": "nonpayable"
    },
    {
      "type": "function",
      "name": "setCommonGemTokenUri",
      "inputs": [
        {
          "name": "_tokenURI",
          "type": "string",
          "internalType": "string"
        }
      ],
      "outputs": [],
      "stateMutability": "nonpayable"
    },
    {
      "type": "function",
      "name": "setDiscountRate",
      "inputs": [
        {
          "name": "_tonFeesRate",
          "type": "uint256",
          "internalType": "uint256"
        }
      ],
      "outputs": [],
      "stateMutability": "nonpayable"
    },
    {
      "type": "function",
      "name": "setStakingIndex",
      "inputs": [
        {
          "name": "_stakingIndex",
          "type": "uint256",
          "internalType": "uint256"
        }
      ],
      "outputs": [],
      "stateMutability": "nonpayable"
    },
    {
      "type": "function",
      "name": "stakingIndex",
      "inputs": [],
      "outputs": [
        {
          "name": "",
          "type": "uint256",
          "internalType": "uint256"
        }
      ],
      "stateMutability": "view"
    },
    {
      "type": "function",
      "name": "ton",
      "inputs": [],
      "outputs": [
        {
          "name": "",
          "type": "address",
          "internalType": "address"
        }
      ],
      "stateMutability": "view"
    },
    {
      "type": "function",
      "name": "tonFeesRate",
      "inputs": [],
      "outputs": [
        {
          "name": "",
          "type": "uint256",
          "internalType": "uint256"
        }
      ],
      "stateMutability": "view"
    },
    {
      "type": "function",
      "name": "transferOwnership",
      "inputs": [
        {
          "name": "newOwner",
          "type": "address",
          "internalType": "address"
        }
      ],
      "outputs": [],
      "stateMutability": "nonpayable"
    },
    {
      "type": "function",
      "name": "treasury",
      "inputs": [],
      "outputs": [
        {
          "name": "",
          "type": "address",
          "internalType": "address"
        }
      ],
      "stateMutability": "view"
    },
    {
      "type": "function",
      "name": "wston",
      "inputs": [],
      "outputs": [
        {
          "name": "",
          "type": "address",
          "internalType": "address"
        }
      ],
      "stateMutability": "view"
    },
    {
      "type": "event",
      "name": "GemBought",
      "inputs": [
        {
          "name": "tokenId",
          "type": "uint256",
          "indexed": false,
          "internalType": "uint256"
        },
        {
          "name": "payer",
          "type": "address",
          "indexed": false,
          "internalType": "address"
        },
        {
          "name": "seller",
          "type": "address",
          "indexed": false,
          "internalType": "address"
        },
        {
          "name": "amount",
          "type": "uint256",
          "indexed": false,
          "internalType": "uint256"
        }
      ],
      "anonymous": false
    },
    {
      "type": "event",
      "name": "GemForSale",
      "inputs": [
        {
          "name": "tokenId",
          "type": "uint256",
          "indexed": false,
          "internalType": "uint256"
        },
        {
          "name": "seller",
          "type": "address",
          "indexed": false,
          "internalType": "address"
        },
        {
          "name": "price",
          "type": "uint256",
          "indexed": false,
          "internalType": "uint256"
        }
      ],
      "anonymous": false
    },
    {
      "type": "event",
      "name": "GemRemovedFromSale",
      "inputs": [
        {
          "name": "tokenId",
          "type": "uint256",
          "indexed": false,
          "internalType": "uint256"
        }
      ],
      "anonymous": false
    },
    {
      "type": "event",
      "name": "OwnershipTransferred",
      "inputs": [
        {
          "name": "previousOwner",
          "type": "address",
          "indexed": true,
          "internalType": "address"
        },
        {
          "name": "newOwner",
          "type": "address",
          "indexed": true,
          "internalType": "address"
        }
      ],
      "anonymous": false
    },
    {
      "type": "event",
      "name": "SetDiscountRate",
      "inputs": [
        {
          "name": "discountRate",
          "type": "uint256",
          "indexed": false,
          "internalType": "uint256"
        }
      ],
      "anonymous": false
    },
    {
      "type": "event",
      "name": "WSTONClaimed",
      "inputs": [
        {
          "name": "tokenId",
          "type": "uint256",
          "indexed": false,
          "internalType": "uint256"
        },
        {
          "name": "claimer",
          "type": "address",
          "indexed": false,
          "internalType": "address"
        }
      ],
      "anonymous": false
    },
    {
      "type": "error",
      "name": "AddressEmptyCode",
      "inputs": [
        {
          "name": "target",
          "type": "address",
          "internalType": "address"
        }
      ]
    },
    {
      "type": "error",
      "name": "AddressInsufficientBalance",
      "inputs": [
        {
          "name": "account",
          "type": "address",
          "internalType": "address"
        }
      ]
    },
    {
      "type": "error",
      "name": "FailedInnerCall",
      "inputs": []
    },
    {
      "type": "error",
      "name": "OwnableInvalidOwner",
      "inputs": [
        {
          "name": "owner",
          "type": "address",
          "internalType": "address"
        }
      ]
    },
    {
      "type": "error",
      "name": "OwnableUnauthorizedAccount",
      "inputs": [
        {
          "name": "account",
          "type": "address",
          "internalType": "address"
        }
      ]
    },
    {
      "type": "error",
      "name": "ReentrancyGuardReentrantCall",
      "inputs": []
    },
    {
      "type": "error",
      "name": "SafeERC20FailedOperation",
      "inputs": [
        {
          "name": "token",
          "type": "address",
          "internalType": "address"
        }
      ]
    }
  ],
  "bytecode": {
    "object": "0x60806040523461002257610011610027565b604051612616610226823961261690f35b600080fd5b61003033610074565b565b61004261003f61003f9290565b90565b6001600160a01b031690565b61003f90610032565b61006090610042565b9052565b6020810192916100309190610057565b61007c6100ce565b610086600061004e565b61008f81610042565b61009883610042565b146100a75750610030906101ce565b6100ca906100b460405190565b631e4fbdf760e01b815291829160048301610064565b0390fd5b610030610118565b61003f61003f61003f9290565b61003f60016100d6565b90600019905b9181191691161790565b9061010d61003f610114926100d6565b82546100ed565b9055565b610120610157565b61003061012b6100e3565b60096100fd565b9060ff906100f3565b151590565b9061015061003f6101149261013b565b8254610132565b610163600160076100fd565b61003060006008610140565b61003f90610042565b61003f905461016f565b906001600160a01b03906100f3565b61003f90610042906001600160a01b031682565b61003f90610191565b61003f906101a5565b906101c761003f610114926101ae565b8254610182565b6101f46101ee6101de600a610178565b6101e984600a6101b7565b6101ae565b916101ae565b907f8be0079c531659141344cd1fd0a4f28419497f9722a3daafe3b4186f6b6457e061021f60405190565b600090a356fe6080604052600436101561001257600080fd5b60003560e01c806302424ed3146101a257806308ec897d1461019d57806312788619146101985780632e0f2625146101935780632ede64321461018e57806330f5085914610189578063333609681461018457806333e1a2231461017f57806336b17e131461017a5780635c975abb1461017557806361d027b314610170578063715018a61461016b5780637525e5261461016657806379dbd798146101615780637c69febd1461015c5780638da5cb5b146101575780639c41b42b14610152578063a27682ef1461014d578063a53225c014610148578063a69c8fb214610143578063adad69261461013e578063cc48b94714610139578063ce49a36014610134578063f00fe4fd1461012f5763f2fde38b036101a757610a71565b610a42565b610a2a565b610a0f565b6109eb565b6109d0565b6109b5565b610991565b6108d3565b61080d565b6107f5565b6107c8565b6106cb565b6106b3565b610698565b61065f565b610604565b6105bd565b610522565b610337565b610312565b6102d4565b61029c565b61024f565b6101ff565b600080fd5b805b036101a757565b905035906101c2826101ac565b565b8015156101ae565b905035906101c2826101c4565b91906040838203126101a7576101fc9060206101f582866101b5565b94016101cc565b90565b346101a7576102186102123660046101d9565b90610b0a565b604051005b0390f35b60009103126101a757565b6101fc6101fc6101fc9290565b6101fc606461022c565b6101fc610239565b9052565b346101a75761025f366004610221565b61021d61026a610243565b6040519182918290815260200190565b6101fc916008021c81565b906101fc915461027a565b6101fc60006001610285565b346101a7576102ac366004610221565b61021d61026a610290565b6101fc6b033b2e3c9fd0803ce800000061022c565b6101fc6102b7565b346101a7576102e4366004610221565b61021d61026a6102cc565b91906040838203126101a7576101fc90602061030b82866101b5565b94016101b5565b346101a7576102186103253660046102ef565b90610cd0565b6101fc60006007610285565b346101a757610347366004610221565b61021d61026a61032b565b634e487b7160e01b600052600060045260246000fd5b634e487b7160e01b600052602260045260246000fd5b906001600283049216801561039e575b602083101461039957565b610368565b91607f169161038e565b805460009392916103c56103bb8361037e565b8085529360200190565b916001811690811561041757506001146103de57505050565b6103f19192939450600052602060002090565b916000925b8184106104035750500190565b8054848401526020909301926001016103f6565b92949550505060ff1916825215156020020190565b906101fc916103a8565b634e487b7160e01b600052604160045260246000fd5b90601f01601f1916810190811067ffffffffffffffff82111761046e57604052565b610436565b906101c261048d9261048460405190565b9384809261042c565b038361044c565b906000106104a5576101fc90610473565b610352565b6101fc60006006610494565b60005b8381106104c95750506000910152565b81810151838201526020016104b9565b6104fa61050360209361050d936104ee815190565b80835293849260200190565b958691016104b6565b601f01601f191690565b0190565b60208082526101fc929101906104d9565b346101a757610532366004610221565b61021d61053d6104aa565b60405191829182610511565b6001600160a01b031690565b6001600160a01b0381166101ae565b905035906101c282610555565b919060a0838203126101a7576105878184610564565b926105958260208301610564565b926101fc6105a684604085016101b5565b9360806105b68260608701610564565b9401610564565b346101a7576102186105d0366004610571565b93929092610eb6565b6101fc916008021c6001600160a01b031690565b906101fc91546105d9565b6101fc600060046105ed565b346101a757610614366004610221565b61021d61061f6105f8565b604051918291826001600160a01b03909116815260200190565b6101fc916008021c5b60ff1690565b906101fc9154610639565b6101fc60006008610648565b346101a75761066f366004610221565b61021d61067a610653565b60405191829182901515815260200190565b6101fc600060036105ed565b346101a7576106a8366004610221565b61021d61061f61068c565b346101a7576106c3366004610221565b610218610efb565b346101a7576106db366004610221565b61021d61026a6112ee565b906101c26106f360405190565b928361044c565b67ffffffffffffffff811161046e5760208091020190565b90929192610727610722826106fa565b6106e6565b93818552602080860192028301928184116101a757915b83831061074b5750505050565b6020809161075984866101b5565b81520192019161073e565b9080601f830112156101a7578160206101fc93359101610712565b9190916040818403126101a757803567ffffffffffffffff81116101a757836107a9918301610764565b92602082013567ffffffffffffffff81116101a7576101fc9201610764565b346101a7576102186107db36600461077f565b906114d8565b906020828203126101a7576101fc916101b5565b346101a7576102186108083660046107e1565b611530565b346101a75761081d366004610221565b61021d61061f611539565b906108329061022c565b600052602052604060002090565b6101fc90610549565b6101fc9054610840565b6101fc9081565b6101fc9054610853565b6101fc90610642565b6101fc9054610864565b610882906000610828565b61088b81610849565b916101fc600261089d6001850161085a565b930161086d565b6001600160a01b0390911681526060810193926101c29290916040916108cb906020830152565b019015159052565b346101a75761021d6108ee6108e93660046107e1565b610877565b604051919391938493846108a4565b67ffffffffffffffff811161046e57602090601f01601f19160190565b90826000939282370152565b90929192610936610722826108fd565b93818552818301116101a7576101c291602085019061091a565b9080601f830112156101a7578160206101fc93359101610926565b906020828203126101a757813567ffffffffffffffff81116101a7576101fc9201610950565b346101a7576102186109a436600461096b565b61163c565b6101fc600060026105ed565b346101a7576109c5366004610221565b61021d61061f6109a9565b346101a7576109e0366004610221565b61021d61026a611645565b346101a7576102186109fe3660046107e1565b61188e565b6101fc600060056105ed565b346101a757610a1f366004610221565b61021d61061f610a03565b346101a757610218610a3d3660046107e1565b611934565b346101a757610a52366004610221565b61021d61061f61193d565b906020828203126101a7576101fc91610564565b346101a757610218610a84366004610a5d565b6119b1565b15610a9057565b60405162461bcd60e51b815260206004820152601060248201526f14185d5cd8589b194e881c185d5cd95960821b6044820152606490fd5b0390fd5b906101c291610aea610ae5610ae1600861086d565b1590565b610a89565b610af6565b156101a757565b6101c291610b05913390611fb0565b610aef565b906101c291610acc565b906101c291610b29610ae5610ae1600861086d565b610c19565b6101fc90610549906001600160a01b031682565b6101fc90610b2e565b6101fc90610b42565b905051906101c282610555565b906020828203126101a7576101fc91610b54565b6040513d6000823e3d90fd5b15610b8857565b60405162461bcd60e51b815260206004820152601760248201527f746865204e4654206973206e6f7420617070726f7665640000000000000000006044820152606490fd5b15610bd457565b60405162461bcd60e51b815260206004820152601a60248201527f6661696c656420746f207075742067656d20666f722073616c650000000000006044820152606490fd5b610c2e610c29610c296002610849565b610b4b565b916020610c3a60405190565b63020604bf60e21b81526004810184905293849060249082905afa918215610ccb57610c92610c97936101c295600091610c9c575b50610c8c610c7f61054930610b4b565b916001600160a01b031690565b14610b81565b6120db565b610bcd565b610cbe915060203d602011610cc4575b610cb6818361044c565b810190610b61565b38610c6f565b503d610cac565b610b75565b906101c291610b14565b906101c294939291610cea612294565b610e61565b15610cf657565b60405162461bcd60e51b8152602060048201526024808201527f646973636f756e742072617465206d757374206265206c657373207468616e206044820152633130302560e01b6064820152608490fd5b90600019905b9181191691161790565b90610d676101fc610d6e9261022c565b8254610d47565b9055565b906001600160a01b0390610d4d565b90610d916101fc610d6e92610b4b565b8254610d72565b9160001960089290920291821b911b610d4d565b9190610dbd6101fc610d6e9361022c565b908354610d98565b6101c291600091610dac565b818110610ddc575050565b80610dea6000600193610dc5565b01610dd1565b9190601f8111610dff57505050565b610e116101c293600052602060002090565b906020601f840181900483019310610e33575b6020601f909101040190610dd1565b9091508190610e24565b610e526000610e4c835461037e565b83610df0565b60009055565b6101c290610e3d565b610e9e90610e97610eac969593610e90610ea596610e89610e82606461022c565b8210610cef565b6001610d57565b6002610d81565b6003610d81565b6004610d81565b6005610d81565b6101c26006610e58565b906101c294939291610cda565b610ecb612294565b6101c2610ee9565b6105496101fc6101fc9290565b6101fc90610ed3565b6101c2610ef66000610ee0565b6122e0565b6101c2610ec3565b6101fc90610f17610ae5610ae1600861086d565b611118565b905051906101c2826101ac565b906020828203126101a7576101fc91610f1c565b67ffffffffffffffff811161046e5760200290565b6107226101fc91610f3d565b6106426101fc6101fc9290565b634e487b7160e01b600052602160045260246000fd5b60061115610f8b57565b610f6b565b906101c282610f81565b6101fc90610f90565b61024b90610f9a565b610fbc610fb860029390565b9190565b6000915b838310610fcd5750505050565b610fea610fe3600192845160ff16815260200190565b9260200190565b92019190610fc0565b610fff610fb860049390565b6000915b8383106110105750505050565b611026610fe3600192845160ff16815260200190565b92019190611003565b805460009392916110426103bb8361037e565b9160018116908115610417575060011461105b57505050565b61106e9192939450600052602060002090565b916000925b8184106110805750500190565b805484840152602090930192600101611073565b90926110c9906110bf6101fc96946110b56101008601976000870190610fa3565b6020850190610fac565b6060830190610ff3565b60e081840391015261102f565b905051906101c2826101c4565b906020828203126101a7576101fc916110d6565b6001600160a01b0390911681526040810192916101c29160200152565b0152565b50611129610c29610c296002610849565b90602061113560405190565b63d55486d360e01b815292839060049082905afa918215610ccb5761121092611180916000916112cf575b5061116e610c296004610849565b6111786003610849565b903390612358565b611190610c29610c296003610849565b602060066000926111a16002610f52565b6111bc6111ad86610f5e565b60ff1686830181905285830152565b846111c76004610f52565b916111f26111d56001610f5e565b60ff16838501819052878501819052604085018190526060850152565b6040519889958694859363912b431b60e01b85528560048601611094565b03925af1928315610ccb57819361129e575b508060206112608561123a610c29610c296003610849565b9061124460405190565b958693849283919063048dbcef60e41b835233600484016110f7565b03925af1908115610ccb57506112735750565b6112949060203d602011611297575b61128c818361044c565b8101906110e3565b50565b503d611282565b6112c191935060203d6020116112c8575b6112b9818361044c565b810190610f29565b9138611222565b503d6112af565b6112e8915060203d6020116112c8576112b9818361044c565b38611160565b6101fc6000610f03565b906101c29161130d610ae5610ae1600861086d565b6113ba565b1561131957565b60405162461bcd60e51b81526020600482015260096024820152686e6f20746f6b656e7360b81b6044820152606490fd5b1561135157565b60405162461bcd60e51b815260206004820152600c60248201526b0eee4dedcce40d8cadccee8d60a31b6044820152606490fd5b634e487b7160e01b600052603260045260246000fd5b906113a4825190565b8110156113b5576020809102010190565b611385565b80516113d66000916113cf610fb8600061022c565b1415611312565b6113f56113e1835190565b6113ef610fb86101fc875190565b1461134a565b6113ff600061022c565b61140a6101fc845190565b8110156114d257611460906020611427610c29610c296002610849565b611438611434848861139b565b5190565b9061144260405190565b9485928391829163020604bf60e21b83526004830190815260200190565b03915afa918215610ccb576114b5926114899185916114ba5750610c8c610c7f61054930610b4b565b6114af610c9761149c611434848861139b565b6114a9611434858a61139b565b906120db565b60010190565b6113ff565b610cbe915060203d8111610cc457610cb6818361044c565b50505050565b906101c2916112f8565b6101c2906114ee612294565b61152b7f21a8eefc17e9c864964b5a4c0769d87f39cc0a7576773159e12358bc0095ffc591611520610e82606461022c565b61026a816001610d57565b0390a1565b6101c2906114e2565b6101fc600a610849565b6101c29061154f612294565b611631565b9061155d815190565b9067ffffffffffffffff821161046e576115818261157b855461037e565b85610df0565b602090601f83116001146115bc57610d6e9291600091836115b1575b5050600019600883021c1916906002021790565b01519050388061159d565b601f198316916115d185600052602060002090565b9260005b81811061160f575091600293918560019694106115f6575b50505002019055565b01516000196008601f8516021c191690553880806115ed565b919360206001819287870151815501950192016115d5565b906101c291611554565b6101c2906006611627565b6101c290611543565b6101fc600161085a565b6101c290611663610ae5610ae1600861086d565b611736565b1561166f57565b60405162461bcd60e51b815260206004820152601360248201527247656d206973206e6f7420666f722073616c6560681b6044820152606490fd5b156116b157565b60405162461bcd60e51b815260206004820152601860248201527f4e6f7420746865206f776e6572206f66207468652047454d00000000000000006044820152606490fd5b9081526040810192916101c2916020906108cb565b6000808255906002906117218360018301610dc5565b0155565b906000036104a5576101c29061170b565b600090611763611751600261174b8486610828565b0161086d565b61175d60015b91151590565b14611668565b611773610c29610c296002610849565b602061177e60405190565b6331a9108f60e11b81526004810184905291829060249082905afa8015610ccb576117ba91849161186f575b506117b433610c7f565b146116aa565b6117ca610c29610c296002610849565b90813b156101a757826117dc60405190565b928390634d723a7560e01b82528183816117fa8288600484016116f6565b03925af18015610ccb577f05e530d2932a31001c9cde048b350c93ce3ffea36cf640e4473b8da9e62ac1bb9361152b9361026a92611843575b5061183e8382610828565b611725565b61186290823d8411611868575b61185a818361044c565b810190610221565b38611833565b503d611850565b611888915060203d602011610cc457610cb6818361044c565b386117aa565b6101c29061164f565b6101c2906118a3612294565b611908565b156118af57565b60405162461bcd60e51b815260206004820152602b60248201527f7374616b696e6720696e646578206d7573742062652067726561746572206f7260448201526a20657175616c20746f203160a81b6064820152608490fd5b6101c29061192d611919600761085a565b611926610fb8600161022c565b10156118a8565b6007610d57565b6101c290611897565b6101fc6002610849565b6101c290611953612294565b61195d6000610ee0565b6001600160a01b0381166001600160a01b0383161461198057506101c2906122e0565b610ac89061198d60405190565b631e4fbdf760e01b8152918291600483016001600160a01b03909116815260200190565b6101c290611947565b906119ce9392916119c96123ac565b611bb2565b906101c26123ec565b156119de57565b60405162461bcd60e51b815260206004820152600c60248201526b7a65726f206164647265737360a01b6044820152606490fd5b15611a1957565b60405162461bcd60e51b815260206004820152600c60248201526b6e6f7420666f722073616c6560a01b6044820152606490fd5b15611a5457565b60405162461bcd60e51b815260206004820152600b60248201526a77726f6e6720707269636560a81b6044820152606490fd5b15611a8e57565b60405162461bcd60e51b815260206004820152600c60248201526b3bb937b7339039b2b63632b960a11b6044820152606490fd5b634e487b7160e01b600052601160045260246000fd5b81810292918115918404141715611aeb57565b611ac2565b634e487b7160e01b600052601260045260246000fd5b8115611b10570490565b611af0565b91908201809211611aeb57565b6001600160a01b0390911681526060810193926101c2929091604091611114905b6001600160a01b03166020830152565b9060ff90610d4d565b90611b6c6101fc610d6e92151590565b8254611b53565b6111146101c294611ba2606094989795611b92608086019a6000870152565b6001600160a01b03166020850152565b6001600160a01b03166040830152565b506000611bbe81610ee0565b93611bdd6001600160a01b0386166001600160a01b03861614156119d7565b611bf4611bef600261174b8686610828565b611a12565b611c096001611c038585610828565b0161085a565b90611c1e611c168461022c565b831415611a4d565b611c56611c45611c3885611c328882610828565b01610849565b976001600160a01b031690565b6001600160a01b0388161415611a87565b15611dee57611c6b610c29610c296004610849565b6020611c7660405190565b9182906323b872dd60e01b8252818681611c95888d8d60048501611b22565b03925af18015610ccb57611dd1575b505b611cbc826002611cb68683610828565b01611b5c565b611ccc610c29610c296002610849565b803b156101a75782611cdd60405190565b918290634d723a7560e01b8252818381611cfb828b600484016116f6565b03925af18015610ccb57611db5575b50611d1b610c29610c296002610849565b94853b156101a75782611d2d60405190565b9687906323b872dd60e01b8252818381611d4c8a8c8960048501611b22565b03925af1928315610ccb577f429a311c86d807d248190c8540973d38711c40cabad4c6266ef4b9a7ae6cdc3c96611d9094611d98575b505060405194859485611b73565b0390a1600190565b81611dae92903d106118685761185a818361044c565b3880611d82565b611dcb90833d85116118685761185a818361044c565b38611d0a565b611de99060203d6020116112975761128c818361044c565b611ca4565b611e41611e3c611e18611e0a611e04600761085a565b85611ad8565b611e126102b7565b90611b06565b611e36611e2e611e28600161085a565b83611ad8565b611e12610239565b90611b15565b6123fe565b611e8e6020611e56610c29610c296005610849565b926323b872dd93611e676003610849565b878a611e7260405190565b96879586948593611e838c60e01b90565b855260048501611b22565b03925af18015610ccb57611f93575b50611eab6105496003610849565b6001600160a01b03871603611ec1575b50611ca6565b611ed1610c29610c296003610849565b90813b156101a75783611ee360405190565b63081cb0a960e31b815260048101859052928390602490829084905af1908115610ccb578792602092611f77575b50611f22610c29610c296004610849565b611e8386611f306003610849565b93611f4b88611f3e60405190565b9889978896879560e01b90565b03925af18015610ccb5715611ebb57611f729060203d6020116112975761128c818361044c565b611ebb565b611f8d90863d88116118685761185a818361044c565b38611f11565b611fab9060203d6020116112975761128c818361044c565b611e9d565b6101fc92919060006119ba565b15611fc457565b60405162461bcd60e51b815260206004820152601f60248201527f5072696365206d7573742062652067726561746572207468616e207a65726f006044820152606490fd5b1561201057565b60405162461bcd60e51b815260206004820152602160248201527f47656d20697320616c726561647920666f722073616c65206f72206d696e696e6044820152606760f81b6064820152608490fd5b6101fc60606106e6565b60026120af60406101c29461209161208b60008301516001600160a01b031690565b86610d81565b6120a861209f602083015190565b60018701610d57565b0151151590565b9101611b5c565b906101c291612069565b9081526060810193926101c292909160409161111490611b43565b906120ec610c29610c296002610849565b60206120f760405190565b6331a9108f60e11b81526004810185905291829060249082905afa8015610ccb5761212d9160009161186f57506117b433610c7f565b60009161214361213c8461022c565b8311611fbd565b612153610c29610c296002610849565b602061215e60405190565b63276a28a360e01b81526004810184905291829060249082905afa8015610ccb5761219c918591612275575b50612196851515611757565b14612009565b6121ac610c29610c296002610849565b92833b156101a757806121be60405190565b948590634d723a7560e01b82528183816121dd600189600484016116f6565b03925af1908115610ccb577f8b8052dfcc72d6fc28cd795f60661e1a701f185ce78c06a47b2ac29357d6ef8b9461224292612259575b5061223d8361222061205f565b338482015292612231876020860152565b60016040850152610828565b6120b6565b611d9061224e60405190565b9283923390846120c0565b61226f90823d84116118685761185a818361044c565b38612213565b61228e915060203d6020116112975761128c818361044c565b3861218a565b61229c611539565b33906122a782610c7f565b036122af5750565b610ac8906122bc60405190565b63118cdaa760e01b8152918291600483016001600160a01b03909116815260200190565b6123016122fb6122f0600a610849565b610c2984600a610d81565b91610b4b565b907f8be0079c531659141344cd1fd0a4f28419497f9722a3daafe3b4186f6b6457e061232c60405190565b600090a3565b61234b6123456101fc9263ffffffff1690565b60e01b90565b6001600160e01b03191690565b9061239d9061238e6101c2956004956123746323b872dd612332565b9361237e60405190565b9788956020870190815201611b22565b6020820181038252038361044c565b61240f565b6101fc600261022c565b6123b6600961085a565b6123be6123a2565b9081146123d0576101c2906009610d57565b604051633ee5aeb560e01b8152600490fd5b6101fc600161022c565b6101c26123f76123e2565b6009610d57565b6101fc90611e12633b9aca0061022c565b61241b61242291610b4b565b9182612497565b8051612431610fb8600061022c565b14159081612473575b506124425750565b610ac89061244f60405190565b635274afe760e01b8152918291600483016001600160a01b03909116815260200190565b6124919150806020612486610ae1935190565b8183010191016110e3565b3861243a565b6101fc916124a5600061022c565b916124dc565b906124b8610722836108fd565b918252565b3d156124d7576124cc3d6124ab565b903d6000602084013e565b606090565b916124e630610b4b565b818131106125105750600082819260206101fc969551920190855af161250a6124bd565b91612541565b610ac89061251d60405190565b63cd78605960e01b8152918291600483016001600160a01b03909116815260200190565b9061254c57506125b1565b815161255b610fb8600061022c565b148061259b575b61256a575090565b610ac89061257760405190565b639996b31560e01b8152918291600483016001600160a01b03909116815260200190565b50803b6125ab610fb8600061022c565b14612562565b80516125c0610fb8600061022c565b11156125ce57805190602001fd5b604051630a12f52160e11b8152600490fdfea26469706673582212204a8f3e7000fad1624f0c63355fe3d81e06e7ed3506709d9c44be183a8f21b55b64736f6c63430008190033",
    "linkReferences": {}
  },
  "methodIdentifiers": {
    "DECIMALS()": "2e0f2625",
    "TON_FEES_RATE_DIVIDER()": "08ec897d",
    "buyCommonGem()": "7525e526",
    "buyGem(uint256,bool)": "02424ed3",
    "commonGemTokenUri()": "33360968",
    "gemFactory()": "a53225c0",
    "gemsForSale(uint256)": "9c41b42b",
    "getGemFactory()": "f00fe4fd",
    "getTonFeesRate()": "a69c8fb2",
    "initialize(address,address,uint256,address,address)": "33e1a223",
    "owner()": "8da5cb5b",
    "paused()": "5c975abb",
    "putGemForSale(uint256,uint256)": "2ede6432",
    "putGemListForSale(uint256[],uint256[])": "79dbd798",
    "removeGemForSale(uint256)": "adad6926",
    "renounceOwnership()": "715018a6",
    "setCommonGemTokenUri(string)": "a27682ef",
    "setDiscountRate(uint256)": "7c69febd",
    "setStakingIndex(uint256)": "ce49a360",
    "stakingIndex()": "30f50859",
    "ton()": "cc48b947",
    "tonFeesRate()": "12788619",
    "transferOwnership(address)": "f2fde38b",
    "treasury()": "61d027b3",
    "wston()": "36b17e13"
  },
  "id": 90
}