{
  "abi": [
    {
      "type": "constructor",
      "inputs": [
        {
          "name": "coordinator",
          "type": "address",
          "internalType": "address"
        }
      ],
      "stateMutability": "nonpayable"
    },
    {
      "type": "function",
      "name": "CALLBACK_GAS_LIMIT",
      "inputs": [],
      "outputs": [
        {
          "name": "",
          "type": "uint32",
          "internalType": "uint32"
        }
      ],
      "stateMutability": "view"
    },
    {
      "type": "function",
      "name": "CommonMiningFees",
      "inputs": [],
      "outputs": [
        {
          "name": "",
          "type": "uint256",
          "internalType": "uint256"
        }
      ],
      "stateMutability": "view"
    },
    {
      "type": "function",
      "name": "DEFAULT_ADMIN_ROLE",
      "inputs": [],
      "outputs": [
        {
          "name": "",
          "type": "bytes32",
          "internalType": "bytes32"
        }
      ],
      "stateMutability": "view"
    },
    {
      "type": "function",
      "name": "EpicMiningFees",
      "inputs": [],
      "outputs": [
        {
          "name": "",
          "type": "uint256",
          "internalType": "uint256"
        }
      ],
      "stateMutability": "view"
    },
    {
      "type": "function",
      "name": "GEMIndexToApproved",
      "inputs": [
        {
          "name": "",
          "type": "uint256",
          "internalType": "uint256"
        }
      ],
      "outputs": [
        {
          "name": "",
          "type": "address",
          "internalType": "address"
        }
      ],
      "stateMutability": "view"
    },
    {
      "type": "function",
      "name": "GEMIndexToOwner",
      "inputs": [
        {
          "name": "",
          "type": "uint256",
          "internalType": "uint256"
        }
      ],
      "outputs": [
        {
          "name": "",
          "type": "address",
          "internalType": "address"
        }
      ],
      "stateMutability": "view"
    },
    {
      "type": "function",
      "name": "Gems",
      "inputs": [
        {
          "name": "",
          "type": "uint256",
          "internalType": "uint256"
        }
      ],
      "outputs": [
        {
          "name": "tokenId",
          "type": "uint256",
          "internalType": "uint256"
        },
        {
          "name": "rarity",
          "type": "uint8",
          "internalType": "enum GemFactoryStorage.Rarity"
        },
        {
          "name": "color",
          "type": "uint8",
          "internalType": "uint8"
        },
        {
          "name": "gemCooldownPeriod",
          "type": "uint256",
          "internalType": "uint256"
        },
        {
          "name": "miningPeriod",
          "type": "uint256",
          "internalType": "uint256"
        },
        {
          "name": "isLocked",
          "type": "bool",
          "internalType": "bool"
        },
        {
          "name": "value",
          "type": "uint256",
          "internalType": "uint256"
        },
        {
          "name": "tokenURI",
          "type": "string",
          "internalType": "string"
        },
        {
          "name": "randomRequestId",
          "type": "uint256",
          "internalType": "uint256"
        }
      ],
      "stateMutability": "view"
    },
    {
      "type": "function",
      "name": "L1StakingIndex",
      "inputs": [],
      "outputs": [
        {
          "name": "",
          "type": "uint256",
          "internalType": "uint256"
        }
      ],
      "stateMutability": "view"
    },
    {
      "type": "function",
      "name": "PAUSE_ROLE",
      "inputs": [],
      "outputs": [
        {
          "name": "",
          "type": "bytes32",
          "internalType": "bytes32"
        }
      ],
      "stateMutability": "view"
    },
    {
      "type": "function",
      "name": "RareMiningFees",
      "inputs": [],
      "outputs": [
        {
          "name": "",
          "type": "uint256",
          "internalType": "uint256"
        }
      ],
      "stateMutability": "view"
    },
    {
      "type": "function",
      "name": "TON_FEES_RATE_DIVIDER",
      "inputs": [],
      "outputs": [
        {
          "name": "",
          "type": "uint256",
          "internalType": "uint256"
        }
      ],
      "stateMutability": "view"
    },
    {
      "type": "function",
      "name": "TREASURY_ROLE",
      "inputs": [],
      "outputs": [
        {
          "name": "",
          "type": "bytes32",
          "internalType": "bytes32"
        }
      ],
      "stateMutability": "view"
    },
    {
      "type": "function",
      "name": "UniqueMiningFees",
      "inputs": [],
      "outputs": [
        {
          "name": "",
          "type": "uint256",
          "internalType": "uint256"
        }
      ],
      "stateMutability": "view"
    },
    {
      "type": "function",
      "name": "addAdmin",
      "inputs": [
        {
          "name": "account",
          "type": "address",
          "internalType": "address"
        }
      ],
      "outputs": [],
      "stateMutability": "nonpayable"
    },
    {
      "type": "function",
      "name": "addBackgroundColor",
      "inputs": [
        {
          "name": "_backgroundColor",
          "type": "string",
          "internalType": "string"
        }
      ],
      "outputs": [],
      "stateMutability": "nonpayable"
    },
    {
      "type": "function",
      "name": "addColor",
      "inputs": [
        {
          "name": "_color",
          "type": "string",
          "internalType": "string"
        }
      ],
      "outputs": [],
      "stateMutability": "nonpayable"
    },
    {
      "type": "function",
      "name": "addMinter",
      "inputs": [
        {
          "name": "account",
          "type": "address",
          "internalType": "address"
        }
      ],
      "outputs": [],
      "stateMutability": "nonpayable"
    },
    {
      "type": "function",
      "name": "adminTransferGEM",
      "inputs": [
        {
          "name": "_to",
          "type": "address",
          "internalType": "address"
        },
        {
          "name": "_tokenId",
          "type": "uint256",
          "internalType": "uint256"
        }
      ],
      "outputs": [
        {
          "name": "",
          "type": "bool",
          "internalType": "bool"
        }
      ],
      "stateMutability": "nonpayable"
    },
    {
      "type": "function",
      "name": "aliveImplementation",
      "inputs": [
        {
          "name": "",
          "type": "address",
          "internalType": "address"
        }
      ],
      "outputs": [
        {
          "name": "",
          "type": "bool",
          "internalType": "bool"
        }
      ],
      "stateMutability": "view"
    },
    {
      "type": "function",
      "name": "approve",
      "inputs": [
        {
          "name": "to",
          "type": "address",
          "internalType": "address"
        },
        {
          "name": "tokenId",
          "type": "uint256",
          "internalType": "uint256"
        }
      ],
      "outputs": [],
      "stateMutability": "nonpayable"
    },
    {
      "type": "function",
      "name": "backgroundColors",
      "inputs": [
        {
          "name": "",
          "type": "uint256",
          "internalType": "uint256"
        }
      ],
      "outputs": [
        {
          "name": "",
          "type": "string",
          "internalType": "string"
        }
      ],
      "stateMutability": "view"
    },
    {
      "type": "function",
      "name": "balanceOf",
      "inputs": [
        {
          "name": "_owner",
          "type": "address",
          "internalType": "address"
        }
      ],
      "outputs": [
        {
          "name": "count",
          "type": "uint256",
          "internalType": "uint256"
        }
      ],
      "stateMutability": "view"
    },
    {
      "type": "function",
      "name": "buyGem",
      "inputs": [
        {
          "name": "_tokenId",
          "type": "uint256",
          "internalType": "uint256"
        },
        {
          "name": "_paymentMethod",
          "type": "bool",
          "internalType": "bool"
        }
      ],
      "outputs": [],
      "stateMutability": "nonpayable"
    },
    {
      "type": "function",
      "name": "claimMinedGEM",
      "inputs": [
        {
          "name": "_tokenId",
          "type": "uint256",
          "internalType": "uint256"
        }
      ],
      "outputs": [
        {
          "name": "",
          "type": "bool",
          "internalType": "bool"
        }
      ],
      "stateMutability": "nonpayable"
    },
    {
      "type": "function",
      "name": "colors",
      "inputs": [
        {
          "name": "",
          "type": "uint256",
          "internalType": "uint256"
        }
      ],
      "outputs": [
        {
          "name": "",
          "type": "string",
          "internalType": "string"
        }
      ],
      "stateMutability": "view"
    },
    {
      "type": "function",
      "name": "createGEM",
      "inputs": [
        {
          "name": "_rarity",
          "type": "uint8",
          "internalType": "enum GemFactoryStorage.Rarity"
        },
        {
          "name": "_color",
          "type": "uint8",
          "internalType": "uint8"
        },
        {
          "name": "_value",
          "type": "uint256",
          "internalType": "uint256"
        },
        {
          "name": "_quadrants",
          "type": "uint8[4]",
          "internalType": "uint8[4]"
        },
        {
          "name": "_miningPeriod",
          "type": "uint256",
          "internalType": "uint256"
        },
        {
          "name": "_gemCooldownPeriod",
          "type": "uint256",
          "internalType": "uint256"
        },
        {
          "name": "_tokenURI",
          "type": "string",
          "internalType": "string"
        }
      ],
      "outputs": [
        {
          "name": "",
          "type": "uint256",
          "internalType": "uint256"
        }
      ],
      "stateMutability": "nonpayable"
    },
    {
      "type": "function",
      "name": "createGEMPool",
      "inputs": [
        {
          "name": "_rarities",
          "type": "uint8[]",
          "internalType": "enum GemFactoryStorage.Rarity[]"
        },
        {
          "name": "_colors",
          "type": "uint8[]",
          "internalType": "uint8[]"
        },
        {
          "name": "_values",
          "type": "uint256[]",
          "internalType": "uint256[]"
        },
        {
          "name": "_quadrants",
          "type": "uint8[4][]",
          "internalType": "uint8[4][]"
        },
        {
          "name": "_miningPeriods",
          "type": "uint256[]",
          "internalType": "uint256[]"
        },
        {
          "name": "_gemCooldownPeriods",
          "type": "uint256[]",
          "internalType": "uint256[]"
        },
        {
          "name": "_tokenURIs",
          "type": "string[]",
          "internalType": "string[]"
        }
      ],
      "outputs": [
        {
          "name": "",
          "type": "uint256[]",
          "internalType": "uint256[]"
        }
      ],
      "stateMutability": "nonpayable"
    },
    {
      "type": "function",
      "name": "customBackgroundColors",
      "inputs": [
        {
          "name": "",
          "type": "uint8",
          "internalType": "uint8"
        }
      ],
      "outputs": [
        {
          "name": "",
          "type": "string",
          "internalType": "string"
        }
      ],
      "stateMutability": "view"
    },
    {
      "type": "function",
      "name": "customBackgroundColorsCount",
      "inputs": [],
      "outputs": [
        {
          "name": "",
          "type": "uint8",
          "internalType": "uint8"
        }
      ],
      "stateMutability": "view"
    },
    {
      "type": "function",
      "name": "customColors",
      "inputs": [
        {
          "name": "",
          "type": "uint8",
          "internalType": "uint8"
        }
      ],
      "outputs": [
        {
          "name": "",
          "type": "string",
          "internalType": "string"
        }
      ],
      "stateMutability": "view"
    },
    {
      "type": "function",
      "name": "customColorsCount",
      "inputs": [],
      "outputs": [
        {
          "name": "",
          "type": "uint8",
          "internalType": "uint8"
        }
      ],
      "stateMutability": "view"
    },
    {
      "type": "function",
      "name": "estimatedStakingIndexIncreaseRate",
      "inputs": [],
      "outputs": [
        {
          "name": "",
          "type": "uint256",
          "internalType": "uint256"
        }
      ],
      "stateMutability": "view"
    },
    {
      "type": "function",
      "name": "gemAllowedToAddress",
      "inputs": [
        {
          "name": "",
          "type": "uint256",
          "internalType": "uint256"
        }
      ],
      "outputs": [
        {
          "name": "",
          "type": "address",
          "internalType": "address"
        }
      ],
      "stateMutability": "view"
    },
    {
      "type": "function",
      "name": "gemFactory",
      "inputs": [],
      "outputs": [
        {
          "name": "",
          "type": "address",
          "internalType": "address"
        }
      ],
      "stateMutability": "view"
    },
    {
      "type": "function",
      "name": "gemsForSale",
      "inputs": [
        {
          "name": "",
          "type": "uint256",
          "internalType": "uint256"
        }
      ],
      "outputs": [
        {
          "name": "seller",
          "type": "address",
          "internalType": "address"
        },
        {
          "name": "price",
          "type": "uint256",
          "internalType": "uint256"
        },
        {
          "name": "isActive",
          "type": "bool",
          "internalType": "bool"
        }
      ],
      "stateMutability": "view"
    },
    {
      "type": "function",
      "name": "getApproved",
      "inputs": [
        {
          "name": "tokenId",
          "type": "uint256",
          "internalType": "uint256"
        }
      ],
      "outputs": [
        {
          "name": "",
          "type": "address",
          "internalType": "address"
        }
      ],
      "stateMutability": "view"
    },
    {
      "type": "function",
      "name": "getCalculatedDirectFundingPrice",
      "inputs": [
        {
          "name": "_callbackGasLimit",
          "type": "uint32",
          "internalType": "uint32"
        }
      ],
      "outputs": [
        {
          "name": "",
          "type": "uint256",
          "internalType": "uint256"
        }
      ],
      "stateMutability": "view"
    },
    {
      "type": "function",
      "name": "getCommonMiningFees",
      "inputs": [],
      "outputs": [
        {
          "name": "",
          "type": "uint256",
          "internalType": "uint256"
        }
      ],
      "stateMutability": "view"
    },
    {
      "type": "function",
      "name": "getCustomColor",
      "inputs": [
        {
          "name": "_index",
          "type": "uint8",
          "internalType": "uint8"
        }
      ],
      "outputs": [
        {
          "name": "",
          "type": "string",
          "internalType": "string"
        }
      ],
      "stateMutability": "view"
    },
    {
      "type": "function",
      "name": "getRareMiningFees",
      "inputs": [],
      "outputs": [
        {
          "name": "",
          "type": "uint256",
          "internalType": "uint256"
        }
      ],
      "stateMutability": "view"
    },
    {
      "type": "function",
      "name": "getRoleAdmin",
      "inputs": [
        {
          "name": "role",
          "type": "bytes32",
          "internalType": "bytes32"
        }
      ],
      "outputs": [
        {
          "name": "",
          "type": "bytes32",
          "internalType": "bytes32"
        }
      ],
      "stateMutability": "view"
    },
    {
      "type": "function",
      "name": "getTon",
      "inputs": [],
      "outputs": [
        {
          "name": "",
          "type": "address",
          "internalType": "address"
        }
      ],
      "stateMutability": "view"
    },
    {
      "type": "function",
      "name": "getTonFeesRate",
      "inputs": [],
      "outputs": [
        {
          "name": "",
          "type": "uint256",
          "internalType": "uint256"
        }
      ],
      "stateMutability": "view"
    },
    {
      "type": "function",
      "name": "getTreasury",
      "inputs": [],
      "outputs": [
        {
          "name": "",
          "type": "address",
          "internalType": "address"
        }
      ],
      "stateMutability": "view"
    },
    {
      "type": "function",
      "name": "getUniqueMiningFees",
      "inputs": [],
      "outputs": [
        {
          "name": "",
          "type": "uint256",
          "internalType": "uint256"
        }
      ],
      "stateMutability": "view"
    },
    {
      "type": "function",
      "name": "getWston",
      "inputs": [],
      "outputs": [
        {
          "name": "",
          "type": "address",
          "internalType": "address"
        }
      ],
      "stateMutability": "view"
    },
    {
      "type": "function",
      "name": "grantRole",
      "inputs": [
        {
          "name": "role",
          "type": "bytes32",
          "internalType": "bytes32"
        },
        {
          "name": "account",
          "type": "address",
          "internalType": "address"
        }
      ],
      "outputs": [],
      "stateMutability": "nonpayable"
    },
    {
      "type": "function",
      "name": "hasRole",
      "inputs": [
        {
          "name": "role",
          "type": "bytes32",
          "internalType": "bytes32"
        },
        {
          "name": "account",
          "type": "address",
          "internalType": "address"
        }
      ],
      "outputs": [
        {
          "name": "",
          "type": "bool",
          "internalType": "bool"
        }
      ],
      "stateMutability": "view"
    },
    {
      "type": "function",
      "name": "initialize",
      "inputs": [
        {
          "name": "_wston",
          "type": "address",
          "internalType": "address"
        },
        {
          "name": "_ton",
          "type": "address",
          "internalType": "address"
        },
        {
          "name": "_treasury",
          "type": "address",
          "internalType": "address"
        },
        {
          "name": "_CommonMiningFees",
          "type": "uint256",
          "internalType": "uint256"
        },
        {
          "name": "_RareMiningFees",
          "type": "uint256",
          "internalType": "uint256"
        },
        {
          "name": "_UniqueMiningFees",
          "type": "uint256",
          "internalType": "uint256"
        },
        {
          "name": "_EpicMiningFees",
          "type": "uint256",
          "internalType": "uint256"
        }
      ],
      "outputs": [],
      "stateMutability": "nonpayable"
    },
    {
      "type": "function",
      "name": "initialize",
      "inputs": [
        {
          "name": "treasury",
          "type": "address",
          "internalType": "address"
        },
        {
          "name": "gemfactory",
          "type": "address",
          "internalType": "address"
        },
        {
          "name": "_tonFeesRate",
          "type": "uint256",
          "internalType": "uint256"
        },
        {
          "name": "_wston",
          "type": "address",
          "internalType": "address"
        },
        {
          "name": "_ton",
          "type": "address",
          "internalType": "address"
        }
      ],
      "outputs": [],
      "stateMutability": "nonpayable"
    },
    {
      "type": "function",
      "name": "isAdmin",
      "inputs": [
        {
          "name": "account",
          "type": "address",
          "internalType": "address"
        }
      ],
      "outputs": [
        {
          "name": "",
          "type": "bool",
          "internalType": "bool"
        }
      ],
      "stateMutability": "view"
    },
    {
      "type": "function",
      "name": "isApprovedForAll",
      "inputs": [
        {
          "name": "owner",
          "type": "address",
          "internalType": "address"
        },
        {
          "name": "operator",
          "type": "address",
          "internalType": "address"
        }
      ],
      "outputs": [
        {
          "name": "",
          "type": "bool",
          "internalType": "bool"
        }
      ],
      "stateMutability": "view"
    },
    {
      "type": "function",
      "name": "isMinter",
      "inputs": [
        {
          "name": "account",
          "type": "address",
          "internalType": "address"
        }
      ],
      "outputs": [
        {
          "name": "",
          "type": "bool",
          "internalType": "bool"
        }
      ],
      "stateMutability": "view"
    },
    {
      "type": "function",
      "name": "isOwner",
      "inputs": [],
      "outputs": [
        {
          "name": "",
          "type": "bool",
          "internalType": "bool"
        }
      ],
      "stateMutability": "view"
    },
    {
      "type": "function",
      "name": "isTokenLocked",
      "inputs": [
        {
          "name": "_tokenId",
          "type": "uint256",
          "internalType": "uint256"
        }
      ],
      "outputs": [
        {
          "name": "",
          "type": "bool",
          "internalType": "bool"
        }
      ],
      "stateMutability": "view"
    },
    {
      "type": "function",
      "name": "isUserMining",
      "inputs": [
        {
          "name": "",
          "type": "address",
          "internalType": "address"
        }
      ],
      "outputs": [
        {
          "name": "",
          "type": "bool",
          "internalType": "bool"
        }
      ],
      "stateMutability": "view"
    },
    {
      "type": "function",
      "name": "lastRequestId",
      "inputs": [],
      "outputs": [
        {
          "name": "",
          "type": "uint256",
          "internalType": "uint256"
        }
      ],
      "stateMutability": "view"
    },
    {
      "type": "function",
      "name": "marketplace",
      "inputs": [],
      "outputs": [
        {
          "name": "",
          "type": "address",
          "internalType": "address"
        }
      ],
      "stateMutability": "view"
    },
    {
      "type": "function",
      "name": "meltGEM",
      "inputs": [
        {
          "name": "_tokenId",
          "type": "uint256",
          "internalType": "uint256"
        }
      ],
      "outputs": [],
      "stateMutability": "nonpayable"
    },
    {
      "type": "function",
      "name": "name",
      "inputs": [],
      "outputs": [
        {
          "name": "",
          "type": "string",
          "internalType": "string"
        }
      ],
      "stateMutability": "view"
    },
    {
      "type": "function",
      "name": "ownerOf",
      "inputs": [
        {
          "name": "tokenId",
          "type": "uint256",
          "internalType": "uint256"
        }
      ],
      "outputs": [
        {
          "name": "",
          "type": "address",
          "internalType": "address"
        }
      ],
      "stateMutability": "view"
    },
    {
      "type": "function",
      "name": "ownerOfGEM",
      "inputs": [
        {
          "name": "_tokenId",
          "type": "uint256",
          "internalType": "uint256"
        }
      ],
      "outputs": [
        {
          "name": "owner",
          "type": "address",
          "internalType": "address"
        }
      ],
      "stateMutability": "view"
    },
    {
      "type": "function",
      "name": "ownershipTokenCount",
      "inputs": [
        {
          "name": "",
          "type": "address",
          "internalType": "address"
        }
      ],
      "outputs": [
        {
          "name": "",
          "type": "uint256",
          "internalType": "uint256"
        }
      ],
      "stateMutability": "view"
    },
    {
      "type": "function",
      "name": "pause",
      "inputs": [],
      "outputs": [],
      "stateMutability": "nonpayable"
    },
    {
      "type": "function",
      "name": "pauseProxy",
      "inputs": [],
      "outputs": [
        {
          "name": "",
          "type": "bool",
          "internalType": "bool"
        }
      ],
      "stateMutability": "view"
    },
    {
      "type": "function",
      "name": "paused",
      "inputs": [],
      "outputs": [
        {
          "name": "",
          "type": "bool",
          "internalType": "bool"
        }
      ],
      "stateMutability": "view"
    },
    {
      "type": "function",
      "name": "preMintedGemsAvailable",
      "inputs": [],
      "outputs": [
        {
          "name": "GemsAvailable",
          "type": "uint256[]",
          "internalType": "uint256[]"
        }
      ],
      "stateMutability": "view"
    },
    {
      "type": "function",
      "name": "proxyImplementation",
      "inputs": [
        {
          "name": "",
          "type": "uint256",
          "internalType": "uint256"
        }
      ],
      "outputs": [
        {
          "name": "",
          "type": "address",
          "internalType": "address"
        }
      ],
      "stateMutability": "view"
    },
    {
      "type": "function",
      "name": "putGemForSale",
      "inputs": [
        {
          "name": "_tokenId",
          "type": "uint256",
          "internalType": "uint256"
        },
        {
          "name": "_price",
          "type": "uint256",
          "internalType": "uint256"
        }
      ],
      "outputs": [],
      "stateMutability": "nonpayable"
    },
    {
      "type": "function",
      "name": "putGemListForSale",
      "inputs": [
        {
          "name": "tokenIds",
          "type": "uint256[]",
          "internalType": "uint256[]"
        },
        {
          "name": "prices",
          "type": "uint256[]",
          "internalType": "uint256[]"
        }
      ],
      "outputs": [],
      "stateMutability": "nonpayable"
    },
    {
      "type": "function",
      "name": "rawFulfillRandomWords",
      "inputs": [
        {
          "name": "round",
          "type": "uint256",
          "internalType": "uint256"
        },
        {
          "name": "hashedOmegaVal",
          "type": "uint256",
          "internalType": "uint256"
        }
      ],
      "outputs": [],
      "stateMutability": "nonpayable"
    },
    {
      "type": "function",
      "name": "removeAdmin",
      "inputs": [
        {
          "name": "account",
          "type": "address",
          "internalType": "address"
        }
      ],
      "outputs": [],
      "stateMutability": "nonpayable"
    },
    {
      "type": "function",
      "name": "removeMinter",
      "inputs": [
        {
          "name": "account",
          "type": "address",
          "internalType": "address"
        }
      ],
      "outputs": [],
      "stateMutability": "nonpayable"
    },
    {
      "type": "function",
      "name": "renounceMinter",
      "inputs": [],
      "outputs": [],
      "stateMutability": "nonpayable"
    },
    {
      "type": "function",
      "name": "renounceOwnership",
      "inputs": [],
      "outputs": [],
      "stateMutability": "nonpayable"
    },
    {
      "type": "function",
      "name": "renounceRole",
      "inputs": [
        {
          "name": "role",
          "type": "bytes32",
          "internalType": "bytes32"
        },
        {
          "name": "callerConfirmation",
          "type": "address",
          "internalType": "address"
        }
      ],
      "outputs": [],
      "stateMutability": "nonpayable"
    },
    {
      "type": "function",
      "name": "requestCount",
      "inputs": [],
      "outputs": [
        {
          "name": "",
          "type": "uint256",
          "internalType": "uint256"
        }
      ],
      "stateMutability": "view"
    },
    {
      "type": "function",
      "name": "requestIds",
      "inputs": [
        {
          "name": "",
          "type": "uint256",
          "internalType": "uint256"
        }
      ],
      "outputs": [
        {
          "name": "",
          "type": "uint256",
          "internalType": "uint256"
        }
      ],
      "stateMutability": "view"
    },
    {
      "type": "function",
      "name": "revokeMinter",
      "inputs": [
        {
          "name": "account",
          "type": "address",
          "internalType": "address"
        }
      ],
      "outputs": [],
      "stateMutability": "nonpayable"
    },
    {
      "type": "function",
      "name": "revokeRole",
      "inputs": [
        {
          "name": "role",
          "type": "bytes32",
          "internalType": "bytes32"
        },
        {
          "name": "account",
          "type": "address",
          "internalType": "address"
        }
      ],
      "outputs": [],
      "stateMutability": "nonpayable"
    },
    {
      "type": "function",
      "name": "s_requests",
      "inputs": [
        {
          "name": "",
          "type": "uint256",
          "internalType": "uint256"
        }
      ],
      "outputs": [
        {
          "name": "requested",
          "type": "bool",
          "internalType": "bool"
        },
        {
          "name": "fulfilled",
          "type": "bool",
          "internalType": "bool"
        },
        {
          "name": "randomWord",
          "type": "uint256",
          "internalType": "uint256"
        },
        {
          "name": "chosenTokenId",
          "type": "uint256",
          "internalType": "uint256"
        },
        {
          "name": "requester",
          "type": "address",
          "internalType": "address"
        }
      ],
      "stateMutability": "view"
    },
    {
      "type": "function",
      "name": "safeTransferFrom",
      "inputs": [
        {
          "name": "from",
          "type": "address",
          "internalType": "address"
        },
        {
          "name": "to",
          "type": "address",
          "internalType": "address"
        },
        {
          "name": "tokenId",
          "type": "uint256",
          "internalType": "uint256"
        }
      ],
      "outputs": [],
      "stateMutability": "nonpayable"
    },
    {
      "type": "function",
      "name": "safeTransferFrom",
      "inputs": [
        {
          "name": "from",
          "type": "address",
          "internalType": "address"
        },
        {
          "name": "to",
          "type": "address",
          "internalType": "address"
        },
        {
          "name": "tokenId",
          "type": "uint256",
          "internalType": "uint256"
        },
        {
          "name": "data",
          "type": "bytes",
          "internalType": "bytes"
        }
      ],
      "outputs": [],
      "stateMutability": "nonpayable"
    },
    {
      "type": "function",
      "name": "selectorImplementation",
      "inputs": [
        {
          "name": "",
          "type": "bytes4",
          "internalType": "bytes4"
        }
      ],
      "outputs": [
        {
          "name": "",
          "type": "address",
          "internalType": "address"
        }
      ],
      "stateMutability": "view"
    },
    {
      "type": "function",
      "name": "setApprovalForAll",
      "inputs": [
        {
          "name": "operator",
          "type": "address",
          "internalType": "address"
        },
        {
          "name": "approved",
          "type": "bool",
          "internalType": "bool"
        }
      ],
      "outputs": [],
      "stateMutability": "nonpayable"
    },
    {
      "type": "function",
      "name": "setApprovalForMarketplace",
      "inputs": [],
      "outputs": [],
      "stateMutability": "nonpayable"
    },
    {
      "type": "function",
      "name": "setDiscountRate",
      "inputs": [
        {
          "name": "_tonFeesRate",
          "type": "uint256",
          "internalType": "uint256"
        }
      ],
      "outputs": [],
      "stateMutability": "nonpayable"
    },
    {
      "type": "function",
      "name": "setIsLocked",
      "inputs": [
        {
          "name": "_tokenId",
          "type": "uint256",
          "internalType": "uint256"
        },
        {
          "name": "_isLocked",
          "type": "bool",
          "internalType": "bool"
        }
      ],
      "outputs": [],
      "stateMutability": "nonpayable"
    },
    {
      "type": "function",
      "name": "setMarketPlaceAddress",
      "inputs": [
        {
          "name": "_marketplace",
          "type": "address",
          "internalType": "address"
        }
      ],
      "outputs": [],
      "stateMutability": "nonpayable"
    },
    {
      "type": "function",
      "name": "startMiningGEM",
      "inputs": [
        {
          "name": "_tokenId",
          "type": "uint256",
          "internalType": "uint256"
        }
      ],
      "outputs": [
        {
          "name": "",
          "type": "bool",
          "internalType": "bool"
        }
      ],
      "stateMutability": "payable"
    },
    {
      "type": "function",
      "name": "supportsInterface",
      "inputs": [
        {
          "name": "interfaceId",
          "type": "bytes4",
          "internalType": "bytes4"
        }
      ],
      "outputs": [
        {
          "name": "",
          "type": "bool",
          "internalType": "bool"
        }
      ],
      "stateMutability": "view"
    },
    {
      "type": "function",
      "name": "symbol",
      "inputs": [],
      "outputs": [
        {
          "name": "",
          "type": "string",
          "internalType": "string"
        }
      ],
      "stateMutability": "view"
    },
    {
      "type": "function",
      "name": "tokenMiningByUser",
      "inputs": [
        {
          "name": "",
          "type": "address",
          "internalType": "address"
        }
      ],
      "outputs": [
        {
          "name": "",
          "type": "uint256",
          "internalType": "uint256"
        }
      ],
      "stateMutability": "view"
    },
    {
      "type": "function",
      "name": "tokenReadyToMine",
      "inputs": [
        {
          "name": "",
          "type": "uint256",
          "internalType": "uint256"
        }
      ],
      "outputs": [
        {
          "name": "",
          "type": "bool",
          "internalType": "bool"
        }
      ],
      "stateMutability": "view"
    },
    {
      "type": "function",
      "name": "tokenURI",
      "inputs": [
        {
          "name": "tokenId",
          "type": "uint256",
          "internalType": "uint256"
        }
      ],
      "outputs": [
        {
          "name": "",
          "type": "string",
          "internalType": "string"
        }
      ],
      "stateMutability": "view"
    },
    {
      "type": "function",
      "name": "tokensOfOwner",
      "inputs": [
        {
          "name": "_owner",
          "type": "address",
          "internalType": "address"
        }
      ],
      "outputs": [
        {
          "name": "ownerTokens",
          "type": "uint256[]",
          "internalType": "uint256[]"
        }
      ],
      "stateMutability": "view"
    },
    {
      "type": "function",
      "name": "ton",
      "inputs": [],
      "outputs": [
        {
          "name": "",
          "type": "address",
          "internalType": "address"
        }
      ],
      "stateMutability": "view"
    },
    {
      "type": "function",
      "name": "tonFeesRate",
      "inputs": [],
      "outputs": [
        {
          "name": "",
          "type": "uint256",
          "internalType": "uint256"
        }
      ],
      "stateMutability": "view"
    },
    {
      "type": "function",
      "name": "totalSupply",
      "inputs": [],
      "outputs": [
        {
          "name": "",
          "type": "uint256",
          "internalType": "uint256"
        }
      ],
      "stateMutability": "view"
    },
    {
      "type": "function",
      "name": "transferAdmin",
      "inputs": [
        {
          "name": "newAdmin",
          "type": "address",
          "internalType": "address"
        }
      ],
      "outputs": [],
      "stateMutability": "nonpayable"
    },
    {
      "type": "function",
      "name": "transferFrom",
      "inputs": [
        {
          "name": "from",
          "type": "address",
          "internalType": "address"
        },
        {
          "name": "to",
          "type": "address",
          "internalType": "address"
        },
        {
          "name": "tokenId",
          "type": "uint256",
          "internalType": "uint256"
        }
      ],
      "outputs": [],
      "stateMutability": "nonpayable"
    },
    {
      "type": "function",
      "name": "transferGEM",
      "inputs": [
        {
          "name": "_to",
          "type": "address",
          "internalType": "address"
        },
        {
          "name": "_tokenId",
          "type": "uint256",
          "internalType": "uint256"
        }
      ],
      "outputs": [],
      "stateMutability": "nonpayable"
    },
    {
      "type": "function",
      "name": "transferGEMFrom",
      "inputs": [
        {
          "name": "_from",
          "type": "address",
          "internalType": "address"
        },
        {
          "name": "_to",
          "type": "address",
          "internalType": "address"
        },
        {
          "name": "_tokenId",
          "type": "uint256",
          "internalType": "uint256"
        }
      ],
      "outputs": [],
      "stateMutability": "nonpayable"
    },
    {
      "type": "function",
      "name": "transferOwnership",
      "inputs": [
        {
          "name": "newAdmin",
          "type": "address",
          "internalType": "address"
        }
      ],
      "outputs": [],
      "stateMutability": "nonpayable"
    },
    {
      "type": "function",
      "name": "treasury",
      "inputs": [],
      "outputs": [
        {
          "name": "",
          "type": "address",
          "internalType": "address"
        }
      ],
      "stateMutability": "view"
    },
    {
      "type": "function",
      "name": "unpause",
      "inputs": [],
      "outputs": [],
      "stateMutability": "nonpayable"
    },
    {
      "type": "function",
      "name": "userMiningStartTime",
      "inputs": [
        {
          "name": "",
          "type": "address",
          "internalType": "address"
        },
        {
          "name": "",
          "type": "uint256",
          "internalType": "uint256"
        }
      ],
      "outputs": [
        {
          "name": "",
          "type": "uint256",
          "internalType": "uint256"
        }
      ],
      "stateMutability": "view"
    },
    {
      "type": "function",
      "name": "userMiningToken",
      "inputs": [
        {
          "name": "",
          "type": "address",
          "internalType": "address"
        },
        {
          "name": "",
          "type": "uint256",
          "internalType": "uint256"
        }
      ],
      "outputs": [
        {
          "name": "",
          "type": "bool",
          "internalType": "bool"
        }
      ],
      "stateMutability": "view"
    },
    {
      "type": "function",
      "name": "wston",
      "inputs": [],
      "outputs": [
        {
          "name": "",
          "type": "address",
          "internalType": "address"
        }
      ],
      "stateMutability": "view"
    },
    {
      "type": "event",
      "name": "Approval",
      "inputs": [
        {
          "name": "owner",
          "type": "address",
          "indexed": true,
          "internalType": "address"
        },
        {
          "name": "approved",
          "type": "address",
          "indexed": true,
          "internalType": "address"
        },
        {
          "name": "tokenId",
          "type": "uint256",
          "indexed": true,
          "internalType": "uint256"
        }
      ],
      "anonymous": false
    },
    {
      "type": "event",
      "name": "ApprovalForAll",
      "inputs": [
        {
          "name": "owner",
          "type": "address",
          "indexed": true,
          "internalType": "address"
        },
        {
          "name": "operator",
          "type": "address",
          "indexed": true,
          "internalType": "address"
        },
        {
          "name": "approved",
          "type": "bool",
          "indexed": false,
          "internalType": "bool"
        }
      ],
      "anonymous": false
    },
    {
      "type": "event",
      "name": "BackgroundColorAdded",
      "inputs": [
        {
          "name": "id",
          "type": "uint8",
          "indexed": true,
          "internalType": "uint8"
        },
        {
          "name": "backgroundColor",
          "type": "string",
          "indexed": false,
          "internalType": "string"
        }
      ],
      "anonymous": false
    },
    {
      "type": "event",
      "name": "BatchMetadataUpdate",
      "inputs": [
        {
          "name": "_fromTokenId",
          "type": "uint256",
          "indexed": false,
          "internalType": "uint256"
        },
        {
          "name": "_toTokenId",
          "type": "uint256",
          "indexed": false,
          "internalType": "uint256"
        }
      ],
      "anonymous": false
    },
    {
      "type": "event",
      "name": "ColorAdded",
      "inputs": [
        {
          "name": "id",
          "type": "uint8",
          "indexed": true,
          "internalType": "uint8"
        },
        {
          "name": "color",
          "type": "string",
          "indexed": false,
          "internalType": "string"
        }
      ],
      "anonymous": false
    },
    {
      "type": "event",
      "name": "Created",
      "inputs": [
        {
          "name": "tokenId",
          "type": "uint256",
          "indexed": true,
          "internalType": "uint256"
        },
        {
          "name": "rarity",
          "type": "uint8",
          "indexed": false,
          "internalType": "enum GemFactoryStorage.Rarity"
        },
        {
          "name": "color",
          "type": "uint8",
          "indexed": false,
          "internalType": "uint8"
        },
        {
          "name": "value",
          "type": "uint256",
          "indexed": false,
          "internalType": "uint256"
        },
        {
          "name": "quadrants",
          "type": "uint8[4]",
          "indexed": false,
          "internalType": "uint8[4]"
        },
        {
          "name": "miningPeriod",
          "type": "uint256",
          "indexed": false,
          "internalType": "uint256"
        },
        {
          "name": "cooldownPeriod",
          "type": "uint256",
          "indexed": false,
          "internalType": "uint256"
        },
        {
          "name": "tokenURI",
          "type": "string",
          "indexed": false,
          "internalType": "string"
        },
        {
          "name": "owner",
          "type": "address",
          "indexed": false,
          "internalType": "address"
        }
      ],
      "anonymous": false
    },
    {
      "type": "event",
      "name": "GemBought",
      "inputs": [
        {
          "name": "tokenId",
          "type": "uint256",
          "indexed": false,
          "internalType": "uint256"
        },
        {
          "name": "payer",
          "type": "address",
          "indexed": false,
          "internalType": "address"
        }
      ],
      "anonymous": false
    },
    {
      "type": "event",
      "name": "GemForSale",
      "inputs": [
        {
          "name": "tokenId",
          "type": "uint256",
          "indexed": false,
          "internalType": "uint256"
        },
        {
          "name": "seller",
          "type": "address",
          "indexed": false,
          "internalType": "address"
        },
        {
          "name": "price",
          "type": "uint256",
          "indexed": false,
          "internalType": "uint256"
        }
      ],
      "anonymous": false
    },
    {
      "type": "event",
      "name": "GemMelted",
      "inputs": [
        {
          "name": "_tokenId",
          "type": "uint256",
          "indexed": false,
          "internalType": "uint256"
        },
        {
          "name": "_from",
          "type": "address",
          "indexed": false,
          "internalType": "address"
        }
      ],
      "anonymous": false
    },
    {
      "type": "event",
      "name": "GemMiningClaimed",
      "inputs": [
        {
          "name": "tokenId",
          "type": "uint256",
          "indexed": false,
          "internalType": "uint256"
        },
        {
          "name": "miner",
          "type": "address",
          "indexed": false,
          "internalType": "address"
        }
      ],
      "anonymous": false
    },
    {
      "type": "event",
      "name": "GemMiningStarted",
      "inputs": [
        {
          "name": "tokenId",
          "type": "uint256",
          "indexed": false,
          "internalType": "uint256"
        },
        {
          "name": "miner",
          "type": "address",
          "indexed": false,
          "internalType": "address"
        }
      ],
      "anonymous": false
    },
    {
      "type": "event",
      "name": "MetadataUpdate",
      "inputs": [
        {
          "name": "_tokenId",
          "type": "uint256",
          "indexed": false,
          "internalType": "uint256"
        }
      ],
      "anonymous": false
    },
    {
      "type": "event",
      "name": "Paused",
      "inputs": [
        {
          "name": "account",
          "type": "address",
          "indexed": false,
          "internalType": "address"
        }
      ],
      "anonymous": false
    },
    {
      "type": "event",
      "name": "RoleAdminChanged",
      "inputs": [
        {
          "name": "role",
          "type": "bytes32",
          "indexed": true,
          "internalType": "bytes32"
        },
        {
          "name": "previousAdminRole",
          "type": "bytes32",
          "indexed": true,
          "internalType": "bytes32"
        },
        {
          "name": "newAdminRole",
          "type": "bytes32",
          "indexed": true,
          "internalType": "bytes32"
        }
      ],
      "anonymous": false
    },
    {
      "type": "event",
      "name": "RoleGranted",
      "inputs": [
        {
          "name": "role",
          "type": "bytes32",
          "indexed": true,
          "internalType": "bytes32"
        },
        {
          "name": "account",
          "type": "address",
          "indexed": true,
          "internalType": "address"
        },
        {
          "name": "sender",
          "type": "address",
          "indexed": true,
          "internalType": "address"
        }
      ],
      "anonymous": false
    },
    {
      "type": "event",
      "name": "RoleRevoked",
      "inputs": [
        {
          "name": "role",
          "type": "bytes32",
          "indexed": true,
          "internalType": "bytes32"
        },
        {
          "name": "account",
          "type": "address",
          "indexed": true,
          "internalType": "address"
        },
        {
          "name": "sender",
          "type": "address",
          "indexed": true,
          "internalType": "address"
        }
      ],
      "anonymous": false
    },
    {
      "type": "event",
      "name": "SetDiscountRate",
      "inputs": [
        {
          "name": "discountRate",
          "type": "uint256",
          "indexed": false,
          "internalType": "uint256"
        }
      ],
      "anonymous": false
    },
    {
      "type": "event",
      "name": "Transfer",
      "inputs": [
        {
          "name": "from",
          "type": "address",
          "indexed": true,
          "internalType": "address"
        },
        {
          "name": "to",
          "type": "address",
          "indexed": true,
          "internalType": "address"
        },
        {
          "name": "tokenId",
          "type": "uint256",
          "indexed": true,
          "internalType": "uint256"
        }
      ],
      "anonymous": false
    },
    {
      "type": "event",
      "name": "TransferGEM",
      "inputs": [
        {
          "name": "from",
          "type": "address",
          "indexed": false,
          "internalType": "address"
        },
        {
          "name": "to",
          "type": "address",
          "indexed": false,
          "internalType": "address"
        },
        {
          "name": "tokenId",
          "type": "uint256",
          "indexed": false,
          "internalType": "uint256"
        }
      ],
      "anonymous": false
    },
    {
      "type": "event",
      "name": "Unpaused",
      "inputs": [
        {
          "name": "account",
          "type": "address",
          "indexed": false,
          "internalType": "address"
        }
      ],
      "anonymous": false
    },
    {
      "type": "event",
      "name": "WSTONClaimed",
      "inputs": [
        {
          "name": "tokenId",
          "type": "uint256",
          "indexed": false,
          "internalType": "uint256"
        },
        {
          "name": "claimer",
          "type": "address",
          "indexed": false,
          "internalType": "address"
        }
      ],
      "anonymous": false
    },
    {
      "type": "error",
      "name": "AccessControlBadConfirmation",
      "inputs": []
    },
    {
      "type": "error",
      "name": "AccessControlUnauthorizedAccount",
      "inputs": [
        {
          "name": "account",
          "type": "address",
          "internalType": "address"
        },
        {
          "name": "neededRole",
          "type": "bytes32",
          "internalType": "bytes32"
        }
      ]
    },
    {
      "type": "error",
      "name": "AddressEmptyCode",
      "inputs": [
        {
          "name": "target",
          "type": "address",
          "internalType": "address"
        }
      ]
    },
    {
      "type": "error",
      "name": "AddressInsufficientBalance",
      "inputs": [
        {
          "name": "account",
          "type": "address",
          "internalType": "address"
        }
      ]
    },
    {
      "type": "error",
      "name": "ERC721IncorrectOwner",
      "inputs": [
        {
          "name": "sender",
          "type": "address",
          "internalType": "address"
        },
        {
          "name": "tokenId",
          "type": "uint256",
          "internalType": "uint256"
        },
        {
          "name": "owner",
          "type": "address",
          "internalType": "address"
        }
      ]
    },
    {
      "type": "error",
      "name": "ERC721InsufficientApproval",
      "inputs": [
        {
          "name": "operator",
          "type": "address",
          "internalType": "address"
        },
        {
          "name": "tokenId",
          "type": "uint256",
          "internalType": "uint256"
        }
      ]
    },
    {
      "type": "error",
      "name": "ERC721InvalidApprover",
      "inputs": [
        {
          "name": "approver",
          "type": "address",
          "internalType": "address"
        }
      ]
    },
    {
      "type": "error",
      "name": "ERC721InvalidOperator",
      "inputs": [
        {
          "name": "operator",
          "type": "address",
          "internalType": "address"
        }
      ]
    },
    {
      "type": "error",
      "name": "ERC721InvalidOwner",
      "inputs": [
        {
          "name": "owner",
          "type": "address",
          "internalType": "address"
        }
      ]
    },
    {
      "type": "error",
      "name": "ERC721InvalidReceiver",
      "inputs": [
        {
          "name": "receiver",
          "type": "address",
          "internalType": "address"
        }
      ]
    },
    {
      "type": "error",
      "name": "ERC721InvalidSender",
      "inputs": [
        {
          "name": "sender",
          "type": "address",
          "internalType": "address"
        }
      ]
    },
    {
      "type": "error",
      "name": "ERC721NonexistentToken",
      "inputs": [
        {
          "name": "tokenId",
          "type": "uint256",
          "internalType": "uint256"
        }
      ]
    },
    {
      "type": "error",
      "name": "FailedInnerCall",
      "inputs": []
    },
    {
      "type": "error",
      "name": "OnlyCoordinatorCanFulfill",
      "inputs": [
        {
          "name": "have",
          "type": "address",
          "internalType": "address"
        },
        {
          "name": "want",
          "type": "address",
          "internalType": "address"
        }
      ]
    },
    {
      "type": "error",
      "name": "ReentrancyGuardReentrantCall",
      "inputs": []
    },
    {
      "type": "error",
      "name": "SafeERC20FailedOperation",
      "inputs": [
        {
          "name": "token",
          "type": "address",
          "internalType": "address"
        }
      ]
    }
  ],
  "bytecode": {
    "object": "0x60a060405234801561001057600080fd5b506040516183a93803806183a983398101604081905261002f91610163565b80806040518060400160405280600a815260200169546f6b616d616b47454d60b01b8152506040518060400160405280600381526020016247454d60e81b815250816006908161007f9190610232565b50600761008c8282610232565b5050506001600160a01b03166080526100a66000336100b3565b50506001603155506102f0565b60008281526030602090815260408083206001600160a01b038516845290915281205460ff166101595760008381526030602090815260408083206001600160a01b03861684529091529020805460ff191660011790556101113390565b6001600160a01b0316826001600160a01b0316847f2f8788117e7eff1d82e926ec794901d17c78024a50270940304540a733656f0d60405160405180910390a450600161015d565b5060005b92915050565b60006020828403121561017557600080fd5b81516001600160a01b038116811461018c57600080fd5b9392505050565b634e487b7160e01b600052604160045260246000fd5b600181811c908216806101bd57607f821691505b6020821081036101dd57634e487b7160e01b600052602260045260246000fd5b50919050565b601f82111561022d57806000526020600020601f840160051c8101602085101561020a5750805b601f840160051c820191505b8181101561022a5760008155600101610216565b50505b505050565b81516001600160401b0381111561024b5761024b610193565b61025f8161025984546101a9565b846101e3565b6020601f821160018114610293576000831561027b5750848201515b600019600385901b1c1916600184901b17845561022a565b600084815260208120601f198516915b828110156102c357878501518255602094850194600190920191016102a3565b50848210156102e15786840151600019600387901b60f8161c191681555b50505050600190811b01905550565b608051618082610327600039600081816124d301528181612515015281816151600152818161571901526157ad01526180826000f3fe6080604052600436106106825760003560e01c8063715018a61161035f578063adf8627e116101d1578063cfbd488511610102578063e985e9c5116100a0578063f5494bb91161007a578063f5494bb9146114f6578063f99a6bb514611516578063fc2a88c314611536578063fed7b27a1461154c57600080fd5b8063e985e9c514611496578063ecc5e06f146114b6578063f2fde38b146114d657600080fd5b8063d6bb7ba0116100dc578063d6bb7ba014611422578063d8f573cd14611442578063dc9ffd0a14611458578063e7a523c01461147857600080fd5b8063cfbd4885146113c0578063d11a57ec146113e0578063d547741f1461140257600080fd5b8063c13890721161016f578063cc48b94711610149578063cc48b9471461133d578063cc98ef961461135d578063ce8ab5df1461137d578063cec21acb1461139357600080fd5b8063c1389072146112db578063c28fb6b714611308578063c87b56dd1461131d57600080fd5b8063b88d4fde116101ab578063b88d4fde14611245578063b911135f14611265578063bd11f69d1461129b578063bd81009f146112bb57600080fd5b8063adf8627e146111ef578063aff2a46314611205578063b3bec5df1461122557600080fd5b806395d89b41116102ab578063a217fddf11610249578063a69c8fb211610223578063a69c8fb21461117a578063a8ce886e1461118f578063aa271e1a146111af578063abc8c7af146111cf57600080fd5b8063a217fddf14611127578063a22cb4651461113c578063a53225c01461115c57600080fd5b806398650275116102855780639865027514610fde5780639c41b42b14610ff3578063a168fa8914611063578063a1770a7d146110ec57600080fd5b806395d89b4114610f7357806397125c4014610f88578063983b2d5614610fbe57600080fd5b80638456cb59116103185780638ba24af0116102f25780638ba24af014610f135780638f32d59b14610f2857806391490c4b14610f3d57806391d1485414610f5357600080fd5b80638456cb5914610eb15780638462151c14610ec65780638796ba8c14610ef357600080fd5b8063715018a614610dec57806375829def14610e015780637866369b14610e2157806379dbd79814610e515780637c69febd14610e715780637fe6fde514610e9157600080fd5b806333158058116104f85780634f557d2711610444578063629296c5116103e2578063676f79f1116103bc578063676f79f114610d3e5780636b1a96fa14610d765780637048027514610d9657806370a0823114610db657600080fd5b8063629296c514610ce85780636352211e14610cfd57806363a8fd8914610d1d57600080fd5b80635badbe4c1161041e5780635badbe4c14610c635780635c975abb14610c7957806361d027b314610c9357806361f7f6d714610cb357600080fd5b80634f557d2714610be757806350d2a27614610bfd578063550d01a314610c3357600080fd5b806337ed11db116104b15780633b19e84a1161048b5780633b19e84a14610b745780633f4ba83a14610b9257806342842e0e14610ba75780634d723a7514610bc757600080fd5b806337ed11db14610aea578063384c252f14610b0a578063389ed26714610b4057600080fd5b80633315805814610a1e578063337d54a114610a3e57806333d608f114610a5e57806333e1a22314610a8a57806336568abe14610aaa57806336b17e1314610aca57600080fd5b806318160ddd116105d257806324d7806c116105705780632bbbe94d1161054a5780632bbbe94d146109a05780632ede6432146109be5780632f2ff15d146109de5780633092afd5146109fe57600080fd5b806324d7806c14610940578063276a28a3146109605780632b4656c81461098057600080fd5b80631da0fc9c116105ac5780631da0fc9c146108ad578063205fb1f8146108c057806323b872dd146108f0578063248a9ca31461091057600080fd5b806318160ddd146108625780631d0e0aac146108775780631d3392e21461089757600080fd5b806308ec897d1161063f578063119868bb11610619578063119868bb146107d6578063127886191461080c57806315341f2b146108225780631785f53c1461084257600080fd5b806308ec897d146107795780630922f5131461079c578063095ea7b3146107b657600080fd5b806301ffc9a71461068757806302424ed3146106bc578063034294f8146106de5780630491fd3e1461070a57806306fdde031461071f578063081812fc14610741575b600080fd5b34801561069357600080fd5b506106a76106a2366004616e5d565b611561565b60405190151581526020015b60405180910390f35b3480156106c857600080fd5b506106dc6106d7366004616e88565b611572565b005b3480156106ea57600080fd5b50600f546106f89060ff1681565b60405160ff90911681526020016106b3565b34801561071657600080fd5b506106dc6115b6565b34801561072b57600080fd5b506107346115f2565b6040516106b39190616f08565b34801561074d57600080fd5b5061076161075c366004616f1b565b611684565b6040516001600160a01b0390911681526020016106b3565b34801561078557600080fd5b5061078e606481565b6040519081526020016106b3565b3480156107a857600080fd5b506012546106f89060ff1681565b3480156107c257600080fd5b506106dc6107d1366004616f49565b6116ad565b3480156107e257600080fd5b506107616107f1366004616f1b565b6018602052600090815260409020546001600160a01b031681565b34801561081857600080fd5b5061078e60015481565b34801561082e57600080fd5b506106dc61083d366004617036565b6116b8565b34801561084e57600080fd5b506106dc61085d36600461706a565b6117a8565b34801561086e57600080fd5b5061078e6117db565b34801561088357600080fd5b506106dc610892366004617036565b6117f2565b3480156108a357600080fd5b5061078e60215481565b6106a76108bb366004616f1b565b6118d7565b3480156108cc57600080fd5b506106a76108db36600461706a565b60196020526000908152604090205460ff1681565b3480156108fc57600080fd5b506106dc61090b366004617087565b611f33565b34801561091c57600080fd5b5061078e61092b366004616f1b565b60009081526030602052604090206001015490565b34801561094c57600080fd5b506106a761095b36600461706a565b611fbe565b34801561096c57600080fd5b506106a761097b366004616f1b565b611fca565b34801561098c57600080fd5b506106dc61099b3660046170c8565b611ffc565b3480156109ac57600080fd5b50602a546001600160a01b0316610761565b3480156109ca57600080fd5b506106dc6109d9366004617136565b612100565b3480156109ea57600080fd5b506106dc6109f9366004617158565b61217a565b348015610a0a57600080fd5b506106dc610a1936600461706a565b61219f565b348015610a2a57600080fd5b506106a7610a39366004616f49565b6121dc565b348015610a4a57600080fd5b506106dc610a59366004616f49565b6122ca565b348015610a6a57600080fd5b50610a756203345081565b60405163ffffffff90911681526020016106b3565b348015610a9657600080fd5b506106dc610aa536600461717d565b61241e565b348015610ab657600080fd5b506106dc610ac5366004617158565b612490565b348015610ad657600080fd5b50602954610761906001600160a01b031681565b348015610af657600080fd5b506106dc610b05366004617136565b6124c8565b348015610b1657600080fd5b50610761610b25366004616f1b565b6017602052600090815260409020546001600160a01b031681565b348015610b4c57600080fd5b5061078e7ffcb9fcbfa83b897fb2d5cf4b58962164105c1e71489a37ef3ae0db3fdce576f681565b348015610b8057600080fd5b50602b546001600160a01b0316610761565b348015610b9e57600080fd5b506106dc61254c565b348015610bb357600080fd5b506106dc610bc2366004617087565b6125f5565b348015610bd357600080fd5b506106dc610be2366004616e88565b612610565b348015610bf357600080fd5b5061078e60225481565b348015610c0957600080fd5b50610761610c18366004616e5d565b602f602052600090815260409020546001600160a01b031681565b348015610c3f57600080fd5b506106a7610c4e36600461706a565b602e6020526000908152604090205460ff1681565b348015610c6f57600080fd5b5061078e60275481565b348015610c8557600080fd5b50601f546106a79060ff1681565b348015610c9f57600080fd5b50602b54610761906001600160a01b031681565b348015610cbf57600080fd5b50610cd3610cce366004616f1b565b612674565b6040516106b39998979695949392919061721d565b348015610cf457600080fd5b5060225461078e565b348015610d0957600080fd5b50610761610d18366004616f1b565b612765565b348015610d2957600080fd5b50602c546106a790600160a01b900460ff1681565b348015610d4a57600080fd5b5061078e610d59366004616f49565b601c60209081526000928352604080842090915290825290205481565b348015610d8257600080fd5b50610734610d91366004617290565b612770565b348015610da257600080fd5b506106dc610db136600461706a565b61280a565b348015610dc257600080fd5b5061078e610dd136600461706a565b6001600160a01b031660009081526016602052604090205490565b348015610df857600080fd5b506106dc61283a565b348015610e0d57600080fd5b506106dc610e1c36600461706a565b61286a565b348015610e2d57600080fd5b506106a7610e3c366004616f1b565b601d6020526000908152604090205460ff1681565b348015610e5d57600080fd5b506106dc610e6c36600461733b565b61294c565b348015610e7d57600080fd5b506106dc610e8c366004616f1b565b612a89565b348015610e9d57600080fd5b506106a7610eac366004616f1b565b612b09565b348015610ebd57600080fd5b506106dc612f35565b348015610ed257600080fd5b50610ee6610ee136600461706a565b612fdb565b6040516106b391906173a2565b348015610eff57600080fd5b5061078e610f0e366004616f1b565b6130ec565b348015610f1f57600080fd5b5060245461078e565b348015610f3457600080fd5b506106a761310d565b348015610f4957600080fd5b5061078e60235481565b348015610f5f57600080fd5b506106a7610f6e366004617158565b613115565b348015610f7f57600080fd5b50610734613140565b348015610f9457600080fd5b50610761610fa3366004616f1b565b6015602052600090815260409020546001600160a01b031681565b348015610fca57600080fd5b506106dc610fd936600461706a565b61314f565b348015610fea57600080fd5b506106dc61318c565b348015610fff57600080fd5b5061103c61100e366004616f1b565b6000602081905290815260409020805460018201546002909201546001600160a01b03909116919060ff1683565b604080516001600160a01b03909416845260208401929092521515908201526060016106b3565b34801561106f57600080fd5b506110b961107e366004616f1b565b601e60205260009081526040902080546001820154600283015460039093015460ff808416946101009094041692906001600160a01b031685565b60408051951515865293151560208601529284019190915260608301526001600160a01b0316608082015260a0016106b3565b3480156110f857600080fd5b506106a7611107366004616f49565b601b60209081526000928352604080842090915290825290205460ff1681565b34801561113357600080fd5b5061078e600081565b34801561114857600080fd5b506106dc6111573660046173e5565b6131a4565b34801561116857600080fd5b506002546001600160a01b0316610761565b34801561118657600080fd5b5060015461078e565b34801561119b57600080fd5b506107346111aa366004616f1b565b6131af565b3480156111bb57600080fd5b506106a76111ca36600461706a565b6131da565b3480156111db57600080fd5b50602c54610761906001600160a01b031681565b3480156111fb57600080fd5b5061078e60245481565b34801561121157600080fd5b50610734611220366004617290565b6131f4565b34801561123157600080fd5b50610ee661124036600461763f565b6132e7565b34801561125157600080fd5b506106dc61126036600461777b565b61457e565b34801561127157600080fd5b50610761611280366004616f1b565b602d602052600090815260409020546001600160a01b031681565b3480156112a757600080fd5b506107346112b6366004616f1b565b614595565b3480156112c757600080fd5b506107616112d6366004616f1b565b6145a5565b3480156112e757600080fd5b5061078e6112f636600461706a565b601a6020526000908152604090205481565b34801561131457600080fd5b50610ee66145c7565b34801561132957600080fd5b50610734611338366004616f1b565b6145df565b34801561134957600080fd5b50602a54610761906001600160a01b031681565b34801561136957600080fd5b506106dc61137836600461706a565b614667565b34801561138957600080fd5b5061078e60255481565b34801561139f57600080fd5b5061078e6113ae36600461706a565b60166020526000908152604090205481565b3480156113cc57600080fd5b506106dc6113db36600461706a565b6146ae565b3480156113ec57600080fd5b5061078e60008051602061802d83398151915281565b34801561140e57600080fd5b506106dc61141d366004617158565b6146e7565b34801561142e57600080fd5b506106dc61143d366004617087565b61470c565b34801561144e57600080fd5b5061078e60205481565b34801561146457600080fd5b5061078e6114733660046177fa565b614916565b34801561148457600080fd5b506029546001600160a01b0316610761565b3480156114a257600080fd5b506106a76114b136600461787a565b6150cd565b3480156114c257600080fd5b506107346114d1366004617290565b6150fb565b3480156114e257600080fd5b506106dc6114f136600461706a565b615114565b34801561150257600080fd5b5061078e6115113660046178a8565b615142565b34801561152257600080fd5b506106dc611531366004616f1b565b6151d3565b34801561154257600080fd5b5061078e60285481565b34801561155857600080fd5b5060235461078e565b600061156c82615351565b92915050565b601f5460ff161561159e5760405162461bcd60e51b8152600401611595906178ce565b60405180910390fd5b6115a982338361535c565b6115b257600080fd5b5050565b601f5460ff16156115d95760405162461bcd60e51b8152600401611595906178ce565b602c546115f0906001600160a01b031660016131a4565b565b606060068054611601906178f8565b80601f016020809104026020016040519081016040528092919081815260200182805461162d906178f8565b801561167a5780601f1061164f5761010080835404028352916020019161167a565b820191906000526020600020905b81548152906001019060200180831161165d57829003601f168201915b5050505050905090565b600061168f8261564f565b506000828152600a60205260409020546001600160a01b031661156c565b6115b2828233615688565b6116c133611fbe565b6116dd5760405162461bcd60e51b81526004016115959061792c565b600f5460ff166000908152600e602052604090206116fb82826179b6565b50601080546001810182556000919091527f1b6847dc741a1b0cd08d278845f9d819d87b734759afb55fe2de5cb82a9ae6720161173882826179b6565b50600f805460ff1690600061174c83617a8a565b82546101009290920a60ff818102199093169183160217909155600f54604051911691507fe4d2864ec291f6f11cb3363fa1bd2a4d5ff49a2cfdf4bf7dfe3b90a26b8c776f9061179d908490616f08565b60405180910390a250565b6117b133611fbe565b6117cd5760405162461bcd60e51b81526004016115959061792c565b6117d8600082612490565b50565b600d546000906117ed90600190617aa9565b905090565b6117fb33611fbe565b6118175760405162461bcd60e51b81526004016115959061792c565b60125460ff16600090815260116020526040902061183582826179b6565b50601380546001810182556000919091527f66de8ffda797e3de9c05e8fc57b3bf0ec28a930d40b0d285d93c06501cf6a0900161187282826179b6565b506012805460ff1690600061188683617a8a565b82546101009290920a60ff818102199093169183160217909155601254604051911691507fd961fa20561746b8576d7b504b0bc57067c67db2ce13bd9866d451bec5985f4b9061179d908490616f08565b601f5460009060ff16156118fd5760405162461bcd60e51b8152600401611595906178ce565b3361191a5760405162461bcd60e51b815260040161159590617abc565b42600d838154811061192e5761192e617ae2565b90600052602060002090600a020160040154106119995760405162461bcd60e51b815260206004820152602360248201527f47656d20636f6f6c646f776e20706572696f6420686173206e6f7420656c61706044820152621cd95960ea1b6064820152608401611595565b600d82815481106119ac576119ac617ae2565b600091825260209091206006600a90920201015460ff1615611a215760405162461bcd60e51b815260206004820152602860248201527f47656d206973206c697374656420666f722073616c65206f7220616c7265616460448201526779206d696e696e6760c01b6064820152608401611595565b3360009081526019602052604090205460ff1615611a7a5760405162461bcd60e51b81526020600482015260166024820152757573657220697320616c7265616479206d696e696e6760501b6044820152606401611595565b6000828152601560205260409020546001600160a01b03163314611a9d57600080fd5b600080600d8481548110611ab357611ab3617ae2565b90600052602060002090600a0201600201600360048110611ad657611ad6617ae2565b602091828204019190069054906101000a900460ff16600d8581548110611aff57611aff617ae2565b90600052602060002090600a0201600201600260048110611b2257611b22617ae2565b602091828204019190069054906101000a900460ff16600d8681548110611b4b57611b4b617ae2565b90600052602060002090600a0201600201600160048110611b6e57611b6e617ae2565b602091828204019190069054906101000a900460ff16600d8781548110611b9757611b97617ae2565b600091825260209091206002600a909202010154611bb8919060ff16617af8565b611bc29190617af8565b611bcc9190617af8565b905060088160ff1611611be3576022549150611c9d565b60088160ff16118015611bfa5750600c8160ff1611155b15611c09576023549150611c9d565b600c8160ff16118015611c20575060108160ff1611155b15611c2f576024549150611c9d565b60108160ff16118015611c46575060148160ff1611155b15611c55576025549150611c9d565b60405162461bcd60e51b815260206004820152601760248201527f47656d206e6f7420616c6c6f77656420746f204d696e650000000000000000006044820152606401611595565b602b54602a54611cbc916001600160a01b039182169133911685615695565b3360008181526019602090815260408083208054600160ff199182168117909255601b84528285208a86528452828520805490911682179055848452601c83528184208985528352818420429055938352601a9091529020859055600d805486908110611d2b57611d2b617ae2565b60009182526020909120600a90910201600601805460ff1916911515919091179055333214611d915760405162461bcd60e51b815260206004820152601260248201527163616c6c6572206d75737420626520454f4160701b6044820152606401611595565b600080611da0620334506156ef565b9150915080341015611de75760405162461bcd60e51b815260206004820152601060248201526f4e6f7420656e6f7567682066756e647360801b6044820152606401611595565b81600d8781548110611dfb57611dfb617ae2565b600091825260208083206009600a909302019190910192909255838152601e90915260409020805460ff191660019081178255600390910180546001600160a01b03191633179055602780549091019055602882905534811015611eed57600033611e668334617aa9565b604051600081818185875af1925050503d8060008114611ea2576040519150601f19603f3d011682016040523d82523d6000602084013e611ea7565b606091505b5050905080611eeb5760405162461bcd60e51b815260206004820152601060248201526f6e6f7420656e6f7567682066756e647360801b6044820152606401611595565b505b604080518781523360208201527f2fce09d26d857788ba01b9b5f270871ba5d5bfa54e4880162dda018a0a1087ae910160405180910390a160019450505050505b919050565b6001600160a01b038216611f5d57604051633250574960e11b815260006004820152602401611595565b6000611f6a838333615827565b9050836001600160a01b0316816001600160a01b031614611fb8576040516364283d7b60e01b81526001600160a01b0380861660048301526024820184905282166044820152606401611595565b50505050565b600061156c8183613115565b6000600d8281548110611fdf57611fdf617ae2565b600091825260209091206006600a90920201015460ff1692915050565b6029546001600160a01b0316156120555760405162461bcd60e51b815260206004820152601e60248201527f746974616e7773746f6e20616c726561647920696e697469616c697a656400006044820152606401611595565b602a546001600160a01b0316156120ae5760405162461bcd60e51b815260206004820152601760248201527f746f6e20616c726561647920696e697469616c697a65640000000000000000006044820152606401611595565b602980546001600160a01b03199081166001600160a01b03998a1617909155602a8054821697891697909717909655602b80549096169490961693909317909355602255602391909155602455602555565b601f5460ff16156121235760405162461bcd60e51b8152600401611595906178ce565b61212e828233615920565b6115b25760405162461bcd60e51b815260206004820152601a60248201527f6661696c656420746f207075742067656d20666f722073616c650000000000006044820152606401611595565b60008281526030602052604090206001015461219581615c11565b611fb88383615c1b565b6121a833611fbe565b6121c45760405162461bcd60e51b81526004016115959061792c565b6117d860008051602061802d83398151915282612490565b60006121e733611fbe565b6122035760405162461bcd60e51b81526004016115959061792c565b602b5460405163048dbcef60e41b81526001600160a01b03858116600483015260248201859052909116906348dbcef0906044016020604051808303816000875af1158015612256573d6000803e3d6000fd5b505050506040513d601f19601f8201168201806040525081019061227a9190617b11565b6122c15760405162461bcd60e51b81526020600482015260186024820152773330b4b632b2103a37903a3930b739b332b9103a37b5b2b760411b6044820152606401611595565b50600192915050565b602b546001600160a01b031633146122f45760405162461bcd60e51b815260040161159590617b2e565b601f5460ff16156123175760405162461bcd60e51b8152600401611595906178ce565b6001600160a01b03821661232a57600080fd5b336001600160a01b0383160361233f57600080fd5b600d818154811061235257612352617ae2565b600091825260209091206006600a90920201015460ff16156123a65760405162461bcd60e51b815260206004820152600d60248201526c11d95b481a5cc81b1bd8dad959609a1b6044820152606401611595565b6000818152601560205260409020546001600160a01b031633146123c957600080fd5b6123d4338383615caf565b6123df3383836125f5565b7f85d07a7616aea29f5d972fd9100b991c224490bd49b737377d908f66f34d9afd33838360405161241293929190617b7b565b60405180910390a15050565b6064831061243e5760405162461bcd60e51b815260040161159590617b9f565b600192909255600280546001600160a01b03199081166001600160a01b039586161790915560038054821695851695909517909455600480548516918416919091179055600580549093169116179055565b6001600160a01b03811633146124b95760405163334bd91960e11b815260040160405180910390fd5b6124c38282615d58565b505050565b336001600160a01b037f000000000000000000000000000000000000000000000000000000000000000016146125425760405163073e64fd60e21b81523360048201526001600160a01b037f0000000000000000000000000000000000000000000000000000000000000000166024820152604401611595565b6115b28282615dc5565b6125767ffcb9fcbfa83b897fb2d5cf4b58962164105c1e71489a37ef3ae0db3fdce576f633613115565b6125925760405162461bcd60e51b815260040161159590617be3565b601f5460ff16156125b55760405162461bcd60e51b8152600401611595906178ce565b601f805460ff191690556040513381527f5db9ee0a495bf2e6ff9c91a7834c1ba4fdd244a5e8aa4e537bd38aeae4b073aa906020015b60405180910390a1565b6124c38383836040518060200160405280600081525061457e565b602c546001600160a01b0316331461263a5760405162461bcd60e51b815260040161159590617b2e565b80600d838154811061264e5761264e617ae2565b60009182526020909120600a90910201600601805460ff19169115159190911790555050565b600d818154811061268457600080fd5b60009182526020909120600a90910201805460018201546003830154600484015460058501546006860154600787015460088801805497995060ff96871698958716979496939592909316939092906126dc906178f8565b80601f0160208091040260200160405190810160405280929190818152602001828054612708906178f8565b80156127555780601f1061272a57610100808354040283529160200191612755565b820191906000526020600020905b81548152906001019060200180831161273857829003601f168201915b5050505050908060090154905089565b600061156c8261564f565b600e6020526000908152604090208054612789906178f8565b80601f01602080910402602001604051908101604052809291908181526020018280546127b5906178f8565b80156128025780601f106127d757610100808354040283529160200191612802565b820191906000526020600020905b8154815290600101906020018083116127e557829003601f168201915b505050505081565b61281333611fbe565b61282f5760405162461bcd60e51b81526004016115959061792c565b6117d860008261217a565b61284333611fbe565b61285f5760405162461bcd60e51b81526004016115959061792c565b6115f0600033612490565b61287333611fbe565b61288f5760405162461bcd60e51b81526004016115959061792c565b6001600160a01b0381166128e55760405162461bcd60e51b815260206004820152601860248201527f41636365737369626c653a207a65726f206164647265737300000000000000006044820152606401611595565b6001600160a01b03811633036129365760405162461bcd60e51b815260206004820152601660248201527520b1b1b2b9b9b4b136329d1039b0b6b29030b236b4b760511b6044820152606401611595565b61294160008261217a565b6117d8600033612490565b601f5460ff161561296f5760405162461bcd60e51b8152600401611595906178ce565b81516000036129ac5760405162461bcd60e51b81526020600482015260096024820152686e6f20746f6b656e7360b81b6044820152606401611595565b80518251146129ec5760405162461bcd60e51b815260206004820152600c60248201526b0eee4dedcce40d8cadccee8d60a31b6044820152606401611595565b60005b82518110156124c357612a35838281518110612a0d57612a0d617ae2565b6020026020010151838381518110612a2757612a27617ae2565b602002602001015133615920565b612a815760405162461bcd60e51b815260206004820152601a60248201527f6661696c656420746f207075742067656d20666f722073616c650000000000006044820152606401611595565b6001016129ef565b612a9233611fbe565b612aae5760405162461bcd60e51b81526004016115959061792c565b60648110612ace5760405162461bcd60e51b815260040161159590617b9f565b60018190556040518181527f21a8eefc17e9c864964b5a4c0769d87f39cc0a7576773159e12358bc0095ffc59060200160405180910390a150565b601f5460009060ff1615612b2f5760405162461bcd60e51b8152600401611595906178ce565b6000828152601560205260409020546001600160a01b03163314612b855760405162461bcd60e51b815260206004820152600d60248201526c3737ba1023a2a69037bbb732b960991b6044820152606401611595565b600d8281548110612b9857612b98617ae2565b90600052602060002090600a020160090154600003612bf95760405162461bcd60e51b815260206004820181905260248201527f6e6f2072616e646f6d207265717565737420666f72207468697320746f6b656e6044820152606401611595565b336000908152601b6020908152604080832085845290915290205460ff161515600114612c685760405162461bcd60e51b815260206004820152601b60248201527f75736572206973206e6f74206d696e696e6720746869732047656d00000000006044820152606401611595565b600d8281548110612c7b57612c7b617ae2565b600091825260208083206005600a909302019190910154338352601c82526040808420868552909252912054612cb19190617c26565b4211612cff5760405162461bcd60e51b815260206004820152601d60248201527f6d696e696e6720706572696f6420686173206e6f7420656c61707365640000006044820152606401611595565b600d8281548110612d1257612d12617ae2565b600091825260209091206006600a90920201015460ff161515600114612d6f5760405162461bcd60e51b815260206004820152601260248201527147656d73206973206e6f74206d696e696e6760701b6044820152606401611595565b336000818152601960209081526040808320805460ff19908116909155601b8352818420878552835281842080549091169055838352601c82528083208684528252808320839055928252601a9052908120819055600d805484908110612dd857612dd8617ae2565b600091825260208220600a9190910201600601805460ff191692151592909217909155600d805484908110612e0f57612e0f617ae2565b60009182526020808320600a9290920290910160090154602b54818452601e90925260409283902060020154925163048dbcef60e41b8152336004820152602481019390935292506001600160a01b0316906348dbcef0906044016020604051808303816000875af1158015612e89573d6000803e3d6000fd5b505050506040513d601f19601f82011682018060405250810190612ead9190617b11565b612ef45760405162461bcd60e51b81526020600482015260186024820152773330b4b632b2103a37903a3930b739b332b9103a37b5b2b760411b6044820152606401611595565b604080518481523360208201527f97b363697f59781efcf0539a3eeabceea1e3b444e248009d3730fa6a26db9c24910160405180910390a150600192915050565b612f5f7ffcb9fcbfa83b897fb2d5cf4b58962164105c1e71489a37ef3ae0db3fdce576f633613115565b612f7b5760405162461bcd60e51b815260040161159590617be3565b601f5460ff1615612f9e5760405162461bcd60e51b8152600401611595906178ce565b601f805460ff191660011790556040513381527f62e78cea01bee320cd4e420270b5ea74000d11b0c9f74754ebdbfc544b05a258906020016125eb565b60606000612ffe836001600160a01b031660009081526016602052604090205490565b90508060000361301e575050604080516000815260208101909152919050565b6000816001600160401b0381111561303857613038616f75565b604051908082528060200260200182016040528015613061578160200160208202803683370190505b509050600061306e6117db565b9050600060015b8281116130db576000818152601560205260409020546001600160a01b038089169116036130c957808483815181106130b0576130b0617ae2565b6020908102919091010152816130c581617c39565b9250505b806130d381617c39565b915050613075565b509195945050505050565b50919050565b602681815481106130fc57600080fd5b600091825260209091200154905081565b60006117ed81335b60009182526030602090815260408084206001600160a01b0393909316845291905290205460ff1690565b606060078054611601906178f8565b61315833611fbe565b6131745760405162461bcd60e51b81526004016115959061792c565b6117d860008051602061802d8339815191528261217a565b6115f060008051602061802d83398151915233612490565b6115b2338383615f5d565b601381815481106131bf57600080fd5b906000526020600020016000915090508054612789906178f8565b600061156c60008051602061802d83398151915283613115565b600f5460609060ff908116908316106132455760405162461bcd60e51b8152602060048201526013602482015272496e646578206f7574206f6620626f756e647360681b6044820152606401611595565b60ff82166000908152600e602052604090208054613262906178f8565b80601f016020809104026020016040519081016040528092919081815260200182805461328e906178f8565b80156132db5780601f106132b0576101008083540402835291602001916132db565b820191906000526020600020905b8154815290600101906020018083116132be57829003601f168201915b50505050509050919050565b602b546060906001600160a01b031633146133145760405162461bcd60e51b815260040161159590617b2e565b601f5460ff16156133375760405162461bcd60e51b8152600401611595906178ce565b86518851148015613349575085518751145b8015613356575084518651145b8015613363575083518551145b8015613370575082518451145b801561337d575081518351145b6133d85760405162461bcd60e51b815260206004820152602660248201527f496e70757420617272617973206d7573742068617665207468652073616d65206044820152650d8cadccee8d60d31b6064820152608401611595565b600086516001600160401b038111156133f3576133f3616f75565b60405190808252806020026020018201604052801561341c578160200160208202803683370190505b50905060005b875181101561457157600087828151811061343f5761343f617ae2565b602002602001015160036004811061345957613459617ae2565b602002015188838151811061347057613470617ae2565b602002602001015160026004811061348a5761348a617ae2565b60200201518984815181106134a1576134a1617ae2565b60200260200101516001600481106134bb576134bb617ae2565b60200201518a85815181106134d2576134d2617ae2565b60200260200101516000600481106134ec576134ec617ae2565b60200201516134fb9190617af8565b6135059190617af8565b61350f9190617af8565b905060008b838151811061352557613525617ae2565b6020026020010151600581111561353e5761353e6171e5565b036137485787828151811061355557613555617ae2565b602002602001015160006004811061356f5761356f617ae2565b602002015160ff16600114806135b8575087828151811061359257613592617ae2565b60200260200101516000600481106135ac576135ac617ae2565b602002015160ff166002145b801561363457508782815181106135d1576135d1617ae2565b60200260200101516001600481106135eb576135eb617ae2565b602002015160ff1660011480613634575087828151811061360e5761360e617ae2565b602002602001015160016004811061362857613628617ae2565b602002015160ff166002145b80156136b0575087828151811061364d5761364d617ae2565b602002602001015160026004811061366757613667617ae2565b602002015160ff16600114806136b0575087828151811061368a5761368a617ae2565b60200260200101516002600481106136a4576136a4617ae2565b602002015160ff166002145b801561372c57508782815181106136c9576136c9617ae2565b60200260200101516003600481106136e3576136e3617ae2565b602002015160ff166001148061372c575087828151811061370657613706617ae2565b602002602001015160036004811061372057613720617ae2565b602002015160ff166002145b6137485760405162461bcd60e51b815260040161159590617c52565b60018b838151811061375c5761375c617ae2565b60200260200101516005811115613775576137756171e5565b0361397f5787828151811061378c5761378c617ae2565b60200260200101516000600481106137a6576137a6617ae2565b602002015160ff16600214806137ef57508782815181106137c9576137c9617ae2565b60200260200101516000600481106137e3576137e3617ae2565b602002015160ff166003145b801561386b575087828151811061380857613808617ae2565b602002602001015160016004811061382257613822617ae2565b602002015160ff166002148061386b575087828151811061384557613845617ae2565b602002602001015160016004811061385f5761385f617ae2565b602002015160ff166003145b80156138e7575087828151811061388457613884617ae2565b602002602001015160026004811061389e5761389e617ae2565b602002015160ff16600214806138e757508782815181106138c1576138c1617ae2565b60200260200101516002600481106138db576138db617ae2565b602002015160ff166003145b8015613963575087828151811061390057613900617ae2565b602002602001015160036004811061391a5761391a617ae2565b602002015160ff1660021480613963575087828151811061393d5761393d617ae2565b602002602001015160036004811061395757613957617ae2565b602002015160ff166003145b61397f5760405162461bcd60e51b815260040161159590617ca0565b60028b838151811061399357613993617ae2565b602002602001015160058111156139ac576139ac6171e5565b03613bb6578782815181106139c3576139c3617ae2565b60200260200101516000600481106139dd576139dd617ae2565b602002015160ff1660031480613a265750878281518110613a0057613a00617ae2565b6020026020010151600060048110613a1a57613a1a617ae2565b602002015160ff166004145b8015613aa25750878281518110613a3f57613a3f617ae2565b6020026020010151600160048110613a5957613a59617ae2565b602002015160ff1660031480613aa25750878281518110613a7c57613a7c617ae2565b6020026020010151600160048110613a9657613a96617ae2565b602002015160ff166004145b8015613b1e5750878281518110613abb57613abb617ae2565b6020026020010151600260048110613ad557613ad5617ae2565b602002015160ff1660031480613b1e5750878281518110613af857613af8617ae2565b6020026020010151600260048110613b1257613b12617ae2565b602002015160ff166004145b8015613b9a5750878281518110613b3757613b37617ae2565b6020026020010151600360048110613b5157613b51617ae2565b602002015160ff1660031480613b9a5750878281518110613b7457613b74617ae2565b6020026020010151600360048110613b8e57613b8e617ae2565b602002015160ff166004145b613bb65760405162461bcd60e51b815260040161159590617cec565b60038b8381518110613bca57613bca617ae2565b60200260200101516005811115613be357613be36171e5565b03613ded57878281518110613bfa57613bfa617ae2565b6020026020010151600060048110613c1457613c14617ae2565b602002015160ff1660041480613c5d5750878281518110613c3757613c37617ae2565b6020026020010151600060048110613c5157613c51617ae2565b602002015160ff166005145b8015613cd95750878281518110613c7657613c76617ae2565b6020026020010151600160048110613c9057613c90617ae2565b602002015160ff1660041480613cd95750878281518110613cb357613cb3617ae2565b6020026020010151600160048110613ccd57613ccd617ae2565b602002015160ff166005145b8015613d555750878281518110613cf257613cf2617ae2565b6020026020010151600260048110613d0c57613d0c617ae2565b602002015160ff1660041480613d555750878281518110613d2f57613d2f617ae2565b6020026020010151600260048110613d4957613d49617ae2565b602002015160ff166005145b8015613dd15750878281518110613d6e57613d6e617ae2565b6020026020010151600360048110613d8857613d88617ae2565b602002015160ff1660041480613dd15750878281518110613dab57613dab617ae2565b6020026020010151600360048110613dc557613dc5617ae2565b602002015160ff166005145b613ded5760405162461bcd60e51b815260040161159590617d3a565b60048b8381518110613e0157613e01617ae2565b60200260200101516005811115613e1a57613e1a6171e5565b0361404757878281518110613e3157613e31617ae2565b6020026020010151600060048110613e4b57613e4b617ae2565b602002015160ff1660051480613e945750878281518110613e6e57613e6e617ae2565b6020026020010151600060048110613e8857613e88617ae2565b602002015160ff166006145b8015613f105750878281518110613ead57613ead617ae2565b6020026020010151600160048110613ec757613ec7617ae2565b602002015160ff1660051480613f105750878281518110613eea57613eea617ae2565b6020026020010151600160048110613f0457613f04617ae2565b602002015160ff166006145b8015613f8c5750878281518110613f2957613f29617ae2565b6020026020010151600260048110613f4357613f43617ae2565b602002015160ff1660051480613f8c5750878281518110613f6657613f66617ae2565b6020026020010151600260048110613f8057613f80617ae2565b602002015160ff166006145b80156140085750878281518110613fa557613fa5617ae2565b6020026020010151600360048110613fbf57613fbf617ae2565b602002015160ff16600514806140085750878281518110613fe257613fe2617ae2565b6020026020010151600360048110613ffc57613ffc617ae2565b602002015160ff166006145b6140245760405162461bcd60e51b815260040161159590617d86565b60188160ff16106140475760405162461bcd60e51b815260040161159590617dd7565b60058b838151811061405b5761405b617ae2565b60200260200101516005811115614074576140746171e5565b036141895787828151811061408b5761408b617ae2565b60200260200101516000600481106140a5576140a5617ae2565b602002015160ff1660061480156140ef57508782815181106140c9576140c9617ae2565b60200260200101516001600481106140e3576140e3617ae2565b602002015160ff166006145b801561412e575087828151811061410857614108617ae2565b602002602001015160026004811061412257614122617ae2565b602002015160ff166006145b801561416d575087828151811061414757614147617ae2565b602002602001015160036004811061416157614161617ae2565b602002015160ff166006145b6141895760405162461bcd60e51b815260040161159590617e1b565b6000604051806101400160405280600081526020018d85815181106141b0576141b0617ae2565b602002602001015160058111156141c9576141c96171e5565b81526020018a85815181106141e0576141e0617ae2565b602002602001015181526020018c85815181106141ff576141ff617ae2565b602002602001015160ff16815260200188858151811061422157614221617ae2565b6020026020010151426142349190617c26565b815260200189858151811061424b5761424b617ae2565b602002602001015181526020016000151581526020018b858151811061427357614273617ae2565b6020026020010151815260200187858151811061429257614292617ae2565b60209081029190910181015182526000918101829052600d805460018181018355919093528351600a9093027fd7b6990105719101dabeb77144f2a3385c8033acd3af97e9423a695e81ad1eb58101938455918401517fd7b6990105719101dabeb77144f2a3385c8033acd3af97e9423a695e81ad1eb690920180549495508594909160ff199091169083600581111561432e5761432e6171e5565b021790555060408201516143489060028301906004616d69565b50606082015160038201805460ff90921660ff199283161790556080830151600483015560a0830151600583015560c08301516006830180549115159190921617905560e0820151600782015561010082015160088201906143aa90826179b6565b506101209190910151600990910155600d546000906143cb90600190617aa9565b90508063ffffffff1681146143df57600080fd5b63ffffffff81168252600081815260156020908152604080832080546001600160a01b0319163390811790915583526016909152812080549161442183617c39565b91905055506144303382615ffc565b6144538188868151811061444657614446617ae2565b6020026020010151616016565b807f3b4ffaf1e6dc44d4db16f26116a0604e712d1b0a4806a1ac3b68448ddcf9275c8e868151811061448757614487617ae2565b60200260200101518e87815181106144a1576144a1617ae2565b60200260200101518e88815181106144bb576144bb617ae2565b60200260200101518e89815181106144d5576144d5617ae2565b60200260200101518e8a815181106144ef576144ef617ae2565b60200260200101518e8b8151811061450957614509617ae2565b60200260200101518e8c8151811061452357614523617ae2565b602002602001015133604051614540989796959493929190617e64565b60405180910390a28085858151811061455b5761455b617ae2565b6020908102919091010152505050600101613422565b5098975050505050505050565b614589848484611f33565b611fb88484848461605f565b601081815481106131bf57600080fd5b6000818152601560205260409020546001600160a01b031680611f2e57600080fd5b602b546060906117ed906001600160a01b0316612fdb565b6000818152601560205260409020546060906001600160a01b031661465e5760405162461bcd60e51b815260206004820152602f60248201527f4552433732314d657461646174613a2055524920717565727920666f72206e6f60448201526e3732bc34b9ba32b73a103a37b5b2b760891b6064820152608401611595565b61156c82616188565b61467033611fbe565b61468c5760405162461bcd60e51b81526004016115959061792c565b602c80546001600160a01b0319166001600160a01b0392909216919091179055565b6146b733611fbe565b6146d35760405162461bcd60e51b81526004016115959061792c565b6117d860008051602061802d833981519152825b60008281526030602052604090206001015461470281615c11565b611fb88383615d58565b602c546001600160a01b031633146147365760405162461bcd60e51b815260040161159590617b2e565b601f5460ff16156147595760405162461bcd60e51b8152600401611595906178ce565b6000818152601560205260409020546001600160a01b03166147b65760405162461bcd60e51b815260206004820152601660248201527522a9219b9918a737b732bc34b9ba32b73a2a37b5b2b760511b6044820152606401611595565b600d81815481106147c9576147c9617ae2565b600091825260209091206006600a90920201015460ff161561481d5760405162461bcd60e51b815260206004820152600d60248201526c11d95b481a5cc81b1bd8dad959609a1b6044820152606401611595565b6000818152601560205260409020546001600160a01b038481169116146148785760405162461bcd60e51b815260206004820152600f60248201526e2737ba103a37b5b2b71037bbb732b960891b6044820152606401611595565b6001600160a01b0382166148c05760405162461bcd60e51b815260206004820152600f60248201526e496e76616c6964206164647265737360881b6044820152606401611595565b6148cb838383615caf565b6148d68383836125f5565b7f85d07a7616aea29f5d972fd9100b991c224490bd49b737377d908f66f34d9afd83838360405161490993929190617b7b565b60405180910390a1505050565b602b546000906001600160a01b031633146149435760405162461bcd60e51b815260040161159590617b2e565b601f5460ff16156149665760405162461bcd60e51b8152600401611595906178ce565b6060850151604086015160208701518751600093929161498591617af8565b61498f9190617af8565b6149999190617af8565b905060008960058111156149af576149af6171e5565b03614a6457855160ff16600114806149cb5750855160ff166002145b80156149f25750602086015160ff16600114806149f25750856001602002015160ff166002145b8015614a195750856002602002015160ff1660011480614a195750604086015160ff166002145b8015614a435750856003602002015160ff1660011480614a435750856003602002015160ff166002145b614a5f5760405162461bcd60e51b815260040161159590617c52565b614e5c565b6001896005811115614a7857614a786171e5565b03614b2857855160ff1660021480614a945750855160ff166003145b8015614abe5750856001602002015160ff1660021480614abe5750856001602002015160ff166003145b8015614ae55750604086015160ff1660021480614ae55750856002602002015160ff166003145b8015614b0c5750856003602002015160ff1660021480614b0c5750606086015160ff166003145b614a5f5760405162461bcd60e51b815260040161159590617ca0565b6002896005811115614b3c57614b3c6171e5565b03614bef57855160ff1660031480614b585750855160ff166004145b8015614b825750856001602002015160ff1660031480614b825750856001602002015160ff166004145b8015614bac5750856002602002015160ff1660031480614bac5750856002602002015160ff166004145b8015614bd35750606086015160ff1660031480614bd35750856003602002015160ff166004145b614a5f5760405162461bcd60e51b815260040161159590617cec565b6003896005811115614c0357614c036171e5565b03614cb957855160ff1660041480614c1f5750855160ff166005145b8015614c495750856001602002015160ff1660041480614c495750856001602002015160ff166005145b8015614c735750856002602002015160ff1660041480614c735750856002602002015160ff166005145b8015614c9d5750856003602002015160ff1660041480614c9d5750856003602002015160ff166005145b614a5f5760405162461bcd60e51b815260040161159590617d3a565b6004896005811115614ccd57614ccd6171e5565b03614da657855160ff1660051480614ce95750855160ff166006145b8015614d135750856001602002015160ff1660051480614d135750856001602002015160ff166006145b8015614d3d5750856002602002015160ff1660051480614d3d5750856002602002015160ff166006145b8015614d675750856003602002015160ff1660051480614d675750856003602002015160ff166006145b614d835760405162461bcd60e51b815260040161159590617d86565b60188160ff1610614a5f5760405162461bcd60e51b815260040161159590617dd7565b6005896005811115614dba57614dba6171e5565b03614e2557855160ff166006148015614ddd5750856001602002015160ff166006145b8015614df35750856002602002015160ff166006145b8015614e095750856003602002015160ff166006145b614a5f5760405162461bcd60e51b815260040161159590617e1b565b60405162461bcd60e51b815260206004820152600c60248201526b77726f6e672052617269747960a01b6044820152606401611595565b6000604051806101400160405280600081526020018b6005811115614e8357614e836171e5565b81526020810189905260ff8b166040820152606001614ea28742617c26565b81526020808201899052600060408301819052606083018c90526080830188905260a0909201829052600d805460018181018355919093528351600a9093027fd7b6990105719101dabeb77144f2a3385c8033acd3af97e9423a695e81ad1eb58101938455918401517fd7b6990105719101dabeb77144f2a3385c8033acd3af97e9423a695e81ad1eb690920180549495508594909160ff1990911690836005811115614f5157614f516171e5565b02179055506040820151614f6b9060028301906004616d69565b50606082015160038201805460ff90921660ff199283161790556080830151600483015560a0830151600583015560c08301516006830180549115159190921617905560e082015160078201556101008201516008820190614fcd90826179b6565b506101209190910151600990910155600d54600090614fee90600190617aa9565b905080600d828154811061500457615004617ae2565b60009182526020909120600a909102015563ffffffff8116811461502757600080fd5b600081815260156020908152604080832080546001600160a01b0319163390811790915583526016909152812080549161506083617c39565b919050555061506f3382615ffc565b6150798186616016565b807f3b4ffaf1e6dc44d4db16f26116a0604e712d1b0a4806a1ac3b68448ddcf9275c8c8c8c8c8c8c8c336040516150b7989796959493929190617e64565b60405180910390a29a9950505050505050505050565b6001600160a01b039182166000908152600b6020908152604080832093909416825291909152205460ff1690565b60116020526000908152604090208054612789906178f8565b61511d33611fbe565b6151395760405162461bcd60e51b81526004016115959061792c565b6117d88161286a565b6040516315ae5acd60e11b815263ffffffff821660048201526000907f00000000000000000000000000000000000000000000000000000000000000006001600160a01b031690632b5cb59a90602401602060405180830381865afa1580156151af573d6000803e3d6000fd5b505050506040513d601f19601f8201168201806040525081019061156c9190617eef565b601f5460ff16156151f65760405162461bcd60e51b8152600401611595906178ce565b336152135760405162461bcd60e51b815260040161159590617abc565b6000818152601560205260409020546001600160a01b0316331461523657600080fd5b6000600d828154811061524b5761524b617ae2565b90600052602060002090600a02016007015490506152693383616299565b602b54604051630169dc3160e01b8152336004820152602481018390526001600160a01b0390911690630169dc31906044016020604051808303816000875af11580156152ba573d6000803e3d6000fd5b505050506040513d601f19601f820116820180604052508101906152de9190617b11565b61531c5760405162461bcd60e51b815260206004820152600f60248201526e1d1c985b9cd9995c8819985a5b1959608a1b6044820152606401611595565b604080518381523360208201527f65aff8e0552d208dfaf55b1280e55553b7dba628290897ff43c8f086d5dbfd2a9101612412565b600061156c82616386565b60006153666163ab565b6001600160a01b03831661538c5760405162461bcd60e51b815260040161159590617abc565b60008481526020819052604090206002015460ff166153dc5760405162461bcd60e51b815260206004820152600c60248201526b6e6f7420666f722073616c6560a01b6044820152606401611595565b6000848152602081905260408120600101549081900361542c5760405162461bcd60e51b815260206004820152600b60248201526a77726f6e6720707269636560a81b6044820152606401611595565b6000858152602081905260409020546001600160a01b0316806154805760405162461bcd60e51b815260206004820152600c60248201526b3bb937b7339039b2b63632b960a11b6044820152606401611595565b83156154a35760045461549e906001600160a01b0316868385615695565b615513565b60006154d16064600154856154b89190617f08565b6154c29190617f35565b6154cc9085617c26565b6163d5565b6003546005549192506154f3916001600160a01b039081169189911684615695565b600354600454615511916001600160a01b0391821691168486615695565b505b6000868152602081905260408082206002908101805460ff19169055549051634d723a7560e01b81526004810189905260248101929092526001600160a01b031690634d723a7590604401600060405180830381600087803b15801561557857600080fd5b505af115801561558c573d6000803e3d6000fd5b50506002546040516306b5dbdd60e51b81526001600160a01b03909116925063d6bb7ba091506155c490849089908b90600401617b7b565b600060405180830381600087803b1580156155de57600080fd5b505af11580156155f2573d6000803e3d6000fd5b5050604080518981526001600160a01b03891660208201527f4667f97447704e563c062cb2d3d2c46a04ff4b414adc8b735ff8259d2771f6f7935001905060405180910390a16001925050506156486001603155565b9392505050565b6000818152600860205260408120546001600160a01b03168061156c57604051637e27328960e01b815260048101849052602401611595565b6124c383838360016163e5565b611fb884856001600160a01b03166323b872dd8686866040516024016156bd93929190617b7b565b604051602081830303815290604052915060e01b6020820180516001600160e01b0383818316178352505050506164eb565b6040516315ae5acd60e11b815263ffffffff82166004820152600090819081906001600160a01b037f00000000000000000000000000000000000000000000000000000000000000001690632b5cb59a90602401602060405180830381865afa158015615760573d6000803e3d6000fd5b505050506040513d601f19601f820116820180604052508101906157849190617eef565b604051637072b97760e01b815263ffffffff861660048201529091506000906001600160a01b037f00000000000000000000000000000000000000000000000000000000000000001690637072b97790849060240160206040518083038185885af11580156157f7573d6000803e3d6000fd5b50505050506040513d601f19601f8201168201806040525081019061581c9190617eef565b959194509092505050565b6000828152600860205260408120546001600160a01b03908116908316156158545761585481848661654e565b6001600160a01b03811615615892576158716000856000806163e5565b6001600160a01b038116600090815260096020526040902080546000190190555b6001600160a01b038516156158c1576001600160a01b0385166000908152600960205260409020805460010190555b60008481526008602052604080822080546001600160a01b0319166001600160a01b0389811691821790925591518793918516917fddf252ad1be2c89b69c2b068fc378daa952ba7f163c4a11628f55a4df523b3ef91a4949350505050565b6002546040516331a9108f60e11b8152600481018590526000916001600160a01b0384811692911690636352211e90602401602060405180830381865afa15801561596f573d6000803e3d6000fd5b505050506040513d601f19601f820116820180604052508101906159939190617f49565b6001600160a01b0316146159e95760405162461bcd60e51b815260206004820152601860248201527f4e6f7420746865206f776e6572206f66207468652047454d00000000000000006044820152606401611595565b60008311615a395760405162461bcd60e51b815260206004820152601f60248201527f5072696365206d7573742062652067726561746572207468616e207a65726f006044820152606401611595565b60025460405163276a28a360e01b8152600481018690526001600160a01b039091169063276a28a390602401602060405180830381865afa158015615a82573d6000803e3d6000fd5b505050506040513d601f19601f82011682018060405250810190615aa69190617b11565b15615afd5760405162461bcd60e51b815260206004820152602160248201527f47656d20697320616c726561647920666f722073616c65206f72206d696e696e6044820152606760f81b6064820152608401611595565b600254604051634d723a7560e01b815260048101869052600160248201526001600160a01b0390911690634d723a7590604401600060405180830381600087803b158015615b4a57600080fd5b505af1158015615b5e573d6000803e3d6000fd5b505060408051606080820183526001600160a01b0387811680845260208085018b8152600186880181815260008f8152808552899020975188546001600160a01b031916961695909517875590519086015591516002909401805460ff19169415159490941790935583518a8152908101929092529181018790527f8b8052dfcc72d6fc28cd795f60661e1a701f185ce78c06a47b2ac29357d6ef8b935001905060405180910390a15060019392505050565b6117d881336165b2565b6000615c278383613115565b615ca75760008381526030602090815260408083206001600160a01b03861684529091529020805460ff19166001179055615c5f3390565b6001600160a01b0316826001600160a01b0316847f2f8788117e7eff1d82e926ec794901d17c78024a50270940304540a733656f0d60405160405180910390a450600161156c565b50600061156c565b6001600160a01b0382166000908152601660205260408120805491615cd383617c39565b9091555050600081815260156020908152604080832080546001600160a01b0319166001600160a01b03878116919091179091558616835260169091528120805491615d1e83617f66565b9091555050600090815260186020908152604080832080546001600160a01b03199081169091556017909252909120805490911690555050565b6000615d648383613115565b15615ca75760008381526030602090815260408083206001600160a01b0386168085529252808320805460ff1916905551339286917ff6391f5c32d9c69d2a47ea670b442974b53935d1edc7fd64eb21e047a839171b9190a450600161156c565b6000828152601e602052604090205460ff16615e165760405162461bcd60e51b815260206004820152601060248201526f52657175657374206e6f74206d61646560801b6044820152606401611595565b6000828152601e602090815260408083206003810154815461ff00191661010017825560019091018590556001600160a01b0316808452601a909252822054600d80549293929091908110615e6d57615e6d617ae2565b60009182526020822060408051608081019182905293600a90930290910160020191600491908390855b825461010083900a900460ff16815260206001928301818104948501949093039092029101808411615e9757905050505050509050600080615f0283600060048110615ee557615ee5617ae2565b6020908102919091015190850151604086015160608701516165eb565b90925090506000615f138387617f7d565b615f1e906001617c26565b9050818181518110615f3257615f32617ae2565b6020026020010151601e60008981526020019081526020016000206002018190555050505050505050565b6001600160a01b038216615f8f57604051630b61174360e31b81526001600160a01b0383166004820152602401611595565b6001600160a01b038381166000818152600b6020908152604080832094871680845294825291829020805460ff191686151590811790915591519182527f17307eab39ab6107e8899845ad3d59bd9653f200f220920489ca2b5937696c31910160405180910390a3505050565b6115b28282604051806020016040528060008152506168cc565b6000828152600c6020526040902061602e82826179b6565b506040518281527ff8e1a15aba9398e019f0b49df1a4fde98ee17ae345cb5f6b5e2c27f5033e8ce790602001612412565b6001600160a01b0383163b15611fb857604051630a85bd0160e11b81526001600160a01b0384169063150b7a02906160a1903390889087908790600401617f91565b6020604051808303816000875af19250505080156160dc575060408051601f3d908101601f191682019092526160d991810190617fc4565b60015b616145573d80801561610a576040519150601f19603f3d011682016040523d82523d6000602084013e61610f565b606091505b50805160000361613d57604051633250574960e11b81526001600160a01b0385166004820152602401611595565b805181602001fd5b6001600160e01b03198116630a85bd0160e11b1461618157604051633250574960e11b81526001600160a01b0385166004820152602401611595565b5050505050565b60606161938261564f565b506000828152600c6020526040812080546161ad906178f8565b80601f01602080910402602001604051908101604052809291908181526020018280546161d9906178f8565b80156162265780601f106161fb57610100808354040283529160200191616226565b820191906000526020600020905b81548152906001019060200180831161620957829003601f168201915b50505050509050600061624460408051602081019091526000815290565b90508051600003616256575092915050565b815115616288578082604051602001616270929190617fe1565b60405160208183030381529060405292505050919050565b616291846168e3565b949350505050565b600d81815481106162ac576162ac617ae2565b600091825260208220600a919091020181815560018101805460ff19908116909155600282018390556003820180548216905560048201839055600582018390556006820180549091169055600781018290559061630d6008830182616dfc565b5060006009919091018190556001600160a01b038316815260166020526040812080549161633a83617f66565b9091555050600081815260156020908152604080832080546001600160a01b0319908116909155601883528184208054821690556017909252909120805490911690556115b281616957565b60006001600160e01b03198216637965db0b60e01b148061156c575061156c82616992565b6002603154036163ce57604051633ee5aeb560e01b815260040160405180910390fd5b6002603155565b600061156c633b9aca0083617f35565b80806163f957506001600160a01b03821615155b156164bb5760006164098461564f565b90506001600160a01b038316158015906164355750826001600160a01b0316816001600160a01b031614155b8015616448575061644681846150cd565b155b156164715760405163a9fbf51f60e01b81526001600160a01b0384166004820152602401611595565b81156164b95783856001600160a01b0316826001600160a01b03167f8c5be1e5ebec7d5bd14f71427d1e84f3dd0314c0f7b2291e5b200ac8c7c3b92560405160405180910390a45b505b50506000908152600a6020526040902080546001600160a01b0319166001600160a01b0392909216919091179055565b60006165006001600160a01b038416836169b7565b905080516000141580156165255750808060200190518101906165239190617b11565b155b156124c357604051635274afe760e01b81526001600160a01b0384166004820152602401611595565b6165598383836169c5565b6124c3576001600160a01b03831661658757604051637e27328960e01b815260048101829052602401611595565b60405163177e802f60e01b81526001600160a01b038316600482015260248101829052604401611595565b6165bc8282613115565b6115b25760405163e2517d3f60e01b81526001600160a01b038216600482015260248101839052604401611595565b60006060600080600d805490506001600160401b0381111561660f5761660f616f75565b604051908082528060200260200182016040528015616638578160200160208202803683370190505b509050600080868861664a8b8d617af8565b6166549190617af8565b61665e9190617af8565b905060005b600d54811015616829576000600d828154811061668257616682617ae2565b90600052602060002090600a02016002016003600481106166a5576166a5617ae2565b602091828204019190069054906101000a900460ff16600d83815481106166ce576166ce617ae2565b90600052602060002090600a02016002016002600481106166f1576166f1617ae2565b602091828204019190069054906101000a900460ff16600d848154811061671a5761671a617ae2565b90600052602060002090600a020160020160016004811061673d5761673d617ae2565b602091828204019190069054906101000a900460ff16600d858154811061676657616766617ae2565b600091825260209091206002600a909202010154616787919060ff16617af8565b6167919190617af8565b61679b9190617af8565b90508260ff168160ff161080156167ce5750602b546000838152601560205260409020546001600160a01b039081169116145b1561682057600d82815481106167e6576167e6617ae2565b90600052602060002090600a02016000015485858151811061680a5761680a617ae2565b6020908102919091010152600195860195909301925b50600101616663565b506000846001600160401b0381111561684457616844616f75565b60405190808252806020026020018201604052801561686d578160200160208202803683370190505b50905060005b858110156168ba5784818151811061688d5761688d617ae2565b60200260200101518282815181106168a7576168a7617ae2565b6020908102919091010152600101616873565b50939a93995092975050505050505050565b6168d68383616a28565b6124c3600084848461605f565b60606168ee8261564f565b50600061690660408051602081019091526000815290565b905060008151116169265760405180602001604052806000815250615648565b8061693084616a8d565b604051602001616941929190617fe1565b6040516020818303038152906040529392505050565b60006169666000836000615827565b90506001600160a01b0381166115b257604051637e27328960e01b815260048101839052602401611595565b60006001600160e01b03198216632483248360e11b148061156c575061156c82616b1f565b606061564883836000616b6f565b60006001600160a01b038316158015906162915750826001600160a01b0316846001600160a01b031614806169ff57506169ff84846150cd565b806162915750506000908152600a60205260409020546001600160a01b03908116911614919050565b6001600160a01b038216616a5257604051633250574960e11b815260006004820152602401611595565b6000616a6083836000615827565b90506001600160a01b038116156124c3576040516339e3563760e11b815260006004820152602401611595565b60606000616a9a83616c0c565b60010190506000816001600160401b03811115616ab957616ab9616f75565b6040519080825280601f01601f191660200182016040528015616ae3576020820181803683370190505b5090508181016020015b600019016f181899199a1a9b1b9c1cb0b131b232b360811b600a86061a8153600a8504945084616aed57509392505050565b60006001600160e01b031982166380ac58cd60e01b1480616b5057506001600160e01b03198216635b5e139f60e01b145b8061156c57506301ffc9a760e01b6001600160e01b031983161461156c565b606081471015616b945760405163cd78605960e01b8152306004820152602401611595565b600080856001600160a01b03168486604051616bb09190618010565b60006040518083038185875af1925050503d8060008114616bed576040519150601f19603f3d011682016040523d82523d6000602084013e616bf2565b606091505b5091509150616c02868383616ce4565b9695505050505050565b60008072184f03e93ff9f4daa797ed6e38ed64bf6a1f0160401b8310616c4b5772184f03e93ff9f4daa797ed6e38ed64bf6a1f0160401b830492506040015b6d04ee2d6d415b85acef81000000008310616c77576d04ee2d6d415b85acef8100000000830492506020015b662386f26fc100008310616c9557662386f26fc10000830492506010015b6305f5e1008310616cad576305f5e100830492506008015b6127108310616cc157612710830492506004015b60648310616cd3576064830492506002015b600a831061156c5760010192915050565b606082616cf957616cf482616d40565b615648565b8151158015616d1057506001600160a01b0384163b155b15616d3957604051639996b31560e01b81526001600160a01b0385166004820152602401611595565b5080615648565b805115616d505780518082602001fd5b604051630a12f52160e11b815260040160405180910390fd5b600183019183908215616dec5791602002820160005b83821115616dbd57835183826101000a81548160ff021916908360ff1602179055509260200192600101602081600001049283019260010302616d7f565b8015616dea5782816101000a81549060ff0219169055600101602081600001049283019260010302616dbd565b505b50616df8929150616e32565b5090565b508054616e08906178f8565b6000825580601f10616e18575050565b601f0160209004906000526020600020908101906117d891905b5b80821115616df85760008155600101616e33565b6001600160e01b0319811681146117d857600080fd5b600060208284031215616e6f57600080fd5b813561564881616e47565b80151581146117d857600080fd5b60008060408385031215616e9b57600080fd5b823591506020830135616ead81616e7a565b809150509250929050565b60005b83811015616ed3578181015183820152602001616ebb565b50506000910152565b60008151808452616ef4816020860160208601616eb8565b601f01601f19169290920160200192915050565b6020815260006156486020830184616edc565b600060208284031215616f2d57600080fd5b5035919050565b6001600160a01b03811681146117d857600080fd5b60008060408385031215616f5c57600080fd5b8235616f6781616f34565b946020939093013593505050565b634e487b7160e01b600052604160045260246000fd5b604051601f8201601f191681016001600160401b0381118282101715616fb357616fb3616f75565b604052919050565b6000806001600160401b03841115616fd557616fd5616f75565b50601f8301601f1916602001616fea81616f8b565b915050828152838383011115616fff57600080fd5b828260208301376000602084830101529392505050565b600082601f83011261702757600080fd5b61564883833560208501616fbb565b60006020828403121561704857600080fd5b81356001600160401b0381111561705e57600080fd5b61629184828501617016565b60006020828403121561707c57600080fd5b813561564881616f34565b60008060006060848603121561709c57600080fd5b83356170a781616f34565b925060208401356170b781616f34565b929592945050506040919091013590565b600080600080600080600060e0888a0312156170e357600080fd5b87356170ee81616f34565b965060208801356170fe81616f34565b9550604088013561710e81616f34565b969995985095966060810135965060808101359560a0820135955060c0909101359350915050565b6000806040838503121561714957600080fd5b50508035926020909101359150565b6000806040838503121561716b57600080fd5b823591506020830135616ead81616f34565b600080600080600060a0868803121561719557600080fd5b85356171a081616f34565b945060208601356171b081616f34565b93506040860135925060608601356171c781616f34565b915060808601356171d781616f34565b809150509295509295909350565b634e487b7160e01b600052602160045260246000fd5b6006811061721957634e487b7160e01b600052602160045260246000fd5b9052565b89815261722d602082018a6171fb565b60ff8816604082015286606082015285608082015284151560a08201528360c082015261012060e08201526000617268610120830185616edc565b9050826101008301529a9950505050505050505050565b803560ff81168114611f2e57600080fd5b6000602082840312156172a257600080fd5b6156488261727f565b60006001600160401b038211156172c4576172c4616f75565b5060051b60200190565b600082601f8301126172df57600080fd5b81356172f26172ed826172ab565b616f8b565b8082825260208201915060208360051b86010192508583111561731457600080fd5b602085015b83811015617331578035835260209283019201617319565b5095945050505050565b6000806040838503121561734e57600080fd5b82356001600160401b0381111561736457600080fd5b617370858286016172ce565b92505060208301356001600160401b0381111561738c57600080fd5b617398858286016172ce565b9150509250929050565b602080825282518282018190526000918401906040840190835b818110156173da5783518352602093840193909201916001016173bc565b509095945050505050565b600080604083850312156173f857600080fd5b823561740381616f34565b91506020830135616ead81616e7a565b803560068110611f2e57600080fd5b600082601f83011261743357600080fd5b81356174416172ed826172ab565b8082825260208201915060208360051b86010192508583111561746357600080fd5b602085015b838110156173315761747981617413565b835260209283019201617468565b600082601f83011261749857600080fd5b81356174a66172ed826172ab565b8082825260208201915060208360051b8601019250858311156174c857600080fd5b602085015b83811015617331576174de8161727f565b8352602092830192016174cd565b600082601f8301126174fd57600080fd5b604051608081016001600160401b038111828210171561751f5761751f616f75565b60405280608084018581111561753457600080fd5b845b818110156130db576175478161727f565b835260209283019201617536565b600082601f83011261756657600080fd5b81356175746172ed826172ab565b8082825260208201915060208360071b86010192508583111561759657600080fd5b602085015b83811015617331576175ad87826174ec565b835260209092019160800161759b565b600082601f8301126175ce57600080fd5b81356175dc6172ed826172ab565b8082825260208201915060208360051b8601019250858311156175fe57600080fd5b602085015b838110156173315780356001600160401b0381111561762157600080fd5b617630886020838a0101617016565b84525060209283019201617603565b600080600080600080600060e0888a03121561765a57600080fd5b87356001600160401b0381111561767057600080fd5b61767c8a828b01617422565b97505060208801356001600160401b0381111561769857600080fd5b6176a48a828b01617487565b96505060408801356001600160401b038111156176c057600080fd5b6176cc8a828b016172ce565b95505060608801356001600160401b038111156176e857600080fd5b6176f48a828b01617555565b94505060808801356001600160401b0381111561771057600080fd5b61771c8a828b016172ce565b93505060a08801356001600160401b0381111561773857600080fd5b6177448a828b016172ce565b92505060c08801356001600160401b0381111561776057600080fd5b61776c8a828b016175bd565b91505092959891949750929550565b6000806000806080858703121561779157600080fd5b843561779c81616f34565b935060208501356177ac81616f34565b92506040850135915060608501356001600160401b038111156177ce57600080fd5b8501601f810187136177df57600080fd5b6177ee87823560208401616fbb565b91505092959194509250565b6000806000806000806000610140888a03121561781657600080fd5b61781f88617413565b965061782d6020890161727f565b9550604088013594506178438960608a016174ec565b935060e0880135925061010088013591506101208801356001600160401b0381111561786e57600080fd5b61776c8a828b01617016565b6000806040838503121561788d57600080fd5b823561789881616f34565b91506020830135616ead81616f34565b6000602082840312156178ba57600080fd5b813563ffffffff8116811461564857600080fd5b60208082526010908201526f14185d5cd8589b194e881c185d5cd95960821b604082015260600190565b600181811c9082168061790c57607f821691505b6020821081036130e657634e487b7160e01b600052602260045260246000fd5b60208082526023908201527f41757468436f6e74726f6c3a2043616c6c6572206973206e6f7420616e20616460408201526236b4b760e91b606082015260800190565b601f8211156124c357806000526020600020601f840160051c810160208510156179965750805b601f840160051c820191505b8181101561618157600081556001016179a2565b81516001600160401b038111156179cf576179cf616f75565b6179e3816179dd84546178f8565b8461796f565b6020601f821160018114617a1757600083156179ff5750848201515b600019600385901b1c1916600184901b178455616181565b600084815260208120601f198516915b82811015617a475787850151825560209485019460019092019101617a27565b5084821015617a655786840151600019600387901b60f8161c191681555b50505050600190811b01905550565b634e487b7160e01b600052601160045260246000fd5b600060ff821660ff8103617aa057617aa0617a74565b60010192915050565b8181038181111561156c5761156c617a74565b6020808252600c908201526b7a65726f206164647265737360a01b604082015260600190565b634e487b7160e01b600052603260045260246000fd5b60ff818116838216019081111561156c5761156c617a74565b600060208284031215617b2357600080fd5b815161564881616e7a565b6020808252602d908201527f66756e6374696f6e2063616c6c61626c652066726f6d2074726561737572792060408201526c636f6e7472616374206f6e6c7960981b606082015260800190565b6001600160a01b039384168152919092166020820152604081019190915260600190565b60208082526024908201527f646973636f756e742072617465206d757374206265206c657373207468616e206040820152633130302560e01b606082015260800190565b60208082526023908201527f41757468436f6e74726f6c3a2043616c6c6572206973206e6f7420612070617560408201526239b2b960e91b606082015260800190565b8082018082111561156c5761156c617a74565b600060018201617c4b57617c4b617a74565b5060010190565b6020808252602e908201527f416c6c207175616472616e7473206d7573742062652031206f72203220666f7260408201526d20434f4d4d4f4e2072617269747960901b606082015260800190565b6020808252602c908201527f416c6c207175616472616e7473206d7573742062652032206f72203320666f7260408201526b20524152452072617269747960a01b606082015260800190565b6020808252602e908201527f416c6c207175616472616e7473206d7573742062652033206f72203420666f7260408201526d20554e495155452072617269747960901b606082015260800190565b6020808252602c908201527f416c6c207175616472616e7473206d7573742062652034206f72203520666f7260408201526b20455049432072617269747960a01b606082015260800190565b60208082526031908201527f416c6c207175616472616e7473206d7573742062652035206f72203620666f72604082015270204c4547454e444152592072617269747960781b606082015260800190565b60208082526024908201527f746869732073756d20636f72726573706f6e647320746f2061204d79746869636040820152632047454d60e01b606082015260800190565b60208082526029908201527f416c6c207175616472616e7473206d757374206265203620666f72204d59544860408201526849432072617269747960b81b606082015260800190565b617e6e818a6171fb565b60ff881660208201528660408201526000606082018760005b6004811015617ea957815160ff16835260209283019290910190600101617e87565b5050508560e083015284610100830152610160610120830152617ed0610160830185616edc565b6001600160a01b03841661014084015290509998505050505050505050565b600060208284031215617f0157600080fd5b5051919050565b808202811582820484141761156c5761156c617a74565b634e487b7160e01b600052601260045260246000fd5b600082617f4457617f44617f1f565b500490565b600060208284031215617f5b57600080fd5b815161564881616f34565b600081617f7557617f75617a74565b506000190190565b600082617f8c57617f8c617f1f565b500690565b6001600160a01b0385811682528416602082015260408101839052608060608201819052600090616c0290830184616edc565b600060208284031215617fd657600080fd5b815161564881616e47565b60008351617ff3818460208801616eb8565b835190830190618007818360208801616eb8565b01949350505050565b60008251618022818460208701616eb8565b919091019291505056fe06aa03964db1f7257357ef09714a5f0ca3633723df419e97015e0c7a3e83edb7a26469706673582212200d78f43fa1b6d5c9c9ab74d65ecf34320277b5249eb7f51c6e8840d52659224c64736f6c634300081a0033",
    "linkReferences": {}
  },
  "methodIdentifiers": {
    "CALLBACK_GAS_LIMIT()": "33d608f1",
    "CommonMiningFees()": "4f557d27",
    "DEFAULT_ADMIN_ROLE()": "a217fddf",
    "EpicMiningFees()": "ce8ab5df",
    "GEMIndexToApproved(uint256)": "384c252f",
    "GEMIndexToOwner(uint256)": "97125c40",
    "Gems(uint256)": "61f7f6d7",
    "L1StakingIndex()": "d8f573cd",
    "PAUSE_ROLE()": "389ed267",
    "RareMiningFees()": "91490c4b",
    "TON_FEES_RATE_DIVIDER()": "08ec897d",
    "TREASURY_ROLE()": "d11a57ec",
    "UniqueMiningFees()": "adf8627e",
    "addAdmin(address)": "70480275",
    "addBackgroundColor(string)": "1d0e0aac",
    "addColor(string)": "15341f2b",
    "addMinter(address)": "983b2d56",
    "adminTransferGEM(address,uint256)": "33158058",
    "aliveImplementation(address)": "550d01a3",
    "approve(address,uint256)": "095ea7b3",
    "backgroundColors(uint256)": "a8ce886e",
    "balanceOf(address)": "70a08231",
    "buyGem(uint256,bool)": "02424ed3",
    "claimMinedGEM(uint256)": "7fe6fde5",
    "colors(uint256)": "bd11f69d",
    "createGEM(uint8,uint8,uint256,uint8[4],uint256,uint256,string)": "dc9ffd0a",
    "createGEMPool(uint8[],uint8[],uint256[],uint8[4][],uint256[],uint256[],string[])": "b3bec5df",
    "customBackgroundColors(uint8)": "ecc5e06f",
    "customBackgroundColorsCount()": "0922f513",
    "customColors(uint8)": "6b1a96fa",
    "customColorsCount()": "034294f8",
    "estimatedStakingIndexIncreaseRate()": "1d3392e2",
    "gemAllowedToAddress(uint256)": "119868bb",
    "gemFactory()": "a53225c0",
    "gemsForSale(uint256)": "9c41b42b",
    "getApproved(uint256)": "081812fc",
    "getCalculatedDirectFundingPrice(uint32)": "f5494bb9",
    "getCommonMiningFees()": "629296c5",
    "getCustomColor(uint8)": "aff2a463",
    "getRareMiningFees()": "fed7b27a",
    "getRoleAdmin(bytes32)": "248a9ca3",
    "getTon()": "2bbbe94d",
    "getTonFeesRate()": "a69c8fb2",
    "getTreasury()": "3b19e84a",
    "getUniqueMiningFees()": "8ba24af0",
    "getWston()": "e7a523c0",
    "grantRole(bytes32,address)": "2f2ff15d",
    "hasRole(bytes32,address)": "91d14854",
    "initialize(address,address,address,uint256,uint256,uint256,uint256)": "2b4656c8",
    "initialize(address,address,uint256,address,address)": "33e1a223",
    "isAdmin(address)": "24d7806c",
    "isApprovedForAll(address,address)": "e985e9c5",
    "isMinter(address)": "aa271e1a",
    "isOwner()": "8f32d59b",
    "isTokenLocked(uint256)": "276a28a3",
    "isUserMining(address)": "205fb1f8",
    "lastRequestId()": "fc2a88c3",
    "marketplace()": "abc8c7af",
    "meltGEM(uint256)": "f99a6bb5",
    "name()": "06fdde03",
    "ownerOf(uint256)": "6352211e",
    "ownerOfGEM(uint256)": "bd81009f",
    "ownershipTokenCount(address)": "cec21acb",
    "pause()": "8456cb59",
    "pauseProxy()": "63a8fd89",
    "paused()": "5c975abb",
    "preMintedGemsAvailable()": "c28fb6b7",
    "proxyImplementation(uint256)": "b911135f",
    "putGemForSale(uint256,uint256)": "2ede6432",
    "putGemListForSale(uint256[],uint256[])": "79dbd798",
    "rawFulfillRandomWords(uint256,uint256)": "37ed11db",
    "removeAdmin(address)": "1785f53c",
    "removeMinter(address)": "3092afd5",
    "renounceMinter()": "98650275",
    "renounceOwnership()": "715018a6",
    "renounceRole(bytes32,address)": "36568abe",
    "requestCount()": "5badbe4c",
    "requestIds(uint256)": "8796ba8c",
    "revokeMinter(address)": "cfbd4885",
    "revokeRole(bytes32,address)": "d547741f",
    "s_requests(uint256)": "a168fa89",
    "safeTransferFrom(address,address,uint256)": "42842e0e",
    "safeTransferFrom(address,address,uint256,bytes)": "b88d4fde",
    "selectorImplementation(bytes4)": "50d2a276",
    "setApprovalForAll(address,bool)": "a22cb465",
    "setApprovalForMarketplace()": "0491fd3e",
    "setDiscountRate(uint256)": "7c69febd",
    "setIsLocked(uint256,bool)": "4d723a75",
    "setMarketPlaceAddress(address)": "cc98ef96",
    "startMiningGEM(uint256)": "1da0fc9c",
    "supportsInterface(bytes4)": "01ffc9a7",
    "symbol()": "95d89b41",
    "tokenMiningByUser(address)": "c1389072",
    "tokenReadyToMine(uint256)": "7866369b",
    "tokenURI(uint256)": "c87b56dd",
    "tokensOfOwner(address)": "8462151c",
    "ton()": "cc48b947",
    "tonFeesRate()": "12788619",
    "totalSupply()": "18160ddd",
    "transferAdmin(address)": "75829def",
    "transferFrom(address,address,uint256)": "23b872dd",
    "transferGEM(address,uint256)": "337d54a1",
    "transferGEMFrom(address,address,uint256)": "d6bb7ba0",
    "transferOwnership(address)": "f2fde38b",
    "treasury()": "61d027b3",
    "unpause()": "3f4ba83a",
    "userMiningStartTime(address,uint256)": "676f79f1",
    "userMiningToken(address,uint256)": "a1770a7d",
    "wston()": "36b17e13"
  },
  "id": 55
}